:020000040000FA
:1000000018230020490300005103000031020000C2
:1000100055030000570300005903000000000000D2
:100020000000000000000000000000005B03000072
:100030005D030000000000005F030000610300009A
:10004000C706000063030000D90800006303000036
:100050006303000063030000650400006303000005
:1000600063030000630300006303000063030000F8
:1000700063030000630300006303000063030000E8
:1000800063030000D5060000630300006303000063
:10009000F90600006303000063030000630300002F
:1000A00063030000630300006303000063030000B8
:1000B0006303000063030000000000000000000074
:1000C0006303000063030000630300006303000098
:1000D0006303000063030000630300006303000088
:1000E00063030000630300006303000000000000DE
:1000F0000000000063030000000000006303000034
:1001000000000000000000000000000000000000EF
:1001100000000000000000000000000000000000DF
:1001200000000000000000000000000000000000CF
:1001300000000000000000000000000000000000BF
:1001400000000000000000000000000000000000AF
:10015000000000000000000000000000000000009F
:10016000000000000000000000000000000000008F
:10017000000000000000000000000000000000007F
:10018000000000000000000000000000000000006F
:10019000000000000000000000000000000000005F
:1001A000000000000000000000000000000000004F
:1001B000000000000000000000000000000000003F
:1001C000000000000000000000000000000000002F
:1001D000000000000000000000000000000000001F
:1001E000000000000000000000000000000000000F
:1001F00000000000000000000000000000000000FF
:10020000DFF80CD000F01CF9004800474111000055
:100210001823002000B583B002900091019244F2AF
:10022000010071466A4600F093FB03B000BD000078
:10023000094B1EF0040F1CBFEFF309801847EFF3C2
:1002400008800649064A884201D8904202D88D4665
:100250004FF0000018470000190600001823002086
:100260001803002030B4044654E8000F0D4644E85B
:100270000053002BF8D1156030BC704730B40446F1
:1002800054E8000F40EA010544E80053002BF7D181
:10029000156030BC704730B4044654E8000F00EAE3
:1002A000010544E80053002BF7D1156030BC7047BE
:1002B00030B4044654E8000F80EA010544E80053D6
:1002C000002BF7D1156030BC704730B4044654E8B9
:1002D000000F00EB010544E80053002BF7D1156037
:1002E00030BC704730B4044654E8000FA0EB010561
:1002F00044E80053002BF7D1156030BC704770B450
:1003000004464FF0000054E8006F0D68AE4207BF8E
:1003100044E80023012044E800630E60002B1CBF6A
:100320000020F0E770BC704730B4044654E8000F7A
:1003300088422CBF451A054644E80053002BF5D1EE
:10034000156030BC704700000648804706480047EB
:10035000FEE7FEE7FEE7FEE7FEE7FEE7FEE7FEE775
:10036000FEE7FEE7FD060000010200002DE9F05F58
:100370000546002092469B46884606468146402414
:100380001BE0284641464746224600F048F85346BF
:100390005A46C01A914110D311461846224600F021
:1003A00016F82D1A67EB01084F462246012000215E
:1003B00000F00DF817EB00094E41201EA4F10104D6
:1003C000DFDC484631462A464346BDE8F09F202AF6
:1003D00004DB203A00FA02F1002070479140C2F19C
:1003E000200320FA03F319439040704740EA0103C9
:1003F0009B0703D009E008C9121F08C0042AFAD2DB
:1004000003E011F8013B00F8013B521EF9D270479E
:10041000421C10F8011B0029FBD1801A7047202ACA
:1004200004DB203A21FA02F00021704721FA02F39E
:10043000D040C2F1200291400843194670470000A5
:10044000064C074D06E0E06840F0010394E8070021
:1004500098471034AC42F6D3FFF7D6FEE8340000DC
:10046000083500002DE9F04F00268DB0DFF8A0819F
:10047000B14604964FF48075012437460596284608
:1004800001F076F938B1D8F80403204203D02846A9
:1004900001F064F926432D1D64007F1CADB2082FC6
:1004A000EDD34FF4BE74204601F062F948B1204606
:1004B00001F054F946F0004604AA0221002001F0A0
:1004C00017F9544C16F0FF0F15D0012700253742BD
:1004D0000DD008EB8501D1F81005D1F81015C0F347
:1004E000052054F82520C1F3014102B190477F0057
:1004F0006D1C082DEBD3002E7EDA0020CDF828905D
:10050000411E0DF1100B07AACDF82C9042F82010D7
:10051000401C91460228F9D300252E46A11911F856
:10052000607F91F9000027F0C008401C40D007A967
:10053000404600F06CFE40B34FEA971A404600F088
:100540001DFC54F820701FB1BAF1030F03D006E070
:10055000BAF1030F2CD10AA9404600F060FE02A8B0
:10056000CDF8088001F00CF8029900EB8100D0F87A
:10057000000704A9C0F301400290404600F047FE86
:100580000028029802D0022802D011E003280FD1DF
:10059000BAF1030F08D10298022833D00221404655
:1005A00000F0A5FF6D1CEDB217B151464046B847AB
:1005B000761C042EB2D3002D21D001AA02210020E6
:1005C00001F096F800205A460DF1040152F820601F
:1005D00051F82030B34217D000200AAE4FEA090389
:1005E00051F8207042F8207056F8207043F82070BF
:1005F000401C0228F4D300E001E0002D8CD10DB0A6
:10060000BDE8F08F0321CAE7401C0228DED3F6E7DD
:100610000060004030010020084909680749091DB1
:1006200009680021491C1A29FCD30449C83109680A
:10063000C90700D000BE00F003F8000028ED00E07C
:10064000BFF34F8F05480168054A01F4E06111438B
:100650000160BFF34F8F00BFFDE700000CED00E02D
:100660000400FA0500F01F020121914040098000BA
:1006700000F1E020C0F88012704700F01F02012155
:1006800091404009800000F1E020C0F8001170475F
:1006900000F01F02012191404009800000F1E0209C
:1006A000C0F8001270474907090E002806DA00F06A
:1006B0000F0000F1E02080F8141D704700F1E020E9
:1006C00080F80014704710B501F0EEFDBDE8104051
:1006D00001F018BD07480021C0F84011C0F84411CE
:1006E000C0F84811C0F84C11C0F80011C0F804114E
:1006F00002F096BC0010014002F0E4BB30B54FF0B0
:10070000805000228300D0F83011C3F80C21C3F8C8
:100710001021624B1A60624B1B68624C2360604B75
:100720001B1D1B68241D23605D4B08331B68241DA3
:1007300023605B4B0C331B68241D2360584B103324
:100740001B68241D2360564B14331B68241D236033
:10075000534B18331B68534C20342360504B1C33CD
:100760001B68241D23604E4B20331B68241D23600F
:100770004B4B24331B68241D2360494B28331B68D3
:10078000241D2360464B2C331B68241D2360444BDF
:1007900030331B68434C40342360414B34331B6877
:1007A000241D23603E4B38331B68241D23603C4BC3
:1007B0003C331B68241D2360394B40331B68241DC8
:1007C00023600124082902D1D0F8343113B108295B
:1007D00004D006E0354B3449196005E0D0F83431D7
:1007E00013B1082904D006E0314BFB21196005E064
:1007F000D0F8343113B1082908D00EE090F85832FF
:100800002C48016863F30301016002E0D0F8343141
:100810001BB929494FF40070086028480168C907CE
:1008200002D06FF0010101602548016841F47001B8
:100830000160BFF34F8FBFF36F8F4FF01021D1F8DE
:100840000002002803DBD1F80402002822DA1D4B45
:100850001C601D480468002CFCD01224C1F8004222
:100860000568002DFCD0C1F8044201680029FCD0C5
:100870001A6001680029FCD0BFF34F8F10487C3804
:100880000168124A01F4E06111430160BFF34F8F28
:1008900000BFFDE70F490E48086030BD3805004035
:1008A0000404001020C50040488103008C5600401D
:1008B00018F50040E40E004040960240000400405D
:1008C00088ED00E004E5014000E401400400FA0581
:1008D0000090D0036800002010B5054C206818B9BE
:1008E00004A12B2000F0E0F92068BDE8104000478B
:1008F000480000202E2E5C2E2E5C2E2E5C2E2E5CB0
:100900002E2E5C2E2E5C6D6F64756C65735C6E7242
:1009100066785C647269766572735C7372635C702E
:1009200072735C6E7266785F7072732E6300000083
:1009300002E008C8121F08C1002AFAD170477047A8
:10094000002001E001C1121F002AFBD17047000006
:1009500072B6034B1B68DB0700D000BE00F002B884
:10096000F0ED00E008B501238DF800309DF800306F
:10097000144B186059609A606FF48041401807D09A
:1009800001280FD1DA60D86800889861D86807E03C
:100990001A61186980685861186900689861186957
:1009A0004068D861186858689868D86818695869A4
:1009B0009869D86972B600BF9DF800000028FBD185
:1009C00062B608BDEC010020074B9B7823B12AB129
:1009D00020B10068037C1BB10820704707207047D6
:1009E00041744261002070470C02002070B502F093
:1009F00045F9104800240B21047044700E4D81709D
:100A000014206C602C706C70FFF72CFE07211420F2
:100A1000FFF749FE1420FFF730FE08480460072165
:100A20001120FFF740FE0548001F0068A860002065
:100A300070BD00000C02002050000020081501408D
:100A40002DE9F843DFF8709099F802305BB350B3AA
:100A5000052902D20720BDE8F88343691BB3437C14
:100A6000012B22D00027044600258846164628463A
:100A700000F036F8684602F0D3FCC0B101210170E5
:100A80000E4944600968C0E90218C0E904769DF87F
:100A9000000089F80100002000F050F81420FFF752
:100AA000F7FD2846D7E70820D5E70F46DBE7042502
:100AB000002000F043F8F4E70C0200200415014088
:100AC0000649897839B130B1416921B100210174F9
:100AD000022102F085BA0820704700000C020020B5
:100AE00010B502F02BF8012803D004A11D2000F05E
:100AF000DBF8BDE8104000F04FB800002E2E5C2E51
:100B00002E5C2E2E5C2E2E5C2E2E5C2E2E5C636FA9
:100B10006D706F6E656E74735C6C69627261726920
:100B200065735C7574696C5C6170705F7574696C19
:100B30005F706C6174666F726D2E630010B501F0AA
:100B4000FDFF012803D004A12B2000F0ADF8BDE883
:100B5000104000F029B800002E2E5C2E2E5C2E2EA8
:100B60005C2E2E5C2E2E5C2E2E5C636F6D706F6E75
:100B7000656E74735C6C69627261726965735C75D1
:100B800074696C5C6170705F7574696C5F706C61C6
:100B900074666F726D2E630072B602480168491C5C
:100BA000016070476400002003490868401E086027
:100BB00000D162B6704700006400002070B50546A1
:100BC00008680C46411C04D000F06AFD206800F063
:100BD0007AFC6068411C02D0002100F062FC2968A8
:100BE000A069C1F82405607D227D29681043C1F801
:100BF0006C05D4E900122868C0F81425C0F80C155B
:100C0000207D012814D1A068411C02D0002100F0F1
:100C100048FCE068411C04D000F042FDE06800F0B0
:100C200052FCD4E902122868C0F80825C0F8101553
:100C300070BD70B5054608680C46411C04D000F034
:100C400039FD206800F049FC6068411C02D0002199
:100C500000F030FC2968A069C1F82405607D217D81
:100C60002A680843C2F86C05D4E900122868C0F865
:100C70000C15C0F81425207D012814D1A068411C52
:100C800002D0002100F016FCE068411C04D000F006
:100C900011FDE06800F021FCD4E902122868C0F8D8
:100CA0000825C0F8101570BD1CB56A46ADF80000E7
:100CB0000191002144F20200FFF74AFE1CBD000032
:100CC0002DE9FC410646C0074FF000050ED0104F3D
:100CD00000240122385D009500231146019500F0A3
:100CE00095FB641C042CF4D300F03EF8B0070DD53E
:100CF000074E0024361D0022305D03230095114667
:100D0000019500F083FB641C042CF4D3BDE8FC8146
:100D1000C034000010B50446042803D305A12120E7
:100D2000FFF7C2FF0F480121005DBDE8104000F051
:100D3000CBBC00002E2E5C2E2E5C2E2E5C2E2E5C4C
:100D40002E2E5C2E2E5C636F6D706F6E656E7473ED
:100D50005C626F617264735C626F617264732E6354
:100D600000000000C034000010B500242046FFF74A
:100D7000D1FF641C042CF9D310BD000002490844C3
:100D800090F93000704700003001002070B5084C29
:100D9000050009D010342168002907D008682060B8
:100DA000496828468847F6E70834F4E770BD000034
:100DB0001C010020054A012120B1012805D19170B4
:100DC000FFF7E4BF51700020FAE770471C010020D4
:100DD0002DE9F05F26484168F1B3DFF898B00E685E
:100DE0008146DBF8004087688078E11B21F07F4571
:100DF000ED1CB0B9DFF880804FF48030C8F84403B0
:100E0000C8F804031120FFF72DFC1120FFF735FC73
:100E10004FF0010AC8F800A02F2001F0D3F989F89B
:100E200002A0B54200D23546124BE8193C3320F0FF
:100E30007F401860DBF800105A46091B21F07F4103
:100E4000001B20F07F40C91C81420FD91068186038
:100E50002F2001F0B7F900E004E0BDE8F05F1120B9
:100E6000FFF716BCBDE8F05F01F008BFBDE8F09FDA
:100E70005000002004150140001001400E4910B53B
:100E80000A784C780023A24212D0521CD2B20A70C7
:100E9000022A00D10B70084A0B780C3252F823203A
:100EA00002608868104420F07F408860012010BDF7
:100EB0000360002010BD000050000020426912684D
:100EC000D268002A00D010477047000070B50E4667
:100ED000054600684FF48E7101F099F84FF4A27145
:100EE000286801F094F828681549C0F804132868A8
:100EF000000B44B2082E03D312A14520FFF7D4FE05
:100F00007007000E002C06DA04F00F0101F1E02159
:100F100081F8140D03E004F1E02484F8000428684B
:100F20000121000B40B200F01F02914040098000F7
:100F300000F1E020C0F88012C0F8001170BD000080
:100F4000800002002E2E5C2E2E5C2E2E5C2E2E5C3F
:100F50002E2E5C2E2E5C696E746567726174696FEB
:100F60006E5C6E7266785C6E7266785F676C7565D3
:100F70002E68000070B50E46044600684FF4887174
:100F800001F056F84FF49071206801F051F84FF4D9
:100F90009271206801F04CF84FF4A271206801F0C2
:100FA00047F820681549C0F804132068000B45B2C3
:100FB000082E03D312A14520FFF776FE7007000E1E
:100FC000002D06DA05F00F0101F1E02181F8140D82
:100FD00003E005F1E02585F8000420680121000BFD
:100FE00040B200F01F0291404009800000F1E02073
:100FF000C0F88012C0F8001170BD0000100302009C
:101000002E2E5C2E2E5C2E2E5C2E2E5C2E2E5C2E1A
:101010002E5C696E746567726174696F6E5C6E7266
:1010200066785C6E7266785F676C75652E68000026
:101030000268134602E08A4204D01268002AFAD1FC
:101040000B600160704700002DE9F047394E002722
:1010500080463D46DFF8E090D6F804A057E003D084
:101060000446D0F81C8035E099F8002002EB4201DC
:10107000521CD2B289F8002009EBC10199F8023064
:10108000091D9A4201D189F8005048680A7804463F
:10109000012A12D0022A02D0032A3BD108E001F033
:1010A0006FFF00B10127257434E00574C06900E0CA
:1010B00070680028F9D170602CE0207C50BB8868F3
:1010C0006060C868A0600869E0604869A061F07865
:1010D00000B165606268B168184B501A20F07F401B
:1010E000984202D2A168084406E0881AA16820F05C
:1010F0007F40814202D9081A206000E025606560C7
:101100000120A56020742046E56101F01BFFB8F1C5
:101110000000A4D199F8001099F801008142A3D1F0
:1011200017B97168514502D00120BDE8F087002051
:10113000FBE70000500000200C020020FFFF7F00B2
:101140001CB500F085F818B128A24421FFF762F819
:10115000002000F0E7F818B124A24621FFF75AF862
:10116000002000F08FF8FFF741FC18B11FA24A21C0
:10117000FFF750F80320FFF7A3FD204AA2F120015A
:1011800001F1340000F066FD18B118A25021FFF7FC
:1011900041F81B48FFF73CF902464FF0FF30009042
:1011A000164800231649143000F0A4FE18B10FA20F
:1011B0005921FFF72FF84FF47A7400250F480023C8
:1011C000012201A91430009400F002FE0028F5D19C
:1011D0000A480023012201A91430009500F08AFE7C
:1011E00006480021143000F0BDFCE7E72E2E5C2EEF
:1011F0002E5C2E2E5C6D61696E2E630070340000D3
:101200000000002008B56A46FFF72CF808BDC208A8
:1012100000F007030120895C98400840704710B532
:10122000C20800F00703885C01249C4020438854D6
:1012300010BD00F180400068002800D001207047F8
:1012400008B500F18040002101600068009008BDF1
:1012500070B50A4C207808B185250CE00020A0600C
:1012600060602061E060064800F01AFF054600F06B
:10127000E5FE01202070284670BD00001C01002002
:10128000B50D000070B5174C0546207818B916A1A9
:10129000C120FFF709FDA07838B115B169680120B8
:1012A00088470020FFF71CFC0CE00020FFF718FC2B
:1012B00025B10C4829461030FFF7BAFEE06808B99E
:1012C00000F04CFFE068401CE0600020FFF736FCB7
:1012D000E068002805D1BDE8704003A1DD20FFF7DC
:1012E000E3BC70BD1C0100202E2E5C2E2E5C2E2E29
:1012F0005C2E2E5C2E2E5C2E2E5C696E74656772E1
:101300006174696F6E5C6E7266785C6C6567616350
:10131000795C6E72665F6472765F636C6F636B2E6E
:101320006300000010B5074C217809B1852010BD7D
:1013300000B9054800F07AFF0028F8D1012121709A
:1013400010BD000016000020C8340000F0B50546AE
:101350000478154889B0164640F82420124A0869D6
:101360000832A2F10C0742F82400487F38552022A9
:101370006846FFF73BF804942878385C48B10EB112
:101380000A4A00E000226946281D01F029FA09B046
:10139000F0BD0EB1064A00E00022694605F10C00DE
:1013A00001F050F8F3E700001C000020FD320000BF
:1013B000A531000030B40378054CE35C1BB130BCB0
:1013C000001D01F065BA30BC0C3001F097B8000088
:1013D0001800002030B40378054CE35C1BB130BC2E
:1013E000001D01F01FBB30BC0C3001F05FB90000E4
:1013F000180000200178044A515C11B1001D01F071
:101400008FBB0C3001F0D4B9180000202DE9FF414A
:101410001C46DDE90A7815460E46684600F080F85D
:1014200046EA450141EA840141EA072242EA0841CD
:10143000009A00EB8200C0F80017BDE8FF812DE99B
:10144000FF411C46DDE90A7815460E46684600F065
:10145000C7F846EA450141EA840141EA072242EA27
:101460000841009A00EB8200C0F80017BDE8FF8138
:101470002DE9FF411C46DDE90A7815460E4668460F
:1014800000F0DEF846EA450141EA840141EA07221C
:1014900042EA0841009A00EB8200C0F80017BDE85C
:1014A000FF811CB500220B46009211460192FFF706
:1014B000C6FF1CBD1CB500220B46009211460192CE
:1014C000FFF7D6FF1CBD1CB5002100910B46012281
:1014D00001911146FFF7B3FF1CBD1CB5002100911F
:1014E0000B46012201911146FFF7C2FF1CBD13B547
:1014F0000C46684600F044F8009900EB8101D1F8F1
:10150000002722F44032C1F80027009900EB810047
:10151000D0F8001741EA0441C0F800171CBD0000D4
:1015200010B504460068302804D308A140F2A11089
:10153000FFF7BAFB2068202802D24FF0A04010BD70
:1015400000F01F0020600D4810BD00002E2E5C2E04
:101550002E5C2E2E5C2E2E5C2E2E5C2E2E5C6D6F45
:1015600064756C65735C6E7266785C68616C5C6EE9
:1015700072665F6770696F2E68000000000300509C
:1015800010B504460068302804D308A140F2A11029
:10159000FFF78AFB2068202802D24FF0A04010BD40
:1015A00000F01F0020600D4810BD00002E2E5C2EA4
:1015B0002E5C2E2E5C2E2E5C2E2E5C2E2E5C6D6FE5
:1015C00064756C65735C6E7266785C68616C2F6EB6
:1015D00072665F6770696F2E68000000000300503C
:1015E00010B504460068302804D308A140F2A110C9
:1015F000FFF75AFB2068202802D24FF0A04010BD10
:1016000000F01F0020600D4810BD00002E2E5C2E43
:101610002E5C2E2E5C2E2E5C2E2E5C2E2E5C6D6F84
:1016200064756C65735C6E7266785C68616C2F6E55
:1016300072665F6770696F2E6800000000030050DB
:1016400010B504460068302804D308A140F2A11068
:10165000FFF72AFB2068202802D24FF0A04010BDDF
:1016600000F01F0020600D4810BD00002E2E5C2EE3
:101670002E5C2E2E5C2E2E5C2E2E5C2E2E5C6D6F24
:1016800064756C65735C6E7266785C68616C2F6EF5
:1016900072665F6770696F2E68000000000300507B
:1016A00001B56846FFF79CFF009A01219140C0F800
:1016B000081508BD01B56846FFF7C2FF009A012171
:1016C0009140C0F8081508BD38B50124009068465F
:1016D00031B1FFF725FF00998C40C0F8084538BDAF
:1016E000FFF71EFF00998C40C0F80C4538BD000084
:1016F0007CB5154604460C4A6618022ED2E9000253
:10170000CDE9000204D909A140F2B920FFF7CCFAD3
:10171000694605E051F82400D0F81005641C01C5A5
:10172000A642F7D87CBD0000CC3400002E2E5C2EE3
:101730002E5C2E2E5C2E2E5C2E2E5C2E2E5C6D6F63
:1017400064756C65735C6E7266785C68616C2F6E34
:1017500072665F6770696F2E68000000034908B504
:101760000844002101600068009008BD006000404E
:1017700002494058012800D0002070470060004016
:1017800010B5040003D104A14C20FFF78DFA00200E
:101790002060BFF35F8F10BD2E2E5C2E2E5C2E2E90
:1017A0005C2E2E5C2E2E5C2E2E5C636F6D706F6E29
:1017B000656E74735C6C69627261726965735C6D8D
:1017C000757465785C6E72665F6D74782E68000063
:1017D00010B5040003D107A15F20FFF765FA0121CE
:1017E0002046FFF70FFDBFF35F8F08B1002010BD4B
:1017F000012010BD2E2E5C2E2E5C2E2E5C2E2E5C1B
:101800002E2E5C2E2E5C636F6D706F6E656E747322
:101810005C6C69627261726965735C6D7574657820
:101820005C6E72665F6D74782E68000010B50400FF
:1018300003D108A16C20FFF737FA2068012803D0F4
:1018400004A16D20FFF730FABFF35F8F0020206006
:1018500010BD00002E2E5C2E2E5C2E2E5C2E2E5CDB
:101860002E2E5C2E2E5C636F6D706F6E656E7473C2
:101870005C6C69627261726965735C6D75746578C0
:101880005C6E72665F6D74782E68000000F18041B6
:101890000868002210B101200A60704710467047A6
:1018A00010B5040004D105A14FF4F670FFF7FCF960
:1018B000204600F025F9A168081A10BD2E2E5C2ED6
:1018C0002E5C2E2E5C2E2E5C2E2E5C2E2E5C636FDC
:1018D0006D706F6E656E74735C6C69627261726953
:1018E00065735C71756575655C6E72665F71756553
:1018F00075652E630000000070B514460E460500A5
:1019000004D113A14FF4A170FFF7CEF926B910A1AD
:1019100040F24310FFF7C8F94FF00000002C12D03E
:10192000FFF7DEF8287C78B12846FFF7B9FF84423C
:1019300000D3044622463146284601F058F90020DB
:10194000FFF7FCF8204670BDA868A042F2D8F0E787
:101950002E2E5C2E2E5C2E2E5C2E2E5C2E2E5C2EC1
:101960002E5C636F6D706F6E656E74735C6C696214
:101970007261726965735C71756575655C6E7266BE
:101980005F71756575652E630000000010B5040079
:1019900004D107A14FF4F270FFF786F921680868B7
:1019A0004968884201D1012010BD002010BD00000F
:1019B0002E2E5C2E2E5C2E2E5C2E2E5C2E2E5C2E61
:1019C0002E5C636F6D706F6E656E74735C6C6962B4
:1019D0007261726965735C71756575655C6E72665E
:1019E0005F71756575652E630000000070B50C466B
:1019F000050003D105495120FFF756F9A868A04218
:101A000001D9601C70BD002070BD0000BC18000032
:101A100070B514460D46060004D110A140F2AF1077
:101A2000FFF742F925B90DA14FF4D870FFF73CF943
:101A30004FF00000002C10D0FFF752F8304601F0B4
:101A4000CAF8844200D3044622462946304601F0B3
:101A50008FF80020FFF772F8204670BD2E2E5C2E06
:101A60002E5C2E2E5C2E2E5C2E2E5C2E2E5C636F3A
:101A70006D706F6E656E74735C6C696272617269B1
:101A800065735C71756575655C6E72665F717565B1
:101A900075652E630000000010B5040004D109A193
:101AA00040F2C910FFF700F90020FFF719F820688D
:101AB0000021016041608160BDE810400846FFF7E9
:101AC0003DB800002E2E5C2E2E5C2E2E5C2E2E5C41
:101AD0002E2E5C2E2E5C636F6D706F6E656E747350
:101AE0005C6C69627261726965735C71756575655C
:101AF0005C6E72665F71756575652E63000000002F
:101B000010B5040004D108A140F2D710FFF7CCF8BB
:101B10000020FEF7E5FF204601F05DF804460020B6
:101B2000FFF70CF8204610BD2E2E5C2E2E5C2E2EBC
:101B30005C2E2E5C2E2E5C2E2E5C636F6D706F6E95
:101B4000656E74735C6C69627261726965735C71F5
:101B5000756575655C6E72665F71756575652E631A
:101B600000000000F8B50D46040004D12AA14FF48E
:101B7000EA70FFF799F86069016821B1027B92076A
:101B800003D40820F8BD8020F8BD097881B3001D7A
:101B9000FFF71EFE88B100200090681C0FD06B4636
:101BA0002A462046A16901F067F9060007D060695E
:101BB000001DFFF73BFE3046F8BD1120F8BD6069FF
:101BC000006840684068FFF7E1FE18B12046FFF763
:101BD00011FC58B10026204601F044F99DF80000A0
:101BE0000028ECD09DF8000018B108E00126F9E7C4
:101BF0000FE06D1C03D0A0690068FEF761FF60690B
:101C0000001DFFF713FE26B99DF8000008B10D2056
:101C1000F8BD0020F8BD00002E2E5C2E2E5C2E2E6E
:101C20005C2E2E5C2E2E5C2E2E5C636F6D706F6EA4
:101C3000656E74735C6C69627261726965735C7302
:101C4000657269616C5C6E72665F73657269616C06
:101C50002E63000070B588B015460E46040001D012
:101C600006B11DB93AA19920FFF71EF86069006816
:101C700010B1852008B070BD287838B1686808B107
:101C8000A86818B932A1A320FFF70EF82022314628
:101C90006846FEF7ABFB04942878022827D0002082
:101CA0008DF81D00287820B3384A69462046FFF792
:101CB0004DFB0028DED160690560686840B140686E
:101CC000FFF7EAFE6069006840680068FFF7E4FE1D
:101CD00060690830FFF754FD6069001DFFF750FD93
:101CE0006169032008730098401C04D006E00120BD
:101CF000D6E70022D9E76069012101730198401CF1
:101D000060690DD000680078022818D02178204A38
:101D1000515C59B11FA140F22E20FEF7C5FF09E02A
:101D2000017B21F0010101730020A3E704F10C0005
:101D300000F096FC60690068007800289AD060691D
:101D400000688068427A41682046FFF733FB91E7DC
:101D50002E2E5C2E2E5C2E2E5C2E2E5C2E2E5C2EBD
:101D60002E5C636F6D706F6E656E74735C6C696210
:101D70007261726965735C73657269616C5C6E72C5
:101D8000665F73657269616C2E630000D13000007C
:101D9000180000202E2E5C2E2E5C2E2E5C2E2E5C2B
:101DA0002E2E5C2E2E5C696E746567726174696F8D
:101DB0006E5C6E7266785C6C65676163795C6E728E
:101DC000665F6472765F756172742E680000000051
:101DD0002DE9F8439946DDF8208016460F460400A9
:101DE00004D134A140F27D10FEF75EFF6069016806
:101DF000E1B1017BC9071BD0002E58D00830FFF796
:101E0000E7FCB8B100200090B8F1FF3F14D06B465A
:101E100042462046E16901F02FF805000CD06069C8
:101E20000830FFF703FD2846BDE8F8838020FBE774
:101E30000820F9E71120F7E735462A4639462046BB
:101E400000F07AFF2D1A074412D09DF80000C8B1A7
:101E500060690068007858B12178254A515C19B151
:101E6000201D00F0D3FD03E004F10C0000F0EEFBB8
:101E7000B9F1000F02D0711BC9F800109DF80000E5
:101E800020B10AE0204600F0EDFFD6E7B8F1FF3FB1
:101E900003D0E0690068FEF713FE60690830FFF7C1
:101EA000C5FC25B19DF8000008B10D20BCE700205D
:101EB000BAE700002E2E5C2E2E5C2E2E5C2E2E5CA1
:101EC0002E2E5C2E2E5C636F6D706F6E656E74735C
:101ED0005C6C69627261726965735C736572696179
:101EE0006C5C6E72665F73657269616C2E63000074
:101EF000180000202DE9F8439946DDF820801746A8
:101F00000D46060004D130A14FF49370FEF7CCFECD
:101F10007069016829B1027B920704D40820BDE8EA
:101F2000F8838020FBE7EFB301220024B2EB557F5A
:101F300002D00978022915D0001DFFF749FC98B19D
:101F40000094B8F1FF3F11D06B4642463046B1696C
:101F500000F092FF040009D07069001DFFF766FCD5
:101F60002046DCE71020DAE71120D8E73C4622467D
:101F70002946304600F018FF241A054406D03046A2
:101F800000F070FF9DF800000028F0D0B9F1000FBC
:101F900002D0391BC9F800109DF8000040B9B8F113
:101FA000FF3F00E00EE003D0B0690068FEF788FD57
:101FB0007069001DFFF73AFC24B19DF8000008B1DC
:101FC0000D20ACE70020AAE72E2E5C2E2E5C2E2ED4
:101FD0005C2E2E5C2E2E5C2E2E5C636F6D706F6EF1
:101FE000656E74735C6C69627261726965735C734F
:101FF000657269616C5C6E72665F73657269616C53
:102000002E6300004058002800D00120704708B51A
:10201000002242504058009008BDD0F80403084008
:1020200000D0012070474058002800D001207047A0
:1020300008B5002242504058009008BD084810B52D
:10204000007918B907A19520FEF72EFE00F0CAF816
:102050001249012008600249091F087010BD0000E4
:10206000300000202E2E5C2E2E5C2E2E5C2E2E5C40
:102070002E2E5C2E2E5C6D6F64756C65735C6E72BB
:1020800066785C647269766572735C7372635C6EA9
:102090007266785F636C6F636B2E63001805004097
:1020A00010B5040003D108A17C20FEF7FDFD144902
:1020B00000200A790AB1852010BD01220C600A7146
:1020C00000224A7110BD00002E2E5C2E2E5C2E2E9A
:1020D0005C2E2E5C2E2E5C2E2E5C6D6F64756C65F6
:1020E000735C6E7266785C647269766572735C7339
:1020F00072635C6E7266785F636C6F636B2E6300F5
:102100003000002070B54FF480763046FFF791F82C
:10211000114CB50560B13046FFF792F80120C5F8C3
:102120000803607920B90120607121680020884788
:102130004FF482763046FFF77CF800280AD030460C
:10214000FFF77EF80220C5F808032168BDE870405B
:102150000120084770BD000030000020094810B57C
:10216000007918B908A1BF20FEF79EFD4FF48270D8
:10217000FFF766F802204107C1F804031049012067
:10218000086010BD300000202E2E5C2E2E5C2E2EFE
:102190005C2E2E5C2E2E5C2E2E5C6D6F64756C6535
:1021A000735C6E7266785C647269766572735C7378
:1021B00072635C6E7266785F636C6F636B2E630034
:1021C00008000040002802D00149800108477047FC
:1021D000E13400000121B1EB507F01D101207047B3
:1021E0000020704707480068012110F0010F08D156
:1021F0004FF0E020E02280F80024C0F88012C0F800
:102200000011704700E100E007480068012110F06C
:10221000010F08D14FF0E020E02280F80024C0F840
:102220008012C0F80011704700E100E070B50400B2
:1022300003D10DA14620FEF737FD194D287808B1CE
:10224000852070BD20781749C0F34000086015490B
:102250002078083900F001000860FFF7D5FF012061
:102260002870002070BD00002E2E5C2E2E5C2E2EBD
:102270005C2E2E5C2E2E5C2E2E5C6D6F64756C6554
:10228000735C6E7266785C647269766572735C7397
:1022900072635C6E7266785F706F7765722E630032
:1022A000380000208005004070B54FF08040D0F825
:1022B0000453324C68070CD54FF48470FFF7E6FAEC
:1022C00038B1606818B92EA1E020FEF7EDFC606817
:1022D0008047A8060DD54FF48A70FFF7D7FA40B1B2
:1022E000A06818B926A1E820FEF7DEFCA16800204E
:1022F000884768060DD54FF48C70FFF7C7FA40B1D8
:10230000A06818B91EA1EF20FEF7CEFCA16801203D
:10231000884728060DD54FF48E70FFF7B7FA40B105
:10232000E06818B916A1F820FEF7BEFCE1680020AD
:102330008847E8050DD54FF49070FFF7A7FA40B134
:10234000E06818B90EA1FF20FEF7AEFCE16801209D
:102350008847A80511D54FF49270FFF797FA002827
:102360000BD0E06820B906A14FF48370FEF79CFC07
:10237000E168BDE870400220084770BD38000020C9
:102380002E2E5C2E2E5C2E2E5C2E2E5C2E2E5C2E87
:102390002E5C6D6F64756C65735C6E7266785C64E0
:1023A0007269766572735C7372635C6E7266785F75
:1023B000706F7765722E630070B50D46040003D10F
:1023C0000DA15120FEF770FC204600F0C5FB040073
:1023D0000FD00020FEF784FB207920B10020FEF70B
:1023E000ADFB112070BD0120256020710020FEF79B
:1023F000A5FB002070BD00002E2E5C2E2E5C2E2E24
:102400005C2E2E5C2E2E5C2E2E5C6D6F64756C65C2
:10241000735C6E7266785C647269766572735C7305
:1024200072635C7072735C6E7266785F7072732E2A
:10243000630000000149024800F0CCBE9C0100206E
:10244000002000402DE9F04117460D00064603D15B
:102450001AA18420FEF728FC3079264A00EB4001BF
:1024600001EBC00102EB810494F82A1011B108209D
:10247000BDE8F081204951F820103068FFF79CFF3B
:1024800008B11120F4E729463046FEF797FB676054
:10249000286920601FB1297F3046FEF717FD30689C
:1024A0000421C0F800150020A061E06184F8290033
:1024B00044F8140F0121A175DAE700002E2E5C2EDE
:1024C0002E5C2E2E5C2E2E5C2E2E5C2E2E5C6D6FC6
:1024D00064756C65735C6E7266785C64726976654F
:1024E00072735C7372635C6E7266785F756172742E
:1024F0002E6300009C010020D43400002DE9F05F21
:10250000054600790F4600EB400101EBC001404851
:10251000164600EB810494F82A00012804D03DA15E
:1025200040F24310FEF7C0FB4FF4A27A1FB939A165
:102530005046FEF7B9FB26B936A140F24510FEF72A
:10254000B3FB616800204FF4017811B12A68C2F82A
:102550000883A1694FF0000969B1E06938B160688A
:1025600010B12868C0F804831120BDE8F09F2761EE
:102570000120E66105E0C4F82490E760A661C4F894
:102580001C9094F82910014302D1284600F0C4FBA6
:1025900060680028286803D0C0F804830020E4E7BE
:1025A00056465146FFF733FDB2464FF4927B5946EB
:1025B0002868FFF727FD06464FF484712868FFF767
:1025C00021FD804651462868FFF71CFD074648EA72
:1025D00007003043EBD056EA070007D121462868B0
:1025E00000F06AFB616AA0698842E0D8C4F81890DC
:1025F0000EB10320B9E70FB10F20B6E794F8291008
:1026000001200029296801D00860C7E74860C5E7B4
:102610009C0100202E2E5C2E2E5C2E2E5C2E2E5C1D
:102620002E2E5C2E2E5C6D6F64756C65735C6E7205
:1026300066785C647269766572735C7372635C6EF3
:102640007266785F756172742E63000001684FF4E2
:102650000172C1F808230068012141607047000041
:1026600070B5044600790C4D00EB400101EBC00051
:1026700005EB800090F8290000280CD1204600F0DE
:102680004BFB2179012001EB410202EBC10105EB7B
:10269000810181F8290070BD9C0100200068D0F8FC
:1026A0000801002800D00120704700002DE9F04704
:1026B000054600790F4600EB400101EBC0002D49B3
:1026C000164601EB800494F82A00012803D02AA1C1
:1026D000EF20FEF7E9FA1FB927A1F020FEF7E4FA90
:1026E0001EB925A1F120FEF7DFFA284600F060F8B8
:1026F00010B11120BDE8F0874FF00008C4F8208029
:10270000A760666184F828804FF48E76474631468C
:102710002868FFF77CFC28684FF00109C0F8089092
:102720002146286800F0B6FC606808BBD5F800A018
:102730000FE000BF94F8280008B10F2716E03146DB
:102740005046FFF75FFC0028F4D02146504600F0C9
:10275000A1FC216A60698142F1D331462868FFF704
:1027600051FC0028F9D02868C0F80C90C4F81480F7
:102770003846BFE79C0100202E2E5C2E2E5C2E2EAC
:102780005C2E2E5C2E2E5C2E2E5C6D6F64756C653F
:10279000735C6E7266785C647269766572735C7382
:1027A00072635C6E7266785F756172742E6300008E
:1027B000007900EB400101EBC000044901EB80000F
:1027C0004069002800D00120704700009C010020D3
:1027D0000149024800F0AABDC801002000200040C5
:1027E0002DE9F04117460D00064603D118A19620A9
:1027F000FEF75AFA3079244A00EBC00102EB81045B
:1028000094F8201011B10820BDE8F0811F4951F85B
:1028100020103068FFF7D0FD08B11120F4E72946F9
:102820003046FEF706FA6760286920601FB1297FED
:102830003046FEF79FFB30680821C0F800150020E5
:10284000A061E0610121606184F82010DCE70000F4
:102850002E2E5C2E2E5C2E2E5C2E2E5C2E2E5C2EB2
:102860002E5C6D6F64756C65735C6E7266785C640B
:102870007269766572735C7372635C6E7266785FA0
:1028800075617274652E6300C8010020D8340000A1
:102890002DE9F05F044600790F46DFF834A100EB24
:1028A000C0010AEB8105164695F82000012804D0E6
:1028B00048A140F23110FEF7F7F927B945A14FF4CE
:1028C0009970FEF7F1F926B942A140F23310FEF7F4
:1028D000EBF9207910B9B6F5803F04D33DA14FF450
:1028E0009A70FEF7E1F93846FFF774FCB0B16868FA
:1028F0004FF000084FF4047910B12168C1F8089333
:10290000A8694FF0000B80B1E86948B1686810B160
:102910002068C0F804931120BDE8F09F1020FBE769
:102920002F614FF00108EE6102E0EF60C5E9066B30
:1029300000254FF488712068FFF77AFB4FF4A271ED
:102940002068FFF775FB2068C0F83475C0F838655B
:102950002068B8F1000F12D0D0F8001241F0200129
:10296000C0F800122079D04600EBC0010AEB8100CC
:10297000406838B12168C1F804932846CCE70121AA
:102980000160EFE74FF4887A4FF4A279514620684E
:10299000FFF749FB074649462068FFF744FB064618
:1029A0004FF492712068FFF73EFB014647EA0600AC
:1029B0000843EBD0227902EBC20308EB8302C2F892
:1029C00018B001B10325002ED7D00F25D5E70000A0
:1029D000C80100202E2E5C2E2E5C2E2E5C2E2E5C2E
:1029E0002E2E5C2E2E5C6D6F64756C65735C6E7242
:1029F00066785C647269766572735C7372635C6E30
:102A00007266785F75617274652E630000680121DB
:102A1000416070470068D0F81001002800D0012004
:102A2000704700002DE9F04704460F4600792D4914
:102A300000EBC00001EB8005164695F82000012848
:102A400003D029A1E720FEF72FF91FB926A1E8201E
:102A5000FEF72AF91EB924A1E920FEF725F920790D
:102A600010B9B6F5803F03D31FA1EA20FEF71CF989
:102A70003846FFF7AFFB30B1204600F051F820B1E7
:102A80001120BDE8F0871020FBE7AF606E614FF4C6
:102A90009076002731462068FFF7CAFA4FF4AC78E9
:102AA00041462068FFF7C4FA2068AA686969C0F83F
:102AB0004425C0F84815206801218160686878B90C
:102AC000B14649462068FFF7AEFA064641462068FF
:102AD000FFF7A9FA0643F4D000B10F270020686180
:102AE0003846CEE7C80100202E2E5C2E2E5C2E2EFE
:102AF0005C2E2E5C2E2E5C2E2E5C6D6F64756C65CC
:102B0000735C6E7266785C647269766572735C730E
:102B100072635C6E7266785F75617274652E6300B5
:102B20000079054900EBC00001EB800040690028F6
:102B300000D0012070470000C8010020EFF305809D
:102B4000C005C00D01D001207047EFF3148040F3A1
:102B50000000401C704700000349884201D103482F
:102B6000704700207047000000200040480000200F
:102B70002DE9F0410446006817468846056840681C
:102B8000854201D8461B02E0A068461B761CE2681D
:102B90006068B74205FB02010CD87A434046FDF756
:102BA00025FCA168E819884200D900202168086046
:102BB000BDE8F08102FB06F52A464046FDF716FC0B
:102BC000E268BE1B724308EB05006168FDF70EFC6E
:102BD00020680660ECE701680A684968914201D301
:102BE000881A70478068801A0844401C70472DE995
:102BF000F047164689460446FEF752FE8046206896
:102C0000A168426840688F1A6168E2687F1C00FB17
:102C10000210BE420FD872434946FDF7E7FB206819
:102C20004168A2683144914202D84168314400E0D1
:102C30000021416018E002FB07F52A464946FDF7EE
:102C4000D5FBE268F71B7A4309EB05016068FDF7E5
:102C5000CDFB20684760B04506D220684168204619
:102C6000FEF7C4FE216808602046FFF7B4FF216824
:102C70008A68824200D28860BDE8F08770B501267C
:102C800070044FF0E0210025C1F88001084C40108D
:102C9000C4F84803C4F8080366602F20FFF792FACF
:102CA000A660044C2F20A560FFF78CFAA57070BDBC
:102CB000001001405000002070B5054688690C46A0
:102CC00000284FF4847128460AD0FFF7A0F9D5F800
:102CD0001805626AE1688854606A401C606270BDD1
:102CE000FFF795F9D5F8180570BD1FB501238DF8CC
:102CF0000030CDE90121D0E90012684690471FBDA0
:102D00001FB501238DF800308DF808100192D0E92D
:102D10000012684690471FBD10B5044600684FF486
:102D20009271FFF774F94FF484712068FFF76FF91F
:102D300020680121016010BD2DE9F047044640697B
:102D400089460068017831B1406849460068BDE8AD
:102D5000F047FEF75DBEFF2A00D3FF221646154658
:102D60000E4F04F10C0808E0012249462046FEF708
:102D700021FB78B909F101096D1E2178795C19B13F
:102D8000201DFFF747FE02E04046FFF787FC08B131
:102D9000002DE9D1701BBDE8F0870000180000206D
:102DA00001210170704700002DE9F041054640699E
:102DB0000068037863B1436884685E683046FEF754
:102DC0009BFD07462846FEF715FB002825D10FE09E
:102DD000FF2A00D3FF221446D2B22846FEF7FAFAA1
:102DE00018B10FA14320FDF75FFF2046BDE8F08139
:102DF000227A30462168FEF70BFE060003D108A1B7
:102E00005220FDF751FFF2B228462168FEF7E2FAA0
:102E100018B103A15420FDF747FF3846E6E700004C
:102E20002E2E5C2E2E5C2E2E5C2E2E5C2E2E5C2EDC
:102E30002E5C636F6D706F6E656E74735C6C69622F
:102E40007261726965735C73657269616C5C6E72E4
:102E5000665F73657269616C2E63000020BF40BFBE
:102E600020BF7047406900680178002903D00069DD
:102E7000002800D00047704770B50E46510CD003B3
:102E80004FF4FA7280181D4641F1000152000023F0
:102E9000FDF76CFA0446052803D2012028700020B3
:102EA00070BD074A00213046FDF78EFD0028F7D19E
:102EB0002A4621463068BDE87040FDF7C1BD0000DC
:102EC000A12D00002DE9F84F1D4C00256846D4E9DE
:102ED00001A6FDF7D3FF002738B30023009A6168ED
:102EE0001CE0D1F800C00846944503D9ACEB0202BF
:102EF0000A6015E0A2EB0C0263440760D0F80CC036
:102F0000C1698146BCF1000F08D006EB030828F028
:102F10007F48C0E9018CC9F81C5005460029E0D162
:102F200028466160FEF790F803E02846FEF78CF82B
:102F300010B15046FDF74CFFE770BDE8F88F000078
:102F4000500000200D4B10B5596831B102680C6873
:102F5000A24204D8A21A0A60C161586010BD0B4693
:102F600003E00B46C969121B21B10C689442F8D3E7
:102F7000A41A0C600260C161D86110BD500000202D
:102F80002DE9F041144E77683D462C4603E084421B
:102F900004D02546E469002CF9D11BE0D4B1A54248
:102FA0000BD1F869706040B90C490120886000219C
:102FB000B160F0702F20FFF705F92168E069E86142
:102FC00010B10268114401607068874202D001208C
:102FD000BDE8F0810020FBE7500000200010014018
:102FE000F8B5064600240D462046FDF779FD6846F3
:102FF00000F016FA68B10570084946609DF80000B7
:1030000048700020FDF79AFD1420FDF741FB204693
:10301000F8BD04240020FDF791FDF8E70C02002024
:103020002DE9F041194D6C68002C2CD01848002770
:103030000068A968B846401A20F07F462068B04270
:103040000CD82146361A0744E469087C20B181F87F
:103050001080886949698847002CEFD12978687801
:10306000814206D1401CC0B26870022801D185F8A7
:103070000180064869780C3040F82170BDE8F041C5
:103080001420FDF705BBBDE8F081000050000020D2
:103090000415014070B50C4605464FF48E71FEF7DD
:1030A000B6FF216AA068415C206A401C2062C5F816
:1030B0001C1570BD1FB500228DF80020029181689B
:1030C00001914261D0E90012684690471FBD00009F
:1030D00070B5054600780C4638B3012803D00228A5
:1030E00040D102210BE060692A7A69680068406873
:1030F0000068FEF701FC297A814205D903212046A8
:10310000BDE87040FDF7DABE01212046FDF7D6FE8E
:10311000606900688068427A41682046FEF74AF993
:1031200000281FD010A1752018E060690068416870
:10313000856820464E680021FDF7C0FE2A7A304699
:103140002968FEF765FC00280CD0C2B22046296829
:10315000FEF740F9002805D003A18C20BDE870409F
:10316000FDF7A2BD70BD00002E2E5C2E2E5C2E2E13
:103170005C2E2E5C2E2E5C2E2E5C636F6D706F6E3F
:10318000656E74735C6C69627261726965735C739D
:10319000657269616C5C6E72665F73657269616CA1
:1031A0002E6300001FB50A4601788DF800104168B3
:1031B0000191017A8DF80810C0680390044850F816
:1031C0002210083850F82220684690471FBD0000A2
:1031D000240000202DE9FF470C4605464FF40071FE
:1031E000FEF71BFF01274FF40178002618B34FF4B8
:1031F000927949462846FEF705FFE0B14946284640
:10320000FEF705FFC5F8088394F8290000B96F6040
:1032100002208DF80000D5F88004C5F880040390E2
:10322000A0690290E0680190A661E661D4E900120D
:103230006846904728E004212846FEF7EEFE18B3C2
:103240004FF484712846FEF7DDFEE8B1214628469A
:10325000FFF732FD616AA069884215D1E06938B193
:10326000E268616AA0612069E6616662E06008E088
:1032700094F8290000B96F60C5F80883A661E26878
:10328000616A2046FFF731FD4FF48E7841462846AB
:10329000FEF7B8FE78B1206A6169884202D294F8DC
:1032A000280020B341462846FEF7B1FE616911B1FE
:1032B0002046FFF7FFFE4FF4A27841462846FEF76E
:1032C000A1FE002818D041462846FEF7A0FE94F83B
:1032D000290000B12F60A06900280DD0A661E26826
:1032E000616A04B02046BDE8F047FFF7FEBC214606
:1032F0002846FFF7CFFEDEE7BDE8FF871FB50A4689
:1033000001788DF8001041680191017A8DF808105C
:10331000C0680390044850F82210083850F8222062
:10332000684690471FBD0000240000202DE9FF41A2
:103330000C464FF4927705463946FEF774FE002698
:10334000C0B139462846FEF773FE02208DF8000012
:10335000D5F88004C5F880040390D5F83C058DF8B5
:103360000800E0680190A661E661D4E900126846B1
:10337000904723E04FF4887739462846FEF753FEFE
:10338000E0B139462846FEF753FED5F83C15A06952
:10339000884213D1E06960B1E268D5F8000220F0FC
:1033A0002000C5F80002E069A0612069E661E060E4
:1033B00001E0A661E2682046FFF7A2FC4FF4A27785
:1033C00039462846FEF72FFE60B139462846FEF7FB
:1033D0002FFEA06930B1A661D5F83C152046E26801
:1033E000FFF78EFC4FF4907739462846FEF71BFE18
:1033F000002813D039462846FEF71AFE60690028D7
:103400000CD0D5F84C058DF800608DF80800A06848
:1034100001906661D4E9001268469047BDE8FF81DB
:103420000A494A788B78521CD2B2934200D10022CA
:103430000B78934201D1002070470270487800EB6E
:10344000400001EBC000001D704700000C0200208E
:103450000600000008000000070000000500000052
:10346000000000000100000000E0D701070000009C
:1034700001000000A4340000AC3400000000000093
:103480005D2E000000000000002000400000000051
:1034900000200040000000000C010020BC340000AF
:1034A000B8340000083500001C350000140000206E
:1034B00015000020010100006C0000208C0000209D
:1034C0000D0E0F100B0C181900000000000000502A
:1034D0000003005035240000D12700000000000048
:1034E0000338FDD870470000303500000000002090
:1034F0006C000000300900009C3500006C000020CA
:10350000AC22000040090000D0000020AC000020E8
:103510002000000001000000010000000001002068
:10352000DC0000202000000001000000010000007D
:1035300048656C6C6F206E72665F73657269616C52
:10354000210A0D0000000000000000000000000043
:10355000000000000000000000000000000000006B
:10356000000000000000000000000000000000005B
:10357000000000000000000000000000000000004B
:10358000000000000000000000000000000000003B
:0C35900000000000000000000090D003CC
:0400000500000201F4
:00000001FF
