:020000040000FA
:10000000202800202D030000350300001502000009
:10001000390300003B0300003D0300000000000026
:100020000000000000000000000000003F0300008E
:1000300041030000000000004303000045030000EE
:100040001906000047030000650800004703000090
:1000500047030000110400004703000047030000AD
:100060004703000047030000470300004703000068
:100070004703000047030000470300004703000058
:100080004703000047030000470300004703000048
:100090004703000047030000470300004703000038
:1000A0004703000047030000470300004D0800001D
:1000B00047030000470300000000000000000000AC
:1000C0004703000047030000470300004703000008
:1000D00047030000470300004703000047030000F8
:1000E0004703000047030000470300000000000032
:1000F000000000004703000000000000470300006C
:1001000000000000000000000000000000000000EF
:1001100000000000000000000000000000000000DF
:1001200000000000000000000000000000000000CF
:1001300000000000000000000000000000000000BF
:1001400000000000000000000000000000000000AF
:10015000000000000000000000000000000000009F
:10016000000000000000000000000000000000008F
:10017000000000000000000000000000000000007F
:10018000000000000000000000000000000000006F
:10019000000000000000000000000000000000005F
:1001A000000000000000000000000000000000004F
:1001B000000000000000000000000000000000003F
:1001C000000000000000000000000000000000002F
:1001D000000000000000000000000000000000001F
:1001E000000000000000000000000000000000000F
:1001F00000000000000000000000000000000000FF
:10020000DFF80CD000F0D4F800480047651100007A
:1002100020280020094B1EF0040F1CBFEFF30980BB
:100220001847EFF308800649064A884201D89042F1
:1002300002D88D464FF0000018470000D50300009B
:10024000202800202008002030B4044654E8000F85
:100250000D4644E80053002BF8D1156030BC7047C0
:1002600030B4044654E8000F40EA010544E8005366
:10027000002BF7D1156030BC704730B4044654E809
:10028000000F00EA010544E80053002BF7D1156088
:1002900030BC704730B4044654E8000F80EA0105D2
:1002A00044E80053002BF7D1156030BC704730B4E0
:1002B000044654E8000F00EB010544E80053002B0E
:1002C000F7D1156030BC704730B4044654E8000FD5
:1002D000A0EB010544E80053002BF7D1156030BCBA
:1002E000704770B404464FF0000054E8006F0D688A
:1002F000AE4207BF44E80023012044E800630E60DB
:10030000002B1CBF0020F0E770BC704730B40446DF
:1003100054E8000F88422CBF451A054644E80053B4
:10032000002BF5D1156030BC7047000006488047AF
:1003300006480047FEE7FEE7FEE7FEE7FEE7FEE7CA
:10034000FEE7FEE7FEE7FEE771060000010200009F
:10035000004870470433000040EA01039B0703D0C4
:1003600009E008C9121F08C0042AFAD203E011F8F4
:10037000013B00F8013B521EF9D27047D2B201E0B6
:1003800000F8012B491EFBD270470022F6E710B59A
:1003900013460A4604461946FFF7F0FF204610BDF3
:1003A000421C10F8011B0029FBD1801A7047000085
:1003B000064C074D06E0E06840F0010394E80700B2
:1003C00098471034AC42F6D3FFF71EFFB833000055
:1003D000D8330000044601F0ABFF00BF01F0FEFD82
:1003E0000028FBD1204600F001F80000BFF34F8F3A
:1003F00005480168054A01F4E06111430160BFF35B
:100400004F8F00BFFDE700000CED00E00400FA058F
:100410002DE9F05F674C0025D4F8040138B1D4F819
:100420000003800703D5644802F08CF80225D4F855
:10043000080160B1D4F80003400708D55E48001DEC
:1004400002F080F80DB1032502E0012500E015B1AE
:10045000284602F07DF8D4F81801584F584D01266F
:1004600030B3D4F8000340062DD556480068C0F3D9
:10047000C800A0F1020A5048143002F063F8D4F822
:100480002801B0B1D4F80003400512D5DFF8389147
:10049000D9F8000000F00D084748243002F052F867
:1004A0000D20C9F80000B8F1000F02D002F038F8B2
:1004B00009E03878302872D038785028F6D12E707C
:1004C0004020C4F80803D4F81001DFF8F8A04FF07A
:1004D0001009AAF1140A0AF1040BC0B1D4F8000300
:1004E000C00614D534480C3002F02CF8C4F8089338
:1004F000CAF80070CBF80090E661D5F808C0BCF1EE
:10050000000F04D000231A4603216869E047D4F89D
:100510004C01DFF8B480A8F1080830B3D4F8000328
:10052000000322D52448483002F00CF82248143049
:1005300002F008F82048243002F004F8CAF80070ED
:10054000CBF80090E6614FF48860C4F804031E49BC
:100550000D200860C8F8006002202861AF6827B14C
:1005600000231A4619466869B847D4F81C010028C8
:1005700012D0D4F8000300060ED5D8F80070444617
:100580000D48183001F0DEFFF80704D0287810B1CC
:100590002660002028702660BDE8F09FFFE7D5F8B0
:1005A00008C0BCF1000F8ED05346044A022168698E
:1005B000E04788E7005000400451004094070020C5
:1005C0009C000020245500400C54004000F01F0205
:1005D000012191404009800000F1E020C0F8801224
:1005E000704700F01F02012191404009800000F196
:1005F000E020C0F8001170474907090E002806DA0C
:1006000000F00F0000F1E02080F8141D704700F1A9
:10061000E02080F80014704770B54FF480763046C3
:1006200001F091F9114CB50560B1304601F092F935
:100630000120C5F80803607920B9012060712168A4
:10064000002088474FF48276304601F07CF900287C
:100650000AD0304601F07EF90220C5F8080321686F
:10066000BDE870400120084770BD00001400002064
:1006700030B54FF0805000228300D0F83011C3F81D
:100680000C21C3F81021624B1A60624B1B68624C4C
:100690002360604B1B1D1B68241D23605D4B0833CA
:1006A0001B68241D23605B4B0C331B68241D2360D7
:1006B000584B10331B68241D2360564B14331B68A2
:1006C000241D2360534B18331B68534C2034236084
:1006D000504B1C331B68241D23604E4B20331B687A
:1006E000241D23604B4B24331B68241D2360494B7E
:1006F00028331B68241D2360464B2C331B68241DA4
:100700002360444B30331B68434C40342360414BDF
:1007100034331B68241D23603E4B38331B68241D73
:1007200023603C4B3C331B68241D2360394B403312
:100730001B68241D23600124082902D1D0F834311C
:1007400013B1082904D006E0354B3449196005E09F
:10075000D0F8343113B1082904D006E0314BFB2125
:10076000196005E0D0F8343113B1082908D00EE043
:1007700090F858322C48016863F30301016002E0ED
:10078000D0F834311BB929494FF40070086028486B
:100790000168C90702D06FF00101016025480168B6
:1007A00041F470010160BFF34F8FBFF36F8F4FF0C3
:1007B0001021D1F80002002803DBD1F80402002840
:1007C00022DA1D4B1C601D480468002CFCD012244A
:1007D000C1F800420568002DFCD0C1F80442016850
:1007E0000029FCD01A6001680029FCD0BFF34F8FAC
:1007F00010487C380168124A01F4E061114301603D
:10080000BFF34F8F00BFFDE70F490E48086030BDB2
:10081000380500400404001020C500404881030052
:100820008C56004018F50040E40E0040409602400F
:100830000004004088ED00E004E5014000E40140D0
:100840000400FA050090D003BC00002010B5044C51
:100850000120206100F00EFA0020C4F8400110BD14
:1008600000B0014001480068004700001C00002063
:1008700002E008C8121F08C1002AFAD17047704769
:10088000002001E001C1121F002AFBD170470000C7
:1008900072B601F04DFD00BF01F0A0FB0028FBD1B6
:1008A000104C0121208801EB00400FA101F0A2FCB7
:1008B00010480068C00700D000BE2088022101EB6C
:1008C00000400DA101F096FCBFF34F8F0948E438BA
:1008D00001680D4A01F4E06111430160BFF34F8FDD
:1008E00000BFFDE706010020466174616C2065725F
:1008F000726F7200F0ED00E053797374656D2072D1
:1009000065736574000000000400FA050EB500214F
:100910000091CDE901106A4644F20100FFF7B8FFEB
:100920000EBD00F003B800F009B8000072B602482E
:100930000168491C016070472400002003490868D1
:10094000401E086000D162B67047000024000020FD
:1009500070B5054608680C46411C04D001F03EFA0B
:10096000206801F0FCF96068411C02D0002101F010
:10097000E4F92968A069C1F82405607D227D296811
:100980001043C1F86C05D4E900122868C0F814259A
:10099000C0F80C15207D012814D1A068411C02D09C
:1009A000002101F0CAF9E068411C04D001F016FAF8
:1009B000E06801F0D4F9D4E902122868C0F80825EB
:1009C000C0F8101570BD70B5054608680C46411C8E
:1009D00004D001F00DFA206801F0CBF96068411CE9
:1009E00002D0002101F0B2F92968A069C1F82405FC
:1009F000607D217D2A680843C2F86C05D4E90012A5
:100A00002868C0F80C15C0F81425207D012814D1E1
:100A1000A068411C02D0002101F098F9E068411C57
:100A200004D001F0E5F9E06801F0A3F9D4E902127D
:100A30002868C0F80825C0F8101570BD2DE9FC41E4
:100A40000646C0074FF000050ED0104F00240122CB
:100A5000385D009500231146019501F011F9641CE1
:100A6000042CF4D300F024F8B0070DD5074E002471
:100A7000361D0022305D032300951146019501F0DB
:100A8000FFF8641C042CF4D3BDE8FC81AE310000F7
:100A90000249085C012101F0B5B90000AE31000047
:100AA0000249085C002101F0ADB90000AE31000040
:100AB00010B500242046FFF7EBFF641C042CF9D38B
:100AC00010BD00002DE9F0470546861C90460F46F4
:100AD0004FF001090020FFF724FF1B4C206838600D
:100AE000D4E90001401AA16804F21C47081A0EE07C
:100AF0000121384600F0BFFE00F0E6FA0146384614
:100B000000F0B9FED4E90001401AA168081A401C9F
:100B10008642EDD8B8F1000F03D0052065F38910A7
:100B200002E0062065F39F50A2682168114004EBA3
:100B30008101C8602068304420600020FFF7F3FE88
:100B40004846BDE8F08700007003002030B482689A
:100B50000468531C8360A154D0E901128A4202D375
:100B600030BC00F094BF30BC70470000034803C89D
:100B7000814201D10120704700207047700300209E
:100B800070B5084C050009D010342168002907D041
:100B900008682060496828468847F6E70834F4E783
:100BA00070BD00000C020020054A012120B101287F
:100BB00005D19170FFF7E4BF51700020FAE770474C
:100BC0000C02002010B50021024800F05FFE80F307
:100BD000100010BD8C07002070B5254CA0421ED11E
:100BE000F1B1012936D0022928D0032917D10720D5
:100BF00000F07AFB002812D194F8680094F869108C
:100C000088420CD194F86A00002808D10023D4E966
:100C100001501A460321A847012084F86A0070BDDC
:100C2000052000F061FB0028F9D1A068646800236A
:100C3000A446BDE870401A460121604710461900DD
:100C4000EDD00028EBD00278302AE8D1BDE8704022
:100C500000F06ABB082000F047FB28B9A068002319
:100C600064681A460221A047BDE8704000F010BC3D
:100C7000B00700200B480021027922B10171C17038
:100C8000032001F065BCC268521CC260C268022A1F
:100C900007D1C160044A0121116001710348C1609C
:100CA000016070479C0000200050004000B00140EF
:100CB000FEB5224887780A2F23D0214A0324072F24
:100CC000167855789378D1788DF800608DF80150BA
:100CD00086EA05008DF802301AD04B4058408DF856
:100CE00003108DF80400FF2204210DF10500FFF729
:100CF00045FB00BF8DF809400A21684600F028FD39
:100D0000FEBD03B00A21BDE8F0400D4800F020BD53
:100D100083F0880358408DF803008DF80410137990
:100D20008DF8053050798DF8060092795940504081
:100D300041408DF807208DF80810DBE79C0000206B
:100D4000A40700200C4810B50268001D0168001DB2
:100D500003680A48140A02704470120C8270C17051
:100D60000A0A02710A0C4271090E8171C371190AD3
:100D70000172190C417210BD50040010A40700202C
:100D80001B491A48897804292BD007292BD010F841
:100D9000011B10F8012B090441EA022110F8012B74
:100DA0001143144A1160022110F8012B10F8013B85
:100DB000120442EA032210F8013B1A430D4B1B1F99
:100DC0001A600268C07812BA22F0FF020243094892
:100DD00008380260042000EB8110064908310860E1
:100DE00070470021EDE70121DEE70000A4070020A5
:100DF0009C0000209855004070B50C00054613D0AB
:100E00000A4801F09FFB0A480560094940F6FF7057
:100E10000C3100EAC400086006481021C0F8041331
:100E20000121C160002070BD0C2070BD1051004038
:100E3000105500400050004070B52C4A5161906040
:100E4000907818B907209070FFF77CFF01F0B0FF91
:100E50000126002560B127492548086025487038DB
:100E6000066024493F2060390860224850380560F8
:100E700021480621C0F804132049C0F80413204972
:100E800003200860FFF77CFFFFF712FF17481D499A
:100E90001830C0E9005100F09FFD044601F088FFC2
:100EA000E8B919480560001D0560174904200C3198
:100EB000086015494FF47A703C3108601348C0F857
:100EC00000624FF48031C0F804131B20FFF77EFB53
:100ED00007211B20FFF790FB1B20FFF782FB1CB1B3
:100EE000852C01D0032070BD002070BD9C00002027
:100EF000488103008C5600400050004080000800EC
:100F00000C550040E524000004B5014000B001404C
:100F1000084910B501200860074988600520FFF7DF
:100F200055FB07210520FFF767FB0520FFF759FB5D
:100F3000002010BD04540040005000402DE9FC5F2B
:100F40000E008346DDE90C47C6F100009846924644
:100F5000814600D40846012503E000BF90FBFAF06B
:100F60006D1C5045FADAA84500D9454624B1002E3B
:100F700001DB780700D5641EB80702D5B8F1000F71
:100F80000AD0F80708D13CB1A54205D22021584625
:100F9000641EFFF7DBFDF6E7002E02DA4E462D2138
:100FA00002E0780703D52B215846FFF7CFFD07F065
:100FB000030002280BD1B8F1000F08D13CB1A542C3
:100FC00005D230215846641EFFF7C0FDF6E7CDE993
:100FD0000047434652463146584602F06BF8BDE89A
:100FE000FC9F000070B50D46044600684FF4887100
:100FF00001F012FB4FF49071206801F00DFB4FF4EB
:101000009271206801F008FB4FF4A271206801F092
:1010100003FB20681249C0F8041320686907000B1D
:1010200040B2090E002806DA00F00F0000F1E020BF
:1010300080F8141D03E000F1E02080F8001420681F
:101040000121000B40B200F01F02914040098000D6
:1010500000F1E020C0F88012C0F8001170BD00005F
:1010600010030200024600201268930702D05307C3
:1010700002D47047500714D502F00300012802D0B3
:1010800002280CD105E0C2F383100B68801C1844C1
:1010900004E00223086803EB925210440860012028
:1010A0007047086800EB9253C2F38910401CEEE7CA
:1010B0000268134602E08A4204D01268002AFAD17C
:1010C0000B600160704700002DE9FF4100262348B6
:1010D00000F0CEFB2148001F074600F0C9FB204C62
:1010E00060680090A56800E000986946284004EB1D
:1010F00080000C30FFF7B6FF0028F5D101AA009957
:1011000001EA050304EB8303491CDB6842F8203045
:10111000401C00910228F2D3019800F0030001283E
:101120000BD0022810D10198032101EB90500099B7
:10113000BDF80A6001EB900005E00198BDF80A6077
:10114000C0F3831008440090384600F08EFB08B1CD
:101150000098606004B03046BDE8F0818807002048
:10116000700300200EB54FF40041002001F09CF800
:1011700008B1FFF7CBFB00F023FF0120FFF75EFC77
:101180000021144800F012FB08B1FFF7BFFB4FF439
:101190008070029002A91048104ACDE90001262370
:1011A0002021A2F1200000F0D1F908B1FFF7AEFB39
:1011B0000948029900F0DAFA08B1FFF7A7FB00F03E
:1011C000BBFA08B1FFF7A2FB00F008FF0028FBD133
:1011D00020BFF9E7351500000C0100208831000020
:1011E0002DE9F047C7880446181D16468946B0FB0E
:1011F000F7F1B0FBF7F207FB12009A193A44D21C40
:10120000B2FBF7F2DDF820A001E02468491E0029B6
:10121000FBD13D1A8846B54216D818E0BAF1000F46
:1012200005D0211809EB08002A46091D04E02044D6
:1012300009EB08012A46001DFFF78EF800202468FC
:10124000761BA844B74201D9354600E03D46002E42
:10125000E4D1BDE8F087000030B5024659B101F095
:101260004FF80021074C09E004EB810315685B8807
:10127000AB4202D11160002030BD491C8142F3D342
:10128000052030BDEA00002010B51C46934200D96D
:1012900014462246FFF760F8204610BD10B51C46E4
:1012A000934200D914460A462146FFF767F82046C4
:1012B00010BD00000B4900F1100213464A610A6993
:1012C00013448B6128B14FF47C73CB614FF480637E
:1012D00001E00023CB61C01C104480080B6281F840
:1012E00069007047B007002070B50D4D0D4A002110
:1012F0002C7800BF01EB4103D65CA6420AD113440F
:101300005B78834206D101EB41001044807828705D
:10131000002070BD491C0E29ECD3082070BD0000D0
:10132000B0070020C000002070B50446022920D17B
:101330000620FFF7D9FF00281BD10E4964784B69BE
:10134000A2002046934208D88D69103D954204D3EF
:10135000C968C3EB8400084403E000F017F80548AF
:1013600038301021FFF748FD2046BDE8704000F0FE
:10137000B3B870BDB0070020034902684A624268F2
:101380008A62008988857047B00700202DE9F04106
:10139000334E8400102529463046FEF7F6FFA6F1AD
:1013A00038077869A0420BD9021B39192B46304601
:1013B0002431FFF769FFD0F11005044406444CD0F6
:1013C000B869A0420CD978693969201A0A1AF968F3
:1013D0002B4601443046FFF757FF2D1A04440644BC
:1013E000002D3AD0B869A0420ED1396A61B1F969CD
:1013F000884209D02B460122FE213046FFF74EFFDE
:101400002D1A0444064428D0F869A04209D9021BC9
:101410002B4600213046FFF741FF2D1A04440644B5
:101420001BD0386AA04210D9021B2B46FF21304640
:10143000FFF734FFF969611AC1F10E01A94201D821
:101440003F2272542D1A064407D02B463046BDE881
:10145000F0411A460021FFF721BFBDE8F0810000EE
:10146000E807002070B50C460546914201D90C20D2
:1014700070BD0120FFF738FF08B1082070BD05B925
:1014800000240248C0E90354002070BDB0070020CA
:1014900070B5002103230A460C460E4801260CE0D5
:1014A00006FA03F50D43E9B25B1E05D5831883F8F0
:1014B000481007230021521C641C90F86950A54273
:1014C000EEDC024482F84810002100F8681F8170A9
:1014D00070BD0000B0070020F0B5C208514200EB1B
:1014E000C1010024124BC1F107010125042813D3C7
:1014F00005FA01F603EB020CF7B29CF848603E4295
:1015000004D0BE438CF848602E4600E0002693F8D5
:1015100068703E4483F86860491E01D50721521C5B
:10152000401C10F0FF0002D0641C042CDEDBF0BD78
:10153000B0070020012904D0022905D10020FFF7BF
:10154000A7BA0020FFF7ACBA704700002DE9F041C0
:101550000446204898B016460F46DDE91E85D0E9BE
:101560000112CDE9011216A90091D0E90312806998
:10157000CDE90560CDE9031216498DF8183018221F
:101580001C3109A8FEF7E8FE03A80E901149CDE929
:101590000747182234310FA8FEF7DEFE07A8149083
:1015A0002EB109A9684600F063F800280DD12CB1CE
:1015B0000FA9684600F05CF8002806D1029838B1FF
:1015C0002A464146684600F01AF818B0BDE8F08196
:1015D0000720FAE7FC31000070B515460B00044601
:1015E00009D028686268904201D2042070BD184674
:1015F0002168FEF7B1FE60682860002070BD2DE90B
:10160000F8439046894607004FF0000606D0B8F12F
:10161000000F03D03D680DB1002422E00E20BDE88C
:10162000F88324B1611C884207D1402106E00128DB
:1016300001D0802102E0C02100E00021D8F80000A4
:101640006B46801B00904A46286800F01FF800286F
:10165000E5D10098B9F1000F064400D08144641C24
:101660002D1DB868A042DCD80020C8F80060D6E77D
:10167000D0E901329A4201D304207047036843F84D
:1016800022108168491C8160002070472DE9F843D1
:10169000144698460A4605004FF000074AD068787D
:1016A000297A4618B61D00B1761C8CB332F0C00002
:1016B00002D00720BDE8F883D8F80000B04201D27C
:1016C0000420F7E722702B78601C1A4322702A7AD4
:1016D00000F8012B21460746041D687828B104F85C
:1016E000010B087840F0080008702A7A2046E96863
:1016F000FEF732FE287A6A7804442AB120466968E7
:10170000FEF72AFE68780444D8F80000801B009099
:101710002B697BB16A462146686998470028C9D180
:1017200014B1009800BA3860009831180020C8F849
:101730000010BFE70E20BDE710B50420FFF7D4FD71
:1017400008B1082010BDBDE81040FFF7E1BB000064
:1017500010B518B10A2902D00C2010BD0248FFF7BD
:101760000BFE002010BD00007832000010B54FF4D1
:101770007772FFF777FE040013D10B48032201694B
:1017800000F8342FFE2902D84170022005E0FF2224
:1017900042700A0A8270C1700420FFF78BFDFFF7C8
:1017A00077FE204610BD0000B007002070B50E4641
:1017B000050005D00020FFF797FD18B1082070BD87
:1017C000072070BD0B4C0C48C4E901561434FFF7D8
:1017D000D3FDFF20A076E076E1202077102060770F
:1017E0007C20A0770F20E077BDE8704001490348D6
:1017F000FFF722BBB007002078320000D90B0000B1
:101800002DE9F047164604460279007B1518ED1DB8
:1018100041B33068A84202D20420BDE8F0874FF0FF
:10182000000801F8018B4FF0010981F800904F1C6E
:10183000207907F8010B227938462168FEF78CFDE4
:1018400020790744207B07F8010B227B3846A168EA
:10185000FEF782FD207B2021384480F8008080F84C
:101860000190817000203560D7E7002100F009B8B1
:10187000012100F010B808B56A46FEF718FD00987F
:1018800008BD08B56A46FEF7F8FC08BD08B56A460B
:10189000FEF7DAFC08BD08B56A46FEF7E1FC0098E1
:1018A00008BD08B56A46FEF70FFD009808BD70B583
:1018B000044600252846FFF734F821686268086866
:1018C00090420ED9401E08600178A38AE26801FBAD
:1018D0000325227A2168101AC0B20A79824200D206
:1018E00008710020FFF71FF8284670BD70B5054647
:1018F0000C460020FFF715F8E868A98A201AB0FB0B
:10190000F1F12A681068431C13600170BDE8704053
:101910000020FFF708B810B530B1017A42680368BB
:10192000891AC9B21A6006E00E2010BD03681A6851
:10193000541C1C601170491EC9B2F7D20068002106
:101940000171084610BD00F180400068002800D0F9
:101950000120704708B500F1804000210160006857
:10196000009008BD10B50020FEF7DBFF074C606853
:10197000401E6060606818B900F076FE002060705C
:10198000BDE810400020FEF7CEBF00000C02002092
:1019900070B5104D0446687838B114B16168002004
:1019A00088470020FEF7BDFF0CE00020FEF7B9FFDE
:1019B00024B1084821460830FFF77AFB686808B967
:1019C00000F046FE6868401C6860BDE8704000207A
:1019D000FEF7A9BF0C02002070B50A4C207808B1B0
:1019E00085250CE00020A06060602061E060064872
:1019F00000F050FE054600F015FE0120207028463C
:101A000070BD00000C020020A90B0000F0B50546D7
:101A10000478154889B0164640F82420124A08690F
:101A20000832A2F10C0742F82400487F38552022E2
:101A30006846FEF791FC04942878385C48B10EB1F2
:101A40000A4A00E000226946281D00F093FF09B011
:101A5000F0BD0EB1064A00E00022694605F10C0017
:101A600000F05AFEF3E7000004000020912F000070
:101A7000DD2D00000FB408B50399002904D004AA95
:101A800000926A4600F00FF801B05DF814FB10B543
:101A900082680446002A05D0D4E9040321689847E7
:101AA0000020A06010BD2DE9FC4791460C00804647
:101AB00076D014F8011B39B125290ED04046FFF726
:101AC00045F820780028F4D198F80C00002867D059
:101AD0004046BDE8FC47FFF7DABF0020012221782D
:101AE0002B291BD02D2902D0302908D102E040F04B
:101AF000010001E040F00200641C002AEFD1002543
:101B00002A290ED02178A1F130020A2A11D205EB40
:101B1000850201EB4205641C303DF1E740F0040012
:101B2000EAE7D9F800100B1DC9F800300968641CF9
:101B30000D44217800232E290BD114F8011FA1F1A7
:101B400030020A2A05D203EB830201EB4203303B49
:101B5000F3E76C290DD068290BD0692921D00BDC63
:101B6000252918D0582931D063290ED0642915D1E0
:101B700017E014F8011FECE7702969D0732932D0FF
:101B800075291BD0782909D120E0D9F80000011D62
:101B9000C9F8001001784046FEF7D8FF641C90E7B2
:101BA0006CE0D9F800100A1DC9F800200968CDE9D9
:101BB00000500A224046FFF7C1F9EFE7D9F80010BC
:101BC0000A1DC9F8002009680A2206E0D9F80010A9
:101BD0000A1DC9F8002009681022CDE900504046CE
:101BE00001F068FADAE7D9F8001000270A1DC9F8F1
:101BF00000200E68C00705D112E04046761C7F1C0D
:101C0000FEF7A4FF31780029F7D104E020214046F7
:101C10006D1EFEF79BFFBD42C0D9002DF6D1BDE77A
:101C20004EB13046FEF7BCFB074604E0202140469B
:101C30006D1EFEF78BFFBD4206D9002DF6D103E0E5
:101C40004046761CFEF782FF31780029F8D1A5E7DF
:101C5000D9F80000011DC9F8001005683021404680
:101C6000FEF774FF78214046FEF770FF0820002140
:101C7000CDE90001034610222946B0E7BDE8FC8704
:101C80002DE9FF411C46DDE90A7815460E466846F7
:101C900000F07AF846EA450141EA840141EA072268
:101CA00042EA0841009A00EB8200C0F80017BDE844
:101CB000FF812DE9FF411C46DDE90A7815460E46F5
:101CC000684600F06FF846EA450141EA840141EABE
:101CD000072242EA0841009A00EB8200C0F8001790
:101CE000BDE8FF812DE9FF411C46DDE90A78154674
:101CF0000E46684600F064F846EA450141EA840170
:101D000041EA072242EA0841009A00EB8200C0F84B
:101D10000017BDE8FF811CB5002100910B46012290
:101D20000191FFF7C6FF1CBD1CB5002100910B46B9
:101D300001220191FFF7D6FF1CBD1CB500220B4606
:101D4000009211460192FFF7B4FF1CBD1CB50022A2
:101D50000B46009211460192FFF7C4FF1CBD1CB553
:101D6000002100910B46012201911146FFF7A1FFCE
:101D70001CBD1CB5002100910B46012201911146AA
:101D8000FFF7B0FF1CBD00000168202902D24FF010
:101D9000A040704701F01F0101600148704700003A
:101DA000000300500168202902D24FF0A040704784
:101DB00001F01F010160014870470000000300505E
:101DC0000168202902D24FF0A040704701F01F01A6
:101DD00001600148704700000003005001B56846EB
:101DE000FFF7E0FF009A01219140C0F8081508BDF7
:101DF00001B56846FFF7E4FF009A01219140C0F861
:101E0000081508BD38B501240090684631B1FFF7C8
:101E1000BBFF00998C40C0F8084538BDFFF7B4FF00
:101E200000998C40C0F80C4538BD000030B5124B0D
:101E300001460020D3F81044224609E0157A854275
:101E400005D1401C0A28F7DB4FF0FF3030BD526847
:101E5000002AF3D1421CF9D00872D3F810242AB119
:101E600052684A60D3F81024516030BD0022C3F894
:101E700010144A6030BD000070030020F0B595B02A
:101E80001C4615460F4608461A9E00F009FB18210D
:101E900009A8FEF77AFA0E96CDE909540023082224
:101EA00003A9384600F011FB05980690BDF8100014
:101EB000ADF81C00BDF81200ADF81E0000208DF832
:101EC00021000398082600F00300012802D0022810
:101ED00018D032E003983346850AC0F3C2008DF86B
:101EE000200003980FA9C0F38314A200384600F025
:101EF000ECFA09A8009006AB22460FA9284600F08C
:101F00002BFA1AE00398840DC0F3C2008DF820006C
:101F1000082C01D2254600E0082533462A460FA9A1
:101F2000384600F0D2FA2E44641B09AB06AA2946B3
:101F30000FA800F063F9002CEAD1384600F0B6FA99
:101F400015B0F0BD7047012000F066BF084810B51D
:101F50000178084A515C19B1001D00F097FD02E0BC
:101F60000C3000F0A5FCBDE81040002000F054BF8C
:101F70002C0000200000002008B5034A00924023F6
:101F8000024AFFF77BFF08BD892C00007002002089
:101F90000A4A012902EBC00007D0022907D0032911
:101FA00007D0042907D00020704702207047042082
:101FB000704700797047407970470000D8330000BF
:101FC00010B5FFF7C0FF04210348FFF72FFF0249B8
:101FD0000120487210BD0000400000202DE9F047AC
:101FE0008CB0FEF7C3FD18B100200CB0BDE8F0873F
:101FF000784C0020C4F81804BFF34F8F606802903B
:10200000A5684FF00008284004EB800008E0216834
:102010000298814201D86160E6E7284004EB800025
:102020000C3002A9FFF71EF80028F0D103AB02998B
:1020300001EA050204EB8202491CD26843F8202021
:10204000401C02910228F2D3039800F003000228FA
:1020500002D001284ED0A5E003985022810D894678
:10206000B2EB905F00D850210E4666F39F5003906C
:102070000831594800F0CBF9070078D000F010FA89
:102080004346082203A9384600F025FA029908F1D0
:10209000080A2940681A8000001D864223D94D4D48
:1020A0000C3530B1C2B204EB8101301A90460C31CC
:1020B00004E02946F2B2002590462846C6B25346AF
:1020C000384600F008FA0AEB08032DB132462946DB
:1020D0004FEA070000F0FFF9029909F1030001EB54
:1020E000900002903AE004EB8101534632463846B4
:1020F0000C31EFE70398C0F38311062900D30621C2
:1021000061F389100390C0F38310801C8100324872
:1021100000F07DF9070045D000F0C2F943460822DF
:1021200003A9384600F0D7F908F1080800260FE0A7
:102130000298434600EA0501401C04EB810102902D
:10214000042238460C3100F0C6F908F10408761C68
:102150000398C0F38310B042EAD847B1D4F81054C2
:10216000D4F8180468B1384600F0A0F92CE019E062
:10217000687A012804D12A682846394612689047AF
:102180006D68002DF4D1384600F090F90020FEF77C
:10219000C8FBD4F8180408B9029860600020FEF764
:1021A000C2FB11E0D4F8104404E02168204689689D
:1021B00088476468002CF8D108480221008801EBA8
:1021C000004007A100F016F8FEF7D0FC80F00100F7
:1021D0000BE7000070030020183400000601002007
:1021E0004261636B656E647320666C7573686564C9
:1021F0000000000000231A4600F066BD2DE9F047FC
:102200000E4680461C46924608293ED894F80C900B
:10221000002020731946104600F0AEFC0025B542A0
:1022200006D218F805201AA12046FFF723FC03E088
:1022300019A12046FFF71EFC6D1C082DEFD317A136
:102240002046FFF717FC0025B54210D218F805709C
:10225000FEF77EF80068C05D10F03E0F01D03A46F0
:1022600000E02E220EA12046FFF704FC03E00DA1A2
:102270002046FFF7FFFB6D1C082DE5D30122214608
:10228000504600F05BFC84F80C90BDE8F08700003D
:102290002025303278000000202020007C00000043
:1022A0002563000020000000104810B5FF21816068
:1022B000002101604160C0F81814C0F8141480F8BF
:1022C00020140B4800F0F0F800280DD109480A4905
:1022D0000A4B401AC108002003E000BF23F8200089
:1022E000401C8842FAD3002010BD0000700300207B
:1022F0001834000018340000D8330000EA00002031
:1023000002480349401AC008704700001834000012
:10231000D833000013B56846FEF79EFF08B10020D1
:102320001CBD0248009950F831001CBDD833000094
:1023300070B508480125D0F8104480F8205405E015
:10234000657221682046496888476468002CF7D187
:1023500070BD0000700300202DE9FF4781460C9DF1
:1023600000200C462F7B28739846164629461846AF
:1023700000F002FC072E42D2DFE806F004090F1637
:102380001F2A360049462846FFF774FB37E04946C6
:1023900028462268FFF76EFB31E0D4E90023494666
:1023A0002846FFF767FB2AE0A0680090D4E90023E5
:1023B00049462846FFF75EFB21E0D4E90201CDE95A
:1023C0000001D4E9002349462846FFF753FB16E0F5
:1023D00004F1080007C88DE80700D4E90023494646
:1023E0002846FFF747FB0AE004F108000FC88DE814
:1023F0000F00D4E9002349462846FFF73BFB0022A3
:102400002946404600F09AFB2F73BDE8FF872DE96F
:10241000F041858A80462D1F4819C01CB0FBF5F09D
:10242000C6B24046FFF743FA041E19D000202071BF
:1024300001206071E58000272546761EC4F80080E3
:102440000BE04046FFF733FA60B16179491C6171D6
:10245000286005467F1CC0F80080B742F1D32046B3
:10246000BDE8F081204600F002F80020F8E72DE9F1
:10247000F041457901466B1E002201E00968521CBB
:102480009A42FBD30F680146002605E038460C68E7
:10249000FFF72CFA2146761CAE42F7D3BDE8F08157
:1024A0000121001DFFF7E7B9FFF735BA10B5044663
:1024B0000121001DFFF7F5F910F0FF0F04D12046B0
:1024C000BDE81040FFF7D3BF10BD38B5012400941C
:1024D000FEF786FE38BD38B500240094FEF780FE76
:1024E00038BD000010B5002814D100F051FC0121C6
:1024F00070B10948007810F0F00F05D10648001DB2
:10250000007810F0F00F03D0BDE81040FEF7B2BB2A
:102510000248016010BD0000E80F00F000500040CC
:10252000064800684FF00101C207054801D08162EA
:1025300000E041624021C0F8081370472054004079
:102540000050004008B5002101600068009008BDFF
:10255000F1B500F02DFC214D10B9E978002923D107
:102560009DF80010012403290AD11D4909682A6930
:10257000114203D002218DF8001001E08DF80040D7
:102580009DF80010002601290FD002290CD169788E
:1025900049B920B9EE60EC701248C46004600F487D
:1025A0001830FFF7F5F96C70F8BD0F4F00B13C61C2
:1025B000BC60FFF7D7F96E704FF48860C7F8080366
:1025C0002C61AC68002CEFD0686901B0A446BDE86E
:1025D000F04000231A460121604700009C000020C3
:1025E0003C54004000B001400050004040580028DA
:1025F00000D00120704708B500224250405800909A
:1026000008BDD0F80403084000D0012070474058AE
:10261000002800D00120704708B5002242504058E1
:10262000009008BD08480068012110F0010F08D192
:102630004FF0E020E02280F80024C0F88012C0F8BB
:10264000001102480160704700E100E018050040F9
:1026500010B54FF48070FFF77DF901208107C1F8B4
:102660000403086010BD0000074901200860074905
:102670004FF001100A6802F001128242FAD00449B8
:102680000020487170470000040000400C04004026
:10269000140000200649024600200B790BB185206A
:1026A00070470A6001220A7100224A7170470000D7
:1026B000140000200121B1EB507F01D101207047AF
:1026C0000020704770B50D4600F0A2FA04000FD04C
:1026D0000020FEF726F9207920B10020FEF723F92B
:1026E000112070BD0120256020710020FEF71BF92C
:1026F000002070BD10B500F08BFA002802D0002138
:102700000160017110BD00000149024800F0ACBB3E
:1027100020020020002000402DE9F041054600790C
:1027200016460F4600EB40012D4A01EBC00102EBBB
:10273000810494F82A1011B10820BDE8F0812949DC
:1027400051F820102868FFF7BDFF08B11120F4E709
:1027500039462846FEF7FCF866603869206030008C
:102760004FF001062FD03F7F4FF48E712868FFF79E
:1027700042FF4FF4A2712868FFF73DFF28681A490D
:10278000C0F8041328684FEA4711000B40B2002834
:1027900006DA00F00F0000F1E02080F8141D03E0DD
:1027A00000F1E02080F800142868000B40B200F02F
:1027B0001F0206FA02F14009800000F1E020C0F893
:1027C0008012C0F8001128680421C0F8001500200C
:1027D000A061E06184F8290044F8140FA675ACE705
:1027E00020020020B8310000800002002DE9F047EF
:1027F000054600790B4600EB400101EBC000234980
:1028000001EB8004284600F043F810B11120BDE828
:10281000F0874FF00008C4F82080A360626184F85C
:1028200028804FF48E76474631462868FFF7E3FE4E
:1028300028684FF00109C0F808902146286800F088
:1028400089FA606800BBD5F800A00EE094F8280073
:1028500008B10F2716E031465046FFF7C7FE0028A3
:10286000F4D02146504600F075FA216A6069814231
:10287000F1D331462868FFF7B9FE0028F9D028685F
:10288000C0F80C90C4F814803846C0E7200200203D
:10289000007900EB400101EBC000044901EB80002E
:1028A0004069002800D0012070470000200200206D
:1028B0002DE9F047044600794FF0000900EB400194
:1028C00001EBC000254901EB80072068C0F80095A6
:1028D000786880B120682249C0F808132068012177
:1028E000000B40B200F01F0291404009800000F14F
:1028F000E020C0F880112068D0F80C25D0F81485AD
:10290000D0F80865D0F810554FF0FF31C0F8141515
:10291000C0F80C152068C0F80815C0F81015501C38
:1029200002D01046FFF7F7F9B8F1FF3F02D040465A
:10293000FFF7F1F9681C02D02846FFF7ECF9701C8C
:1029400002D03046FFF7E7F92068FFF7D3FE87F89B
:102950002A90C7F80490BDE8F0870000200200200C
:10296000840202000149024800F02ABB4C02002008
:10297000002000402DE9F0410546164600790F463B
:10298000154A00EBC00102EB810494F8201011B14C
:102990000820BDE8F081114951F820102868FFF7A0
:1029A00091FE08B11120F4E739462846FEF70BF8EE
:1029B0006660386920601EB1397F2846FEF712FB39
:1029C00028680821C0F800150020A061E0610121FD
:1029D000606184F82010DCE74C020020BC3100006C
:1029E0002DE9F04704460E460079204900EBC0006F
:1029F00001EB800517463046FFF75CFE30B12046FC
:102A000000F036F820B11120BDE8F0871020FBE778
:102A10006F61AE604FF49076002731462068FFF773
:102A2000FBFD4FF4AC7841462068FFF7F5FD2068C8
:102A3000AA686969C0F84425C0F8481520680121D2
:102A40008160686878B9B14649462068FFF7DFFDC4
:102A5000064641462068FFF7DAFD0643F4D000B190
:102A60000F27002068613846CEE700004C020020A6
:102A70000079054900EBC00001EB800040690028A7
:102A800000D00120704700004C0200202DE9F047E3
:102A900004460079274900EBC00001EB800720685D
:102AA0004FF00009C0F80095786880B1206822498D
:102AB000C0F8081320680121000B40B200F01F028B
:102AC00091404009800000F1E020C0F880112068AA
:102AD000D0F80C25D0F81485D0F80865D0F810553A
:102AE0004FF0FF31C0F80C15C0F814152068C0F87D
:102AF0000815C0F81015501C02D01046FFF714F945
:102B0000B8F1FF3F02D04046FFF70EF9681C02D033
:102B10002846FFF709F9701C02D03046FFF704F988
:102B20002068FFF7E7FD87F82090C7F80490BDE81C
:102B3000F08700004C0200201003020010B50C4684
:102B4000017A052908D0407A38B1084808A10268FE
:102B50002046FEF78FFF00E01AB106A12046FEF7DF
:102B600089FF2046BDE81040FEF791BF78000020A5
:102B7000257300000D0A000038B5C3880D460446D1
:102B800033B114A0009015A216A12846FEF772FFDB
:102B9000217A05291CD0607A48B1A088FFF7F8F99E
:102BA000164951F8202016A12846FEF763FFA08899
:102BB0000021FFF7AFFB03461049207A143951F882
:102BC000202001B02846BDE830400EA1FEF752BFDC
:102BD00038BD00001B5B306D000000001B5B313B0B
:102BE00033316D0025734C6F67732064726F7070A2
:102BF0006564202825642925730D0A0078000020CB
:102C0000257300003C25733E2025733A2000000008
:102C10000349884201D103487047002070470000F3
:102C2000002000401C00002070B5054688690C4655
:102C300000284FF4847128460AD0FFF7DCFCD5F851
:102C40001805626AE1688854606A401C606270BD61
:102C5000FFF7D1FCD5F8180570BD1FB501238DF81D
:102C60000030CDE90121D0E90012684690471FBD30
:102C70001FB501238DF800308DF808100192D0E9BE
:102C80000012684690471FBD70B50D4C0020D2B2AF
:102C90002070201D0B4D0378EB5C1BB1001DFFF76E
:102CA0009FFE02E00C30FFF7A1FD08B1FDF72EFEFC
:102CB0006078002802D021780029FAD070BD000089
:102CC00028000020000000202DE9F84F204D9246FA
:102CD000894606469846012269461846AF68FDF7C0
:102CE000F1FE58B3009800210446801C09E000BFA3
:102CF00000EA07035AF8212005EB8303401C491C16
:102D0000DA604145F4D34FEA164AFDF75BFF4AEA21
:102D10000041601C384005EB80003C4005EB84021C
:102D2000C160D06866F3C50068F3891069F39F201D
:102D300020F00300401C20F00400D06095F820042F
:102D400002E000BFFFF74AF90028FBD1BDE8F88F89
:102D50007003002070B50C4605464FF48E71FFF7E6
:102D60004AFC216AA068415C206A401C2062C5F8C8
:102D70001C1570BD1FB500228DF8002002918168DE
:102D800001914261D0E90012684690471FBD0000E2
:102D900006480078082804D10448001D0078000780
:102DA00001D000207047012070470000E00F00F0C4
:102DB00010B5FFF7EDFF50B10748007810F0F00FA5
:102DC00005D10548001D007810F0F00F01D000205B
:102DD00010BD012010BD0000E80F00F01FB50A462D
:102DE00001788DF8001041680191017A8DF8081082
:102DF000C0680390044850F82210083850F8222088
:102E0000684690471FBD00000C00002001490120CA
:102E1000087070472800002010B588B004462022B2
:102E20000E496846FDF798FA06200090C01F0190F1
:102E3000029003904FF0EB7006900CB1084A00E04E
:102E4000002269460748FEF7E1FD08B1FDF75EFD87
:102E50000448001F447008B010BD0000DC310000C1
:102E60000D2E00002C0000202DE9FF470C460546E2
:102E70004FF40071FFF7C5FB01274FF401780026DE
:102E800018B34FF4927949462846FFF7AFFBE0B1FB
:102E900049462846FFF7AFFBC5F8088394F8290098
:102EA00000B96F6002208DF80000D5F88004C5F8E5
:102EB00080040390A0690290E0680190A661E66139
:102EC000D4E900126846904728E004212846FFF71D
:102ED00098FB18B34FF484712846FFF787FBE8B1DD
:102EE00021462846FFF7A0FE616AA069884215D1F5
:102EF000E06938B1E268616AA0612069E6616662F2
:102F0000E06008E094F8290000B96F60C5F8088314
:102F1000A661E268616A2046FFF79FFE4FF48E7853
:102F200041462846FFF762FB78B1206A6169884212
:102F300002D294F8280020B341462846FFF75BFBF5
:102F4000616911B12046FFF715FF4FF4A2784146A1
:102F50002846FFF74BFB002818D041462846FFF7CC
:102F60004AFB94F8290000B12F60A06900280DD019
:102F7000A661E268616A04B02046BDE8F047FFF749
:102F80006CBE21462846FFF7E5FEDEE7BDE8FF8779
:102F90001FB50A4601788DF8001041680191017A49
:102FA0008DF80810C0680390044850F822100838C3
:102FB00050F82220684690471FBD00000C000020FA
:102FC0002DE9FF410C464FF4927705463946FFF74D
:102FD0001EFB0026C0B139462846FFF71DFB022024
:102FE0008DF80000D5F88004C5F880040390D5F86A
:102FF0003C058DF80800E0680190A661E661D4E91F
:1030000000126846904723E04FF4887739462846F7
:10301000FFF7FDFAE0B139462846FFF7FDFAD5F88B
:103020003C15A069884213D1E06960B1E268D5F827
:10303000000220F02000C5F80002E069A0612069CC
:10304000E661E06001E0A661E2682046FFF710FE5D
:103050004FF4A27739462846FFF7D9FA60B13946CE
:103060002846FFF7D9FAA06930B1A661D5F83C151A
:103070002046E268FFF7FCFD4FF49077394628467A
:10308000FFF7C5FA002813D039462846FFF7C4FADF
:10309000606900280CD0D5F84C058DF800608DF8DB
:1030A0000800A06801906661D4E900126846904764
:1030B000BDE8FF812DE9F05F8346DDE90A4A9946C4
:1030C00090460D460846012703E000BFB0FBF8F02C
:1030D0007F1C4045FAD2B94500D94F465FEACA7015
:1030E00012D18CB15FEA8A7002D5B9F1000F01D01C
:1030F000202607E0302605E031465846641EFDF7DD
:1031000025FD0CB1A742F7D35FF00106B9F1010F1D
:1031100002D9A9F1010903E0B5FBF6F0404502D35D
:1031200006FB08F6F2E7DFF83C9000BFB5FBF6F0CF
:1031300000FB165519F800105846FDF707FDB6FBC1
:10314000F8F6002EF2D15FEACA7009D0002C07D041
:10315000A74205D220215846641EFDF7F7FCF5E78B
:10316000BDE8F09FC03100006E6F2E6E6F72646913
:103170006373656D692E616E64726F69642E6E7221
:1031800066746F6F6C626F787B6531326432646134
:10319000372D343838352D343030662D6263643441
:1031A0002D3663626435623863663632637D0D0E98
:1031B0000F100B0C181900000927000065290000EA
:1031C000303132333435363738394142434445465D
:1031D000791F00004D1F0000451F0000FFFFFFFF8B
:1031E000FFFFFFFFFFFFFFFFFFFFFFFF00000000EB
:1031F000000000000000D6010701000000000000F0
:1032000002000000000000006C3200000C00000012
:1032100000000000000000000300000000000000AB
:1032200015000000573200000118000000000000E7
:1032300004000000000000000F0000004832000001
:10324000D915000000000000616E64726F69642E81
:10325000636F6D3A706B6777696E646F77732E6317
:103260006F6D2F4C61756E636841707057696E6445
:103270006F777350686F6E650001020304050607DF
:1032800008090040404040404040404041414141E9
:10329000414040404040404040404040404040402D
:1032A0004040400502020202020202020202020241
:1032B00002020220202020202020202020020202C2
:1032C0000202020290909090909010101010101036
:1032D000101010101010101010101010101002020A
:1032E0000202020288888888888808080808080876
:1032F000080808080808080808080808080802025A
:1033000002024000833200007761726E696E6700CE
:1033100064656275670000001B5B313B33306D00F4
:103320001B5B306D000000001B5B313B33316D00D7
:103330001B5B313B33326D001B5B313B33336D0024
:103340001B5B313B33346D001B5B313B33356D0010
:103350001B5B313B33366D001B5B313B33376D00FC
:10336000696E666F000000006572726F7200000087
:10337000636C6F636B000000434C4F434B000000D5
:1033800050525300554152540000000055415254D0
:1033900045000000686172646661756C740000002D
:1033A00062616C6C6F632E6C6F675F6D656D706FC3
:1033B0006F6C00006170700030340000000000206D
:1033C0000C010000700800003C3500000C010020DA
:1033D0001427000080080000703300000000000087
:1033E000783300000000000080330000000000007F
:1033F00084330000000000008C3300000000000057
:103400009433000000000303A03300000000000319
:10341000B433000000000303540000204C000020DF
:1034200054000020B002002002010020180000001B
:10343000000000000000000000000000000000008C
:10344000000000000000000000000000000000007C
:10345000000000000000000000000000000000006C
:10346000002000400000000000200040000000009C
:10347000D03100000000000000000000000000004B
:10348000000000000000000000000000000000003C
:103490000000000000000000683300000833000056
:1034A00060330000103300002033000018330000A8
:1034B0002833000030330000383300004033000070
:1034C0004833000050330000583300000000000073
:1034D00000000000000000000000000001000000EB
:1034E0000000000000000000000000000090D00379
:1034F000040605040803040902050704050803057A
:10350000090203050403090200000101010202048B
:1035100003020A000201020209020000000000008A
:10352000000000000000000000000000000000009B
:0C3530000000000000000000000000008F
:0400000500000201F4
:00000001FF
