:020000040001F9
:1090000070390020C1930100C9930100CB93010086
:10901000CD930100CF930100D19301000000000027
:10902000000000000000000000000000D3930100D9
:10903000D593010000000000D7930100D9930100EF
:1090400041970100DB930100B19A0100DB9301001D
:10905000DB9301000000000079950100DB93010023
:10906000DB930100DB930100DB930100DB93010044
:10907000DB930100DB930100DB930100DB93010034
:10908000DB93010099970100DB930100DB93010062
:10909000BD970100DB930100C1970100DB93010044
:1090A000DB930100DB9301000000000000000000E2
:1090B000DB930100DB9301000000000000000000D2
:1090C00000000000000000000000000000000000A0
:1090D0000000000000000000000000000000000090
:1090E0000000000000000000000000000000000080
:1090F0000000000000000000000000000000000070
:10910000000000000000000000000000000000005F
:10911000000000000000000000000000000000004F
:10912000000000000000000000000000000000003F
:10913000000000000000000000000000000000002F
:10914000000000000000000000000000000000001F
:10915000000000000000000000000000000000000F
:1091600000000000000000000000000000000000FF
:1091700000000000000000000000000000000000EF
:1091800000000000000000000000000000000000DF
:1091900000000000000000000000000000000000CF
:1091A00000000000000000000000000000000000BF
:1091B00000000000000000000000000000000000AF
:1091C000000000000000000000000000000000009F
:1091D000000000000000000000000000000000008F
:1091E000000000000000000000000000000000007F
:1091F000000000000000000000000000000000006F
:10920000DFF80CD000F07AF900480047D1D801000F
:109210007039002030B450E8012F93B2C489234440
:109220008489A34228BF1B1B0489A34202BFBFF34A
:109230002F8F002007E0C3EA020340E80134002C2E
:10924000E9D14FF001000A6030BC704750E8012FAF
:10925000C2EA024240E801210029F7D1704730B448
:1092600050E8022F1FFAA2F3C488A34202BFBFF343
:109270002F8F00200DE0C48923448489A34228BF96
:109280001B1BC2EA034340E80234002CE8D14FF034
:1092900001000A6030BC704750E8022FC2EA224247
:1092A00040E802210029F7D17047034653E8022F16
:1092B000D988B2EB324F4FF0000017BF92B241EAAB
:1092C000014142EA014104E05A68B2EB324F08BF63
:1092D000012043E80212002AE8D1704730B4044666
:1092E00054E8000F0D4644E80053002BF8D11560F8
:1092F00030BC704730B4044654E8000F40EA010522
:1093000044E80053002BF7D1156030BC704730B4EF
:10931000044654E8000F00EA010544E80053002B1E
:10932000F7D1156030BC704730B4044654E8000FE4
:1093300080EA010544E80053002BF7D1156030BCEA
:10934000704730B4044654E8000F00EB010544E8D0
:109350000053002BF7D1156030BC704730B4044681
:1093600054E8000FA0EB010544E80053002BF7D1AF
:10937000156030BC704770B404464FF0000054E8EC
:10938000006F0D68AE4207BF44E80023012044E8A7
:1093900000630E60002B1CBF0020F0E770BC70471C
:1093A00030B4044654E8000F88422CBF451A0546E5
:1093B00044E80053002BF5D1156030BC7047000025
:1093C0000648804706480047FEE7FEE7FEE7FEE75F
:1093D000FEE7FEE7FEE7FEE7FEE7FEE7C5970100D2
:1093E000019201002DE9F05F0546002092469B4660
:1093F00088460646814640241BE0284641464746AB
:10940000224600F06BF853465A46C01A914110D3D9
:1094100011461846224600F016F82D1A67EB01088F
:109420004F4622460120002100F00DF817EB0009FD
:109430004E41201EA4F10104DFDC484631462A4695
:109440004346BDE8F09F202A04DB203A00FA02F1EF
:10945000002070479140C2F1200320FA03F3194322
:1094600090407047004870479031020040EA010385
:109470009B0703D009E008C9121F08C0042AFAD2CA
:1094800003E011F8013B00F8013B521EF9D270478E
:10949000D2B201E000F8012B491EFBD27047002236
:1094A000F6E710B513460A4604461946FFF7F0FFE3
:1094B000204610BD421C10F8011B0029FBD1801A68
:1094C000704730B504460020034600E05B1C934221
:1094D00003D2E05CCD5C401BF8D030BD202A04DB19
:1094E000203A21FA02F00021704721FA02F3D0401D
:1094F000C2F120029140084319467047064C074DBF
:1095000006E0E06840F0010394E807009847103453
:10951000AC42F6D3FFF778FE04390200243902008A
:1095200070B58C1810F8015B15F0070301D110F825
:10953000013B2A1106D110F8012B03E010F8016B52
:1095400001F8016B5B1EF9D12B0705D40023521ED5
:109550000DD401F8013BFAE710F8013BCB1A921C3D
:1095600003E013F8015B01F8015B521EF9D5A1423B
:10957000D8D3002070BD00002DE9F04700268AB046
:10958000DFF85091B0464FF48075012437460696B7
:10959000284605F077FA38B1D9F80403204203D001
:1095A000284605F065FA26432D1D64007F1CADB2E8
:1095B000082FEDD34FF4BE74204605F063FA48B18E
:1095C000204605F055FA46F0004606AA0121002083
:1095D00005F03AFA404D16F0FF0F15D00127002490
:1095E00037420DD009EB8401D1F81005D1F81015E0
:1095F000C0F3042055F82420C1F3014102B1904783
:109600007F00641C082CEBD3002E5FDA4FF0FF3094
:10961000CDF8108054E0281910F8507F90F9000020
:1096200027F0C008401C3BD007A9404604F0C9FC05
:1096300010B34FEA9719404602F056F955F82070DA
:109640001FB1B9F1030F03D006E0B9F1030F27D121
:1096500004A9404604F0BDFC4FF0A04101EB880096
:10966000D0F8000706A9C0F3014A404604F0A9FC5F
:1096700018B1BAF1020F03D012E0BAF1030F0FD103
:10968000B9F1030F08D1BAF1020F1DD002214046F3
:1096900005F0BEF9761CF6B217B149464046B84708
:1096A000641C042CB7D3002E10D06A460121002080
:1096B00005F0CAF906990098884207D006900498E8
:1096C000002634460790A6E70321E0E70AB0BDE88C
:1096D000F0870000006000400829002000F01F0211
:1096E000012191404009800000F1E020C0F8801283
:1096F000704700F01F02012191404009800000F1F5
:10970000E020C0F80011704700F01F0201219140D5
:109710004009800000F1E020C0F8001270474907BE
:10972000090E002806DA00F00F0000F1E02080F8B2
:10973000141D704700F1E02080F80014704700000D
:1097400070B54FF48076304604F04CFD114CB505F1
:1097500060B1304604F04DFD0120C5F80803607982
:1097600020B9012060712168002088474FF482767B
:10977000304604F037FD00280AD0304604F039FDA9
:109780000220C5F808032168BDE8704001200847A1
:1097900070BD0000D81E002007480021C0F840110D
:1097A000C0F84411C0F84811C0F84C11C0F80011BD
:1097B000C0F8041108F058BD0010014008F0A2BC28
:1097C00005F0B4BEF0B5A848A74B012600781B1DD4
:1097D0001A1D4FF0805106280BD11C78240708D1A0
:1097E0001478C4F30314032C06D0042C04D0052CE5
:1097F00002D0062807D011E0B1F824439B4DC4F3F2
:1098000004242C6002E01C78240707D11478C4F3E8
:109810000314032C02D1974D954C6C67D1F830514D
:10982000D1F84442944FC4F342343C6006280CD132
:109830001C78240709D11478C4F30314032C04D131
:109840008E4C276827F0807727604FF080470024F0
:10985000C7F80C41C7F81041874F3F1F3C600628EE
:1098600007D11F783F0704D11778C7F30317032FD9
:1098700002D0062808D01FE0DFF8FCC103270CF156
:10988000640CCCF8007007E01F783F0714D11778FC
:10989000C7F30317032F0FD1DFF8E4C10527CCF876
:1098A0000070774F78373E60754F08373C600CF199
:1098B000040C3F27CCF80070724F3F68DFF8C8C136
:1098C000CCF800706F4F3F1D3F680CF1040CCCF8D2
:1098D00000706C4F08373F680CF1040CCCF8007036
:1098E000684F0C373F680CF1040CCCF80070654FE2
:1098F00010373F680CF1040CCCF80070614F14373E
:109900003F680CF1040CCCF800705E4F18373F68CC
:10991000DFF874C10CF1200CCCF80070594F1C37E3
:109920003F680CF1040CCCF80070564F20373F68AC
:109930000CF1040CCCF80070524F24373F680CF146
:10994000040CCCF800704F4F28373F680CF1040C22
:10995000CCF800704B4F2C373F680CF1040CCCF85E
:109960000070484F30373F68DFF81CC10CF1400CE5
:10997000CCF80070434F34373F680CF1040CCCF83E
:109980000070404F38373F680CF1040CCCF8007081
:109990003C4F3C373F680CF1040CCCF80070394F59
:1099A00040373F680CF1040CCCF80070DFF8DCC0E5
:1099B000FB27CCF80070062813D11F783F0710D181
:1099C0001778C7F30317032F03D0042F01D0052FF7
:1099D00007D1D1F85872DFF8B8C007F04F07CCF8BC
:1099E00000702C480268D20702D06FF001020260BA
:1099F000062D08D1D1F83401062804D12648016883
:109A000041F4806101604FF01021D1F8000200287C
:109A100003DBD1F80402002822DA204A166020482D
:109A20000368002BFCD01523C1F800320568002D17
:109A3000FCD0C1F8043201680029FCD01460016830
:109A40000029FCD0BFF34F8F0C48F0380168154A4D
:109A500001F4E06111430160BFF34F8F00BFFDE7E8
:109A6000124911480860F0BDE00F00F04035014098
:109A70000DF0ADBA00C007403C050040FCED00E031
:109A8000105600400404001020C5004018F50040A6
:109A9000E40E0040000400403C17004004E5014093
:109AA00000E401400400FA050090D003EC1F002000
:109AB0000149024808F07CBC6429002000200040D5
:109AC00002E008C8121F08C1002AFAD17047704787
:109AD000002001E001C1121F002AFBD170470000E5
:109AE0000121202803DA81400548014003E0402895
:109AF00002DA2038814009B1012070470020704708
:109B0000FC06FFBD082806D228B1012803D004288E
:109B100001D0012070470020704710B560B159B1E5
:109B200002780B785208B2EB530F05D10622401C85
:109B3000491CFFF7C6FC08B1002010BD012010BD74
:109B4000800701D00020704701207047C3688B4216
:109B500006D811440069491E814201D8012070478E
:109B60000020704710B501220221002001F0AAFC5C
:109B700008B1072810D107220221012001F0A2FC20
:109B800008B1072808D100210A22084601F09AFCF2
:109B900008B1072800D1002010BD000000B5ABB00F
:109BA000AC216846FFF77BFC02208DF80000012005
:109BB0008DF8020006218DF803108DF87C0000213D
:109BC0008DF87D004FF44860ADF810100591249099
:109BD000282144F250602291259040F6B83108487F
:109BE000239129906946074800F04EFC08B100F027
:109BF000D3F90121034800F044FC2BB000BD000064
:109C0000CDFA0100E020002010B550B10A48032130
:109C1000008801EB004009A105F01AF907F0AEF940
:109C200003E00321094800F0F9FC002803D0BDE857
:109C3000104000F0B1B910BD3820002045726173AA
:109C40006520626F6E64732100000000E020002038
:109C500070B58CB015460E4600236C46C3F10F015B
:109C6000415CE1545B1C102BF8D30D2104F1100072
:109C7000FFF715FC0020C0F10F02315C2244401CAC
:109C800011740328F7D3684646DF0020C0F10F01A6
:109C9000214491F820102954401C0328F6D30CB01D
:109CA00070BD00F079B9000000B585B0104804908F
:109CB00004A9104804F029FA08B100F06DF90D4824
:109CC0001221C430FFF7EBFB0B48009012200290EA
:109CD00008486946C43003900848019005486C382C
:109CE00000F026FE002801D000F056F905B000BDB6
:109CF000ADF10100D420002069FB0100A39C01000C
:109D00002DE9F0410F4800F0C3FD08B100F044F91F
:109D10000D4D0E4E01242C703088032707EB0040B8
:109D20000BA105F095F8074800F0BFFD08B100F061
:109D300033F96C7030880DA107EB0040BDE8F041AD
:109D400005F086B868200020481B0020382000203D
:109D50004E657720416C6572742053746174653A66
:109D600020456E61626C65642E000000556E726560
:109D7000616420416C6572742053746174653A208B
:109D8000456E61626C65642E00000000022001F0E7
:109D90009DBA000070B5174E174C03257078022845
:109DA00001D001280ED1FF21144800F0E3FE18B1C4
:109DB000082801D000F0F0F8208811A105EB004040
:109DC00005F046F83078022801D0012810D1FF2193
:109DD0000A4800F0F7FD18B1082801D000F0DCF8BF
:109DE000208816A105EB0040BDE8704005F030B8B2
:109DF00070BD0000481B0020382000206820002093
:109E00004E6F746966792074686520556E7265615D
:109E10006420416C6572742063686172616374656B
:109E200072697374696320666F7220616C6C206361
:109E3000617465676F726965732E00004E6F746997
:109E4000667920746865204E657720416C65727470
:109E500020636861726163746572697374696320F9
:109E6000666F7220616C6C2063617465676F7269E4
:109E700065732E000149097900F030BFA81E00204B
:109E800070B50024064D06E06868012110F8340022
:109E900005F026FC641C28788442F5D3002070BDB0
:109EA000E01E0020F8B515460C460646052A01D2EC
:109EB0000720F8BD05F010FD18B905F0D5FC002805
:109EC000F7D1124900224E600C708D60C1E9042266
:109ED000C1E906220E4D0DE006EBC4002968009191
:109EE00081788DF8011000780A4A694605F04AFC2D
:109EF0000028DED1641EE4B2EED2BDE8F84004488A
:109F00000021054A001D00F053B80000E01E0020AB
:109F1000142E020081CA010061BD010072B605F075
:109F20004DF800BF04F084FE0028FBD1104C012145
:109F3000208801EB00400FA104F08AFF1048006860
:109F4000C00700D000BE2088022101EB00400DA117
:109F500004F07EFFBFF34F8F0948E43801680D4AD3
:109F600001F4E06111430160BFF34F8F00BFFDE7D3
:109F700038200020466174616C206572726F720037
:109F8000F0ED00E053797374656D2072657365744C
:109F9000000000000400FA050EB500210091CDE993
:109FA00001106A4644F20100FFF7B8FF0EBD000041
:109FB000074B9B7823B12AB120B10068037C1BB109
:109FC00008207047072070474174426100207047A5
:109FD000A829002070B507F0D3FA104800240B21FF
:109FE000047044700E4D817014206C602C706C7085
:109FF000FFF774FB07211420FFF791FB1420FFF7F4
:10A0000078FB0848046007211120FFF788FB05480A
:10A01000001F0068A860002070BD0000A829002073
:10A02000001F0020081501402DE9FC47DFF878905B
:10A0300099F8023073B368B3052902D20720BDE84E
:10A04000FC87436933B3437C012B25D000270446AA
:10A050000025884616468DF80050684600F038F80E
:10A0600001A808F05BFBC8B1012101700F494460F1
:10A070000968C0E90218C0E904769DF8040089F86F
:10A0800001009DF8000000F047F81420FFF73CFBAA
:10A090002846D4E70820D2E70F46D8E704259DF8E4
:10A0A000000000F039F8F3E7A8290020041501406A
:10A0B0000649897839B130B1416921B10021017473
:10A0C000022108F0ADB8082070470000A829002040
:10A0D00030B5EFF3108172B60D4A9468012324B1B4
:10A0E0000370002900D162B630BD93604FF0E023C9
:10A0F000D3F88051074C25401560C3F88041D3F850
:10A10000844154605A17C3F8842100220270E8E7A2
:10A11000B42A0020FC06FFBD0B498A68002A11D032
:10A1200000280FD1EFF3108072B60B684FF0E022D9
:10A13000C2F800314B68C2F8043100228A6000285E
:10A1400000D162B670470000B42A00202DE9F0412A
:10A15000064608680C46411C4FF0A0474FF0010529
:10A1600006D005FA00F1C7F80815206804F046FC8F
:10A170006068411C02D0002104F037FC3168A069FE
:10A18000C1F82405607D217D32680843C2F86C0562
:10A19000D4E900123068C0F80C15C0F81425207DF1
:10A1A000012815D1A068411C02D0002104F01DFC3B
:10A1B000E068411C05D08540C7F80855E06804F008
:10A1C0001DFCD4E902123068C0F80825C0F810154B
:10A1D000BDE8F08103F0D8BA2DE9F04707460088C2
:10A1E0008EB0804602F08EFF824604462D48002540
:10A1F0002A460178404600F089FD7879400734D539
:10A2000001254FF6FF7603AB2A460721504606F09C
:10A21000CFF8010004D0404607F0D8FB00252BE022
:10A22000B1463146049802F0C1FE064648450FD0BB
:10A2300004460146404602F04FFF4046FFF71AFE33
:10A2400030B9404607F094FB4046FFF713FE48B193
:10A2500022460721504606F021F9010003D040466E
:10A2600007F0B4FB00254E4506D0404606F084FAC0
:10A2700010B1504602F032FF02208DF81800ADF800
:10A280001A807879400701D5012000E002208DF87E
:10A2900020008DF8215006A801F0A4FF0EB0BDE803
:10A2A000F0870000A81E00202DE9FC470025178834
:10A2B0000646158090F82D001446894630B13A467E
:10A2C0002146484600F0D6FD051E09D1B0784FF072
:10A2D0000C0A18B32088C846001DB84202D950465F
:10A2E000BDE8FC87684679DF0028F9D12088032182
:10A2F00008F8001020881921401C80B2208008F83E
:10A3000000102088401C80B2208000EB0801BDF8BE
:10A31000000008F0C7F8218808442080F078022265
:10A32000C8B1218896F9033001F1030C4846BC45B9
:10A33000D5D8425421884FF0010C491C89B22180A4
:10A3400000F801C02188491C89B2218009F8013038
:10A350002088401C20807068B8B1218890F90030B6
:10A3600001F1030C4846BC45B9D8425421880A2261
:10A37000491C89B2218042542188491C89B221801C
:10A3800009F801302088401C2080308950B1CDE987
:10A3900000474B460622022106F1080008F0D6F9D4
:10A3A000051E9DD1308A50B1CDE900474B460722AA
:10A3B000032106F1100008F0C9F9051E90D1308B79
:10A3C00050B1CDE900474B461522142106F1180083
:10A3D00008F0BCF9051E83D1306A30B13B462246F5
:10A3E000494601F064FB051EDBD1706A30B13B4683
:10A3F0002246494603F048FB051ED2D196F82C00B0
:10A4000038B13B4622464946304607F07BFB051EE5
:10A41000C7D1307838B13B4622464946304603F032
:10A42000B9FB051EBDD128465AE718B504460020E1
:10A43000ADF8000013466A46204600F006F80028F2
:10A4400002D0BDF80000204418BD70B588B182B1BB
:10A450000024158803E0065D641C3444A4B2A542C0
:10A4600003D8061976789E4201D08C42F3D38C42F1
:10A4700001D3002070BDA11C1180005D401E80B280
:10A4800070BD80F8301070472DE9F0410D00044692
:10A4900006D02CB195F87A000026012803D006E0FA
:10A4A0000E20BDE8F08195F89800012829D0D5F854
:10A4B000A000042825D0D5F89C00042821D04FF016
:10A4C0000108A6702C2205F17801201DFEF7CEFFB1
:10A4D00084F83060D5F8A4006063D5F8A800A063C4
:10A4E0004FF6FF70A4F8A80004F19400C4F8A4008B
:10A4F000C4F8AA60A4F8AE6084F8B060207810B107
:10A5000004E00720CDE7FF2084F8540004F1550152
:10A510001F27C4F89410A4F8987004F198022846F4
:10A52000FFF7C2FE0028BCD115F13C0F0ED004F19C
:10A530007401C4F89C10A4F8A07004F1A00205F105
:10A540003C00FFF7B1FE0028ABD103E0C4F89C60EB
:10A55000A4F8A06084F85180208BA4F8480084F807
:10A560003C80266484F8506060696064454604F16C
:10A570003C02002104F1540072DF002891D12570C3
:10A580008FE710B50288102A1BD0112A20D0262A66
:10A590001DD1007A0C46012801D0022817D1A078DD
:10A5A0000521401CB0FBF1F201FB1201204600F036
:10A5B00035F800280BD0A16B002908D0BDE8104069
:10A5C0000847C27B012A02D18088A1F8A80010BDEB
:10A5D0000C46002184F8B2108088B4F8A810884294
:10A5E000F5D120790028F2D10121DFE710B50C4622
:10A5F000022801D0032810D1607800280DD0002057
:10A600006070A178204600F009F8002805D0A16B01
:10A61000002902D0BDE81040084710BD2DE9F05FC9
:10A62000044600780F4638B1A770002004F01EF8E9
:10A63000012620B16670F4E00820BDE8F09F0025F7
:10A64000C4F8AA50A4F8AE5084F8B050A07910B164
:10A65000A078012806D0E07968B1A078012801D05F
:10A66000022808D1616B21B184F8B16008208847C5
:10A6700001E084F8B15004F1AB0100200A5C0AB19A
:10A68000304603E0401C0628F8D300204FF00208B3
:10A690004FF0030A4FF0040B012F06D0022F0CD00D
:10A6A000032F0FD0042F15D110E0A17929B194F810
:10A6B000241011B908B130460DE0E17911B108B1AB
:10A6C000404608E0207A08B1504604E0607A08B1BC
:10A6D000584600E02846A070616B41B1032801D0C4
:10A6E000042804D1607910B194F8B200A0B184F8C4
:10A6F000B35004F13C0018210746FEF7D0FE04F1E8
:10A700002C0084F83C60814606F062F958B194F858
:10A710002C0084F8510008E084F8B45084F8B36049
:10A7200007208847E5E784F8516094F8240050B189
:10A73000484606F04DF920B194F8280084F85200FC
:10A7400001E084F8526084F85050A27804F1AA0124
:10A7500004F19409052A4DD2DFE802F065030F1BCE
:10A76000320084F83160C4F8A450C4E9101584F8AC
:10A770003C808020A4F848003EE084F8318087F8CF
:10A7800000A0228ABA81C4F8A4507960E168B96057
:10A7900032E06069B860208BB8813D4684F83C6047
:10A7A000204607F097FF40B185F814800421204629
:10A7B00001F01EFFF0B9052115E084F831A017E083
:10A7C000E069B860208CB8813D4684F83C60204642
:10A7D00007F080FF50B185F814800421204601F075
:10A7E00007FF38B9062184F8311001E084F831B050
:10A7F000C4F8A490A07878B13A4604F15400D4F893
:10A80000A41072DF00287FF418AF94F8301094F889
:10A81000540073DF0028F6D1616B11B194F8310058
:10A820008847002009E784F83150F5E770B5104CEF
:10A83000104D236803EB83025B1C03F007032360C6
:10A8400005EB8202838C53810223D381141D146192
:10A8500000249481012414720C7814714978517188
:10A8600000891080937007F039FD002070BD000052
:10A87000C81E002054280020B0F84410008900228F
:10A8800000F0DEBFB0F854100089002200F0D8BFFD
:10A890000389A3F57F41FF3905D0B0F844100122A8
:10A8A000184600F0CDBF082070470389A3F57F410B
:10A8B000FF3905D0B0F854100122184600F0C0BF8F
:10A8C0000820704770B50E46040015462CD010467F
:10A8D00002F0D8FD50B3268125B305F1080104F13B
:10A8E0001C0001F009F805F1120104F1260001F045
:10A8F00003F805F11C0104F1300000F0FDFF05F143
:10A90000260104F13A0000F0F7FF4420298E01539C
:10A9100005F1360104F14A0000F0EEFFB5F8400001
:10A92000A4F85400002070BD0E2070BD072070BD3B
:10A9300070B50D46040041D0EDB32868D8B35C2152
:10A940002046FEF7ACFD1E480021016041604FF635
:10A95000FF7020812868206068686060A868E060F7
:10A96000E86820610120A07541F61101A18284F8F8
:10A970003C0042F646216187A077891EA18384F8B6
:10A980004C00491CA4F84A1084F82800891CE18472
:10A9900084F83200491C218684F8480042F60211EE
:10A9A000A4F8461084F85800A4F8561004F11400D6
:10A9B000BDE8704000E001E000F0D2B90E2070BDAB
:10A9C0005428002008B504228DF800208DF80110CD
:10A9D0006946FFF72BFF08BD0A4B10B51A680A4CF1
:10A9E00002EB8201521C02F0070204EB81011A60A3
:10A9F000C28D8A80008908800120887007F06EFC73
:10AA0000002010BDC81E00205428002010B50A46A2
:10AA1000014610460A8894B0112A3ED0362A0DD03D
:10AA2000382A06D0392A2CD114B0BDE8104001F0E4
:10AA3000CFBA14B0BDE8104007F050BC04228DF826
:10AA40000020CA890A31D2B10A88C38D9A4205D141
:10AA500090F828208DF80620C28C07E0038F9A42D8
:10AA60000DD190F832208DF80620028EADF804202A
:10AA7000CA88ADF808208988012904D009E007F0C8
:10AA80002DFC14B010BD9DF8091021F003018DF8C4
:10AA90000910016868468847F1E7044600898988FB
:10AAA0008842EED14FF6FF702081462104F1140058
:10AAB000FEF7F5FC02208DF8000021686846884703
:10AAC000DFE7F0B595B00C46074650216846FEF723
:10AAD000E6FC6088ADF8020001208DF800002078C7
:10AAE00070BBA088A0F5C05111393AD1A0790128D6
:10AAF00037D100252BE005EBC50004EB400636F806
:10AB00000E0FA0F52850443805281ED2DFE800F0CB
:10AB100003060F2E1900314604A814E031460DF14A
:10AB20003E0000F0E9FE7089ADF848000DE03146C6
:10AB30000DF12E0000F0E0FE7089ADF8380004E061
:10AB40000FE0314609A800F0D7FE6D1CEDB2207A67
:10AB5000A842D0D802A802F095FC10B100208DF8D0
:10AB6000000039686846884715B0F0BD31460DF1E0
:10AB70001A00E8E708B505228DF800208DF80110CD
:10AB80006946FFF753FE08BD0A4B10B51A680A4C18
:10AB900002EB8201521C02F0070204EB81011A60F1
:10ABA000028F8A80008908800120887007F096FB58
:10ABB000002010BDC81E00205428002070B50400DD
:10ABC00012D001461C221448FEF750FC1248134DC7
:10ABD0000560206850B17ADF002806D1206801683E
:10ABE00029604068686005E00E2070BD0B487BDF7F
:10ABF0000028FAD108484FF6FF711438084A20F8A7
:10AC0000041B0549343901600021FFF7D1F9002800
:10AC1000EBD0032070BD00004C220020581E002005
:10AC20006D26020010B5044600F090F8002805D00B
:10AC30002146BDE81040024803F027B910BD0000CE
:10AC40007822002070B515460E46044607F04EFDEA
:10AC5000002809D0054800EB840080692A46314667
:10AC6000BDE8704001F002BD70BD00006822002008
:10AC700010B5044600F06AF8002805D02146BDE86A
:10AC80001040024803F001B910BD00007C220020F2
:10AC900010B5002400F05AF800B10124204610BD80
:10ACA00070B50546002400F051F838B12946044833
:10ACB00003F0EBF808B1022400E00124204670BD47
:10ACC0007022002010B51821034803F0B9F81828A5
:10ACD00000D0C0B210BD00006822002070B505464B
:10ACE0000C46084607F002FD60B1284600F02EF839
:10ACF00040B10548294600EB8400BDE8704018309B
:10AD000003F0C3B8002070BD6822002070B505466E
:10AD100014460E46084607F0E9FC002812D02846E3
:10AD200000F014F800280DD00748294600EB8600F3
:10AD300018301CB1BDE8704003F0B2B8BDE87040F7
:10AD400003F063B870BD000068220020142801D30E
:10AD5000002070470146014803F097B86C2200209C
:10AD600070B540B10C4D297839B1044606F0E2FBCC
:10AD700028B1002070BD0E2070BD082070BDE868AD
:10AD8000062807D20549226801EB8001401C0A60B1
:10AD9000E860EEE7042070BD601E0020E022002085
:10ADA00040B1054900220123CA600B70C1E90102CC
:10ADB000104670470E207047601E002070B50400DA
:10ADC0002DD000292BD020480078002827D02088BB
:10ADD0000D46112815D0302804D0322807D033284A
:10ADE0001ED109E0211D284605F0A6F818E0211D16
:10ADF000284604F009FF13E0211D284604F0D0FF87
:10AE00000EE0A088B5F8CA12884209D1002085F862
:10AE1000C70285F8C8024FF6FF70A5F8CA0270BDD8
:10AE200095F8C8020028FAD020883028F7D34F2898
:10AE3000F5D8A088B5F8CA128842F0D12846BDE8F6
:10AE4000704001F041B80000601E002048B1084A7F
:10AE5000137843B1D26832B190F8C7222AB11120D9
:10AE600070470E2070470820704701F02DB8000091
:10AE7000601E00207CB5054608880C4609309042CB
:10AE800001D90C207CBD68466DDF0028FAD12188ED
:10AE90000820685420881B21401C80B2208029543F
:10AEA0002088401C80B220802844DDF80110016019
:10AEB000BDF8051081802088801D80B220809DF81B
:10AEC0000010490800D0012129542088401C20800E
:10AED00000207CBD38B50288294D0446212A3DD08A
:10AEE0000EDC28484FF00301102A008801EB0040D7
:10AEF0000ED0112A3BD1BDE8384023A103F0A8BFF2
:10AF00003B2A35D0562A32D18088132176DF1FE0C4
:10AF100021A103F09DFF072000F0F6FA08B1FFF72A
:10AF20003BF81748A1886980001DFFF78FFF08B123
:10AF3000FFF732F869881B4803F0DCF808B1FFF727
:10AF40002BF8194800224FF440410068FFF76CF8D5
:10AF500000280CD0BDE83840FFF71EB80020009054
:10AF6000A08869468FDF002801D0FFF715F838BDAB
:10AF70004FF6FF706880A088132176DFE8E70000B5
:10AF8000481B002038200020446973636F6E6E6593
:10AF9000637465642E000000436F6E6E65637465B4
:10AFA000642E0000D4200020482C020010B51A4C5A
:10AFB0000188606810290ED011292BD1401E6060D5
:10AFC00028D1FEF7CFFD002824D02168002921D008
:10AFD000BDE810400847D0B900210122084600F022
:10AFE00071FA08B107280FD107220221012000F0D1
:10AFF00069FA08B1072807D104220221002000F0D5
:10B0000061FA20B1072802D0216801B18847606841
:10B01000401C606010BD0000501E00202DE9F0476C
:10B0200001883B4E40F2F3194FF6FF7510291BD0F3
:10B0300011293ED0122954D0502946D1C188F28915
:10B04000841D914241D1618902293ED186883046D2
:10B0500002F004F9050038D004F10C0000F0F2F819
:10B06000A8B3294630464EE0C17B878804460129B3
:10B070002BD1A846284602F0F1F8050017D02F8002
:10B0800000202872234843464A460168C5F80A1042
:10B090004068C5F80E0004F1100105F10A0002F045
:10B0A000A9F96872F08900280FD129462AE0042006
:10B0B00013E0808802F0D2F8040006D06068FEF742
:10B0C000F7FF08B106F066FC2580BDE8F087FFE7D2
:10B0D0006868FEF7EDFF0028F7D0BDE8F04706F0FE
:10B0E00059BC87880646384602F0B8F80400ECD010
:10B0F0002B464A4606F1080104F10A0002F07AF9EB
:10B10000607221463846BDE8F04700F017BD0000E8
:10B110004C220020581E00202DE9F04F074685885C
:10B1200002883D48012197B08346102A09D0112A90
:10B1300049D01A2A6CD1387AB1EB101F45D20122BE
:10B1400044E0354C083CA068C0430B9061680BA8F4
:10B1500002F0BFFE0B990CA800F08AFC2C220CA96F
:10B160006846FEF783F90026E946A04610E000BFD6
:10B1700009EB46005FF00004B0F804A008EB84007F
:10B180005146001D02F041FE641C1D2CF6D3761CB6
:10B190000098B042ECD8142D05D317B00420BDE8B8
:10B1A000F04FFEF7F9BE2946584602F079FE2946CF
:10B1B00008F1040002F074FEF87B012828D016483C
:10B1C0002946001D15E029461AE000220221B1EBB4
:10B1D000101F01D2012600E000260F49083901F1B5
:10B1E0001000041D294682B102F05AFE36B12946EC
:10B1F000204617B0BDE8F04F02F052BE2946204667
:10B2000017B0BDE8F04F02F000BE02F0FEFDF5E71A
:10B2100017B0BDE8F08F00007022002010B5044682
:10B220000748007800280AD0204601F045FE204655
:10B2300006F0C0FC2046BDE8104001F023BB10BD65
:10B24000981E0020007800F0010070470149085C5A
:10B2500070470000502C02000649095C4FF0A040E6
:10B26000D0F81005C84010F0010000D0012080F097
:10B2700001007047502C02002DE9FC410646C00732
:10B280004FF000050ED0104F00240122385D0095CC
:10B2900000231146019503F069FB641C042CF4D3D0
:10B2A00000F046F8B0070DD5074E0024361D0022E9
:10B2B000305D032300951146019503F057FB641C94
:10B2C000042CF4D3BDE8FC814C2C020007490B5C34
:10B2D0004FF0A041D1F804250120984020EA020354
:10B2E000C1F808351040C1F80C0570474C2C02001D
:10B2F0000249085C012103F09CBB00004C2C0200B9
:10B300000249085C002103F094BB00004C2C0200B1
:10B310000649095C4FF0A040D0F80405C84010F081
:10B32000010000D0012080F0010070474C2C020089
:10B3300010B500242046FFF7DBFF641C042CF9D372
:10B3400010BD10B500242046FFF7DAFF641C042C62
:10B35000F9D310BD10B50246064B4FF0FF30002167
:10B360005C5C944201D1084610BD491C0429F7D306
:10B3700010BD0000502C020070B50C4E0C004FF0B8
:10B38000000530600BD0012000F06AF808B10220FF
:10B3900004E0002000F064F800B10B202070706819
:10B3A00010B9FEF7DFFB0546284670BD501E002091
:10B3B00010B5002000F0DAF908B1062806D1012006
:10B3C00000F0D4F908B1062800D1002010BD00001B
:10B3D0002DE9F0470D468146FFF7BCFF04460428DF
:10B3E00036D2DFF874801B481C4EA8F10C0725B339
:10B3F000012D0ED0022D2BD104EB440030444578B2
:10B40000002D25D0B968002922D02846BDE8F04794
:10B41000084704EB4401755C0E44717849B10E4A4B
:10B420004FF40041093A8068FEF7FEFD08B987F83D
:10B430000390B17808F80410E2E78068FEF738FE60
:10B4400004EB4401314418F804008D78A842D7D0A9
:10B45000BDE8F087542C02004C1E0020EC21002097
:10B46000042801D2FFF7F8BE0020704713494FF6B9
:10B47000FF720E28098918D005DC04280BD00A2891
:10B480001BD106F083BB0F2813D0102815D1914291
:10B4900013D0FEF77FBC0A481321408876DF0828C6
:10B4A0000BD0002809D0FEF777BD914205D002F0FD
:10B4B000BFBB914201D007F00BB870476820002055
:10B4C000481B002070B50023042810D20D4D00EB5E
:10B4D0004004012A02D101290CD00022094E00EBC0
:10B4E0004000304461B1012906D0022906D007236B
:10B4F000184670BD0E30C2B22A55F9E74270F7E720
:10B500008270F5E7EC210020044A01460020127900
:10B51000D20702D0084600F04DB87047401E002008
:10B5200070B506461E480024C0E90161B00720D569
:10B530000025012211462846FFF7C4FF6D1C044672
:10B54000042D02D2002CF4D013E094B940F26662CC
:10B5500004211448FEF7A6FC04000AD1FEF790FC73
:10B56000040006D10F48104A0021001FFEF720FDFD
:10B570000446F00712D00120FFF77EFE74B9094897
:10B580000A4A00210C38FEF713FD040006D10548D5
:10B59000074A01210838FEF70BFD0446204670BD1E
:10B5A000401E0020602C020039B80100FDD40100CB
:10B5B0008D9D01002DE9F05F6A4C054600266078FC
:10B5C000B34618B184F801B001F080FF664F4FF424
:10B5D0007A694FF4C87A4FF00108182D62D2DFE87B
:10B5E00005F0AC0C0C31404D62676B746B74BE7D22
:10B5F0007D7D7D7DACAFB2B5BEBE0020FFF788FE7D
:10B6000000284FF0000008D0FFF772FE022D02D193
:10B610004FF4E16008E0484606E0FFF771FE022DB6
:10B6200001D1C82000E05046410CC0034FF4FA722B
:10B63000801841F10001257052000023FDF7D2FE71
:10B6400001462AE00020FFF763FE00284FF00000CB
:10B6500004D0FFF74DFE4FF44870E5E7FFF750FECA
:10B66000DFE70020FFF754FE00284FF0000002D073
:10B67000FFF73EFECFE7FFF743FED4E70020FFF7DA
:10B6800047FE00284FF0000002D0FFF731FE01E036
:10B69000FFF736FE257041F69A1100223868FEF752
:10B6A000C3FC064646E00020FFF710FE257008E0C8
:10B6B000002051E025703DE084F801800120FFF773
:10B6C00005FE002240F6CD41E8E784F80180012024
:10B6D000FFF7FCFD00224FF48041DFE77868FEF7BA
:10B6E000E7FC0646D5F1110000D02EB10220FFF78D
:10B6F000FFFD84F802B01DE0012816D980B2C821F0
:10B700004843C117C90341EA5041C0034FF4FA72DC
:10B71000801841F1000152000023FDF763FE01464D
:10B7200000227868FEF780FC06460220FFF7E8FD5D
:10B7300084F802803046BDE8F09F01F0C7FEB9E70B
:10B7400001F0C4FEB4E701F0C1FE04E001F0BEFE6A
:10B750000020FFF7D5FD0120FFF7D2FDAAE7FFF794
:10B76000F0FDA7E7401E0020542C0200012107F045
:10B7700054B800002DE9F8430546861C00208DF8DA
:10B78000000090460F464FF001096846FEF7A0FC06
:10B790001B4C20683860D4E90001401AA16804F20B
:10B7A0001C47081A0EE00121384602F08CFB02F01B
:10B7B00041F80146384602F086FBD4E90001401A00
:10B7C000A168081A401C8642EDD8B8F1000F03D0DA
:10B7D000052065F3891002E0062065F39F50A268FA
:10B7E0002168114004EB8101C8602068304420606A
:10B7F0009DF80000FEF790FC4846BDE8F883000085
:10B800004C2D002030B482680468531C8360A1541E
:10B81000D0E901128A4202D330BC02F054BD30BCE0
:10B8200070470000034803C8814201D101207047DE
:10B83000002070474C2D002000780221FFF7C8BD82
:10B8400070B50E4D0E4E2C6804EB8403641C04F09E
:10B85000070406EB83032C6059810221D9811C1D4A
:10B860001C6100249C8101241C721A71120A5A71F5
:10B870001880997006F032FD002070BDC81E0020AF
:10B880005428002005494FF0FF32082841F82020B5
:10B8900002D3084480F8482070470000082900209F
:10B8A000F0B54FF0FF3512B10023082601E0082360
:10B8B0000C260C4C05E000BF54F823707F1C04D00C
:10B8C0005B1CB342F8D32846F0BD26185DB286F85B
:10B8D000305044F82310002AF5D1E11881F84800CF
:10B8E000F1E70000082900200249084490F93000DF
:10B8F00070470000082900200A6802604A68426018
:10B9000009890181704708B5024690F8C6020B46C6
:10B9100000EB8001C1EB801002EB400092F8C522E1
:10B9200042B1521ED2B202EBC20100EB4102518A77
:10B93000491C00E0C188ADF800100089ADF8020094
:10B94000694618469DDF08BD70B504464FF6FF7581
:10B950000A462846AC4208D14FF48074214610466E
:10B9600005F0D6F9A04209D070BDFF2CFCD82146C5
:10B97000104605F0C0F908B1204670BD284670BDDC
:10B9800070B5084C050009D010342168002907D093
:10B9900008682060496828468847F6E70834F4E7D5
:10B9A00070BD0000F4280020054A012120B10128C3
:10B9B00005D19170FFF7E4BF51700020FAE770479E
:10B9C000F42800202DE9F05F26484168F1B3DFF844
:10B9D00098B00E688146DBF8004087688078E11BEC
:10B9E00021F07F45ED1CB0B9DFF880804FF4803046
:10B9F000C8F84403C8F804031120FDF76FFE1120B6
:10BA0000FDF777FE4FF0010AC8F800A02F2003F0E1
:10BA10005FFE89F802A0B54200D23546124BE81904
:10BA20003C3320F07F401860DBF800105A46091BB9
:10BA300021F07F41001B20F07F40C91C81420FD9BB
:10BA4000106818602F2003F043FE00E004E0BDE81A
:10BA5000F05F1120FDF758BEBDE8F05F05F090BD26
:10BA6000BDE8F09F001F00200415014000100140B8
:10BA700073B58CB00646002000900D9880B100246C
:10BA80006D4621460DA802F000FA30B1009805EB92
:10BA9000400084800098401C0090641C142CF0D35B
:10BAA0002C2269463046FDF7E1FC0EB070BD2DE951
:10BAB000F04117880646B81D14460D46984202D933
:10BAC0000C20BDE8F0813188072206290AD34FF403
:10BAD000486C4FF6FF73614501D9994202D17088D5
:10BAE000062801D21046ECE7604501D99842F9D109
:10BAF000994203D0984201D08142F3D80520E855FD
:10BB000020881221401C80B2208029542088401CAB
:10BB100080B220804119308806F0C4FC2188084496
:10BB200080B220804119708806F0BCFC218808444E
:10BB300020800020C5E7FEF72FBA000038B54A7A0A
:10BB40000F4B62B100220A725969002906D0012206
:10BB50008DF80020ADF802006846884738BD0A7AA3
:10BB600062B19B684C68024619462046FEF75CFAB3
:10BB70000028F3D0BDE8384005F00CBF5B68F1E762
:10BB80004C220020F0B585B016460F4604461D46EF
:10BB900014220B496846FDF769FC0A488DF80870C5
:10BBA000ADF80240ADF80A608DF80C500178002223
:10BBB0002046FFF7ABF8684600F014FB05B0F0BD77
:10BBC000E02D0200A81E002001460148FEF779BFC3
:10BBD0006820002030B5044685B000211B4805F0E0
:10BBE0008AF800282FD00025204600F0D8FF68B141
:10BBF000112812D086281BD0A0F54051023903D05D
:10BC00000146204605F0CEFE294607E005B029464C
:10BC10002046BDE8304001F0EBBD0121204601F097
:10BC2000E7FD05B00021BDE83040084805F097B8B1
:10BC3000142207496846FDF719FCADF80240684632
:10BC400000F0ACFAE0E705B030BD0000711E002046
:10BC5000102D02007FB50C4610B1012004B070BD5C
:10BC60002079002638B141F61D5501281BD0022845
:10BC700026D00F20F2E70220207102960396E0689A
:10BC80000190694601A805F0BBFB50B1029881887C
:10BC9000E18000882081BDF80010029805F02EFC9C
:10BCA000DCE70A20DAE70A4B6A460021A01D05F00E
:10BCB00063FB38B1064918398E61CE610A28CDD1AF
:10BCC0002846CBE702488188019805F017FCF5E784
:10BCD000401F00202DE9F843054690F8C6020F46A4
:10BCE00000EB8001C1EB801005EB400695F8C542E2
:10BCF000914604EBC40006EB40013279601C0A3126
:10BD0000904226D16B460022284601F095FB18B3DD
:10BD100010E0401EA04201D1002004E004EBC4006A
:10BD200006EB40001C30804602466B46284601F078
:10BD300083FB30B100203870694648469EDFBDE87D
:10BD4000F88395F8C5024146401C641C85F8C5027D
:10BD5000E4B23079A042DCD8012038700020EEE750
:10BD60002DE9F0470025DFF890803DE06068002174
:10BD700000EBC506012032789146FDF764FBD4E95B
:10BD8000062300EA020701EA030C57EA0C0729D050
:10BD900082438B434846C4E9062303F05BFD3278B7
:10BDA0008246914601200021FDF74DFBD4E9042392
:10BDB00000EA020401EA03074A4650460021FDF763
:10BDC00042FB44404F403C430CD17078012801D0E5
:10BDD000012000E00020726880EA0A0012B1C1B2BE
:10BDE000484690476D1CEDB298F8000044468542E5
:10BDF000BCD3BDE8F0870000E01E00202DE9F0472D
:10BE0000894690F8C612904601EB8102C2EB81117F
:10BE100000EB4107384605F08DFB06002FD0194C8A
:10BE2000A06806282BD2184D762205EBC0103946A3
:10BE3000A0F80280001DFDF719FB0027B9F1000FE3
:10BE400004D0A06805EBC010077004E0A1680220D0
:10BE500005EBC1110870A06805EBC011401CCE674E
:10BE6000A060E16888420AD1002604E005EBC61014
:10BE7000C16F8847761CE0688642F7D3A760BDE8AB
:10BE8000F0870000601E0020F822002070B50E46EA
:10BE900090F8C612154601EB8102C2EB8111A0B0E9
:10BEA00000EB410005F046FB040009D07C22054967
:10BEB0006846FDF7DBFAADF8025068460196A047E8
:10BEC00020B070BD802C020070B50E4604464FF4C1
:10BED0003371FDF7E4FA11480025A4F8CA628560C1
:10BEE00084F8C9520E4884F8C65284F8C5520068D6
:10BEF00020602246012130469BDF0121112806D017
:10BF0000002809D184F8C71284F8C85203E084F8E5
:10BF1000C71284F8C812002070BD0000601E002007
:10BF2000E022002010B50021024801F0E7FF80F375
:10BF3000100010BD683100200E4910B50A784C7809
:10BF40000023A24212D0521CD2B20A70022A00D19F
:10BF50000B70084A0B780C3252F823200260886874
:10BF6000104420F07F408860012010BD0360002055
:10BF700010BD0000001F002013460A460021FFF7F5
:10BF800001BE00002DE9F843104D0F4680461E46C5
:10BF900091466946286801F00CFF040014D01C216A
:10BFA000FDF77DFA01202071C4F81490380BC4F815
:10BFB0000080C4E902606946286801F01BFF05F0B3
:10BFC0006FF90020BDE8F8830420FBE7AC2E0200E7
:10BFD00010B594B0044603208DF80000C8890A31DA
:10BFE00002282BD30A88B4F84230801E9A4205D129
:10BFF00094F83C208DF80620628F09E0B4F85230A6
:10C000009A421BD194F84C208DF80620B4F84A20AF
:10C01000ADF804208A798DF80820CA798DF80920B6
:10C02000E268824200D210460390206904900831F1
:10C03000039AFDF71BFA21686846884714B010BDC3
:10C0400010B503780022072B06D2DFE803F00504C1
:10C050000610202930000A7010BD01230B700389DF
:10C060008B818388CB81C06888600A7410BD0222EE
:10C070000A7002898A818288CA81C2688A60807D4A
:10C08000062802D00020087410BD0120FBE703221F
:10C090000A70C2888A810289CA81C068886010BD1E
:10C0A00004230B70C0888881CA818A6010BD052076
:10C0B000087010BD70B5064D0646002455F82410D2
:10C0C00009B130468847641C042CF7D370BD0000CA
:10C0D000CC2A002030B50446006887B00D46806841
:10C0E00000281FD018216846FDF7D9F90195A068EE
:10C0F0000590207910B1012810D107E001208DF8BA
:10C10000000020690290E068039005E002208DF8AD
:10C110000000E06800030290606904902068816874
:10C120006846884707B030BD70B586B015460C002C
:10C13000064619D0112C17D0082C15D014216846AA
:10C14000FDF7ADF9ADF80260304600F0DBFFADF869
:10C1500004000D2C0AD0862C1CD007208DF800007E
:10C160000294684600F04CF806B070BD03208DF8CC
:10C17000000025B12878C00701D0012000E002208E
:10C180008DF8080000208DF80C0041F20110ADF888
:10C190000A00E6E706208DF80000E2E710B5044645
:10C1A000408800F0AFFFA080024801682046BDE84B
:10C1B00010400847781E00202DE9F0410746002472
:10C1C000064E074D05E000BF56F824103846884754
:10C1D000641CE8788442F7DBBDE8F0810828002081
:10C1E000981E002010B50446408800F08BFFA08008
:10C1F000024801682046BDE810400847B42D0200FF
:10C200000149096808470000082E020070B586B091
:10C21000044614216846FDF742F9A0890125A0F5DE
:10C220004040ADF8040020782A4E062833D2DFE8DB
:10C2300000F0320303032C48A08900F0BDF930B9A7
:10C24000E08943F6FE71A0F54040884223D8A07BE8
:10C250008DF80800207803280FD000208DF8090001
:10C26000A0680390606850B109208DF800006068F4
:10C270000490684604F05AF90DE00120EEE708202A
:10C280008DF800008DF81050F3E7A08900F094F9C4
:10C2900008B1E08930B17078002801D004F076FA56
:10C2A00006B070BD606820B10B208DF8000075707D
:10C2B000DFE70A208DF80000BDF8040004F0F0FA72
:10C2C000F5E713208DF800004FF6FF70ADF804007D
:10C2D000CFE70000881E002038B504460E480078DD
:10C2E000A8B1A4F57F40FF380FD0684604F00AFFDC
:10C2F00078B10521017001210171C480684604F004
:10C300000FFF04F0BFFF002038BD042038BD02201D
:10C3100038BD082038BD0000481F00200C4808B573
:10C32000007888B1684604F0EDFE78B1062101700E
:10C33000684604F0F5FE0748017809B10121017350
:10C3400004F0A0FF002008BD022008BD082008BDA1
:10C35000481F0020902B0020F0B587B014216846BC
:10C36000FDF79DF82B4C207818B16846FFF7A2FE28
:10C370004EE0201D01F0A4FDB8BB4FF01020416934
:10C38000000400694A1C02D100EB40000101224870
:10C3900000220161A1F54051C160204902F022F95B
:10C3A000002820D11F481C238C221D49006801F061
:10C3B000EDFC03F0ABFE050014D0022D12D00027D7
:10C3C0000126062D12D005A804F09CFE88B1067047
:10C3D0000C2D18D2DFE805F0170F170F17161716D8
:10C3E000171113110B2007B0F0BD11E02670676024
:10C3F000BBE70820F7E7077105E0032100E0022111
:10C40000017100E0067105A804F08AFE04F03AFF0D
:10C410000020E8E7481F0020F01F0020BC2E02008B
:10C42000DC2A0020242E020038B5040014D069460E
:10C4300004F0E6FFA0B1BDF8000000EB8001094860
:10C4400000EB8100C16849B1A17A39B1C168491EC8
:10C45000C1600020A07238BD052038BD062038BD5F
:10C460000A2038BD682B00201FB501A9684604F0DA
:10C4700083FF04B010BD07B513460A466946002085
:10C4800004F07AFF0EBD07B513460A460021684640
:10C4900004F072FF0EBD20B119B1006808600020E1
:10C4A0007047052070470000F8B50D46040018D00D
:10C4B000BDB1694604F0A4FFA8B1BDF800000B4966
:10C4C00000EB800001EB800001210C30666801F078
:10C4D000FAFC2E6060680C3068600120A0720020B9
:10C4E000F8BD0520F8BD0A20F8BD0000682B00202B
:10C4F00018B10323002206F07FBA052070470223FB
:10C50000002206F079BA12B1022306F075BA0520AE
:10C5100070470000084910B50A69042A0AD0074A82
:10C52000096942F8210004480121103001F0CBFCD8
:10C53000002010BD0C2010BD281F0020CC2A002098
:10C5400038B5044609480D46007858B164B16946CB
:10C55000284606F04BFB002803D1BDF800102180CF
:10C56000658038BD022038BD052038BD481F002039
:10C5700010B504460E48007898B1A4B1218802296C
:10C5800013D80C4A01EB810002EB800260885289CB
:10C59000C31C934209D806F01DFB00202080608058
:10C5A00010BD022010BD052010BD042010BD0000EC
:10C5B000481F0020682B002043F6FE71A0F5404084
:10C5C000884201D8012070470020704710B504460A
:10C5D0000078182802D1FEF775FB207010BD10B549
:10C5E00004460078182802D1FEF76CFB207010BDBD
:10C5F00070B50D460446B0F89810D0F894000122AA
:10C60000FDF713FF00B1057004F13C0204F1940141
:10C6100004F1540072DF70BD70B513460022064667
:10C620001546862902D0112902D002E0012200E03D
:10C6300001250D4C73B1A179FEF768FB2A4661799B
:10C640003046FEF763FB0022A1783046FEF75EFB22
:10C65000002203E0A178FEF759FB2A4661783046B4
:10C66000BDE87040FEF752BBB01E0020F7B517467C
:10C670000E0011D00098002560B1002421466846C4
:10C6800001F003FC18B1A0B23946B0476D1C641C20
:10C69000142CF3D32846FEBD0020FEBD406804F0F4
:10C6A00051BD000070B508B1012070BD194C0025C6
:10C6B000207B08B1257301E000F0A0F8207808285D
:10C6C00026D2DFE800F02504080C10251420BDE870
:10C6D000704000F021B8BDE8704000F07DB8BDE8C2
:10C6E000704000F05FB8BDE8704000F03BB8608873
:10C6F000084900EB8000283901EB80004068BDE864
:10C70000704003F0E3BC6560BDE8704003F0ECBC32
:10C710000F2070BD902B00201149F0B48A1C00201E
:10C720000346A1F128050C18A67A4EB1A37200EBBE
:10C73000800405EB8404E66816B9247C012C0AD039
:10C74000401C80B20228EED30B704B804B60F0BCD3
:10C7500041F61D5070471080F0BC00F03DB800005D
:10C76000902B00200C48418801EB8102A0F12801A8
:10C7700001EB8201CA6852B105210170074802210C
:10C780008180016800230122054801F095BE042242
:10C7900002704968F6E70000902B0020501F00202F
:10C7A000F01F002038B50A49084803240B68426886
:10C7B000898803EB810153880470DB1C00201B0473
:10C7C00000909B0B034801F0E7FF38BD902B002041
:10C7D000501F0020F01F0020074910B54888091D90
:10C7E00004F05EFE18B1BDE81040FFF7DBBFBDE806
:10C7F0001040FFF7B7BF0000902B0020F0B51F4896
:10C800001F490125067802248B88A0F12802082EF2
:10C8100019D2DFE806F00418181B222F2F17018900
:10C82000491C01810021418080F80C1001EB81033B
:10C8300012F8233043B100234418491C89B2A37273
:10C840000229F3D30570F0BD0123F5E74268528851
:10C85000D21C1A448A800470F0BD46880D6806EB2D
:10C86000860602EB860256680E60556013818C8046
:10C87000062100E007210170F0BD0000902B002090
:10C88000501F002030B501888488224D85B0502982
:10C8900024D0522902D0542931D103E0204600F09F
:10C8A00073FF2CE014221C496846FCF7DFFDADF84D
:10C8B0000240204600F026FCADF8040000F022F90A
:10C8C000002269792046FEF721FA002229792046C4
:10C8D000FEF71CFA6846FFF761FC10E0017B0129B6
:10C8E0000DD1817A01290AD10089A0F5245102399C
:10C8F00005D10121204600F07BFF05F0ADFE0022AE
:10C900000649E878FEF79EF905B0BDE8304005F02D
:10C9100087B80000701E0020382D0200D5A101004C
:10C9200010B50446007800280FD1608800F02CFF75
:10C93000608800F081F9002807D00449608801224E
:10C940000979BDE81040FEF7E1B910BD701E002066
:10C9500010B5124C00202070FEF7B4F9A070FEF75D
:10C96000B1F9E070FEF7AEF92071FEF7ABF9607136
:10C97000A17818290FD0E17818290CD0217918292D
:10C9800009D0182807D00121601C04F0ADF901205E
:10C990002070002010BD032010BD0000701E00207C
:10C9A0007CB50446007808282FD1607A38BB207AFD
:10C9B0004FF6FF7501280DD0072802D0082824D192
:10C9C0001EE0A08800F0DCFAA8421ED0012100F091
:10C9D0000FFF1AE0A0886A46012103F0BFFC70B97E
:10C9E0000198007858B1A08800F0CAFAA8420CD08B
:10C9F000084901220979FEF789F905F011F804E0E8
:10CA000004480021401C04F0AAF9BDE87C4005F070
:10CA100023BE0000701E002010B504460A4841786D
:10CA20002046FEF75BF968B10848002101EB41029E
:10CA300000EB82025288A24201D1C8B210BD491C4B
:10CA40001429F3D3FF2010BD821E0020F8250020FA
:10CA500070B5094D094E002404EB440005EB80003D
:10CA600071784088FEF73AF920B1641C142CF3D396
:10CA7000FF2070BDE0B270BDF8250020821E0020AE
:10CA80002DE9F0418046024601200021FCF7DBFC45
:10CA90001A4F05460E467868FDF70AFB00280CD1B0
:10CAA000174CD4E9062110462A4001EA06031A432E
:10CAB00005D0A843B143C4E90601BDE8F081404672
:10CAC00002F0C8FE30B1D4E9040128433143C4E97F
:10CAD000040105E0D4E90410A943B043C4E90410FB
:10CAE000D4E9060128433143C4E90601A168786806
:10CAF000BDE8F0410022FDF797BA0000142E0200B5
:10CB0000E01E00201CB5054AD2E90212CDE9001250
:10CB10000022694603F047FC1CBD0000502D0200B6
:10CB200003484FF6FF71818001210170002070479A
:10CB30007C1E00202DE9FC41804600F0E3FA002431
:10CB400003250127A0F57F412646FF3908D06A4614
:10CB5000082103F003FC18B90198841D8688056834
:10CB600032462B4621464046B1DF042804D008282F
:10CB700004D00B2808D002E0112000E00020002F94
:10CB800000D10B20BDE8FC810027A80701D50125B5
:10CB9000E6E73443F5D0002426460325E0E72DE9F7
:10CBA000FC41804600F0AEFA0646A0F57F40FF3813
:10CBB0000ED001252A466D1C0027ADB26B46082118
:10CBC000304603F0F5FB040006D0072C25D025E005
:10CBD00043F20200BDE8FC81019903230A1D0B60AA
:10CBE0004046891DB2DF040004D00C2C09D0052C6E
:10CBF00009D009E032460821104603F04FFC0446F4
:10CC00000CE0012700E000240821304603F032FC4C
:10CC100000B10324002FCDD100E00C242046D9E739
:10CC200004488088A0F57F41FF3901D004F002BF9D
:10CC3000704700007C1E00200EB502A9019100F093
:10CC400061FA6A46012103F089FB08B100200EBD9C
:10CC5000019800780EBD00002DE9F04107464FF61F
:10CC6000FF760A48B3DF10B10320BDE8F081074C1E
:10CC700043F20305A41E324661883846AFDFA8425E
:10CC8000F3D16088401C6080F5E700007E1E002024
:10CC90002DE9F0478188DFF8BC90054602272C4E2D
:10CCA0000324A1F52852A9F53470453A2CD0521E20
:10CCB0004BD180460078012847D10D20FEF724FC97
:10CCC00008B1FDF769F988F80070308822A104EBFB
:10CCD000004002F0BDF8297A308859F8212004EB91
:10CCE000004023A102F0B8F830886A7A04EB0040D3
:10CCF00027A102F0B1F830882A6904EB00402CA18A
:10CD0000BDE8F04702F0A8B88046407801281CD161
:10CD10000E20FEF7F9FB08B1FDF73EF988F8017027
:10CD200030882BA104EB004002F092F8297A308879
:10CD300059F8212004EB00400DA102F08DF8308855
:10CD40006A7A04EB004028A1DAE7BDE8F08700002A
:10CD500038200020181E00204E657720416C657237
:10CD6000742073746174653A204F6E2E00000000C9
:10CD7000202043617465676F72793A20202020205B
:10CD8000202020202020202020202020257300008B
:10CD900020204E756D626572206F66206E6577206B
:10CDA000616C657274733A20202020202564000095
:10CDB00020205465787420537472696E6720496E20
:10CDC000666F726D6174696F6E3A20202573000082
:10CDD000556E7265616420416C6572742073746174
:10CDE00074653A204F6E2E0020204E756D6265727C
:10CDF000206F6620756E7265616420616C65727467
:10CE0000733A202025640000428800EB82020C3235
:10CE10008A4201D9022070478188A1F57F42FF3AFA
:10CE200003D0008808B10020704701207047884275
:10CE300004D20068401C01D00120704700207047D8
:10CE40003EB5027802230C46B3EB520F17D1B0F86F
:10CE50000110ADF80010C1788DF802108188ADF88E
:10CE6000041080798DF8060002AA01A92046FCF77B
:10CE7000EFFE032202A96846FCF723FB08B100205D
:10CE80003EBD01203EBD000010B50C46FFF7C4FDBD
:10CE9000FF280CD0074900EB400001EB80004168FF
:10CEA00021600189A180807AA071002010BD052039
:10CEB00010BD0000F825002070B5018890B0102941
:10CEC00059D1011D28226846FCF7D0FA9DF80400CC
:10CED0004FF6FF76032134466D46B1EB500F2AD052
:10CEE00003F092FB9DF8040040080ED001280CD0FE
:10CEF000022820D118E00C99281D1131FCF70DFEF5
:10CF000018B100BFBDF8284015E00BAA0AA90720F8
:10CF100003F04EFB0028EED10DE00C99281D491CB2
:10CF2000FFF78EFF0028EDD10BAA0AA9072003F016
:10CF30003FFB0028F1D1BDF80000291D00F0D0FE14
:10CF4000B44218D0BDF80000214600F0C5F8BDF885
:10CF50000000ADF82A000020ADF82C40074E8DF8F7
:10CF600028000AAD044600BF56F82410284688471A
:10CF7000641C022CF8D310B070BD0000642D0200B8
:10CF8000094A002101EB410332F82330834205D1E5
:10CF900001EB410002EB800040887047491C1429D6
:10CFA000F0D34FF6FF707047F82500203EB50C46D1
:10CFB000054603F029FB0BE0BDF80000A04207D0B6
:10CFC0002846029900F02EF810B1BDF800003EBDD1
:10CFD00001AA6946072003F0EBFA0028ECD14FF6CE
:10CFE000FF703EBD10B50D4C18200D4A607000203A
:10CFF0004FF6FF7100EB400302EB8303401C5980A6
:10D000001428F7D3FDF75EFE6070182803D00120C6
:10D010002070002010BD032010BD0000821E0020E3
:10D02000F82500202DE9F0410C46054600F11107D6
:10D0300001F111061022491C401CFCF742FA48B9C4
:10D04000681C00F032FA28B1601C00F02EFA08B11A
:10D05000012400E0002431463846FCF75EFD3B78B1
:10D060000222B2EB530F0CD00321B1EB530F08D0C7
:10D070003378B2EB530F04D0B1EB530F01D0012141
:10D0800000E00021084201D18C4302D00120BDE81C
:10D09000F0810020FBE7018811B9421892780AB1AB
:10D0A00001207047491C0829F7D30020704710B5AC
:10D0B0000C460346FFF7EFFF00280AD018882188A6
:10D0C000884205D10822A11C981CFCF7FAF908B186
:10D0D000002010BD012010BD03F036BC70B5044621
:10D0E000FFF74EFF0546204603F03BF94FF6FF7170
:10D0F00004468D4203D014B9284603F025FC20468F
:10D1000070BD000010B5FFF787FCFF2805D004496B
:10D1100000EB400031F8200010BD4FF6FF7010BD4D
:10D12000F82500203EB5044603F06EFA0EE00199A2
:10D1300020464631FFF7BBFF28B9019920462A3126
:10D14000FFF7B5FF10B1BDF808003EBD6A4602A961
:10D15000072003F02DFA0028E9D14FF6FF703EBDFD
:10D1600010B50A4941600A4800F0AAFE58B902F019
:10D17000EFF907491C238C22087404488C39001FDE
:10D18000006800F003FE002010BD0000B02E020079
:10D190002C2C00202DE9F0412D4F002518B17D6089
:10D1A0000120BDE8F0810879012258B1294E0128FB
:10D1B0000CD0274C4FF002080834022821D0032855
:10D1C00042D128E00A7102F08FFF3BE05FF00000DF
:10D1D00000EB800116F82110022908D0401C80B213
:10D1E0000228F5D33A707D6041F61D50D9E700EB77
:10D1F000800006F8205006EB8000406802F066FFD1
:10D2000020E00D71A4F80480002301221248216857
:10D2100001F052F916E00D71206802F057FF0D4938
:10D2200023682831498801EB810206EB8201D1F89D
:10D2300004C0C4F800C04B60A3880B81A4F804802C
:10D2400006F822500028ACD07D600E20A9E700002F
:10D25000481F0020682B0020F01F002001460348D3
:10D2600002888A4200D00020704700003822002047
:10D270002DE9FC5F0E008346DDE90C47C6F1000096
:10D2800098469246814600D40846012503E000BF37
:10D2900090FBFAF06D1C5045FADAA84500D94546D6
:10D2A00024B1002E01DB780700D5641EB80702D533
:10D2B000B8F1000F0AD0F80708D13CB1A54205D259
:10D2C00020215846641EFEF79DFAF6E7002E02DA8A
:10D2D0004E462D2102E0780703D52B215846FEF754
:10D2E00091FA07F0030002280BD1B8F1000F08D122
:10D2F0003CB1A54205D230215846641EFEF782FAA1
:10D30000F6E7CDE90047434652463146584605F018
:10D3100049F9BDE8FC9F000070B50D460446006861
:10D320004FF4887102F099F94FF49071206802F07F
:10D3300094F94FF49271206802F08FF94FF4A271C2
:10D34000206802F08AF920681249C0F804132068A6
:10D350006907000B40B2090E002806DA00F00F0042
:10D3600000F1E02080F8141D03E000F1E02080F8D7
:10D37000001420680121000B40B200F01F02914010
:10D380004009800000F1E020C0F88012C0F80011D0
:10D3900070BD0000100302000246002012689307CF
:10D3A00002D0530702D47047500714D502F003008F
:10D3B000012802D002280CD105E0C2F383100B68CB
:10D3C000801C184404E00223086803EB92521044C6
:10D3D000086001207047086800EB9253C2F389107F
:10D3E000401CEEE70248007A002800D00120704778
:10D3F0002C2C0020F0B58488A518944200D8224631
:10D40000A41AC288D6189A4200D81346D21A4B885A
:10D410000788BB420CD34088834209D88888A04241
:10D4200006D3A84204D8C888904201D3B04201D99B
:10D430000020F0BD0120F0BD10B509892AB1D088C7
:10D44000491C814218D1002010BD90F8C62202EB81
:10D450008204C4EB821200EB420212899142F2D0A4
:10D46000491C198090F8C61201EB8102C2EB8111B0
:10D4700000EB4100008902E01980D088401E5880EE
:10D48000012010BD018A71B1418B61B1818C51B114
:10D49000C18D41B1C18F31B1018E21B1B0F84000D1
:10D4A00008B101207047002070470021425C0AB19A
:10D4B00001207047491C1029F8D3002070478007CD
:10D4C00001D0002070470120704700000A4810B5C5
:10D4D000807860B1002401E0022C06D02046FDF7E0
:10D4E00007FF641C042CF7D310BD0324F6E7BDE846
:10D4F0001040FDF71DBF0000401E002003480179C9
:10D50000C90702D00078FEF755B87047401E0020CA
:10D510001721018041800021017141717047000095
:10D520002DE9FE4F2B4D984691460F00824601D0C3
:10D5300000260DE0684600F0FFFB6A4600215046D9
:10D5400002F07BFE2878009E10B99DF8090098B182
:10D550004A463146504604F08FFC044601460022FC
:10D560005046FFF759F80D2C32D008DC84B3082C54
:10D570002ED00B2C0BD12BE00520BDE8FE8F112CFB
:10D5800010D0862C1AD0A4F54050023820D00325A4
:10D59000B8F1000F04D0324621465046FEF7C4FDD4
:10D5A0002846EAE73A4629795046FDF7AFFB4A4656
:10D5B000E9785046FDF7AAFB0025E9E73A462979C4
:10D5C0005046FDF7A3FB4A46E9785046FDF79EFB1F
:10D5D0002546DDE7B01E00202DE9F041204F0E4624
:10D5E000154604463978FDF779FB002835D02046EA
:10D5F00002F01AFE50B32046FFF784FD8046204615
:10D60000B978FDF76BFB08B1012700E0022720463F
:10D6100003F0B2F80028404602D0FFF75FFD0DE0AE
:10D62000A8F57F41FF3909D0072102F023FF01004F
:10D6300004D0052902D0204604F0C8F92B46324612
:10D6400039462046BDE8F041FEF79CBA2A463146ED
:10D650002046BDE8F041FEF78FBCBDE8F081000038
:10D66000A81E002070B5094D0646E978FDF736FB87
:10D67000044629793046FDF731FB01462246304603
:10D68000BDE870400123FFF74BBF0000B01E002033
:10D690002DE9F047394E002780463D46DFF8E090FF
:10D6A000D6F804A057E003D00446D0F81C8035E03B
:10D6B00099F8002002EB4201521CD2B289F80020F6
:10D6C00009EBC10199F80230091D9A4201D189F88C
:10D6D000005048680A780446012A12D0022A02D073
:10D6E000032A3BD108E004F06BFD00B1012725744B
:10D6F00034E00574C06900E070680028F9D17060FA
:10D700002CE0207C50BB88686060C868A060086915
:10D71000E0604869A061F07800B165606268B16856
:10D72000184B501A20F07F40984202D2A16808445A
:10D7300006E0881AA16820F07F40814202D9081AC9
:10D74000206000E0256065600120A560207420460F
:10D75000E56104F017FDB8F10000A4D199F80010BC
:10D7600099F801008142A3D117B97168514502D0DF
:10D770000120BDE8F0870020FBE70000001F00202B
:10D78000A8290020FFFF7F0030B585B005460024A2
:10D7900014216846FBF783FEA5F57F40ADF80250E3
:10D7A000FF3815D02846FFF7C5F998B10B2815D0DA
:10D7B000112811D0A0F54051023903D00146284666
:10D7C00004F0F0F809482246C1782846FDF79EFA91
:10D7D00005B030BD0E2002E00124F3E70F208DF8E4
:10D7E00000006846FEF7DAFCECE70000701E00203F
:10D7F0000A4602498978FDF789BA0000701E0020A8
:10D80000F8B5054600780C46002620420FD10020CE
:10D810008DF800006846FCF75BFC2878204202D1B6
:10D820002043287001269DF80000FCF775FC304667
:10D83000F8BD00002DE9FF410026234800F03DFB24
:10D840002148001F074600F038FB204C606800901C
:10D85000A56800E000986946284004EB80000C3081
:10D86000FFF79AFD0028F5D101AA009901EA050306
:10D8700004EB8303491CDB6842F82030401C009114
:10D880000228F2D3019800F0030001280BD00228EF
:10D8900010D10198032101EB90500099BDF80A6066
:10D8A00001EB900005E00198BDF80A60C0F3831019
:10D8B00008440090384600F0FDFA08B10098606016
:10D8C00004B03046BDE8F081643100204C2D0020CA
:10D8D00088B04FF40041002001F02CFB08B1FCF7A8
:10D8E0005BFB01F097F9FCF775FB08B1FCF754FB03
:10D8F0004E4A00214E48FCF75BFB08B1FCF74CFB9D
:10D900004C490320FDF70CFE08B1FCF745FB6946C6
:10D910000020FDF731FD08B1FCF73EFB9DF800004B
:10D9200002287CD05FF0000501F022FC08B1FCF772
:10D9300033FB01F0B3FD08B1FCF72EFB0024694670
:10D940000120009401F03EFC08B1FCF725FB68467D
:10D9500001F0B6FC08B1FCF71FFB9DF8080036A1EA
:10D9600020F00F00401C20F0F00010308DF808006F
:10D97000132202A87CDF08B1FCF70EFB4FF4C8703D
:10D9800000940194ADF800004100ADF80440ADF8FA
:10D990000600ADF8021068467ADF08B1FCF7FCFA21
:10D9A00000212A4800F01FFB08B1FCF7F5FAFCF74C
:10D9B000F5F82748FDF7F4F908B1FCF7EDFAFCF7A4
:10D9C00073F91C216846FBF76AFD4FF42030CDE95E
:10D9D00000404FF470200290012003268DF81000C3
:10D9E0008DF80C601B48ADF80E40CDE90540684647
:10D9F000FDF7E4F808B1FCF7CFFA02F0B3FF1648E0
:10DA000016A1008806EB004001F022FA2846FCF738
:10DA1000FBF800BF01F00CF90028FBD100E002E0A8
:10DA200001F0BAFBF6E701257EE7000011190200BC
:10DA3000482C02006DB401004E6F726469635F414F
:10DA40006C6572745F4E6F7469662E00C42000208E
:10DA5000C9BB010037BB010038200020416C657252
:10DA600074204E6F74696669636174696F6E2063B8
:10DA70006C69656E74206578616D706C6520737477
:10DA800061727465642E000070B5144682880E467B
:10DA900005462088111D0144921C994201D8FE2A96
:10DAA00001D90C2070BD521C32542088FF21401C2B
:10DAB00080B2208031542088401C80B2208081199F
:10DAC000288804F0EFFC2188084480B22080AA88CE
:10DAD00042B1A96841B13044FBF7C8FC2088A9884D
:10DAE00008442080002070BD072070BD2DE9F0475C
:10DAF000C7880446181D16468946B0FBF7F1B0FBEF
:10DB0000F7F207FB12009A193A44D21CB2FBF7F263
:10DB1000DDF820A001E02468491E0029FBD13D1A50
:10DB20008846B54216D818E0BAF1000F05D0211882
:10DB300009EB08002A46091D04E0204409EB08010E
:10DB40002A46001DFBF792FC00202468761BA8449F
:10DB5000B74201D9354600E03D46002EE4D1BDE88C
:10DB6000F087000030B5024659B101F00FFA0021EC
:10DB7000074C09E004EB810315685B88AB4202D1D6
:10DB80001160002030BD491C8142F3D3052030BD17
:10DB900004200020F8B50F460178144605460129F7
:10DBA00001D1687830B12088821C9A422DD8012991
:10DBB00002D006E00720F8BD69780144891C99422B
:10DBC00023D8181A801E86B2ADF800602188B81CD0
:10DBD000084469467DDF0028EDD12878022805D168
:10DBE000BDF80010B14201D809210AE0082101283E
:10DBF00005D16878B04202D8ADF8000001E0ADF878
:10DC00000060BDF80000FE2801D90C20F8BD228874
:10DC1000401CB8542088401C80B220803954208891
:10DC2000401C2080BDF80010084420800020F8BD72
:10DC300070B51A4801221A4D01780326022916D020
:10DC400001291ED002701748FCF722FE04462888DE
:10DC5000154906EB004000BF01F0FAF8002C1BD07C
:10DC6000082C19D02046BDE87040FCF795B9027029
:10DC70001120FDF749FC044628880CA106EB004062
:10DC8000EAE7002101700748FCF7F6FD0446288802
:10DC90000CA106EB0040DFE770BD0000481B002030
:10DCA0003820002068200020509D01004E6577201C
:10DCB000416C6572742053746174653A204F6666D6
:10DCC0002E0000004E657720416C657274205374FD
:10DCD0006174653A2044697361626C65642E00006A
:10DCE00070B505460C004FF0FF0020D04FF6FF76D0
:10DCF000B5421CD00E48012241782846FDF706F8AF
:10DD00002846FEF789FEFF2803D1FEF7A1FEFF2873
:10DD10000DD0084B00EB400203EB82014D8023F84D
:10DD2000226022684A60A2880A81A2798A7270BD44
:10DD3000821E0020F8250020034A00219268C0E9D5
:10DD40000021816070470000B01E002070B54FF6C2
:10DD5000FF750E46A84201D1002000E0401C84B2AD
:10DD600008E02146304602F0EEFF08B1204670BDC3
:10DD7000641CA4B2FF2CF4D9284670BD10B5FBF783
:10DD800094FA08B1002010BD112010BD10B531B1BA
:10DD9000B2FBF3F403FB14241CB1092010BD0E20C8
:10DDA00010BD01600021416081608281C38108460D
:10DDB00010BD70B50C460546FBF72CFA002802D0C2
:10DDC00021882868084470BD10B50A8849888A42AD
:10DDD00003D1FBF761FA012010BD002010BD70B522
:10DDE0000C460546FBF73BFA002802D061882868FC
:10DDF000084470BD10B50A8849888A4203D1FBF7F0
:10DE000025FA012010BD002010BD01F01F030122E2
:10DE10009A40D243490900EB8100114600F059B8FD
:10DE20000A4601F01F030121994010B552090C4622
:10DE300000EB820000F05DF8204000D0012010BD12
:10DE40002DE9F04180460D460024481E012101EBDA
:10DE5000501716E058F82400C04390FAA0F0B0FA2A
:10DE600080F020280CD200EB4416AE4208D2314696
:10DE70004046FFF7D5FF0028ECD13046BDE8F081E1
:10DE8000641CA742E6D82846F8E74A0950F8220061
:10DE900001F01F0201219140084000D0012070478D
:10DEA00001F01F0301229A40490900EB810011464D
:10DEB00000F029B8002100F017B8012100F023B8C4
:10DEC000012100F016B808B56A46FBF73AFA009847
:10DED00008BD08B56A46FBF71AFA009808BD08B5F0
:10DEE0006A46FBF72EFA08BD08B56A46FBF70FFA3B
:10DEF00008BD08B56A46FBF7FDF908BD08B56A46D6
:10DF0000FBF7ECF908BD08B56A46FBF7F3F9009892
:10DF100008BD08B56A46FBF721FA009808BD38B578
:10DF2000044600258DF800506846FCF7D1F82168BA
:10DF30006268086890420ED9401E08600178A38A82
:10DF4000E26801FB0325227A2168101AC0B20A791F
:10DF5000824200D208719DF80000FCF7DDF82846E7
:10DF600038BD38B5054600208DF800000C466846DF
:10DF7000FCF7AEF8E868A98A201AB0FBF1F12A682C
:10DF80001068431C136001709DF80000FCF7C4F892
:10DF900038BD10B530B1017A42680368891AC9B238
:10DFA0001A6006E00E2010BD03681A68541C1C603D
:10DFB0001170491EC9B2F7D20068002101710846EC
:10DFC00010BDC20800F007030120895C984008409A
:10DFD000704710B5C20800F00703885C01249C401C
:10DFE0002043885410BD10B560B1C160172120F8DE
:10DFF000021B20F8021B1B2100F8021BFFF788FA06
:10E00000002010BD0E2010BD7CB50C468188002973
:10E0100033D102880025102A06D0112A09D03A2AC5
:10E020000BD0552A2ED129E00146204601F076FE7C
:10E0300028E0A01DFFF76CFA24E02246408934F85E
:10E04000063F834200D818466080172800D2172068
:10E050006080D06878B1607968B1174BD3E900036C
:10E06000CDE90003ADF802106088ADF80400D36874
:10E07000694610469847657125717CBD014620466A
:10E0800001F006FFA07A0028F7D02846E188A5DF36
:10E09000012670B11128F0D001F0D0FA02460748ED
:10E0A00007A1008802B006EB0040BDE8704000F018
:10E0B000D3BEA572E6727CBD6C2D02000820002044
:10E0C00073645F626C655F67617474635F657863D6
:10E0D00068616E67655F6D74755F72657175657394
:10E0E0007428292072657475726E65642025732EFC
:10E0F0000000000020B10278DE2A03D0082070471B
:10E100000E20704741800020704760B159B10278FD
:10E11000DE2A0AD009684160DE2101704FF6FF71E6
:10E120004180002070470E207047082070477FB55F
:10E13000054600294DD0002D4BD008780C46DE282E
:10E1400047D1A8886188884202D1204604F0D4FAD9
:10E150002888012825D002283BD011283AD0512800
:10E1600037D135F8040F6188884232D1A978A81CCC
:10E1700002292ED1017A042903D0062901D00529CC
:10E1800027D10021009102228DF8002001914FF447
:10E19000C07202910391ADF80420007A05280FD0D7
:10E1A00010E0297A2046012913D1A988428891429A
:10E1B0000FD10121017204B0BDE8704004F09CBA97
:10E1C000ADF8041028886946B0DF002801D06168E6
:10E1D00088477FBDA88861888842FAD14FF6FF70D2
:10E1E00060807FBD00F180400068002800D00120E1
:10E1F000704708B500F18040002101600068009080
:10E2000008BD000070B50B4C207808B185250FE0E3
:10E210000020A06060602061E060074801F03AFAE9
:10E22000054601F095F908B901F01EFA01202070A9
:10E23000284670BDF4280020A9B9010038B5002592
:10E240008DF800506846FBF743FF074CE068401E1E
:10E25000E060E06810B901F02DFAA5709DF80000AB
:10E26000FBF75AFF38BD0000F428002070B50646C1
:10E2700004780C4888B0154640F82420094A0869FB
:10E28000121D42F8240020226846FBF7EFF80494A0
:10E290000DB1054A00E000226946301D01F032FB55
:10E2A00008B070BDD01E0020812302000FB408B555
:10E2B0000399002904D004AA00926A4600F00FF8DE
:10E2C00001B05DF814FB10B582680446002A05D041
:10E2D000D4E90403216898470020A06010BD2DE90F
:10E2E000FC4791460C00804676D014F8011B39B1EA
:10E2F00025290ED04046FDF785FA20780028F4D174
:10E3000098F80C00002867D04046BDE8FC47FFF7AE
:10E31000DABF0020012221782B291BD02D2902D021
:10E32000302908D102E040F0010001E040F0020095
:10E33000641C002AEFD100252A290ED02178A1F1F2
:10E3400030020A2A11D205EB850201EB4205641C5A
:10E35000303DF1E740F00400EAE7D9F800100B1D6A
:10E36000C9F800300968641C0D44217800232E2967
:10E370000BD114F8011FA1F130020A2A05D203EBD8
:10E38000830201EB4203303BF3E76C290DD068298F
:10E390000BD0692921D00BDC252918D0582931D080
:10E3A00063290ED0642915D117E014F8011FECE79A
:10E3B000702969D0732932D075291BD0782909D1E9
:10E3C00020E0D9F80000011DC9F80010017840468E
:10E3D000FDF718FA641C90E76CE0D9F800100A1DEC
:10E3E000C9F800200968CDE900500A224046FEF72E
:10E3F0003FFFEFE7D9F800100A1DC9F800200968AF
:10E400000A2206E0D9F800100A1DC9F800200968A0
:10E410001022CDE90050404604F0C4F8DAE7D9F8FC
:10E42000001000270A1DC9F800200E68C00705D19A
:10E4300012E04046761C7F1CFDF7E4F93178002994
:10E44000F7D104E0202140466D1EFDF7DBF9BD4207
:10E45000C0D9002DF6D1BDE74EB13046FBF72AF802
:10E46000074604E0202140466D1EFDF7CBF9BD4272
:10E4700006D9002DF6D103E04046761CFDF7C2F91F
:10E4800031780029F8D1A5E7D9F80000011DC9F8B5
:10E490000010056830214046FDF7B4F97821404668
:10E4A000FDF7B0F908200021CDE900010346102254
:10E4B0002946B0E7BDE8FC872DE9F84F2B4E040054
:10E4C0009A4630884FF001031546894603EB004019
:10E4D00024D0216800292BD0002D32D06268494613
:10E4E0004FF010071268A2F1010C1CEA090F11D1BC
:10E4F00098466A432046FBF729FB00282AD020686B
:10E5000053462A46066901B049462046B446BDE84E
:10E51000F04F6047164B17A2009721E00E210091A3
:10E52000134B1EA21FA100F0A6FC0E20BDE8F88F21
:10E53000082100910E4B26A21AA100F09CFC082095
:10E54000F4E7092100910A4B24A216A100F093FCE4
:10E550000920EBE700973188054B214A08EB014081
:10E5600010A100F088FC1020E0E700002820002027
:10E57000972E0200616464725F69735F7061676502
:10E580005F616C69676E656428705F66732C2070CC
:10E590006167655F6164647229000000705F667383
:10E5A00000000000257320636865636B2066616965
:10E5B0006C656420696E202573282920776974684A
:10E5C0002076616C756520307825782E000000007B
:10E5D000705F66732D3E705F617069006C656E00E0
:10E5E0001832020038B503000F484FF001054FF014
:10E5F0000E04008805EB004009D061B119600C6879
:10E6000001B0A446BDE83040114618466047074BAC
:10E6100007A2009402E0054B07A2009408A100F0B5
:10E620002AFC0E2038BD0000282000204C2E0200BD
:10E63000705F667300000000705F61706900000029
:10E64000257320636865636B206661696C6564206F
:10E65000696E202573282920776974682076616C9B
:10E66000756520307825782E000000002DE9F041F6
:10E6700028B1016819B1C969BDE8F04108470D4DDD
:10E680000D480024461B14270DE000BF04EB840056
:10E6900005EB8000016829B1C969884710B10120E4
:10E6A000BDE8F081641CB6FBF7F0A042EED8002074
:10E6B000F6E70000F01F002004200020044801219C
:10E6C0004174007A08B100207047012070470000B3
:10E6D0002C2C0020012801D0032808D10449002255
:10E6E00001284A7400D00020087402F07BBD7047F6
:10E6F0002C2C002070B50246022801D0032A45D1F7
:10E70000234C207A002841D0012833D0022831D16F
:10E7100020480023022A006802D0032A2AD11BE0E5
:10E72000E360017911B1012924D10DE0D0E905653B
:10E73000711B4FF48056B14200D3314629448161A8
:10E740004569A9420ED015E00169491C0161426981
:10E7500091420FD1237213E0E168491CE16008295E
:10E7600008D9E3602372022A0AD00D21FDF7B2FC1A
:10E7700002F0DEFC607C28B1BDE8704000F0EEBE27
:10E780000021F3E7BDE8704002F02CBD70BD000031
:10E790002C2C00206C1F00202DE9F84F3A4D04006E
:10E7A0008B4628884FF00106DDF828A09846914650
:10E7B0004FF00E0106EB00401AD0B9F1000F1BD04C
:10E7C0002168002920D00921B8F1000F25D0626806
:10E7D0005368B8FBF3F703FB1782002A21D02B4BB9
:10E7E0002BA2009135A100F046FB0920BDE8F88F6F
:10E7F000264B3DA2009102E0244B3DA200912FA1A7
:10E8000000F039FB0E20F1E7082100911F4B3AA2DE
:10E810002AA100F030FB0820E8E71C4B39A2009148
:10E82000E0E75846FBF78CF9102798B14846FBF70C
:10E8300087F9B0B1424659462046FBF787F9B8B18F
:10E84000CDF800A0206843464A46C5685946204690
:10E85000A847CBE7009728880C4B06EB00402AA27C
:10E860000CE000972888094B06EB00402CA205E03D
:10E8700000972888054B06EB004032A20FA100F05C
:10E88000FAFA1020B2E7000028200020842E0200AF
:10E8900021286C656E202520705F66732D3E705FA9
:10E8A000666C6173685F696E666F2D3E70726F672C
:10E8B00072616D5F756E69742900000025732063B5
:10E8C0006865636B206661696C656420696E2025EC
:10E8D00073282920776974682076616C756520300B
:10E8E0007825782E00000000705F6673000000003D
:10E8F000705F737263000000705F66732D3E705F1F
:10E90000617069006C656E00616464725F69735F59
:10E91000616C69676E6564333228646573742900BD
:10E92000616464725F69735F616C69676E656433AB
:10E9300032282875696E7433325F7429705F737280
:10E9400063290000616464725F69735F776974684A
:10E95000696E5F626F756E647328705F66732C20DA
:10E96000646573742C206C656E29000070B541EAF3
:10E970004201DDE904564FF0A04441EA830141EA37
:10E98000052104EB800041EA0641C0F8001770BD84
:10E9900070B541EA4201DDE904564FF0A04441EA76
:10E9A000830141EA052104EB800041EA0641C0F8F9
:10E9B000001770BD70B541EA4201DDE904564FF021
:10E9C000A04441EA830141EA052104EB800041EAC9
:10E9D0000641C0F8001770BD1CB5002100910B4620
:10E9E00001220191FFF7E6FF1CBD1CB500220B467A
:10E9F000009211460192FFF7DDFF1CBD1CB50021FE
:10EA000000910B46012201911146FFF7D3FF1CBD77
:10EA10004FF0A04202EB8000D0F8002722F44032F1
:10EA2000C0F80027D0F8002742EA0141C0F80017DB
:10EA3000704701224FF0A043824011B1C3F808256E
:10EA40007047C3F80C25704718B5084B6C46014455
:10EA50001B68009306E000BF54F82030D3F810354F
:10EA6000401C08C28142F7D818BD00000C2E0200DD
:10EA7000034908B50844002101600068009008BD02
:10EA80000060004002494058012800D00020704733
:10EA90000060004030B5124B01460020D3F810440E
:10EAA000224609E0157A854205D1401C0A28F7DB89
:10EAB0004FF0FF3030BD5268002AF3D1421CF9D02C
:10EAC0000872D3F810242AB152684A60D3F810248F
:10EAD000516030BD0022C3F810144A6030BD000000
