:1000000000000420E1020000090300000B030000CF
:100010000D0300000F0300001103000000000000AA
:1000200000000000000000000000000013030000BA
:100030001503000000000000170300001903000072
:100040007570000029DC02001B03000011BC0200D7
:100050001B0300001B030000316900001B030000AC
:100060001B0300001B0300001B0300001B03000018
:100070001B030000A9B902001B0300001B030000C2
:100080001B030000F90B00001B0300001B03000012
:10009000990C00001B0300001B0300001B03000061
:1000A0001B0300001B0300001B0300001B030000D8
:1000B0001B0300001B030000000000000000000004
:1000C0001B0300001B0300001B0300001B030000B8
:1000D000A9B002001B0300001B0300002958000008
:1000E0001B0300001B030000C5E00300000000002C
:1000F000000000001B030000000000001B030000C4
:1001000000000000000000000000000000000000EF
:1001100000000000000000000000000000000000DF
:1001200000000000000000000000000000000000CF
:1001300000000000000000000000000000000000BF
:1001400000000000000000000000000000000000AF
:10015000000000000000000000000000000000009F
:10016000000000000000000000000000000000008F
:10017000000000000000000000000000000000007F
:10018000000000000000000000000000000000006F
:10019000000000000000000000000000000000005F
:1001A000000000000000000000000000000000004F
:1001B000000000000000000000000000000000003F
:1001C000000000000000000000000000000000002F
:1001D000000000000000000000000000000000001F
:1001E000000000000000000000000000000000000F
:1001F00000000000000000000000000000000000FF
:1002000010B5054C237833B9044B13B10448AFF350
:1002100000800123237010BD780200200000000040
:10022000B88704000C4B43B10C480D4910B5AFF32F
:1002300000800C48036823B910BD0A48036833B92D
:100240007047094B002BF7D0BDE810401847064B0C
:10025000002BF5D0184700BF00000000B88704004D
:100260007C0200204C02002000000000154B002BF7
:1002700008BF134B9D46A3F5803A00218B460F46DD
:100280001348144A121A3EF099FE0F4B002B00D06F
:1002900098470E4B002B00D0984700200021040007
:1002A0000D000D48002802D00C48AFF300803EF04E
:1002B0000FFE2000290007F003FC3EF0E3FD00BF25
:1002C0000000080000000420000000000000000002
:1002D00078020020B8E900200000000000000000C3
:1002E0000649074A074B9B1A03DD043BC858D05008
:1002F000FBDC07F069FDFFF7B9FF00002C88040064
:100300000000002078020020FEE7FEE7FEE7FEE79F
:10031000FEE7FEE7FEE7FEE7FEE7FEE7074B1B5CB6
:100320001F2B8ABF064A4FF0A04203F01F03D2F8EA
:100330000405D840C04300F0010070475C09040088
:1003400000030050074B1B5C1F2B86BF03F01F03ED
:1003500005494FF0A041012202FA03F3C1F80C3520
:10036000704700BF5C09040000030050074B1B5C92
:100370001F2B86BF03F01F0305494FF0A041012248
:1003800002FA03F3C1F80835704700BF5C090400A6
:10039000000300504FF0A04310B44FF480404FF4DE
:1003A00000544FF400414FF48032C3F80845C3F8BD
:1003B0000805C3F80815C3F808255DF8044B704715
:1003C0004FF0A04310B44FF480404FF400544FF46A
:1003D00000414FF48032C3F80C45C3F80C05C3F854
:1003E0000C15C3F80C255DF8044B70470A4B195CDB
:1003F0001F298ABF09484FF0A04001F01F01D0F823
:10040000043501228A4022EA03011340C0F808158E
:10041000C0F80C35704700BF5C09040000030050B1
:100420000B2809D00C2809D0182809D019280CBF8E
:1004300003204FF0FF3070470020704701207047C5
:1004400002207047C20770B40ED483070AD54FF05C
:10045000A0430C22C3F82C27C3F83027C3F8602729
:10046000C3F8642770BC70474FF0A04303224FF4D9
:1004700000564FF480454FF400444FF48031C3F8E8
:100480003427C3F83827C3F83C27C3F84027C3F8FC
:100490000865C3F80855C3F80845C3F80815D4E73C
:1004A000F0B5334D85B005F5836003F0E3FC05F24C
:1004B000144003F0DFFC6A68AF6802EA0701CB1C56
:1004C00005EB8303541C187810F0030F00F00306AB
:1004D0000ED010F0040016D0012E37D0022E02F1FB
:1004E0000200ECD15A8800EB921202EA0701E6E71B
:1004F0004007F1D459881A8804EB911404EB921246
:1005000002EA0701DBE705EB8101531CC968019191
:100510003B4005EB830301F00301DB6802930129F3
:1005200002F102041CD0022918D1BDF80630BDF832
:100530000A60C3F38913033304EB93040D4803F0FB
:10054000A7FC00B16C60304605B0F0BD1B880232DC
:10055000C3F383131A4402EA0701B0E70646EDE746
:10056000BDF80430BDF80A60C3F383131C44E5E70B
:1005700064030020780700202DE9F0478E4C94E8B2
:100580000C009A4284B061D00023C4F81834BFF341
:100590004F8F6368A56827680EE011F0040623D02A
:1005A00001F0030101294BD0022903D15288023303
:1005B00003EB92139F4212D903EA0500C21C04EB1D
:1005C000820211788E07E8D14807E9D45188128851
:1005D000013303EB911303EB92139F42ECD80020FD
:1005E000676004B0BDE8F08704EB80005A1CC16866
:1005F00001912A4004EB820201F00301D2680292C9
:10060000022903F1020825D0012972D0D4F8105430
:1006100035B12B6828469B6898476D68002DF8D146
:10062000664B67491888000440F0020000F0CEF8DD
:1006300060682368C01A18BF012004B0BDE8F087C5
:1006400012880233C2F383121344B3E7002004B0CC
:10065000BDE8F087BDF806305A48C3F38919B9F1EF
:10066000500FCA46A8BF4FF0500A6AF38F130AF121
:100670000801ADF8063003F055FC07460028C5D048
:1006800003F098FC334625EA08060136082201A942
:100690003846B60003F0B4FCB2457FD9002E68D1CD
:1006A000524608234849384603F0AAFC09F10306DC
:1006B00008EB9606D4F81834002B56D1D4F8105411
:1006C0004DB16B7A3946284613B12B681B689847A1
:1006D0006D68002DF5D1384603F070FC002003F062
:1006E000DBFAD4F8183403B96660002003F0DCFAB2
:1006F0009EE7BDF804303348C3F38312062A28BFAF
:100700000622911C62F389138900ADF8043003F0CE
:1007100009FC074600283FF479AF03F04BFC334651
:10072000082201A9384603F06BFCBDF8043013F42D
:10073000707F3ED0B2464FF0080905EA0801033148
:100740004B4604EB81010422384603F059FCBDF806
:1007500004300AF1010AC3F3831308F1010653457B
:1007600009F10409B046E8D8A4E7384603F026FCAE
:100770005EE705EA08010331AAEB060504EB8101F7
:1007800032463846EDB2082303F03AFC2A4606F119
:1007900008030D49384603F033FC87E705EA0801F2
:1007A000033104EB810152460823384603F028FC4C
:1007B0007CE746467EE700BF640300205C02002021
:1007C000600904000C880400700300202DE9F84340
:1007D000DFF8D890074600208846D9F8085003F083
:1007E0005BFAD9F80820D9F80430D9F8006013442E
:1007F00001339B1B012B55D809F21C4401212046D3
:1008000003F00CFBFFF74CFE0146204603F006FB0D
:1008100099E80A00D9F80820134401335B1A012B28
:10082000ECD901240A40033244F004036FF3891326
:1008300049F8223002310020C9F8001003F034FAE0
:100840000021194803F0D0FA80F3100033192B402F
:1008500009EB830300043540033540EA1740D860B4
:1008600019F8253067F3C50309F8253039F8253024
:100870006FF3891329F8253059F8252068F39F2252
:10088000134664F301036FF3820349F8252009F846
:10089000253099F820341BB1FFF76EFE0028FBD1FC
:1008A000BDE8F8833146BCE78007002064030020E0
:1008B00038B5084BD3F81044012583F820543CB1D7
:1008C0002368657220465B6898476468002CF7D1FE
:1008D00038BD00BF64030020434B1978002900F0A5
:1008E00081802DE9F04F8C4687B00024012503E07C
:1008F0000134E4B2644560D23C4B27B21E6816F85E
:1009000037E0AEF1200305FA03F9394BCEF12001AF
:10091000D3E9002325FA01F149EA010905FA0EF8A5
:1009200008EA020009EA0301014306EBC70BDFD026
:100930002F4922EA080223EA09037046C1E900238D
:1009400005F0E6FF16F837E0AEF1200205FA02F2F4
:1009500001920199CEF12003C6B225FA03F3AEF15C
:100960002002194306FA02F30393224B0191D3E9C3
:100970000023CDE9042305FA0EF30093CEF1200104
:10098000039B26FA01F10B43039306FA0EF302933D
:10099000DDE90467DDE9002316401F4032463B468F
:1009A000DDE90267BB4208BFB24209D00E4B0134F9
:1009B00093F800C0E4B264459ED307B0BDE8F08F61
:1009C000DBF80430002BF1D09BF80110A1F10101FC
:1009D000B1FA81F14909091AB1FA81F14909704660
:1009E0009847E3E7704700BF88070020C007002052
:1009F000B8070020B00700202DE9F843064620483C
:100A000000F0F0FBD0B91F4F0123A6F1200103FA3B
:100A100001F5C6F12002D7E9000123FA02F21543DD
:100A200003FA06F404EA000205EA0103134307D0BF
:100A300020EA040421EA0505C7E90045BDE8F8837A
:100A4000304605F065FF104ED6E9008998B148EAB6
:100A5000040849EA0509D7E9002314431D43C6E900
:100A60000089C7E90045094B054819680022BDE81F
:100A7000F84300F067BB28EA040829EA0509EAE719
:100A800090070020B8070020B00700208C07002046
:100A9000042A01D8072070472DE9F04182B00F46A3
:100AA0000546164605F0CCFD002834D01C4C1D4AE6
:100AB0001D4B1E481E49256017707C1E00221E60BB
:100AC0000023C0E90023C1E90023E4B2EFB1DFF85D
:100AD0006C800027032601E0FF2C16D023B205EB23
:100AE000C30215F8330093788DF80670424601A9C9
:100AF0008DF804608DF8053005F0ACFD013CE4B2E2
:100B00000028E9D002B0BDE8F0810A4A0A48002175
:100B100000F006FBF6E705F041FD0028C6D0F1E73E
:100B2000C0070020880700208C070020B0070020A5
:100B3000B8070020D90800008C090400F90900005A
:100B400070B5084D2B785BB1074E00243368012146
:100B500013F8340005F060FE2B780134A342F5D879
:100B6000002070BD88070020C007002000B585B0B8
:100B700000230390194601AA44F201000193029355
:100B800000F004F805B05DF804FB00BF10B572B6C4
:100B9000FFF78EFEFFF7F0FC0028FBD1104C114947
:100BA0002088000440F00100FFF710FE0E4B1B6888
:100BB000DB0700D500BE20880C49000440F002008D
:100BC000FFF704FEBFF34F8F09490A4BCA6802F4CE
:100BD000E0621343CB60BFF34F8F00BFFDE700BF60
:100BE0005C02002090090400F0ED00E09C09040084
:100BF00000ED00E00400FA05F8B5204A204B00257E
:100C0000C2F84051C2F84451C2F84851C2F84C51A0
:100C1000C2F80051C2F804511B6813B31949D2F845
:100C200004450A68A41A1A6824F07F44A2422F4699
:100C300009D8197CDE69A41A154499B91EB1334646
:100C40001A68A242F5D91049104A0B7812789A42D4
:100C50000DD00F490F4A41F823504FF48013C2F8CA
:100C60000031F8BD1F745A6998699047E6E7531C34
:100C7000DBB2022B08BF00230B70EAE70010014033
:100C8000E4080020E0080020DD080020DC08002047
:100C9000D408002000E100E02DE9F04FB74AB84940
:100CA00013780978994285B033D00133DBB2022B37
:100CB00008BF0023B3481370B34A0768DFF8E08227
:100CC00052F82320D8F80010BB18002423F07F43EB
:100CD000036025462046A646A9B10B68934200F260
:100CE0007D81CC68C1F800E0D21A1844CB6934B1D8
:100CF0003E1826F07F46CD618C604E600D46194649
:100D000001240029E9D1002C40F0A5814FF0010B0E
:100D100005E0DFF88C820025D8F80010AB469B4B2D
:100D20009B4FDFF8809243F0010300930E464FF093
:100D3000000A002D2DD0D5F804E0D5F808C02C46C7
:100D4000ED69904B93481B68AEEB030222F07F42A3
:100D5000824255D802EB0C0323600022012062601E
:100D6000A260E2612074002E6BD03068834261D9AA
:100D7000B64603E0106898424CD29646DEF81C2036
:100D80001B1A002AF6D12360E261CEF81C40002D28
:100D9000D1D197F801C097F800E0F44571D07346BF
:100DA00003EB43030EF10100BA7807EBC3035FFACC
:100DB00080FE7245187987F800E004BF4FF0000EFE
:100DC00087F800E002289A684CD003283DD001281B
:100DD000E3D1107C0028E0D1D3F80CE0C2F804E0A5
:100DE000D3F810C0C2F808C014465A69E26099F8F6
:100DF00000209B69A361002AA3D060608646A0E71B
:100E0000A3EB0E0323F07F4363450AD2ACEB03034D
:100E10002360A2E7C01A10602360E261CEF81C4094
:100E2000B5E70023012223606360A360E3612274BD
:100E30003EB13068C8F80040C31A3360E661264608
:100E400077E7C8F80040264673E7002EA5D00022B9
:100E500000E01E46F3693274002BFAD1C8F8003066
:100E60001E4696E74EB1B242344603D1BDE09A42E7
:100E700060D01C46E369002BF9D100231374F445BC
:100E80008DD1BAF1000F02D18E4200F09D80002E6C
:100E900000F0C5803B4B404A1C68D2F80475DFF86F
:100EA0000881D6F800A098F800103B1B23F07F4380
:100EB000DD1CA9B93949354B4FF48030C2F84403E1
:100EC0000126C2F804034FF40030C1F8800143F05A
:100ED0000103086016604FF43C60984788F8006092
:100EE000AA452CBF04EB0A0363192B4923F07F4367
:100EF000C1F84035D1F80425D21BDB1B22F07F421C
:100F000023F07F4303329A420ED9204BD1F80425B7
:100F1000C1F8402543F001034FF43C6098471F4B54
:100F20004FF40032C3F80021002389F8003005B0E7
:100F3000BDE8F08FA24239D0D2F81CE01368C4F8A3
:100F40001CE0BEF1000F11D03046DEF80040234413
:100F5000CEF80030864209D0002397F800E097F8D9
:100F600001C0137406464FF0010A88E7002397F882
:100F700000E097F801C0137481E700BFDC0800208F
:100F8000DD080020E0080020D4080020B00904009B
:100F9000C4070020FEFF7F000010014000E100E0D8
:100FA000E4080020D0080020D10800201346F06992
:100FB000C8F80000D8B1D3F81CE01B68C4F81CE0E6
:100FC000BEF1000FC1D1C5E7BBF1000F7FF45FAFE9
:100FD000002389F8003005B0BDE8F08F002C3DD12A
:100FE0009B1A0B604FF0010B99E63346DFE7019344
:100FF0001C4BDFF87CC003924FF0010E0291C3F846
:1010000008E0009BCCF8000089F800E04FF43C6059
:101010009847D8F80000019B0299039ACBE7114D3D
:10102000114A124C4FF480334FF400310127C2F8BB
:1010300080103C43C5F848334FF43C60C5F8083392
:101040006F60A0470A4BAF604FF43C601E60A04742
:10105000084B1E7068E7C8F8001057E6C8F8001083
:10106000BEE700BF0010014000E100E0B00904004D
:10107000E0080020D10800202DE9F8431F4D204E44
:10108000204FDFF898804FF480334FF400324FF058
:1010900001090024C6F8802047EA0907C5F848334B
:1010A0004FF43C60C5F80833C5F80490B847C5F85C
:1010B00008904FF43C60C8F80040B847124B134802
:1010C0001349144A1C70144B04600C7014704FF4D4
:1010D0008011E0220B2098701C705C70C6F88011A3
:1010E00086F814233160C5F8084586F81123D5F831
:1010F0000435C8F800302046BDE8F88300100140F0
:1011000000E100E0B0090400D1080020E40800205C
:10111000DC080020DD080020C4070020E0080020D3
:10112000074B9B780BB9082070473AB130B1036880
:10113000187C0028F7D159745A617047072070470E
:10114000C40700202DE9F041234CA37813B90820EF
:10115000BDE8F0810028FAD0042902D80720BDE8B4
:10116000F0814369002BF2D0437C0546012B4FF000
:1011700000000CBF8846804617460E4602F08CFDE4
:101180006378A07821785A1CD2B2904208BF00221E
:1011900091421AD003EB430304EBC30301200F4930
:1011A0009D601871D1F80415D9601E61C3F81480D0
:1011B0009F610020627002F077FD094B4FF48012AE
:1011C000C3F800210020BDE8F081002002F06CFD92
:1011D0000420BDE8F08100BFC407002000100140DA
:1011E00000E100E070B5184DAB780BB9082070BD78
:1011F0000028FBD04369002BF8D000240474064675
:10120000204602F049FD6A78A8782978531CDBB2A1
:10121000984208BF2346994211D002EB420205EBE7
:10122000C20202212046966011716B7002F03CFDF3
:10123000064B4FF48012C3F80021204670BD2046B3
:1012400002F032FD042070BDC407002000E100E080
:1012500030B50446007883B0B8B91F4D02F01CFDCC
:101260002B6813B91D4B62881A8001211A4802F0BD
:10127000D5FD002002F018FD194B1B6813B1204664
:10128000012198472B6803B030BD01A9154802F031
:101290002DFD05460028F6D023680360002002F0EB
:1012A000FBFC0E4B0C481B88026801339B1AEB8039
:1012B000002102F099FDA880002002F0F5FC01A9B0
:1012C000084802F041FD064B1B68002BDBD00146AD
:1012D0002046984703B030BDA00A002088090020AE
:1012E000EC0800200800002030B583B001A91248A6
:1012F00002F0FCFCF0B1114D04462868206000208B
:1013000002F0CAFC0E4B0F481B88026801339B1A7F
:10131000E380002102F068FDA080002002F0C4FC00
:1013200001A9054802F010FD074B1B6813B10146E7
:101330002846984703B030BD08000020D0090400BB
:1013400088090020A00A0020EC08002030B5012800
:1013500083B028D030D3022823D101A91B4802F042
:10136000C5FC0446E8B11A4D28682060002002F050
:1013700093FC184B18481B88026801339B1AE380C2
:10138000002102F031FDA080002002F08DFC01A9B7
:101390000E4802F0D9FC114B1B6813B101462846D8
:1013A000984703B030BD01A9084802F09FFC0446ED
:1013B0000028F6D00A4DD7E701A9044802F096FCB0
:1013C00004460028EDD0074DCEE700BF08000020FE
:1013D000CC09040088090020A00A0020EC080020A5
:1013E000C8090400C40904002DE9F04F87B006AE17
:1013F00000250446894692469B4646F8105DA8465D
:1014000001E008F1010862680123556821460022C5
:101410003046A8470028F4D18DF806000490B8F1B2
:10142000000F28D00546064662680123576821460A
:101430000DF1060204A8B8476268012357682146E7
:101440000DF1070204A8B8479DF807304B454FF04F
:101450000002214604A803D1AA4510D00135EDB2FF
:101460009DF806306768023B7F68B8479DF80630F4
:101470001E44B045D8D8052007B0BDE8F08F109ABB
:101480009DF8063013608BF800308BF8019061688E
:10149000023B4D680BF102022146A847002007B02D
:1014A000BDE8F08F2DE9F041082382B005464FF4E6
:1014B00084723A493A4802F001FC20B103242046E4
:1014C00002B0BDE8F081374803F044FD044600282F
:1014D000F5D1354A354B364E1470214648223548F1
:1014E00034601C603DF06AFD2146482232483DF0E0
:1014F00065FD002D4CD095E80700304B83E80700D0
:10150000002002F073FE00283DD12D4C2A4F94F8A4
:1015100008C06568DFF89CE0032303FB0C4C0CF16A
:10152000090C04F10906664520D0FEB17378DBB1E1
:10153000B278B21818D003F1FF38114652FA88F881
:10154000013A01E001310FD012F8013F13F0800F92
:1015500003F00F0314BF0EEBC30307EBC303904567
:101560001C6028685860EDD10336DCE702A90B2324
:1015700001F8043D12482B689847044600289ED085
:1015800003F080FD9BE78528BFD0FFF7EFFABCE7AB
:101590000A4B1D605D601D72B2E700BF8C09002020
:1015A0000800002051120000A40A0020980A002020
:1015B000940A0020F808002040090020EC080020D0
:1015C000240A040010B503F08BFE08B9082010BDF2
:1015D00003F08EFE04460028F8D1044802F01CFEF9
:1015E00000B910BDFFF7C2FA204610BDC0090400C3
:1015F00003F058BD04F02EBC4FF0804303E0D3F855
:101600003824D1072BD5D3F838249207F7D530B535
:1016100083B001A9124802F069FB0446E8B1114DFC
:1016200028682060002002F037FB0F4B0F481B8812
:10163000026801339B1AE380002102F0D5FBA080F1
:10164000002002F031FB01A9054802F07DFB084BA8
:101650001B6813B101462846984703B030BD704758
:1016600008000020D409040088090020A00A0020F6
:10167000EC08002010B582B0822301A912488DF831
:10168000003002F033FBE8B10446009820600020EF
:1016900002F002FB0D4B0E481B88026801339B1AB7
:1016A000E380002102F0A0FBA080002002F0FCFA01
:1016B00001A9054802F048FB064B1B6813B101461F
:1016C0006846984702B010BD080000208809002035
:1016D000A00A0020EC0800202DE9F04F037881B02B
:1016E0008346842B00F2A180DFE813F08E02DE0136
:1016F000A20030025D02C700CF009F00EA00FD009B
:1017000010019F009F009F009F0032019F009F00DB
:101710009F009F009F009F009F009F009F009F00D1
:101720009F009F009F009F009F009F009F009F00C1
:101730009F009F009F009F009F009F009F009F00B1
:101740009F009F009F009F009F009F009F009F00A1
:101750009F009F009F009F009F009F009F009F0091
:101760009F009F009F009F009F009F009F009F0081
:101770009F009F009F009F009F009F009F009F0071
:101780009F009F009F009F009F009F009F009F0061
:101790009F009F009F009F009F009F009F009F0051
:1017A0009F009F009F009F009F009F009F009F0041
:1017B0009F009F009F009F009F009F009F009F0031
:1017C0009F009F009F009F009F009F009F009F0021
:1017D0009F009F009F009F009F009F009F009F0011
:1017E0009F009F009F009F009F009F0023014601D4
:1017F0009901850012029C4D2B78032B15D104F022
:10180000E7FB90B12B789A1ED2B2062A05D89749E9
:101810008A5C12B102F0D6FC2B78022B00F00A830E
:10182000082B00F0078304232B7001B0BDE8F08F74
:101830008D4D2B789A1ED2B2062A05D88B498A5C28
:1018400012B102F0BFFC2B78022B01D0082B01D182
:1018500003F09EFD864B5B6803222A700BB10220C9
:101860009847844B1C6844B1636820461B685946FE
:10187000984723681C68002CF6D17F4B93E805003D
:10188000594601B0BDE8F04F1047827813064CBFAF
:101890007A4B794B02F00F0203EBC20393E8050089
:1018A000594690470028C0D09BF8020000F00F0373
:1018B000013B062BB9D801B0BDE8F04F03F090BE54
:1018C0006B4B5B680BB1082098476A4B1C68002C77
:1018D000ABD0636820461B685946984723681C684C
:1018E000002CF6D1A1E7624B5B680BB10920984749
:1018F000604B1C68002C98D0636820461B685946D2
:10190000984723681C68002CF6D18EE7584B5B681B
:101910000BB10A209847574B1C68002C85D0636890
:1019200020461B685946984723681C68002CF6D14E
:101930007BE74D4C2378062B00F05182072B02D019
:10194000052B7FF472AF03F02DFD022323706CE7AB
:10195000474B5B680BB10F209847464B1C68002C27
:101960003FF463AF636820461B6859469847236875
:101970001C68002CF6D158E73F4BDFF8F89040493F
:1019800093E805009047D9F800404CB13C4D63689E
:1019900020461B682946984723681C68002CF6D10E
:1019A000334C63680BB10D209847364B1B68002BF6
:1019B00000F01D82012003F04BFCD9F80070002FCD
:1019C00000F08D8197F80890B9F1000F00F0828146
:1019D0004FF00008444607F109057B68DB6813B146
:1019E0002146384698473B7AA34240F221816E78DF
:1019F000002E00F066810024234632460AE0AB78D0
:101A00002A190134D05C04F0A3FBE3B29E4240F2F9
:101A100058816A789342F2D300231B78FFDEDFF807
:101A20005490D9F80070002F00F0138197F808A0A7
:101A3000BAF1000F00F008814FF00008444607F1AA
:101A400009057B68DB6813B12146384698473B7A25
:101A5000A34240F2ED806E78002E00F0EC8000246E
:101A6000234632461BE000BFA40A0020B809040048
:101A7000EC080020940A002040090020F80800200B
:101A8000D8090400980A0020AB782A190134D05CE8
:101A900004F05EFBE3B29E4240F2CD806A7893424E
:101AA000F2D300231B78FFDEDFF80C93D9F8007027
:101AB000002F00F02F8197F808A0BAF1000F00F076
:101AC00024814FF00008444607F109057B68DB6874
:101AD00013B12146384698473B7AA34240F2A8808A
:101AE0006E78002E00F008810024234632460AE07A
:101AF000AB782A190134D05C04F02AFBE3B29E4291
:101B000040F2FA806A789A42F2D800231B78FFDE0E
:101B1000A54D2B78032B00F0768103F003FC002801
:101B20003FF483AE2B789A1ED2B2062A00F261816E
:101B30009E498A5C002A00F05C81022B00F05481EF
:101B4000082B00F0518106232B706EE6964D2B7802
:101B50009A1ED2B2062A00F2198194498A5C002AA0
:101B600000F01481022B00F03781082B00F0348143
:101B70008F4B5B6805222A700BB1032098478D4B71
:101B8000594693E8050090478B4B1C68002C3FF4A6
:101B90004CAE636820461B685946984723681C680A
:101BA000002CF6D141E6824B5B680BB103209847CD
:101BB000804B824993E8050090477F4B1C684CB1ED
:101BC0007E4D636820461B682946984723681C6839
:101BD000002CF6D1744D2B78062B00F0E180082BF9
:101BE0000FD09A1ED2B2062A00F208816F498A5C91
:101BF000002A00F00381022B03D0082B01D003F050
:101C0000D1FB02232B7010E6694B5B680BB10020FF
:101C100098476B4B1C68002C3FF407AE6368204666
:101C20001B685946984723685C68002CF6D1FCE590
:101C300000235B78FFDE08F101085FFA88F4A24513
:101C400005F103053FF6FDAE3B681F68002F7FF4EA
:101C5000EDAE554D03F0FCFF2B789A1ED2B2062A4A
:101C600040F28B80022B00F0B180082B00F0AE8098
:101C7000D9F8004000232B704CB1524E63682046C7
:101C80001B683146984723681C68002CF6D1494BE5
:101C90004C4993E805009047454B5B680BB10E201B
:101CA00098472B78023BDBB2062B3FF6BEAD3F4A8E
:101CB000D35C002B3FF4B9AD01B0BDE8F04F02F0AA
:101CC00081BA08F101085FFA88F4A14505F103051E
:101CD0003FF683AE3B681F68002F7FF473AE324D32
:101CE0002B789A1ED2B2062A3FD9022B71D0082B2C
:101CF0006FD001232B7098E508F101085FFA88F492
:101D0000A24505F103053FF6E1AE3B681F68002FD1
:101D10007FF4D1AE244D2B789A1ED2B2062A3AD83F
:101D200022498A5C002A36D0022B03D0082B01D02E
:101D300003F038FB1E4B5B6802222A700BB10120B6
:101D400098471C4B594693E805009047D9F8004046
:101D5000002C3FF46AAD636820461B6859469847DB
:101D600023681C68002CF6D15FE510498A5C002AC4
:101D7000BBD002F027FA2B78B7E70C498A5C002A1F
:101D80003FF470AF02F01EFA2B786BE70E4802F0BA
:101D9000EBF92B78E6E60C4802F0E6F92B78C3E77E
:101DA00007232B7041E500BFA40A0020B8090400F6
:101DB000EC08002040090020940A0020E0090400FB
:101DC000980A0020DC0904000000002003F0E0FA7B
:101DD0004EE703F0DDFA8CE703F0DAFAC8E603F029
:101DE000E1FA0823237020E503F0D2FAABE6207A6B
:101DF000E1E5134802F0B8F92B789EE6104802F0AE
:101E0000B3F92B78F7E604F0E3F800283FF485AE49
:101E10002B789A1ED2B2062A05D80A498A5C12B1DA
:101E200002F0D0F92B78022B07D0082B05D0042321
:101E30002B7072E603F0ACFAF5E403F0A9FAF6E7CA
:101E400000000020B809040030B5274D83B0286891
:101E50000023019300B38488A4B1C388B3F5006F55
:101E60003ABF5A1C92B2012204F1FF3428BF00236A
:101E70008480C28001A8ADF80630FFF72DFC012058
:101E800003B030BDFFF728FC1849194801F09CFF4A
:101E900001202C6003B030BD1449154801F064FFE7
:101EA000044628600028D6D1124B1B680BB918468F
:101EB000E6E701F0F1FE104A0E481388B3F5006F13
:101EC00035BF5C1C2346A4B2012401211480ADF867
:101ED000063001F0BFFF002001F0E6FE01A8FFF789
:101EE000FBFB0120CCE700BFA80A0020E808002087
:101EF00008000020A00A0020880900202DE9F041F8
:101F0000077ADFF8E0E0DFF8E0804FF0030C0CFB2D
:101F1000070C00F109040CF1090C21468C4582B034
:101F200020D001B34E780022B24218D08B781344EF
:101F3000D94214D0CB5C03F00F051B0608D45EF821
:101F400035300132002BEFD0112002B0BDE8F08116
:101F500058F835300132002BF6D1B242E6D10331C8
:101F60008C45DED100211F4D1F4ECAB2BA4229D284
:101F700002EB4202A21825D053780BB39378D31802
:101F800018BF4FF0010E05D11AE093787344D318AF
:101F900015D0BE461B7813F0800F03F00F0314BF5B
:101FA00006EBC30305EBC303186047683F685F6037
:101FB00092F801C00EF10103F445DFB2E5D8077ACB
:101FC0000131D2E7094A13681BB11A681368002B64
:101FD000FBD102A910600B2201F8042D43681B6895
:101FE0009847B2E740090020F8080020940A002032
:101FF000024B1878003018BF012070479C0A00205F
:10200000014B1868704700BF940A002070B4114B50
:102010001E68A6B1357A75B1737A834206F109025A
:1020200010D0002303E012F8034F84420BD0013399
:10203000DBB29D42F7D133681E68002EEAD13046EC
:1020400070BC704700230029F9D030460B7070BC7B
:10205000704700BF940A0020436811461B68184768
:1020600000F00F03082B01D91020704702064CBF67
:10207000044A054A02EBC30318680028F4D04368F9
:102080001B681847F80800204009002038B5094BA4
:102090001C6805461CB90AE023681C683CB16368EB
:1020A00029461B68204698470628F5D038BD0620EB
:1020B00038BD00BF940A002038B50D46044603F031
:1020C0008BF908B9082038BD044B1B78022BF9D1D5
:1020D00029462046BDE8384003F08EB9A40A002006
:1020E00038B50D46044603F077F908B9082038BD25
:1020F000044B1B78022BF9D129462046BDE8384015
:1021000003F010BAA40A0020F8B543689B6804469F
:102110000E4615461BB19847062800D0F8BD0DB1F4
:102120000720F8BD237AB34222D9093406EB4606CC
:1021300034446778F7B12B463A4614E0A378621925
:10214000D65C06F00F03072B05D8304603F080FA63
:10215000304603F051FA3046013503F021FDEBB271
:102160009F4207D962789A42E8D800231B78FFDEA5
:102170006B78FFDE0020F8BD43681B6903B1184788
:10218000184670472DE9F0472A4BD3F80080B8F184
:10219000000F4DD098F808A0BAF1000F3FD00027EB
:1021A0003C4608F109050BE00022214640469847CD
:1021B00006280AD00137FCB2A24505F103052ED945
:1021C000D8F804309B68002BEED198F80830A34271
:1021D00002D800235B78FFDE95F80190B9F1000F7B
:1021E000E8D0002423464A4614E0AB782A19D65C8E
:1021F00006F00F03072B05D8304603F029FA3046C6
:1022000003F0FAF93046013403F0CAFCE3B2994511
:10221000D0D96A789A42E8D800231B78FFDED8F834
:102220000030D3F80080B8F1000FB3D1BDE8F087DB
:10223000BDE8F087940A00202DE9F8431F4B1F6882
:10224000002F38D097F80890B9F1000F2AD04FF03E
:102250000008444607F109057B68DB6813B1214695
:10226000384698473B7AA34222D96E7896B100242B
:102270002346324609E0AB782A190134D05C03F0DA
:1022800067FFE3B29E4205D96A789A42F3D80023E9
:102290001B78FFDE08F101085FFA88F4A14505F11B
:1022A0000305D9D83B681F68002FCBD1BDE8F88360
:1022B00000235B78FFDEBDE8F88300BF940A0020AE
:1022C0004360CA69934205D901F1280202608B6715
:1022D000002070478A6902600B67CB61002070475D
:1022E000F0B50468C14E0D7A357040F21E37BC421D
:1022F00000F076835BD9B4F54C7F00F0C88300F220
:10230000EF8040F22635AC4200F0B48340F2788191
:1023100040F22B35AC4200F0DF83B4F54B7F80F008
:10232000108240F22935AC4200F0518440F22A3547
:10233000AC4240F0038301240027002A00F07E8590
:102340000579D555A3424FF00205057140F2478447
:102350002F4604F1010E022573451755057140F211
:1023600019840EF1010402F80E50A3424FF0050546
:10237000057140F23E842F4604F1010E2425734579
:102380001755057140F21E840EF1010402F80E503B
:10239000A3424FF00605057140F22684671C1555CF
:1023A000BB420D7D057140F292837C1CBEE1B4F509
:1023B000407F00F0438346D8B4F53C7F00F018839B
:1023C00040F26E8140F2F327BC4200F0D483B4F5B2
:1023D0003D7F80F0578240F2F127BC4200F05F83DE
:1023E00040F2F227BC4240F0A982002A00F0C285E8
:1023F00007794FF0010E4FF0000C0024734502F8EE
:102400000C70047140F21B840EF1010702F80E40BB
:10241000DFF8E4E100248EF80040AC4280F0FB835A
:102420000924BB42047140F292847D1C002A00F012
:102430004E850479D455AB424FF00404047140F248
:1024400056846F1C2EE240F20D35AC4200F0DC8267
:102450007ED940F21635AC4200F08A8340F26482A5
:10246000B4F5477F00F0588200F2298340F21B3513
:10247000AC4240F0638201240027002A00F09E84D1
:102480000579D555A3424FF02405057140F25184DA
:10249000AE46671C0025BB4202F804E0057140F21D
:1024A000218407F1010E10247345D555047140F2C3
:1024B000078425460EF101070124BB4202F80E50A5
:1024C000047140F2EE83254607EB040E05247345A4
:1024D000D555047140F2D68325460EF10107A9E0D7
:1024E000B4F5537F00F0CE8240F2088140F25D35B2
:1024F000AC4200F0B68240F2438240F26335AC4217
:1025000000F00282B4F55A7F00F0FE8140F25E35A1
:10251000AC4240F01382002A00F04684047901277F
:1025200000255455324C0D7D24682478A54200F0D6
:10253000CC838D7DA54200F00184DFF8C0E02D4DF5
:102540009EF800402D780134E4B28EF800403FE060
:1025500040F20635AC4200F0C78200F2018140F241
:102560000135AC4200F00F8340F20235AC4240F03E
:10257000E581002A00F028851D4C90F804E02568CC
:102580000027012402F807E02D780F7DAF4200F00C
:10259000C9838F7DAF4200F0FB830025A342057104
:1025A00040F2E981671C0AB105791555104C91F884
:1025B00014E024682578AE4500F0FC81DFF834C0D3
:1025C000DFF838E065788CF8005000248EF8004081
:1025D000AC42C0F0B781DFF820E035789EF80040CB
:1025E0000134E4B28EF8004017E700BFAE0A0020C5
:1025F000B00A0020AC0A0020AD0A0020AF0A00207B
:1026000040F22335AC4200F0F982B4F5497F80F006
:102610002C8140F21F35AC4200F0868240F2223518
:10262000AC4240F08B81002A00F0B6840579012786
:102630004FF0000E2424BB4202F80E50047140F209
:102640001283254607F1010E01247345D555047107
:1026500040F2048325460EEB04070324BB4202F834
:102660000E50047140F2F5827D1CD455AB428F7D33
:10267000077140F2DF8205F1010E042473455755BE
:10268000047140F2C38225460EF101072424BB42A7
:1026900002F80E50047140F2428225467C1C50E63E
:1026A00040F2ED27BC4200F0BB826AD8002C00F05B
:1026B0004C82B4F53B7F40F04181002A00F01A843F
:1026C00004791470012B4FF00B04047140F2FA836B
:1026D0004FF0030E4FF0020C0127D45563450F7DD8
:1026E000077140F2E8820224734502F80C7004710D
:1026F00040F2D28227460EF1010C54E040F233350D
:10270000AC4200F04C82B4F54D7F6AD240F23135D4
:10271000AC4200F0CD8140F23235AC4240F00E8147
:1027200001240027002A00F0AF830579D555A34284
:102730008D7D057140F23A82671C1555CA4C24689C
:102740003CE700F00C8240F22F35AC4240F0F680BE
:10275000002A00F0408407794FF0010E00240DE6B6
:1027600040F20735AC4200F02682B4F5427F40F0DB
:10277000E580002A00F0238400270579D55501243F
:102780000BE740F2EE27BC4200F0D68140F2EF2783
:10279000BC4240F0D380002A00F0048407794FF057
:1027A000010C4FF0000E0224634502F80E70047114
:1027B00040F2638227460CF1010E0224734502F8B1
:1027C0000C70047140F254820EF1010C02F80E40BC
:1027D00063454C7E047140F2378227460CF1010EAE
:1027E0000BE640F24735AC4200F09681B4F5527FDB
:1027F00040F0A480002A00F0EC8304790127002532
:102800005455994D994C2D68247895F801E0A645CA
:1028100040F2A98095F802E02C44BB4214F80E4027
:10282000047140F2D8807C1C1AB190F804E002F8E0
:1028300007E02D780F7DAF4200F05E828F7DAF42C2
:1028400000F08F824025A342057140F2A980651CEB
:10285000002A00F0918207791755AB424FF000042F
:10286000047140F2A2806F1C5BE600F0EA8040F247
:102870002535AC4262D1002A00F09083047901250D
:102880000027F2E6AE4640F2FA25AC4200F0B980ED
:1028900040F2FB25AC4251D1002A00F09383047929
:1028A00001270025545591F808E0714C2478A6457D
:1028B0005CD904EB440501F10904DFF8ACE114F83C
:1028C00005C080F804C02C44BB42CEF8004040F262
:1028D00004827C1C002A00F0E1820579D555A342D0
:1028E0004FF00005057140F2E181671CDFF878E1E7
:1028F0001555DEF80050BB4295F801E080F804E081
:1029000040F2C5817C1C3DE601270024002A3FF4EB
:1029100014AE0579155510E6002A00F0358390F8BD
:1029200004E001270024B5E540F20E35AC4200F08A
:10293000908040F20F35AC423FF41BAF00230360A0
:102940001846F0BD0724BB4204713AD97D1C002A09
:1029500000F02D820479D455AB424FF00504047188
:1029600034D96F1C4CE700231B78FFDE3E4A00235E
:1029700013601B78FFDE40F2163303600120F0BDC8
:1029800040F25135AC4203D040F25635AC42D5D17D
:1029900001240025002A3FF455AF0779575551E728
:1029A00040F25D3303600120F0BD40F25E3303600E
:1029B0000120F0BD0524BB42047140F2F0817C1C73
:1029C0005BE540F2473303600120F0BD4FF45273E2
:1029D00003600120F0BD4FF4537303600120F0BD8C
:1029E000002A00F0CF82057901274FF0000E63E541
:1029F000002A00F0C18207794FF0010E4FF0000C61
:102A0000DBE60125002711E501250024002A00F05E
:102A10007B81077917554FF0000EAB4280F804E038
:102A200040F2B1816F1C0024BB4202F805E0047142
:102A300040F273812546D5557C1CAEE50124002764
:102A400048E7002A00F0B282057901274FF0000E16
:102A500003E6002A00F0AC8290F804E0012700258C
:102A6000E1E701250024F3E6B00A0020AF0A0020C8
:102A7000AD0A0020002A00F0938207794FF0010E82
:102A80000025FAE5BB4C002725680124CCE601248B
:102A90004FF0000E002A00F0EB81057976E4002A61
:102AA00000F06C8204794FF0010C4FF0000E8DE6BF
:102AB000002A00F099820579012700246FE4002A9A
:102AC00000F0648205794FF0010E0027EBE440F23C
:102AD000323303600120F0BD002A00F07E820779C6
:102AE0004FF0010E002436E401250024002A00F0F6
:102AF0002E8207791755AB424FF00204047140F261
:102B00002B816F1C5455BB424C7E047192D84FF4FC
:102B1000427303600120F0BD0125002717E740F252
:102B20002A3303600120F0BD002A00F03D820579C0
:102B30004FF0010E0027C9E4002A00F02182077936
:102B40004FF0010E4FF0000CCDE508240471002B6E
:102B50007FF4B3AD4FF43B7303600120F0BD01245B
:102B60004FF0000E002A00F076810579FFF7FBBBDD
:102B70000127002417E5002A00F08D810479012740
:102B80004FF0000E42E4002A00F00482057901278C
:102B90000024ABE64FF44B7303600120F0BD002A24
:102BA00000F01F82057901270024C6E540F2333387
:102BB00003600120F0BD002A00F0EA8104790127BA
:102BC00000259FE74FF44C7303600120F0BD002AFD
:102BD00000F00582057901274FF0000E56E540F21E
:102BE0002B3303600120F0BD40F23133036001203C
:102BF000F0BD40F22F3303600120F0BD002A00F049
:102C0000DC8105794FF0010E00271DE540F22933E4
:102C100003600120F0BD40F2733303600120F0BD7A
:102C2000002A00F0C78104794FF0020E4FF0010C2A
:102C3000002752E540F2263303600120F0BD40F248
:102C4000F32303600120F0BD40F2F2230360012072
:102C5000F0BD40F2253303600120F0BD4FF449730D
:102C600003600120F0BD40F2233303600120F0BD7A
:102C700040F2F12303600120F0BD4FF43C73036088
:102C80000120F0BD40F2223303600120F0BD40F28C
:102C9000023303600120F0BD40F2EF230360012006
:102CA000F0BD40F21F3303600120F0BD40F201335C
:102CB00003600120F0BD40F2EE2303600120F0BD6F
:102CC00040F21E3303600120F0BD1024BB420471AA
:102CD00040F2F3803C46013718E64FF4407303603E
:102CE0000120F0BD40F21D3303600120F0BD40F231
:102CF000FB2303600120F0BD0325A342057140F2D0
:102D0000EF802546013445E6AB4202713BD96C1C8D
:102D10000025A342057100F2258140F20F330360C4
:102D20000120F0BD0225A342057140F2DE80651C42
:102D3000DCE64FF4477303600120F0BD0024BB4282
:102D40000471C7D84FF45A7303600120F0BD40F2FC
:102D5000FA2303600120F0BD40F207330360012035
:102D6000F0BD0225A3420571CBD840F25633036073
:102D70000120F0BDB00A0020AB4202717FF615AE13
:102D80006F1CFFF7CFBB40F20E3303600120F0BD94
:102D90000A25A342057140F2E880651C36E640F240
:102DA0001B3303600120F0BD0127FFF7BBBB0524E7
:102DB000AB4204717FF60AAE6F1C22E52425A342C4
:102DC0000571B6D901340025A34205718AD90134B1
:102DD0001025A34205717FF673AF01340125A3428C
:102DE00005717FF65EAF2C440525A34205717FF681
:102DF00049AF01342425A34205717FF634AF013475
:102E00000125A34205717FF629AF2C440325A34277
:102E100005717FF61EAF01348D7D0571A3427FF6EB
:102E200009AF01340425A34205717FF6EFAE671C9C
:102E30002425BB4205717FF672AE02340225A342FF
:102E400005717FF6CCAE04F1010E022573450571C4
:102E50007FF6A0AE2C440525A34205717FF6C9AECE
:102E600004F1010E2425734505717FF6ABAE0234E3
:102E70000625A34205717FF6B7AE671C0D7D05716F
:102E8000BB427FF624AE02348D7D0571A3427FF6EE
:102E90008DAE671C52E40127FFF7BABAA342027154
:102EA0007FF604AF0134514D2D68A3426F7807714E
:102EB0007FF6EDAE0134FFF767BB40F2633303608A
:102EC0000120F0BD40F2ED2303600120F0BD042499
:102ED000AB4204717FF60BAF6F1C91F808E0E4E49D
:102EE00040F2513303600120F0BD40F2063303602D
:102EF0000120F0BD0B24012B0471E3D90324022728
:102F000091F814E080F804E0BB427FF6D4AE0227CB
:102F1000A34207717FF6C0AE01340227A3420771B6
:102F20007FF6ABAE01340227A34207717FF6A0AE55
:102F300001344F7E0771A3427FF686AE013400272D
:102F4000A34207717FF67BAE671CFFF761BA0224CC
:102F5000AB4204717FF600AF6C1C4D7E0571A3423D
:102F60007FF6D5AD0134FFF718BB40F20D33036097
:102F70000120F0BD0124E2E70124D4E70124D8E7D1
:102F80000124C4E7012429E701241CE701241FE7E9
:102F90000124E2E7012486E701242BE701243BE733
:102FA00001243FE70124B8E701241DE701242DE7B0
:102FB0000124ADE602240127A2E7012420E7012431
:102FC000FFF7EBBA012770E4084D01242D68FFF7E5
:102FD000DBBA012715E4144642E7144633E7002420
:102FE00025E70127FFF7AABB002446E7B00A002027
:102FF0004360CA69934205D901F1280202600020AA
:103000008B6770478A6910B40260C8698C690A6F5F
:10301000C01A1C441A44C86100308C6118BF0120DA
:103020000A675DF8044B704708B1032070470B68CE
:103030001A7A202A01D00620704710B507220446CC
:1030400003F10A0103F114003BF093FF204610BD89
:103050002DE9F0430B7889B00D4606460E2B41D87A
:10306000DFE803F03B083B3B401945404008403B4C
:103070003B3B3B000368002403F130021A679C834A
:103080001C629C625C679C67DC67C3F880402046DA
:1030900009B0BDE8F0834B78DA0940F094805B0911
:1030A000012B1FD18B780768202B6AD0222B19D1D6
:1030B000B1F80730B3B9B1F803303A7FBB8302F0FF
:1030C000010203F001039A4299B206D0002900F0F0
:1030D0003281C3690BB1022198470024204609B010
:1030E000BDE8F0830624204609B0BDE8F083037AEA
:1030F00089788BB1827A093082B1F27A825C8A4215
:10310000EBD00A0673D4EA78012AE6D008D3032A62
:10311000E3D00324BBE700235B78FFDE1378FFDEF8
:103120003568012B05F10800F5D9727B012A06F1FB
:103130000C0364D9B27B95490690059113446A6AE1
:1031400093F80190002A5DD1AB6AA96F6A67E967BD
:10315000AA67002B00F0D38005F1280393E8030051
:1031600005F1200383E803004846AA6205A9FEF79B
:10317000B7FF0446F369002B89D0304600219847F9
:1031800085E7B1F80720072AACD13B72B1F80730C8
:103190000024DBB27B7220460A370693079405971A
:1031A00000F07AFD204605A9FEF786FF044630B9F7
:1031B000774B049603A9039300F014FD0446002006
:1031C00000F072FD63E7C3F34112002A6DD0012ABB
:1031D00088D18B78212B85D1B1F80720072A81D19E
:1031E0000168681C143100F0F7F904464FE7EC78E9
:1031F000002C7CD0032C0CBF0024032447E70023C1
:103200001B78FFDED5F88040286A05F1300EA24217
:1032100028BF22467146904677463BF0AAFEAA6F29
:10322000A96AA4EB080307EB080E424400206B6771
:10323000C5F870E0EA67A86700297AD005F1280789
:1032400097E8030005F120044FF0000884E803002C
:10325000C5F82880002B55D06A6A9A420ED95AE0E8
:1032600097E8030084E803006B6FC5F82880002B03
:1032700048D06A6A9A424ED8D5F870E0286A7146FA
:103280003BF077FE696A6A6F2B6FE9670B44521A4D
:103290006A672B67F36913B1002130469847AB6A20
:1032A000002BDDD12B62002464E703F01F03012B08
:1032B0007FF418AF8C78062C7FF414AF05A8039226
:1032C00000F0A4FC0DF10C0E0746EA782979CDF840
:1032D00000E030463B46FEF787F805283FF4D7AEBE
:1032E0003946681C039A00F077F90446CFE6F36983
:1032F000002B3FF4F2AE304601219847C7E6002488
:103300002C6237E72B6A002BCDD0484605A9FEF783
:10331000E7FE04462EE71A46296F286A3BF029FE8D
:10332000696F6A6A2B6AA967521A0B446A622B6238
:10333000E9E70023B6E7C3690BB103219847337A65
:10334000012B7FF6E8AE737B06F10C04002B3FF4F3
:1033500057AFB37BE05C02F01FFD337A012B7FF6A1
:10336000DAAE737B012B7FF64AAFB37B1C446078E7
:1033700002F012FD002407F130033C62BC627C675E
:10338000BC67FC67C7F880403B6780E6F12F000010
:103390002930000003689B8BDB0701D408207047AD
:1033A000037A012B12D910B5437B84B000F10C04D1
:1033B0000BB91B78FFDE837B0191E05C0292002356
:1033C00001A90393FEF778FE04B010BD00235B78DB
:1033D000FFDE00BF0368D86F704700BF30B50468D8
:1033E000A38BDB0783B002D4082003B030BD656F28
:1033F00025B9236A9BB1112003B030BD954228BF87
:10340000154608462A46216F3BF0B3FD626F236FD5
:10341000E567521B2B44626723670020E5E72162C2
:103420006262027A012A12D9417B012900F10C0261
:103430000FD9837B084900911344083458780194CC
:103440006946FEF74DFE002808BF9220CDE75B7865
:10345000FFDE1B78FFDE00BFC122000070B50C4606
:1034600006680020154600F017FC631E012B05D9E5
:103470000624002000F018FC204670BDB38B2342C8
:1034800014BF012300232B600024002000F00CFC5B
:10349000204670BD002070472DE9F04F4B6887B083
:1034A000002B7DD00C4615460392029002F094F852
:1034B000E668AE4228BF2E468346002E00F0878085
:1034C0004FF0000A5746D1464FF00108CDF804A04E
:1034D000A3686168B3429A4628BFB24601B3524618
:1034E0000BEB07003BF045FDA268E368C4F80490CD
:1034F000A2EB0A02A3EB0A03A6EB0A065744A2605A
:10350000E3607AB1002B08BF4FF00008002EDFD136
:10351000029AC2F800B05760404607B0BDE8F08F8D
:103520002BBBE368019A22B95BB99846002ECFD134
:10353000EEE7226812681268226001220192002BD5
:10354000F3D02168002939D0CDF8109003E0A368AA
:1035500021680133A3604B6800225D6804A8012341
:10356000A8470028F3D12061002EB1D1D0E7204632
:10357000534650F8101B4A6855680BEB0702A847E2
:10358000A268E368A2EB0A02A3EB0A03A6EB0A0611
:103590005744A260E360002ACBD001220192B1E738
:1035A0000B681B681B68002B7FF47CAF8B68002BBB
:1035B0007FF478AF036043609846ADE76160002F09
:1035C000A6D0039BBB4288BF4FF00008A0E7374658
:1035D0004FF001089CE700BF70B5C38893421D46B9
:1035E00028BF1546934284B00E461FD80022002003
:1035F00003920196029500F04FFB01A98020FEF78F
:103600005BFD044628B1002000F04EFB204604B0CC
:1036100070BD02F09DF8802818BF1024F3D1094A2C
:10362000094B92E8030083E80300ECE7802014468E
:1036300001F0C2FEB4FBF0F303FB1042B2FA82F2D7
:103640005209D4E76C0A0400DC0A00202DE9F04F8F
:103650000B78013B87B00D2B00F2BE80DFE803F052
:103660003E394EBC5C70BCBCBCBC399DAC8A9DF87C
:103670000E10062900F0BB81082900F0A681002960
:1036800040F0B280B64C022220463BF097FCB54A8F
:1036900023781278900743F0010148BF43F00303F9
:1036A00021700DF10D0048BF23700222AC49FFF7D5
:1036B00093FF0446062C00F09780002C40F0A38076
:1036C0002C68002C00F03D8102F042F804460028EE
:1036D0004DD00024204607B0BDE8F08FA24B1A78E9
:1036E000032A79D09F49A1480A78032422F00202D4
:1036F0001C700A700624FDF7EFFFEBE79C4800F012
:10370000C7FB0028E5D09B4B01221A60BFF36F8FE7
:10371000BFF34F8F0024DDE705230DF10D008DF879
:103720000C3001F0A5FF9DF80D20934D002102F013
:103730001F032960032B65D8DFE803F08F685B5611
:10374000C87803280D4647D08B4E3368002B00F015
:10375000A58000223260716898470446002852D143
:103760003368002B00F0DA80AB78002BB1D101F088
:10377000A5FFAFE77C4B1A78012AAAD079497B488C
:103780000A78012422F002021C700A70FDF7A4FFDF
:103790000024204607B0BDE8F08F734B1A78002A4A
:1037A00097D0704971480A78002422F002020A700A
:1037B0001C70FDF791FF8DE74FF08043D3F838344C
:1037C00013F0010F684B1A780BD0022A81D065499B
:1037D00066480A780224D5E70624204607B0BDE8EB
:1037E000F08F012ACAD174E703A8FEF74FFC044604
:1037F00063E79DF81100010740F0A88012F0600F08
:1038000000F0C480062401F099FF63E701A99DF848
:103810001100FEF7FBFB0646002800F0958003AA86
:103820009DF80410FEF718FC062804467FF445AF07
:103830009DF80D3013F0600FE5D14B4A9DF8041050
:103840001278DF099DF80E3040F009810B2BDAD198
:10385000052A00F087810824D5E7C2F34114002C23
:10386000C2D1D2097FF403AF9DF80E30013B082B83
:10387000BAD801A252F823F0E3380000E93700007B
:10388000CD380000E9370000A1380000E93700001A
:10389000E9370000E9370000013900000E24B2E7E3
:1038A000314C2378033B022BD5D8FEF7C5FC237897
:1038B000042B3FF405AF2B4A2C481378042123F046
:1038C000020313702170FDF707FFF9E6BDF80F3012
:1038D000012B89D1FEF78CFB002840F06A810F2470
:1038E00091E7BDF80F30012B7FF47EAFFEF780FB30
:1038F0000028F4D01B4A137823F002031370DFE68C
:10390000194C2378043B012BA5D89DF80F30002BD0
:10391000CBD0012B00F04181072474E7174B1B78B3
:10392000082B0ED1164B1B681B070AD1154B1B68C1
:1039300013F0F00F05D1144B1B6813F0F00F3FF498
:10394000C8AE01F0F1FEC5E610245CE703A9FEF75E
:1039500087FB062804467FF4B0AE9DF80D204DE7A6
:10396000E80A0020D80A0020BC0A0020340A04001B
:10397000E40A00205C700240DC0A0020E00F00F046
:10398000E40F00F0E80F00F0EC0F00F09DF80E20BF
:103990008B4B9DF811401B78012A4AD038D3032A5B
:1039A0007FF430AF04F00F02072A3FF62BAFBDF8CB
:1039B0000F1000297FF426AF052B02D0002A7FF4D8
:1039C0004AAF204601F00CFE7AE67D4B1B78052BB2
:1039D00000F0C580042B7FF407AF7A4B1C700DF10B
:1039E0000D0001227749FFF7F7FD044662E69DF8D6
:1039F0001030022B58D0032B45D0012B7FF4F4AEAE
:103A00000DF10D0012227049FFF7E6FD044651E664
:103A1000052B02D022077FF41EAF204601F0F6FDF1
:103A20006849022208800DF10D00FFF7D5FD04461C
:103A300043E604F00F02072A3FF6E4AEBDF80F108C
:103A400000297FF4DFAE052B02D0002A7FF403AFFC
:103A5000204601F0FDFD204601F0CEFD30E6002BB2
:103A600070D00A2B7FF4CFAE052A7FF4F4AE304637
:103A7000FEF782FB53493A4608700DF10D00FFF73F
:103A8000ABFD044619E6BDF811109DF80F0000F0DB
:103A9000EFF8014600283FF4A7AE0DF10D000A78BB
:103AA000FFF79AFD044605E6BDF81390B9F1090F3A
:103AB00028BF4FF00909FEF7A3FA064600285DD09B
:103AC000A3464FF0090ACDF804B04FF0000801E01A
:103AD00008F101087268012357683146002201A8E5
:103AE000B8470028F4D13268337A16681C44C244BF
:103AF000E4B2002EE7D1334E344930464A463BF01B
:103B000038FA3471A6F802A0FEF772FA18B1F37908
:103B100043F02003F371FEF773FA2D4BBDF8132029
:103B2000186000205E60C3F80890DA6000F0B4F816
:103B300028498020FEF7D4FA044618B3002000F08C
:103B4000B3F8B7E5052A7FF486AE1E4C0DF10D00E3
:103B5000214623800222FFF73FFD0446ADE5194BC5
:103B60001A703CE7BDF80F30FF2B3FF6D5AE30465C
:103B70009DF80F20FEF7C8FA04469EE504464FF074
:103B8000090AB8E701F0E4FD802805BF124B93E86D
:103B90000300102485E80300D0E7FEF7F3FA23784A
:103BA000052B3FF48DAD05230C482370FDF794FDE4
:103BB00086E50B4A137843F00203137080E500BFDB
:103BC000BC0A0020E80A0020580A0400380A040051
:103BD000C00A0020840A04006C0A0400340A0400AD
:103BE000D80A002038B504460D4601F0B1FDA042C8
:103BF00002D01023184638BD95E80300024A82E837
:103C000003000023184638BDDC0A002008B1402319
:103C100003600148704700BFE80A002070B54FF00C
:103C2000805286B0D2F8A830D2F8A42000926FEA71
:103C300083436FEA93439BB202A80B4A0B4D0D21BD
:103C40003BF0B8FD40F21A3302AE2B80002404E0B2
:103C500016F8013B25F8023F013402A83BF013FEA1
:103C60008442F5D306B070BD8C0A040054C700200E
:103C700050B1042806D8054B185C20B1044B53F80A
:103C8000200070470020704702487047240B040052
:103C9000100B0400980A040072B6024A136801333C
:103CA00013607047280B0020034A1368013B136020
:103CB00003B962B6704700BF280B002099B110B459
:103CC000B2FBF3F403FB1424A4B21CB109205DF889
:103CD000044B704780E8120084608281C3812046D3
:103CE0005DF8044B70470E20704700BF30B482B0BF
:103CF00050E8013F9DB2C48925448489A54228BF6C
:103D00002D1B0489A54202BFBFF32F8F002207E0BD
:103D1000C5EA030540E80154002CE9D14FF0010247
:103D20008DF803200193019B9DF803200B602AB1BD
:103D30000B880068184402B030BC704702F0FF03E3
:103D4000184602B030BC70470A884B889A4201D0AE
:103D50000020704750E8012FC2EA024240E80123E8
:103D6000002BF7D10120704730B482B050E8023FF9
:103D70001FFAA3F5C488A54202BFBFF32F8F00220C
:103D80000DE0C48925448489A54228BF2D1BC3EAC0
:103D9000054540E80254002CE8D14FF001028DF8AF
:103DA00003200193019B9DF803200B602AB14B88EF
:103DB0000068184402B030BC704702F0FF03184698
:103DC00002B030BC704700BF0A884B889A4201D0CD
:103DD0000020704750E8022FC2EA224240E8022346
:103DE000002BF7D10120704700B550E8002F0B469B
:103DF00040E8003E9EF0000FF7D110465DF804FB4E
:103E000000B550E8003F03EA010240E8002E9EF0B2
:103E1000000FF6D110465DF804FB00BF00B550E876
:103E2000003F03EB010240E8002E9EF0000FF6D1A8
:103E300010465DF804FB00BF00B550E8003FA3EB5F
:103E4000010240E8002E9EF0000FF6D110465DF80A
:103E500004FB00BF00B550E8003F8B422CBF5A1A4C
:103E60001A4640E8002E9EF0000FF4D110465DF88F
:103E700004FB00BF00B5012350E8002F42EA030E07
:103E800040E800E191F0000FF6D170465DF804FBC8
:103E900000B5002350E800EF0EEA030240E80021DD
:103EA00091F0000FF6D170465DF804FB70B5044642
:103EB0000020FFF7F1FE236861681A688A4215D96D
:103EC000511E19602168A3680D680879A68A12F846
:103ED000012CE4685B1BDBB2984206FB024400D273
:103EE0000B710020FFF7E0FE204670BD002400208B
:103EF000FFF7DAFE204670BD38B5054600200C46B7
:103F0000FFF7CAFE2A681368591C1160E968AA8A7B
:103F1000641AB4FBF2F41C700020BDE83840FFF7CF
:103F2000C3BE00BF2DE9F041B0F81480CF1CA8F14A
:103F3000040847440646B7FBF8F7FFF7B7FF80B31E
:103F4000FFB200250123013F0446A0F80680066069
:103F50000571437128D0804609E06379AF4203F1CF
:103F600001036371C8F80000066080461CD030462B
:103F7000FFF79CFF01350028EFD16679721E16D03D
:103F80002346013082421B68FBD81F684EB1214690
:103F900000250C6801353846FFF7AEFFAE422146DA
:103FA000F7D10020BDE8F0812046BDE8F081276808
:103FB000EDE700BF04300121FFF730BFF8B5012164
:103FC00004460430FFF738FFC0B200B1F8BD66798F
:103FD000721E12D02346013082421B68FBD81F6834
:103FE000002EF3D0214600240D6801343846FFF737
:103FF00083FFA6422946F7D1F8BD2768F2E700BF44
:104000002DE9F843C68804330F46B3FBF6F5904616
:1040100006FB1533044615B1013D2468FCD1F51AA1
:10402000454528BF4546B8F1000F15D04FF00009AF
:104030000433E018A8EB05082A4607EB09013AF01B
:1040400098FF4645A944246835464FF0000328BF31
:104050004546B8F1000FEBD1BDE8F88310B568B163
:1040600001280AD10C4C2369A07033B10CCB01207C
:10407000226198472369002BF8D110BD064CA36834
:1040800001226270002BF8D00CCB0020A260984770
:10409000A368002BF8D110BD2C0B002010B50B4CE1
:1040A000237882B013B1852002B010BD0848636048
:1040B000A3602361E36002F0D1F9019002F0DCF922
:1040C00001980123237002B010BD00BF2C0B00200B
:1040D0005D40000038B5154DAB78044673B110B1A2
:1040E0004368012098470020FFF7D6FDEB680133B5
:1040F000EB600020BDE83840FFF7D6BD03F0FF00BD
:10410000FFF7CAFD64B12A6942B1944208D0134650
:1041100001E09C4204D01B68002BFAD122602C6184
:10412000EB68002BE2D102F0BFF9DFE72C0B002097
:1041300038B5084C0020FFF7AFFDE368013BE360B2
:10414000E56815B902F0C8F9A5700020BDE838404F
:10415000FFF7AABD2C0B00204FF08043D3F81804C2
:10416000C0F30040704700BF38B5154D6B7804466A
:1041700073B110B14368002098470020FFF78CFD11
:104180006B6801336B600020BDE83840FFF78CBDE1
:1041900003F0FF00FFF780FD64B1AA6842B19442CA
:1041A00008D0134601E09C4204D01B68002BFAD1D2
:1041B0002260AC606B68002BE2D102F099F9DFE776
:1041C0002C0B002038B5084C0020FFF765FD636814
:1041D000013B6360656815B902F09CF965700020C9
:1041E000BDE83840FFF760BD2C0B002010B5084C2F
:1041F00023780BB1852010BD064B002808BF184658
:1042000002F090FE0028F6D10123237010BD00BFFC
:10421000400B0020340B040010B5044602F0BCFE35
:1042200002F0C2FE204602F0A5FE02F0ADFE002024
:1042300010BD00BF30B44C689C4208D200254560D8
:104240000968016093420CD0002030BC7047436085
:104250000D6805600868E41A1844934281E811006B
:10426000F2D1201C18BF012030BC70474B689A4225
:1042700028BF1A4610B40C680460426048680B6896
:104280005DF8044B801A13444860003018BF0120C9
:104290000B6070474B689A4228BF1A4662B10B68A0
:1042A0000360426048680B68801A13444860101C21
:1042B0000B6018BF012070471346F1E710B582B0BC
:1042C00002A800230121064A0193064C00F8041DB0
:1042D0000549126823700B70904702B010BD00BFF3
:1042E0006C0C0020410B0020700C0020704700BFB8
:1042F00010B50A4A0A4813680A4982B000248DF8AA
:104300000440D0F82005ADF8060043F00123096809
:10431000136001A8884702B010BD00BF480B002001
:10432000007002406C0C0020F8B50C4622C90A4F00
:10433000954228BF154606462A4638463AF019FEE9
:1043400075603760236860682B44401B60602360A1
:10435000003018BF0120F8BD780C0020F8B54C687B
:10436000944228BF14460D4606465CB9046074604A
:104370006A682B68121B2344201C6A602B6018BFDC
:104380000120F8BD034F0968384622463AF0F1FD96
:104390003760ECE7780C002010B40B4A0B4C92F815
:1043A0009E100B48002303292360037005D0D2F828
:1043B000903013B15DF8044B70476FF00101054870
:1043C0005DF8044BFFF71CBD4C0B00201C7C024029
:1043D000420B0020440B002030B51D4B1A78130609
:1043E00083B01CD41B4B1C481D68016802F00F03EE
:1043F0001033012404FA03F319432B42016001D066
:1044000003B030BD154B8DF8062006221B688DF8D1
:1044100007408DF8042001A8984703B030BD0E4C2A
:104420000C4B2168186802F00F050123AB401943BB
:1044300003402160E4D109498DF8062006228DF859
:10444000073001A80B688DF804209847D8E700BF13
:10445000700C0020440B0020480B00206C0C002046
:1044600010B5244BD3F80044C3F8004482B0BFF326
:104470006F8FBFF34F8FBFF36F8FBFF34F8FE10588
:104480002AD4A2051CD4630502D51B4B1A780AB99D
:1044900002B010BD174C1948012100221A70C4F84F
:1044A00008150160BFF36F8FBFF34F8F144B01925C
:1044B00002A8042100F8041D1B68984702B010BD33
:1044C00002A8002303210E4A019300F8041D0A49A3
:1044D00012680B709047D6E702A8002301930222CE
:1044E000074B00F8042D044A1B68012111709847FE
:1044F000C7E700BF00700240410B00205870024027
:104500006C0C002010B5114A114C92F88E10114815
:1045100000230329236082B0037002D0D2F88040C8
:104520000CB102B010BD6FF080710B48FFF768FC52
:104530000A4B8DF80740062108221B688DF80410ED
:104540008DF8062001A8984702B010BD4C0B002042
:104550001C7C0240420B0020440B00206C0C00200D
:1045600010B5154A154C92F81E1115480023032961
:10457000236082B0037004D0D2F8104144B102B07D
:1045800010BD6FF480710F48FFF73AFC02B010BD08
:104590006FF480710B48FFF733FC0B4B8DF807402D
:1045A000062188221B688DF804108DF8062001A8CA
:1045B000984702B010BD00BF4C0B00201C7C02408D
:1045C000420B0020440B00206C0C002010B40B4A5E
:1045D0000B4C92F8AE100B480023032923600370A4
:1045E00005D0D2F8A03013B15DF8044B70476FF0DE
:1045F000020105485DF8044BFFF702BC4C0B00209C
:104600001C7C0240420B0020440B002010B40B4ADB
:104610000B4C92F8BE100B48002303292360037053
:1046200005D0D2F8B03013B15DF8044B70476FF08D
:10463000040105485DF8044BFFF7E2BB4C0B00207A
:104640001C7C0240420B0020440B002010B40B4A9B
:104650000B4C92F8CE100B48002303292360037003
:1046600005D0D2F8C03013B15DF8044B70476FF03D
:10467000080105485DF8044BFFF7C2BB4C0B002056
:104680001C7C0240420B0020440B002010B40B4A5B
:104690000B4C92F8DE100B480023032923600370B3
:1046A00005D0D2F8D03013B15DF8044B70476FF0ED
:1046B000100105485DF8044BFFF7A2BB4C0B00202E
:1046C0001C7C0240420B0020440B002010B40B4A1B
:1046D0000B4C92F8EE100B48002303292360037063
:1046E00005D0D2F8E03013B15DF8044B70476FF09D
:1046F000200105485DF8044BFFF782BB4C0B0020FE
:104700001C7C0240420B0020440B002010B40B4ADA
:104710000B4C92F8FE100B48002303292360037012
:1047200005D0D2F8F03013B15DF8044B70476FF04C
:10473000400105485DF8044BFFF762BB4C0B0020BD
:104740001C7C0240420B0020440B002010B40B4A9A
:104750000B4C92F80E110B480023032923600370C1
:1047600005D0D2F8003113B15DF8044B70476FF0FB
:10477000800105485DF8044BFFF742BB4C0B00205D
:104780001C7C0240420B0020440B00202DE9F04F1E
:10479000DFF8ACA2DFF8BC82DAF80030D8F80040CD
:1047A000234087B07FD093FAA3F4B4FA84F40F2C9B
:1047B000E5B2C6BF103DEBB245F0800301939DF911
:1047C00004B0BBF1000FC0F2A880019B934A03F034
:1047D0000F063301072E02EB030700F28D8006F56A
:1047E00094728F4951F822908C4A7968D358BA89CB
:1047F0001D4604A84B46A847049B13B1059B994549
:1048000056D8002852D0874B874882221A60D8F8A1
:1048100000300599012202FA04F423EA0404BB687B
:1048200002700B44BBF1000FC8F80040BB60049855
:10483000C0F28780072E58D8B20093199B0003F16D
:10484000804303F51C33C3F80007C3F80417774B04
:104850001B78082B0BD1764B1B68190707D1754BBA
:104860001B6813F0F00F7FD0BBF1000F7ADB282319
:104870001344DBB203F1804303F51C3301221A60B9
:10488000BFF36F8FBFF34F8F6B4A6C4B13EA2B0351
:1048900038BF134633F8162002F1804202F51C326D
:1048A0001368002BFCD007B0BDE8F08F3860AAE792
:1048B0000121A1400224C943BC736148FFF7A0FA5B
:1048C000604B9DF804108DF80F4006221B688DF890
:1048D0000E108DF80C2003A89847DAF80030D8F8AD
:1048E000004023407FF45FAFDDE74D4BB200C3F8DB
:1048F000A007C3F8A417AAE7494AD2F8C09419F44C
:10490000803F3FF471AF04A83D68BA8979680023FD
:10491000A84700287FF477AFC8E7019DDFF83891FA
:1049200005F00F06350109EB050704A8BA89796877
:1049300059F80530984700287FF465AF49F805001D
:1049400061E7072E5ED9364BB200C3F8A006C3F864
:10495000A416364B1B78082B04D1354B1B681B075C
:104960003FF47DAF042383E7374B1B6813F0F0035C
:104970007FF47AAFBBF1000FB4BF4FF004084FF0E3
:10498000280890442D492C48304C314DDFF8CC900C
:104990005FFA88F8B4BF0A46024608F180481F460D
:1049A00002EB460A08F51C3844F0010401262F608A
:1049B000BFF36F8FBFF34F8FC8F80060BFF36F8FE7
:1049C000BFF34F8F8020A0472B68002BEFD04FF410
:1049D000F060A047D9F800309E0605D48020A0479B
:1049E000D9F800309806F9D54020A047BAF8003031
:1049F00003F1804303F51C331B68002BD6D007B0AE
:104A0000BDE8F08FB20093199B0003F1804303F5DA
:104A10001C33C3F80006C3F804169AE74C0B0020B9
:104A2000007002401C7C0240420B0020E00F00F0AE
:104A3000E40F00F0E80F00F0740B0400540B0400C6
:104A4000440B00206C0C0020EC0F00F0400B040025
:104A500004710240480B0020DC0B002074740240FB
:104A600030B5174A174892F84E10174C0023032907
:104A7000036083B0237005D0156C6DB1FFF786FE1F
:104A800003B030BD6FF480111048FFF7B9F92378F7
:104A9000002BF3D003B030BD6FF480110B48FFF74B
:104AA000AFF90B4B8DF80750042206211B688DF8D7
:104AB00004108DF806200DEB02009847E7E700BFD1
:104AC0004C0B00201C7C0240420B0020440B0020B9
:104AD0006C0C002010B5294A294C917B29480023F1
:104AE0000329236082B0037030D01468002C33D0C7
:104AF000254B1B78082B08D0244B01221A60BFF3EA
:104B00006F8FBFF34F8F02B010BD214B1B681B0787
:104B1000F2D1204B1B6813F0F00FEDD11E4B1B6838
:104B200013F0F00FE8D1EFF3108372B6174A0121AA
:104B30001160BFF36F8FBFF34F8F1160BFF36F8FA3
:104B4000BFF34F8F83F3108802B010BD6FF4803134
:104B50001248FFF755F9D6E76FF480310F48FFF799
:104B60004FF90F4B8DF8064006228DF807401B6861
:104B70008DF8042001A89847C5E700BF4C0B002022
:104B80001C7C0240420B0020E00F00F04C70024001
:104B9000E40F00F0E80F00F0EC0F00F0440B0020F1
:104BA0006C0C00202DE9F043384BD3F86C44C3F86B
:104BB0006C4483B0BFF36F8FBFF34F8FBFF36F8F22
:104BC000BFF34F8F324B1B78082B48D01CB3314DAD
:104BD000DFF8D880DFF8D8900127062694FAA4F3EE
:104BE000B3FA83F3DAB20F2BA2F11000D8BF42F070
:104BF00080002A68D8F8001007FA03F342EA03029B
:104C0000C8BFC0B22A60020624EA030418D40B42CB
:104C100009D0002CE2D1204B1B780BB9FFF7B6FD71
:104C200003B0BDE8F0838DF806008DF804608DF8C0
:104C30000770D9F8003001A89847002CCED1EAE7D8
:104C40000B40E6D18DF806008DF807308DF8046032
:104C5000D9F8003001A89847002CBFD1DBE70F4BF3
:104C60001B681907B2D10E4B1B6813F0F00FADD1C2
:104C70000C4B1B6813F0F00FA8D10B4A136803F01C
:104C8000011123F0011311601C439FE700700240E3
:104C9000E00F00F0480B0020420B0020E40F00F072
:104CA000E80F00F0EC0F00F0740C0020440B002023
:104CB0006C0C002030B5164A164892F87E10164C3F
:104CC00000230329036083B0237005D0156F6DB1F5
:104CD000FFF75CFD03B030BD6FF400010F48FFF734
:104CE0008FF82378002BF3D003B030BD6FF40001B0
:104CF0000A48FFF785F80A4B8DF80750062107226E
:104D00001B688DF804108DF8062001A89847E8E785
:104D10004C0B00201C7C0240420B0020440B002066
:104D20006C0C002030B5164A164892F85E10164CEE
:104D300000230329036083B0237005D0156D6DB186
:104D4000FFF724FD03B030BD6FF400110F48FFF7EB
:104D500057F82378002BF3D003B030BD6FF4001167
:104D60000A48FFF74DF80A4B8DF807500621052237
:104D70001B688DF804108DF8062001A89847E8E715
:104D80004C0B00201C7C0240420B0020440B0020F6
:104D90006C0C002030B5164A164892F86E10164C6E
:104DA00000230329036083B0237005D0156E6DB115
:104DB000FFF7ECFC03B030BD6FF480010F48FFF744
:104DC0001FF82378002BF3D003B030BD6FF48001BF
:104DD0000A48FFF715F80A4A8DF8075006231268AB
:104DE0008DF804308DF8063001A89047E9E700BF40
:104DF0004C0B00201C7C0240420B0020440B002086
:104E00006C0C002030B5164A1648917F164C0023D2
:104E10000329036083B0237005D015696DB1FFF7D6
:104E2000B5FC03B030BD6FF400311048FEF7E8FF69
:104E30002378002BF3D003B030BD6FF400310B4862
:104E4000FEF7DEFF0A4B8DF80750062101221B6892
:104E50008DF804108DF8062001A89847E8E700BFF8
:104E60004C0B00201C7C0240420B0020440B002015
:104E70006C0C002030B5164A164892F82E10164CCD
:104E800000230329036083B0237005D0156A6DB138
:104E9000FFF77CFC03B030BD6FF480210F48FEF7B4
:104EA000AFFF2378002BF3D003B030BD6FF4802127
:104EB0000A48FEF7A5FF0A4B8DF80750062102228B
:104EC0001B688DF804108DF8062001A89847E8E7C4
:104ED0004C0B00201C7C0240420B0020440B0020A5
:104EE0006C0C002030B5164A164892F83E10164C4D
:104EF00000230329036083B0237005D0156B6DB1C7
:104F0000FFF744FC03B030BD6FF400210F48FEF7FB
:104F100077FF2378002BF3D003B030BD6FF400216E
:104F20000A48FEF76DFF0A4B8DF807500621032251
:104F30001B688DF804108DF8062001A89847E8E753
:104F40004C0B00201C7C0240420B0020440B002034
:104F50006C0C0020002800F08C8030B4464D2A787C
:104F600012B1082030BC70474449454B08604FF4EB
:104F7000007440210120287083F89E20C3F89020FF
:104F8000C3F8982083F8AE20C3F8A020C3F8A82067
:104F900083F8BE20C3F8B020C3F8B82083F8CE2031
:104FA000C3F8C020C3F8C82083F8DE20C3F8D0209F
:104FB000C3F8D82083F8EE20C3F8E020C3F8E82037
:104FC00083F8FE20C3F8F020C3F8F82083F80E2100
:104FD000A3F89C10A3F8AC10A3F8BC10A3F8CC1055
:104FE000A3F8DC10A3F8EC10A3F8FC10A3F80C1144
:104FF000C3F80021A3F81C41C3F8082183F81E213F
:10500000C3F81021C3F8182199819A731A609A6025
:1050100099839A771A619A61998583F82E201A628A
:105020009A62998783F83E201A639A63A3F84C101A
:1050300083F84E201A649A64A3F85C1083F85E200B
:105040001A659A65A3F86C1083F86E201A669A6642
:10505000A3F87C1083F87E201A679A67A3F88C4027
:1050600083F88E20C3F88020C3F88820104630BC17
:1050700070470720704700BF430B00206C0C0020D6
:105080004C0B0020054B1A78012A01D008207047EC
:10509000034A002010601870704700BF430B0020C7
:1050A0006C0C0020F8B55A4B4FF40062C3F8002492
:1050B000BFF36F8FBFF34F8F564B1B78082B61D018
:1050C0000020FEF7E9FD544B1A68002A52D15349DB
:1050D00049F27532C0201A6008601A600020FEF79D
:1050E000E3FD4B4A0123C2F80035BFF36F8FBFF3D6
:1050F0004F8FD2F800341905FBD54FF40063C2F886
:105100000034BFF36F8FBFF34F8F0020FEF7C4FD55
:10511000414B1A68002A31D1404849F27531196073
:10512000026019600020FEF7BFFD3A4B1B78082B88
:1051300048D03B493B4B40F2E370402208601A6084
:10514000BFF36F8FBFF34F8FA3F604033649374E7B
:10515000374D384C3848394A8027C3F81C7540F21F
:10516000FF1700230F60022133602B602370037050
:105170001170F8BD294BC0221A60AFE7274B0022FF
:105180001A60CFE72E4B1B68180799D12D4B1B686F
:1051900003F0F003102B93D12B4B186810F0F000A4
:1051A0008ED1FEF779FD1C4B1A68002A2CD12749B5
:1051B00049F2753203201A6008601A600020FEF779
:1051C00073FD7DE71E4B1B681B07B2D11D4B1B688F
:1051D00003F0F003102BACD11B4B1C6814F0F0044F
:1051E000A7D12046FEF758FD0B4B1A684AB917485D
:1051F00049F275311960026019600020FEF754FD14
:1052000097E7124B1C60F8E7104B03221A60D5E7B2
:1052100000700240E00F00F000EC064014EC064085
:105220000078024004780240480B0020440B002024
:105230001C7C0240420B0020700C0020430B00201D
:10524000E40F00F0E80F00F0EC0F00F014ED064062
:105250001A4B002210B41A70C8B9194B1B78082BCE
:1052600017D01849184A194BC2F80413E0248021BA
:10527000012083F82743C3F884115960C2F804055C
:10528000BFF36F8FBFF34F8F5DF8044B704710492A
:10529000E8E7104B1B681B07E3D10F4B1B6813F0AB
:1052A000F00FDED10D4B07491A6803F18F5303F25B
:1052B0001B4312F0F00F08BF1946D3E7410B002043
:1052C000E00F00F00714C0010070024000E100E0B0
:1052D0000714E001E40F00F0E80F00F0EC0F00F01D
:1052E000024B1878003018BF01207047430B002094
:1052F000034B1878012894BF00200120704700BF9D
:10530000430B0020054B1B78012B85BF044B5868CD
:105310000020C00900F00100704700BF430B0020CF
:1053200000E100E010B50020FEF7B6FC144B1B783E
:1053300003F0FF0463B1134BD3F82C256AB10021AD
:10534000114AC3F82C1513686BB1104BC0221A60B8
:105350000020FEF7A9FC204610BD14460020FEF7F1
:10536000A3FC204610BD094949F27533C0201360E3
:10537000086013600020FEF797FC204610BD00BFB8
:10538000410B00200070024000EC064014EC064087
:10539000024B034AC3F80823704700BF0070024065
:1053A00004148001024B034AC3F80423704700BF72
:1053B0000070024004148001064B10F0800FA3F12E
:1053C000900200F00F0008BF134603EB001398890A
:1053D000704700BFDC0B0020064B010600F00F02F7
:1053E0004CBFD3F81005D3F81405D04000F00100ED
:1053F000704700BF007002402DE9F0414FFA80F87D
:10540000B8F1000F00F00F0407464FF00000B4BFE2
:10541000064610260D46FEF73FFC54B9344B1B7868
:10542000BB4206D010240020FEF73EFC2046BDE81B
:10543000F081304BDFF8E8E01B68DEF80070DB43FA
:10544000264401229BB202FA06F63B43334206D0C1
:1054500011240020FEF728FC2046BDE8F081B8F1B9
:10546000000F23DB24B222012349244B2448885017
:1054700004EB440403EB840301EB020C95E8070002
:105480003E43204DCEF800600024802683E80700CC
:10549000CCF80430CCF808408CF80E400020C5F859
:1054A0000461FEF701FC2046BDE8F0812968164B37
:1054B000164822B201F060414FEA021802EB4204A2
:1054C000B1F1005F03EB840300EB080C07D0AA687E
:1054D000D20754BF0E4A0F4A40F80820CEE7AA6808
:1054E000D10754BF0C4A0D4A40F80820C6E700BF58
:1054F000700C0020480B00204C0B0020DCC7002063
:105500003542000000E100E070C70020DC0B002005
:10551000294300005D4300006D42000095420000F9
:10552000440B00202DE9F04147B2002F00F00F0599
:1055300004464FF00000B4BF80464FF010080E46FE
:10554000FEF7AAFB55B91F4B1B78A34206D01024C7
:105550000020FEF7A9FB2046BDE8F0811A4BDFF8DA
:1055600070E01868DEF80010C043A844012280B241
:1055700002FA08F2084310EA020406D011240020BF
:10558000FEF792FB2046BDE8F0811048DFF844C0EA
:105590002B01A0F1900510EA270738BF2F46F81815
:1055A0000A4384603168F9508023716841608473D4
:1055B000CEF800200020CCF80431FEF775FB204621
:1055C000BDE8F081700C0020480B0020DC0B0020AF
:1055D000440B002000E100E000487047780C0020F8
:1055E000044B40F48070C3F81805BFF36F8FBFF30E
:1055F0004F8F704700700240034BC3F81805BFF38C
:105600006F8FBFF34F8F70470070024000F00F03A1
:10561000072B0BD802060BD40B4A9B001A44506888
:10562000A0F10100B0FA80F04009704700207047F7
:1056300003F58473054A52F82300A0F10100B0FA83
:1056400080F04009704700BF407402400070024083
:10565000064BC3F80C05BFF34F8F40F48070C3F8BE
:105660000C05BFF36F8FBFF34F8F70470070024080
:1056700010B508220021044639F0A0FC0E4BD3F8E7
:1056800080242270D3F884246270D3F88824D3F85D
:105690008C1442EA01226280D3F89024D3F8941447
:1056A00042EA0122A280D3F89824D3F89C3442EA3B
:1056B0000323E38010BD00BF00700240154B1B7830
:1056C000082B07D0144B01221A60BFF36F8FBFF372
:1056D0004F8F7047114B1B681B07F3D1104B1B6892
:1056E00013F0F00FEED10F4B1B6813F0F00FE9D160
:1056F000EFF3108372B6084A01211160BFF36F8F78
:10570000BFF34F8F1160BFF36F8FBFF34F8F83F3E2
:1057100010887047E00F00F04C700240E40F00F07A
:10572000E80F00F0EC0F00F0034B01221A60BFF30A
:105730006F8FBFF34F8F704750700240034B0122B1
:105740001A60BFF36F8FBFF34F8F704754700240E2
:10575000014B1878704700BF700C0020F8B52A4B39
:105760001B78082B044622D00020FEF795FA14F08F
:10577000800F264814BF0022102204F00F04A11845
:10578000036801228A4023EA0203072C036009D838
:1057900004F594741E4B002243F82420BFF36F8F4E
:1057A000BFF34F8F0020BDE8F840FEF77DBA194BDC
:1057B0001B681B07D8D1184B1B6813F0F00FD3D10F
:1057C000164B1D6815F0F005CED12846FEF764FA99
:1057D00014F0800F0D48124F0268124E04F00F04AF
:1057E00014BF0021102163180121994040F2C573B4
:1057F00003EB440422EA010202603C603560284663
:10580000BDE8F840FEF750BAE00F00F0480B00206A
:1058100000700240E40F00F0E80F00F0EC0F00F021
:1058200000780240047802402DE9F04FB74BD3F8DE
:10583000045383B0002D00F0D0800026B6462946E0
:10584000012791FAA1F3B24AB3FA83F39800024414
:1058500007FA03F0146824BB8143F2D1AD4B1B78E7
:10586000082B2ED0AC4F06F4000536F400060ED0FF
:10587000DFF8D0924FF0010896FAA6F4B4FA84F457
:1058800059F8243008FA04F49847A643F4D13B7839
:10589000002B00F0AC80002D40F0AE8003B0BDE8DE
:1058A000F08FC2F800E0BFF36F8FBFF34F8F07FA9E
:1058B00003F3994346EA0306C3D1964B1B78082BA2
:1058C000D0D1964B1B681807CCD1954B1B6813F0B1
:1058D000F00FC7D1934B904F1B6813F0F00FC2D15C
:1058E0003B78002B40F0BE80B10240F1C2808E4A6E
:1058F0008E4BDFF834C2DFF834E240F2A971116058
:105900001968894A11F0FF0118BF1B6840F2AA709C
:1059100018BF1940854B10601A68844812F0FF02C6
:105920001CBF1B681A40804B40F2AB741C600368BC
:1059300013F0FF031CBF0068034040F2AC70CCF8CA
:105940000000DEF80000014079480AD0046840F207
:10595000A9780C430460CCF80080CEF80010DEF883
:105960000010DFF8C4E1714C40F2AD71CEF80010C8
:1059700021680A4009D0016840F2AA7C41EA02414C
:105980000160CEF800C0226022686749674A40F291
:10599000AE740C60126813400ED0DA076249634A95
:1059A00048BF46F40006DC0640F2AB740C6013609E
:1059B000136848BF46F00106036833F001121CBFAC
:1059C00005F080710E4313F0011F3FF44CAF6905E1
:1059D00044BF026046F4806645E74E4B1B78082BB7
:1059E00000F083804C4B1B78002B7FF457AFFEF701
:1059F000CDFE002D3FF452AF4E4C4F4FDFF83CA18F
:105A0000236897F80090DAF800204049DB439BB206
:105A100019F0800F43EA0203D1F8805430D109F025
:105A20000F0808F110020126964033423DD1DFF8FD
:105A3000188101AE05F080056FF001113F483D70FF
:105A4000FEF7DEF92368D8F800200521002543F091
:105A50000103019530468DF804102360904703B090
:105A6000BDE8F08F06F4000536F400067FF400AFC1
:105A700011E706F4000536F400067FF4F9AEB6E748
:105A800009F00F08012606FA08F63342CFD00020AD
:105A9000FEF702F92268DAF8003063EA02013142C7
:105AA00054D101AEDFF8A0801BE00020FEF7F4F82F
:105AB000DAF8003022494FEA081836EA030001EB11
:105AC000080B1ED1226841F80800F64333403240EB
:105AD000CAF8003022600323DFF86C808BF80E30A8
