:1000000000000420E1020000090300000B030000CF
:100010000D0300000F0300001103000000000000AA
:1000200000000000000000000000000013030000BA
:100030001503000000000000170300001903000072
:10004000592B000059E601003DC90100F9C7010024
:100050001B0300001B0300004D2F00001B030000CA
:100060001B0300001B0300001B0300001B03000018
:100070001B03000091C501001B0300001B030000CF
:100080001B030000D50B00001B0300001B03000036
:10009000750C00001B0300001B0300001B03000085
:1000A0001B0300001B0300001B0300001B030000D8
:1000B0001B0300001B030000000000000000000004
:1000C0001B0300001B0300001B0300001B030000B8
:1000D000F9BC01001B0300001B0300001B03000010
:1000E0001B0300001B03000065EA02000000000083
:1000F000000000001B030000000000001B030000C4
:1001000000000000000000000000000000000000EF
:1001100000000000000000000000000000000000DF
:1001200000000000000000000000000000000000CF
:1001300000000000000000000000000000000000BF
:1001400000000000000000000000000000000000AF
:10015000000000000000000000000000000000009F
:10016000000000000000000000000000000000008F
:10017000000000000000000000000000000000007F
:10018000000000000000000000000000000000006F
:10019000000000000000000000000000000000005F
:1001A000000000000000000000000000000000004F
:1001B000000000000000000000000000000000003F
:1001C000000000000000000000000000000000002F
:1001D000000000000000000000000000000000001F
:1001E000000000000000000000000000000000000F
:1001F00000000000000000000000000000000000FF
:1002000010B5054C237833B9044B13B10448AFF350
:1002100000800123237010BD900200200000000028
:10022000309D03000C4B43B10C480D4910B5AFF3A2
:1002300000800C48036823B910BD0A48036833B92D
:100240007047094B002BF7D0BDE810401847064B0C
:10025000002BF5D0184700BF00000000309D0300C0
:10026000940200207002002000000000154B002BBB
:1002700008BF134B9D46A3F5803A00218B460F46DD
:100280001348144A121A2FF077FB0F4B002B00D0A3
:1002900098470E4B002B00D0984700200021040007
:1002A0000D000D48002802D00C48AFF300802FF05D
:1002B000DFFA2000290000F07FFA2FF0B3FA00BF28
:1002C0000000080000000420000000000000000002
:1002D00090020020A0D100200000000000000000DB
:1002E0000649074A074B9B1A03DD043BC858D05008
:1002F000FBDC04F01BFCFFF7B9FF0000849D03004A
:100300000000002090020020FEE7FEE7FEE7FEE787
:10031000FEE7FEE7FEE7FEE7FEE7FEE7074B1B5CB6
:100320001F2B8ABF064A4FF0A04203F01F03D2F8EA
:100330000405D840C04300F0010070471C130300BF
:1003400000030050074B1B5C1F2B86BF03F01F03ED
:1003500005494FF0A041012202FA03F3C1F80C3520
:10036000704700BF1C13030000030050074B1B5CC9
:100370001F2B86BF03F01F0305494FF0A041012248
:1003800002FA03F3C1F80835704700BF1C130300DD
:10039000000300504FF0A04310B44FF480404FF4DE
:1003A00000544FF400414FF48032C3F80845C3F8BD
:1003B0000805C3F80815C3F808255DF8044B704715
:1003C0004FF0A04310B44FF480404FF400544FF46A
:1003D00000414FF48032C3F80C45C3F80C05C3F854
:1003E0000C15C3F80C255DF8044B70470A4B195CDB
:1003F0001F298ABF09484FF0A04001F01F01D0F823
:10040000043501228A4022EA03011340C0F808158E
:10041000C0F80C35704700BF1C13030000030050E8
:100420000B2809D00C2809D0182809D019280CBF8E
:1004300003204FF0FF3070470020704701207047C5
:1004400002207047C20770B40ED483070AD54FF05C
:10045000A0430C22C3F82C27C3F83027C3F8602729
:10046000C3F8642770BC70474FF0A04303224FF4D9
:1004700000564FF480454FF400444FF48031C3F8E8
:100480003427C3F83827C3F83C27C3F84027C3F8FC
:100490000865C3F80855C3F80845C3F80815D4E73C
:1004A00030B585B0044606F0B3F909F084FE0128A2
:1004B00005D9102C37D0112C03D00F2C25D005B026
:1004C00030BD284D06F0A4F9642109F02DFC2C78EC
:1004D000254B26489988264B009314F1FF3404AA33
:1004E00018BF012402F8014D01232C7004F01EFDF9
:1004F0000028E4D01F4B20491B881B04024643F010
:10050000010001F01FFF05B030BD06F081F9642144
:1005100009F00AFC0521154804F0D0FE0028CED0D1
:10052000144B1649E8E706F073F9642109F0FCFB67
:100530000E4804F021FC03280BD0114A114B12780D
:1005400011490A4804F052FC0028B8D0094B0F4961
:10055000D2E7064804F0CAFC0028B0D0054B0C498D
:10056000CAE700BF3B04002014000020AC020020BA
:100570003C0400207C020020C01303002013030071
:100580003A040020C4030020280400208C13030038
:10059000581303002DE9F0410B780C460C2B28D89A
:1005A000DFE803F0073C27556B277B2795A1A4279D
:1005B00029005A4C5A492088000440F0030001F0F9
:1005C0004FFE4FF0A0430021564A4FF48030C3F84D
:1005D0000C05C3F80815544815682FF032FE29465B
:1005E00082B2524B524804F0C7FC0246002840F049
:1005F0008C80BDE8F081494D4E492888000440F0C8
:10060000030001F02DFE2888E38862794A4900043E
:1006100040F00300BDE8F04101F006BF3F4B474901
:100620001888000440F0030001F01AFE4FF0A043C8
:100630004FF480310022C3F80815C3F80C2506F0EA
:10064000E7F84FF47A71BDE8F04109F06DBB334B28
:100650003B4918883B4D3C4F000440F0030001F03B
:10066000FFFDA668F36830687168B2680FC5338A09
:100670002B8023793B70BDE8F081284B33491888E3
:10068000000440F0030001F0EBFD06F0C1F84FF468
:100690007A71BDE8F04109F047BB204D2C4928880C
:1006A000000440F0030001F0DBFD1E4B228B288884
:1006B00028499A80000440F0030001F043FE06F050
:1006C000A7F84FF47A71BDE8F04109F02DBB134D46
:1006D00021492888000440F0030001F0C1FD28886A
:1006E00022791E49E6E70D4B1D49C8E70B4B1D4912
:1006F0001888000440F0030001F0B2FD06F088F80D
:100700006421BDE8F04109F00FBB208816490004C0
:1007100040F00100BDE8F04101F014BE7C02002071
:1007200030140300140000201C0000203C040020B2
:10073000AC020020A4150300E41503008C14030090
:10074000F8130300280400203A04002018150300C1
:10075000B4140300E01403001C1603005816030031
:1007600054150300801503005414030030B50E4BDC
:1007700005461C8883B0084609F01DFD240444F09A
:10078000030403462A462046084901F04DFEAB0506
:1007900008D506F03DF8002300930549054B0422D7
:1007A00009F021FA03B030BD7C0200208C16030052
:1007B00040040020EB9B000000B54FF4004185B0E1
:1007C000002001F0B9FB08B100F0BEF901F03AFBDE
:1007D00000F040FC08B100F0B7F9002301204FF011
:1007E000A041032204E015F4F03F18BF41F8242093
:1007F0000133202B00FA03F503F5E074F3D14FF039
:10080000A04100224FF4F033C1F8083501A8C1F827
:100810000C25012328214FF47A74019203918DF85D
:1008200004308DF80630029405F01AFF1B4805F0DD
:10083000F5FF1B49032003F0FBF908B100F084F930
:1008400005F0E6FF03F03CFB08B100F07DF905F090
:10085000DFFF144A03464BF65901134804F090FA9F
:1008600008B100F071F9114C11483C21012200231C
:100870006180227063702FF0E4FC0D49034682B260
:1008800004F10A00A3802FF052F805F09BFF01F05D
:10089000BDFB0028F9D105F0A1FFF6E76D070000C8
:1008A000A104000095050000AC020020C403002054
:1008B00000000020434B1978002900F081802DE9C9
:1008C000F04F8C4687B00024012503E00134E4B2E8
:1008D000644560D23C4B27B21E6816F837E0AEF193
:1008E000200305FA03F9394BCEF12001D3E90023A7
:1008F00025FA01F149EA010905FA0EF808EA0200B1
:1009000009EA0301014306EBC70BDFD02F4922EAB6
:10091000080223EA09037046C1E9002302F006FB3E
:1009200016F837E0AEF1200205FA02F201920199C1
:10093000CEF12003C6B225FA03F3AEF1200219432B
:1009400006FA02F30393224B0191D3E90023CDE988
:10095000042305FA0EF30093CEF12001039B26FA3F
:1009600001F10B43039306FA0EF30293DDE90467EA
:10097000DDE9002316401F4032463B46DDE90267B1
:10098000BB4208BFB24209D00E4B013493F800C0FD
:10099000E4B264459ED307B0BDE8F08FDBF80430C5
:1009A000002BF1D09BF80110A1F10101B1FA81F106
:1009B0004909091AB1FA81F1490970469847E3E7F4
:1009C000704700BFA0040020D8040020D0040020FD
:1009D000C80400202DE9F8430646204800F0F0FB4B
:1009E000D0B91F4F0123A6F1200103FA01F5C6F18A
:1009F0002002D7E9000123FA02F2154303FA06F4B4
:100A000004EA000205EA0103134307D020EA0404C4
:100A100021EA0505C7E90045BDE8F883304602F044
:100A200085FA104ED6E9008998B148EA040849EAE7
:100A30000509D7E9002314431D43C6E90089C7E926
:100A40000045094B054819680022BDE8F84300F04D
:100A500067BB28EA040829EA0509EAE7A804002098
:100A6000D0040020C8040020A4040020042A01D8D7
:100A7000072070472DE9F04182B00F460546164623
:100A800002F0ECF8002834D01C4C1D4A1D4B1E48C7
:100A90001E49256017707C1E00221E600023C0E9DD
:100AA0000023C1E90023E4B2EFB1DFF86C80002736
:100AB000032601E0FF2C16D023B205EBC30215F884
:100AC000330093788DF80670424601A98DF80460D2
:100AD0008DF8053002F0CCF8013CE4B20028E9D0F2
:100AE00002B0BDE8F0810A4A0A48002100F006FB86
:100AF000F6E702F061F80028C6D0F1E7D80400203C
:100B0000A0040020A4040020C8040020D004002079
:100B1000B5080000BC160300D509000070B5084DEB
:100B20002B785BB1074E00243368012113F83400A1
:100B300002F080F92B780134A342F5D8002070BD73
:100B4000A0040020D804002000B585B00023039045
:100B5000194601AA44F201000193029300F004F83F
:100B600005B05DF804FB00BF10B572B601F008FDDA
:100B700001F04CFA0028FBD1104C114920880004E8
:100B800040F0010001F06CFB0E4B1B68DB0700D549
:100B900000BE20880C49000440F0020001F060FB18
:100BA000BFF34F8F09490A4BCA6802F4E06213434E
:100BB000CB60BFF34F8F00BFFDE700BF7C0200207A
:100BC000C0160300F0ED00E0CC16030000ED00E0DD
:100BD0000400FA05F8B5204A204B0025C2F8405120
:100BE000C2F84451C2F84851C2F84C51C2F8005101
:100BF000C2F804511B6813B31949D2F804450A68B6
:100C0000A41A1A6824F07F44A2422F4609D8197CFE
:100C1000DE69A41A154499B91EB133461A68A24276
:100C2000F5D91049104A0B7812789A420DD00F4925
:100C30000F4A41F823504FF48013C2F80031F8BD39
:100C40001F745A6998699047E6E7531CDBB2022B80
:100C500008BF00230B70EAE700100140FC050020EC
:100C6000F8050020F5050020F4050020EC05002023
:100C700000E100E02DE9F04FB74AB8491378097850
:100C8000994285B033D00133DBB2022B08BF002379
:100C9000B3481370B34A0768DFF8E08252F82320A4
:100CA000D8F80010BB18002423F07F4303602546CA
:100CB0002046A646A9B10B68934200F27D81CC681C
:100CC000C1F800E0D21A1844CB6934B13E1826F0BE
:100CD0007F46CD618C604E600D4619460124002987
:100CE000E9D1002C40F0A5814FF0010B05E0DFF8C1
:100CF0008C820025D8F80010AB469B4B9B4FDFF849
:100D0000809243F0010300930E464FF0000A002D3D
:100D10002DD0D5F804E0D5F808C02C46ED69904BED
:100D200093481B68AEEB030222F07F42824255D803
:100D300002EB0C032360002201206260A260E261EA
:100D40002074002E6BD03068834261D9B64603E030
:100D5000106898424CD29646DEF81C201B1A002AD6
:100D6000F6D12360E261CEF81C40002DD1D197F876
:100D700001C097F800E0F44571D0734603EB4303DC
:100D80000EF10100BA7807EBC3035FFA80FE7245EB
:100D9000187987F800E004BF4FF0000E87F800E0F4
:100DA00002289A684CD003283DD00128E3D1107C5A
:100DB0000028E0D1D3F80CE0C2F804E0D3F810C06A
:100DC000C2F808C014465A69E26099F800209B698D
:100DD000A361002AA3D060608646A0E7A3EB0E03C0
:100DE00023F07F4363450AD2ACEB03032360A2E701
:100DF000C01A10602360E261CEF81C40B5E7002302
:100E0000012223606360A360E36122743EB1306815
:100E1000C8F80040C31A3360E661264677E7C8F891
:100E20000040264673E7002EA5D0002200E01E46B3
:100E3000F3693274002BFAD1C8F800301E4696E7E9
:100E40004EB1B242344603D1BDE09A4260D01C4656
:100E5000E369002BF9D100231374F4458DD1BAF165
:100E6000000F02D18E4200F09D80002E00F0C58060
:100E70003B4B404A1C68D2F80475DFF80881D6F86D
:100E800000A098F800103B1B23F07F43DD1CA9B99C
:100E90003949354B4FF48030C2F844030126C2F87B
:100EA00004034FF40030C1F8800143F001030860EF
:100EB00016604FF43C60984788F80060AA452CBF44
:100EC00004EB0A0363192B4923F07F43C1F8403533
:100ED000D1F80425D21BDB1B22F07F4223F07F4395
:100EE00003329A420ED9204BD1F80425C1F840258F
:100EF00043F001034FF43C6098471F4B4FF400321E
:100F0000C3F80021002389F8003005B0BDE8F08F58
:100F1000A24239D0D2F81CE01368C4F81CE0BEF13C
:100F2000000F11D03046DEF800402344CEF80030E8
:100F3000864209D0002397F800E097F801C01374A7
:100F400006464FF0010A88E7002397F800E097F87B
:100F500001C0137481E700BFF4050020F5050020EF
:100F6000F8050020EC050020E0160300DC0400205A
:100F7000FEFF7F000010014000E100E0FC050020C2
:100F8000E8050020E90500201346F069C8F80000D4
:100F9000D8B1D3F81CE01B68C4F81CE0BEF1000F08
:100FA000C1D1C5E7BBF1000F7FF45FAF002389F823
:100FB000003005B0BDE8F08F002C3DD19B1A0B60CE
:100FC0004FF0010B99E63346DFE701931C4BDFF846
:100FD0007CC003924FF0010E0291C3F808E0009B21
:100FE000CCF8000089F800E04FF43C609847D8F84E
:100FF0000000019B0299039ACBE7114D114A124C54
:101000004FF480334FF400310127C2F880103C4385
:10101000C5F848334FF43C60C5F808336F60A0470B
:101020000A4BAF604FF43C601E60A047084B1E7037
:1010300068E7C8F8001057E6C8F80010BEE700BF20
:101040000010014000E100E0E0160300F805002078
:10105000E90500202DE9F8431F4D204E204FDFF811
:1010600098804FF480334FF400324FF00109002490
:10107000C6F8802047EA0907C5F848334FF43C60BA
:10108000C5F80833C5F80490B847C5F808904FF480
:101090003C60C8F80040B847124B13481349144A43
:1010A0001C70144B04600C7014704FF48011E0221B
:1010B0000B2098701C705C70C6F8801186F81423A1
:1010C0003160C5F8084586F81123D5F80435C8F80D
:1010D00000302046BDE8F8830010014000E100E048
:1010E000E0160300E9050020FC050020F4050020BF
:1010F000F5050020DC040020F8050020074B9B7854
:101100000BB9082070473AB130B10368187C002849
:10111000F7D159745A61704707207047DC040020EA
:101120002DE9F041234CA37813B90820BDE8F081E4
:101130000028FAD0042902D80720BDE8F0814369CD
:10114000002BF2D0437C0546012B4FF000000CBF72
:101150008846804617460E4600F068F86378A07807
:1011600021785A1CD2B2904208BF002291421AD074
:1011700003EB430304EBC30301200F499D60187187
:10118000D1F80415D9601E61C3F814809F61002056
:10119000627000F053F8094B4FF48012C3F800213D
:1011A0000020BDE8F081002000F048F80420BDE8F0
:1011B000F08100BFDC0400200010014000E100E0ED
:1011C00070B5184DAB780BB9082070BD0028FBD066
:1011D0004369002BF8D0002404740646204600F032
:1011E00025F86A78A8782978531CDBB2984208BFA2
:1011F0002346994211D002EB420205EBC2020221C2
:101200002046966011716B7000F018F8064B4FF491
:101210008012C3F80021204670BD204600F00EF871
:10122000042070BDDC04002000E100E072B6024A38
:10123000136801331360704700060020034A1368E7
:10124000013B136003B962B6704700BF000600207F
:101250000B685A1EFF2A02D948F207107047202B4C
:10126000F0B516D802220023154C164F54F8224030
:101270003E68082B26FA03F234BF80254FF48075B0
:10128000D2070FD401330C2B2C44F2D148F20410B6
:10129000F0BD402BE6D9802B8BBF0322022208230E
:1012A0000023E1E74FF0010E074A0EFA03F326EAA6
:1012B0000306144404603E6000200D60F0BD00BFD2
:1012C000E81603000406002008060020054A064927
:1012D00013686FEA13336FEA033301200870136059
:1012E0000020704704060020080E002000B50A4BBD
:1012F00083B01B780190002200921BB9002003B03C
:101300005DF804FB01A96846FFF7A2FF0028F5D1AC
:10131000009803B05DF804FB080E0020284B1B78F2
:1013200083B378B3274B984239D003F180029042BF
:1013300033D003F5807290422DD003F5C0729042F5
:101340002FD003F5007290422DD003F52072904209
:101350002BD003F54072904229D003F56073984278
:1013600027D08033984226D003F58072904224D053
:1013700003F50072904206D003F54073984208BF0F
:101380000B2001D070470A200F4901220B688240D0
:1013900013430B6070470220F6E70120F4E70020BA
:1013A000F2E70320F0E70420EEE70520ECE7062053
:1013B000EAE70720E8E70820E6E70920E4E700BFBE
:1013C000080E0020080600200406002000B550E8A2
:1013D000002F0B4640E8003E9EF0000FF7D110466C
:1013E0005DF804FB00B550E8003F03EB010240E864
:1013F000002E9EF0000FF6D110465DF804FB00BFF2
:1014000000B550E8003FA3EB010240E8002E9EF03B
:10141000000FF6D110465DF804FB00BF00B50123B4
:1014200050E8002F42EA030E40E800E191F0000F7F
:10143000F6D170465DF804FB00B5002350E800EFDC
:101440000EEA030240E8002191F0000FF6D1704649
:101450005DF804FBB8B130B4416882680468521A80
:10146000D2B2531E2160DBB242B101680A685C1E31
:10147000551C0D601370E3B2FF2BF6D103680020FA
:10148000187130BC70470E20704700BF70B504461D
:101490000020FFF7CBFE236861681A688A4215D9DD
:1014A000511E19602168A3680D680879A68A12F890
:1014B000012CE4685B1BDBB2984206FB024400D2BD
:1014C0000B710020FFF7BAFE204670BD00240020FB
:1014D000FFF7B4FE204670BD38B5054600200C4627
:1014E000FFF7A4FE2A681368591C1160E968AA8AEC
:1014F000641AB4FBF2F41C700020BDE83840FFF71A
:101500009DBE00BF826802B9704710B504464369AA
:101510000168006998470023A36010BD0EB400B5B0
:1015200082B0039929B102AA04AB42F8043D00F04D
:1015300095F802B05DF804EB03B070472DE9F84F61
:101540001746B942884606461D46DDF828B00B9A74
:101550007DD30B464FF00109B3FBF7F39F4209F12E
:101560000109F9D9A94538BFA94612F0010A02D1EB
:10157000BBF1000F49D1B268012402E0013D07FB35
:1015800004F4012DFAD8B8FBF4F18F42F7D9324DAB
:1015900005E0B4FBF7F4A4B1B8FBF4F1B268685C01
:1015A000531CB36033689854B26873689A4204FB62
:1015B0001188EED33046FFF7A5FFB4FBF7F4002CFB
:1015C000EAD1BAF1000F16D0BBF1000F33D0CB45F2
:1015D00088BF20243ED9B3683268591CB160D45406
:1015E000B26873689A420BF1FF3B06D2BBF1000F61
:1015F00009D0D945EFD1BDE8F88F3046FFF782FF1B
:10160000BBF1000FF5D1BDE8F88F93071AD4202461
:10161000CB45B0D9B2683368511CB1609C54B268F4
:1016200073689A420BF1FF3B07D2BBF1000FA3D0C6
:10163000CB45F0D1A0E7BDE8F88F3046FFF762FF59
:10164000B268F2E7002D0CBF30242024E0E74FF011
:10165000010987E7BDE8F88F10170300002900F0A3
:101660006F822DE9F04F064685B093460C460B7805
:101670000DE0B2683168501CB0608B54B26873687A
:101680009A4280F0D3802378002B00F0BA80013496
:10169000002B00F0B680252BEBD14FF0000823463D
:1016A00014F8012B2D2A00F0BB80302A00F0BB80FB
:1016B0002B2A00F0AD802A2A00F0BC80A2F1300570
:1016C000E9B2092998BF013302D9A9E1A1F1300596
:1016D0001C4613F8012BA2F1300005EB8501092807
:1016E00002EB4101F2D92E2A00F0B080002701E080
:1016F00014F8012F02F0FB03682BF9D0253A532A86
:101700007AD8DFE812F07A0179007900790079005F
:101710007900790079007900790079007900790001
:1017200079007900790079007900790079007900F1
:1017300079007900790079007900790079007900E1
:1017400079007900790079007900790079007900D1
:1017500079007900790079007900790079007900C1
:101760007900790079007900790079006A017900BF
:1017700079007900790079007900790079007900A1
:1017800079005501FC007900790079007900FC00AE
:1017900079007900790079007900790054007900A6
:1017A0007900CA007900BA00790079006A01DBF893
:1017B0000020131DCBF80030B368156831685A1C3F
:1017C000B2604FF03002CA54B3687268934280F03E
:1017D000A0813268581C7821B060D154B268736817
:1017E0009A4280F0928100220823019229460093B8
:1017F00010223046FFF7A2FE01342378002B7FF43D
:1018000046AF337B002B40F0058105B0BDE8F08F7B
:10181000234614F8012B2D2A48F004087FF445AF25
:1018200048F001083BE748F0020838E73046FFF788
:1018300069FE28E7DBF80020111DCBF800101568C1
:101840005A782E2A03F101047FF450AF6278A2F196
:101850003003092B04F101044FF000073FF64AAFB3
:1018600007EB870702EB470714F8012FA2F13003BB
:10187000092BA7F13007F3D93CE7DBF800301A1D3C
:10188000CBF800201968CDF804803B4600950A2269
:101890003046FFF753FE0134AFE7DBF800301A1D86
:1018A000CBF8002018F0010FD3F8009040F0BB8077
:1018B000B9F1000F00F0478148462EF0C2FC074600
:1018C000BD4240F2F180002D00F0EE804FF0200884
:1018D00005E0BD4200F0E880002D00F0E580B3682F
:1018E0003268591CB16002F80380B26873689A428A
:1018F00005F1FF35EDD33046FFF704FEE9E7DBF8ED
:1019000000301A1DCBF80020D3F8009089EAE97363
:10191000A3EBE973092B4FF0010A09DD8F4A82FB23
:101920000312DB17C3EBA203092B0AF1010AF5DC52
:10193000BA4538BFBA462DB3B9F1000F02DB18F033
:10194000040F00D0013D18F0020F40F0F58018F0B0
:10195000010F17D1002D00F0FE80AA4538BF2021CD
:1019600010D2B2683368501CB0609954B268736882
:101970009A4205F1FF3580F0E880002D00F0EB8001
:10198000AA45EED1B9F1000FC0F2C88018F0040FDB
:101990007BD108F00303022B00F09A808DE8200130
:1019A0003B4649460A223046FFF7C8FD013424E78A
:1019B000DBF80020131DCBF80030B36831681278D3
:1019C000581CB060CA54B26873689A42FFF414AFEE
:1019D0003046FFF797FD01340FE7DBF800301A1DA2
:1019E000CBF800201968CDF804803B460095102202
:1019F0003046FFF7A3FD0134FFE6B3683268591C97
:101A0000B1604FF02501D154B26873689A42DFD2B9
:101A10000134F2E6304605B0BDE8F04FFFF772BD85
:101A20001C4600255FE64F46A7EB090817F8013B67
:101A30008BB1B2683168501CB0608B54B268736867
:101A40009A42F1D33046FFF75DFDA7EB090817F87E
:101A5000013B002BEDD145457FF6CEAE202705E0BA
:101A600045453FF4C9AE002D3FF4C6AEB3683268B9
:101A7000591CB160D754B26873689A4205F1FF35BA
:101A8000EED33046FFF73EFDEAE7B2683368501CFC
:101A90002B21B0609954B26873689A42FFF479AF11
:101AA0003046FFF72FFD74E709F1FF3919F8013FC0
:101AB000002B3FF4A1AEB2683168501CB0608B546B
:101AC000B26873689A42F1D33046FFF71BFDEDE729
:101AD000002F7FF463AF002D33D0AA45BFF45EAF73
:101AE000B2683368511CB1604FF030019954B2684C
:101AF00073689A4205F1FF3503D215B3AA45EFD1B9
:101B00004CE73046FFF7FEFCF7E73046FFF7FAFCFC
:101B100069E63046FFF7F6FCB3685AE6B268336808
:101B2000501C2D21B0609954B26873689A42C9F173
:101B30000009FFF42EAFB3E7002F3FF423AF06E711
:101B4000704700252AE74F46BAE630460391FFF773
:101B5000D9FC039911E7002514E700BF67666666A4
:101B6000FFF778BC2DE9F041B0F81480CF1CA8F144
:101B7000040847440646B7FBF8F7FFF787FC80B335
:101B8000FFB200250123013F0446A0F8068006604D
:101B90000571437128D0804609E06379AF4203F1B3
:101BA00001036371C8F80000066080461CD030460F
:101BB000FFF76CFC01350028EFD16679721E16D054
:101BC0002346013082421B68FBD81F684EB1214674
:101BD00000250C6801353846FFF77EFCAE422146F1
:101BE000F7D10020BDE8F0812046BDE8F0812768EC
:101BF000EDE700BF04300121FFF7F4BBF8B5012188
:101C000004460430FFF7FCFBC0B200B1F8BD6679B2
:101C1000721E12D02346013082421B68FBD81F6817
:101C2000002EF3D0214600240D6801343846FFF71A
:101C300053FCA6422946F7D1F8BD2768F2E700BF5A
:101C40002DE9F843C68804330F46B3FBF6F59046FA
:101C500006FB1533044615B1013D2468FCD1F51A85
:101C6000454528BF4546B8F1000F15D04FF0000993
:101C70000433E018A8EB05082A4607EB09012DF00C
:101C800056FE4645A944246835464FF0000328BF58
:101C90004546B8F1000FEBD1BDE8F8832DE9F843D4
:101CA000C68804330F46B3FBF6F5904606FB1531A4
:101CB000044615B1013D2468FCD1751A454528BF7D
:101CC0004546B8F1000F15D04FF00009043121440A
:101CD000A8EB05082A4607EB09002DF028FE46452B
:101CE000A944246835464FF0000128BF4546B8F1A5
:101CF000000FEBD1BDE8F883704700BF00B583B09B
:101D0000044B0093044A402300F036F803B05DF81A
:101D100004FB00BF1D1D00000C0E002002B32DE9C6
:101D2000F843114B114E8846144643F0010903272E
:101D30000025224608EB0501002002F09DFD034628
:101D40001D444FF47A40E41A23B9337833B1C847BD
:101D5000013F06D001233370002CEAD1BDE8F8839F
:101D600070473770BDE8F88320170300090E002084
:101D7000704700BF02F0AABEF0B595B0002415462A
:101D80000F4608461E46FFF735FF38462346082211
:101D9000089505A91A9D09960D950A948DF82C4071
:101DA0000C94FFF77BFF9DF81430079806998DF887
:101DB000114003F00302012A0290039128D0022A65
:101DC00004D03846FFF71AFF15B0F0BDBDF8165025
:101DD000C3F3C2038DF81030C5F389150826082D0A
:101DE0002C4628BF0824334622460EA93846FFF762
:101DF00055FF2D1B214608AB02AA0EA8264400F071
:101E000079FC002DEBD13846FFF7F8FE15B0F0BD98
:101E1000BDF81460059DC6F38316C3F3C204B20077
:101E20000EA9384608238DF81040C5F39525FFF715
:101E300035FF08AB0093324628460EA902AB00F0EE
:101E4000B3FBBEE710B5054CFFF794FF2046042115
:101E500000F06AFB0123637210BD00BF3400002054
:101E6000F0B5334D85B005F58360FFF7D7FA05F27D
:101E70001440FFF7D3FA6A68AF6802EA0701CB1C87
:101E800005EB8303541C187810F0030F00F00306D1
:101E90000ED010F0040016D0012E37D0022E02F121
:101EA0000200ECD15A8800EB921202EA0701E6E741
:101EB0004007F1D459881A8804EB911404EB92126C
:101EC00002EA0701DBE705EB8101531CC9680191B8
:101ED0003B4005EB830301F00301DB68029301291A
:101EE00002F102041CD0022918D1BDF80630BDF859
:101EF0000A60C3F38913033304EB93040D48FFF71F
:101F00009BFA00B16C60304605B0F0BD1B88023210
:101F1000C3F383131A4402EA0701B0E70646EDE76C
:101F2000BDF80430BDF80A60C3F383131C44E5E731
:101F30001C0F00203013002008B50E4B0E48002265
:101F4000FF21C3F8182499601A605A60C3F814245A
:101F500083F82024FFF704FE58B9084A084BD21A28
:101F6000D20806D00749034621F8233001339A42AC
:101F7000FAD108BD1C0F0020649D0300649D03007E
:101F8000349D03007402002021B9124A02EBC00004
:101F90000068704730B410490E4D491BC9080ED077
:101FA0000E4B5A88824218BF002205D10FE0DC8810
:101FB000844203F1040305D001329142F7D100209D
:101FC00030BC704705EBC200006830BC7047284643
:101FD000FAE700BF349D0300649D030074020020F3
:101FE000094B013903EBC00003290BD8DFE801F0EE
:101FF0000208060402207047407970470079704754
:102000000420704700207047349D03002DE9F047FD
:102010008E4C94E80C009A4284B061D00023C4F83E
:102020001834BFF34F8F6368A56827680EE011F07E
:10203000040623D001F0030101294BD0022903D16A
:102040005288023303EB92139F4212D903EA050030
:10205000C21C04EB820211788E07E8D14807E9D44C
:1020600051881288013303EB911303EB92139F42C3
:10207000ECD80020676004B0BDE8F08704EB800076
:102080005A1CC16801912A4004EB820201F003014D
:10209000D2680292022903F1020825D0012972D0E8
:1020A000D4F8105435B12B6828469B6898476D6862
:1020B000002DF8D1664B67491888000440F00200F3
:1020C00000F0CEF860682368C01A18BF012004B081
:1020D000BDE8F08712880233C2F383121344B3E7DA
:1020E000002004B0BDE8F087BDF806305A48C3F3BD
:1020F0008919B9F1500FCA46A8BF4FF0500A6AF3C8
:102100008F130AF10801ADF80630FFF72BFD0746E3
:102110000028C5D0FFF76EFD334625EA08060136D4
:10212000082201A93846B600FFF78AFDB2457FD9DB
:10213000002E68D15246082348493846FFF780FDF3
:1021400009F1030608EB9606D4F81834002B56D193
:10215000D4F810544DB16B7A3946284613B12B6828
:102160001B6898476D68002DF5D13846FFF746FD8E
:102170000020FFF75BF8D4F8183403B9666000203C
:10218000FFF75CF89EE7BDF804303348C3F38312D1
:10219000062A28BF0622911C62F389138900ADF834
:1021A0000430FFF7DFFC074600283FF479AFFFF764
:1021B00021FD3346082201A93846FFF741FDBDF84D
:1021C000043013F4707F3ED0B2464FF0080905EAA0
:1021D000080103314B4604EB810104223846FFF726
:1021E0002FFDBDF804300AF1010AC3F3831308F18F
:1021F0000106534509F10409B046E8D8A4E738467A
:10220000FFF7FCFC5EE705EA08010331AAEB0605CF
:1022100004EB810132463846EDB20823FFF710FD8A
:102220002A4606F108030D493846FFF709FD87E7FE
:1022300005EA0801033104EB8101524608233846C0
:10224000FFF7FEFC7CE746467EE700BF1C0F002040
:102250007C02002034170300649D0300280F002037
:102260002DE9F843DFF8D890074600208846D9F8D2
:102270000850FEF7DBFFD9F80820D9F80430D9F868
:102280000060134401339B1B012B55D809F21C44F9
:1022900001212046FFF7A6F8FFF7E2FD01462046A0
:1022A000FFF7A0F899E80A00D9F808201344013391
:1022B0005B1A012BECD901240A40033244F00403D9
:1022C0006FF3891349F8223002310020C9F8001059
:1022D000FEF7B4FF00211948FFF778F880F31000EB
:1022E00033192B4009EB830300043540033540EAE2
:1022F0001740D86019F8253067F3C50309F8253071
:1023000039F825306FF3891329F8253059F825203D
:1023100068F39F22134664F301036FF3820349F8C5
:10232000252009F8253099F820341BB1FFF76EFEFF
:102330000028FBD1BDE8F8833146BCE73813002004
:102340001C0F00202DE9F047354C804600209246B6
:102350008946A568FEF76AFFA26863682768134488
:102360000133DB1B022B59D804F21C4601213046F5
:10237000FFF738F8FFF774FD01463046FFF732F8F3
:1023800094E80A00A268134401335B1A022BEDD9CA
:1023900001260A40033246F0040366F3891344F829
:1023A0002230033100202160FEF748FFBB1C2B4088
:1023B00004EB830300211B48C3F80CA0FFF706F8C9
:1023C00080F31000BB192B4004EB830300043D4055
:1023D000033540EA1840D86014F8253068F3C50387
:1023E00004F8253034F8253066F3891324F82530B5
:1023F00054F8252069F39F22134666F301036FF317
:10240000820344F8252004F8253094F820341BB1C9
:10241000FFF7FCFD0028FBD1BDE8F0873946B7E7A0
:102420001C0F0020381300202DE9F04F3C4C83B0E6
:1024300080460020934601938946A668FEF7F6FE83
:10244000A2686368276813440133DB1B032B64D83D
:1024500004F21C4501212846FEF7C4FFFFF700FDEA
:1024600001462846FEF7BEFF94E80A00A26813441E
:1024700001335B1A032BEDD901250A4003324FF0DB
:10248000020A45F0040304316AF38913002044F87A
:1024900022302160FEF7D2FE07EB0A0EFA1C0EEA8C
:1024A000060E324004EB820204EB8E0E019B1D48A7
:1024B000CEF80CB00021D360FEF788FF80F3100047
:1024C0007A19324004EB820200043E40033640EAAF
:1024D0001840D06014F8262068F3C50204F82620BE
:1024E00034F826206AF3891224F8262054F826208E
:1024F00069F39F22134665F301036FF3820344F8E7
:10250000262004F8263094F820341BB1FFF77EFD16
:102510000028FBD103B0BDE8F08F3946ACE700BF1F
:102520001C0F00203813002030B4144DD5F810448F
:10253000002154B1237A8B4213D0234602E01A7A49
:102540008A420ED05B68002BF9D10172D5F81034A5
:102550007BB15B684360D5F810345860084630BCE6
:10256000704701310A29E4D14FF0FF31084630BCF1
:102570007047C5F810044360F0E700BF1C0F00204F
:1025800038B5084BD3F81044012583F820543CB1EA
:102590002368657220465B6898476468002CF7D111
:1025A00038BD00BF1C0F00202DE9F04784B01D4648
:1025B0000C9C002394F80C802373EB8881460E4614
:1025C0001746002B3BD1297A05290FD06B7A002BB7
:1025D0003DD1404BA88853F821A00021FFF7D4FC3F
:1025E000524603463C492046FEF798FF062F0FD877
:1025F000DFE807F0484D535A04633900F168B068CA
:1026000096E80C000191009049462046FEF786FFAF
:102610002B7A052B05D06B7A5BB930492046FEF743
:102620007DFF2046FEF76EFF84F80C8004B0BDE805
:10263000F0872B4A2B492046FEF770FFEDE7284A2A
:1026400000922949294A2046FEF768FFBBE7A8887F
:10265000FFF7C6FC264B234953F820202046FEF7FF
:102660005DFF297AB5E77069316996E80C0003903F
:10267000B068F76802918DE8810049462046FEF770
:102680004DFFC5E749462046FEF748FFC0E73268E0
:1026900049462046FEF742FFBAE7494696E80C0055
:1026A0002046FEF73BFFB3E7B16896E80C002046F2
:1026B00000914946FEF732FFAAE7B068F768316932
:1026C00096E80C0002918DE8810049462046FEF70D
:1026D00025FF9DE7CC170300C01703005416030025
:1026E000B817030070210300A01703009817030018
:1026F00060170300082900D970472DE9F04F1D46E7
:10270000904600232A7B2B7385B0B8F806300392DD
:1027100007460E46002B6BD198F80810052911D0FA
:1027200098F80930002B6BD13C4BB8F8040053F8F3
:1027300021400021FFF728FC22460346384928465D
:10274000FEF7ECFEDFF8F8B0DFF8F8900024A642C0
:10275000494628463ED93A5D0134FEF7DFFE082C93
:10276000F5D13049DFF8E090DFF8E0B02846FEF719
:10277000D5FE002411E017F804A02DF0A1F8504474
:102780005946437813F0970F14BF52462E2228461D
:102790000134FEF7C3FE082C08D0A642494628465D
:1027A000E9D80134FEF7BAFE082CF6D198F80830C3
:1027B000052B02D098F80930A3B91B492846FEF72B
:1027C000ADFE2846FEF79EFE9DF80C302B7305B03B
:1027D000BDE8F08F013459462846FEF79FFE082CCD
:1027E000B5D1BEE7114A12492846FEF797FEE4E745
:1027F0000E4A00920F49104A2846FEF78FFE8BE7DB
:10280000B8F80400FFF7ECFB0C4B094953F8202003
:102810002846FEF783FE98F8081085E7CC170300DA
:10282000C01703009017030054160300B8170300E5
:1028300070210300A017030098170300601703001E
:102840008C17030084170300C817030094170300B4
:1028500010B568B101280AD10C4C2369A07033B1BE
:102860000CCB0120226198472369002BF8D110BDC1
:10287000064CA36801226270002BF8D00CCB00201C
:10288000A2609847A368002BF8D110BD4013002028
:1028900010B50B4C237882B013B1852002B010BD67
:1028A00008486360A3602361E36000F0E9F80190E9
:1028B00000F0F4F801980123237002B010BD00BFAE
:1028C000401300205128000038B5154DAB78044660
:1028D00073B110B14368012098470020FEF7A6FCB1
:1028E000EB680133EB600020BDE83840FEF7A6BC82
:1028F00003F0FF00FEF79AFC64B12A6942B19442EA
:1029000008D0134601E09C4204D01B68002BFAD18A
:1029100022602C61EB68002BE2D100F0D3F8DFE7F6
:102920004013002038B5084C0020FEF77FFCE36818
:10293000013BE360E56815B900F0DCF8A570002004
:10294000BDE83840FEF77ABC401300204FF08043CA
:10295000D3F81804C0F30040704700BF38B5154DD8
:102960006B78044673B110B143680020984700208B
:10297000FEF75CFC6B6801336B600020BDE83840FB
:10298000FEF75CBC03F0FF00FEF750FC64B1AA68E0
:1029900042B1944208D0134601E09C4204D01B6827
:1029A000002BFAD12260AC606B68002BE2D100F002
:1029B000ADF8DFE74013002038B5084C0020FEF7E3
:1029C00035FC6368013B6360656815B900F0B0F8D9
:1029D00065700020BDE83840FEF730BC4013002091
:1029E0000A4A0223C2F80435BFF36F8FBFF34F8F3B
:1029F000C2F80805D2F80034002BFBD00023C2F83F
:102A00000435BFF36F8FBFF34F8F704700E0014075
:102A10009AB32DE9F047194CA0EB01080D468E182A
:102A2000C0004FF0FF0C4FF0010E002708EB05022D
:102A300022F0030200F01809116815F8013BC4F8F0
:102A400004E50CFA09FA21EA0A01BFF36F8FBFF31C
:102A50004F8F03FA09F30B441360D4F80034002BB2
:102A6000FBD0C4F80475BFF36F8FBFF34F8FAE4236
:102A700000F10800DAD1BDE8F087704700E00140BE
:102A8000054A13790BB185207047012110605371FD
:102A900018461171704700BF54130020084B1A6884
:102AA000D20706D40122E02183F80013C3F8802165
:102AB0001A604FF080430122C3F81825704700BF09
:102AC00000E100E010B4094B094A0021196083B00D
:102AD0001B680193019C4FF0804102200123C1F843
:102AE0000403136003B05DF8044B70470401004019
:102AF00008000040044B01221A604FF08042D2F8D7
:102B00001834DB03FBD470470C000040074B002255
:102B10001A6082B01B68019301994FF08043012233
:102B2000C3F804231A6002B0704700BF00010040E0
:102B3000074B01221A604FF08042D2F80C3403F0A8
:102B40000113B3F1011FF8D0024B00225A717047F4
:102B5000040000405413002010B5144B1A6882B0D2
:102B600062B10021124A19601B68507900934FF03E
:102B700080410123009CC1F8083390B10D4B1A68C5
:102B80006AB100221A601B6801934FF08042022153
:102B9000074B0198C2F808131B680120984702B040
:102BA00010BD116853718847E8E700BF000100407D
:102BB000541300200401004070B5244C94F86A506E
:102BC00082B015B1082002B070BD4FF0FF33294626
:102BD000FF26062204F1640023636363A363E363B7
:102BE00023646364A364E36423656365A365E365A9
:102BF00023606360A360E36023616361A361E361B9
:102C0000236284F860306362A36284F86230E36216
:102C100084F8633084F861602CF0AEFE0C4B0D4AF2
:102C20000D4E15604021E02083F80603C3F88011A3
:102C300019601368019301994FF00043012228465F
:102C400084F86A20C6F8043302B070BD5C1300201B
:102C500000E100E07C61004000600040034B93F81D
:102C60006A00003018BF0120704700BF5C130020CD
:102C7000F0B56D4C231893F93050002D01DB08207E
:102C8000F0BD91F802E0CEF3400EBEF1000F50D03F
:102C90002568013500F0C2800125082654F825304A
:102CA00001334CD06B1C54F82370013748D0AB1C57
:102CB000B3423CD254F82370013741D0EB1CB342ED
:102CC00035D254F8237001373AD02B1DB3422ED29F
:102CD00054F82370013733D06B1DB34227D254F818
:102CE000237001372CD0AB1DB34220D254F823708F
:102CF000013725D0EB1DB34219D254F823700137A8
:102D00001ED005F10803B34211D254F823700137E5
:102D100016D005F10903B34209D254F823700137E4
:102D20000ED00A35B54202D2E36A013374D00420D2
:102D3000F0BD256A01353AD009250C26AEE72B46B1
:102D400026185DB244F8232086F83050BEF1000FFB
:102D500033D08B785A071CD4DE074ED51F2887BF87
:102D6000324B00F01F0202464FF0A04303EB8203F8
:102D7000D3F8002722F00202C3F800272C4EC20825
:102D800000F0070EB75C012303FA0EF33B43B35484
:102D90008B7813F0020314D1083D2C44097894F881
:102DA000602042EA811284F860201846F0BD0826AF
:102DB00083F83060354622623346234483F8580056
:102DC000C7E7AD0005F1804505F5C0450A78D5F89F
:102DD000101521F44F3121F44071C5F8101503028C
:102DE0001204D5F8101502F4403203F47C53134357
:102DF0000B43C5F810350020F0BD1F284A7887BF67
:102E00000A4E00F01F0303464FF0A04603F5E0739F
:102E1000920046F82320B1E70B2391E700252260BA
:102E200083F8305095E700BF5C130020000300508A
:102E3000C0130020F0B43A4D2E1882B096F930300D
:102E4000072B20DD2B4493F858309B09032B45D0EA
:102E5000012B14BF4FF440314FF400311F284DD9DE
:102E600000F01F002F4B03EB8000D0F8002722F466
:102E70004032C0F80027D0F800370B43C0F80037C5
:102E800002B0F0BC7047DAB2072AF9D8980000F116
:102E9000804000F5C04003F140029200D0F8104598
:102EA00092B202F18042002744F0010402F5C042D0
:102EB000C0F810450197019817600029E0D096F9F5
:102EC000302055F82220002ADAD00122164902FAD1
:102ED00003F3C1F8043302B0F0BC70471F2810D9C7
:102EE000104BD3F8103500F01F00C340DB0748BF7C
:102EF0004FF44031B6D44FF40031B3E74FF0A04364
:102F0000B1E74FF0A0421346D2F81025C24012F0AC
:102F1000010F14BF4FF440314FF40031A3E700BF5D
:102F20005C13002000030050006000401F288ABF8F
:102F3000054B4FF0A04300F01F00D3F8103523FAE3
:102F400000F000F001007047000300502DE9F04749
:102F500088B00023CB4A039302931168012900F043
:102F6000A8821E46C84B1A68012A00F09482C74BFB
:102F70001A68012A00F08182C54B1A68012A00F004
:102F80006E82C44B1A68012A00F05B82C24B1A6839
:102F9000012A00F04882C14B1A68012A00F03582EC
:102FA000BF4B1A68012A00F02282BE4B1A68012A20
:102FB00000F00C8216F0FF0F1AD0BB4F0125002441
:102FC000A30003F180432E4203F5C0434FEA4505B9
:102FD0000BD0D3F8100557F82420D3F81015C0F300
:102FE0000520C1F3014102B190470134082CE7D11B
:102FF000002E02DB08B0BDE8F0870DF110080022BA
:103000004FF0FF33A84CA94FC8F804200492069350
:103010000793012694F960305A1C21D05FFA83FE91
:103020002EF0C00008AB4FEAD00903EB090C0EF0FC
:1030300007031CF8082C06FA03F31A4040F0388105
:1030400094F96110481C00F06A8215460DE0022ACE
:1030500006D1032900F06082002D00F03682A847D7
:1030600094F961104A1C51D00025CBB223F0C00066
:1030700008AA4FEAD00C02EB0C0E03F007011EF871
:10308000082C06FA01F912EA090F4CD194F96210E2
:10309000481C11D0CBB223F0C00008AA4FEAD00CD4
:1030A00002EB0C0E03F007011EF8082C06FA01F9DA
:1030B00012EA090F40F0AD8094F963305A1C0FD02A
:1030C000DBB223F0C00008AA4FEAD00C02EB0C0ED2
:1030D00003F007021EF8081C06FA02F211425AD148
:1030E000002D87D04FF0A0430299D3F81035D7F8C0
:1030F0001025994203D1039991423FF47BAF049884
:103100000599029303920690079183E794F9621060
:103110004B1C01D00025BDE794F963305D1C3FF4E2
:1031200069AF0025CCE72218990992F9302054F8AC
:103130002220002A00F02381032900F023811F2888
:1031400000F20C8184464FF0A04303EB8C031EF881
:1031500018CCD3F800E71CEA090FCEF3014E40F07B
:10316000F380BEF1030F91D103290FD14FF4003E3C
:10317000D3F800C72CF4403CC3F800C7D3F800C70D
:1031800001354EEA0C0EEDB2C3F800E7002A3FF419
:103190007DAF90477AE704EB0009990999F93090DF
:1031A00054F82990B9F1000F00F0FD80032900F0D8
:1031B000FD801F288BBFBC464FF0A04C03F01F03BF
:1031C00003460CEB83031EF818CCD3F800E71CEA87
:1031D000020FCEF3014E40F0A680BEF1030F7FF444
:1031E0007FAF032940F0A6804FF40032D3F800E708
:1031F0002EF4403EC3F800E7D3F800E7013542EA79
:103200000E02EDB2C3F80027B9F1000F40F096802E
:1032100068E72218990992F9302054F82220002AF0
:1032200000F0B780032900F0B7801F2800F2A380C8
:1032300084464FF0A04303EB8C031EF818CCD3F860
:1032400000E71CEA090FCEF3014E40F08B80BEF17F
:10325000030F7FF431AF03290FD14FF4003ED3F8B1
:1032600000C72CF4403CC3F800C7D3F800C70135B1
:103270004EEA0C0EEDB2C3F800E7002A3FF41CAF93
:10328000904719E700610040046100400861004078
:103290000C61004010610040146100401861004062
:1032A0001C6100407C6100405C1300200003005062
:1032B00022184FEA9E1192F9302054F82250002D26
:1032C0007BD003297CD01F283AD802464FF0A04E6D
:1032D0000EEB820E1CF8189CDEF8002719EA030991
:1032E000C2F301427FF4B3AE032A7FF4B9AE0329DF
:1032F0007FF4B2AE4FF40032DEF8003723F44033EF
:10330000CEF80037DEF800371343CEF80037002D33
:1033100000F0ED800321A84794F961104B1C00F0E8
:10332000EB800125A1E6BEF1020F7FF4D9AE03299F
:1033300000F0EF80B9F1000F3FF4D2AEC847CFE6FE
:103340000EF01F02BE46C3E7BEF1020F7FF49EAE31
:1033500003297FF41BAF4FF4403E09E703F01F0C35
:103360003B46F2E6BEF1020F7FF4A6AE032984D1FC
:103370004FF4403E73E703F01F0C3B465BE7032925
:103380007FF484AE18F80CA04AEA090A08F80CA0E9
:10339000D5E603297FF490AE18F80CA04AEA090A92
:1033A00008F80CA041E703297FF49AAE18F80CA0A6
:1033B0004AEA020A08F80CA0FBE6032940F08580DF
:1033C00018F809201A4308F809207CE700221A603F
:1033D0001B6801934FF0A042019BD2F81025564B79
:1033E0000292D3F81035039346F00046E2E5534AC3
:1033F000D2F8042311067FF5D8AD00221A601B68AD
:103400000093009B46F08006CFE54C4AD2F8042397
:1034100050067FF5C5AD00221A601B680093009B23
:1034200046F04006BCE5454AD2F8042394067FF5F1
:10343000B2AD00221A601B680093009B46F0200684
:10344000A9E53E4AD2F80423D5067FF59FAD0022B8
:103450001A601B680093009B46F0100696E5374AF9
:10346000D2F8042317077FF58CAD00221A601B6881
:103470000093009B46F0080683E5304AD2F8042307
:1034800052077FF579AD00221A601B680093009BFC
:1034900046F0040670E5294AD2F8042391077FF527
:1034A00066AD00221A601B680093009B46F002067E
:1034B0005DE52249D1F8046316F001063FF452ADF0
:1034C000136013680093009B4CE594F961104B1C4A
:1034D0007FF4CBAD94F96210481C7FF4DBAD94F916
:1034E00063305A1C7FF4ECAD08B0BDE8F08794F966
:1034F00061104D1C7FF415AF94F96210481C01D087
:103500000125C7E594F96330591C3FF4EBAD012563
:10351000D6E54FF4403269E64FF44032ECE694F9D8
:1035200062104B1C01D01546B4E594F963305D1C64
:103530003FF460AD1546C3E5000300500060004055
:103540000220FCF753BF00BF2DE9F0470D460646A9
:10355000FCF766FF03281ED8012D04461FD00ED3AA
:10356000022D1AD11C4B00EB40041C44657895B128
:103570001A4B1B687BB12846BDE8F047184718482E
:10358000FDF71EFE144B174A04EB44010B44125D79
:103590009D78AA42EBD0BDE8F087BDE8F0870E4FDA
:1035A0004FEA400808EB0003FA18FD5C53782BB98A
:1035B000A04447440B4BBA781A55D8E7DFF8289057
:1035C00007484A464FF40041FDF7AAFD0028EFD115
:1035D00089F80060ECE700BF2C14002040140020A4
:1035E000EC13002048140020C813002010B5007808
:1035F000FCF716FF03280BD8064B00EB40001844DD
:10360000407828B1044B1B6813B1BDE8104018473F
:1036100010BD00BF2C14002040140020B34B1B68C9
:10362000DB0700D4704770B5B14EB24D33782C78BB
:10363000FBB9172C1CD8DFE814F0F10014011401B9
:1036400063007600830096005D0039002C0039008D
:103650002C00A300A800A800A800A800A800CE0085
:10366000DE000101460018001800FCF7A9FE2C70CE
:1036700070BDA14B1B7800203070002B00F005813D
:10368000FCF774FE0120FCF771FE0320FCF76EFED0
:10369000CFE7012318463370FCF7A8FE00224FF451
:1036A00080419648BDE87040FDF73ABD01231846B9
:1036B0003370FCF79BFE002240F6CD418F48BDE8F9
:1036C0007040FDF72DBD8C4B1B78002B00F0FE8069
:1036D0000020FCF74BFE0120FCF748FE0320FCF71E
:1036E00045FE0020FCF72EFE0120FCF72BFE1523E3
:1036F0002B7070BD0020FCF725FE07232B7070BDDA
:103700000020FCF70BFE002800F0D3800020FCF71F
:103710002DFE46F2666103232B7000227748BDE838
:103720007040FDF7FDBC0020FCF7F8FD002800F01C
:10373000C5800020FCF71AFE4FF400310423EBE7AC
:103740000020FCF7EBFD002800F0BD800020FCF716
:103750000DFE05232B70002241F69A116748BDE843
:103760007040FDF7DDBC0020FCF740FE06232B7007
:10377000002240F6CD416148BDE87040FDF7D0BC65
:10378000FCF71EFE0C232B7070BD5D48FDF718FD85
:10379000D4F1110405467BD0002879D1012C13D037
:1037A000C82303FB04F44FF4FA704FF400430021E4
:1037B000C3FB04014FF47A7200232DF01BFC2A4650
:1037C00001464F48FDF7ACFC0220FCF7BBFD4A4B1D
:1037D00001221A7070BD484B1B78002B79D0002055
:1037E000FCF7C4FD0120FCF7C1FD0320FCF7BEFD82
:1037F00012232B7070BD404B1B78002B6FD0002024
:10380000FCF7B4FD0120FCF7B1FD0320FCF7AEFD91
:103810000020FCF797FD13232B7070BD364B1B78EF
:10382000002B59D00020FCF7A1FD0120FCF79EFDE4
:103830000320FCF79BFD00232B7070BD2E4B1B78E3
:10384000002B4FD00020FCF791FD0120FCF78EFDEE
:103850000320FCF78BFD0120FCF774FD14232B7073
:1038600070BD0020FCF75AFDC8B10020FCF77EFDBA
:10387000022C4EF2666118BF4FF400312C7000220A
:103880001E48BDE87040FDF74BBCFCF783FDD0E659
:103890000220FCF76BFD184B00221A7070BDFCF77C
:1038A00051FD43F2333141F69A13022C08BF1946F9
:1038B000E4E7FCF747FD41F69A112CE7FCF742FDDF
:1038C00043F233313AE7FCF73DFD42E7FCF762FD96
:1038D00007E7FCF75FFD8BE7FCF75CFDABE7FCF768
:1038E00059FD95E7FCF756FDB5E700BF38140020F9
:1038F0003C14002044140020C91300200C140020A4
:10390000CC13002038B5C44B1C6814F0010401D15D
:10391000204638BDC14C23780546E3B9172D00F287
:103920007881DFE815F00B013101310169007D007C
:103930009100A5005B003500280035002800B30089
:10394000BA00BA00BA00BA00BA00E300F6001C01DF
:10395000420063006300B24B1B7800202070002BF4
:1039600000F02781FCF702FD0120FCF7FFFC03209B
:10397000FCF7FCFCD2E7012318462370FCF736FD68
:1039800000224FF48041A748BDE83840FDF7C8BB8E
:10399000012318462370FCF729FD002240F6CD4193
:1039A000A048BDE83840FDF7BBBB9D4B1B78002B02
:1039B00000F020810020FCF7D9FC0120FCF7D6FCA8
:1039C0000320FCF7D3FC0020FCF7BCFC0120FCF733
:1039D000B9FC954B15221A70002499E70020FCF7DA
:1039E000B1FC914B07221A70002491E7FCF7E8FC28
:1039F0008D4B00241D708BE70020FCF78FFC002806
:103A000000F0E1800020FCF7B1FC46F26661864BD5
:103A1000844803241C700022BDE83840FDF780BBB9
:103A20000020FCF77BFC002800F0DC800020FCF785
:103A30009DFC4FF400317C4B7A4804241C7000221A
:103A4000BDE83840FDF76CBB0020FCF767FC0028A0
:103A500000F0CD800020FCF789FC734B71480524F1
:103A60001C70002241F69A11BDE83840FDF758BBA2
:103A70000020FCF7BBFC6C4B6A4806241C7000223B
:103A800040F6CD41BDE83840FDF74ABBFCF798FC55
:103A9000654B0C221A7000243AE76448FDF790FB4E
:103AA0000446D5F1110000F08780002C40F084809E
:103AB000012814D0C82505FB00F54FF400434FF44E
:103AC000FA700021C3FB05014FF47A7200232DF038
:103AD00091FA224601465548FDF722FB0446022092
:103AE000FCF730FC4E4B01221A7011E74C4B1B784F
:103AF000002B00F082800020FCF738FC0120FCF74E
:103B000035FC0320FCF732FC474B12221A700024CC
:103B1000FEE6434B1B78002B75D00020FCF726FCFB
:103B20000120FCF723FC0320FCF720FC0020FCF71D
:103B300009FC3D4B13221A700024E9E6384B1B7830
:103B4000002B5DD00020FCF711FC0120FCF70EFCDF
:103B50000320FCF70BFC344B00241C70D8E6304BE0
:103B60001B78002B52D00020FCF700FC0120FCF752
:103B7000FDFB0320FCF7FAFB0120FCF7E3FB2A4BDB
:103B800014221A700024C3E60020FCF7C7FBF8B12A
:103B90000020FCF7EBFB022D4EF2666118BF4FF4DC
:103BA0000031214B1F481D700022BDE83840FDF751
:103BB000B7BAFCF7EFFBB1E60220FCF7D7FB184BD6
:103BC00000221A70A4E6FCF7BDFB41F69A111EE72D
:103BD000FCF7B8FB43F2333141F69A13022D08BFCC
:103BE0001946DEE7FCF7AEFB43F2333123E7FCF77F
:103BF000A9FB32E7FCF7CEFBE5E6FCF7CBFB83E75E
:103C0000FCF7C8FBA7E7FCF7C5FB8FE7FCF7C2FB97
:103C1000B2E700247CE600BF381400203C140020EA
:103C2000C91300200C14002044140020CC130020E1
:103C3000F8B5254B254A196081070446106014D554
:103C4000234B24480E2111250F27102619705D7271
:103C500040F266620421DF709E71FCF707FF0546A3
:103C6000C0B1E3072AD42846F8BD10F00105FAD008
:103C70000120FCF7E7FB184A18480021FDF73EFA3F
:103C800005460028EFD1164A16480121BDE8F84044
:103C9000FDF734BAFCF742FF05460028E1D10146A2
:103CA000114A1248FDF72AFAE2070546DBD5012042
:103CB000FCF7C8FB002DDED02846F8BD0120FCF73C
:103CC000C1FB2846F8BD00BF401400203814002076
:103CD0002C140020501803001D3600007818030033
:103CE0004135000070180300ED3500007418030022
:103CF00008B51B78802B00D008BD0D4B0722012092
:103D00001A70FCF70BFB68B10020FCF72FFB0120B9
:103D1000FCF72CFB002241F69A110648BDE808404A
:103D2000FDF7FEB9FCF70EFB0120FCF70BFBF1E7FA
:103D30007C14002080140020420700D4704708B58E
:103D4000084606F038FA88B1831E022B0A4A06D9C3
:103D5000062313701846BDE80840FFF7D3BD0723BC
:103D600013701846BDE80840FFF7CCBD024A10703A
:103D7000BDE80840FFF7C6BD6D14002008B51C4B18
:103D80001B78032B27D8DFE803F02112070201205C
:103D9000BDE80840FCF7D6BA0120FCF727FB00225B
:103DA00040F6CD411348BDE80840FDF7B9B9012000
:103DB000FCF7B4FA80B90120FCF7C4FA41F69A1175
:103DC00000220C48BDE80840FDF7AAB90120BDE873
:103DD0000840FCF7CBBA08BD0120FCF7C7FA46F251
:103DE000666100220348BDE80840FDF799B900BFAD
:103DF0006C1400204C14002008B52C4A1378013BA9
:103E0000DBB2137083B10120FCF788FAA0B9FCF78C
:103E100099FA0120FCF796FA002241F69A112448FB
:103E2000BDE80840FDF77CB9224B1B78032B0DD869
:103E3000DFE803F0121B2B090020FCF797FA0120A2
:103E4000FCF794FAE8E70120FCF77CFA1A4B1878A3
:103E5000BDE80840FFF756BD0120FCF787FA164B76
:103E60001878BDE80840FFF74DBD0120FCF756FA71
:103E7000A8B10120FCF77AFA46F2666100220F48E9
:103E8000FDF74EF90028E1D008BD0120FCF7AEFA9D
:103E9000002240F6CD410948FDF742F9F2E7012042
:103EA000FCF750FA41F69A11E8E700BF7C140020B5
:103EB000801400206C1400206D1400204C1400208D
:103EC000F8B5134E134B144F002421460C2205461F
:103ED00030461C703C702BF04FFD21460F4B104AB2
:103EE00010483360FDF70AF9044628B901460E4A26
:103EF0000E48FDF703F904462A460D49284605F009
:103F00003BFE2846024905F027FE2046F8BD00BFCB
:103F1000701400206C1400206D140020F13C00008F
:103F20007D3D00007C180300F93D0000801803006F
:103F3000393D0000F0B502F1080583B007460C4694
:103F4000164695E80700019700F0F0FA053000F0FA
:103F500073FAA0422ADC0146019800F073FA019B33
:103F600002AC184444F8040D0421204600F09AFAEB
:103F7000B27DF37D00216FF3070162F3820163F3E9
:103F8000C3012046C9B200F08DFA2046012100F09D
:103F900089FAB18A204600F08BFA204695E80E0097
:103FA00000F0A0FA0198C01B03B0F0BD6FF0010053
:103FB000FAE700BF30B50B4683B01146054601AAAB
:103FC0001846009300F04CFA009B019A0344022A21
:103FD0000446009302DC204603B030BD684600F082
:103FE0005BFA0528F7D1684600F056FA01242860EC
:103FF000F1E700BF70B582B0161E044601900D4671
:104000001DDD032000F018FA854214DB01460198FB
:1040100000F018FA019B02AD184445F8040D182170
:10402000284600F03FFA3146284600F041FA019850
:10403000001B02B070BD6FF0010002B070BD012026
:1040400000F0FAF985420146F5DB019800F0FAF933
:10405000019A02AB104443F8040D1821184600F0F1
:1040600021FAE4E782B030B583B006AC84E80C00F6
:1040700006AB05460C4693E80700019500F056FA9A
:10408000013000F0D9F9A04218DC0146019800F097
:10409000D9F9019B02AC184444F8040D16212046BE
:1040A00000F000FA06AB20460ECB00F01BFA019898
:1040B000401B03B0BDE8304002B070476FF0010014
:1040C000F7E700BF2DE9F04184B090460AAA064602
:1040D0000D4607CA01AC84E807001F46009600F0B1
:1040E00025FA023000F0A8F9854221DB014600984C
:1040F00000F0A8F9009B04AD184445F8100D072105
:10410000284600F0CFF900216FF3070168F346114C
:1041100067F304112846C9B200F0C4F9284694E8B0
:104120000E0000F0DFF90098801B04B0BDE8F081BC
:104130006FF00100F9E700BF82B070B584B008AC41
:1041400084E80C0006460D4694E8070001AC84E8BC
:104150000700009600F0EAF9013000F06DF98542A1
:1041600018DB0146009800F06DF9009B04AD18447F
:1041700045F8100D0921284600F094F9284694E8E6
:104180000E0000F0AFF90098801B04B0BDE870404D
:1041900002B070476FF00100F7E700BF10B50B46A3
:1041A00082B01146044601AA1846009300F058F95F
:1041B000009B019A1844022A009003DC0023184651
:1041C00002B010BD684600F067F91B28F6D16846BA
:1041D00000F062F901232060F1E700BF10B50B4643
:1041E00082B01146044601AA1846009300F038F93F
:1041F000009B019A1844022A009003DC0023184611
:1042000002B010BD684600F047F91D28F6D1684697
:1042100000F042F901232060F1E700BF2DE9F043EF
:1042200083B002AF002447F8044D0E9D0D9C00940E
:1042300081460E462046904629463A461F4600F0E3
:104240000FF9009B019A18441444231A9D420090D0
:1042500003DA002003B0BDE8F083684600F01CF9E3
:104260000C28F6D1684600F017F9002360F3070325
:10427000C3F3010243F3C011C3F34110C3F30013AE
:1042800089F80010306088F800300A9BD1B21A70AB
:10429000E9B101291ED0684600F0FEF80A9B1871AA
:1042A000684600F0F9F80A9B5871684600F0ECF88F
:1042B0000A9B38801B7813B93368032B10D0009BFE
:1042C0000C9AE41A14600B9A01201360C2E7336859
:1042D000032B0CD0684600F0D7F80A9B9880E4E7DF
:1042E0000A9A009B92680A994B601344E8E7684673
:1042F00000F0CAF80A9B9860D7E700BF2DE9F041AB
:1043000082B00DF1080E00244EF8044D089D009374
:1043100080460F4618461646294672461C4600F04F
:104320009FF89DE80C0010441C44241AA5420090FC
:1043300004DA0023184602B0BDE8F081684600F0B8
:10434000ABF80D28F5D1684600F09EF8A8F80000FB
:10435000684600F099F83880684600F09DF801231F
:104360003070E7E72DE9F04383B00DF1080E002629
:104370000A9D4EF8046D8146884618461746294620
:1043800072461C46009300F06BF89DE80C00104448
:104390001C44231A9D42009003DA002003B0BDE8BC
:1043A000F083684600F078F80A28F6D1684600F0F5
:1043B0006BF8A9F80000684600F066F8009BA8F8C2
:1043C0000000E41A3E607C60BB600120E6E700BFAD
:1043D0002DE9F04182B00DF1080E00244EF8044D95
:1043E000089D009380460F46184616462946724699
:1043F0001C4600F035F89DE80C0010441C44241ABB
:10440000A542009004DA0023184602B0BDE8F0810E
:10441000684600F041F80B28F5D1684600F034F802
:10442000A8F80000684600F02FF83880684600F0D1
:1044300033F801233070E7E7FF28CCBF03300130A9
:10444000704700BFFF29034606DD81700A12012173
:104450004270032019707047C9B20120197070476B
:1044600000290EDD0378012B02D013600120704774
:10447000022906DD4178837803EB012313600320D2
:1044800070474FF0FF307047036819785A7802334D
:10449000036002EB012070470368024613F8010B2A
:1044A0001360704703681970036801330360704735
:1044B00000290268B4BF01F1FF030B461B1210B4C0
:1044C000137002684B42DBB2C9B202F1010458BF5B
:1044D00059420460517003685DF8044B0133036076
:1044E000704700BF70B584B004AC04E90E00029DB3
:1044F000002D04460FDC019D5DB128462BF0A1FE86
:1045000029460646024620682BF011FA20683044FE
:10451000206004B070BD2A46039900682BF007FAAA
:1045200023681D44256004B070BD00BF84B004AB97
:1045300003E90700019810B104B02BF082BE029885
:1045400004B0704770B582B0054602200C46019554
:104550001646FFF771FFA04214DC01460198FFF7F1
:1045600071FF019B02AC184444F8040D0121204660
:10457000FFF798FF20463146FFF794FF0198401B54
:1045800002B070BD6FF00100FAE700BF2DE9F04FF7
:1045900085B08B469DF84040129E01969DF838905C
:1045A000BDF83C80149D0390064692461F460CB908
:1045B000032B4BD006202844FFF73EFF584548DC2C
:1045C00001460398FFF73EFF039A0DF1100B1044CC
:1045D0004BF8040D0C215846FFF764FF00216FF3E0
:1045E00007016AF3C71167F3461169F3041164F315
:1045F0000101C9B25846FFF755FFD4B1012C1AD9B1
:104600009DF844105846FFF74DFF9DF84510584659
:10461000FFF748FF58464146FFF74AFF03981399B2
:104620002A462BF084F903982844801B05B0BDE886
:10463000F08F032F10D0BDF844105846FFF738FF15
:1046400058464146FFF734FF0398E8E7019B981D61
:10465000B1E76FF00100E9E7019C58462146FFF7FA
:1046600027FF41465846FFF723FF2246119903983A
:104670002BF05DF9039820440390D0E72DE9F04139
:1046800082B0054606200C46019590461F469DF8CF
:104690002060FFF7D1FEA0421DDC01460198FFF724
:1046A000D1FE019B02AC184444F8040D0D212046B4
:1046B000FFF7F8FE41462046FFF7FAFE394620464E
:1046C000FFF7F6FE20463146FFF7ECFE0198401B4F
:1046D00002B0BDE8F0816FF00100F9E72DE9F04785
:1046E00082B007460A9E019034688A4691469846F1
:1046F0004CB320462BF0A5FD0546681DFFF79CFE38
:10470000504524DC01460198FFF79CFE019B02AC5A
:10471000184444F8040D0A212046FFF7C3FE494619
:104720002046FFF7C5FE41462046FFF7C1FE31682F
:10473000019851B12A462BF0FAF801982844C01B81
:1047400002B0BDE8F0877568D7E7B168F2E76FF0AF
:104750000100F5E72DE9F04182B0054606200C4640
:10476000019590461F469DF82060FFF765FEA04228
:104770001DDC01460198FFF765FE019B02AC184461
:1047800044F8040D0B212046FFF78CFE41462046DD
:10479000FFF78EFE39462046FFF78AFE2046314657
:1047A000FFF780FE0198401B02B0BDE8F0816FF07A
:1047B0000100F9E72DE9F04383B002AE002446F88A
:1047C000044D0B9D0A9C009481468846204617465E
:1047D000294632461E46FFF743FE009B019A1844C5
:1047E0001444241AA542009004DA0023184603B0AA
:1047F000BDE8F0836846FFF74FFE1328F5D1684601
:10480000FFF74AFEC0F34110C9F800006846FFF701
:104810003BFEA8F800006846FFF736FE3880684681
:10482000FFF73AFE01233070E0E700BF70B582B0B9
:1048300002AB002443F8044D15460C461A460646C2
:10484000294620460094FFF70BFE009B019A18446E
:104850001444241AA542009003DA0023184602B03B
:1048600070BD6846FFF718FE1528F6D16846FFF7B9
:104870000BFE01233080F1E72DE9F84F4400DFF80B
:104880007CA126180AEBC6068146D6F82C80B8F122
:10489000010F8B46174661D038D3B8F1020F30D1E3
:1048A00000F1010909EB4909756A4FEAC9094FF09E
:1048B00000081CE0326A641BBC420AEB0901234673
:1048C000A2EB050428BF3B469C42486828BF1C4613
:1048D0002844594622462BF02AF8336A25449D4243
:1048E00008BF00253F1BA044A34475620BD0B36AE8
:1048F000AB4203F1FF34DDD8326A1344013B5C1B49
:10490000DAE74FF000084046BDE8F88FB36A756AF1
:10491000AB429CBF326A9B18013B5B1B9F42F2D8A3
:1049200004440AEBC40400F10109266A761B09EB72
:104930004909B7420AEBC90A56D3DAF804003246ED
:104940002844BD1B2AF0F3FFDAF804000BEB060144
:104950002A462AF0ECFFB8466562D4E7B36A756A66
:10496000AB4226D903F1FF38366AA8EB0508B845F3
:1049700028BFB846761BB04523D309F1010707EBE2
:1049800047070AEBC707A1447868324659462844CE
:104990000AEBC90AA8EB06052AF0C9FF78680BEBF9
:1049A00006012A462AF0C3FFCAF824504046BDE853
:1049B000F88F366A03EB060808F1FF38A8EB050804
:1049C000D5E709F1010303EB43030AEBC303A14459
:1049D00058680AEBC90A28445946424645442AF019
:1049E000A6FFCAF824508EE7DAF804003A462844B5
:1049F0003D442AF09CFFB846656284E734B000204D
:104A00002DE9F0412B4C94F800E005468846174606
:104A10001E46BEF1000F23D02369AB4246D90020C9
:104A2000FCF704FC5DB92A46154404EBC504069B5B
:104A3000E3620020FCF702FC0020BDE8F0816B1C63
:104A400003EB4303DB006A00511904EBC10144F896
:104A50000380234400205F600E6288624862E3E7BF
:104A60000222154B1548226162614FF40071144A0D
:104A7000A361A3641023C4F828E02365C4F824E0EC
:104A8000C4F82CE0C4F858E0C4F854E0C4F85CE082
:104A9000E0612162E2640B49E01D2BF0B5FB0A499D
:104AA00020462BF0B1FB2023A371B5E74FF0FF3078
:104AB000BDE8F08134B0002084180300B014002059
:104AC000A01400209018030094180300F8B5114CAE
:104AD000114B124AE3614FF400750023104FA3629B
:104AE00010266362E362A3656365E3650D49256291
:104AF000A2610225A264E01DE76426652561656167
:104B00002BF082FB204608492BF07EFB2023A3716B
:104B1000F8BD00BF34B00020B0140020841803009A
:104B2000A0140020901803009418030010B44FF054
:104B300080414FF080520020C1F80C015E4BC1F85B
:104B40001001C1F83805D2F80414C3F82015D2F8C2
:104B50000814C3F82415D2F80C14C3F82815D2F899
:104B60001014C3F82C15D2F81414C3F83015D2F869
:104B70001814C3F83415D2F81C14C3F84015D2F831
:104B80002014C3F84415D2F82414C3F84815D2F8F9
:104B90002814C3F84C15D2F82C14C3F85015D2F8C9
:104BA0003014C3F85415D2F83414C3F86015D2F891
:104BB0003814C3F86415D2F83C04C3F86805D2F879
:104BC00040043E49C3F86C050968D2F84424C3F890
:104BD0007025082924D04FF08043D3F80024D20751
:104BE00044BF6FF00102C3F80024354AD2F8883080
:104BF00043F47003C2F88830BFF34F8FBFF36F8F59
:104C00004FF01023D3F80022002A23DBD3F804321C
:104C1000002B1FDB2B4B2C4A1A605DF8044B7047AE
:104C20002A4B1B68002BD6D129482A4A2A4C0460FB
:104C30002A492B4BFB20C2F818050A681B68294833
:104C400022F00F0203F00F0313434FF400720B60C6
:104C50000260C0E7244B0122C3F80425D3F80024E6
:104C6000002AFBD04FF0102312221F49C3F8002264
:104C7000D1F80034002BFBD04FF0102212211A4B38
:104C8000C2F80412D3F80024002AFBD000221649EF
:104C9000C3F80425D1F80034002BFBD0BFF34F8FAD
:104CA0000749124BCA6802F4E0621343CB60BFF3BA
:104CB0004F8F00BFFDE700BF00C000403001001073
:104CC00000ED00E0400000200090D003340100100F
:104CD0008C56004000F0004048810300E40E004084
:104CE000580200104096024000E001400400FA051E
:104CF00090F82830013B062B30D8DFE803F026047B
:104D00000B08151A200004292BD0092913D00129DA
:104D100020D0704704292BD00C2912D00329F8D1B8
:104D2000062380F82830704705291DD00B2908D0AC
:104D300070470629EDD1012380F8283070470729F4
:104D4000E7D1042380F828307047022909D00C29C4
:104D5000DDD1F6E7052380F8283070470829F0D028
:104D6000D7E780F828107047032380F82830704771
:104D7000072380F82830704790F82800704700BF5C
:104D8000A8B1A2B19BB1F8B507461D4614460E4620
:104D900000F04AFBFCF79AFA58B1104B10491888FA
:104DA000000440F00100FDF75BFA0320F8BD0E207F
:104DB00070472A463146384601F0C4FB10B1074B14
:104DC0000849ECE701F01CFB28B90423C7F814419B
:104DD00087F82830F8BD014B0349E0E77C0200204A
:104DE0009C180300C4180300E81803002DE9F041E3
:104DF00010B109B103B11AB90E252846BDE8F081FA
:104E00005C88002CF8D09C88002CF5D05C78012CB4
:104E100004D090F8284044B90F25EEE7DC88002C38
:104E2000EAD01C89002CE7D0F3E7042C04D0013C25
:104E3000012C01D90825E0E700F13A08044617469D
:104E40000D461222002140461E462AF095FD40469E
:104E5000294612222AF06BFD84F838707388A4F872
:104E60004E30337884F84C30737884F84D30737852
:104E7000D3B9B388A4F8503004F15605B288284657
:104E800000212AF079FD2846B28806F10A012AF0AD
:104E90004EFD204601F04EF805460028ADD12046D3
:104EA0000121FFF725FFA8E73389A4F8543004F166
:104EB0008D053289284600212AF05EFD328906F1EF
:104EC000410128462AF033FDF388A4F8523004F15A
:104ED0006D05F288284600212AF04EFD2846F2880A
:104EE00006F121012AF023FDC3E700BF40B110B550
:104EF00090F82830023B012B044603D90F2010BD47
:104F00000E207047002101F02BFA0028F7D194F809
:104F10002830022B06D0032B03D1072384F8283036
:104F200010BD10BD042384F8283010BD30B170B519
:104F300082B002B121B90E2002B070BD0E207047C0
:104F4000002BF8D090F8284004F0FD04012C064610
:104F500001D00F20F0E70C46002569460195009529
:104F6000ADF8044001F02CF9069B002BE4D01A4662
:104F700033881380E0E700BF30B129B170B582B04B
:104F800022B90E2002B070BD0E20704790F8284064
:104F9000032C054618BF0F20F4D11E460C460023F3
:104FA00069460094019301F04BF8002EEAD02B885B
:104FB0003380E7E7F8B5044601F052FA94F82D3053
:104FC00033B12D4B1B78002B4DD1236B1B1A01E005
:104FD0004FF0FF3394F81021EAB1D4F8BC10091A4D
:104FE0008B4228BF0B46012A15D0D4F8D410091AD9
:104FF0008B4228BF0B46022A0DD0D4F8EC10091AB8
:105000008B4228BF0B46032A05D0D4F80421121A7C
:10501000934228BF134665682D1A9D4213D2002380
:10502000237301F01FFA074601F014FA064678B917
:10503000B5FBF7F1204607FB115101F0EFF90646E9
:10504000B0B93046F8BD5A1C10D100263046F8BD24
:105050000A4B0B491888000440F001003246FDF766
:1050600071F93046F8BD636B1B1AB3E71D46D8E7EC
:10507000024B0449EEE700BFB01600207C0200207E
:105080003C190300781903002DE9F04F064689B05A
:1050900001F0E6F996F82D308046C3B1844D2B78A7
:1050A00053B9346B01F0DEF9044001F0DBF908EA92
:1050B0000000844240F2D580746B01F0D3F90440C3
:1050C00001F0D0F908EA0000844240F2C18096F86D
:1050D0001031BBB1DFF8DCA1DFF8DC9134460027EA
:1050E000D4F8BC5001F0BEF9054001F0BBF908EA64
:1050F0000000854212D996F810310137BB4204F105
:105100001804EDDC96F8283003F0FD03012B53D092
:105110003046FFF74FFF09B0BDE8F08F94F8B0506C
:1051200065BB2022294668462AF026FC4FF0010B79
:105130000C23D4F8B4008DF800308DF804B000F0E2
:1051400047FAB4F8BA308DF80500D4F8B400ADF8D9
:10515000063000F03DFA06286DD0072800F0878061
:1051600000287BD02A46B4F8BA10304600F088F9FF
:105170006946D6F8143130469847BCE7013D84F8BB
:10518000B0504FF4FA5001F071F9B4F8B830C4F8E7
:10519000BC00D4F8B42006F13A01304600F00AFE13
:1051A0000028A8D0BAF800301B040246494643F054
:1051B0000100FDF7C7F89EE7746801F053F9044059
:1051C00001F050F908EA00008442A1D8337C002B9A
:1051D00050D0317B00299BD196F82820012A0FD18D
:1051E000022386F82830202268462AF0C5FB0A23CD
:1051F0008DF800306946D6F8143130469847337C34
:10520000013B33744FF4FA5001F030F9338B706086
:10521000726906F13A01304600F0CCFD00283FF4F7
:1052200077AF244B24491B881B04024643F001003E
:10523000FDF788F86CE75A461A21304600F020F94D
:1052400096F82830052B93D1042386F828308FE771
:10525000002330462B7000F0B1F838E75A4604219D
:10526000EBE7012330462B7000F07AF82FE75A461F
:105270001C21E2E796F82830012B01D0032B02D144
:10528000042386F828306846202200212AF074FB87
:105290000C20012205238DF800008DF805306946A9
:1052A0008DF80420D6F814313046984730E700BF17
:1052B000B01600207C0200200819030060B190F8AD
:1052C00028300BB90F20704770B590F82D6088B06A
:1052D00026B1112008B070BD0E20704704464FF46F
:1052E000FA600D4601F0C8F801F0C0F8194B2063D0
:1052F00001224FF47A7084F82C6084F82D2000FB92
:1053000005F01E705E7001F0B1F860632046FFF793
:1053100051FE28B920460021FFF7EAFC0020D9E71A
:105320000D4B0E491B881B04024643F00100FDF79C
:1053300009F83146684620222AF01EFB0822022383
:105340008DF8043069468DF80020D4F814312046D9
:105350009847DFE7B41600207C020020C81903003C
:1053600070B5134B1C7888B00CB108B070BD012625
:1053700005461E7000F020FD0028F6D00D4B0E49AA
:105380001B881B04024643EA0600FCF7DBFF2146AC
:10539000202268462AF0F0FA08238DF8003069468A
:1053A0008DF80460D5F814312846984708B070BDD0
:1053B000B41600207C020020C819030070B5194BF8
:1053C0005D7888B0B5B990F82C6080F82D50012236
:1053D00004465A7086B12946684620222AF0CCFA43
:1053E00008238DF8003069468DF80450D4F8143144
:1053F0002046984708B070BD0A21FFF779FC314676
:10540000684620222AF0B8FA082203238DF80430D7
:1054100069468DF80020D4F814312046984708B02A
:1054200070BD00BFB4160020B030642200212AF005
:10543000A3BA00BFF8B590F81061042E11D00D4644
:1054400007460FCD06EB460407EBC404B0340FC487
:1054500095E8030084E80300013687F81061002016
:10546000F8BD054B05491888000440F00100FCF721
:10547000F7FE3046F8BD00BF7C020020081A03008A
:105480002DE9F843054690F8100198B12B46002409
:10549000DAB1012A09D1D3F8B4603778012F14BFEB
:1054A00001270327F65D8E4213D00134844203F1B5
:1054B0001803EDD1334B34491888000440F0010043
:1054C000FCF7CEFE0520BDE8F883B3F8BA608E4243
:1054D000EBD1042CEED004EB440605EBC606D6F85F
:1054E000B400FBF71BFF95F81071A74243DD04F1F0
:1054F000010808EB480C05EBCC0C0CF1B00CE646AF
:10550000BEE80F00B0360FC69EE80300B84586E837
:10551000030030DA04F1020909EB490E05EBCE0E67
:105520000EF1B00EF046B8E80F0066460FC698E8D8
:105530000300B94586E803001DDA04F1030808EB0F
:10554000480605EBC606B036B446BCE80F00AEE828
:105550000F009CE8030047458EE803000BDD043490
:1055600004EB440405EBC404B0340FCC0FC694E83C
:10557000030086E80300013F85F810710020BDE8B4
:10558000F88300BF7C0200202C1A030070B490F84E
:10559000104194B100239AB1012A09D1D0F8B45036
:1055A0002E78012E0CBF03260126AD5D8D420BD057
:1055B0000133A34200F11800EDD1042070BC704704
:1055C000B0F8BA508D42F3D1184670BC704700BF96
:1055D0000378012B0CBF03230123C35C043BDBB224
:1055E000182B9ABF014AD05C082070475C1A030050
:1055F000F0B51C461B78012B0CBF0323012397B089
:10560000E35CBDF87010054616461D2B00F2FD81C7
:10561000DFE813F01E00FB012200FB01FB012B0061
:105620003E00FB014200FB0146005900A300E000E0
:10563000FB01FB01FB01FB01FB01FC00FB01240161
:10564000FB0132015501FB01FB017201FB01BA01B3
:105650000824204617B0F0BD90F82D30002B40F004
:10566000ED810024204617B0F0BD90F828300026C8
:10567000052B0B9600F0EC82BA4BBB49188800044E
:1056800040F00100FCF7ECFD0324204617B0F0BD0C
:1056900000F0CAFB0446DCE700F00AFC0446D8E749
:1056A0000026009123460BAA0DF11E0108A8ADF8B3
:1056B0001E60ADF82060FEF755FE002840F0E28144
:1056C000A84BAA49DAE716AA002602F83A6D234643
:1056D000009108A809A9ADF82060ADF82460FEF794
:1056E00077FE002800F0A4819DF81E70002F00F0C6
:1056F0007782012F9B4B40F0718218889C490004EF
:1057000040F00300FCF7ACFDBDF8241032460EAFAC
:105710002846FFF7B5FE3146384620222AF02CF9FC
:1057200023788DF83C60012B0CBF032301230C224E
:10573000E35C8DF83820043BDBB2182B96BF8D4A12
:105740000823D35C8DF83D300024ADF83E40394647
:10575000D5F81431284698477BE708A809AA0BAB6F
:105760000026049102900192009303940DF11E0310
:105770000DF11D020DF11B0107A8ADF81E60089682
:105780008DF81B608DF81C608DF81D60FEF746FDDE
:10579000002800F047819DF81B40002C40F06F82EC
:1057A0000EA820220021BDF8307005262AF0E4F86A
:1057B000BDF81E00099BADF8460000221593ADF818
:1057C00050700EA98DF838601392D5F81431284620
:1057D00098473EE716AA002602F8386D2346009146
:1057E00009A80BA9ADF82460ADF82C60FEF786FD82
:1057F000002800F020819DF82070002F00F0CD815E
:10580000012F584B00F088815B491EE00026019172
:1058100000940DF11E030BAA09A908A8ADF8246095
:10582000ADF82C608DF81E608DF82060FEF7C2FF89
:10583000002800F0FA809DF81E70002F00F0838190
:10584000012F484B00F068814C49188800043A4603
:1058500040F00100FCF776FD0324FAE616A80026C6
:105860000A4620F82C6D2146FEF7E0FF002840F0A4
:1058700035813C4B424901E7047B002C7FF4F1AEBB
:105880000123032203730274806800F0EFFD0921F5
:1058900068602846FFF72CFA95F82830012B7FF432
:1058A000E0AE21460EA820222AF066F809238DF8E2
:1058B00038300EA9D5F8143128469847C9E690F833
:1058C0002840062C00F0CF80072C40F0328100F0F9
:1058D000C1FD21462846FFF70BFA0EA82022002121
:1058E0002AF04AF802238DF838300EA9D5F8143181
:1058F000284698470024ACE616A800260A4640F839
:105900002C6D2146FEF74AFC002800F088800B9F92
:10591000002F00F05781012F124B40F008811888AA
:105920001849000440F003000EAFFCF799FC202258
:10593000314638462AF020F823788DF83C60012B58
:105940000CBF032301230C22E35C8DF83820043BB9
:10595000DBB2182B96BF074A0823D35C0024012230
:105960001A2145E07C020020781A0300581B03002E
:10597000AC1B03005C1A0300BC1C03003C1D0300AD
:105980006C1D0300F41D030016A800260A4640F80B
:105990002C6D2146FEF722FC002840D00B9F002FE3
:1059A00000F0EF80012FC24B40F0C1801888C14940
:1059B000000440F003000EAFFCF752FC20223146F9
:1059C000384629F0D9FF23788DF83C60012B0CBFB5
:1059D000032301230C22E35C8DF83820043BDBB267
:1059E000182B96BFB44A0823D35C002401221C2143
:1059F00028468DF83D30ADF83E40FFF741FD394671
:105A0000D5F814312846984723E6A94BAB491888A6
:105A1000000440F00100FCF723FC062419E6A44B27
:105A2000A7492BE6A24BA74928E6A14BA64925E6A4
:105A30009F4BA64922E69E4BA5491FE60EA82022B1
:105A4000002129F099FFA3788DF83C30032201232F
:105A500085F82C300EA910968DF83820D5F8143121
:105A600028469847FDE5806800F000FD2146686003
:105A70002846FFF73DF90EA82022002129F07CFFDF
:105A8000092330E73346BDF81E20BDF82010284614
:105A900000F060FB09AF314604460822384629F081
:105AA0006BFFBDF820200B9BADF8282031460EA8D7
:105AB0002022099329F060FF97E8030013AB072623
:105AC000BDF81E208DF8386083E80300ADF846204D
:105AD0000EA9D5F8143128469847BAE53246BDF8E4
