:020000040001F9
:1090000028350020DD930100E5930100E79301007E
:10901000E9930100EB930100ED93010000000000D3
:10902000000000000000000000000000EF930100BD
:10903000F193010000000000F3930100F59301009B
:109040005D970100F7930100CD9A0100F7930100AD
:10905000F79301000000000095950100F7930100CF
:10906000F7930100F7930100F7930100F7930100D4
:10907000F7930100F7930100F7930100F7930100C4
:10908000F7930100B5970100F7930100F7930100F2
:10909000D9970100F7930100DD970100F7930100D4
:1090A000F7930100F79301000000000000000000AA
:1090B000F7930100F793010000000000000000009A
:1090C00000000000000000000000000000000000A0
:1090D0000000000000000000000000000000000090
:1090E0000000000000000000000000000000000080
:1090F0000000000000000000000000000000000070
:10910000000000000000000000000000000000005F
:10911000000000000000000000000000000000004F
:10912000000000000000000000000000000000003F
:10913000000000000000000000000000000000002F
:10914000000000000000000000000000000000001F
:10915000000000000000000000000000000000000F
:1091600000000000000000000000000000000000FF
:1091700000000000000000000000000000000000EF
:1091800000000000000000000000000000000000DF
:1091900000000000000000000000000000000000CF
:1091A00000000000000000000000000000000000BF
:1091B00000000000000000000000000000000000AF
:1091C000000000000000000000000000000000009F
:1091D000000000000000000000000000000000008F
:1091E000000000000000000000000000000000007F
:1091F000000000000000000000000000000000006F
:10920000DFF80CD000F088F900480047C5DC010009
:109210002835002000B583B002900091019244F2FD
:10922000010071466A4600F06BFD03B000BD00000E
:1092300030B450E8012F93B2C48923448489A342F7
:1092400028BF1B1B0489A34202BFBFF32F8F00203E
:1092500007E0C3EA020340E80134002CE9D14FF0F3
:1092600001000A6030BC704750E8012FC2EA024298
:1092700040E801210029F7D1704730B450E8022FAF
:109280001FFAA2F3C488A34202BFBFF32F8F0020AE
:109290000DE0C48923448489A34228BF1B1BC2EA72
:1092A000034340E80234002CE8D14FF001000A608B
:1092B00030BC704750E8022FC2EA224240E8022147
:1092C0000029F7D17047034653E8022FD988B2EB43
:1092D000324F4FF0000017BF92B241EA014142EA1B
:1092E000014104E05A68B2EB324F08BF012043E865
:1092F0000212002AE8D1704730B4044654E8000F47
:109300000D4644E80053002BF8D1156030BC70477F
:1093100030B4044654E8000F40EA010544E8005325
:10932000002BF7D1156030BC704730B4044654E8C8
:10933000000F00EA010544E80053002BF7D1156047
:1093400030BC704730B4044654E8000F80EA010591
:1093500044E80053002BF7D1156030BC704730B49F
:10936000044654E8000F00EB010544E80053002BCD
:10937000F7D1156030BC704730B4044654E8000F94
:10938000A0EB010544E80053002BF7D1156030BC79
:10939000704770B404464FF0000054E8006F0D6849
:1093A000AE4207BF44E80023012044E800630E609A
:1093B000002B1CBF0020F0E770BC704730B404469F
:1093C00054E8000F88422CBF451A054644E8005374
:1093D000002BF5D1156030BC70470000064880476F
:1093E00006480047FEE7FEE7FEE7FEE7FEE7FEE78A
:1093F000FEE7FEE7FEE7FEE7E197010001920100CC
:109400002DE9F05F0546002092469B4688460646B9
:10941000814640241BE0284641464746224600F04C
:109420006BF853465A46C01A914110D3114618465C
:10943000224600F016F82D1A67EB01084F46224627
:109440000120002100F00DF817EB00094E41201E0D
:10945000A4F10104DFDC484631462A464346BDE814
:10946000F09F202A04DB203A00FA02F10020704726
:109470009140C2F1200320FA03F319439040704752
:10948000004870477C3A020040EA01039B0703D082
:1094900009E008C9121F08C0042AFAD203E011F833
:1094A000013B00F8013B521EF9D27047D2B201E0F5
:1094B00000F8012B491EFBD270470022F6E710B5D9
:1094C00013460A4604461946FFF7F0FF204610BD32
:1094D000421C10F8011B0029FBD1801A704730B5DF
:1094E00004460020034600E05B1C934203D2E05C8C
:1094F000CD5C401BF8D030BD202A04DB203A21FA95
:1095000002F00021704721FA02F3D040C2F120029C
:109510009140084319467047064C074D06E0E06845
:1095200040F0010394E8070098471034AC42F6D3AA
:10953000FFF76AFE704102009041020070B58C187E
:1095400010F8015B15F0070301D110F8013B2A1157
:1095500006D110F8012B03E010F8016B01F8016B44
:109560005B1EF9D12B0705D40023521E0DD401F840
:10957000013BFAE710F8013BCB1A921C03E013F809
:10958000015B01F8015B521EF9D5A142D8D300203E
:1095900070BD00002DE9F04700268AB0DFF8509139
:1095A000B0464FF48075012437460696284605F0EC
:1095B00007FD38B1D9F80403204203D0284605F04E
:1095C000F5FC26432D1D64007F1CADB2082FEDD3A2
:1095D0004FF4BE74204605F0F3FC48B1204605F078
:1095E000E5FC46F0004606AA0121002005F0CAFC71
:1095F000404D16F0FF0F15D00127002437420DD043
:1096000009EB8401D1F81005D1F81015C0F304203E
:1096100055F82420C1F3014102B190477F00641C3A
:10962000082CEBD3002E5FDA4FF0FF30CDF810801E
:1096300054E0281910F8507F90F9000027F0C00876
:10964000401C3BD007A9404604F058FF10B34FEA36
:109650009719404602F0CCFA55F820701FB1B9F1C5
:10966000030F03D006E0B9F1030F27D104A9404648
:1096700004F04CFF4FF0A04101EB8800D0F8000748
:1096800006A9C0F3014A404604F038FF18B1BAF108
:10969000020F03D012E0BAF1030F0FD1B9F1030F9B
:1096A00008D1BAF1020F1DD00221404605F04EFC50
:1096B000761CF6B217B149464046B847641C042CE4
:1096C000B7D3002E10D06A460121002005F05AFCC5
:1096D00006990098884207D00690049800263446E0
:1096E0000790A6E70321E0E70AB0BDE8F087000095
:1096F00000600040C024002000F01F0201219140C2
:109700004009800000F1E020C0F88012704700F0AE
:109710001F02012191404009800000F1E020C0F8C3
:109720000011704700F01F020121914040098000A4
:1097300000F1E020C0F8001270474907090E002828
:1097400006DA00F00F0000F1E02080F8141D7047E9
:1097500000F1E02080F800147047000070B54FF46D
:109760008076304604F0DCFF114CB50560B1304620
:1097700004F0DDFF0120C5F80803607920B901205D
:1097800060712168002088474FF48276304604F0EB
:10979000C7FF00280AD0304604F0C9FF0220C5F8F0
:1097A00008032168BDE870400120084770BD000033
:1097B0002C1C002007480021C0F84011C0F84411BB
:1097C000C0F84811C0F84C11C0F80011C0F80411DD
:1097D00009F01EBA0010014009F068B906F046B958
:1097E000F0B5A848A74B012600781B1D1A1D4FF0A5
:1097F000805106280BD11C78240708D11478C4F3B3
:109800000314032C06D0042C04D0052C02D0062807
:1098100007D011E0B1F824439B4DC4F304242C601D
:1098200002E01C78240707D11478C4F30314032C36
:1098300002D1974D954C6C67D1F83051D1F8444224
:10984000944FC4F342343C6006280CD11C782407A2
:1098500009D11478C4F30314032C04D18E4C276867
:1098600027F0807727604FF080470024C7F80C412D
:10987000C7F81041874F3F1F3C60062807D11F786B
:109880003F0704D11778C7F30317032F02D0062828
:1098900008D01FE0DFF8FCC103270CF1640CCCF802
:1098A000007007E01F783F0714D11778C7F303173C
:1098B000032F0FD1DFF8E4C10527CCF80070774FF4
:1098C00078373E60754F08373C600CF1040C3F2739
:1098D000CCF80070724F3F68DFF8C8C1CCF8007058
:1098E0006F4F3F1D3F680CF1040CCCF800706C4FBB
:1098F00008373F680CF1040CCCF80070684F0C3747
:109900003F680CF1040CCCF80070654F10373F68CD
:109910000CF1040CCCF80070614F14373F680CF167
:10992000040CCCF800705E4F18373F68DFF874C144
:109930000CF1200CCCF80070594F1C373F680CF12B
:10994000040CCCF80070564F20373F680CF1040C23
:10995000CCF80070524F24373F680CF1040CCCF85F
:1099600000704F4F28373F680CF1040CCCF80070A2
:109970004B4F2C373F680CF1040CCCF80070484F6B
:1099800030373F68DFF81CC10CF1400CCCF8007098
:10999000434F34373F680CF1040CCCF80070404F53
:1099A00038373F680CF1040CCCF800703C4F3C3762
:1099B0003F680CF1040CCCF80070394F40373F6819
:1099C0000CF1040CCCF80070DFF8DCC0FB27CCF8FD
:1099D0000070062813D11F783F0710D11778C7F3FE
:1099E0000317032F03D0042F01D0052F07D1D1F87F
:1099F0005872DFF8B8C007F04F07CCF800702C4859
:109A00000268D20702D06FF001020260062D08D171
:109A1000D1F83401062804D12648016841F4806158
:109A200001604FF01021D1F80002002803DBD1F8CB
:109A30000402002822DA204A166020480368002B1E
:109A4000FCD01523C1F800320568002DFCD0C1F808
:109A5000043201680029FCD0146001680029FCD0A0
:109A6000BFF34F8F0C48F0380168154A01F4E061EC
:109A700011430160BFF34F8F00BFFDE7124911484A
:109A80000860F0BDE00F00F0403501400DF0ADBAC8
:109A900000C007403C050040FCED00E010560040CF
:109AA0000404001020C5004018F50040E40E0040FA
:109AB000000400403C17004004E5014000E4014080
:109AC0000400FA050090D003441D0020014902481B
:109AD00009F01EB91C2500200020004002E008C843
:109AE000121F08C1002AFAD170477047002001E018
:109AF00001C1121F002AFBD170470000012120285C
:109B000003DA81400548014003E0402802DA2038AA
:109B1000814009B10120704700207047FC06FFBD5D
:109B2000082806D228B1012803D0042801D001203A
:109B300070470020704710B560B159B102780B78BA
:109B40005208B2EB530F05D10622401C491CFFF707
:109B5000C6FC08B1002010BD012010BD800701D057
:109B60000020704701207047C3688B4206D811441B
:109B70000069491E814201D80120704700207047CA
:109B800010B501220221002001F042FE08B1072891
:109B900010D107220221012001F03AFE08B1072866
:109BA00008D100210A22084601F032FE08B1072838
:109BB00000D1002010BD000010B550B10A480321AB
:109BC000008801EB004009A105F0E0FB07F0EEFC86
:109BD00003E00321094800F0E2FC002803D0BDE8BF
:109BE000104000F0CBB810BD941D00204572617389
:109BF0006520626F6E647321000000000C1F00205E
:109C000070B58CB015460E4600236C46C3F10F01AB
:109C1000415CE1545B1C102BF8D30D2104F11000C2
:109C2000FFF74BFC0020C0F10F02315C2244401CC6
:109C300011740328F7D3684646DF0020C0F10F01F6
:109C4000214491F820102954401C0328F6D30CB06D
:109C500070BD022001F0F8BC0149097900F0D6BEC0
:109C6000B81B002070B50024064D06E0686801218D
:109C700010F8340005F0D4FF641C28788442F5D332
:109C8000002070BD381C0020F8B515460C4606466D
:109C9000052A01D20720F8BD06F0BEF818B906F073
:109CA00083F80028F7D1124900224E600C708D60B5
:109CB000C1E90422C1E906220E4D0DE006EBC40005
:109CC0002968009181788DF8011000780A4A694668
:109CD00005F0F8FF0028DED1641EE4B2EED2BDE844
:109CE000F84004480021054A001D00F053B8000068
:109CF000381C002000370200A1CD0100B1C10100D5
:109D000072B605F0F9FB00BF05F030FA0028FBD170
:109D1000104C0121208801EB00400FA105F036FB1B
:109D200010480068C00700D000BE2088022101EB67
:109D300000400DA105F02AFBBFF34F8F0948E4381E
:109D400001680D4A01F4E06111430160BFF34F8FD8
:109D500000BFFDE7941D0020466174616C206572B0
:109D6000726F7200F0ED00E053797374656D2072CC
:109D700065736574000000000400FA050EB500214B
:109D80000091CDE901106A4644F20100FFF7B8FFE7
:109D90000EBD0000074B9B7823B12AB120B10068AB
:109DA000037C1BB108207047072070474174426153
:109DB000002070476025002070B507F0A7FF10480D
:109DC00000240B21047044700E4D817014206C60CF
:109DD0002C706C70FFF790FC07211420FFF7ADFC8E
:109DE0001420FFF794FC0848046007211120FFF7B6
:109DF000A4FC0548001F0068A860002070BD00009A
:109E000060250020581C0020081501402DE9FC4762
:109E1000DFF8789099F8023073B368B3052902D25D
:109E20000720BDE8FC87436933B3437C012B25D071
:109E3000002704460025884616468DF800506846DF
:109E400000F038F801A809F0C3F8C8B10121017089
:109E50000F4944600968C0E90218C0E904769DF81A
:109E6000040089F801009DF8000000F047F8142074
:109E7000FFF758FC2846D4E70820D2E70F46D8E77A
:109E800004259DF8000000F039F8F3E76025002074
:109E9000041501400649897839B130B1416921B1D1
:109EA00000210174022108F08FBE082070470000D5
:109EB0006025002030B5EFF3108172B60D4A94682A
:109EC000012324B10370002900D162B630BD936034
:109ED0004FF0E023D3F88051074C25401560C3F8BC
:109EE0008041D3F8844154605A17C3F8842100227A
:109EF0000270E8E76C260020FC06FFBD0B498A686B
:109F0000002A11D000280FD1EFF3108072B60B6831
:109F10004FF0E022C2F800314B68C2F80431002251
:109F20008A60002800D162B6704700006C260020CD
:109F30002DE9F041064608680C46411C4FF0A04749
:109F40004FF0010506D005FA00F1C7F808152068A2
:109F500004F0F2FF6068411C02D0002104F0E3FF2E
:109F60003168A069C1F82405607D217D326808430D
:109F7000C2F86C05D4E900123068C0F80C15C0F8BE
:109F80001425207D012815D1A068411C02D0002194
:109F900004F0C9FFE068411C05D08540C7F80855AA
:109FA000E06804F0C9FFD4E902123068C0F808255F
:109FB000C0F81015BDE8F08103F0E0BD2DE9F047D1
:109FC000074600888EB0804603F070F9824604464A
:109FD0002D4800252A460178404600F02FFD78796B
:109FE000400734D501254FF6FF7603AB2A460721FB
:109FF000504606F043FD010004D0404608F07CF8CE
:10A0000000252BE0B1463146049803F0A3F806463C
:10A0100048450FD004460146404603F031F940461A
:10A02000FFF71AFE30B9404608F038F84046FFF70F
:10A0300013FE48B122460721504606F095FD010067
:10A0400003D0404608F058F800254E4506D040465B
:10A0500006F0F8FE10B1504603F014F902208DF816
:10A060001800ADF81A807879400701D5012000E08A
:10A0700002208DF820008DF8215006A802F00EFA7B
:10A080000EB0BDE8F0870000B81B00202DE9F043BA
:10A090000546407C93B00E460024A0B107949DF87D
:10A0A0001C0020F00F00401C20F0F00010308DF854
:10A0B0001C00707B8DF81D009DF81E0020F006002E
:10A0C000801C8DF81E001C216846FFF7F6F99DF8EC
:10A0D000000040F002008DF80000697C11B140F0F2
:10A0E000100001E020F010008DF8000001940394AE
:10A0F0000494687C00B107A8CDE9050401278DF818
:10A10000427042F61920ADF840000D94B07B8DF8F6
:10A110003400F07B8DF835009DF83600142120F0D6
:10A120000600801C20F019008DF83600307B8DF879
:10A13000440008A8FFF7C1F90DF140080DF13409FA
:10A14000ADF8287011A8CDE90889ADF82A40ADF81E
:10A150002C700C90A888AB1D08AA6946AADF0028BD
:10A1600038D1B06898B38DF8427042F60810ADF857
:10A1700040000D94307C8DF834009DF8350020F0BF
:10A18000FF008DF835009DF8360020F00600801C99
:10A1900020F019008DF836000EA8B16801F00EFA13
:10A1A0000646142108A8FFF788F9ADF828600EA824
:10A1B000CDE90889ADF82A40ADF82C600C90E8880C
:10A1C00005F10E0208A9ABDF002803D101E0FFE78B
:10A1D000EC81002013B0BDE8F083000010B50D49FC
:10A1E0000D4807F0C4FFC1B24FF6FE720B4800F0F5
:10A1F000DFFA00280DD008280BD0132809D0112829
:10A2000007D043F20141884203D0BDE81040FFF778
:10A21000B5BD10BDC41F00204C1B0020E41D002054
:10A220000A4601461046AEDF70472DE9FC4700257F
:10A2300017880646158090F82D001446894630B1DF
:10A240003A462146484600F03EFC051E09D1B0784A
:10A250004FF00C0A18B32088C846001DB84202D936
:10A260005046BDE8FC87684679DF0028F9D1208890
:10A27000032108F8001020881921401C80B220809A
:10A2800008F800102088401C80B2208000EB0801F4
:10A29000BDF8000008F0B6FD218808442080F07861
:10A2A0000222C8B1218896F9033001F1030C484617
:10A2B000BC45D5D8425421884FF0010C491C89B2C5
:10A2C000218000F801C02188491C89B2218009F849
:10A2D00001302088401C20807068B8B1218890F936
:10A2E000003001F1030C4846BC45B9D842542188DE
:10A2F0000A22491C89B2218042542188491C89B212
:10A30000218009F801302088401C2080308950B11C
:10A31000CDE900474B460622022106F1080008F06D
:10A320006FFE051E9DD1308A50B1CDE900474B46E6
:10A330000722032106F1100008F062FE051E90D1ED
:10A34000308B50B1CDE900474B461522142106F160
:10A35000180008F055FE051E83D1306A30B13B4627
:10A360002246494601F017FE051EDBD1706A30B166
:10A370003B462246494603F0A5FD051ED2D196F87C
:10A380002C0038B13B4622464946304607F084FF50
:10A39000051EC7D1307838B13B4622464946304683
:10A3A00003F016FE051EBDD128465AE718B504462F
:10A3B0000020ADF8000013466A46204600F006F87B
:10A3C000002802D0BDF80000204418BD70B588B147
:10A3D00082B10024158803E0065D641C3444A4B2F5
:10A3E000A54203D8061976789E4201D08C42F3D359
:10A3F0008C4201D3002070BDA11C1180005D401E65
:10A4000080B270BD80F8301070472DE9F0410D002A
:10A41000044606D02CB195F87A000026012803D016
:10A4200006E00E20BDE8F08195F89800012829D0BB
:10A43000D5F8A000042825D0D5F89C00042821D008
:10A440004FF00108A6702C2205F17801201DFFF7BE
:10A450001BF884F83060D5F8A4006063D5F8A80034
:10A46000A0634FF6FF70A4F8A80004F19400C4F8AC
:10A47000A400C4F8AA60A4F8AE6084F8B0602078A4
:10A4800010B104E00720CDE7FF2084F8540004F168
:10A4900055011F27C4F89410A4F8987004F198028D
:10A4A0002846FFF7C2FE0028BCD115F13C0F0ED0A4
:10A4B00004F17401C4F89C10A4F8A07004F1A00287
:10A4C00005F13C00FFF7B1FE0028ABD103E0C4F872
:10A4D0009C60A4F8A06084F85180208BA4F8480008
:10A4E00084F83C80266484F8506060696064454666
:10A4F00004F13C02002104F1540072DF002891D1E4
:10A5000025708FE710B50288102A1BD0112A20D0A1
:10A51000262A1DD1007A0C46012801D0022817D125
:10A52000A0780521401CB0FBF1F201FB120120468E
:10A5300000F035F800280BD0A16B002908D0BDE849
:10A5400010400847C27B012A02D18088A1F8A800E8
:10A5500010BD0C46002184F8B2108088B4F8A81011
:10A560008842F5D120790028F2D10121DFE710B52A
:10A570000C46022801D0032810D1607800280DD0A5
:10A5800000206070A178204600F009F8002805D06E
:10A59000A16B002902D0BDE81040084710BD2DE98D
:10A5A000F05F044600780F4638B1A770002004F031
:10A5B000FBFA012620B16670F4E00820BDE8F09FA8
:10A5C0000025C4F8AA50A4F8AE5084F8B050A07981
:10A5D00010B1A078012806D0E07968B1A0780128F0
:10A5E00001D0022808D1616B21B184F8B160082044
:10A5F000884701E084F8B15004F1AB0100200A5C07
:10A600000AB1304603E0401C0628F8D300204FF082
:10A6100002084FF0030A4FF0040B012F06D0022F5F
:10A620000CD0032F0FD0042F15D110E0A17929B140
:10A6300094F8241011B908B130460DE0E17911B158
:10A6400008B1404608E0207A08B1504604E0607A3C
:10A6500008B1584600E02846A070616B41B103285C
:10A6600001D0042804D1607910B194F8B200A0B1EF
:10A6700084F8B35004F13C0018210746FEF71DFF93
:10A6800004F12C0084F83C60814606F007FD58B1C7
:10A6900094F82C0084F8510008E084F8B45084F851
:10A6A000B36007208847E5E784F8516094F82400F8
:10A6B00050B1484606F0F2FC20B194F8280084F826
:10A6C000520001E084F8526084F85050A27804F1FE
:10A6D000AA0104F19409052A4DD2DFE802F06503CE
:10A6E0000F1B320084F83160C4F8A450C4E910157F
:10A6F00084F83C808020A4F848003EE084F8318053
:10A7000087F800A0228ABA81C4F8A4507960E16871
:10A71000B96032E06069B860208BB8813D4684F84A
:10A720003C60204608F030FC40B185F814800421DC
:10A73000204602F0B9F8F0B9052115E084F831A0FF
:10A7400017E0E069B860208CB8813D4684F83C6031
:10A75000204608F019FC50B185F8148004212046E9
:10A7600002F0A2F838B9062184F8311001E084F82B
:10A7700031B0C4F8A490A07878B13A4604F15400FE
:10A78000D4F8A41072DF00287FF418AF94F83010CA
:10A7900094F8540073DF0028F6D1616B11B194F87E
:10A7A00031008847002009E784F83150F5E70000C0
:10A7B000F7B594B0174605003CD0287C9DF854109E
:10A7C0000024884252D000264FF0010E0D9615A8A5
:10A7D000ADF834E00E90ADF83660E9880DAA4FF67A
:10A7E000FF70ACDF040026D19DF854002874687C0B
:10A7F000A0B30F96109611961296E888ADF83C001B
:10A80000BDF83600ADF840000DA811900E981290DA
:10A81000A7F57F408DF83EE0FE3805D039460FA8F9
:10A82000FFF7FEFC044621E0684600F09DF8002595
:10A830006F460FE00E2017B0F0BD00BF07EB4506D6
:10A84000B08800F0C5F8022803D144B10FA9B08840
:10A85000AEDF6D1C0098A842F0D807E005E0B18893
:10A860000FA8FFF7DDFC0446F3E708242046E2E7E3
:10A8700038B50D46040018D0BDB12868206028798D
:10A880006074FF20207401208DF8020041F60F0053
:10A89000ADF80000221D69460120A8DF002803D181
:10A8A00029462046FFF7F2FB38BD0E2038BD38B5EB
:10A8B000002924D0002822D00288502A1FD1054622
:10A8C000487C0C4600281AD0E9886289A81D91426C
:10A8D00015D14189022912D1216800290FD00C30ED
:10A8E00000F068FE08B1002000E001208DF80000B3
:10A8F000A888ADF80200226869462046904738BD16
:10A9000070B5040012D001461C221448FEF7BCFDAD
:10A910001248134D0560206850B17ADF002806D137
:10A920002068016829604068686005E00E2070BDFD
:10A930000B487BDF0028FAD108484FF6FF71143826
:10A94000084A20F8041B0549343901600021FFF74B
:10A9500021FA0028EBD0032070BD0000D420002095
:10A96000781B0020212F02000149496801F0F4BA48
:10A97000F020002010B5044600F080F8002805D033
:10A980002146BDE81040024803F01CBD10BD000088
:10A990000021002070B515460E46044608F000FB65
:10A9A000002809D0054800EB840080692A4631461A
:10A9B000BDE8704001F0B6BF70BD0000F02000207F
:10A9C00010B5002400F05AF800B10124204610BD53
:10A9D00070B50546002400F051F838B12946044806
:10A9E00003F0F0FC08B1022400E00124204670BD11
:10A9F000F820002010B51821034803F0BEFC1828E9
:10AA000000D0C0B210BD0000F020002070B5054697
:10AA10000C46084608F0C4FA60B1284600F02EF84B
:10AA200040B10548294600EB8400BDE8704018306D
:10AA300003F0C8BC002070BDF020002070B50546B2
:10AA400014460E46084608F0ABFA002812D02846F5
:10AA500000F014F800280DD00748294600EB8600C6
:10AA600018301CB1BDE8704003F0B7BCBDE87040C1
:10AA700003F068BC70BD0000F0200020142801D352
:10AA8000002070470146014803F09CBCF4200020E0
:10AA900070B504460D46008808F0B9F9A17829542C
:10AAA000401CC0B2E1782954401CC0B2217929541D
:10AAB000401CC0B261792954401CC0B2A17929540C
:10AAC000401CC0B270BD7CB5054608880C460930F4
:10AAD000904201D90C207CBD68466DDF0028FAD178
:10AAE00021880820685420881B21401C80B22080C7
:10AAF00029542088401C80B220802844DDF80110B1
:10AB00000160BDF8051081802088801D80B2208002
:10AB10009DF80010490800D0012129542088401CCC
:10AB2000208000207CBD00007FB5044601208DF808
:10AB3000060041F60A00ADF80400454A01A90120CB
:10AB4000A8DF00287ED1228804F13C0552B140489C
:10AB50002B46801C009042F62920616801F050F8D5
:10AB6000002873D1228952B139482B460A3000900F
:10AB700042F62420E16801F043F8002866D1228AD9
:10AB800052B133482B461230009042F625206169BD
:10AB900001F036F8002859D1228B52B12C482B46AF
:10ABA0001A30009042F62720E16901F029F80028C8
:10ABB0004CD1228C52B126482B462230009042F6CE
:10ABC0002620616A01F01CF800283FD1228D52B185
:10ABD0001F482B462A30009042F62820E16A01F0F7
:10ABE0000FF8002832D1216B71B102A807F03CFFA9
:10ABF00017482B4632300090082202A942F6232043
:10AC000000F0FEFF002821D1606B58B110492B469F
:10AC10003A3100910279016842F62A2000F0F0FFF3
:10AC2000002813D1A16B81B102A806F018FD0848D5
:10AC30002B4642300090072202A942F6502000F035
:10AC4000DFFF00E002E0002800D1002004B070BD6A
:10AC5000D61B002038B502880446212A31D011DCE9
:10AC60001D484FF003011D4D0088102A01EB0040E4
:10AC700018D0112A05D11AA104F088FB4FF6FF70F5
:10AC8000288038BD3B2A22D0562AFAD18088132149
:10AC900076DF041EF5D0FFF771F82046BDE8384096
:10ACA000FFF76CB812A104F071FB072000F0D2FD91
:10ACB00008B1FFF763F8A1882980104803F0B8FCB9
:10ACC000E7E700200090A08869468FDFE1E78088F1
:10ACD000132176DFDDE70000941D0020481B0020D3
:10ACE000446973636F6E6E65637465642E00000063
:10ACF000436F6E6E65637465642E0000001F002054
:10AD000010B51A4C0188606810290ED011292BD17A
:10AD1000401E606028D1FEF733FF002824D0216850
:10AD2000002921D0BDE810400847D0B900210122F8
:10AD3000084600F06DFD08B107280FD10722022157
:10AD4000012000F065FD08B1072807D10422022187
:10AD5000002000F05DFD20B1072802D0216801B17C
:10AD600088476068401C606010BD0000701B0020B8
:10AD70002DE9F04701883B4E40F2F3194FF6FF757D
:10AD800010291BD011293ED0122954D0502946D168
:10AD9000C188F289841D914241D1618902293ED145
:10ADA0008688304602F07EFB050038D004F10C00A6
:10ADB00000F000FCA8B3294630464EE0C17B8788EE
:10ADC000044601292BD1A846284602F06BFB05005A
:10ADD00017D02F8000202872234843464A46016836
:10ADE000C5F80A104068C5F80E0004F1100105F11D
:10ADF0000A0002F023FC6872F08900280FD129466E
:10AE00002AE0042013E0808802F04CFB040006D006
:10AE10006068FFF73FF808B107F052F92580BDE8F8
:10AE2000F087FFE76868FFF735F80028F7D0BDE83E
:10AE3000F04707F045B987880646384602F032FBEE
:10AE40000400ECD02B464A4606F1080104F10A0042
:10AE500002F0F4FB607221463846BDE8F04701F08D
:10AE6000E1B80000D4200020781B00202DE9F04F2D
:10AE70000746858802883D48012197B08346102AFD
:10AE800009D0112A49D01A2A6CD1387AB1EB101F97
:10AE900045D2012244E0354C083CA068C0430B90E9
:10AEA00061680BA803F0B2FA0B990CA801F054F8F2
:10AEB0002C220CA96846FEF7E7FA0026E946A046D0
:10AEC00010E000BF09EB46005FF00004B0F804A0FA
:10AED00008EB84005146001D03F034FA641C1D2C5D
:10AEE000F6D3761C0098B042ECD8142D05D317B0D9
:10AEF0000420BDE8F04FFEF741BF2946584603F055
:10AF00006CFA294608F1040003F067FAF87B01287F
:10AF100028D016482946001D15E029461AE00022CF
:10AF20000221B1EB101F01D2012600E000260F49DB
:10AF3000083901F11000041D294682B103F04DFAD1
:10AF400036B12946204617B0BDE8F04F03F045BAA8
:10AF50002946204617B0BDE8F04F03F0F3B903F0DF
:10AF6000F1F9F5E717B0BDE8F08F0000F8200020F8
:10AF700010B504460748007800280AD0204602F0A1
:10AF80006FF8204607F0CEFA2046BDE8104001F0E9
:10AF900009BE10BDA81B002030B50020094A01469B
:10AFA000FF2302F1DC0400BF00EB400505EBC00508
:10AFB00002F815102354401C0A28F5DB02480180D2
:10AFC00030BD0000C4230020201C00200148008860
:10AFD00070470000201C00202DE9F041164E074666
:10AFE00030880A280CD01548002400BF04EB440127
:10AFF00001EBC40110F8111029B1641C0A2CF5DB17
:10B000000420BDE8F08104EB440101EBC4010122FE
:10B0100000F8112000EB4105A81C14223946FEF768
:10B0200033FA6C8005493088DC310C543C80401C7C
:10B0300030800020E5E70000201C0020C423002011
:10B04000094A1288904201D307207047074A105CD2
:10B0500000EB400202EBC000044ADC3A02EB400085
:10B06000001D086000207047201C0020A024002044
:10B07000002800D0006C704730B589B00D46040040
:10B080004FD0E5B320216846FEF717FA2888608084
:10B0900068686061A868A061E868A064287C84F89A
:10B0A0004C00A87C84F84E00E869E063286A2064BC
:10B0B000D5E90501C4E90301FF2084F844004FF6F7
:10B0C000FF71A4F8461000202077218084F84F00FB
:10B0D00084F8510084F8500084F8380042F66B2060
:10B0E000ADF800009DF80D0040F028008DF80D002F
:10B0F00001208DF810008DF80C00172000E010E002
:10B10000ADF8040095F824008DF8120095F825009C
:10B110008DF813006088221D694600F0C1FD09B05A
:10B1200030BD0E20FBE7002801D090F84F0070479B
:10B13000002800D0806B704770B500281FD0002910
:10B140001DD00B880022512B3CD019DC102B22D0B3
:10B15000112B24D0502B12D18A8803889A420ED109
:10B16000CB88058904468A1D01F11200AB421ED12D
:10B170005189022903D100F019FA84F8500070BDFA
:10B18000532B37D0572BFAD1017F0129F7D1BDE8D6
:10B19000704006F073BD80F83820898805E0898802
:10B1A00003889942EBD14FF6FF71018034E0218A88
:10B1B0008B42E4D151890229E1D100F0FBF984F8F6
:10B1C000510070BD8A8803889A42FAD111F8062F7F
:10B1D000022AF6D14A8883889A42F2D10A7A042A4E
:10B1E000EFD0062AEDD0052AEBD0BDE87040891CCF
:10B1F00004F082BF8B880488A342E2D1C988838887
:10B200009942DED1017F022906D081690029D8D078
:10B21000BDE8704008200847027770BD002800D0C4
:10B22000C06B704728B121B1007A20B10846FFF702
:10B23000D3BE0E207047062070472DE9F04399B029
:10B2400004000D4608D03DB1084602F003F928B1CC
:10B25000072019B0BDE8F0830E20FAE728682060C7
:10B26000A86860604FF6FF706081A869A063A87B42
:10B270002072002684F83E6084F85C6084F87A606E
:10B28000E869C4F89800286AC4F89C00686AC4F8A1
:10B29000A00084F83C6084F83D60FFF77DFE4FF02D
:10B2A00001088DF84A8041F61900ADF8480004F114
:10B2B0000C0212A94046A8DF0028CAD113A9A86928
:10B2C00007F0B1FD074620210AA8FEF7F6F842F67E
:10B2D0006A20ADF8280013A80C909DF83500ADF851
:10B2E0002C7040F00200ADF82E708DF83500E87B30
:10B2F0008DF83900A08904F116020AA900F0D0FCEB
:10B300000028A6D113AA2046E96902F04DFB814628
:10B3100020210AA8FEF7D1F842F66720ADF82800F0
:10B3200013A80C908DF834809DF835001727ADF8E0
:10B330002C7040F01000ADF82E908DF83500287C70
:10B340008DF83B00A08904F10E020AA900F0A8FCC8
:10B350000028B2D1287B28B313AA2046296A06F018
:10B3600098F9804620210AA8FEF7A7F842F669203E
:10B37000ADF8280013A80C909DF83500ADF82C709E
:10B3800040F00200ADF82E808DF83500687C8DF815
:10B390003900A08904F126020AA900F081FC0028E6
:10B3A0008BD103E06685A6852685E684A87BF8B167
:10B3B00020210AA8FEF781F842F66820ADF828009F
:10B3C0001320ADF82C009DF83500ADF82E6040F04C
:10B3D00010000C968DF83500A87C8DF83B00A089F4
:10B3E00004F11E020AA900F05BFC002889D103E0E9
:10B3F0006684A6842684E683687B70B3A86802907E
:10B4000068680190E87C8DF82400287D8DF825007F
:10B41000A8690390287B8DF81000A87B8DF8120096
:10B42000E869694600690790E869C0690890A089E1
:10B43000ADF80000D4F81E000590D4F82200069064
:10B4400004F1A400FFF718FE0028A9D154F8A80FB2
:10B4500044F87A0C606844F8760C0020F9E62DE98F
:10B46000F041040037D06089A0F57F41FF3934D026
:10B4700094F83C0070B304F13E0504F15C06002032
:10B480002870307094F838004FF0010740070CD056
:10B490002046AA1DD4F8981002F086FAA880E08908
:10B4A00068802F70204602F0C5FE94F8380010F036
:10B4B000780F0CD0B21D2046D4F8981002F0CDFAC7
:10B4C000B080E08970803770204602F0B3FE002023
:10B4D000BDE8F08101E00E20FAE70820F8E770B53A
:10B4E000040022D06089A0F57F41FF3921D004F10A
:10B4F0007A0500202870207AC8B194F83D00C0B1C8
:10B5000004F1A400FFF70FFE98B1AA1D2046D4F85D
:10B51000A01002F0ABFDA880E08B688001202870AD
:10B52000204602F087FE002070BD0E2070BD062070
:10B5300070BD082070BD70B5054600291ED0002DD5
:10B540001CD00C46014604F1A400FFF7F5FD288845
:10B5500010280AD0112812D0502818D057280DD101
:10B560002046BDE8704002F065BEA88860810020DA
:10B5700084F83E0084F85C0084F87A0070BD60892D
:10B58000A9888842FAD14FF6FF70608170BD2946C4
:10B590002046BDE8704005F05DB870B504460D4624
:10B5A0000846FDF795FF2080656070BD0078C0F308
:10B5B00040007047007800F0010070470A78027080
:10B5C00049784170022070470149085C70470000CB
:10B5D000903502000649095C4FF0A040D0F81005F4
:10B5E000C84010F0010000D0012080F00100704739
:10B5F000903502002DE9FC410646C0074FF00005DA
:10B600000ED0104F00240122385D00950023114612
:10B61000019503F049FC641C042CF4D300F046F8B7
:10B62000B0070DD5074E0024361D0022305D0323E0
:10B6300000951146019503F037FC641C042CF4D3EB
:10B64000BDE8FC818C35020007490B5C4FF0A0413E
:10B65000D1F804250120984020EA0203C1F80835FA
:10B660001040C1F80C0570478C3502000249085C97
:10B67000012103F07CBC00008C3502000249085C0B
:10B68000002103F074BC00008C3502000649095CFF
:10B690004FF0A040D0F80405C84010F0010000D0E1
:10B6A000012080F0010070478C35020010B50024A5
:10B6B0002046FFF7DBFF641C042CF9D310BD10B546
:10B6C00000242046FFF7DAFF641C042CF9D310BDD8
:10B6D00010B50246064B4FF0FF3000215C5C9442EF
:10B6E00001D1084610BD491C0429F7D310BD000044
:10B6F0009035020070B50C4E0C004FF00005306024
:10B700000BD0012000F06AF808B1022004E000200C
:10B7100000F064F800B10B202070706810B9FEF7DB
:10B720002FFA0546284670BD701B002010B500207A
:10B7300000F0C2F908B1062806D1012000F0BCF9DA
:10B7400008B1062800D1002010BD00002DE9F04707
:10B750000D468146FFF7BCFF0446042836D2DFF8C9
:10B7600074801B481C4EA8F10C0725B3012D0ED088
:10B77000022D2BD104EB440030444578002D25D018
:10B78000B968002922D02846BDE8F047084704EBF5
:10B790004401755C0E44717849B10E4A4FF4004182
:10B7A000093A8068FEF732FB08B987F80390B17850
:10B7B00008F80410E2E78068FEF76CFB04EB440134
:10B7C000314418F804008D78A842D7D0BDE8F0873E
:10B7D000943502006C1B002074200020042801D244
:10B7E000FFF7F8BE00207047042803D00A280BD1C9
:10B7F00006F084BE05481321008876DF082803D0B0
:10B80000002801D0FEF7BABA70470000481B00209C
:10B8100070B50023042810D20D4D00EB4004012A1E
:10B8200002D101290CD00022094E00EB4000304427
:10B8300061B1012906D0022906D00723184670BD40
:10B840000E30C2B22A55F9E74270F7E78270F5E789
:10B8500074200020044A014600201279D20702D049
:10B86000084600F04DB87047601B002070B50646D2
:10B870001E480024C0E90161B00720D5002501223F
:10B8800011462846FFF7C4FF6D1C0446042D02D262
:10B89000002CF4D013E094B940F2666204211448FD
:10B8A000FEF7F2F904000AD1FEF7DCF9040006D134
:10B8B0000F48104A0021001FFEF76CFA0446F007FB
:10B8C00012D00120FFF796FE74B909480A4A0021F8
:10B8D0000C38FEF75FFA040006D10548074A01213B
:10B8E0000838FEF757FA0446204670BD601B00205A
:10B8F000A035020085BB0100D1D60100539C010098
:10B900002DE9F05F6A4C054600266078B34618B111
:10B9100084F801B001F0C4FE664F4FF47A694FF429
:10B92000C87A4FF00108182D62D2DFE805F0AC0CA0
:10B930000C31404D62676B746B74BE7D7D7D7D7D87
:10B94000ACAFB2B5BEBE0020FFF7A0FE00284FF09E
:10B95000000008D0FFF78AFE022D02D14FF4E1600B
:10B9600008E0484606E0FFF789FE022D01D1C82015
:10B9700000E05046410CC0034FF4FA72801841F1C8
:10B980000001257052000023FDF73AFD01462AE030
:10B990000020FFF77BFE00284FF0000004D0FFF7E7
:10B9A00065FE4FF44870E5E7FFF768FEDFE700202B
:10B9B000FFF76CFE00284FF0000002D0FFF756FEA4
:10B9C000CFE7FFF75BFED4E70020FFF75FFE00281C
:10B9D0004FF0000002D0FFF749FE01E0FFF74EFEF6
:10B9E000257041F69A1100223868FEF70FFA0646D4
:10B9F00046E00020FFF728FE257008E0002051E017
:10BA000025703DE084F801800120FFF71DFE002233
:10BA100040F6CD41E8E784F801800120FFF714FEED
:10BA200000224FF48041DFE77868FEF733FA0646DC
:10BA3000D5F1110000D02EB10220FFF717FE84F8D7
:10BA400002B01DE0012816D980B2C8214843C117B1
:10BA5000C90341EA5041C0034FF4FA72801841F122
:10BA6000000152000023FDF7CBFC0146002278685C
:10BA7000FEF7CCF906460220FFF700FE84F80280AC
:10BA80003046BDE8F09F01F00BFEB9E701F008FE7B
:10BA9000B4E701F005FE04E001F002FE0020FFF72C
:10BAA000EDFD0120FFF7EAFDAAE7FFF708FEA7E793
:10BAB000601B002094350200012107F008BB000044
:10BAC0002DE9F8430546861C00208DF800009046BD
:10BAD0000F464FF001096846FEF7ECF91B4C206851
:10BAE0003860D4E90001401AA16804F21C47081A22
:10BAF0000EE00121384602F083FC02F095F8014681
:10BB0000384602F07DFCD4E90001401AA168081A09
:10BB1000401C8642EDD8B8F1000F03D0052065F334
:10BB2000891002E0062065F39F50A2682168114049
:10BB300004EB8101C8602068304420609DF800005B
:10BB4000FEF7DCF94846BDE8F88300000429002030
:10BB500030B482680468531C8360A154D0E9011298
:10BB60008A4202D330BC02F04CBE30BC70470000A9
:10BB7000034803C8814201D101207047002070476B
:10BB80000429002000780221FFF7E0BD05494FF0AD
:10BB9000FF32082841F8202002D3084480F84820CA
:10BBA00070470000C0240020F0B54FF0FF3512B1FF
:10BBB0000023082601E008230C260C4C05E000BFFA
:10BBC00054F823707F1C04D05B1CB342F8D3284682
:10BBD000F0BD26185DB286F8305044F82310002AD4
:10BBE000F5D1E11881F84800F1E70000C0240020F9
:10BBF0000249084490F9300070470000C02400203A
:10BC00002DE9F0438FB01E46DDF8589015460F0021
:10BC1000804602D10020FEF7B1F815B90020FEF7EA
:10BC2000ADF81C216846FDF748FC00249DF8000093
:10BC3000039440F002008DF80000012001948DF87B
:10BC40003600049405940694ADF834800C94307852
:10BC50008DF8300070788DF831009DF83200142195
:10BC600020F00600801C20F019008DF8320007A893
:10BC7000FDF723FC0DA807900CA808900748ADF825
:10BC80002450ADF82640ADF828500B974B4607AA34
:10BC900069460088AADF0FB0BDE8F083D61B0020FC
:10BCA0002DE9F0438146887891B090460C4600B962
:10BCB00001208DF83E002088ADF83C00002500955D
:10BCC000607C694606F002FC6E46A07C711C06F0A2
:10BCD000FDFBE07B00289DF8020002D040F0080048
:10BCE00001E020F008008DF80200217C11B140F045
:10BCF000100001E020F010008DF80200217B11B14E
:10BD000040F0010001E020F001008DF80200217DEB
:10BD100009B1022100E0012161F342008DF8020027
:10BD20001C2102A8FDF7C9FB607BC10601D4800677
:10BD300017D50E950EAFE07C791C06F0C7FB9DF879
:10BD40003800079720F00F00401C20F0F000103062
:10BD50008DF838009DF83A0020F00600801C8DF820
:10BD60003A00607B8DF80800A07B8DF80900142153
:10BD700009A8FDF7A2FB0FA8CDE90906A088ADF838
:10BD80003000A06820B1E088ADF82C00A0680D90CC
:10BD9000A06998B301950088ADF81000A06901ADC5
:10BDA00001A94088ADF81200A0694068069503908B
:10BDB000A069007B06F08AFBA069691C407B06F045
:10BDC00085FBA069807A00289DF8060002D040F02B
:10BDD000080001E020F008008DF80600A169C97A8A
:10BDE00011B140F0100001E020F010008DF80600C5
:10BDF000A169097A19B140F0010002E00DE020F0DC
:10BE000001008DF80600A169897B09B1022100E0DB
:10BE1000012161F342008DF80600E06900B1059050
:10BE2000434609AA02A94846AADF11B0BDE8F0833B
:10BE300070B504464FF6FF750A462846AC4208D155
:10BE40004FF480742146104605F07AFAA04209D0DA
:10BE500070BDFF2CFCD82146104605F064FA08B1ED
:10BE6000204670BD284670BD70B5084C050009D04D
:10BE700010342168002907D00868206049682846E6
:10BE80008847F6E70834F4E770BD0000AC240020D2
:10BE9000054A012120B1012805D19170FFF7E4BFC7
:10BEA00051700020FAE77047AC2400202DE9F05FC4
:10BEB00026484168F1B3DFF898B00E688146DBF898
:10BEC000004087688078E11B21F07F45ED1CB0B908
:10BED000DFF880804FF48030C8F84403C8F80403CA
:10BEE0001120FDF709FC1120FDF711FC4FF0010AAC
:10BEF000C8F800A02F2003F08BFE89F802A0B542FD
:10BF000000D23546124BE8193C3320F07F401860D0
:10BF1000DBF800105A46091B21F07F41001B20F07E
:10BF20007F40C91C81420FD9106818602F2003F090
:10BF30006FFE00E004E0BDE8F05F1120FDF7F2BB0A
:10BF4000BDE8F05F05F0E2BEBDE8F09F581C0020A0
:10BF5000041501400010014073B58CB00646002066
:10BF600000900D9880B100246D4621460DA802F086
:10BF700029FA30B1009805EB400084800098401CFD
:10BF80000090641C142CF0D32C2269463046FDF737
:10BF90007BFA0EB070BD2DE9F04117880646B81D3A
:10BFA00014460D46984202D90C20BDE8F081318834
:10BFB000072206290AD34FF4486C4FF6FF736145F8
:10BFC00001D9994202D17088062801D21046ECE7C7
:10BFD000604501D99842F9D1994203D0984201D0E5
:10BFE0008142F3D80520E85520881221401C80B2F8
:10BFF000208029542088401C80B22080411930883C
:10C0000006F000FF2188084480B220804119708822
:10C0100006F0F8FE2188084420800020C5E7FDF7DF
:10C02000ADBE000038B54A7A0F4B62B100220A72E9
:10C030005969002906D001228DF80020ADF80200D0
:10C040006846884738BD0A7A62B19B684C680246E8
:10C0500019462046FDF7DAFE0028F3D0BDE8384047
:10C0600006F02EB85B68F1E7D4200020F0B585B06B
:10C0700016460F4604461D4614220B496846FDF736
:10C0800003FA0A488DF80870ADF80240ADF80A606E
:10C090008DF80C50017800222046FEF7CFFC684650
:10C0A00000F0FCF905B0F0BDA4360200B81B00207A
:10C0B00030B5044685B000211B4805F034F900284E
:10C0C0002FD00025204600F0FAFE68B1112812D0CA
:10C0D00086281BD0A0F54051023903D001462046E6
:10C0E00005F0F6FF294607E005B029462046BDE8E1
:10C0F000304001F077BD0121204601F073FD05B00D
:10C100000021BDE83040084805F041B91422074934
:10C110006846FDF7B9F9ADF80240684600F09AF9B3
:10C12000E0E705B030BD0000811B0020D4350200DF
:10C130007FB50C4610B1012004B070BD20790026F7
:10C1400038B141F61D5501281BD0022826D00F20FA
:10C15000F2E70220207102960396E068019069469A
:10C1600001A805F0E9FC50B102988188E1800088BF
:10C170002081BDF80010029805F05CFDDCE70A2084
:10C18000DAE70A4B6A460021A01D05F091FC38B1A0
:10C19000064918398E61CE610A28CDD12846CBE7F1
:10C1A00002488188019805F045FDF5E7981C0020BC
:10C1B0002DE9F0470025DFF890803DE06068002120
:10C1C00000EBC506012032789146FDF74AF9D4E923
:10C1D000062300EA020701EA030C57EA0C0729D0FC
:10C1E00082438B434846C4E9062303F0D3FD3278EB
:10C1F0008246914601200021FDF733F9D4E904235A
:10C2000000EA020401EA03074A4650460021FDF70E
:10C2100028F944404F403C430CD17078012801D0AC
:10C22000012000E00020726880EA0A0012B1C1B269
:10C23000484690476D1CEDB298F800004446854290
:10C24000BCD3BDE8F0870000381C002010B50021E9
:10C25000024802F0F0F880F3100010BD202D0020FD
:10C260000E4910B50A784C780023A24212D0521C15
:10C27000D2B20A70022A00D10B70084A0B780C3235
:10C2800052F8232002608868104420F07F408860C4
:10C29000012010BD0360002010BD0000581C0020CC
:10C2A00013460A460021FFF7E1BE00002DE9F843DE
:10C2B000104D0F4680461E4691466946286802F09A
:10C2C00015F8040014D01C21FDF7F7F801202071A7
:10C2D000C4F81490380BC4F80080C4E902606946C1
:10C2E000286802F024F805F077FB0020BDE8F88309
:10C2F0000420FBE79837020010B503780022072BD3
:10C3000006D2DFE803F005040610202930000A7089
:10C3100010BD01230B7003898B818388CB81C0689A
:10C3200088600A7410BD02220A7002898A8182889C
:10C33000CA81C2688A60807D062802D00020087405
:10C3400010BD0120FBE703220A70C2888A8102899E
:10C35000CA81C068886010BD04230B70C0888881C2
:10C36000CA818A6010BD0520087010BD70B5064DE9
:10C370000646002455F8241009B130468847641C4D
:10C38000042CF7D370BD00008426002030B504468D
:10C39000006887B00D46806800281FD018216846C5
:10C3A000FDF78BF80195A0680590207910B1012860
:10C3B00010D107E001208DF8000020690290E068AC
:10C3C000039005E002208DF80000E0680003029071
:10C3D00060690490206881686846884707B030BD6E
:10C3E00070B586B015460C00064619D0112C17D032
:10C3F000082C15D014216846FDF75FF8ADF80260EF
:10C40000304600F053FFADF804000D2C0AD0862C06
:10C410001CD007208DF800000294684600F04CF80C
:10C4200006B070BD03208DF8000025B12878C00744
:10C4300001D0012000E002208DF8080000208DF8D6
:10C440000C0041F20110ADF80A00E6E706208DF875
:10C450000000E2E710B50446408800F027FFA08006
:10C46000024801682046BDE810400847881B0020AC
:10C470002DE9F04107460024064E074D05E000BFB8
:10C4800056F8241038468847641CE8788442F7DB65
:10C49000BDE8F08178230020A81B002010B50446D9
:10C4A000408800F003FFA080024801682046BDE8F4
:10C4B0001040084778360200014909680847000023
:10C4C000CC36020070B586B0044614216846FCF7ED
:10C4D000F4FFA0890125A0F54040ADF804002078C4
:10C4E0002A4E062833D2DFE800F0320303032C483B
:10C4F000A08900F0BDF930B9E08943F6FE71A0F5DE
:10C500004040884223D8A07B8DF80800207803287B
:10C510000FD000208DF80900A0680390606850B12A
:10C5200009208DF8000060680490684604F064FB00
:10C530000DE00120EEE708208DF800008DF8105086
:10C54000F3E7A08900F094F908B1E08930B1707880
:10C55000002801D004F080FC06B070BD606820B1F6
:10C560000B208DF800007570DFE70A208DF80000C1
:10C57000BDF8040004F0FAFCF5E713208DF8000084
:10C580004FF6FF70ADF80400CFE70000981B0020C5
:10C5900038B504460E480078A8B1A4F57F40FF38AE
:10C5A0000FD0684605F04AF978B1052101700121E4
:10C5B0000171C480684605F04FF905F0FFF90020CD
:10C5C00038BD042038BD022038BD082038BD000029
:10C5D000A01C00200C4808B5007888B1684605F01A
:10C5E0002DF978B106210170684605F035F9074844
:10C5F000017809B10121017305F0E0F9002008BDBF
:10C60000022008BD082008BDA01C002048270020EB
:10C61000F0B587B014216846FCF74FFF2B4C20780B
:10C6200018B16846FFF7A2FE4EE0201D01F0E5FEBE
:10C63000B8BB4FF010204169000400694A1C02D1C8
:10C6400000EB40000101224800220161A1F54051A8
:10C65000C160204902F064FA002820D11F481C2341
:10C660008C221D49006801F02EFE04F0B5F805008B
:10C6700014D0022D12D000270126062D12D005A8B5
:10C6800005F0DCF888B106700C2D18D2DFE805F053
:10C69000170F170F17161716171113110B2007B0C6
:10C6A000F0BD11E026706760BBE70820F7E707716F
:10C6B00005E0032100E00221017100E0067105A8F8
:10C6C00005F0CAF805F07AF90020E8E7A01C002080
:10C6D000481D0020A83702009426002010370200D1
:10C6E00038B5040014D0694605F026FAA0B1BDF8AB
:10C6F000000000EB8001094800EB8100C16849B1EE
:10C70000A17A39B1C168491EC1600020A07238BD4C
:10C71000052038BD062038BD0A2038BD202700205E
:10C720001FB501A9684605F0C3F904B010BD07B5EF
:10C7300013460A466946002005F0BAF90EBD07B552
:10C7400013460A460021684605F0B2F90EBD20B135
:10C7500019B100680860002070470520704700008C
:10C76000F8B50D46040018D0BDB1694605F0E4F9EE
:10C77000A8B1BDF800000B4900EB800001EB800080
:10C7800001210C30666801F03BFE2E6060680C30C1
:10C7900068600120A0720020F8BD0520F8BD0A20C5
:10C7A000F8BD00002027002018B10323002206F066
:10C7B0007DBD052070470223002206F077BD12B12F
:10C7C000022306F073BD052070470000084910B52C
:10C7D0000A69042A0AD0074A096942F82100044874
:10C7E0000121103001F00CFE002010BD0C2010BD06
:10C7F000801C00208426002038B5044609480D46D8
:10C80000007858B164B16946284606F049FE002810
:10C8100003D1BDF800102180658038BD022038BDED
:10C82000052038BDA01C002010B504460E48007835
:10C8300098B1A4B12188022913D80C4A01EB8100D8
:10C8400002EB800260885289C31C934209D806F02B
:10C850001BFE00202080608010BD022010BD05203E
:10C8600010BD042010BD0000A01C002020270020C7
:10C8700043F6FE71A0F54040884201D80120704780
:10C880000020704710B504460078182802D1FEF742
:10C89000B1F8207010BD10B504460078182802D1F8
:10C8A000FEF7A8F8207010BD70B50D460446B0F82C
:10C8B0009810D0F894000122FDF778FD00B10570C2
:10C8C00004F13C0204F1940104F1540072DF70BDE4
:10C8D00070B51346002206461546862902D0112956
:10C8E00002D002E0012200E001250D4C73B1A179D4
:10C8F000FEF7A4F82A4661793046FEF79FF8002239
:10C90000A1783046FEF79AF8002203E0A178FEF7FE
:10C9100095F82A4661783046BDE87040FEF78EB83B
:10C92000C01B0020F7B517460E0011D00098002557
:10C9300060B100242146684601F044FD18B1A0B260
:10C940003946B0476D1C641C142CF3D32846FEBD39
:10C950000020FEBD406804F091BF00000EB516A196
:10C960009DF8080020F00F00401C20F0F00010306F
:10C970008DF808000A2202A87CDF08B1FDF7FEF955
:10C9800041F2424078DF08B1FDF7F8F9002000904D
:10C990005021ADF800100190C821ADF80400480006
:10C9A000ADF80600ADF8021068467ADF002801D025
:10C9B000FDF7E4F90EBD00004E6F726469635F4CD1
:10C9C0004E53000070B508B1012070BD194C002510
:10C9D000207B08B1257301E000F0A0F8207808283A
:10C9E00026D2DFE800F02504080C10251420BDE84D
:10C9F000704000F021B8BDE8704000F07DB8BDE89F
:10CA0000704000F05FB8BDE8704000F03BB860884F
:10CA1000084900EB8000283901EB80004068BDE840
:10CA2000704003F0B9BE6560BDE8704003F0C2BE5F
:10CA30000F2070BD482700201149F0B48A1C002047
:10CA40000346A1F128050C18A67A4EB1A37200EB9B
:10CA5000800405EB8404E66816B9247C012C0AD016
:10CA6000401C80B20228EED30B704B804B60F0BCB0
:10CA700041F61D5070471080F0BC00F03DB800003A
:10CA8000482700200C48418801EB8102A0F12801D1
:10CA900001EB8201CA6852B10521017007480221E9
:10CAA0008180016800230122054801F0A3BF042210
:10CAB00002704968F6E7000048270020A81C002003
:10CAC000481D002038B50A49084803240B6842680D
:10CAD000898803EB810153880470DB1C00201B0450
:10CAE00000909B0B034802F0F5F838BD4827002062
:10CAF000A81C0020481D0020074910B54888091DC2
:10CB000005F06AF818B1BDE81040FFF7DBBFBDE8DB
:10CB10001040FFF7B7BF000048270020F0B51F48BE
:10CB20001F490125067802248B88A0F12802082ECF
:10CB300019D2DFE806F00418181B222F2F170189DD
:10CB4000491C01810021418080F80C1001EB810318
:10CB500012F8233043B100234418491C89B2A37250
:10CB60000229F3D30570F0BD0123F5E7426852882E
:10CB7000D21C1A448A800470F0BD46880D6806EB0A
:10CB8000860602EB860256680E60556013818C8023
:10CB9000062100E007210170F0BD000048270020B9
:10CBA000A81C002030B501888488224D85B050290A
:10CBB00024D0522902D0542931D103E0204600F07C
:10CBC000DDFF2CE014221C496846FCF75DFCADF843
:10CBD0000240204600F06AFBADF8040000F022F9A4
:10CBE000002269792046FDF729FF00222979204695
:10CBF000FDF724FF6846FFF72DFC10E0017B0129BB
:10CC00000DD1817A01290AD10089A0F52451023978
:10CC100005D10121204600F0E5FF06F077F900225A
:10CC20000649E878FDF7B6FE05B0BDE8304005F0EE
:10CC3000C1BA0000801B0020FC350200B99F010032
:10CC400010B50446007800280FD1608800F096FFE8
:10CC5000608800F081F9002807D00449608801222B
:10CC60000979BDE81040FDF7E9BE10BD801B00202A
:10CC700010B5124C00202070FDF7BCFEA070FDF72F
:10CC8000B9FEE070FDF7B6FE2071FDF7B3FE6071EE
:10CC9000A17818290FD0E17818290CD0217918290A
:10CCA00009D0182807D00121601C04F035FB0120B1
:10CCB0002070002010BD032010BD0000801B00204C
:10CCC0007CB50446007808282FD1607A38BB207ADA
:10CCD0004FF6FF7501280DD0072802D0082824D16F
:10CCE0001EE0A08800F020FAA8421ED0012100F02A
:10CCF00079FF1AE0A0886A46012103F095FE70B919
:10CD00000198007858B1A08800F00EFAA8420CD023
:10CD1000084901220979FDF791FE05F04BFA04E07C
:10CD200004480021401C04F032FBBDE87C4006F0C2
:10CD3000EDB80000801B002010B504460A48417879
:10CD40002046FDF763FE68B10848002101EB41026F
:10CD500000EB82025288A24201D1C8B210BD491C28
:10CD60001429F3D3FF2010BD921B0020682100205E
:10CD700070B5094D094E002404EB440005EB80001A
:10CD800071784088FDF742FE20B1641C142CF3D367
:10CD9000FF2070BDE0B270BD68210020921B002012
:10CDA0002DE9F0418046024601200021FCF759FBA5
:10CDB0001A4F05460E467868FDF76CF800280CD12E
:10CDC000174CD4E9062110462A4001EA06031A430B
:10CDD00005D0A843B143C4E90601BDE8F08140464F
:10CDE00002F0D8FF30B1D4E9040128433143C4E94B
:10CDF000040105E0D4E90410A943B043C4E90410D8
:10CE0000D4E9060128433143C4E90601A1687868E2
:10CE1000BDE8F0410022FCF7F9BF00000037020036
:10CE2000381C00201CB5054AD2E90212CDE90012D7
:10CE30000022694603F01DFE1CBD000014360200EE
:10CE400003484FF6FF718180012101700020704777
:10CE50008C1B00202DE9FC41804600F027FA0024BD
:10CE600003250127A0F57F412646FF3908D06A46F1
:10CE7000082103F0D9FD18B90198841D868805683A
:10CE800032462B4621464046B1DF042804D008280C
:10CE900004D00B2808D002E0112000E00020002F71
:10CEA00000D10B20BDE8FC810027A80701D5012592
:10CEB000E6E73443F5D0002426460325E0E72DE9D4
:10CEC000FC41804600F0F2F90646A0F57F40FF38AD
:10CED0000ED001252A466D1C0027ADB26B460821F5
:10CEE000304603F0CBFD040006D0072C25D025E00A
:10CEF00043F20200BDE8FC81019903230A1D0B6087
:10CF00004046891DB2DF040004D00C2C09D0052C4A
:10CF100009D009E032460821104603F025FE0446F8
:10CF20000CE0012700E000240821304603F008FE51
:10CF300000B10324002FCDD100E00C242046D9E716
:10CF400004488088A0F57F41FF3901D005F03CB945
:10CF5000704700008C1B00200EB502A9019100F063
:10CF6000A5F96A46012103F05FFD08B100200EBD5E
:10CF7000019800780EBD00002DE9F04107464FF6FC
:10CF8000FF760A48B3DF10B10320BDE8F081074CFB
:10CF900043F20305A41E324661883846AFDFA8423B
:10CFA000F3D16088401C6080F5E700008E1B0020F4
:10CFB000428800EB82020C328A4201D9022070477B
:10CFC0008188A1F57F42FF3A03D0008808B1002094
:10CFD000704701207047884204D20068401C01D08D
:10CFE00001207047002070473EB5027802230C46AE
:10CFF000B3EB520F17D1B0F80110ADF80010C178A3
:10D000008DF802108188ADF8041080798DF8060043
:10D0100002AA01A92046FCF7F3FD032202A96846F3
:10D02000FCF75DFA08B100203EBD01203EBD0000C6
:10D0300010B50C46FFF780FEFF280CD0074900EB27
:10D04000400001EB8000416821600189A180807A65
:10D05000A071002010BD052010BD00006821002037
:10D0600070B5018890B0102959D1011D2822684659
:10D07000FCF70AFA9DF804004FF6FF7603213446C8
:10D080006D46B1EB500F2AD003F024FE9DF804004A
:10D0900040080ED001280CD0022820D118E00C99AD
:10D0A000281D1131FCF747FD18B100BFBDF828401D
:10D0B00015E00BAA0AA9072003F0E0FD0028EED135
:10D0C0000DE00C99281D491CFFF78EFF0028EDD1BB
:10D0D0000BAA0AA9072003F0D1FD0028F1D1BDF861
:10D0E0000000291D01F058F8B44218D0BDF8000026
:10D0F000214600F0C5F8BDF80000ADF82A00002078
:10D10000ADF82C40074E8DF828000AAD044600BF4C
:10D1100056F8241028468847641C022CF8D310B017
:10D1200070BD000028360200094A002101EB4103CE
:10D1300032F82330834205D101EB410002EB80003D
:10D1400040887047491C1429F0D34FF6FF70704790
:10D15000682100203EB50C46054603F0BBFD0BE000
:10D16000BDF80000A04207D02846029900F02EF832
:10D1700010B1BDF800003EBD01AA6946072003F0CA
:10D180007DFD0028ECD14FF6FF703EBD10B50D4C73
:10D1900018200D4A607000204FF6FF7100EB40032D
:10D1A00002EB8303401C59801428F7D3FDF722FCBF
:10D1B0006070182803D001202070002010BD0320CB
:10D1C00010BD0000921B0020682100202DE9F041D5
:10D1D0000C46054600F1110701F111061022491C09
:10D1E000401CFCF77CF948B9681C00F049FA28B1EA
:10D1F000601C00F045FA08B1012400E0002431462B
:10D200003846FCF798FC3B780222B2EB530F0CD067
:10D210000321B1EB530F08D03378B2EB530F04D096
:10D22000B1EB530F01D0012100E00021084201D1F0
:10D230008C4302D00120BDE8F0810020FBE701888B
:10D2400011B9421892780AB101207047491C082987
:10D25000F7D30020704710B50C460346FFF7EFFFE9
:10D2600000280AD018882188884205D10822A11CEC
:10D27000981CFCF734F908B1002010BD012010BD46
:10D2800003F0C8BE70B50446FFF74EFF05462046C2
:10D2900003F0CDFB4FF6FF7104468D4203D014B965
:10D2A000284603F0B7FE204670BD000010B5FFF71A
:10D2B00043FDFF2805D0044900EB400031F8200071
:10D2C00010BD4FF6FF7010BD682100203EB504462A
:10D2D00003F000FD0EE0019920464631FFF7BBFF49
:10D2E00028B9019920462A31FFF7B5FF10B1BDF8E2
:10D2F00008003EBD6A4602A9072003F0BFFC0028D3
:10D30000E9D14FF6FF703EBD8179491CC9B28171E8
:10D310003B291FD9002181714279521CD2B242713E
:10D320003B2A17D941710279521CD2B20271182AD4
:10D3300010D90171C278521CD2B2C2701F2A09D909
:10D34000C1708178491CC9B281700C2902D9018849
:10D35000491C01807047000010B50A4941600A4825
:10D3600001F04BF858B902F093FB07491C238C22BB
:10D37000087404488C39001F006800F0A4FF0020E6
:10D3800010BD00009C370200E42700202DE9F04189
:10D390002D4F002518B17D600120BDE8F08108798E
:10D3A000012258B1294E01280CD0274C4FF0020819
:10D3B0000834022821D0032842D128E00A7103F062
:10D3C000F9F93BE05FF0000000EB800116F8211056
:10D3D000022908D0401C80B20228F5D33A707D6043
:10D3E00041F61D50D9E700EB800006F8205006EB0F
:10D3F0008000406803F0D0F920E00D71A4F80480AB
:10D40000002301221248216801F0F4FA16E00D71A0
:10D41000206803F0C1F90D4923682831498801EBE0
:10D42000810206EB8201D1F804C0C4F800C04B6051
:10D43000A3880B81A4F8048006F822500028ACD001
:10D440007D600E20A9E70000A01C002020270020FE
:10D45000481D0020017B11B1012907D008E0816936
:10D4600011F4FE3F1CD1016AD1B901E0016AB9B1E2
:10D47000417B19B9816911F4602F11D1817B11B100
:10D48000012907D008E0018B11F4607F08D1416ABF
:10D4900031B901E0416A19B1C06908B10020704793
:10D4A000012070470146034802888A4200D00020CC
:10D4B00070470000C02000202DE9FC5F0E0083466D
:10D4C000DDE90C47C6F1000098469246814600D43B
:10D4D0000846012503E000BF90FBFAF06D1C5045A3
:10D4E000FADAA84500D9454624B1002E01DB7807B9
:10D4F00000D5641EB80702D5B8F1000F0AD0F807AE
:10D5000008D13CB1A54205D220215846641EFEF741
:10D510001FFBF6E7002E02DA4E462D2102E07807C7
:10D5200003D52B215846FEF713FB07F00300022812
:10D530000BD1B8F1000F08D13CB1A54205D2302182
:10D540005846641EFEF704FBF6E7CDE90047434664
:10D5500052463146584605F07FFCBDE8FC9F00006E
:10D5600070B50D46044600684FF4887102F015FB53
:10D570004FF49071206802F010FB4FF49271206814
:10D5800002F00BFB4FF4A271206802F006FB20684A
:10D590001249C0F8041320686907000B40B2090E55
:10D5A000002806DA00F00F0000F1E02080F8141DDA
:10D5B00003E000F1E02080F8001420680121000B56
:10D5C00040B200F01F0291404009800000F1E020CD
:10D5D000C0F88012C0F8001170BD000010030200F6
:10D5E000024600201268930702D0530702D4704706
:10D5F000500714D502F00300012802D002280CD1F4
:10D6000005E0C2F383100B68801C184404E0022379
:10D61000086803EB925210440860012070470868C4
:10D6200000EB9253C2F38910401CEEE70248007AE7
:10D63000002800D001207047E4270020F0B584883E
:10D64000A518944200D82246A41AC288D6189A4235
:10D6500000D81346D21A4B880788BB420CD34088A7
:10D66000834209D88888A04206D3A84204D8C88833
:10D67000904201D3B04201D90020F0BD0120F0BD9D
:10D680000021425C0AB101207047491C1029F8D3DF
:10D6900000207047800701D00020704701207047AC
:10D6A0000A4810B5807860B1002401E0022C06D051
:10D6B0002046FDF7DBFF641C042CF7D310BD0324C8
:10D6C000F6E7BDE81040FDF7F1BF0000601B002049
:10D6D00003480179C90702D00078FEF711B97047F5
:10D6E000601B0020172101804180002101714171E0
:10D6F000704700002DE9FE4F2B4D984691460F00D4
:10D70000824601D000260DE0684600F071FD6A46B1
:10D710000021504603F0F7F82878009E10B99DF8D4
:10D72000090098B14A463146504605F057F804467C
:10D73000014600225046FFF7CBF80D2C32D008DC12
:10D7400084B3082C2ED00B2C0BD12BE00520BDE888
:10D75000FE8F112C10D0862C1AD0A4F54050023820
:10D7600020D00325B8F1000F04D0324621465046A0
:10D77000FEF736FE2846EAE73A4629795046FDF795
:10D780005DF94A46E9785046FDF758F90025E9E782
:10D790003A4629795046FDF751F94A46E97850460C
:10D7A000FDF74CF92546DDE7C01B00202DE9F041CF
:10D7B000204F0E46154604463978FDF727F9002814
:10D7C00035D0204603F096F850B32046FFF76EFDA3
:10D7D00080462046B978FDF719F908B1012700E025
:10D7E0000227204603F02EFB0028404602D0FFF718
:10D7F00049FD0DE0A8F57F41FF3909D0072103F06D
:10D800009FF9010004D0052902D0204604F074FCE1
:10D810002B46324639462046BDE8F041FEF726BC8D
:10D820002A4631462046BDE8F041FEF739BDBDE845
:10D83000F0810000B81B002070B5094D0646E9785C
:10D84000FDF7E4F8044629793046FDF7DFF8014694
:10D8500022463046BDE870400123FFF74BBF000071
:10D86000C01B00202DE9F047394E002780463D4679
:10D87000DFF8E090D6F804A057E003D00446D0F8D3
:10D880001C8035E099F8002002EB4201521CD2B214
:10D8900089F8002009EBC10199F80230091D9A426C
:10D8A00001D189F8005048680A780446012A12D04C
:10D8B000022A02D0032A3BD108E005F055F900B155
:10D8C0000127257434E00574C06900E07068002801
:10D8D000F9D170602CE0207C50BB88686060C8681B
:10D8E000A0600869E0604869A061F07800B16560F7
:10D8F0006268B168184B501A20F07F40984202D2FB
:10D90000A168084406E0881AA16820F07F4081429F
:10D9100002D9081A206000E0256065600120A5603A
:10D9200020742046E56105F001F9B8F10000A4D1AA
:10D9300099F8001099F801008142A3D117B97168D4
:10D94000514502D00120BDE8F0870020FBE7000030
:10D95000581C002060250020FFFF7F000022114698
:10D960000148FBF757BC0000EFBEADDE10B500F07C
:10D97000D9F803F0DBFE00F0E3FB0A48FDF76FFD8A
:10D98000082802D008B1FCF7F9F90648FDF7A7FD11
:10D99000082805D0002803D0BDE81040FCF7EEB9F8
:10D9A00010BD0000F81D00202DE9F0478146A4308D
:10D9B00090460C46002602258246FDF7B9FB074635
:10D9C00099F83800C00710D0207870B1F8070CD152
:10D9D000217A280200EA412040F0010608F1020104
:10D9E000A08905F014FA801CC5B299F838008007A8
:10D9F0000ED5607860B1B8070AD45046FDF70EFC2A
:10DA000046F0020608EB050105F006FA2844C5B207
:10DA100099F83800400719D5A078B8B1780715D41F
:10DA2000E17946F004004FF4C07202EAC1160643E1
:10DA300008EB0501606905F0F6F92844C5B208EB6A
:10DA40000501A06905F0EFF92844C5B2414630460A
:10DA500005F0DDF92846BDE8F0872DE9F04780465E
:10DA6000A43091460D46002602248246FDF760FB55
:10DA7000074698F83800000713D5E87888B13807CA
:10DA80000FD45046FDF7F4FA697A4FF4406202EA87
:10DA9000812141F0080609F1020105F0BDF9801C61
:10DAA000C4B298F83800C00612D5287980B1F806BB
:10DAB0000ED4A97A46F010004FF4805202EA0136E3
:10DAC000064309EB0401288C05F0A1F92044C4B2F7
:10DAD00098F8380080060BD5687948B1B80607D4A5
:10DAE00095F8221009F80410641C46F02006E4B2F0
:10DAF00098F8380040060DD5A87958B1780609D4B1
:10DB000046F0400609EB040105F12400FCF7C0FFD4
:10DB10002044C4B24946304605F079F92046BDE8B4
:10DB2000F08700001448C179491C01F00301C1715C
:10DB3000027A012121EA02020272427A521C02F0A8
:10DB400003024272827A914381720169491C016128
:10DB50004169491C41618169491C8161C169491C54
:10DB6000C161018C491C018490F82210491C80F885
:10DB700022102430FFF7C8BBD41F002030B585B079
:10DB80000546002414216846FBF797FCA5F57F4065
:10DB9000ADF80250FF3815D02846FFF75BF998B171
:10DBA0000B2815D0112811D0A0F54051023903D00F
:10DBB0000146284604F08CFA09482246C1782846D6
:10DBC000FCF73CFF05B030BD0E2002E00124F3E776
:10DBD0000F208DF800006846FEF73CFCECE70000E3
:10DBE000801B00200A4602498978FCF727BF000005
:10DBF000801B0020F8B5054600780C460026204220
:10DC00000FD100208DF800006846FCF753F9287802
:10DC1000204202D12043287001269DF80000FCF725
:10DC20006DF93046F8BD00002DE9FF41002623487C
:10DC300000F0E0FB2148001F074600F0DBFB204C12
:10DC400060680090A56800E000986946284004EBF1
:10DC500080000C30FFF7C4FC0028F5D101AA009920
:10DC600001EA050304EB8303491CDB6842F820301A
:10DC7000401C00910228F2D3019800F00300012813
:10DC80000BD0022810D10198032101EB905000998C
:10DC9000BDF80A6001EB900005E00198BDF80A604C
:10DCA000C0F3831008440090384600F0A0FB08B190
:10DCB0000098606004B03046BDE8F0811C2D002063
:10DCC000042900204FF40048ACB04146002001F088
:10DCD000CFFB08B1FCF752F801F03AFAFCF76CF808
:10DCE00008B1FCF74BF8614A01216148FCF752F892
:10DCF00008B1FCF743F85E485E4A0121001DFCF7BD
:10DD000049F808B1FCF73AF85B490320FDF7AEFD8E
:10DD100008B1FCF733F869460020FDF7EBFC08B1C9
:10DD2000FCF72CF89DF8000002287DD05FF000077A
:10DD300001F0BCFC08B1FCF721F801F04FFE08B17E
:10DD4000FCF71CF8002569460120009501F0D8FC7D
:10DD500008B1FCF713F8684601F052FD08B1FCF772
:10DD60000DF8FEF7FBFD0021444800F0D9FB08B197
:10DD7000FCF704F8AC216846FBF79FFB02208DF806
:10DD8000000001248DF8024006208DF803003C4875
:10DD900003260590ADF810602820229044F25060D0
:10DDA00023908DF87C4037482990344869461C30D0
:10DDB000FCF72BFB08B1FBF7E1FF304801211C30D9
:10DDC000FCF720FB04F0ACFA2C485121D430016060
:10DDD0006421C0E90114047301462948083804F09D
:10DDE000BBF91C216846FBF768FB4FF42030CDE9F6
:10DDF0000050029021488DF80C60F838408AADF848
:10DE00000E0021480590214806908DF81050684674
:10DE1000FCF776FD08B1FBF7B1FF03F009F9144CEC
:10DE200000221B49206800E01DE0FBF7EFFF08B16E
:10DE3000FBF7A4FF002241466068FBF7E7FF08B14B
:10DE4000FBF79CFF134814A1008806EB004001F08B
:10DE50009DFA3846FBF7B0FE01F088F90028FBD1A7
:10DE600001F038FCF8E7012762E70000DDA10100BE
:10DE7000FC3402006DD90100E9B70100F01E00205A
:10DE8000541B00200D000200590002001FC00100B9
:10DE900033330100941D00204C6F636174696F6E11
:10DEA00020616E64204E617669676174696F6E20CF
:10DEB0006578616D706C6520737461727465642E31
:10DEC0000000000070B5144682880E460546208882
:10DED000111D0144921C994201D8FE2A01D90C203F
:10DEE00070BD521C32542088FF21401C80B220801B
:10DEF00031542088401C80B220808119288804F089
:10DF000081FF2188084480B22080AA8842B1A96894
:10DF100041B13044FBF7B8FA2088A9880844208032
:10DF2000002070BD072070BD2DE9F047C78804466A
:10DF3000181D16468946B0FBF7F1B0FBF7F207FB58
:10DF400012009A193A44D21CB2FBF7F2DDF820A075
:10DF500001E02468491E0029FBD13D1A8846B542DC
:10DF600016D818E0BAF1000F05D0211809EB080007
:10DF70002A46091D04E0204409EB08012A46001D39
:10DF8000FBF782FA00202468761BA844B74201D927
:10DF9000354600E03D46002EE4D1BDE8F0870000A4
:10DFA00030B5024659B101F08FFA0021074C09E063
:10DFB00004EB810315685B88AB4202D1116000203D
:10DFC00030BD491C8142F3D3052030BD5C1D0020CB
:10DFD000F8B50F46017814460546012901D1687845
:10DFE00030B12088821C9A422DD8012902D006E047
:10DFF0000720F8BD69780144891C994223D8181A72
:10E00000801E86B2ADF800602188B81C08446946BD
:10E010007DDF0028EDD12878022805D1BDF8001059
:10E02000B14201D809210AE00821012805D1687808
:10E03000B04202D8ADF8000001E0ADF80060BDF8D4
:10E040000000FE2801D90C20F8BD2288401CB854DD
:10E050002088401C80B2208039542088401C2080B9
:10E06000BDF80010084420800020F8BD2DE9F041E3
:10E070000C46804616460027911C208904F0C7FEF6
:10E08000801CC5B27119608904F0C1FE2844C5B274
:10E0900098F83800000610D5207870B1207B7055B4
:10E0A0006D1CA189E8B2090A3154401CE168C0B274
:10E0B000090C01273154401CC5B2B8F83800C0051E
:10E0C00011D5607878B1207C70556D1C218AE8B23A
:10E0D000090A3154401C2169C0B2090C3154401C5A
:10E0E00047F00207C5B2B8F8380080050AD5A07815
:10E0F00040B147F00407711904F11400FCF7C8FCA3
:10E100002844C5B2E078182101EAC0002179202214
:10E11000384302EA411101436079402202EA80104B
:10E120000843A1799200C90740EA1161E07902EA47
:10E1300000200843314604F06AFE2846BDE8F0811D
:10E140001448C178491C01F00301C1700279012112
:10E1500021EA020202714279914341718179A9B1A8
:10E1600000218171C17999B10021C1710189491CD6
:10E1700001814189491C4181C168491CC160016913
:10E18000491C016103481430FFF7BEB80121E8E7DC
:10E190000121EAE71820002070B505460C004FF079
:10E1A000FF0020D04FF6FF76B5421CD00E4801226A
:10E1B00041782846FCF742FC2846FEF7BDFDFF28C3
:10E1C00003D1FEF7D5FDFF280DD0084B00EB400230
:10E1D00003EB82014D8023F8226022684A60A28806
:10E1E0000A81A2798A7270BD921B002068210020EA
:10E1F000034A00219268C0E9002181607047000055
:10E20000C01B002070B54FF6FF750E46A84201D125
:10E21000002000E0401C84B208E02146304603F0B4
:10E22000AAF808B1204670BD641CA4B2FF2CF4D932
:10E23000284670BD30B590F83E1085B001292CD02D
:10E2400090F85C1001292BD090F87A10012922D186
:10E2500000F17A04002C1ED000250195029503954B
:10E260000495A188ADF800106188ADF80410012173
:10E270008DF80610A11D0491ADF80850CDF80CD012
:10E28000408901A9AEDF002805D1A088BDF80010A3
:10E29000884200D1257005B030BD00F13E04D9E7B9
:10E2A00000F15C04D6E7034601205A69002A01D038
:10E2B00018461047704710B5FBF705F808B1002065
:10E2C00010BD112010BD10B531B1B2FBF3F403FB4A
:10E2D00014241CB1092010BD0E2010BD01600021C6
:10E2E000416081608281C381084610BD70B50C46D3
:10E2F0000546FAF79DFF002802D0218828680844C7
:10E3000070BD10B50A8849888A4203D1FAF7D2FF56
:10E31000012010BD002010BD70B50C460546FAF76F
:10E32000ACFF002802D061882868084470BD10B591
:10E330000A8849888A4203D1FAF796FF012010BD66
:10E34000002010BD01F01F0301229A40D243490969
:10E3500000EB8100114600F059B80A4601F01F0396
:10E360000121994010B552090C4600EB820000F0E3
:10E370005DF8204000D0012010BD2DE9F04180461D
:10E380000D460024481E012101EB501716E058F8F5
:10E390002400C04390FAA0F0B0FA80F020280CD2FC
:10E3A00000EB4416AE4208D231464046FFF7D5FF97
:10E3B0000028ECD13046BDE8F081641CA742E6D8C5
:10E3C0002846F8E74A0950F8220001F01F0201210F
:10E3D0009140084000D00120704701F01F03012246
:10E3E0009A40490900EB8100114600F029B800214C
:10E3F00000F017B8012100F023B8012100F016B891
:10E4000008B56A46FAF7ABFF009808BD08B56A463A
:10E41000FAF78BFF009808BD08B56A46FAF79FFF28
:10E4200008BD08B56A46FAF780FF08BD08B56A4618
:10E43000FAF76EFF08BD08B56A46FAF75DFF08BD3A
:10E4400008B56A46FAF764FF009808BD08B56A4641
:10E45000FAF792FF009808BD38B5044600258DF8FC
:10E4600000506846FBF726FD216862680868904204
:10E470000ED9401E08600178A38AE26801FB0325DB
:10E48000227A2168101AC0B20A79824200D2087139
:10E490009DF80000FBF732FD284638BD38B505462B
:10E4A00000208DF800000C466846FBF703FDE86885
:10E4B000A98A201AB0FBF1F12A681068431C136086
:10E4C00001709DF80000FBF719FD38BD10B530B1A3
:10E4D000017A42680368891AC9B21A6006E00E2000
:10E4E00010BD03681A68541C1C601170491EC9B223
:10E4F000F7D2006800210171084610BDC20800F083
:10E5000007030120895C98400840704710B5C20895
:10E5100000F00703885C01249C402043885410BD10
:10E5200010B560B1C160172120F8021B20F8021B52
:10E530001B2100F8021BFFF7D5F8002010BD0E20AC
:10E5400010BD00007CB50C468188002933D10288BB
:10E550000025102A06D0112A09D03A2A0BD0552AB4
:10E560002ED129E00146204601F084FD28E0A01DBF
:10E57000FFF7B8F824E02246408934F8063F83428A
:10E5800000D818466080172800D217206080D06815
:10E5900078B1607968B1174BD3E90003CDE9000386
:10E5A000ADF802106088ADF80400D36869461046E3
:10E5B0009847657125717CBD0146204601F0D8FE63
:10E5C000A07A0028F7D02846E188A5DF012670B19F
:10E5D0001128F0D001F0D2FA0246074807A10088BE
:10E5E00002B006EB0040BDE8704000F0D3BEA5725B
:10E5F000E6727CBD303602005C1D002073645F62F1
:10E600006C655F67617474635F65786368616E678A
:10E61000655F6D74755F7265717565737428292007
:10E6200072657475726E65642025732E000000009B
:10E6300020B10278DE2A03D0082070470E207047F0
:10E6400041800020704760B159B10278DE2A0AD0BB
:10E6500009684160DE2101704FF6FF7141800020A2
:10E6600070470E207047082070477FB50546002987
:10E670004DD0002D4BD008780C46DE2847D1A88815
:10E680006188884202D1204604F090FC2888012845
:10E6900025D002283BD011283AD0512837D135F85F
:10E6A000040F6188884232D1A978A81C02292ED192
:10E6B000017A042903D0062901D0052927D1002198
:10E6C000009102228DF8002001914FF4C072029156
:10E6D0000391ADF80420007A05280FD010E0297AC4
:10E6E0002046012913D1A988428891420FD10121E6
:10E6F000017204B0BDE8704004F058BCADF80410DD
:10E7000028886946B0DF002801D0616888477FBD4E
:10E71000A88861888842FAD14FF6FF7060807FBD7B
:10E7200000F180400068002800D00120704708B543
:10E7300000F18040002101600068009008BD0000E9
:10E7400070B50B4C207808B185250FE00020A06043
:10E7500060602061E060074801F03CFA054601F086
:10E7600097F908B901F020FA01202070284670BD01
:10E77000AC24002091BE010038B500258DF8005072
:10E780006846FBF797FB074CE068401EE060E068D6
:10E7900010B901F02FFAA5709DF80000FBF7AEFB51
:10E7A00038BD0000AC24002070B5064604780C4843
:10E7B00088B0154640F82420094A0869121D42F81D
:10E7C000240020226846FAF75FFE04940DB1054A42
:10E7D00000E000226946301D01F034FB08B070BD36
:10E7E000241C0020E12C02000FB408B50399002975
:10E7F00004D004AA00926A4600F00FF801B05DF858
:10E8000014FB10B582680446002A05D0D4E904033D
:10E81000216898470020A06010BD2DE9FC47914673
:10E820000C00804676D014F8011B39B125290ED092
:10E830004046FDF78DF920780028F4D198F80C00B7
:10E84000002867D04046BDE8FC47FFF7DABF00204C
:10E85000012221782B291BD02D2902D0302908D163
:10E8600002E040F0010001E040F00200641C002AD8
:10E87000EFD100252A290ED02178A1F130020A2AF1
:10E8800011D205EB850201EB4205641C303DF1E736
:10E8900040F00400EAE7D9F800100B1DC9F8003079
:10E8A0000968641C0D44217800232E290BD114F82B
:10E8B000011FA1F130020A2A05D203EB830201EB0A
:10E8C0004203303BF3E76C290DD068290BD069294E
:10E8D00021D00BDC252918D0582931D063290ED03E
:10E8E000642915D117E014F8011FECE7702969D0ED
:10E8F000732932D075291BD0782909D120E0D9F8A5
:10E900000000011DC9F8001001784046FDF720F90C
:10E91000641C90E76CE0D9F800100A1DC9F80020CB
:10E920000968CDE900500A224046FEF7C5FDEFE731
:10E93000D9F800100A1DC9F8002009680A2206E06B
:10E94000D9F800100A1DC9F8002009681022CDE985
:10E950000050404604F080FADAE7D9F800100027AA
:10E960000A1DC9F800200E68C00705D112E0404614
:10E97000761C7F1CFDF7ECF831780029F7D104E014
:10E98000202140466D1EFDF7E3F8BD42C0D9002DA1
:10E99000F6D1BDE74EB13046FAF79AFD074604E0DE
:10E9A000202140466D1EFDF7D3F8BD4206D9002D4B
:10E9B000F6D103E04046761CFDF7CAF8317800290D
:10E9C000F8D1A5E7D9F80000011DC9F800100568C5
:10E9D00030214046FDF7BCF878214046FDF7B8F8F5
:10E9E00008200021CDE90001034610222946B0E7A6
:10E9F000BDE8FC872DE9F84F2B4E04009A4630887D
:10EA00004FF001031546894603EB004024D02168EE
:10EA100000292BD0002D32D0626849464FF01007F4
:10EA20001268A2F1010C1CEA090F11D198466A4341
:10EA30002046FBF799F800282AD0206853462A463A
:10EA4000066901B049462046B446BDE8F04F60472C
:10EA5000164B17A2009721E00E210091134B1EA226
:10EA60001FA100F0A6FC0E20BDE8F88F0821009140
:10EA70000E4B26A21AA100F09CFC0820F4E7092105
:10EA800000910A4B24A216A100F093FC0920EBE7A9
:10EA900000973188054B214A08EB014010A100F096
:10EAA00088FC1020E0E70000841D0020833702006E
:10EAB000616464725F69735F706167655F616C69EF
:10EAC000676E656428705F66732C20706167655F90
:10EAD0006164647229000000705F667300000000CA
