:020000040001F9
:10900000682D0020F99201000193010003930100F3
:10901000059301000793010009930100000000007F
:109020000000000000000000000000000B930100A1
:109030000D930100000000000F9301001193010047
:109040008995010013930100F99801001393010021
:109050001393010000000000C1930100139301006D
:109060001393010013930100139301001393010064
:109070001393010013930100139301001393010054
:1090800013930100E1950100139301001393010074
:109090000596010013930100099601001393010046
:1090A0001393010013930100000000000000000072
:1090B0001393010013930100000000000000000062
:1090C00000000000000000000000000000000000A0
:1090D0000000000000000000000000000000000090
:1090E0000000000000000000000000000000000080
:1090F0000000000000000000000000000000000070
:10910000000000000000000000000000000000005F
:10911000000000000000000000000000000000004F
:10912000000000000000000000000000000000003F
:10913000000000000000000000000000000000002F
:10914000000000000000000000000000000000001F
:10915000000000000000000000000000000000000F
:1091600000000000000000000000000000000000FF
:1091700000000000000000000000000000000000EF
:1091800000000000000000000000000000000000DF
:1091900000000000000000000000000000000000CF
:1091A00000000000000000000000000000000000BF
:1091B00000000000000000000000000000000000AF
:1091C000000000000000000000000000000000009F
:1091D000000000000000000000000000000000008F
:1091E000000000000000000000000000000000007F
:1091F000000000000000000000000000000000006F
:10920000DFF80CD000F0CAF8004800478DAE01002E
:10921000682D002030B4044654E8000F0D4644E8A1
:109220000053002BF8D1156030BC704730B40446B1
:1092300054E8000F40EA010544E80053002BF7D141
:10924000156030BC704730B4044654E8000F00EAA3
:10925000010544E80053002BF7D1156030BC70477E
:1092600030B4044654E8000F80EA010544E8005396
:10927000002BF7D1156030BC704730B4044654E879
:10928000000F00EB010544E80053002BF7D11560F7
:1092900030BC704730B4044654E8000FA0EB010521
:1092A00044E80053002BF7D1156030BC704770B410
:1092B00004464FF0000054E8006F0D68AE4207BF4F
:1092C00044E80023012044E800630E60002B1CBF2B
:1092D0000020F0E770BC704730B4044654E8000F3B
:1092E00088422CBF451A054644E80053002BF5D1AF
:1092F000156030BC704700000648804706480047AC
:10930000FEE7FEE7FEE7FEE7FEE7FEE7FEE7FEE735
:10931000FEE7FEE70D96010001920100202A04DB22
:10932000203A00FA02F1002070479140C2F1200378
:1093300020FA03F31943904070470000004870473B
:109340000CD7010040EA01039B0703D009E008C9DC
:10935000121F08C0042AFAD203E011F8013B00F8FA
:10936000013B521EF9D27047D2B201E000F8012B46
:10937000491EFBD270470022F6E710B513460A4695
:1093800004461946FFF7F0FF204610BD421C10F8B6
:10939000011B0029FBD1801A70470000064C074DC5
:1093A00006E0E06840F0010394E8070098471034B5
:1093B000AC42F6D3FFF728FF64DD010084DD010035
:1093C0002DE9F04700268AB0DFF85091B0464FF4FF
:1093D0008075012437460696284602F093FA38B184
:1093E000D9F80403204203D0284602F081FA26432C
:1093F0002D1D64007F1CADB2082FEDD34FF4BE7459
:10940000204602F07FFA48B1204602F071FA46F099
:10941000004606AA0121002002F056FA404D16F03F
:10942000FF0F15D00127002437420DD009EB84012E
:10943000D1F81005D1F81015C0F3042055F82420F8
:10944000C1F3014102B190477F00641C082CEBD3AB
:10945000002E5FDA4FF0FF30CDF8108054E028196D
:1094600010F8507F90F9000027F0C008401C3BD056
:1094700007A9404601F03EFF10B34FEA9719404656
:1094800001F00AF955F820701FB1B9F1030F03D0AC
:1094900006E0B9F1030F27D104A9404601F032FFDD
:1094A0004FF0A04101EB8800D0F8000706A9C0F3F7
:1094B000014A404601F01EFF18B1BAF1020F03D075
:1094C00012E0BAF1030F0FD1B9F1030F08D1BAF1CD
:1094D000020F1DD00221404602F0DAF9761CF6B2E6
:1094E00017B149464046B847641C042CB7D3002E38
:1094F00010D06A460121002002F0E6F90699009892
:10950000884207D006900498002634460790A6E7C4
:109510000321E0E70AB0BDE8F087000000600040EA
:10952000801E002000F01F020121914040098000B0
:1095300000F1E020C0F88012704700F01F02012106
:1095400091404009800000F1E020C0F80011704710
:1095500000F01F02012191404009800000F1E0204D
:10956000C0F8001270474907090E002806DA00F01B
:109570000F0000F1E02080F8141D704700F1E0209A
:1095800080F800147047000070B54FF480763046C4
:1095900001F0C2FF114CB50560B1304601F0C3FFC8
:1095A0000120C5F80803607920B9012060712168A5
:1095B000002088474FF48276304601F0ADFF002846
:1095C0000AD0304601F0AFFF0220C5F80803216839
:1095D000BDE870400120084770BD0000441C002019
:1095E00007480021C0F84011C0F84411C0F84811E4
:1095F000C0F84C11C0F80011C0F8041103F0E2BC2F
:109600000010014003F02CBC02F0A0BEF0B5A84849
:10961000A74B012600781B1D1A1D4FF0805106280C
:109620000BD11C78240708D11478C4F30314032C3D
:1096300006D0042C04D0052C02D0062807D011E057
:10964000B1F824439B4DC4F304242C6002E01C7841
:10965000240707D11478C4F30314032C02D1974DC7
:10966000954C6C67D1F83051D1F84442944FC4F313
:1096700042343C6006280CD11C78240709D11478A8
:10968000C4F30314032C04D18E4C276827F0807791
:1096900027604FF080470024C7F80C41C7F81041FD
:1096A000874F3F1F3C60062807D11F783F0704D132
:1096B0001778C7F30317032F02D0062808D01FE03E
:1096C000DFF8FCC103270CF1640CCCF8007007E054
:1096D0001F783F0714D11778C7F30317032F0FD153
:1096E000DFF8E4C10527CCF80070774F78373E608B
:1096F000754F08373C600CF1040C3F27CCF8007024
:10970000724F3F68DFF8C8C1CCF800706F4F3F1D43
:109710003F680CF1040CCCF800706C4F08373F68C0
:109720000CF1040CCCF80070684F0C373F680CF15A
:10973000040CCCF80070654F10373F680CF1040C36
:10974000CCF80070614F14373F680CF1040CCCF872
:1097500000705E4F18373F68DFF874C10CF1200CC1
:10976000CCF80070594F1C373F680CF1040CCCF852
:109770000070564F20373F680CF1040CCCF8007095
:10978000524F24373F680CF1040CCCF800704F4F57
:1097900028373F680CF1040CCCF800704B4F2C3785
:1097A0003F680CF1040CCCF80070484F30373F682C
:1097B000DFF81CC10CF1400CCCF80070434F34377B
:1097C0003F680CF1040CCCF80070404F38373F680C
:1097D0000CF1040CCCF800703C4F3C373F680CF1A6
:1097E000040CCCF80070394F40373F680CF1040C82
:1097F000CCF80070DFF8DCC0FB27CCF8007006283E
:1098000013D11F783F0710D11778C7F30317032F21
:1098100003D0042F01D0052F07D1D1F85872DFF8FB
:10982000B8C007F04F07CCF800702C480268D20788
:1098300002D06FF001020260062D08D1D1F8340188
:10984000062804D12648016841F4806101604FF088
:109850001021D1F80002002803DBD1F8040200280F
:1098600022DA204A166020480368002BFCD015231A
:10987000C1F800320568002DFCD0C1F8043201683F
:109880000029FCD0146001680029FCD0BFF34F8F81
:109890000C48F0380168154A01F4E0611143016099
:1098A000BFF34F8F00BFFDE7124911480860F0BDBC
:1098B000E00F00F0403501400DF0ADBA00C00740A8
:1098C0003C050040FCED00E0105600400404001090
:1098D00020C5004018F50040E40E004000040040A0
:1098E0003C17004004E5014000E401400400FA0593
:1098F0000090D003FC1C00200149024803F0E2BBA9
:10990000DC1E00200020004002E008C8121F08C131
:10991000002AFAD170477047002001E001C1121FF0
:10992000002AFBD1704700000121202803DA814082
:109930000548014003E0402802DA2038814009B19F
:109940000120704700207047FC06FFBD082806D2A2
:1099500028B1012803D0042801D00120704700203D
:109960007047000030B52548A5B03C210068249020
:109970002348807C8DF892006846FFF7FCFC0220AB
:109980008DF8000001248DF8024006208DF80300B8
:109990003C210FA8FFF7EFFC24A81A4D1490ADF856
:1099A0004C402A1D6846296800F000FA08B100F012
:1099B000DFF8144A0FA80C32A96800F0F7F908B1D3
:1099C00000F0D6F818211EA8FFF7D5FC00208DF86E
:1099D0008D408DF87840ADF884001F908DF88C0094
:1099E0004020084920901EAAA1F10C0072DF002837
:1099F00001D000F0BDF825B030BD000004D4010056
:109A0000301D0020241C0020064810B501210078DC
:109A100073DF08B100F0ACF8BDE81040002000F0A2
:109A2000F3BC0000181C002070B50024084D05E0B0
:109A3000686810F8340002F055FD641C28788442F0
:109A4000F6D304484068BDE8704000F01DB900003E
:109A5000501C002038D4010070B50024064D06E0EB
:109A60006868012110F8340002F060FD641C287859
:109A70008442F5D3002070BD501C0020F8B5154677
:109A80000C460646052A01D20720F8BD02F04AFE20
:109A900018B902F00FFE0028F7D1124900224E60DB
:109AA0000C708D60C1E90422C1E906220E4D0DE063
:109AB00006EBC4002968009181788DF801100078C8
:109AC0000A4A694602F084FD0028DED1641EE4B231
:109AD000EED2BDE8F84004480021054A001D00F020
:109AE00053B80000501C002038D401009DA901008B
:109AF000ADA8010072B602F099F900BF01F0D8FFDD
:109B00000028FBD1104C0121208801EB00400FA15F
:109B100002F0DEF810480068C00700D000BE2088C0
:109B2000022101EB00400DA102F0D2F8BFF34F8FEC
:109B30000948E43801680D4A01F4E061114301600D
:109B4000BFF34F8F00BFFDE7201D00204661746109
:109B50006C206572726F7200F0ED00E053797374DF
:109B6000656D207265736574000000000400FA05DD
:109B70000EB500210091CDE901106A4644F20100C2
:109B8000FFF7B8FF0EBD0000074B9B7823B12AB149
:109B900020B10068037C1BB1082070470720704784
:109BA0004174426100207047201F002070B502F010
:109BB000D9FF104800240B21047044700E4D8170B1
:109BC00014206C602C706C70FFF7ACFC0721142023
:109BD000FFF7C9FC1420FFF7B0FC08480460072118
:109BE0001120FFF7C0FC0548001F0068A860002096
:109BF00070BD0000201F0020701C002008150140CF
:109C00002DE9FC47DFF8789099F8023073B368B318
:109C1000052902D20720BDE8FC87436933B3437CA2
:109C2000012B25D0002704460025884616468DF8CE
:109C30000050684600F038F801A803F063FBC8B193
:109C4000012101700F4944600968C0E90218C0E9A8
:109C500004769DF8040089F801009DF8000000F0EA
:109C600047F81420FFF774FC2846D4E70820D2E711
:109C70000F46D8E704259DF8000000F039F8F3E717
:109C8000201F0020041501400649897839B130B100
:109C9000416921B100210174022103F06FB908204C
:109CA00070470000201F002030B5EFF3108172B61E
:109CB0000D4A9468012324B10370002900D162B6D3
:109CC00030BD93604FF0E023D3F88051074C25401E
:109CD0001560C3F88041D3F8844154605A17C3F823
:109CE000842100220270E8E72C200020FC06FFBD42
:109CF0000B498A68002A11D000280FD1EFF3108099
:109D000072B60B684FF0E022C2F800314B68C2F81F
:109D1000043100228A60002800D162B6704700003A
:109D20002C2000202DE9F041064608680C46411C15
:109D30004FF0A0474FF0010506D005FA00F1C7F833
:109D40000815206801F09AFD6068411C02D00021CE
:109D500001F08BFD3168A069C1F82405607D217D8B
:109D600032680843C2F86C05D4E900123068C0F8C4
:109D70000C15C0F81425207D012815D1A068411CC0
:109D800002D0002101F071FDE068411C05D0854042
:109D9000C7F80855E06801F071FDD4E90212306897
:109DA000C0F80825C0F81015BDE8F0812DE9FC4782
:109DB000002517880646158090F82D001446894620
:109DC00030B13A462146484600F0E6F8051E09D172
:109DD000B0784FF00C0A18B32088C846001DB8426E
:109DE00002D95046BDE8FC87684679DF0028F9D1E2
:109DF0002088032108F8001020881921401C80B217
:109E0000208008F800102088401C80B2208000EBE1
:109E10000801BDF8000003F0CFF921880844208034
:109E2000F0780222C8B1218896F9033001F1030CC1
:109E30004846BC45D5D8425421884FF0010C491CF6
:109E400089B2218000F801C02188491C89B2218093
:109E500009F801302088401C20807068B8B1218842
:109E600090F9003001F1030C4846BC45B9D8425482
:109E700021880A22491C89B2218042542188491C28
:109E800089B2218009F801302088401C2080308967
:109E900050B1CDE900474B460622022106F10800E9
:109EA00003F048FA051E9DD1308A50B1CDE9004734
:109EB0004B460722032106F1100003F03BFA051E72
:109EC00090D1308B50B1CDE900474B46152214217B
:109ED00006F1180003F02EFA051E83D1306A30B166
:109EE0003B462246494600F076FC051EDBD1706AEF
:109EF00030B13B462246494601F08EF8051ED2D1CC
:109F000096F82C0038B13B4622464946304602F0CE
:109F1000E9FE051EC7D1307838B13B462246494696
:109F2000304601F0FFF8051EBDD128465AE7000073
:109F300070B5040012D001461C221448FFF702FA43
:109F40001248134D0560206850B17ADF002806D111
:109F50002068016829604068686005E00E2070BDD7
:109F60000B487BDF0028FAD108484FF6FF71143800
:109F7000084A20F8041B0549343901600021FFF725
:109F800003FE0028EBD0032070BD0000D81D002088
:109F9000341C002079D201007CB5054608880C46A7
:109FA0000930904201D90C207CBD68466DDF002845
:109FB000FAD121880820685420881B21401C80B2D7
:109FC000208029542088401C80B220802844DDF85D
:109FD00001100160BDF8051081802088801D80B2CD
:109FE00020809DF80010490800D0012129542088C4
:109FF000401C208000207CBDF8B5314D028804460D
:10A000006E88212A47D011DC2E484FF00301102A18
:10A01000008801EB004013D0112A2AD0132A43D123
:10A0200000231A46852130467FDF1CE03B2A42D0C0
:10A03000522A3AD0562A37D18088132176DF12E08F
:10A0400021A101F045FE012000F0DEF9002000F022
:10A05000D3F9A18869801F4801F0E6F908B1FFF73C
:10A0600087FDFFF7F9FC00281ED0BDE8F840FFF798
:10A070007FBD19A101F02CFE012000F0BDF94FF6C3
:10A08000FF706880FFF7D0FC08B1FFF771FDBDE8F5
:10A09000F840FFF7B9BC00200090A08869468FDF28
:10A0A000002801D0FFF764FDF8BD00231A461946C9
:10A0B0003046B1DFD7E78088132176DFD3E7000091
:10A0C000181C0020201D0020436F6E6E65637465B0
:10A0D00064000000581D0020446973636F6E6E6554
:10A0E00063746564000000002DE9F04701883B4E71
:10A0F00040F2F3194FF6FF7510291BD011293ED0FD
:10A10000122954D0502946D1C188F289841D914228
:10A1100041D1618902293ED18688304600F080FC19
:10A12000050038D004F10C0000F038F9A8B3294636
:10A1300030464EE0C17B8788044601292BD1A846D2
:10A14000284600F06DFC050017D02F8000202872F3
:10A15000234843464A460168C5F80A104068C5F8D6
:10A160000E0004F1100105F10A0000F01DFD6872F7
:10A17000F08900280FD129462AE0042013E08088C6
:10A1800000F04EFC040006D06068FFF77DFD08B1CA
:10A1900002F08AFD2580BDE8F087FFE76868FFF7D9
:10A1A00073FD0028F7D0BDE8F04702F07DBD878839
:10A1B0000646384600F034FC0400ECD02B464A46F4
:10A1C00006F1080104F10A0000F0EEFC607221467D
:10A1D0003846BDE8F04700F045BB0000D81D002020
:10A1E000341C00202DE9F04F0746858802883D4841
:10A1F000012197B08346102A09D0112A49D01A2A82
:10A200006CD1387AB1EB101F45D2012244E0354CB5
:10A21000083CA068C0430B9061680BA800F0FCFFED
:10A220000B990CA800F0B8FA2C220CA96846FFF78D
:10A2300089F80026E946A04610E000BF09EB460079
:10A240005FF00004B0F804A008EB84005146001D44
:10A2500000F0B6FF641C1D2CF6D3761C0098B042AB
:10A26000ECD8142D05D317B00420BDE8F04FFFF74C
:10A270007FBC2946584600F0B9FF294608F1040082
:10A2800000F0B4FFF87B012828D016482946001DAD
:10A2900015E029461AE000220221B1EB101F01D27D
:10A2A000012600E000260F49083901F11000041DC5
:10A2B000294682B100F09AFF36B12946204617B0F0
:10A2C000BDE8F04F00F092BF2946204617B0BDE828
:10A2D000F04F00F075BF00F073FFF5E717B0BDE871
:10A2E000F08F0000FC1D002030B50446134B85B0F4
:10A2F00008680D4660610FCB8DE80F0004F1120174
:10A30000684662DF002816D1A07C8DF8120041F269
:10A310002350ADF81000224604A90120A8DF002830
:10A3200009D12946204600F0E3F8002803D1294648
:10A33000204600F05BFC05B030BD000020D40100D9
:10A3400030B40288502A10D1034630F8062F4C88CA
:10A35000A2420AD14289012A07D14C69002C04D0BB
:10A36000027B9888A44630BC604730BC704707B574
:10A3700086B0012200230093ADF8102001930293D0
:10A3800003938DF802204989ADF8001008A90391C4
:10A3900004A902916946AEDF09B000BD007800F063
:10A3A000010070472DE9FC410646C0074FF000054B
:10A3B0000ED0104F00240122385D00950023114675
:10A3C000019501F013FA641C042CF4D300F024F876
:10A3D000B0070DD5074E0024361D0022305D032343
:10A3E00000951146019501F001FA641C042CF4D388
:10A3F000BDE8FC8108D401000249085C012101F09C
:10A4000058BA000008D401000249085C002101F09C
:10A4100050BA000008D4010010B500242046FFF710
:10A42000EBFF641C042CF9D310BD00002DE9F843A8
:10A430000546861C00208DF8000090460F464FF020
:10A4400001096846FFF730FC1B4C20683860D4E9EE
:10A450000001401AA16804F21C47081A0EE001210D
:10A46000384600F0D3FE00F0C3FC0146384600F049
:10A47000CDFED4E90001401AA168081A401C8642AA
:10A48000EDD8B8F1000F03D0052065F3891002E084
:10A49000062065F39F50A2682168114004EB8101FA
:10A4A000C8602068304420609DF80000FFF720FC61
:10A4B0004846BDE8F88300004421002030B482689B
:10A4C0000468531C8360A154D0E901128A4202D36C
:10A4D00030BC01F092B830BC70470000034803C89C
:10A4E000814201D1012070470020704744210020A3
:10A4F00030B58FB00024054607949DF81C001C2140
:10A5000020F00F00401C20F0F00010308DF81C00EF
:10A510009DF81D0020F00F00401C20F0F0001030CE
:10A520008DF81D009DF81E0020F00600801C8DF89F
:10A530001E006846FEF71FFF9DF80000019440F0E2
:10A5400012008DF8000007A8CDE90440039406949A
:10A55000A87C8DF83A0041F22450ADF838000D94F3
:10A560009DF83400142120F00F00401C20F0F00072
:10A5700010308DF834009DF8350020F0FF008DF884
:10A5800035009DF8360020F00600801C20F01900F0
:10A590008DF8360008A8FEF7EEFE0EA808900DA86C
:10A5A00009900120ADF82800ADF82A40ADF82C0044
:10A5B0000C94288805F10A0308AA6946AADF0FB09F
:10A5C00030BD000010B50C460D2819D10F480321ED
:10A5D000008801EB00400EA101F07AFB14482246EE
:10A5E00012494088FFF7C3FE00280DD0A0F5405166
:10A5F000023909D0082807D043F20141884203D02C
:10A60000BDE81040FFF7B4BA10BD0000201D0020C7
:10A6100053656E6420627574746F6E207374617418
:10A6200065206368616E67652E000000301D0020A4
:10A63000181C002005494FF0FF32082841F820205F
:10A6400002D3084480F8482070470000801E002094
:10A65000F0B54FF0FF3512B10023082601E00823C2
:10A660000C260C4C05E000BF54F823707F1C04D06E
:10A670005B1CB342F8D32846F0BD26185DB286F8BD
:10A68000305044F82310002AF5D1E11881F8480031
:10A69000F1E70000801E00200249084490F93000D4
:10A6A00070470000801E002070B5084C050009D0DE
:10A6B00010342168002907D00868206049682846BE
:10A6C0008847F6E70834F4E770BD00006C1E0020F0
:10A6D000054A012120B1012805D19170FFF7E4BF9F
:10A6E00051700020FAE770476C1E00202DE9F05FE2
:10A6F00026484168F1B3DFF898B00E688146DBF870
:10A70000004087688078E11B21F07F45ED1CB0B9DF
:10A71000DFF880804FF48030C8F84403C8F80403A1
:10A720001120FEF7FFFE1120FEF707FF4FF0010A90
:10A73000C8F800A02F2001F0CDFE89F802A0B54294
:10A7400000D23546124BE8193C3320F07F401860A8
:10A75000DBF800105A46091B21F07F41001B20F056
:10A760007F40C91C81420FD9106818602F2001F06A
:10A77000B1FE00E004E0BDE8F05F1120FEF7E8BEA6
:10A78000BDE8F05F02F0EEB9BDE8F09F701C00205C
:10A79000041501400010014073B58CB0064600203E
:10A7A00000900D9880B100246D4621460DA800F060
:10A7B00012FD30B1009805EB400084800098401CE9
:10A7C0000090641C142CF0D32C2269463046FEF70E
:10A7D000B9FD0EB070BD2DE9F04117880646B81DD1
:10A7E00014460D46984202D90C20BDE8F08131880C
:10A7F000072206290AD34FF4486C4FF6FF736145D0
:10A8000001D9994202D17088062801D21046ECE79E
:10A81000604501D99842F9D1994203D0984201D0BC
:10A820008142F3D80520E85520881221401C80B2CF
:10A83000208029542088401C80B220804119308813
:10A8400002F0BAFC2188084480B220804119708847
:10A8500002F0B2FC2188084420800020C5E7FFF701
:10A8600087B9000038B54A7A0F4B62B100220A72EC
:10A870005969002906D001228DF80020ADF80200A8
:10A880006846884738BD0A7A62B19B684C680246C0
:10A8900019462046FFF7B4F90028F3D0BDE8384048
:10A8A00002F002BA5B68F1E7D81D00202DE9F047FD
:10A8B0000025DFF890803DE06068002100EBC506D0
:10A8C000012032789146FEF729FDD4E9062300EAFB
:10A8D000020701EA030C57EA0C0729D082438B4395
:10A8E0004846C4E9062301F0DBFE327882469146F1
:10A8F00001200021FEF712FDD4E9042300EA02043E
:10A9000001EA03074A4650460021FEF707FD44408E
:10A910004F403C430CD17078012801D0012000E069
:10A920000020726880EA0A0012B1C1B2484690471E
:10A930006D1CEDB298F8000044468542BCD3BDE8DA
:10A94000F0870000501C002010B50021024800F0E4
:10A950006EFC80F3100010BD602500200E4910B57C
:10A960000A784C780023A24212D0521CD2B20A704C
:10A97000022A00D10B70084A0B780C3252F82320BF
:10A9800002608868104420F07F408860012010BD7C
:10A990000360002010BD0000701C00202DE9F04174
:10A9A0008046024601200021FEF7B8FC1A4F0546FA
:10A9B0000E467868FFF768F900280CD1174CD4E9E7
:10A9C000062110462A4001EA06031A4305D0A8438F
:10A9D000B143C4E90601BDE8F081404601F060FEE4
:10A9E00030B1D4E9040128433143C4E9040105E04E
:10A9F000D4E90410A943B043C4E90410D4E9060122
:10AA000028433143C4E90601A1687868BDE8F041F4
:10AA10000022FFF7F5B8000038D40100501C0020D8
:10AA20000146034802888A4200D000207047000097
:10AA3000C41D00202DE9FC5F0E008346DDE90C47B4
:10AA4000C6F1000098469246814600D4084601258A
:10AA500003E000BF90FBFAF06D1C5045FADAA84500
:10AA600000D9454624B1002E01DB780700D5641ECD
:10AA7000B80702D5B8F1000F0AD0F80708D13CB1E9
:10AA8000A54205D220215846641EFFF717FDF6E7C0
:10AA9000002E02DA4E462D2102E0780703D52B2145
:10AAA0005846FFF70BFD07F0030002280BD1B8F161
:10AAB000000F08D13CB1A54205D230215846641E92
:10AAC000FFF7FCFCF6E7CDE9004743465246314626
:10AAD000584602F077FBBDE8FC9F000070B50D46BC
:10AAE000044600684FF4887101F0B9FC4FF490718E
:10AAF000206801F0B4FC4FF49271206801F0AFFCC3
:10AB00004FF4A271206801F0AAFC20681249C0F835
:10AB1000041320686907000B40B2090E002806DA0A
:10AB200000F00F0000F1E02080F8141D03E000F1B8
:10AB3000E02080F8001420680121000B40B200F0F2
:10AB40001F0291404009800000F1E020C0F880120F
:10AB5000C0F8001170BD0000100302000246002082
:10AB60001268930702D0530702D47047500714D5D8
:10AB700002F00300012802D002280CD105E0C2F344
:10AB800083100B68801C184404E00223086803EB60
:10AB900092521044086001207047086800EB9253FD
:10ABA000C2F38910401CEEE7F0B58488A5189442E2
:10ABB00000D82246A41AC288D6189A4200D8134652
:10ABC000D21A4B880788BB420CD34088834209D8ED
:10ABD0008888A04206D3A84204D8C888904201D3EE
:10ABE000B04201D90020F0BD0120F0BD30B58FB0DA
:10ABF00005461C216846FEF7BEFB00249DF80000B8
:10AC0000019440F00A008DF8000003940494059428
:10AC10000694A87C8DF8360041F22550ADF834003A
:10AC20000C949DF83000142120F00F00401C20F0FF
:10AC3000F00010308DF830009DF8310020F00F004A
:10AC4000401C20F0F00010308DF831009DF83200EB
:10AC500020F00600801C20F019008DF8320007A8B3
:10AC6000FEF789FB0DA807900CA808900120ADF80D
:10AC70002400ADF82640ADF828000B942888AB1CC2
:10AC800007AA6946AADF0FB030BD000070B50B4CB3
:10AC900003254FF0020032B1FFF7B6FB208808A170
:10ACA00005EB004005E0FFF7A7FB208809A105EBB5
:10ACB0000040BDE8704001F00BB80000201D0020EE
:10ACC0005265636569766564204C4544204F4E218A
:10ACD000000000005265636569766564204C454458
:10ACE000204F4646210000001721018041800021AD
:10ACF00001714171704700002DE9F047394E00277E
:10AD000080463D46DFF8E090D6F804A057E003D037
:10AD10000446D0F81C8035E099F8002002EB42018F
:10AD2000521CD2B289F8002009EBC10199F8023017
:10AD3000091D9A4201D189F8005048680A780446F2
:10AD4000012A12D0022A02D0032A3BD108E002F0E5
:10AD5000E5F800B10127257434E00574C06900E00E
:10AD600070680028F9D170602CE0207C50BB8868A6
:10AD70006060C868A0600869E0604869A061F07818
:10AD800000B165606268B168184B501A20F07F40CE
:10AD9000984202D2A168084406E0881AA16820F00F
:10ADA0007F40814202D9081A206000E0256065607A
:10ADB0000120A56020742046E56102F091F8B8F109
:10ADC0000000A4D199F8001099F801008142A3D1A4
:10ADD00017B97168514502D00120BDE8F087002005
:10ADE000FBE70000701C0020201F0020FFFF7F00F9
:10ADF0002DE9FF410026234800F005FA2148001FF5
:10AE0000074600F000FA204C60680090A56800E05A
:10AE100000986946284004EB80000C30FFF79EFE46
:10AE20000028F5D101AA009901EA050304EB830388
:10AE3000491CDB6842F82030401C00910228F2D304
:10AE4000019800F0030001280BD0022810D10198CE
:10AE5000032101EB90500099BDF80A6001EB9000CE
:10AE600005E00198BDF80A60C0F383100844009023
:10AE7000384600F0C5F908B10098606004B030466B
:10AE8000BDE8F0815C2500204421002088B04FF40B
:10AE90000041002000F086FF08B1FEF769FE00F0D7
:10AEA000F9FD0120FFF77EFAFEF780FE08B1FEF7FC
:10AEB0005FFE40F2666201214648FEF7DFFD08B101
:10AEC000FEF756FE01F08CF808B1FEF751FE01F0D6
:10AED000F5F908B1FEF74CFE002469460120009404
:10AEE00001F0A8F808B1FEF743FE684601F022F928
:10AEF00008B1FEF73DFE9DF8080037A120F00F00D5
:10AF0000401C20F0F00010308DF808000D2202A83F
:10AF10007CDF08B1FEF72CFE00945020ADF8000055
:10AF2000A0200194ADF80200ADF804404FF4C870C1
:10AF3000ADF8060068467ADF08B1FEF719FE002179
:10AF4000294800F0E9F908B1FEF712FE274801A9E7
:10AF5000CDE900402448103000F071FA08B1FEF746
:10AF600007FE23480090204869461838FFF7BCF9CF
:10AF700008B1FEF7FDFDFEF7F5FC1C216846FEF763
:10AF8000FAF94FF42020CDE90040801002901948D2
:10AF90000590032518488DF80C500690ADF80E402A
:10AFA0008DF810406846FEF7C3FF08B1FEF7E0FDDC
:10AFB000124813A1008805EB004000F089FEFEF75F
:10AFC00023FD00BF00F074FD0028FBD101F01CF848
:10AFD000F8E700001C1C00204E6F726469635F423A
:10AFE0006C696E6B79000000481D00201DC00100D7
:10AFF0008DAC010019C901005FA80100201D0020CF
:10B00000426C696E6B79206578616D706C65207338
:10B010007461727465642E0070B5144682880E46A1
:10B0200005462088111D0144921C994201D8FE2A30
:10B0300001D90C2070BD521C32542088FF21401CC5
:10B0400080B2208031542088401C80B22080811939
:10B05000288802F0B1F82188084480B22080AA88AC
:10B0600042B1A96841B13044FEF76CF92088A98843
:10B0700008442080002070BD072070BD2DE9F047F6
:10B08000C7880446181D16468946B0FBF7F1B0FB89
:10B09000F7F207FB12009A193A44D21CB2FBF7F2FE
:10B0A000DDF820A001E02468491E0029FBD13D1AEB
:10B0B0008846B54216D818E0BAF1000F05D021181D
:10B0C00009EB08002A46091D04E0204409EB0801A9
:10B0D0002A46001DFEF736F900202468761BA84496
:10B0E000B74201D9354600E03D46002EE4D1BDE827
:10B0F000F087000030B5024659B100F07FFE002114
:10B10000074C09E004EB810315685B88AB4202D170
:10B110001160002030BD491C8142F3D3052030BDB1
:10B12000001D0020F8B50F46017814460546012998
:10B1300001D1687830B12088821C9A422DD801292B
:10B1400002D006E00720F8BD69780144891C9942C5
:10B1500023D8181A801E86B2ADF800602188B81C6A
:10B16000084469467DDF0028EDD12878022805D102
:10B17000BDF80010B14201D809210AE008210128D8
:10B1800005D16878B04202D8ADF8000001E0ADF812
:10B190000060BDF80000FE2801D90C20F8BD22880F
:10B1A000401CB8542088401C80B22080395420882C
:10B1B000401C2080BDF80010084420800020F8BD0D
:10B1C00001F01F0301229A40D243490900EB81009C
:10B1D000114600F021B84A0950F8220001F01F0280
:10B1E00001219140084000D00120704701F01F0369
:10B1F00001229A40490900EB8100114600F01CB879
:10B20000002100F00FB8012100F016B808B56A4619
:10B21000FEF733F8009808BD08B56A46FEF713F844
:10B22000009808BD08B56A46FEF70DF808BD08B5D8
:10B230006A46FDF7EFFF08BD08B56A46FDF7F6FF61
:10B24000009808BD08B56A46FEF724F8009808BDC6
:10B2500038B5044600258DF800506846FEF724FDF9
:10B2600021686268086890420ED9401E0860017823
:10B27000A38AE26801FB0325227A2168101AC0B272
:10B280000A79824200D208719DF80000FEF730FD75
:10B29000284638BD38B5054600208DF800000C461C
:10B2A0006846FEF701FDE868A98A201AB0FBF1F1B3
:10B2B0002A681068431C136001709DF80000FEF7B7
:10B2C00017FD38BD10B530B1017A42680368891A9C
:10B2D000C9B21A6006E00E2010BD03681A68541C3B
:10B2E0001C601170491EC9B2F7D2006800210171BB
:10B2F000084610BDC20800F007030120895C984091
:10B300000840704710B5C20800F00703885C0124AC
:10B310009C402043885410BD10B560B1C160172116
:10B3200020F8021B20F8021B1B2100F8021BFFF76C
:10B33000DBFC002010BD0E2010BD00007CB50C46CB
:10B340008188002933D102880025102A06D0112ACD
:10B3500009D03A2A0BD0552A2ED129E001462046A1
:10B3600001F0E8FA28E0A01DFFF7BEFC24E0224629
:10B37000408934F8063F834200D818466080172879
:10B3800000D217206080D06878B1607968B1174B1F
:10B39000D3E90003CDE90003ADF802106088ADF8F1
:10B3A0000400D368694610469847657125717CBDD5
:10B3B0000146204601F000FBA07A0028F7D028467D
:10B3C000E188A5DF012670B11128F0D001F038F82E
:10B3D0000246074807A1008802B006EB0040BDE81E
:10B3E000704000F079BCA572E6727CBD10D40100FB
:10B3F000001D002073645F626C655F676174746335
:10B400005F65786368616E67655F6D74755F7265AF
:10B41000717565737428292072657475726E656420
:10B420002025732E0000000020B10278DE2A03D010
:10B43000082070470E20704741800020704760B19F
:10B4400059B10278DE2A0AD009684160DE21017014
:10B450004FF6FF714180002070470E207047082092
:10B4600070477FB5054600294DD0002D4BD0087898
:10B470000C46DE2847D1A8886188884202D1204640
:10B4800001F02EFF2888012825D002283BD0112862
:10B490003AD0512837D135F8040F6188884232D12B
:10B4A000A978A81C02292ED1017A042903D00629E3
:10B4B00001D0052927D10021009102228DF800201A
:10B4C00001914FF4C07202910391ADF80420007A0B
:10B4D00005280FD010E0297A2046012913D1A98828
:10B4E000428891420FD10121017204B0BDE8704041
:10B4F00001F0F6BEADF8041028886946B0DF0028D8
:10B5000001D0616888477FBDA88861888842FAD1E8
:10B510004FF6FF7060807FBD00F18040006800281A
:10B5200000D00120704708B500F180400021016083
:10B530000068009008BD000070B50B4C207808B181
:10B5400085250FE00020A06060602061E060074872
:10B5500000F0A2FF054600F00BFF08B900F086FFDF
:10B5600001202070284670BD6C1E0020D1A601006D
:10B5700038B500258DF800506846FEF795FB074C5E
:10B58000E068401EE060E06810B900F095FFA5702B
:10B590009DF80000FEF7ACFB38BD00006C1E0020DB
:10B5A00070B5064604780C4888B0154640F824204B
:10B5B000094A0869121D42F8240020226846FDF756
:10B5C000C1FE04940DB1054A00E000226946301D19
:10B5D00001F0BEF808B070BD3C1C002095D0010001
:10B5E0000FB408B50399002904D004AA00926A4652
:10B5F00000F00FF801B05DF814FB10B58268044646
:10B60000002A05D0D4E90403216898470020A060EF
:10B6100010BD2DE9FC4791460C00804676D014F809
:10B62000011B39B125290ED04046FEF747FF20788F
:10B630000028F4D198F80C00002867D04046BDE8F7
:10B64000FC47FFF7DABF0020012221782B291BD00D
:10B650002D2902D0302908D102E040F0010001E09C
:10B6600040F00200641C002AEFD100252A290ED0E8
:10B670002178A1F130020A2A11D205EB850201EBF3
:10B680004205641C303DF1E740F00400EAE7D9F8D8
:10B6900000100B1DC9F800300968641C0D442178A6
:10B6A00000232E290BD114F8011FA1F130020A2A20
:10B6B00005D203EB830201EB4203303BF3E76C2935
:10B6C0000DD068290BD0692921D00BDC252918D091
:10B6D000582931D063290ED0642915D117E014F808
:10B6E000011FECE7702969D0732932D075291BD06E
:10B6F000782909D120E0D9F80000011DC9F800100F
:10B7000001784046FEF7DAFE641C90E76CE0D9F859
:10B7100000100A1DC9F800200968CDE900500A226E
:10B720004046FFF787F9EFE7D9F800100A1DC9F87E
:10B73000002009680A2206E0D9F800100A1DC9F89D
:10B74000002009681022CDE90050404601F03AFD82
:10B75000DAE7D9F8001000270A1DC9F800200E68A2
:10B76000C00705D112E04046761C7F1CFEF7A6FEFE
:10B7700031780029F7D104E0202140466D1EFEF704
:10B780009DFEBD42C0D9002DF6D1BDE74EB1304679
:10B79000FDF7FCFD074604E0202140466D1EFEF744
:10B7A0008DFEBD4206D9002DF6D103E04046761C41
:10B7B000FEF784FE31780029F8D1A5E7D9F800001A
:10B7C000011DC9F80010056830214046FEF776FEDD
:10B7D00078214046FEF772FE08200021CDE90001E5
:10B7E000034610222946B0E7BDE8FC8770B541EA60
:10B7F0004201DDE904564FF0A04441EA830141EAE9
:10B80000052104EB800041EA0641C0F8001770BD35
:10B8100070B541EA4201DDE904564FF0A04441EA27
:10B82000830141EA052104EB800041EA0641C0F8AA
:10B83000001770BD70B541EA4201DDE904564FF0D2
:10B84000A04441EA830141EA052104EB800041EA7A
:10B850000641C0F8001770BD1CB5002100910B46D1
:10B8600001220191FFF7E6FF1CBD1CB500220B462B
:10B87000009211460192FFF7DDFF1CBD1CB50021AF
:10B8800000910B46012201911146FFF7D3FF1CBD29
:10B890004FF0A04202EB8000D0F8002722F44032A3
:10B8A000C0F80027D0F8002742EA0141C0F800178D
:10B8B000704701224FF0A043824011B1C3F8082520
:10B8C0007047C3F80C25704718B5084B6C46014407
:10B8D0001B68009306E000BF54F82030D3F8103501
:10B8E000401C08C28142F7D818BD000030D40100C6
:10B8F000034908B50844002101600068009008BDB4
:10B900000060004002494058012800D000207047E4
:10B910000060004030B5124B01460020D3F81044BF
:10B92000224609E0157A854205D1401C0A28F7DB3A
:10B930004FF0FF3030BD5268002AF3D1421CF9D0DD
:10B940000872D3F810242AB152684A60D3F8102440
:10B95000516030BD0022C3F810144A6030BD0000B1
:10B9600044210020F0B595B01C4615460F46084608
:10B970001A9E00F013FB182109A8FDF7FCFC0E9697
:10B98000CDE909540023082203A9384600F01BFB27
:10B9900005980690BDF81000ADF81C00BDF8120027
:10B9A000ADF81E0000208DF821000398082600F055
:10B9B0000300012802D0022818D032E00398334651
:10B9C000850AC0F3C2008DF8200003980FA9C0F3C8
:10B9D0008314A200384600F0F6FA09A8009006ABDE
:10B9E00022460FA9284600F035FA1AE00398840D84
:10B9F000C0F3C2008DF82000082C01D2254600E0DB
:10BA0000082533462A460FA9384600F0DCFA2E44B2
:10BA1000641B09AB06AA29460FA800F06DF9002C9B
:10BA2000EAD1384600F0C0FA15B0F0BD70470120E9
:10BA300001F008BB10B5044800F016FFBDE8104047
:10BA4000002001F0FFBA0000941C002008B5034A52
:10BA500000924023024AFFF785FF08BDB9CC0100E0
:10BA6000442000200A4A012902EBC00007D0022925
:10BA700007D0032907D0042907D0002070470220EF
:10BA80007047042070470079704740797047000084
:10BA900084DD010010B5FFF7CAFF04210348FFF75A
:10BAA00039FF02490120487210BD00009C1C002093
:10BAB0002DE9F04F8DB0FEF711FD18B100200DB04B
:10BAC000BDE8F08F7A4C4FF0000BC4F818B4BFF308
:10BAD0004F8F60680290A568D846284004EB80002C
:10BAE00008E021680298814201D86160E6E72840B9
:10BAF00004EB80000C3002A9FFF730F80028F0D1E9
:10BB000005AA029901EA050304EB8303491CDB68DB
:10BB100042F82030401C02910228F2D3059800F030
:10BB20000300022802D001284ED0A9E00598502237
:10BB3000810D8946B2EB905F00D850210E4666F326
:10BB40009F50059008315B4800F0DFF9070079D07D
:10BB500000F024FA4346082205A9384600F039FAD5
:10BB6000029908F1080A2940681A8000001D8642DF
:10BB700023D94F4D0C3530B1C2B204EB8101301ADC
:10BB800090460C3104E02946F2B200259046284642
:10BB9000C6B25346384600F01CFA0AEB08032DB132
:10BBA000324629464FEA070000F013FA029909F1DC
:10BBB000030001EB900002903BE004EB810153464F
:10BBC000324638460C31EFE70598C0F3831006285B
:10BBD00000D30620059960F38911C1F38310801CFE
:10BBE00005918100334800F090F9070048D000F03B
:10BBF000D5F94346082205A9384600F0EAF908F1CC
:10BC0000080800260FE00298434600EA0501401CA0
:10BC100004EB81010290042238460C3100F0D9F97E
:10BC200008F10408761C0598C0F38310B042EAD8E6
:10BC300047B1D4F81054D4F8180468B1384600F06D
:10BC4000B3F92FE01CE0687A012804D12A6828465D
:10BC50003946126890476D68002DF4D1384600F0DF
:10BC6000A3F98DF800B06846FEF71EF8D4F8180462
:10BC700008B9029860609DF80000FEF739F811E0FD
:10BC8000D4F8104404E02168204689688847646835
:10BC9000002CF8D108480221008801EB004007A1E0
:10BCA00000F016F8FEF71AFC80F0010007E700002C
:10BCB00044210020E4DD0100201D00204261636B6F
:10BCC000656E647320666C757368656400000000BF
:10BCD00000231A4601F07EB808B5012300926A4697
:10BCE00001F078F808BD1CB5CDE9002302236A46AF
:10BCF00001F070F81CBD00002DE9F0470E468046AB
:10BD00001C46924608293ED894F80C9000202073D7
:10BD10001946104600F0DAFE0025B54206D218F8A2
:10BD200005201AA12046FFF75BFC03E019A120467D
:10BD3000FFF756FC6D1C082DEFD317A12046FFF727
:10BD40004FFC0025B54210D218F80570FDF7F6FA41
:10BD50000068C05D10F03E0F01D03A4600E02E2290
:10BD60000EA12046FFF73CFC03E00DA12046FFF7A3
:10BD700037FC6D1C082DE5D301222146504600F00A
:10BD800087FE84F80C90BDE8F08700002025303253
:10BD900078000000202020007C00000025630000C7
:10BDA00020000000104810B5FF21816000210160D3
:10BDB0004160C0F81814C0F8141480F820140B481F
:10BDC00000F0F0F800280DD109480A490A4B401A42
:10BDD000C108002003E000BF23F82000401C884277
:10BDE000FAD3002010BD000044210020E4DD010052
:10BDF000E4DD010084DD0100001D0020024803494C
:10BE0000401AC00870470000E4DD010084DD010035
:10BE100013B56846FFF76EF908B100201CBD024853
:10BE2000009950F831001CBD84DD010070B5084850
:10BE30000125D0F8104480F8205405E0657221688F
:10BE40002046496888476468002CF7D170BD00001F
:10BE5000442100202DE9FF4781460C9D00200C461F
:10BE60002F7B2873984616462946184600F02EFE6A
:10BE7000072E42D2DFE806F004090F161F2A36000B
:10BE800049462846FFF7ACFB37E04946284622687A
:10BE9000FFF7A6FB31E0D4E9002349462846FFF727
:10BEA0009FFB2AE0A0680090D4E900234946284679
:10BEB000FFF796FB21E0D4E90201CDE90001D4E9C6
:10BEC000002349462846FFF78BFB16E004F10800E3
:10BED00007C88DE80700D4E9002349462846FFF744
:10BEE0007FFB0AE004F108000FC88DE80F00D4E9D9
:10BEF000002349462846FFF773FB002229464046A7
:10BF000000F0C6FD2F73BDE8FF872DE9F041858A5B
:10BF100080462D1F4819C01CB0FBF5F0C6B2404644
:10BF2000FFF796F9041E19D00020207101206071DE
:10BF3000E58000272546761EC4F800800BE04046C9
:10BF4000FFF786F960B16179491C61712860054687
:10BF50007F1CC0F80080B742F1D32046BDE8F081D5
:10BF6000204600F002F80020F8E72DE9F04145797D
:10BF700001466B1E002201E00968521C9A42FBD365
:10BF80000F680146002605E038460C68FFF782F985
:10BF90002146761CAE42F7D3BDE8F0810121001D99
:10BFA000FFF734B9FFF78EB910B504460121001D23
:10BFB000FFF748F910F0FF0F04D12046BDE810400C
:10BFC000FFF7D3BF10BD38B501240094FFF756F832
:10BFD00038BD38B500240094FFF750F838BD000094
:10BFE000064910B500204870091D0860BFF35F8F37
:10BFF0000349044800F0E0F9002010BD841C002033
:10C0000070D401003820002010B500F0B1F908B15B
:10C0100041DF10BD20BF40BF20BF10BDFDF7A8BD50
:10C0200020B1034909680160002070470E20704765
:10C030005CD60100FEB502460E460846FFF7F0FF4B
:10C0400000286AD1002400940194012506208DF86F
:10C050000020ADF8040002948DF8025069462020BB
:10C06000326869DF2D4F40B100F0EAF902463888A6
:10C070002B4905EB0040FFF72FFE0094019402943A
:10C080008DF8015069464020326869DF48B100F000
:10C09000D7F93988024605EB014322491846FFF7D4
:10C0A0001BFE00940A208DF800000194029469465A
:10C0B0000120326869DF40B100F0C2F902463888D9
:10C0C000194905EB0040FFF707FE4FF4B060009000
:10C0D000019402946946A120326869DF48B100F0FA
:10C0E000AFF93988024605EB014310491846FFF7BE
:10C0F000F3FD0094019402948DF800406946A0205D
:10C10000326869DF40B100F09BF90246388808497F
:10C1100005EB0040FFF7E0FD0020FEBD281D0020DC
:10C1200058DC0100A0DC0100B8DB010004DC0100E8
:10C1300064DB01002DE9F0410446D0F8008060DFA7
:10C140002168194D074641451CD92888022606EB6F
:10C15000004016A1FFF7BCFD2888424606EB0040D0
:10C160001EA12368FFF7BFFDF006D0F80C0121687F
:10C17000800200F10050421A288825A106EB0040F9
:10C18000FFF7AAFD012467B1384600F059F90246CD
:10C1900028882AA104EB0040FFF79EFD3846BDE841
:10C1A000F0812E480470F9E7281D0020496E737550
:10C1B0006666696369656E742052414D20616C6CDE
:10C1C0006F636174656420666F72207468652053C4
:10C1D0006F66744465766963652E00004368616E1E
:10C1E0006765207468652052414D207374617274D4
:10C1F000206C6F636174696F6E2066726F6D2030A2
:10C2000078257820746F20307825782E0000000083
:10C210004D6178696D756D2052414D2073697A6565
:10C2200020666F72206170706C69636174696F6EF3
:10C2300020697320307825782E00000073645F62D7
:10C240006C655F656E61626C652829207265747526
:10C25000726E65642025732E00000000FB1C002018
:10C2600030B5144891B00078002820D05FF0340534
:10C27000ADF8405010A903A861DF30B1052816D0F1
:10C2800011B0BDE83040FDF773BC03AC0A49684605
:10C2900000F092F807E000BFD0E900212046904767
:10C2A000684600F0A0F802980028E1D0F4E711B049
:10C2B00030BD0000FB1C002060D601007CB5204C86
:10C2C000207808B108207CBD0120A070002000F07B
:10C2D000BDFC112819D0002000F0D0FC1948002620
:10C2E000006801908DF800606846FDF7DDFC164996
:10C2F00001A810DF05000AD0002020709DF8000082
:10C30000FDF7F6FC2DB128467CBD00207CBD012048
:10C31000F3E7A67066700721162000F04DFC08B107
:10C32000FDF726FC0721152000F046FC08B1FDF7BB
:10C330001FFC00F027FD012000F0A0FCE5E7000055
:10C34000F81C0020F4D50100F59A01000EB507494C
:10C35000684600F031F805E0D0E9001088476846EB
:10C3600000F041F802980028F6D10EBD10D6010069
:10C370000148007870470000F81C00201FB568468F
:10C380004BDF30B1052814D004B0BDE81040FDF7F4
:10C39000EFBB084901A800F00FF806E0D0E9002142
:10C3A0000098904701A800F01EF803980028E6D0F6
:10C3B000F4E71FBD7CD60100016009684160AFF35E
:10C3C000008010B5D0E900215368994201D10021C5
:10C3D00004E0D1E90034A34202D01946816010BDC7
:10C3E00008314160F0E7816800290BD0026892684B
:10C3F0000A44826041684B689A4203D10831416027
:10C40000FFF7DFBF704700000C4A10B502F59473C8
:10C410000EE0991AC91001EBD171491002EBC1016C
:10C420000C68844201D90B4602E005D201F10802F2
:10C430009A42EED3002010BD486810BD90D4010090
:10C4400000B5FFF7E1FF002800D1014800BD000062
:10C450007CD401004058002800D00120704708B566
:10C46000002242504058009008BD00000848006873
:10C47000012110F0010F08D14FF0E020E02280F8F8
:10C480000024C0F88012C0F8001102480160704713
:10C4900000E100E0180500400649024600200B7943
:10C4A0000BB1852070470A6001220A7100224A718F
:10C4B00070470000441C0020044901200860044823
:10C4C0000168C1F300410029FAD170470C00004017
:10C4D00018040040002802D0014980010847704735
:10C4E00041D4010010B5044600F0BAFA28B1204644
:10C4F000BDE810400021FFF7CBB9204600F0BCFAA0
:10C5000000280FD02046FEF7C7F8074A02EB80014B
:10C51000D1F8103523F00103C1F810350121814015
:10C52000C2F8081310BD0000006000402DE9F04182
:10C530008846054600F094FA234E002828461AD073
:10C54000FEF7AAF8304490F848008009032802D08A
:10C5500001280ED007E04FF0A040D0F81005E840C9
:10C5600010F0010F05D003212846BDE8F041FFF788
:10C570008FB90221F8E700F07FFA002822D0284680
:10C58000FEF78AF804464FF4807000EB84000F4FEA
:10C5900081B207EB8400D0F8102542F00102C0F808
:10C5A00010250846FFF7A4F9B8F1000F0AD0284675
:10C5B000FEF772F856F82000002803D00120A040B2
:10C5C000C7F80403BDE8F081801E00200060004031
:10C5D0002DE9FC41DFF8BC80044608EB040000278D
:10C5E00090F930001346C0170E46401C01D00827B2
:10C5F0004CE0B0781946C0F340022046FEF728F818
:10C600000546401C41D0B078410719D4C0070AD074
:10C610004FF0A04000EB8401D1F8000720F00200A9
:10C62000C1F8000707E000217378204600910A4610
:10C630000191FFF7EDF8174920465431FEF762FEED
:10C64000B078800718D51448317800EB8500D0F811
:10C650001025124B1A40C0F810254FF4F8524FF431
:10C66000403302EA042203EA01410A43D0F81015DC
:10C670000A43C0F8102509E008EB0500327810F8ED
:10C68000481F41EA8211017000E004273846BDE8E6
:10C69000FC810000801E002000600040FFE0FCFFE5
:10C6A0004FF0A041D1F81015C14011F0010000D0A9
:10C6B0000120704770B5184D95F8580008B1082052
:10C6C00070BD0020411E2A18401CC0B282F83010F4
:10C6D0002028F8D300242046FDF7ACFF641CE4B208
:10C6E0000C2CF8D300240D49E0206C6581F800047F
:10C6F00001264020891FC1F88002C1F800014FF4D3
:10C70000BE70FFF7F5F80649F007C1F8040385F895
:10C710005860204670BD0000801E002006E000E04A
:10C7200000600040034890F85800002800D0012025
:10C7300070470000801E00200121B1EB507F01D125
:10C7400001207047002070470020704770470000AC
:10C750002DE9F0410546164600790F46154A00EBD3
:10C76000C00102EB810494F8201011B10820BDE84B
:10C77000F081114951F820102868FFF7E5FF08B152
:10C780001120F4E739462846FDF7CCFA666038698F
:10C7900020601EB1397F2846FEF7A0F928680821DD
:10C7A000C0F800150020A061E0610121606184F8FB
:10C7B0002010DCE7DC1E002034D401002DE9F04716
:10C7C00004460E460079204900EBC00001EB8005CD
:10C7D00017463046FFF7B0FF30B1204600F036F87C
:10C7E00020B11120BDE8F0871020FBE76F61AE603B
:10C7F0004FF49076002731462068FFF730FE4FF463
:10C80000AC7841462068FFF72AFE2068AA6869696B
:10C81000C0F84425C0F84815206801218160686887
:10C8200078B9B14649462068FFF714FE06464146EE
:10C830002068FFF70FFE0643F4D000B10F27002059
:10C8400068613846CEE70000DC1E0020007905490B
:10C8500000EBC00001EB80004069002800D00120FF
:10C8600070470000DC1E00202DE9F04704460079E7
:10C87000274900EBC00001EB800720684FF000095A
:10C88000C0F80095786880B120682249C0F8081384
:10C8900020680121000B40B200F01F0291404009C6
:10C8A000800000F1E020C0F880112068D0F80C254D
:10C8B000D0F81485D0F80865D0F810554FF0FF3146
:10C8C000C0F80C15C0F814152068C0F80815C0F899
:10C8D0001015501C02D01046FEF7BEFFB8F1FF3F06
:10C8E00002D04046FEF7B8FF681C02D02846FEF78B
:10C8F000B3FF701C02D03046FEF7AEFF2068FFF792
:10C9000025FF87F82090C7F80490BDE8F087000065
:10C91000DC1E0020100302000078002807D1044824
:10C920003B21408876DF002801D0FDF721B9704710
:10C93000181C002070B502468888C97B00EB4003B4
:10C9400002EB4304A41D012901D111882180218813
:10C950006288914211D9A5DF012568B111280DD057
:10C96000FFF76EFD0246064806A1008805EB004071
:10C97000BDE87040FFF7B0B9657170BD257170BD3D
:10C98000001D002073645F626C655F67617474638F
:10C990005F65786368616E67655F6D74755F72650A
:10C9A000717565737428292072657475726E65647B
:10C9B0002025732E000000007CB506468D88C888AF
:10C9C00005EB450106EB4104A41D172800D21720F2
:10C9D0002188814200D8084660800020207121888B
:10C9E0002846B5DF50B1FFF72BFD02460E48012166
:10C9F000008801EB00400DA1FFF76EF96079002877
:10CA000010D1F06800280DD01449D1E90201CDE918
:10CA10000001ADF802506088ADF80400F268694684
:10CA2000304690477CBD0000001D002073645F62AB
:10CA30006C655F67617474735F65786368616E6766
:10CA4000655F6D74755F7265706C792829207265F9
:10CA50007475726E65642025732E000010D4010079
:10CA60000449084490F93000082801DB0120704790
:10CA700000207047801E00200449084490F93000CF
:10CA8000082801D20120704700207047801E002036
:10CA900010B50C46017A052908D0407A38B108480B
:10CAA00008A102682046FEF79BFD00E01AB106A12E
:10CAB0002046FEF795FD2046BDE81040FEF79DBDDF
:10CAC000D41C0020257300000D0A000038B5C3886F
:10CAD0000D46044633B114A0009015A216A12846B5
:10CAE000FEF77EFD217A05291CD0607A48B1A08826
:10CAF000FEF7B8FF164951F8202016A12846FEF788
:10CB00006FFDA0880021FFF783F903461049207AC2
:10CB1000143951F8202001B02846BDE830400EA15C
:10CB2000FEF75EBD38BD00001B5B306D00000000ED
:10CB30001B5B313B33316D0025734C6F6773206491
:10CB4000726F70706564202825642925730D0A00B2
:10CB5000D41C0020257300003C25733E2025733A29
:10CB60002000000070B5012670044FF0E021002580
:10CB7000C1F88001084C4010C4F84803C4F8080309
:10CB800066602F20FFF7A6FCA660044C2F20A5604E
:10CB9000FFF7A0FCA57070BD00100140701C0020C4
:10CBA0001FB501238DF800308DF808100192D0E9EF
:10CBB0000012684690471FBD70B50D460446FCF74D
:10CBC000B3FE70B12846FCF7C1FE68B16807000EDD
:10CBD000002C0CDA04F00F0101F1E02181F8140DB2
:10CBE00009E042F2010070BD42F2020070BD04F1A2
:10CBF000E02484F80004002070BD000038B5002156
:10CC0000012548B101280CD0032809D1FFF72EFCDB
:10CC1000BDE83840FEF7ACBC4FF0E020C0F88051D2
:10CC200038BD8DF800106846FDF73EF8064C2078B8
:10CC300008B9FEF781FCE068401CE060A5709DF833
:10CC40000000FDF755F838BD6C1E00203EB50446C7
:10CC500009496846FFF7B0FB08E000BFD0E90021B2
:10CC60002046904730B16846FFF7BDFB0298002888
:10CC7000F4D13EBD11203EBDF8D501003EB50446BD
:10CC800008496846FFF798FB07E000BFD0E900219C
:10CC9000204690476846FFF7A6FB02980028F5D18A
:10CCA0003EBD000004D6010002498969002900D078
:10CCB00008477047D81D002010B5094C0020D2B29B
:10CCC000207004F10800FFF779FD08B1FCF750FF70
:10CCD0006078002802D021780029FAD010BD000029
:10CCE0008C1C00202DE9F0410746806A14468846D6
:10CCF000C8B3002531E000BFB96A05EB450001EB80
:10CD00008006B088801CFE2802D90C20BDE8F08186
:10CD10002288401C08F8020020881622401C80B29D
:10CD2000208008F800202088401C80B2208000EB82
:10CD30000801308800F040FA2188084480B2208041
:10CD4000B28842B1B16871B14044FCF7FBFA208867
:10CD5000B188084420806D1CEDB297F82C00A842E1
:10CD6000CAD80020D2E7FFE70720CFE7002805D187
:10CD70000349012048700020FDF796BC7047000071
:10CD80006C1E002010B51620FCF7CEFD80B10F48B8
:10CD900090F800044009FCF7D9FD60B10C488268A6
:10CDA0004FF480016AB1016841F48001016010BD57
:10CDB00042F2010001E042F20200BDE81040FCF73F
:10CDC000D7BE4FF0E020C0F8001110BD16E000E023
:10CDD0002C2000202DE9F84F204D9246894606462A
:10CDE0009846012269461846AF68FDF71FFB58B305
:10CDF000009800210446801C09E000BF00EA0703F8
:10CE00005AF8212005EB8303401C491CDA60414598
:10CE1000F4D34FEA164AFDF797FD4AEA0041601C39
:10CE2000384005EB80003C4005EB8402C160D068CF
:10CE300066F3C50068F3891069F39F2020F00300B2
:10CE4000401C20F00400D06095F8200402E000BFF0
:10CE5000FEF72EFE0028FBD1BDE8F88F442100200C
:10CE60002DE9F84F1D4C00256846D4E901A6FDF7D1
:10CE700075FD002738B30023009A61681CE0D1F8E3
:10CE800000C00846944503D9ACEB02020A6015E0E5
:10CE9000A2EB0C0263440760D0F80CC0C169814664
:10CEA000BCF1000F08D006EB030828F07F48C0E96A
:10CEB000018CC9F81C5005460029E0D12846616064
:10CEC000FDF71AFF03E02846FDF716FF10B15046A4
:10CED000FDF70CFCE770BDE8F88F0000701C002027
:10CEE0000D4B10B5596831B102680C68A24204D8E4
:10CEF000A21A0A60C161586010BD0B4603E00B46E0
:10CF0000C969121B21B10C689442F8D3A41A0C60B1
:10CF10000260C161D86110BD701C00202DE9F04194
:10CF2000144E77683D462C4603E0844204D02546E3
:10CF3000E469002CF9D11BE0D4B1A5420BD1F8690A
:10CF4000706040B90C49012088600021B160F07028
:10CF50002F20FFF7BFFA2168E069E86110B102688D
:10CF6000114401607068874202D00120BDE8F08161
:10CF70000020FBE7701C0020001001407CB5064635
:10CF800000240D468DF800406846FCF78DFE01A890
:10CF900000F0B8F970B10570094946609DF80400C9
:10CFA00048709DF80000FCF7A3FE1420FCF7D0FAAF
:10CFB00020467CBD04249DF80000FCF799FEF7E7AD
:10CFC000201F00202DE9F041194D6C68002C2CD059
:10CFD000184800270068A968B846401A20F07F4624
:10CFE0002068B0420CD82146361A0744E469087C10
:10CFF00020B181F81080886949698847002CEFD1F9
:10D0000029786878814206D1401CC0B26870022835
:10D0100001D185F80180064869780C3040F821700C
:10D02000BDE8F0411420FCF793BABDE8F0810000A0
:10D03000701C002004150140014901200870704750
:10D040008C1C002010B588B0044620220E4968468A
:10D05000FCF778F906200090C01F01900290039021
:10D060004FF0EB7006900CB1084A00E000226946D0
:10D070000748FEF795FA08B1FCF77AFD0448001F4F
:10D08000447008B010BD0000C4D5010039D00100C3
:10D09000901C00201FB50A4601788DF800104168E9
:10D0A0000191017A8DF80810C0680390044850F887
:10D0B0002210001F50F82220684690471FBD000034
:10D0C000401C00202DE9FF410C464FF492770546A5
:10D0D0003946FFF7BFF90026C0B139462846FFF7A9
:10D0E000BEF902208DF80000D5F88004C5F8800450
:10D0F0000390D5F83C058DF80800E0680190A66122
:10D10000E661D4E900126846904723E04FF488773F
:10D1100039462846FFF79EF9E0B139462846FFF721
:10D120009EF9D5F83C15A069884213D1E06960B139
:10D13000E268D5F8000220F02000C5F80002E0699E
:10D14000A0612069E661E06001E0A661E268204636
:10D15000FFF726FD4FF4A27739462846FFF77AF904
:10D1600060B139462846FFF77AF9A06930B1A66167
:10D17000D5F83C152046E268FFF712FD4FF4907792
:10D1800039462846FFF766F9002813D03946284665
:10D19000FFF765F9606900280CD0D5F84C058DF8CB
:10D1A00000608DF80800A06801906661D4E9001263
:10D1B00068469047BDE8FF810870000A4870022069
:10D1C000704700002DE9F05F8346DDE90A4A994681
:10D1D00090460D460846012703E000BFB0FBF8F07B
:10D1E0007F1C4045FAD2B94500D94F465FEACA7064
:10D1F00012D18CB15FEA8A7002D5B9F1000F01D06B
:10D20000202607E0302605E031465846641EFDF72B
:10D2100055F90CB1A742F7D35FF00106B9F1010F40
:10D2200002D9A9F1010903E0B5FBF6F0404502D3AC
:10D2300006FB08F6F2E7DFF83C9000BFB5FBF6F01E
:10D2400000FB165519F800105846FDF737F9B6FBE4
:10D25000F8F6002EF2D15FEACA7009D0002C07D090
:10D26000A74205D220215846641EFDF727F9F5E7AD
:10D27000BDE8F09F46D40100F8B5054680B2FDF741
:10D28000CFFB040013D0154E207A0027317B884253
:10D290000ED2A8B204F10A0175DF28B1112806D018
:10D2A000BDE8F840FFF700BD207A401C2072F8BDB1
:10D2B0002772307C38B1A8B23B2176DF18B108283C
:10D2C00001D0FFF7F1FC71690029F0D08DF80070F2
:10D2D000ADF8025068468847F8BD0000D81D002010
:10D2E00030B40446007A00280AD06088002166DF46
:10D2F00028B1112802D0616830BC08470120207293
:10D3000030BC70470A494A788B78521CD2B293429B
:10D3100000D100220B78934201D1002070470270A7
:10D32000487800EB400001EBC000001D7047000092
:10D33000201F00202DE9FC411646DDE90854CDE907
:10D3400000541F468046022200F00CF8002807D146
:10D35000CDE900543B4610223146404600F002F829
:10D36000BDE8FC812DE9FC5F0026DDE90C4B994608
:10D3700092468E4680462788354630E0D8F804002D
:10D38000002200EB850069460068019001A864DF77
:10D39000002830D19DF8000050451FD10EB100216A
:10D3A00000E00221228808441118594522D846B9C4
:10D3B000521C90B2208009F800E02088401C208098
:10D3C0000126218801A801EB0902694664DF0028D3
:10D3D00011D120889DF80010084420806D1CB8F8F9
:10D3E0000000A842CADC56B12088C01B401E80B293
:10D3F000FF2802D90C20BDE8FC9F09F80700002097
:10D40000F9E7000023150000111213140D0E0F1080
:10D41000770A000000000000770A0000000000000A
:10D4200023D1BCEA5F782315DEEF12120000000062
:10D4300000000050F998010003000000001F0020C8
:10D440000738FDD870473031323334353637383904
:10D450004142434445460000000000000000000037
:10D4600000000000000000000000000000000000BC
:10D4700058D4010070D4010004000000556E6B6E9A
:10D480006F776E206572726F7220636F6465000043
:10D490000000000088DA01000100000034D901001A
:10D4A0000200000028D7010003000000A8D90100F5
:10D4B00004000000FCD9010005000000DCD80100D8
:10D4C0000600000078D8010007000000E4D9010040
:10D4D00008000000F0D801000900000054D9010044
:10D4E0000A00000070DA01000B00000010D70100F4
:10D4F0000C00000008D901000D000000D8DA01007E
:10D500000E000000D4D901000F00000010DA010065
:10D510001000000044DA010011000000ECDA010004
:10D5200012000000C0DA0100130000005CDA010004
:10D530008000000090D8010081000000CCD70100DD
:10D54000820000008CD70100830000006CD701002E
:10D5500084000000A8D7010085000000B4D80100B5
:10D5600086000000BCD901009000000058D80100DE
:10D57000910000004CD70100920000001CD901006E
:10D580000082000024DA01000182000070D901004D
:10D59000028200008CD9010000840000E8D701005D
:10D5A0000184000094DA01000284000030D80100F8
:10D5B000038400000CD801004DBA010035BA010007
:10D5C0002DBA0100FFFFFFFFFFFFFFFFFFFFFFFF7F
:10D5D000FFFFFFFF00000000000000000000D60178
:10D5E0000700000000000000000000000000000034
:10D5F0000000000001000007E4D50100F4D501009F
:10D60000080000001CD601002CD601000800000014
:10D610002CD601003CD601000800000044DE0100C9
:10D620004CDE0100000000000000000034DE0100BC
:10D6300044DE01000000000000000000FCDD0100ED
:10D6400004DE010004DE010014DE010014DE01002E
:10D6500024DE010024DE01002CDE0100181C002065
:10D660003CD601005CD60100080000002CDE010061
:10D6700034DE010000000000000000006CD6010054
:10D680007CD601000800000000404040404040407F
:10D690004040414141414140404040404040404085
:10D6A0004040404040404040400502020202020229
:10D6B0000202020202020202022020202020202078
:10D6C000202020020202020202029090909090908C
:10D6D000101010101010101010101010101010104A
:10D6E00010101010020202020202888888888888BE
:10D6F00008080808080808080808080808080808AA
:10D7000008080808020202024000000089D6010051
:10D710004E52465F4552524F525F494E56414C4918
:10D72000445F4441544100004E52465F4552524FBF
:10D73000525F534F46544445564943455F4E4F54FC
:10D740005F454E41424C4544000000004E52465F4A
:10D750004552524F525F464541545552455F4E4FD8
:10D76000545F454E41424C45440000004E52465FD6
:10D770004552524F525F4D555445585F554E4C4F90
:10D78000434B5F4641494C45440000004E52465FC2
:10D790004552524F525F4D555445585F4C4F434B85
:10D7A0005F4641494C4544004E52465F4552524FF8
:10D7B000525F4D555445585F434F4E445F494E4963
:10D7C000545F4641494C4544000000004E52465FBC
:10D7D0004552524F525F4D555445585F494E49543A
:10D7E0005F4641494C4544004E52465F4552524FB8
:10D7F000525F424C455F495053505F52585F504B07
:10D80000545F5452554E4341544544004E52465F76
:10D810004552524F525F424C455F495053505F5002
:10D820004545525F52454A45435445440000000077
:10D830004E52465F4552524F525F424C455F4950EF
:10D8400053505F4C494E4B5F444953434F4E4E45F6
:10D8500043544544000000004E52465F4552524F2B
:10D86000525F4150495F4E4F545F494D504C454DBA
:10D87000454E5445440000004E52465F4552524FBB
:10D88000525F4E4F545F535550504F5254454400D1
:10D890004E52465F4552524F525F4D4F44554C4594
:10D8A0005F4E4F545F494E495449414C495A454493
:10D8B000000000004E52465F4552524F525F4D4F9E
:10D8C00044554C455F414C52454144595F494E498E
:10D8D0005449414C495A4544000000004E52465FAD
:10D8E0004552524F525F4E4F545F464F554E440083
:10D8F0004E52465F4552524F525F494E56414C4937
:10D90000445F5354415445004E52465F4552524F76
:10D91000525F444154415F53495A45004E52465F5D
:10D920004552524F525F494F5F50454E44494E4712
:10D93000000000004E52465F4552524F525F535610
:10D94000435F48414E444C45525F4D495353494E05
:10D95000470000004E52465F4552524F525F494EBB
:10D9600056414C49445F4C454E4754480000000026
:10D970004E52465F4552524F525F4452565F545783
:10D98000495F4552525F414E41434B004E52465F04
:10D990004552524F525F4452565F5457495F455269
:10D9A000525F444E41434B004E52465F4552524FE8
:10D9B000525F494E5445524E414C00004E52465F14
:10D9C0004552524F525F53544F524147455F46555F
:10D9D0004C4C00004E52465F4552524F525F4E55DE
:10D9E0004C4C00004E52465F4552524F525F494EDA
:10D9F00056414C49445F504152414D004E52465FA2
:10DA00004552524F525F4E4F5F4D454D0000000052
:10DA10004E52465F4552524F525F464F5242494422
:10DA200044454E004E52465F4552524F525F44525B
:10DA3000565F5457495F4552525F4F5645525255B3
:10DA40004E0000004E52465F4552524F525F494EC3
:10DA500056414C49445F4144445200004E52465F97
:10DA60004552524F525F5245534F55524345530012
:10DA70004E52465F4552524F525F494E56414C49B5
:10DA8000445F464C414753004E52465F5355434313
:10DA9000455353004E52465F4552524F525F424CDF
:10DAA000455F495053505F4348414E4E454C5F419E
:10DAB0004C52454144595F45584953545300000066
:10DAC0004E52465F4552524F525F434F4E4E5F4358
:10DAD0004F554E54000000004E52465F4552524F83
:10DAE000525F54494D454F55540000004E52465F19
:10DAF0004552524F525F4255535900007761726E42
:10DB0000696E670064656275670000001B5B313BEE
:10DB100033306D001B5B306D000000001B5B313B40
:10DB200033316D001B5B313B33326D001B5B313B8E
:10DB300033336D001B5B313B33346D001B5B313B7A
:10DB400033356D001B5B313B33366D001B5B313B66
:10DB500033376D00696E666F000000006572726F8A
:10DB60007200000073645F626C655F6366675F7379
:10DB7000657428292072657475726E65642025733A
:10DB8000207768656E20617474656D7074696E6766
:10DB900020746F2073657420424C455F4741545494
:10DBA000535F4346475F534552564943455F434899
:10DBB000414E4745442E000073645F626C655F63AD
:10DBC00066675F73657428292072657475726E6567
:10DBD00064202573207768656E20617474656D70AC
:10DBE00074696E6720746F2073657420424C455FC2
:10DBF000434F4D4D4F4E5F4346475F56535F55551C
:10DC000049442E0073645F626C655F6366675F738F
:10DC1000657428292072657475726E656420257399
:10DC2000207768656E20617474656D7074696E67C5
:10DC300020746F2073657420424C455F47415454F3
:10DC4000535F4346475F415454525F5441425F53D0
:10DC5000495A452E0000000073645F626C655F6383
:10DC600066675F73657428292072657475726E65C6
:10DC700064202573207768656E20617474656D700B
:10DC800074696E6720746F2073657420424C455F21
:10DC9000434F4E4E5F4346475F4741502E000000C2
:10DCA00073645F626C655F6366675F736574282980
:10DCB0002072657475726E656420257320776865BF
:10DCC0006E20617474656D7074696E6720746F2066
:10DCD00073657420424C455F4741505F4346475F40
:10DCE000524F4C455F434F554E542E006E72665F47
:10DCF000626C655F6761747400000000636C6F6341
:10DD00006B000000434C4F434B0000004750494F0D
:10DD100054450000505253005541525445000000F4
:10DD20007077725F6D676D740000000062616C6CEB
:10DD30006F632E6C6F675F6D656D706F6F6C000049
:10DD4000617070006E72665F736468006E72665F09
:10DD50007364685F626C65006E72665F7364685FAF
:10DD6000736F63004CDE0100181C002018010000D6
:10DD70000899010064DF0100301D00203810000008
:10DD800018990100ECDC010000000303FCDC010039
:10DD90000000000004DD0100000000000CDD0100B7
:10DDA0000000000014DD01000000000018DD01008B
:10DDB0000000000020DD0100000000002CDD01005B
:10DDC0000000000340DD01000000030344DD01000A
:10DDD000000003034CDD01000000030358DD0100D7
:10DDE00000000303B01C0020A81C0020B01C002071
:10DDF000842000201C1D002018000000E5A1010067
:10DE0000000000003DB30100481D0020E9A0010012
:10DE10000000000041A30100301D002063B4010098
:10DE2000581D0020F99F0100000000006DCD010089
:10DE30000000000061C20100000000007DC301007D
:10DE400000000000FDCB010000000000FF00FFFF0C
:10DE50000D000300C5A50100641D00201F00000087
:10DE6000831D00201F0000000000000000000000D3
:10DE700000000000000000000000000000000000A2
:10DE80000000000000000000000000000000000092
:10DE90000000000000000000000000000000000082
:10DEA0000000000000000000000000000000000072
:10DEB0000000000000000000000000000000000062
:10DEC00000000000000000000020004000000000F2
:10DED000B8D50100000000000000000000000000B4
:10DEE0000000000000000000000000000000000032
:10DEF00000000000000000005CDB0100FCDA010013
:10DF000054DB010004DB010014DB01000CDB010029
:10DF10001CDB010024DB01002CDB010034DB0100F1
:10DF20003CDB010044DB01004CDB01000000000091
:10DF30000090D0030000000000000000000000007E
:10DF400000000000000000000000000000000000D1
:10DF500000000000000000000000000000000000C1
:04DF600000000000BD
:040000050001920163
:00000001FF
