:020000040001F9
:1090000030320020C1930100C9930100CB930100CD
:10901000CD930100CF930100D19301000000000027
:10902000000000000000000000000000D3930100D9
:10903000D593010000000000D7930100D9930100EF
:1090400041970100DB930100B19A0100DB9301001D
:10905000DB9301000000000079950100DB93010023
:10906000DB930100DB930100DB930100DB93010044
:10907000DB930100DB930100DB930100DB93010034
:10908000DB93010099970100DB930100DB93010062
:10909000BD970100DB930100C1970100DB93010044
:1090A000DB930100DB9301000000000000000000E2
:1090B000DB930100DB9301000000000000000000D2
:1090C00000000000000000000000000000000000A0
:1090D0000000000000000000000000000000000090
:1090E0000000000000000000000000000000000080
:1090F0000000000000000000000000000000000070
:10910000000000000000000000000000000000005F
:10911000000000000000000000000000000000004F
:10912000000000000000000000000000000000003F
:10913000000000000000000000000000000000002F
:10914000000000000000000000000000000000001F
:10915000000000000000000000000000000000000F
:1091600000000000000000000000000000000000FF
:1091700000000000000000000000000000000000EF
:1091800000000000000000000000000000000000DF
:1091900000000000000000000000000000000000CF
:1091A00000000000000000000000000000000000BF
:1091B00000000000000000000000000000000000AF
:1091C000000000000000000000000000000000009F
:1091D000000000000000000000000000000000008F
:1091E000000000000000000000000000000000007F
:1091F000000000000000000000000000000000006F
:10920000DFF80CD000F07AF90048004711CF0100D8
:109210003032002030B450E8012F93B2C489234487
:109220008489A34228BF1B1B0489A34202BFBFF34A
:109230002F8F002007E0C3EA020340E80134002C2E
:10924000E9D14FF001000A6030BC704750E8012FAF
:10925000C2EA024240E801210029F7D1704730B448
:1092600050E8022F1FFAA2F3C488A34202BFBFF343
:109270002F8F00200DE0C48923448489A34228BF96
:109280001B1BC2EA034340E80234002CE8D14FF034
:1092900001000A6030BC704750E8022FC2EA224247
:1092A00040E802210029F7D17047034653E8022F16
:1092B000D988B2EB324F4FF0000017BF92B241EAAB
:1092C000014142EA014104E05A68B2EB324F08BF63
:1092D000012043E80212002AE8D1704730B4044666
:1092E00054E8000F0D4644E80053002BF8D11560F8
:1092F00030BC704730B4044654E8000F40EA010522
:1093000044E80053002BF7D1156030BC704730B4EF
:10931000044654E8000F00EA010544E80053002B1E
:10932000F7D1156030BC704730B4044654E8000FE4
:1093300080EA010544E80053002BF7D1156030BCEA
:10934000704730B4044654E8000F00EB010544E8D0
:109350000053002BF7D1156030BC704730B4044681
:1093600054E8000FA0EB010544E80053002BF7D1AF
:10937000156030BC704770B404464FF0000054E8EC
:10938000006F0D68AE4207BF44E80023012044E8A7
:1093900000630E60002B1CBF0020F0E770BC70471C
:1093A00030B4044654E8000F88422CBF451A0546E5
:1093B00044E80053002BF5D1156030BC7047000025
:1093C0000648804706480047FEE7FEE7FEE7FEE75F
:1093D000FEE7FEE7FEE7FEE7FEE7FEE7C5970100D2
:1093E000019201002DE9F05F0546002092469B4660
:1093F00088460646814640241BE0284641464746AB
:10940000224600F06BF853465A46C01A914110D3D9
:1094100011461846224600F016F82D1A67EB01088F
:109420004F4622460120002100F00DF817EB0009FD
:109430004E41201EA4F10104DFDC484631462A4695
:109440004346BDE8F09F202A04DB203A00FA02F1EF
:10945000002070479140C2F1200320FA03F3194322
:109460009040704700487047B020020040EA010376
:109470009B0703D009E008C9121F08C0042AFAD2CA
:1094800003E011F8013B00F8013B521EF9D270478E
:10949000D2B201E000F8012B491EFBD27047002236
:1094A000F6E710B513460A4604461946FFF7F0FFE3
:1094B000204610BD421C10F8011B0029FBD1801A68
:1094C000704730B504460020034600E05B1C934221
:1094D00003D2E05CCD5C401BF8D030BD202A04DB19
:1094E000203A21FA02F00021704721FA02F3D0401D
:1094F000C2F120029140084319467047064C074DBF
:1095000006E0E06840F0010394E807009847103453
:10951000AC42F6D3FFF778FE88270200A8270200A6
:1095200070B58C1810F8015B15F0070301D110F825
:10953000013B2A1106D110F8012B03E010F8016B52
:1095400001F8016B5B1EF9D12B0705D40023521ED5
:109550000DD401F8013BFAE710F8013BCB1A921C3D
:1095600003E013F8015B01F8015B521EF9D5A1423B
:10957000D8D3002070BD00002DE9F04700268AB046
:10958000DFF85091B0464FF48075012437460696B7
:10959000284604F01DFD38B1D9F80403204203D059
:1095A000284604F00BFD26432D1D64007F1CADB240
:1095B000082FEDD34FF4BE74204604F009FD48B1E6
:1095C000204604F0FBFC46F0004606AA01210020DC
:1095D00004F0E0FC404D16F0FF0F15D001270024E9
:1095E00037420DD009EB8401D1F81005D1F81015E0
:1095F000C0F3042055F82420C1F3014102B1904783
:109600007F00641C082CEBD3002E5FDA4FF0FF3094
:10961000CDF8108054E0281910F8507F90F9000020
:1096200027F0C008401C3BD007A9404603F06FFF5D
:1096300010B34FEA9719404601F074FE55F82070B8
:109640001FB1B9F1030F03D006E0B9F1030F27D121
:1096500004A9404603F063FF4FF0A04101EB8800EE
:10966000D0F8000706A9C0F3014A404603F04FFFB7
:1096700018B1BAF1020F03D012E0BAF1030F0FD103
:10968000B9F1030F08D1BAF1020F1DD002214046F3
:1096900004F064FC761CF6B217B149464046B84760
:1096A000641C042CB7D3002E10D06A460121002080
:1096B00004F070FC06990098884207D00690049840
:1096C000002634460790A6E70321E0E70AB0BDE88C
:1096D000F087000000600040C421002000F01F025D
:1096E000012191404009800000F1E020C0F8801283
:1096F000704700F01F02012191404009800000F1F5
:10970000E020C0F80011704700F01F0201219140D5
:109710004009800000F1E020C0F8001270474907BE
:10972000090E002806DA00F00F0000F1E02080F8B2
:10973000141D704700F1E02080F80014704700000D
:1097400070B54FF48076304603F0F2FF114CB5054A
:1097500060B1304603F0F3FF0120C5F808036079DB
:1097600020B9012060712168002088474FF482767B
:10977000304603F0DDFF00280AD0304603F0DFFF5B
:109780000220C5F808032168BDE8704001200847A1
:1097900070BD0000CC1B002007480021C0F840111C
:1097A000C0F84411C0F84811C0F84C11C0F80011BD
:1097B000C0F8041107F0B6BD0010014007F000BD6D
:1097C00005F05AB9F0B5A848A74B012600781B1D33
:1097D0001A1D4FF0805106280BD11C78240708D1A0
:1097E0001478C4F30314032C06D0042C04D0052CE5
:1097F00002D0062807D011E0B1F824439B4DC4F3F2
:1098000004242C6002E01C78240707D11478C4F3E8
:109810000314032C02D1974D954C6C67D1F830514D
:10982000D1F84442944FC4F342343C6006280CD132
:109830001C78240709D11478C4F30314032C04D131
:109840008E4C276827F0807727604FF080470024F0
:10985000C7F80C41C7F81041874F3F1F3C600628EE
:1098600007D11F783F0704D11778C7F30317032FD9
:1098700002D0062808D01FE0DFF8FCC103270CF156
:10988000640CCCF8007007E01F783F0714D11778FC
:10989000C7F30317032F0FD1DFF8E4C10527CCF876
:1098A0000070774F78373E60754F08373C600CF199
:1098B000040C3F27CCF80070724F3F68DFF8C8C136
:1098C000CCF800706F4F3F1D3F680CF1040CCCF8D2
:1098D00000706C4F08373F680CF1040CCCF8007036
:1098E000684F0C373F680CF1040CCCF80070654FE2
:1098F00010373F680CF1040CCCF80070614F14373E
:109900003F680CF1040CCCF800705E4F18373F68CC
:10991000DFF874C10CF1200CCCF80070594F1C37E3
:109920003F680CF1040CCCF80070564F20373F68AC
:109930000CF1040CCCF80070524F24373F680CF146
:10994000040CCCF800704F4F28373F680CF1040C22
:10995000CCF800704B4F2C373F680CF1040CCCF85E
:109960000070484F30373F68DFF81CC10CF1400CE5
:10997000CCF80070434F34373F680CF1040CCCF83E
:109980000070404F38373F680CF1040CCCF8007081
:109990003C4F3C373F680CF1040CCCF80070394F59
:1099A00040373F680CF1040CCCF80070DFF8DCC0E5
:1099B000FB27CCF80070062813D11F783F0710D181
:1099C0001778C7F30317032F03D0042F01D0052FF7
:1099D00007D1D1F85872DFF8B8C007F04F07CCF8BC
:1099E00000702C480268D20702D06FF001020260BA
:1099F000062D08D1D1F83401062804D12648016883
:109A000041F4806101604FF01021D1F8000200287C
:109A100003DBD1F80402002822DA204A166020482D
:109A20000368002BFCD01523C1F800320568002D17
:109A3000FCD0C1F8043201680029FCD01460016830
:109A40000029FCD0BFF34F8F0C48F0380168154A4D
:109A500001F4E06111430160BFF34F8F00BFFDE7E8
:109A6000124911480860F0BDE00F00F04035014098
:109A70000DF0ADBA00C007403C050040FCED00E031
:109A8000105600400404001020C5004018F50040A6
:109A9000E40E0040000400403C17004004E5014093
:109AA00000E401400400FA050090D003E41C00200B
:109AB0000149024807F0B6BC2022002000200040E7
:109AC00002E008C8121F08C1002AFAD17047704787
:109AD000002001E001C1121F002AFBD170470000E5
:109AE0000121202803DA81400548014003E0402895
:109AF00002DA2038814009B1012070470020704708
:109B0000FC06FFBD082806D228B1012803D004288E
:109B100001D0012070470020704710B560B159B1E5
:109B200002780B785208B2EB530F05D10622401C85
:109B3000491CFFF7C6FC08B1002010BD012010BD74
:109B4000800701D00020704701207047C3688B4216
:109B500006D811440069491E814201D8012070478E
:109B60000020704710B501220221002001F0EAF91F
:109B700008B1072810D107220221012001F0E2F9E3
:109B800008B1072808D100210A22084601F0DAF9B5
:109B900008B1072800D1002010BD000010B550B159
:109BA0000A480321008801EB004009A104F0F6FBFC
:109BB00006F05AFA03E00321094800F095FC00285A
:109BC00003D0BDE8104000F04DB910BD281D0020A5
:109BD000457261736520626F6E647321000000003E
:109BE000681D002070B58CB015460E4600236C46EB
:109BF000C3F10F01415CE1545B1C102BF8D30D2124
:109C000004F11000FFF74BFC0020C0F10F02315CA3
:109C10002244401C11740328F7D3684646DF002015
:109C2000C0F10F01214491F820102954401C032851
:109C3000F6D30CB070BDF0B58FB00D4606461C21B2
:109C40006846FFF72CFC00249DF80000039440F0C8
:109C50000A008DF80000012701948DF8367042F655
:109C60000620049405940694ADF834000C94687AA8
:109C70008DF83000A87A8DF831009DF8320014215B
:109C800020F00600801C20F019008DF8320007A893
:109C9000FFF705FC287A8DF838000DA807900CA86E
:109CA0000890ADF824700EA8ADF82640ADF82870E5
:109CB0000B90308906F10A0307AA6946AADF0FB0A4
:109CC000F0BD0000124910B50988032202EB0142E1
:109CD00048B101280DD0022818D110460DA104F07A
:109CE0005DFB10200AE010460DA104F057FB112087
:109CF00004E010460DA104F051FB0D2001F044F9E1
:109D0000002803D0BDE8104000F0ACB810BD000042
:109D1000281D00204869676820416C6572742E0018
:109D20004E6F20416C6572742E0000004D696C64AA
:109D300020416C6572742E00022001F005B800000D
:109D40000149097900F046BDA41B002070B500242C
:109D5000064D06E06868012110F8340004F066FF43
:109D6000641C28788442F5D3002070BDD81B0020E5
:109D7000F8B515460C460646052A01D20720F8BD5F
:109D800005F050F818B905F015F80028F7D1124978
:109D900000224E600C708D60C1E90422C1E90622E8
:109DA0000E4D0DE006EBC4002968009181788DF816
:109DB000011000780A4A694604F08AFF0028DED1C3
:109DC000641EE4B2EED2BDE8F84004480021054A22
:109DD000001D00F053B80000D81B0020341D020005
:109DE000ADC20100B5B6010072B604F08DFB00BF34
:109DF00004F0C4F90028FBD1104C0121208801EBAC
:109E000000400FA104F0CAFA10480068C00700D053
:109E100000BE2088022101EB00400DA104F0BEFA33
:109E2000BFF34F8F0948E43801680D4A01F4E0613F
:109E300011430160BFF34F8F00BFFDE7281D0020D5
:109E4000466174616C206572726F7200F0ED00E023
:109E500053797374656D207265736574000000003A
:109E60000400FA050EB500210091CDE901106A4603
:109E700044F20100FFF7B8FF0EBD0000074B9B78CE
:109E800023B12AB120B10068037C1BB108207047C0
:109E9000072070474174426100207047642200200F
:109EA00070B506F0C7FB104800240B210470447005
:109EB0000E4D817014206C602C706C70FFF70EFCDE
:109EC00007211420FFF72BFC1420FFF712FC084891
:109ED000046007211120FFF722FC0548001F0068DD
:109EE000A860002070BD000064220020F81B002044
:109EF000081501402DE9FC47DFF8789099F8023009
:109F000073B368B3052902D20720BDE8FC87436913
:109F100033B3437C012B25D0002704460025884617
:109F200016468DF80050684600F038F801A807F092
:109F3000C5FBC8B1012101700F4944600968C0E93F
:109F40000218C0E904769DF8040089F801009DF824
:109F5000000000F047F81420FFF7D6FB2846D4E7AE
:109F60000820D2E70F46D8E704259DF8000000F04E
:109F700039F8F3E764220020041501400649897886
:109F800039B130B1416921B100210174022107F0DA
:109F9000A5B90820704700006422002030B5EFF317
:109FA000108172B60D4A9468012324B10370002910
:109FB00000D162B630BD93604FF0E023D3F88051FA
:109FC000074C25401560C3F88041D3F884415460A4
:109FD0005A17C3F8842100220270E8E7702300209A
:109FE000FC06FFBD0B498A68002A11D000280FD15A
:109FF000EFF3108072B60B684FF0E022C2F8003128
:10A000004B68C2F8043100228A60002800D162B691
:10A0100070470000702300202DE9F04106460868D3
:10A020000C46411C4FF0A0474FF0010506D005FA41
:10A0300000F1C7F80815206803F086FF6068411C2E
:10A0400002D0002103F077FF3168A069C1F8240530
:10A05000607D217D32680843C2F86C05D4E90012A6
:10A060003068C0F80C15C0F81425207D012815D1E2
:10A07000A068411C02D0002103F05DFFE068411C94
:10A0800005D08540C7F80855E06803F05DFFD4E9C6
:10A0900002123068C0F80825C0F81015BDE8F0813C
:10A0A00002F092BE2DE9F047074600888EB0804648
:10A0B00002F082FB824604462D4800252A4601789C
:10A0C000404600F09FFB7879400734D501254FF6D4
:10A0D000FF7603AB2A460721504605F029FA010016
:10A0E00004D0404606F09CFC00252BE0B1463146EA
:10A0F000049802F0B5FA064648450FD004460146DA
:10A10000404602F043FB4046FFF71AFE30B9404696
:10A1100006F058FC4046FFF713FE48B122460721DF
:10A12000504605F07BFA010003D0404606F078FC6B
:10A1300000254E4506D0404605F0DEFB10B15046E6
:10A1400002F026FB02208DF81800ADF81A8078790D
:10A15000400701D5012000E002208DF820008DF895
:10A16000215006A801F01CFC0EB0BDE8F0870000ED
:10A17000A41B00202DE9FC47002517880646158002
:10A1800090F82D001446894630B13A46214648469B
:10A1900000F062FB051E09D1B0784FF00C0A18B32D
:10A1A0002088C846001DB84202D95046BDE8FC8749
:10A1B000684679DF0028F9D12088032108F80010CB
:10A1C00020881921401C80B2208008F800102088C7
:10A1D000401C80B2208000EB0801BDF8000007F0B1
:10A1E0009BF9218808442080F0780222C8B1218898
:10A1F00096F9033001F1030C4846BC45D5D84254CA
:10A2000021884FF0010C491C89B2218000F801C05F
:10A210002188491C89B2218009F801302088401C1E
:10A2200020807068B8B1218890F9003001F1030CEA
:10A230004846BC45B9D8425421880A22491C89B2F3
:10A24000218042542188491C89B2218009F80130BB
:10A250002088401C2080308950B1CDE900474B4612
:10A260000622022106F1080007F040FA051E9DD1E2
:10A27000308A50B1CDE900474B460722032106F151
:10A28000100007F033FA051E90D1308B50B1CDE9A4
:10A2900000474B461522142106F1180007F026FA54
:10A2A000051E83D1306A30B13B462246494601F053
:10A2B000F4F8051EDBD1706A30B13B4622464946B0
:10A2C00002F0E0FE051ED2D196F82C0038B13B46D4
:10A2D00022464946304606F03FFC051EC7D130787D
:10A2E00038B13B4622464946304602F051FF051E32
:10A2F000BDD128465AE718B504460020ADF8000045
:10A3000013466A46204600F006F8002802D0BDF841
:10A310000000204418BD70B588B182B100241588B2
:10A3200003E0065D641C3444A4B2A54203D80619B8
:10A3300076789E4201D08C42F3D38C4201D3002028
:10A3400070BDA11C1180005D401E80B270BD80F800
:10A35000301070472DE9F0410D00044606D02CB1B5
:10A3600095F87A000026012803D006E00E20BDE80B
:10A37000F08195F89800012829D0D5F8A00004288C
:10A3800025D0D5F89C00042821D04FF00108A670F4
:10A390002C2205F17801201DFFF768F884F8306061
:10A3A000D5F8A4006063D5F8A800A0634FF6FF704D
:10A3B000A4F8A80004F19400C4F8A400C4F8AA60AA
:10A3C000A4F8AE6084F8B060207810B104E00720F3
:10A3D000CDE7FF2084F8540004F155011F27C4F88D
:10A3E0009410A4F8987004F198022846FFF7C2FE72
:10A3F0000028BCD115F13C0F0ED004F17401C4F853
:10A400009C10A4F8A07004F1A00205F13C00FFF735
:10A41000B1FE0028ABD103E0C4F89C60A4F8A060B2
:10A4200084F85180208BA4F8480084F83C8026648E
:10A4300084F8506060696064454604F13C02002184
:10A4400004F1540072DF002891D125708FE710B518
:10A450000288102A1BD0112A20D0262A1DD1007A6A
:10A460000C46012801D0022817D1A0780521401CF4
:10A47000B0FBF1F201FB1201204600F035F8002894
:10A480000BD0A16B002908D0BDE810400847C27B63
:10A49000012A02D18088A1F8A80010BD0C46002135
:10A4A00084F8B2108088B4F8A8108842F5D12079D9
:10A4B0000028F2D10121DFE710B50C46022801D0B7
:10A4C000032810D1607800280DD000206070A1789A
:10A4D000204600F009F8002805D0A16B002902D021
:10A4E000BDE81040084710BD2DE9F05F0446007834
:10A4F0000F4638B1A770002003F05EFB012620B1A3
:10A500006670F4E00820BDE8F09F0025C4F8AA506A
:10A51000A4F8AE5084F8B050A07910B1A07801280A
:10A5200006D0E07968B1A078012801D0022808D1CE
:10A53000616B21B184F8B1600820884701E084F89C
:10A54000B15004F1AB0100200A5C0AB1304603E0CF
:10A55000401C0628F8D300204FF002084FF0030AF1
:10A560004FF0040B012F06D0022F0CD0032F0FD079
:10A57000042F15D110E0A17929B194F8241011B954
:10A5800008B130460DE0E17911B108B1404608E06C
:10A59000207A08B1504604E0607A08B1584600E0DD
:10A5A0002846A070616B41B1032801D0042804D172
:10A5B000607910B194F8B200A0B184F8B35004F1FE
:10A5C0003C0018210746FEF76AFF04F12C0084F8CE
:10A5D0003C60814605F0BCFA58B194F82C0084F830
:10A5E000510008E084F8B45084F8B360072088472D
:10A5F000E5E784F8516094F8240050B1484605F02E
:10A60000A7FA20B194F8280084F8520001E084F8F9
:10A61000526084F85050A27804F1AA0104F1940920
:10A62000052A4DD2DFE802F065030F1B320084F8E3
:10A630003160C4F8A450C4E9101584F83C8080202F
:10A64000A4F848003EE084F8318087F800A0228A10
:10A65000BA81C4F8A4507960E168B96032E06069F9
:10A66000B860208BB8813D4684F83C60204607F0F6
:10A6700001F840B185F814800421204601F096FBD2
:10A68000F0B9052115E084F831A017E0E069B86061
:10A69000208CB8813D4684F83C60204606F0EAFFF5
:10A6A00050B185F814800421204601F07FFB38B9B1
:10A6B000062184F8311001E084F831B0C4F8A49088
:10A6C000A07878B13A4604F15400D4F8A41072DFAF
:10A6D00000287FF418AF94F8301094F8540073DF1A
:10A6E0000028F6D1616B11B194F831008847002041
:10A6F00009E784F83150F5E770B5040012D001463F
:10A700001C221448FEF7B2FE1248134D0560206863
:10A7100050B17ADF002806D12068016829604068BE
:10A72000686005E00E2070BD0B487BDF0028FAD181
:10A7300008484FF6FF711438084A20F8041B0549F1
:10A74000343901600021FFF799FB0028EBD003208A
:10A7500070BD0000C01E0020641B00200D1602000A
:10A7600010B5044600F06EF8002805D02146BDE87B
:10A770001040024802F02FBE10BD0000EC1E002069
:10A7800070B515460E46044606F080FF002809D035
:10A79000054800EB840080692A463146BDE87040D8
:10A7A00001F042BB70BD0000DC1E002010B500248B
:10A7B00000F048F800B10124204610BD10B5182162
:10A7C000034802F0E3FD182800D0C0B210BD00001D
:10A7D000DC1E002070B505460C46084606F056FF04
:10A7E00060B1284600F02EF840B10548294600EB3C
:10A7F0008400BDE87040183002F0EDBD002070BD4F
:10A80000DC1E002070B5054614460E46084606F0CC
:10A810003DFF002812D0284600F014F800280DD083
:10A820000748294600EB860018301CB1BDE870408F
:10A8300002F0DCBDBDE8704002F08DBD70BD0000CF
:10A84000DC1E0020142801D3002070470146014877
:10A8500002F0C1BDE01E00207CB5054608880C460C
:10A860000930904201D90C207CBD68466DDF00287C
:10A87000FAD121880820685420881B21401C80B20E
:10A88000208029542088401C80B220802844DDF894
:10A8900001100160BDF8051081802088801D80B204
:10A8A00020809DF80010490800D0012129542088FB
:10A8B000401C208000207CBD38B502880446212A37
:10A8C0002AD00EDC1B484FF00301102A008801EB50
:10A8D00000400ED0112A28D1BDE8384016A103F05F
:10A8E0005DBD3B2A22D0562A1FD18088132176DFF6
:10A8F0000CE015A103F052FD072000F045FB08B164
:10A90000FFF7B0FAA188134802F09AFE00280CD095
:10A91000BDE83840FFF7A6BA00200090A08869463D
:10A920008FDF002801D0FFF79DFA38BD8088132102
:10A9300076DFEBE7281D0020446973636F6E6E6558
:10A94000637465642E000000436F6E6E656374650A
:10A95000642E0000481D002010B51A4C0188606864
:10A9600010290ED011292BD1401E606028D1FFF78D
:10A97000F9F8002824D02168002921D0BDE8104032
:10A980000847D0B900210122084600F0DBFA08B1DF
:10A9900007280FD107220221012000F0D3FA08B1C5
:10A9A000072807D104220221002000F0CBFA20B1B1
:10A9B000072802D0216801B188476068401C6060A8
:10A9C00010BD00005C1B00202DE9F04701883B4EC4
:10A9D00040F2F3194FF6FF7510291BD011293ED014
:10A9E000122954D0502946D1C188F289841D914240
:10A9F00041D1618902293ED18688304601F088FF25
:10AA0000050038D004F10C0000F059F9A8B329462C
:10AA100030464EE0C17B8788044601292BD1A846E9
:10AA2000284601F075FF050017D02F8000202872FE
:10AA3000234843464A460168C5F80A104068C5F8ED
:10AA40000E0004F1100105F10A0002F02DF8687201
:10AA5000F08900280FD129462AE0042013E08088DD
:10AA600001F056FF040006D06068FFF787FA08B1CE
:10AA700005F0BAFF2580BDE8F087FFE76868FFF7BB
:10AA80007DFA0028F7D0BDE8F04705F0ADBF878814
:10AA90000646384601F03CFF0400ECD02B464A46FF
:10AAA00006F1080104F10A0001F0FEFF6072214680
:10AAB0003846BDE8F04700F037BD0000C01E00205A
:10AAC000641B00202DE9F04F0746858802883D4829
:10AAD000012197B08346102A09D0112A49D01A2A99
:10AAE0006CD1387AB1EB101F45D2012244E0354CCD
:10AAF000083CA068C0430B9061680BA802F08FFC73
:10AB00000B990CA800F0AAFC2C220CA96846FEF7B1
:10AB1000ADFC0026E946A04610E000BF09EB460068
:10AB20005FF00004B0F804A008EB84005146001D5B
:10AB300002F011FC641C1D2CF6D3761C0098B04268
:10AB4000ECD8142D05D317B00420BDE8F04FFFF763
:10AB500089B92946584602F049FC294608F1040003
:10AB600002F044FCF87B012828D016482946001D35
:10AB700015E029461AE000220221B1EB101F01D294
:10AB8000012600E000260F49083901F11000041DDC
:10AB9000294682B102F02AFC36B12946204617B078
:10ABA000BDE8F04F02F022BC2946204617B0BDE8B0
:10ABB000F04F02F0D0BB02F0CEFBF5E717B0BDE8D6
:10ABC000F08F0000E41E002010B50446074800780E
:10ABD00000280AD0204601F0C9FC204606F04EF8B5
:10ABE0002046BDE8104001F063BA10BD941B002060
:10ABF0001CB568B161B1002201230092ADF80030AC
:10AC0000ADF8022001914189408A6A46ADDF1CBD42
:10AC10000E201CBD38B50D46040018D0BDB1286803
:10AC2000B8B120606868606001208DF8020041F6CC
:10AC30000300ADF8000004F1080269460120A8DF16
:10AC4000002803D129462046FEF7F5FF38BD0E2027
:10AC500038BD072038BD38B50246002929D0002A62
:10AC600027D013880020102B0FD0112B11D0192BB7
:10AC70001FD10B46117A00291BD18DF800008DF8E9
:10AC80000100694618461A6817E00B4691885982F8
:10AC9000F3E70C46117A08290BD18DF80000204605
:10ACA0000DF10101FFF7A4FF20B16168002900D078
:10ACB000884738BD226869462046904738BD0078ED
:10ACC00000F00100704700000149085C7047000077
:10ACD000EC1B02000649095C4FF0A040D0F81005BB
:10ACE000C84010F0010000D0012080F00100704742
:10ACF000EC1B02002DE9FC410646C0074FF00005A1
:10AD00000ED0104F00240122385D0095002311461B
:10AD1000019503F0D1F8641C042CF4D300F046F83C
:10AD2000B0070DD5074E0024361D0022305D0323E9
:10AD300000951146019503F0BFF8641C042CF4D370
:10AD4000BDE8FC81E81B020007490B5C4FF0A04105
:10AD5000D1F804250120984020EA0203C1F8083503
:10AD60001040C1F80C057047E81B02000249085C5E
:10AD7000012103F004B90000E81B02000249085C4D
:10AD8000002103F0FCB80000E81B02000649095C42
:10AD90004FF0A040D0F80405C84010F0010000D0EA
:10ADA000012080F001007047E81B020010B500246C
:10ADB0002046FFF7DBFF641C042CF9D310BD10B54F
:10ADC00000242046FFF7DAFF641C042CF9D310BDE1
:10ADD00010B50246064B4FF0FF3000215C5C9442F8
:10ADE00001D1084610BD491C0429F7D310BD00004D
:10ADF000EC1B020070B50C4E0C004FF000053060EB
:10AE00000BD0012000F06AF808B1022004E0002015
:10AE100000F064F800B10B202070706810B9FEF7E4
:10AE2000A1FE0546284670BD5C1B002010B5002021
:10AE300000F0DCF908B1062806D1012000F0D6F9AF
:10AE400008B1062800D1002010BD00002DE9F04710
:10AE50000D468146FFF7BCFF0446042836D2DFF8D2
:10AE600074801B481C4EA8F10C0725B3012D0ED091
:10AE7000022D2BD104EB440030444578002D25D021
:10AE8000B968002922D02846BDE8F047084704EBFE
:10AE90004401755C0E44717849B10E4A4FF400418B
:10AEA000093A8068FFF726F808B987F80390B17867
:10AEB00008F80410E2E78068FFF760F804EB44014B
:10AEC000314418F804008D78A842D7D0BDE8F08747
:10AED000F01B0200581B0020601E0020042801D235
:10AEE000FFF7F8BE0020704710B5042813D00A28D9
:10AEF0000DD00F281BD10E480321008801EB004024
:10AF00000CA103F04BFA112000F03EF809E0BDE877
:10AF1000104005F09FBE0A481321408A76DF0828BA
:10AF200005D0002803D0BDE81040FEF79BBF10BD40
:10AF3000281D0020416C657274204F66662E00004B
:10AF4000541D002070B50023042810D20D4D00EBD5
:10AF50004004012A02D101290CD00022094E00EB45
:10AF60004000304461B1012906D0022906D00723F0
:10AF7000184670BD0E30C2B22A55F9E74270F7E7A5
:10AF80008270F5E7601E0020044A01460020127915
:10AF9000D20702D0084600F04DB870474C1B002085
:10AFA00070B506461E480024C0E90161B00720D5EF
:10AFB0000025012211462846FFF7C4FF6D1C0446F8
:10AFC000042D02D2002CF4D013E094B940F2666252
:10AFD00004211448FEF7CCFE04000AD1FEF7B6FEA9
:10AFE000040006D10F48104A0021001FFEF746FF5B
:10AFF0000446F00712D00120FFF77CFE74B909481F
:10B000000A4A00210C38FEF739FF040006D1054832
:10B01000074A01210838FEF731FF0446204670BD7B
:10B020004C1B0020FC1B0200B9B201003DCB01000B
:10B03000399D01002DE9F05F6A4C054600266078D5
:10B04000B34618B184F801B001F060FD664F4FF4CB
:10B050007A694FF4C87A4FF00108182D62D2DFE800
:10B0600005F0AC0C0C31404D62676B746B74BE7DA7
:10B070007D7D7D7DACAFB2B5BEBE0020FFF786FE04
:10B0800000284FF0000008D0FFF770FE022D02D11B
:10B090004FF4E16008E0484606E0FFF76FFE022D3E
:10B0A00001D1C82000E05046410CC0034FF4FA72B1
:10B0B000801841F10001257052000023FEF792F93B
:10B0C00001462AE00020FFF761FE00284FF0000053
:10B0D00004D0FFF74BFE4FF44870E5E7FFF74EFE54
:10B0E000DFE70020FFF752FE00284FF0000002D0FB
:10B0F000FFF73CFECFE7FFF741FED4E70020FFF764
:10B1000045FE00284FF0000002D0FFF72FFE01E0BF
:10B11000FFF734FE257041F69A1100223868FEF7D9
:10B12000E9FE064646E00020FFF70EFE257008E027
:10B13000002051E025703DE084F801800120FFF7F8
:10B1400003FE002240F6CD41E8E784F801800120AB
:10B15000FFF7FAFD00224FF48041DFE77868FEF741
:10B160000DFF0646D5F1110000D02EB10220FFF7E9
:10B17000FDFD84F802B01DE0012816D980B2C82177
:10B180004843C117C90341EA5041C0034FF4FA7262
:10B19000801841F1000152000023FEF723F9014617
:10B1A00000227868FEF7A6FE06460220FFF7E6FDBD
:10B1B00084F802803046BDE8F09F01F0A7FCB9E7B3
:10B1C00001F0A4FCB4E701F0A1FC04E001F09EFC56
:10B1D0000020FFF7D3FD0120FFF7D0FDAAE7FFF71E
:10B1E000EEFDA7E74C1B0020F01B0200012106F03A
:10B1F000E4BA00002DE9F8430546861C00208DF8CE
:10B20000000090460F464FF001096846FEF7C6FE63
:10B210001B4C20683860D4E90001401AA16804F290
:10B220001C47081A0EE00121384602F0F2F801F03E
:10B2300021FE0146384602F0ECF8D4E90001401A3C
:10B24000A168081A401C8642EDD8B8F1000F03D05F
:10B25000052065F3891002E0062065F39F50A2687F
:10B260002168114004EB8101C860206830442060EF
:10B270009DF80000FEF7B6FE4846BDE8F8830000E2
:10B280000826002030B482680468531C8360A154EF
:10B29000D0E901128A4202D330BC02F0BABA30BC03
:10B2A00070470000034803C8814201D10120704764
:10B2B000002070470826002000780221FFF7C6BD55
:10B2C00005494FF0FF32082841F8202002D30844F6
:10B2D00080F8482070470000C4210020F0B54FF0EE
:10B2E000FF3512B10023082601E008230C260C4C80
:10B2F00005E000BF54F823707F1C04D05B1CB342F0
:10B30000F8D32846F0BD26185DB286F8305044F8D0
:10B310002310002AF5D1E11881F84800F1E7000078
:10B32000C42100200249084490F930007047000011
:10B33000C421002070B504464FF6FF750A46284622
:10B34000AC4208D14FF480742146104604F056FDFB
:10B35000A04209D070BDFF2CFCD82146104604F055
:10B3600040FD08B1204670BD284670BD70B5084C40
:10B37000050009D010342168002907D00868206032
:10B38000496828468847F6E70834F4E770BD0000AE
:10B39000B0210020054A012120B1012805D191707A
:10B3A000FFF7E4BF51700020FAE77047B02100209A
:10B3B0002DE9F05F26484168F1B3DFF898B00E68D8
:10B3C0008146DBF8004087688078E11B21F07F45EB
:10B3D000ED1CB0B9DFF880804FF48030C8F844032A
:10B3E000C8F804031120FEF779F91120FEF781F95E
:10B3F0004FF0010AC8F800A02F2003F00FFC89F8D5
:10B4000002A0B54200D23546124BE8193C3320F079
:10B410007F401860DBF800105A46091B21F07F417D
:10B42000001B20F07F40C91C81420FD910681860B2
:10B430002F2003F0F3FB00E004E0BDE8F05F1120F3
:10B44000FEF762B9BDE8F05F05F0F4B8BDE8F09F23
:10B45000F81B0020041501400010014073B58CB0AA
:10B460000646002000900D9880B100246D462146CC
:10B470000DA801F0B0FF30B1009805EB40008480CA
:10B480000098401C0090641C142CF0D32C226946B8
:10B490003046FDF7EBFF0EB070BD2DE9F041178887
:10B4A0000646B81D14460D46984202D90C20BDE848
:10B4B000F0813188072206290AD34FF4486C4FF6F1
:10B4C000FF73614501D9994202D17088062801D2E3
:10B4D0001046ECE7604501D99842F9D1994203D072
:10B4E000984201D08142F3D80520E85520881221E6
:10B4F000401C80B2208029542088401C80B22080CB
:10B500004119308806F008F82188084480B220806C
:10B510004119708806F000F8218808442080002036
:10B52000C5E7FEF79FBC000038B54A7A0F4B62B101
:10B5300000220A725969002906D001228DF80020E4
:10B54000ADF802006846884738BD0A7A62B19B6848
:10B550004C68024619462046FEF7CCFC0028F3D082
:10B56000BDE8384005F040BA5B68F1E7C01E002036
:10B57000F0B585B016460F4604461D4614220B4909
:10B580006846FDF773FF0A488DF80870ADF8024071
:10B59000ADF80A608DF80C50017800222046FFF7C4
:10B5A00031F9684600F0FCF905B0F0BD001D02005D
:10B5B000A41B002030B5044685B000211B4804F0D0
:10B5C00010FC00282FD00025204600F0FEFE68B1B8
:10B5D000112812D086281BD0A0F54051023903D083
:10B5E0000146204605F008FA294607E005B029463D
:10B5F0002046BDE8304001F01BBC0121204601F08F
:10B6000017FC05B00021BDE83040084804F01DBC1F
:10B61000142207496846FDF729FFADF80240684645
:10B6200000F09AF9E0E705B030BD00006D1B002086
:10B63000301C02007FB50C4610B1012004B070BD73
:10B640002079002638B141F61D5501281BD002286B
:10B6500026D00F20F2E70220207102960396E068C0
:10B660000190694601A804F041FF50B10298818819
:10B67000E18000882081BDF80010029804F0B4FF3A
:10B68000DCE70A20DAE70A4B6A460021A01D04F035
:10B69000E9FE38B1064918398E61CE610A28CDD14C
:10B6A0002846CBE702488188019804F09DFFF5E722
:10B6B000381C00202DE9F0470025DFF890803DE0A0
:10B6C0006068002100EBC506012032789146FDF745
:10B6D000BAFED4E9062300EA020701EA030C57EA9E
:10B6E0000C0729D082438B434846C4E9062303F064
:10B6F00057FB32788246914601200021FDF7A3FED8
:10B70000D4E9042300EA020401EA03074A4650464A
:10B710000021FDF798FE44404F403C430CD1707827
:10B72000012801D0012000E00020726880EA0A00B0
:10B7300012B1C1B2484690476D1CEDB298F80000B6
:10B7400044468542BCD3BDE8F0870000D81B0020EA
:10B7500010B50021024801F077FE80F3100010BD03
:10B76000242A00200E4910B50A784C780023A24202
:10B7700012D0521CD2B20A70022A00D10B70084AB1
:10B780000B780C3252F8232002608868104420F0B5
:10B790007F408860012010BD0360002010BD0000C4
:10B7A000F81B002013460A460021FFF7E1BE000007
:10B7B0002DE9F843104D0F4680461E4691466946D6
:10B7C000286801F09CFD040014D01C21FDF767FEE1
:10B7D00001202071C4F81490380BC4F80080C4E92B
:10B7E00002606946286801F0ABFD04F0CFFD00203F
:10B7F000BDE8F8830420FBE7CC1D020010B50378F8
:10B800000022072B06D2DFE803F0050406102029EA
:10B8100030000A7010BD01230B7003898B8183886F
:10B82000CB81C06888600A7410BD02220A70028948
:10B830008A818288CA81C2688A60807D062802D097
:10B840000020087410BD0120FBE703220A70C288A3
:10B850008A810289CA81C068886010BD04230B7088
:10B86000C0888881CA818A6010BD0520087010BD1B
:10B8700070B5064D0646002455F8241009B130462F
:10B880008847641C042CF7D370BD00008823002077
:10B8900030B50446006887B00D46806800281FD088
:10B8A00018216846FDF7FBFD0195A06805902079F9
:10B8B00010B1012810D107E001208DF800002069A7
:10B8C0000290E068039005E002208DF80000E06837
:10B8D0000003029060690490206881686846884788
:10B8E00007B030BD70B586B015460C00064619D0BD
:10B8F000112C17D0082C15D014216846FDF7CFFD68
:10B90000ADF80260304600F057FFADF804000D2C92
:10B910000AD0862C1CD007208DF8000002946846BF
:10B9200000F04CF806B070BD03208DF8000025B182
:10B930002878C00701D0012000E002208DF808001F
:10B9400000208DF80C0041F20110ADF80A00E6E786
:10B9500006208DF80000E2E710B50446408800F0AC
:10B960002BFFA080024801682046BDE81040084730
:10B97000741B00202DE9F04107460024064E074DB8
:10B9800005E000BF56F8241038468847641CE87864
:10B990008442F7DBBDE8F08164210020941B002085
:10B9A00010B50446408800F007FFA08002480168F7
:10B9B0002046BDE810400847D41C02000149096830
:10B9C00008470000281D020070B586B00446142107
:10B9D0006846FDF764FDA0890125A0F54040ADF85B
:10B9E000040020782A4E062833D2DFE800F0320324
:10B9F00003032C48A08900F0BDF930B9E08943F673
:10BA0000FE71A0F54040884223D8A07B8DF8080045
:10BA1000207803280FD000208DF80900A06803903B
:10BA2000606850B109208DF8000060680490684695
:10BA300003F03CFE0DE00120EEE708208DF8000049
:10BA40008DF81050F3E7A08900F094F908B1E0896F
:10BA500030B17078002801D003F058FF06B070BDF7
:10BA6000606820B10B208DF800007570DFE70A20B8
:10BA70008DF80000BDF8040003F0D2FFF5E71320B5
:10BA80008DF800004FF6FF70ADF80400CFE700001E
:10BA9000841B002038B504460E480078A8B1A4F5F0
:10BAA0007F40FF380FD0684604F0A2FB78B1052133
:10BAB000017001210171C480684604F0A7FB04F005
:10BAC00057FC002038BD042038BD022038BD0820B6
:10BAD00038BD0000401C00200C4808B5007888B133
:10BAE000684604F085FB78B106210170684604F0D1
:10BAF0008DFB0748017809B10121017304F038FC7E
:10BB0000002008BD022008BD082008BD401C002000
:10BB10004C240020F0B587B014216846FDF7BFFC27
:10BB20002B4C207818B16846FFF7A2FE4EE0201D8E
:10BB300001F06CFCB8BB4FF01020416900040069B3
:10BB40004A1C02D100EB40000101224800220161A1
:10BB5000A1F54051C160204901F0EAFF002820D141
:10BB60001F481C238C221D49006801F0B5FB03F01F
:10BB70008DFB050014D0022D12D000270126062DC2
:10BB800012D005A804F034FB88B106700C2D18D231
:10BB9000DFE805F0170F170F1716171617111311F7
:10BBA0000B2007B0F0BD11E026706760BBE70820EE
:10BBB000F7E7077105E0032100E00221017100E0D1
:10BBC000067105A804F022FB04F0D2FB0020E8E790
:10BBD000401C0020E81C0020DC1D020098230020EF
:10BBE000441D020038B5040014D0694604F07EFC00
:10BBF000A0B1BDF8000000EB8001094800EB810016
:10BC0000C16849B1A17A39B1C168491EC16000203B
:10BC1000A07238BD052038BD062038BD0A2038BDC9
:10BC2000242400201FB501A9684604F01BFC04B0C1
:10BC300010BD07B513460A466946002004F012FC01
:10BC40000EBD07B513460A460021684604F00AFCFB
:10BC50000EBD20B119B100680860002070470520B2
:10BC600070470000F8B50D46040018D0BDB1694614
:10BC700004F03CFCA8B1BDF800000B4900EB8000CB
:10BC800001EB800001210C30666801F0C2FB2E60E0
:10BC900060680C3068600120A0720020F8BD0520AB
:10BCA000F8BD0A20F8BD00002424002018B10323A9
:10BCB000002205F071BE052070470223002205F026
:10BCC0006BBE12B1022305F067BE0520704700006D
:10BCD000084910B50A69042A0AD0074A096942F8D6
:10BCE000210004480121103001F093FB002010BD19
:10BCF0000C2010BD201C00208823002038B50446ED
:10BD000009480D46007858B164B16946284605F0E7
:10BD10003DFF002803D1BDF800102180658038BDAB
:10BD2000022038BD052038BD401C002010B5044657
:10BD30000E48007898B1A4B12188022913D80C4A82
:10BD400001EB810002EB800260885289C31C9342A0
:10BD500009D805F00FFF00202080608010BD022070
:10BD600010BD052010BD042010BD0000401C0020A7
:10BD70002424002043F6FE71A0F54040884201D8FB
:10BD8000012070470020704710B50446007818283D
:10BD900002D1FEF713FD207010BD10B504460078E7
:10BDA000182802D1FEF70AFD207010BD70B50D46AF
:10BDB0000446B0F89810D0F894000122FEF79BFAE0
:10BDC00000B1057004F13C0204F1940104F1540047
:10BDD00072DF70BD70B513460022064615468629EF
:10BDE00002D0112902D002E0012200E001250D4C11
:10BDF00073B1A179FEF706FD2A4661793046FEF758
:10BE000001FD0022A1783046FEF7FCFC002203E091
:10BE1000A178FEF7F7FC2A4661783046BDE870400D
:10BE2000FEF7F0BCAC1B0020F7B517460E0011D092
:10BE30000098002560B100242146684601F0CBFA45
:10BE400018B1A0B23946B0476D1C641C142CF3D352
:10BE50002846FEBD0020FEBD406804F0E9B90000A0
:10BE60000EB516A19DF8080020F00F00401C20F030
:10BE7000F00010308DF80800102202A87CDF08B115
:10BE8000FDF7F0FF4FF4107078DF08B1FDF7EAFF1F
:10BE900000204FF4C87100900190ADF80400ADF897
:10BEA00000104A00ADF80220ADF8061068467ADFAF
:10BEB000002801D0FDF7D6FF0EBD00004E6F726462
:10BEC00069635F4C696E6B5F4C6F737300000000B9
:10BED00070B508B1012070BD194C0025207B08B158
:10BEE000257301E000F0A0F82078082826D2DFE8CA
:10BEF00000F02504080C10251420BDE8704000F067
:10BF000021B8BDE8704000F07DB8BDE8704000F099
:10BF10005FB8BDE8704000F03BB86088084900EBAE
:10BF20008000283901EB80004068BDE8704003F0D4
:10BF30008DB96560BDE8704003F096B90F2070BD03
:10BF40004C2400201149F0B48A1C00200346A1F1C2
:10BF500028050C18A67A4EB1A37200EB800405EBFD
:10BF60008404E66816B9247C012C0AD0401C80B2F7
:10BF70000228EED30B704B804B60F0BC41F61D5095
:10BF800070471080F0BC00F03DB800004C24002049
:10BF90000C48418801EB8102A0F1280101EB8201EC
:10BFA000CA6852B1052101700748022181800168E9
:10BFB00000230122054801F025BD042202704968D2
:10BFC000F6E700004C240020481C0020E81C00205C
:10BFD00038B50A49084803240B684268898803EB8E
:10BFE000810153880470DB1C00201B0400909B0B14
:10BFF000034801F077FE38BD4C240020481C002087
:10C00000E81C0020074910B54888091D04F0BEFA55
:10C0100018B1BDE81040FFF7DBBFBDE81040FFF7E7
:10C02000B7BF00004C240020F0B51F481F49012570
:10C03000067802248B88A0F12802082E19D2DFE8A6
:10C0400006F00418181B222F2F170189491C0181A3
:10C050000021418080F80C1001EB810312F823309D
:10C0600043B100234418491C89B2A3720229F3D3B7
:10C070000570F0BD0123F5E742685288D21C1A44CE
:10C080008A800470F0BD46880D6806EB860602EBD8
:10C09000860256680E60556013818C80062100E090
:10C0A00007210170F0BD00004C240020481C002036
:10C0B00030B501888488224D85B0502924D052297A
:10C0C00002D0542931D103E0204600F07DFE2CE05F
:10C0D00014221C496846FDF7C9F9ADF80240204614
:10C0E00000F06AFBADF8040000F022F90022697943
:10C0F0002046FEF787FB002229792046FEF782FBC7
:10C100006846FFF729FC10E0017B01290DD1817AF7
:10C1100001290AD10089A0F52451023905D1012154
:10C12000204600F085FE05F067FA00220649E8780F
:10C13000FEF726FB05B0BDE8304004F09BBC0000D4
:10C140006C1B0020581C0200A1A0010010B5044681
:10C15000007800280FD1608800F036FE608800F07B
:10C1600081F9002807D00449608801220979BDE8D7
:10C170001040FEF747BB10BD6C1B002010B5124CE1
:10C1800000202070FEF71AFBA070FEF717FBE0708E
:10C19000FEF714FB2071FEF711FB6071A1781829DE
:10C1A0000FD0E17818290CD02179182909D0182846
:10C1B00007D00121601C03F00DFE0120207000203B
:10C1C00010BD032010BD00006C1B00207CB5044690
:10C1D000007808282FD1607A38BB207A4FF6FF7597
:10C1E00001280DD0072802D0082824D11EE0A088FD
:10C1F00000F020FAA8421ED0012100F019FE1AE03A
:10C20000A0886A46012103F069F970B901980078A5
:10C2100058B1A08800F00EFAA8420CD008490122BB
:10C220000979FEF7EFFA04F025FC04E00448002148
:10C23000401C03F00AFEBDE87C4005F0DDB90000BB
:10C240006C1B002010B504460A4841782046FEF7D2
:10C25000C1FA68B10848002101EB410200EB8202FB
:10C260005288A24201D1C8B210BD491C1429F3D38F
:10C27000FF2010BD7E1B0020541F002070B5094D0B
:10C28000094E002404EB440005EB800071784088DF
:10C29000FEF7A0FA20B1641C142CF3D3FF2070BD6C
:10C2A000E0B270BD541F00207E1B00202DE9F0413C
:10C2B0008046024601200021FDF7C5F81A4F0546C9
:10C2C0000E467868FDF75AFE00280CD1174CD4E9C9
:10C2D000062110462A4001EA06031A4305D0A84366
:10C2E000B143C4E90601BDE8F081404602F058FDC3
:10C2F00030B1D4E9040128433143C4E9040105E025
:10C30000D4E90410A943B043C4E90410D4E90601F8
:10C3100028433143C4E90601A1687868BDE8F041CB
:10C320000022FDF7E7BD0000341D0200D81B0020ED
:10C330001CB5054AD2E90212CDE900120022694675
:10C3400003F0F1F81CBD0000701C020003484FF61A
:10C35000FF7181800121017000207047781B00204F
:10C360002DE9FC41804600F027FA0024032501272F
:10C37000A0F57F412646FF3908D06A46082103F020
:10C38000ADF818B90198841D8688056832462B4699
:10C3900021464046B1DF042804D0082804D00B28E9
:10C3A00008D002E0112000E00020002F00D10B2077
:10C3B000BDE8FC810027A80701D50125E6E7344345
:10C3C000F5D0002426460325E0E72DE9FC41804610
:10C3D00000F0F2F90646A0F57F40FF380ED00125A7
:10C3E0002A466D1C0027ADB26B460821304603F08B
:10C3F0009FF8040006D0072C25D025E043F2020068
:10C40000BDE8FC81019903230A1D0B604046891D8C
:10C41000B2DF040004D00C2C09D0052C09D009E0AF
:10C4200032460821104603F0F9F804460CE00127D3
:10C4300000E000240821304603F0DCF800B10324BA
:10C44000002FCDD100E00C242046D9E70448808895
:10C45000A0F57F41FF3901D004F016BB7047000002
:10C46000781B00200EB502A9019100F0A5F96A46DB
:10C47000012103F033F808B100200EBD01980078C7
:10C480000EBD00002DE9F04107464FF6FF760A4841
:10C49000B3DF10B10320BDE8F081074C43F2030580
:10C4A000A41E324661883846AFDFA842F3D16088C7
:10C4B000401C6080F5E700007A1B0020428800EBFA
:10C4C00082020C328A4201D9022070478188A1F58C
:10C4D0007F42FF3A03D0008808B100207047012056
:10C4E0007047884204D20068401C01D00120704788
:10C4F000002070473EB5027802230C46B3EB520F82
:10C5000017D1B0F80110ADF80010C1788DF8021005
:10C510008188ADF8041080798DF8060002AA01A97F
:10C520002046FDF75FFB032202A96846FCF7C9FF1E
:10C5300008B100203EBD01203EBD000010B50C46F4
:10C54000FFF780FEFF280CD0074900EB400001EB0D
:10C550008000416821600189A180807AA07100205B
:10C5600010BD052010BD0000541F002070B50188CB
:10C5700090B0102959D1011D28226846FCF776FF9A
:10C580009DF804004FF6FF76032134466D46B1EB6B
:10C59000500F2AD003F0F8F89DF8040040080ED0A0
:10C5A00001280CD0022820D118E00C99281D113147
:10C5B000FDF7B3FA18B100BFBDF8284015E00BAA8B
:10C5C0000AA9072003F0B4F80028EED10DE00C9979
:10C5D000281D491CFFF78EFF0028EDD10BAA0AA9E0
:10C5E000072003F0A5F80028F1D1BDF80000291DAF
:10C5F00000F01CFEB44218D0BDF80000214600F047
:10C60000C5F8BDF80000ADF82A000020ADF82C40B8
:10C61000074E8DF828000AAD044600BF56F82410D6
:10C6200028468847641C022CF8D310B070BD000067
:10C63000841C0200094A002101EB410332F8233037
:10C64000834205D101EB410002EB80004088704736
:10C65000491C1429F0D34FF6FF707047541F002077
:10C660003EB50C46054603F08FF80BE0BDF8000020
:10C67000A04207D02846029900F02EF810B1BDF86C
:10C6800000003EBD01AA6946072003F051F80028CA
:10C69000ECD14FF6FF703EBD10B50D4C18200D4A81
:10C6A000607000204FF6FF7100EB400302EB830344
:10C6B000401C59801428F7D3FEF780F860701828C2
:10C6C00003D001202070002010BD032010BD000009
:10C6D0007E1B0020541F00202DE9F0410C4605462A
:10C6E00000F1110701F111061022491C401CFCF752
:10C6F000E8FE48B9681C00F0F9F928B1601C00F0A8
:10C70000F5F908B1012400E0002431463846FDF770
:10C7100004FA3B780222B2EB530F0CD00321B1EBA9
:10C72000530F08D03378B2EB530F04D0B1EB530F53
:10C7300001D0012100E00021084201D18C4302D048
:10C740000120BDE8F0810020FBE7018811B9421803
:10C7500092780AB101207047491C0829F7D30020BC
:10C76000704710B50C460346FFF7EFFF00280AD0CC
:10C7700018882188884205D10822A11C981CFCF742
:10C78000A0FE08B1002010BD012010BD03F09CB92F
:10C7900070B50446FFF74EFF0546204602F0A1FEA5
:10C7A0004FF6FF7104468D4203D014B9284603F0BA
:10C7B0008BF9204670BD000010B5FFF743FDFF2840
:10C7C00005D0044900EB400031F8200010BD4FF6C1
:10C7D000FF7010BD541F00203EB5044602F0D4FF88
:10C7E0000EE0019920464631FFF7BBFF28B90199B9
:10C7F00020462A31FFF7B5FF10B1BDF808003EBD55
:10C800006A4602A9072002F093FF0028E9D14FF6FB
:10C81000FF703EBD10B50A4941600A4800F0F6FDC0
:10C8200058B902F03BF907491C238C2208740448CC
:10C830008C39001F006800F04FFD002010BD000083
:10C84000D01D0200E82400202DE9F0412D4F0025E5
:10C8500018B17D600120BDE8F0810879012258B14E
:10C86000294E01280CD0274C4FF00208083402282A
:10C8700021D0032842D128E00A7102F0F5FC3BE008
:10C880005FF0000000EB800116F82110022908D0AB
:10C89000401C80B20228F5D33A707D6041F61D50ED
:10C8A000D9E700EB800006F8205006EB80004068D6
:10C8B00002F0CCFC20E00D71A4F8048000230122DA
:10C8C0001248216801F09EF816E00D71206802F010
:10C8D000BDFC0D4923682831498801EB810206EB34
:10C8E0008201D1F804C0C4F800C04B60A3880B815A
:10C8F000A4F8048006F822500028ACD07D600E20F9
:10C90000A9E70000401C002024240020E81C00208F
:10C910000146034802888A4200D000207047000088
:10C92000AC1E00202DE9FC5F0E008346DDE90C47BC
:10C93000C6F1000098469246814600D4084601257B
:10C9400003E000BF90FBFAF06D1C5045FADAA845F1
:10C9500000D9454624B1002E01DB780700D5641EBE
:10C96000B80702D5B8F1000F0AD0F80708D13CB1DA
:10C97000A54205D220215846641EFEF783FCF6E747
:10C98000002E02DA4E462D2102E0780703D52B2136
:10C990005846FEF777FC07F0030002280BD1B8F1E8
:10C9A000000F08D13CB1A54205D230215846641E83
:10C9B000FEF768FCF6E7CDE90047434652463146AC
:10C9C000584604F0BFFDBDE8FC9F000070B50D4661
:10C9D000044600684FF4887102F0E5F84FF4907156
:10C9E000206802F0E0F84FF49271206802F0DBF862
:10C9F0004FF4A271206802F0D6F820681249C0F8FE
:10CA0000041320686907000B40B2090E002806DAFB
:10CA100000F00F0000F1E02080F8141D03E000F1A9
:10CA2000E02080F8001420680121000B40B200F0E3
:10CA30001F0291404009800000F1E020C0F8801200
:10CA4000C0F8001170BD0000100302000246002073
:10CA50001268930702D0530702D47047500714D5C9
:10CA600002F00300012802D002280CD105E0C2F335
:10CA700083100B68801C184404E00223086803EB51
:10CA800092521044086001207047086800EB9253EE
:10CA9000C2F38910401CEEE70248007A002800D05B
:10CAA00001207047E8240020F0B58488A51894423E
:10CAB00000D82246A41AC288D6189A4200D8134633
:10CAC000D21A4B880788BB420CD34088834209D8CE
:10CAD0008888A04206D3A84204D8C888904201D3CF
:10CAE000B04201D90020F0BD0120F0BD0021425C20
:10CAF0000AB101207047491C1029F8D30020704763
:10CB0000800701D000207047012070470A4810B507
:10CB1000807860B1002401E0022C06D02046FEF7A8
:10CB200025F9641C042CF7D310BD0324F6E7BDE8F7
:10CB30001040FEF73BB900004C1B00200348017970
:10CB4000C90702D00078FEF775BA70474C1B002069
:10CB5000172101804180002101714171704700005F
:10CB60002DE9FE4F2B4D984691460F00824601D08D
:10CB700000260DE0684600F085FB6A46002150461D
:10CB800002F01BFC2878009E10B99DF8090098B1AE
:10CB90004A463146504604F0CDF90446014600228B
:10CBA0005046FFF717F90D2C32D008DC84B3082C5F
:10CBB0002ED00B2C0BD12BE00520BDE8FE8F112CC5
:10CBC00010D0862C1AD0A4F54050023820D003256E
:10CBD000B8F1000F04D0324621465046FEF782FEDF
:10CBE0002846EAE73A4629795046FDF70BFE4A46C1
:10CBF000E9785046FDF706FE0025E9E73A4629792F
:10CC00005046FDF7FFFD4A46E9785046FDF7FAFD2C
:10CC10002546DDE7AC1B00202DE9F041204F0E46F4
:10CC2000154604463978FDF7D5FD002835D0204655
:10CC300002F0BAFB50B32046FFF7BEFD8046204607
:10CC4000B978FDF7C7FD08B1012700E002272046AB
:10CC500002F052FE0028404602D0FFF799FD0DE099
:10CC6000A8F57F41FF3909D0072102F0C3FC01007C
:10CC700004D0052902D0204603F0D2FE2B463246CE
:10CC800039462046BDE8F041FEF772BC2A463146DF
:10CC90002046BDE8F041FEF785BDBDE8F08100000B
:10CCA000A41B002070B5094D0646E978FDF792FDFA
:10CCB000044629793046FDF78DFD0146224630466F
:10CCC000BDE870400123FFF74BBF0000AC1B002004
:10CCD0002DE9F047394E002780463D46DFF8E090C9
:10CCE000D6F804A057E003D00446D0F81C8035E005
:10CCF00099F8002002EB4201521CD2B289F80020C0
:10CD000009EBC10199F80230091D9A4201D189F855
:10CD1000005048680A780446012A12D0022A02D03C
:10CD2000032A3BD108E004F0A9FA00B101272574D9
:10CD300034E00574C06900E070680028F9D17060C3
:10CD40002CE0207C50BB88686060C868A0600869DF
:10CD5000E0604869A061F07800B165606268B16820
:10CD6000184B501A20F07F40984202D2A168084424
:10CD700006E0881AA16820F07F40814202D9081A93
:10CD8000206000E0256065600120A56020742046D9
:10CD9000E56104F055FAB8F10000A4D199F800104B
:10CDA00099F801008142A3D117B97168514502D0A9
:10CDB0000120BDE8F0870020FBE70000F81B002001
:10CDC00064220020FFFF7F0030B585B005460024B7
:10CDD00014216846FCF763FBA5F57F40ADF80250CF
:10CDE000FF3815D02846FFF7BBFA98B10B2815D0AD
:10CDF000112811D0A0F54051023903D00146284630
:10CE000003F0FAFD09482246C1782846FDF7FAFCEE
:10CE100005B030BD0E2002E00124F3E70F208DF8AD
:10CE200000006846FEF798FDECE700006C1B002050
:10CE30000A4602498978FDF7E5BC00006C1B00201A
:10CE4000F8B5054600780C46002620420FD1002098
:10CE50008DF800006846FDF7A1F82878204202D13D
:10CE60002043287001269DF80000FDF7BBF83046EE
:10CE7000F8BD00002DE9FF410026234800F0C3FA69
:10CE80002148001F074600F0BEFA204C6068009061
:10CE9000A56800E000986946284004EB80000C304B
:10CEA000FFF7D4FD0028F5D101AA009901EA050396
:10CEB00004EB8303491CDB6842F82030401C0091DE
:10CEC0000228F2D3019800F0030001280BD00228B9
:10CED00010D10198032101EB90500099BDF80A6030
:10CEE00001EB900005E00198BDF80A60C0F38310E3
:10CEF00008440090384600F083FA08B1009860605A
:10CF000004B03046BDE8F081202A00200826002029
:10CF1000ACB04FF40041002001F0B2FA08B1FCF7C8
:10CF2000A1FF01F01DF9FCF7BBFF08B1FCF79AFF68
:10CF300047490320FEF734F808B1FCF793FF694630
:10CF40000020FDF757FF08B1FCF78CFF9DF80000AB
:10CF500002287BD05FF0000601F0B0FB08B1FCF7BF
:10CF600081FF01F041FD08B1FCF77CFF0024694618
:10CF70000120009401F0CCFB08B1FCF773FF684678
:10CF800001F044FC08B1FCF76DFFFEF769FF0021DA
:10CF9000304800F0CEFA08B1FCF764FFAC216846D7
:10CFA000FCF77DFA022001258DF800008DF8025073
:10CFB00005208DF8030028480590ADF81050282072
:10CFC000229044F2506023908DF87C5023482990A1
:10CFD000204869463030FDF7BDF908B1FCF742FF43
:10CFE0001C4801213030FDF7B2F903F0FBFD1C2194
:10CFF0006846FCF754FA4FF42030CDE900404FF476
:10D000007020032702908DF80C701548ADF80E4083
:10D010008DF81050CDE905406846FDF76DFB08B16D
:10D02000FCF720FF02F05EFD0E480FA1008807EB21
:10D03000004001F0B3F93046FCF7B0FD01F09EF876
:10D040000028FBD101F04EFBF8E7FFE7012683E75C
:10D05000E9AE0100381D0020481B002019F0010036
:10D0600023B50100281D00204C696E6B204C6F73A6
:10D0700073206578616D706C65207374617274657E
:10D08000642E000070B5144682880E46054620883E
:10D09000111D0144921C994201D8FE2A01D90C208D
:10D0A00070BD521C32542088FF21401C80B2208069
:10D0B00031542088401C80B220808119288804F0D7
:10D0C0002BFA2188084480B22080AA8842B1A9683E
:10D0D00041B13044FCF7CAF92088A988084420806F
:10D0E000002070BD072070BD2DE9F047C7880446B9
:10D0F000181D16468946B0FBF7F1B0FBF7F207FBA7
:10D1000012009A193A44D21CB2FBF7F2DDF820A0C3
:10D1100001E02468491E0029FBD13D1A8846B5422A
:10D1200016D818E0BAF1000F05D0211809EB080055
:10D130002A46091D04E0204409EB08012A46001D87
:10D14000FCF794F900202468761BA844B74201D963
:10D15000354600E03D46002EE4D1BDE8F0870000F2
:10D1600030B5024659B101F0B7F90021074C09E08A
:10D1700004EB810315685B88AB4202D1116000208B
:10D1800030BD491C8142F3D3052030BDFC1C00207A
:10D19000F8B50F46017814460546012901D1687893
:10D1A00030B12088821C9A422DD8012902D006E095
:10D1B0000720F8BD69780144891C994223D8181AC0
:10D1C000801E86B2ADF800602188B81C084469460C
:10D1D0007DDF0028EDD12878022805D1BDF80010A8
:10D1E000B14201D809210AE00821012805D1687857
:10D1F000B04202D8ADF8000001E0ADF80060BDF823
:10D200000000FE2801D90C20F8BD2288401CB8542B
:10D210002088401C80B2208039542088401C208007
:10D22000BDF80010084420800020F8BD70B5054608
:10D230000C004FF0FF0020D04FF6FF76B5421CD017
:10D240000E48012241782846FDF7DCFA2846FEF711
:10D25000F9FFFF2803D1FFF711F8FF280DD0084B85
:10D2600000EB400203EB82014D8023F8226022682C
:10D270004A60A2880A81A2798A7270BD7E1B002052
:10D28000541F0020034A00219268C0E900218160F8
:10D2900070470000AC1B002070B54FF6FF750E46BE
:10D2A000A84201D1002000E0401C84B208E02146E1
:10D2B000304602F0BEFD08B1204670BD641CA4B229
:10D2C000FF2CF4D9284670BD10B5FBF7EEFF08B16E
:10D2D000002010BD112010BD10B531B1B2FBF3F428
:10D2E00003FB14241CB1092010BD0E2010BD0160E9
:10D2F0000021416081608281C381084610BD70B504
:10D300000C460546FBF786FF002802D021882868D6
:10D31000084470BD10B50A8849888A4203D1FBF7DA
:10D32000BBFF012010BD002010BD70B50C460546A6
:10D33000FBF795FF002802D061882868084470BD7B
:10D3400010B50A8849888A4203D1FBF77FFF012084
:10D3500010BD002010BD01F01F0301229A40D243EE
:10D36000490900EB8100114600F059B80A4601F066
:10D370001F030121994010B552090C4600EB8200B1
:10D3800000F05DF8204000D0012010BD2DE9F041F3
:10D3900080460D460024481E012101EB501716E07F
:10D3A00058F82400C04390FAA0F0B0FA80F020288A
:10D3B0000CD200EB4416AE4208D231464046FFF78D
:10D3C000D5FF0028ECD13046BDE8F081641CA742AF
:10D3D000E6D82846F8E74A0950F8220001F01F0273
:10D3E00001219140084000D00120704701F01F0347
:10D3F00001229A40490900EB8100114600F029B84A
:10D40000002100F017B8012100F023B8012100F03D
:10D4100016B808B56A46FBF794FF009808BD08B532
:10D420006A46FBF774FF009808BD08B56A46FBF72B
:10D4300088FF08BD08B56A46FBF769FF08BD08B557
:10D440006A46FBF757FF08BD08B56A46FBF746FF7B
:10D4500008BD08B56A46FBF74DFF009808BD08B542
:10D460006A46FBF77BFF009808BD38B504460025E7
:10D470008DF800506846FCF791FD216862680868E5
:10D4800090420ED9401E08600178A38AE26801FB31
:10D490000325227A2168101AC0B20A79824200D28A
:10D4A00008719DF80000FCF79DFD284638BD38B591
:10D4B000054600208DF800000C466846FCF76EFD1E
:10D4C000E868A98A201AB0FBF1F12A681068431CA9
:10D4D000136001709DF80000FCF784FD38BD10B5A5
:10D4E00030B1017A42680368891AC9B21A6006E04D
:10D4F0000E2010BD03681A68541C1C601170491E70
:10D50000C9B2F7D2006800210171084610BDC208F7
:10D5100000F007030120895C98400840704710B56F
:10D52000C20800F00703885C01249C402043885413
:10D5300010BD10B560B1C160172120F8021B20F8A2
:10D54000021B1B2100F8021BFFF702FB002010BD8D
:10D550000E2010BD7CB50C468188002933D102888D
:10D560000025102A06D0112A09D03A2A0BD0552AB4
:10D570002ED129E00146204601F074FD28E0A01DCF
:10D58000FFF7E6FA24E02246408934F8063F83425A
:10D5900000D818466080172800D217206080D06815
:10D5A00078B1607968B1174BD3E90003CDE9000386
:10D5B000ADF802106088ADF80400D36869461046E3
:10D5C0009847657125717CBD0146204601F08CFDB0
:10D5D000A07A0028F7D02846E188A5DF012670B19F
:10D5E0001128F0D001F0D0FA0246074807A10088C0
:10D5F00002B006EB0040BDE8704000F0D3BEA5725B
:10D60000E6727CBD8C1C0200FC1C002073645F620F
:10D610006C655F67617474635F65786368616E678A
:10D62000655F6D74755F7265717565737428292007
:10D6300072657475726E65642025732E000000009B
:10D6400020B10278DE2A03D0082070470E207047F0
:10D6500041800020704760B159B10278DE2A0AD0BB
:10D6600009684160DE2101704FF6FF7141800020A2
:10D6700070470E207047082070477FB50546002987
:10D680004DD0002D4BD008780C46DE2847D1A88815
:10D690006188884202D1204603F0FEFF28880128D5
:10D6A00025D002283BD011283AD0512837D135F85F
:10D6B000040F6188884232D1A978A81C02292ED192
:10D6C000017A042903D0062901D0052927D1002198
:10D6D000009102228DF8002001914FF4C072029156
:10D6E0000391ADF80420007A05280FD010E0297AC4
:10D6F0002046012913D1A988428891420FD10121E6
:10D70000017204B0BDE8704003F0C6BFADF804106C
:10D7100028886946B0DF002801D0616888477FBD4E
:10D72000A88861888842FAD14FF6FF7060807FBD7B
:10D7300000F180400068002800D00120704708B543
:10D7400000F18040002101600068009008BD0000E9
:10D7500070B50B4C207808B185250FE00020A06043
:10D7600060602061E060074801F03AFA054601F088
:10D7700095F908B901F01EFA01202070284670BD05
:10D78000B021002095B3010038B500258DF8005078
:10D790006846FCF703FC074CE068401EE060E06868
:10D7A00010B901F02DFAA5709DF80000FCF71AFCE5
:10D7B00038BD0000B021002070B5064604780C4842
:10D7C00088B0154640F82420094A0869121D42F81D
:10D7D000240020226846FBF749FE04940DB1054A57
:10D7E00000E000226946301D01F032FB08B070BD38
:10D7F000C41B0020F51302000FB408B503990029DB
:10D8000004D004AA00926A4600F00FF801B05DF857
:10D8100014FB10B582680446002A05D0D4E904033D
:10D82000216898470020A06010BD2DE9FC47914673
:10D830000C00804676D014F8011B39B125290ED092
:10D840004046FDF71FFD20780028F4D198F80C0021
:10D85000002867D04046BDE8FC47FFF7DABF00204C
:10D86000012221782B291BD02D2902D0302908D163
:10D8700002E040F0010001E040F00200641C002AD8
:10D88000EFD100252A290ED02178A1F130020A2AF1
:10D8900011D205EB850201EB4205641C303DF1E736
:10D8A00040F00400EAE7D9F800100B1DC9F8003079
:10D8B0000968641C0D44217800232E290BD114F82B
:10D8C000011FA1F130020A2A05D203EB830201EB0A
:10D8D0004203303BF3E76C290DD068290BD069294E
:10D8E00021D00BDC252918D0582931D063290ED03E
:10D8F000642915D117E014F8011FECE7702969D0ED
:10D90000732932D075291BD0782909D120E0D9F8A4
:10D910000000011DC9F8001001784046FDF7B2FC77
:10D92000641C90E76CE0D9F800100A1DC9F80020CB
:10D930000968CDE900500A224046FEF7F3FFEFE701
:10D94000D9F800100A1DC9F8002009680A2206E06B
:10D95000D9F800100A1DC9F8002009681022CDE985
:10D960000050404603F0EEFDDAE7D9F8001000273A
:10D970000A1DC9F800200E68C00705D112E0404614
:10D98000761C7F1CFDF77EFC31780029F7D104E07E
:10D99000202140466D1EFDF775FCBD42C0D9002D0B
:10D9A000F6D1BDE74EB13046FBF784FD074604E0F3
:10D9B000202140466D1EFDF765FCBD4206D9002DB5
:10D9C000F6D103E04046761CFDF75CFC3178002977
:10D9D000F8D1A5E7D9F80000011DC9F800100568C5
:10D9E00030214046FDF74EFC78214046FDF74AFCC9
:10D9F00008200021CDE90001034610222946B0E7A6
:10DA0000BDE8FC872DE9F84F2B4E04009A4630887C
:10DA10004FF001031546894603EB004024D02168EE
:10DA200000292BD0002D32D0626849464FF01007F4
:10DA30001268A2F1010C1CEA090F11D198466A4341
:10DA40002046FCF783F800282AD0206853462A464F
:10DA5000066901B049462046B446BDE8F04F60472C
:10DA6000164B17A2009721E00E210091134B1EA226
:10DA70001FA100F0A6FC0E20BDE8F88F0821009140
:10DA80000E4B26A21AA100F09CFC0820F4E7092105
:10DA900000910A4B24A216A100F093FC0920EBE7A9
:10DAA00000973188054B214A08EB014010A100F096
:10DAB00088FC1020E0E70000181D0020B71D0200C0
:10DAC000616464725F69735F706167655F616C69EF
:10DAD000676E656428705F66732C20706167655F90
:10DAE0006164647229000000705F667300000000CA
:10DAF000257320636865636B206661696C656420CB
:10DB0000696E202573282920776974682076616CF6
:10DB1000756520307825782E00000000705F6673F0
:10DB20002D3E705F617069006C656E00B42002006C
:10DB300038B503000F484FF001054FF00E04008880
:10DB400005EB004009D061B119600C6801B0A44632
:10DB5000BDE83040114618466047074B07A20094C5
:10DB600002E0054B07A2009408A100F02AFC0E2059
:10DB700038BD0000181D00206C1D0200705F667328
:10DB800000000000705F6170690000002573206371
:10DB90006865636B206661696C656420696E202529
:10DBA00073282920776974682076616C7565203048
:10DBB0007825782E000000002DE9F04128B1016899
:10DBC00019B1C969BDE8F04108470D4D0D48002461
:10DBD000461B14270DE000BF04EB840005EB80001A
:10DBE000016829B1C969884710B10120BDE8F081F9
:10DBF000641CB6FBF7F0A042EED80020F6E7000068
:10DC0000E81C0020FC1C0020044801214174007A1B
:10DC100008B100207047012070470000E824002070
:10DC2000012801D0032808D10449002201284A74A0
:10DC300000D00020087402F04BBB7047E82400209D
:10DC400070B50246022801D0032A45D1234C207A20
:10DC5000002841D0012833D0022831D120480023A8
:10DC6000022A006802D0032A2AD11BE0E36001796E
:10DC700011B1012924D10DE0D0E90565711B4FF4E4
:10DC80008056B14200D33146294481614569A94299
:10DC90000ED015E00169491C0161426991420FD122
:10DCA000237213E0E168491CE160082908D9E360A8
:10DCB0002372022A0AD00D21FDF7EAFD02F0AEFA26
:10DCC000607C28B1BDE8704000F0EEBE0021F3E7B3
:10DCD000BDE8704002F0FCBA70BD0000E8240020EE
:10DCE000641C00202DE9F84F3A4D04008B4628882B
:10DCF0004FF00106DDF828A0984691464FF00E013E
:10DD000006EB00401AD0B9F1000F1BD021680029A2
:10DD100020D00921B8F1000F25D062685368B8FB04
:10DD2000F3F703FB1782002A21D02B4B2BA2009183
:10DD300035A100F046FB0920BDE8F88F264B3DA237
:10DD4000009102E0244B3DA200912FA100F039FB8D
:10DD50000E20F1E7082100911F4B3AA22AA100F002
:10DD600030FB0820E8E71C4B39A20091E0E7584659
:10DD7000FBF7E6FE102798B14846FBF7E1FEB0B18D
:10DD8000424659462046FBF7E1FEB8B1CDF800A067
:10DD9000206843464A46C56859462046A847CBE70F
:10DDA000009728880C4B06EB00402AA20CE0009755
:10DDB0002888094B06EB00402CA205E00097288834
:10DDC000054B06EB004032A20FA100F0FAFA10203A
:10DDD000B2E70000181D0020A41D020021286C6578
:10DDE0006E202520705F66732D3E705F666C6173D8
:10DDF000685F696E666F2D3E70726F6772616D5FEE
:10DE0000756E697429000000257320636865636B73
:10DE1000206661696C656420696E2025732829205D
:10DE2000776974682076616C756520307825782E66
:10DE300000000000705F667300000000705F737286
:10DE400063000000705F66732D3E705F6170690053
:10DE50006C656E00616464725F69735F616C6967B1
:10DE60006E6564333228646573742900616464727A
:10DE70005F69735F616C69676E656433322828750A
:10DE8000696E7433325F7429705F737263290000A6
:10DE9000616464725F69735F77697468696E5F62F9
:10DEA0006F756E647328705F66732C20646573747D
:10DEB0002C206C656E29000070B541EA4201DDE955
:10DEC00004564FF0A04441EA830141EA052104EBE6
:10DED000800041EA0641C0F8001770BD70B541EA04
:10DEE0004201DDE904564FF0A04441EA830141EAD2
:10DEF000052104EB800041EA0641C0F8001770BD1F
:10DF000070B541EA4201DDE904564FF0A04441EA10
:10DF1000830141EA052104EB800041EA0641C0F893
:10DF2000001770BD1CB5002100910B460122019124
:10DF3000FFF7E6FF1CBD1CB500220B460092114600
:10DF40000192FFF7DDFF1CBD1CB5002100910B46BF
:10DF5000012201911146FFF7D3FF1CBD4FF0A042F3
:10DF600002EB8000D0F8002722F44032C0F80027EE
:10DF7000D0F8002742EA0141C0F80017704701229B
:10DF80004FF0A043824011B1C3F808257047C3F891
:10DF90000C25704718B5084B6C4601441B6800936C
:10DFA00006E000BF54F82030D3F81035401C08C2FA
:10DFB0008142F7D818BD00002C1D0200034908B5A6
:10DFC0000844002101600068009008BD0060004026
:10DFD00002494058012800D00020704700600040EE
:10DFE00030B5124B01460020D3F81044224609E018
:10DFF000157A854205D1401C0A28F7DB4FF0FF3027
:10E0000030BD5268002AF3D1421CF9D00872D3F80F
:10E0100010242AB152684A60D3F81024516030BDF0
:10E020000022C3F810144A6030BD0000082600200A
:10E03000F0B595B01C4615460F4608461A9E00F0EE
:10E040001BFB182109A8FBF72AFA0E96CDE9095403
:10E050000023082203A9384600F023FB0598069008
:10E06000BDF81000ADF81C00BDF81200ADF81E00A0
:10E0700000208DF821000398082600F003000128F5
:10E0800002D0022818D032E003983346850AC0F344
:10E09000C2008DF8200003980FA9C0F38314A200DA
:10E0A000384600F0FEFA09A8009006AB22460FA9F8
:10E0B000284600F03DFA1AE00398840DC0F3C20030
:10E0C0008DF82000082C01D2254600E008253346B3
:10E0D0002A460FA9384600F0E4FA2E44641B09AB27
:10E0E00006AA29460FA800F075F9002CEAD1384697
:10E0F00000F0C8FA15B0F0BD7047012003F052B926
:10E1000010B5044800F030FFBDE81040002003F0D7
:10E1100049B900007C1C002008B5034A0092402346
:10E12000024AFFF785FF08BD490A020008250020C2
:10E130000A4A012902EBC00007D0022907D00329AF
:10E1400007D0042907D00020704702207047042020
:10E15000704700797047407970470000A827020097
:10E1600010B5FFF7CAFF04210348FFF739FF024942
:10E170000120487210BD0000841C00202DE9F04FE2
:10E180008DB0FDF78FF818B100200DB0BDE8F08F0D
:10E190007A4C4FF0000BC4F818B4BFF34F8F60688F
:10E1A0000290A568D846284004EB800008E021686A
:10E1B0000298814201D86160E6E7284004EB8000C4
:10E1C0000C3002A9FEF742FC0028F0D105AA029902
:10E1D00001EA050304EB8303491CDB6842F82030A5
:10E1E000401C02910228F2D3059800F00300022897
:10E1F00002D001284ED0A9E005985022810D894611
:10E20000B2EB905F00D850210E4666F39F50059008
:10E2100008315B4800F0E7F9070079D000F02CFAEC
:10E220004346082205A9384600F041FA029908F150
:10E23000080A2940681A8000001D864223D94F4DE4
:10E240000C3530B1C2B204EB8101301A90460C316A
:10E2500004E02946F2B2002590462846C6B253464D
:10E26000384600F024FA0AEB08032DB1324629465D
:10E270004FEA070000F01BFA029909F1030001EBD5
:10E28000900002903BE004EB810153463246384651
:10E290000C31EFE70598C0F38310062800D3062061
:10E2A000059960F38911C1F38310801C05918100E9
:10E2B000334800F098F9070048D000F0DDF94346F4
:10E2C000082205A9384600F0F2F908F108080026EE
:10E2D0000FE00298434600EA0501401C04EB81016F
:10E2E0000290042238460C3100F0E1F908F10408EC
:10E2F000761C0598C0F38310B042EAD847B1D4F831
:10E300001054D4F8180468B1384600F0BBF92FE077
:10E310001CE0687A012804D12A6828463946126828
:10E3200090476D68002DF4D1384600F0ABF98DF8B8
:10E3300000B06846FBF732FED4F8180408B902981A
:10E3400060609DF80000FBF74DFE11E0D4F810442A
:10E3500004E021682046896888476468002CF8D169
:10E3600008480221008801EB004007A100F016F8E0
:10E37000FCF798FF80F0010007E700000826002066
:10E3800020280200281D00204261636B656E6473C3
:10E3900020666C75736865640000000000231A46EF
:10E3A00002F0C8BE08B5012300926A4602F0C2FE20
:10E3B00008BD1CB5CDE9002302236A4602F0BAFE6F
:10E3C0001CBD3EB5069C8DE81C0003236A4602F086
:10E3D000B1FE3EBD2DE9F0470E4680461C469246F2
:10E3E00008293ED894F80C90002020731946104656
:10E3F00001F0B2FE0025B54206D218F805201AA198
:10E400002046FFF7F9F903E019A12046FFF7F4F9D8
:10E410006D1C082DEFD317A12046FFF7EDF900255D
:10E42000B54210D218F80570FBF71CF80068C05D03
:10E4300010F03E0F01D03A4600E02E220EA12046F9
:10E44000FFF7DAF903E00DA12046FFF7D5F96D1CBF
:10E45000082DE5D301222146504601F05FFE84F8E5
:10E460000C90BDE8F08700002025303278000000D5
:10E47000202020007C000000256300002000000018
:10E48000104810B5FF218160002101604160C0F893
:10E490001814C0F8141480F820140B4800F0F0F899
:10E4A00000280DD109480A490A4B401AC10800202A
:10E4B00003E000BF23F82000401C8842FAD300206C
:10E4C00010BD00000826002020280200202802009D
:10E4D000A8270200FC1C002002480349401AC0087B
:10E4E0007047000020280200A827020013B56846E4
:10E4F000FEF736FE08B100201CBD0248009950F816
:10E5000031001CBDA827020070B508480125D0F8CD
:10E51000104480F8205405E065722168204649685F
:10E5200088476468002CF7D170BD000008260020E1
:10E530002DE9FF4781460C9D00200C462F7B287358
:10E54000984616462946184601F006FE072E42D286
:10E55000DFE806F004090F161F2A36004946284650
:10E56000FFF74AF937E0494628462268FFF744F9A1
:10E5700031E0D4E9002349462846FFF73DF92AE077
:10E58000A0680090D4E9002349462846FFF734F9F3
:10E5900021E0D4E90201CDE90001D4E90023494694
:10E5A0002846FFF729F916E004F1080007C88DE8AE
:10E5B0000700D4E9002349462846FFF71DF90AE081
:10E5C00004F108000FC88DE80F00D4E90023494684
:10E5D0002846FFF711F900222946404601F09EFD2A
:10E5E0002F73BDE8FF872DE9F041858A80462D1FF6
:10E5F0004819C01CB0FBF5F0C6B24046FEF735FF27
:10E60000041E19D00020207101206071E5800027D0
:10E610002546761EC4F800800BE04046FEF725FF35
:10E6200060B16179491C6171286005467F1CC0F8A2
:10E630000080B742F1D32046BDE8F081204600F0CB
:10E6400002F80020F8E72DE9F041457901466B1EFC
:10E65000002201E00968521C9A42FBD30F68014670
:10E66000002605E038460C68FEF721FF2146761C9F
:10E67000AE42F7D3BDE8F0810121001DFEF7C9BE0F
:10E68000FEF72DBF10B504460121001DFEF7E7FE81
:10E6900010F0FF0F04D12046BDE81040FFF7D3BFB4
:10E6A00010BD38B501240094FEF71EFD38BD38B505
:10E6B00000240094FEF718FD38BD0000064910B58F
:10E6C00000204870091D0860BFF35F8F03490448AC
:10E6D00000F016FA002010BD6C1C0020141E020071
:10E6E000FC24002010B500F0D9F908B141DF10BDBD
:10E6F00020BF40BF20BF10BDFBF7B4BB20B1034912
:10E7000009680160002070470E2070470020020059
:10E71000FEB502460E460846FFF7F0FF002868D116
:10E72000002400940194012506208DF80020ADF806
:10E73000040002948DF8025069462020326869DF97
:10E740002C4F48B100F020FA3988024605EB01430E
:10E7500029491846FFF726FE0094019402948DF88B
:10E76000015069464020326869DF40B100F00CFA80
:10E7700002463888214905EB0040FFF713FE00945C
:10E78000019402948DF8004069460120326869DFE7
:10E7900040B100F0F9F902463888194905EB00400C
:10E7A000FFF700FE4FF4B0600090019402946946B8
:10E7B000A120326869DF40B100F0E6F902463888EE
:10E7C000104905EB0040FFF7EDFD00940194029421
:10E7D0008DF800406946A020326869DF40B100F042
:10E7E000D3F902463888084905EB0040FFF7DAFD07
:10E7F0000020FEBD301D00204C26020094260200A1
:10E80000AC250200F8250200582502002DE9F04150
:10E810000446D0F8008060DF2168194D0746414565
:10E820001CD92888022606EB004016A1FFF7B6FD8A
:10E830002888424606EB00401EA12368FFF7B9FD79
:10E84000F006D0F80C012168800200F10050421A55
:10E85000288825A106EB0040FFF7A4FD012467B13D
:10E86000384600F091F9024628882AA104EB0040BE
:10E87000FFF798FD3846BDE8F0812E480470F9E7AF
:10E88000301D0020496E73756666696369656E7434
:10E890002052414D20616C6C6F6361746564206629
:10E8A0006F722074686520536F667444657669637F
:10E8B000652E00004368616E6765207468652052AC
:10E8C000414D207374617274206C6F636174696F61
:10E8D0006E2066726F6D203078257820746F20303E
:10E8E0007825782E000000004D6178696D756D20E7
:10E8F00052414D2073697A6520666F722061707095
:10E900006C69636174696F6E206973203078257853
:10E910002E00000073645F626C655F656E61626CFF
:10E920006528292072657475726E65642025732EC2
:10E9300000000000E31C002030B5144891B00078BE
:10E94000002820D05FF03405ADF8405010A903A88E
:10E9500061DF30B1052816D011B0BDE83040FBF7BB
:10E9600081BA03AC0A49684600F0CAF807E000BF64
:10E97000D0E9002120469047684600F0D8F8029878
:10E980000028E1D0F4E711B030BD0000E31C002006
:10E9900004200200F8B5134C2078C0B10120A0700B
:10E9A00001F0CEFE112814D0022001F0E1FE002576
:10E9B0008DF800506846FBF7F1FA11DF0646257026
:10E9C0009DF80000FBF70EFB2EB13046F8BD082085
:10E9D000F8BD0020F8BDA57002F068FB032001F02F
:10E9E000C7FEF6E7E01C00207CB5204C207808B17B
:10E9F00008207CBD0120A070002001F0A1FE11289C
:10EA000019D0002001F0B4FE1948002600680190DA
:10EA10008DF800606846FBF7C1FA164901A810DFBF
:10EA200005000AD0002020709DF80000FBF7DAFAFC
:10EA30002DB128467CBD00207CBD0120F3E7A670E7
:10EA400066700721162001F031FE08B1FBF70AFAC3
:10EA50000721152001F02AFE08B1FBF703FA02F0A6
:10EA600041FB012001F084FEE5E70000E01C0020EE
:10EA7000981F0200E99D01000EB50749684600F0A5
:10EA80003FF805E0D0E900108847684600F04FF8ED
:10EA900002980028F6D10EBDB41F0200014800788C
:10EAA00070470000E01C00200548817819B100780B
:10EAB00018B1FFF76FBF08207047FFF795BF000040
:10EAC000E01C00201FB568464BDF30B1052814D08C
:10EAD00004B0BDE81040FBF7C5B9084901A800F033
