:020000040001F9
:1090000078270020F99201000193010003930100E9
:10901000059301000793010009930100000000007F
:109020000000000000000000000000000B930100A1
:109030000D930100000000000F9301001193010047
:10904000F1950100139301001393010013930100A4
:109050001393010000000000299401001393010004
:109060001393010013930100139301001393010064
:109070001393010013930100139301001393010054
:10908000139301004996010013930100139301000B
:109090006D96010013930100719601001393010076
:1090A0001393010013930100000000000000000072
:1090B0001393010013930100000000000000000062
:1090C00000000000000000000000000000000000A0
:1090D0000000000000000000000000000000000090
:1090E0000000000000000000000000000000000080
:1090F0000000000000000000000000000000000070
:10910000000000000000000000000000000000005F
:10911000000000000000000000000000000000004F
:10912000000000000000000000000000000000003F
:10913000000000000000000000000000000000002F
:10914000000000000000000000000000000000001F
:10915000000000000000000000000000000000000F
:1091600000000000000000000000000000000000FF
:1091700000000000000000000000000000000000EF
:1091800000000000000000000000000000000000DF
:1091900000000000000000000000000000000000CF
:1091A00000000000000000000000000000000000BF
:1091B00000000000000000000000000000000000AF
:1091C000000000000000000000000000000000009F
:1091D000000000000000000000000000000000008F
:1091E000000000000000000000000000000000007F
:1091F000000000000000000000000000000000006F
:10920000DFF80CD000F0FEF80048004791A90100FB
:109210007827002030B4044654E8000F0D4644E897
:109220000053002BF8D1156030BC704730B40446B1
:1092300054E8000F40EA010544E80053002BF7D141
:10924000156030BC704730B4044654E8000F00EAA3
:10925000010544E80053002BF7D1156030BC70477E
:1092600030B4044654E8000F80EA010544E8005396
:10927000002BF7D1156030BC704730B4044654E879
:10928000000F00EB010544E80053002BF7D11560F7
:1092900030BC704730B4044654E8000FA0EB010521
:1092A00044E80053002BF7D1156030BC704770B410
:1092B00004464FF0000054E8006F0D68AE4207BF4F
:1092C00044E80023012044E800630E60002B1CBF2B
:1092D0000020F0E770BC704730B4044654E8000F3B
:1092E00088422CBF451A054644E80053002BF5D1AF
:1092F000156030BC704700000648804706480047AC
:10930000FEE7FEE7FEE7FEE7FEE7FEE7FEE7FEE735
:10931000FEE7FEE775960100019201002DE9F05F7E
:109320000546002092469B468846064681464024D4
:109330001BE0284641464746224600F053F8534674
:109340005A46C01A914110D311461846224600F0E1
:1093500016F82D1A67EB01084F462246012000211E
:1093600000F00DF817EB00094E41201EA4F1010496
:10937000DFDC484631462A464346BDE8F09F202AB6
:1093800004DB203A00FA02F1002070479140C2F15C
:10939000200320FA03F319439040704740EA010389
:1093A0009B0703D009E008C9121F08C0042AFAD29B
:1093B00003E011F8013B00F8013B521EF9D270475F
:1093C000D2B201E000F8012B491EFBD27047002207
:1093D000F6E710B513460A4604461946FFF7F0FFB4
:1093E000204610BD202A04DB203A21FA02F0002199
:1093F000704721FA02F3D040C2F1200291400843A5
:1094000019467047064C074D06E0E06840F001033E
:1094100094E8070098471034AC42F6D3FFF7F4FE07
:10942000B8BC0100D8BC01002DE9F04700268AB085
:10943000DFF85091B0464FF4807501243746069608
:10944000284601F0DBFD38B1D9F80403204203D0EF
:10945000284601F0C9FD26432D1D64007F1CADB2D6
:10946000082FEDD34FF4BE74204601F0C7FD48B17C
:10947000204601F0B9FD46F0004606AA0121002071
:1094800001F09EFD404D16F0FF0F15D0012700247E
:1094900037420DD009EB8401D1F81005D1F8101531
:1094A000C0F3042055F82420C1F3014102B19047D4
:1094B0007F00641C082CEBD3002E5FDA4FF0FF30E6
:1094C000CDF8108054E0281910F8507F90F9000072
:1094D00027F0C008401C3BD007A9404601F0CBFB59
:1094E00010B34FEA9719404600F08EFF55F82070F0
:1094F0001FB1B9F1030F03D006E0B9F1030F27D173
:1095000004A9404601F0BFFB4FF0A04101EB8800E9
:10951000D0F8000706A9C0F3014A404601F0ABFBB2
:1095200018B1BAF1020F03D012E0BAF1030F0FD154
:10953000B9F1030F08D1BAF1020F1DD00221404644
:1095400001F022FD761CF6B217B149464046B847F5
:10955000641C042CB7D3002E10D06A4601210020D1
:1095600001F02EFD06990098884207D006900498D5
:10957000002634460790A6E70321E0E70AB0BDE8DD
:10958000F087000000600040D41D002000F01F02A2
:10959000012191404009800000F1E020C0F88012D4
:1095A000704700F01F02012191404009800000F146
:1095B000E020C0F80011704700F01F020121914027
:1095C0004009800000F1E020C0F800127047490710
:1095D000090E002806DA00F00F0000F1E02080F804
:1095E000141D704700F1E02080F80014704700005F
:1095F00070B54FF48076304601F05EFC114CB50535
:1096000060B1304601F05FFC0120C5F808036079C5
:1096100020B9012060712168002088474FF48276CC
:10962000304601F049FC00280AD0304601F04BFCDE
:109630000220C5F808032168BDE8704001200847F2
:1096400070BD0000481C002007480021C0F84011F0
:10965000C0F84411C0F84811C0F84C11C0F800110E
:10966000C0F8041102F0BAB90010014002F004B9C8
:1096700001F0D2BDF0B5A848A74B012600781B1D0C
:109680001A1D4FF0805106280BD11C78240708D1F1
:109690001478C4F30314032C06D0042C04D0052C36
:1096A00002D0062807D011E0B1F824439B4DC4F343
:1096B00004242C6002E01C78240707D11478C4F33A
:1096C0000314032C02D1974D954C6C67D1F830519F
:1096D000D1F84442944FC4F342343C6006280CD184
:1096E0001C78240709D11478C4F30314032C04D183
:1096F0008E4C276827F0807727604FF08047002442
:10970000C7F80C41C7F81041874F3F1F3C6006283F
:1097100007D11F783F0704D11778C7F30317032F2A
:1097200002D0062808D01FE0DFF8FCC103270CF1A7
:10973000640CCCF8007007E01F783F0714D117784D
:10974000C7F30317032F0FD1DFF8E4C10527CCF8C7
:109750000070774F78373E60754F08373C600CF1EA
:10976000040C3F27CCF80070724F3F68DFF8C8C187
:10977000CCF800706F4F3F1D3F680CF1040CCCF823
:1097800000706C4F08373F680CF1040CCCF8007087
:10979000684F0C373F680CF1040CCCF80070654F33
:1097A00010373F680CF1040CCCF80070614F14378F
:1097B0003F680CF1040CCCF800705E4F18373F681E
:1097C000DFF874C10CF1200CCCF80070594F1C3735
:1097D0003F680CF1040CCCF80070564F20373F68FE
:1097E0000CF1040CCCF80070524F24373F680CF198
:1097F000040CCCF800704F4F28373F680CF1040C74
:10980000CCF800704B4F2C373F680CF1040CCCF8AF
:109810000070484F30373F68DFF81CC10CF1400C36
:10982000CCF80070434F34373F680CF1040CCCF88F
:109830000070404F38373F680CF1040CCCF80070D2
:109840003C4F3C373F680CF1040CCCF80070394FAA
:1098500040373F680CF1040CCCF80070DFF8DCC036
:10986000FB27CCF80070062813D11F783F0710D1D2
:109870001778C7F30317032F03D0042F01D0052F48
:1098800007D1D1F85872DFF8B8C007F04F07CCF80D
:1098900000702C480268D20702D06FF0010202600B
:1098A000062D08D1D1F83401062804D126480168D4
:1098B00041F4806101604FF01021D1F800020028CE
:1098C00003DBD1F80402002822DA204A166020487F
:1098D0000368002BFCD01523C1F800320568002D69
:1098E000FCD0C1F8043201680029FCD01460016882
:1098F0000029FCD0BFF34F8F0C48F0380168154A9F
:1099000001F4E06111430160BFF34F8F00BFFDE739
:10991000124911480860F0BDE00F00F040350140E9
:109920000DF0ADBA00C007403C050040FCED00E082
:10993000105600400404001020C5004018F50040F7
:10994000E40E0040000400403C17004004E50140E4
:1099500000E401400400FA050090D003901C0020B0
:1099600002E008C8121F08C1002AFAD170477047E8
:10997000002001E001C1121F002AFBD17047000046
:109980000121202803DA81400548014003E04028F6
:1099900002DA2038814009B1012070470020704769
:1099A000FC06FFBD082806D228B1012803D00428F0
:1099B00001D00120704700207047000010B592B020
:1099C00005243C216846FFF702FD5920ADF83C0014
:1099D0001820ADF84000124811900FA8114A0990C4
:1099E0008DF8034002CA684600F076F908B100F02D
:1099F00085F80C480A4A10382C3A807840B109485A
:109A000000210D3872DF07E000F078F812B010BDC9
:109A10000449A1F10D0072DF0028F5D1F6E700003E
:109A20001C1D0020281C0020022000F0D1BA0000DC
:109A300070B50024064D06E06868012110F8340076
:109A400001F084FC641C28788442F5D3002070BDAA
:109A5000501C0020F8B515460C460646052A01D2D2
:109A60000720F8BD01F06EFD18B901F033FD0028A4
:109A7000F7D1124900224E600C708D60C1E90422BA
:109A8000C1E906220E4D0DE006EBC40029680091E5
:109A900081788DF8011000780A4A694601F0A8FC27
:109AA0000028DED1641EE4B2EED2BDE8F8400448DE
:109AB0000021054A001D00F02DB80000501C0020B8
:109AC000E0BB0100C1A70100E5A6010072B609488C
:109AD0000068C00700D000BEBFF34F8F0548E438D0
:109AE0000168054A01F4E06111430160BFF34F8F43
:109AF00000BFFDE7F0ED00E00400FA050EB500211F
:109B00000091CDE901106A4644F20100FFF7DEFF43
:109B10000EBD0000074B9B7823B12AB120B100682D
:109B2000037C1BB1082070470720704741744261D5
:109B300000207047501E002070B501F057FD1048FE
:109B400000240B21047044700E4D817014206C6051
:109B50002C706C70FFF71AFD07211420FFF737FDFA
:109B60001420FFF71EFD0848046007211120FFF7AD
:109B70002EFD0548001F0068A860002070BD000091
:109B8000501E0020701C0020081501402DE9FC47E4
:109B9000DFF8789099F8023073B368B3052902D2E0
:109BA0000720BDE8FC87436933B3437C012B25D0F4
:109BB000002704460025884616468DF80050684662
:109BC00000F038F801A801F05BFFC8B10121017075
:109BD0000F4944600968C0E90218C0E904769DF89D
:109BE000040089F801009DF8000000F047F81420F7
:109BF000FFF7E2FC2846D4E70820D2E70F46D8E773
:109C000004259DF8000000F039F8F3E7501E00200D
:109C1000041501400649897839B130B1416921B153
:109C200000210174022101F0B5BE08207047000038
:109C3000501E002030B5EFF3108172B60D4A9468C3
:109C4000012324B10370002900D162B630BD9360B6
:109C50004FF0E023D3F88051074C25401560C3F83E
:109C60008041D3F8844154605A17C3F884210022FC
:109C70000270E8E75C1F0020FC06FFBD0B498A6804
:109C8000002A11D000280FD1EFF3108072B60B68B4
:109C90004FF0E022C2F800314B68C2F804310022D4
:109CA0008A60002800D162B6704700005C1F002067
:109CB00010B5084C6068FFF7ADFF08B1FFF71EFF55
:109CC0002068FFF7A7FF002803D0BDE81040FFF78A
:109CD00015BF10BD80BB01002DE9FC47002517888A
:109CE0000646158090F82D001446894630B13A4654
:109CF0002146484600F0B1F8051E09D1B0784FF072
:109D00000C0A18B32088C846001DB84202D9504634
:109D1000BDE8FC87684679DF0028F9D12088032157
:109D200008F8001020881921401C80B2208008F813
:109D300000102088401C80B2208000EB0801BDF894
:109D4000000001F085FE218808442080F07802227E
:109D5000C8B1218896F9033001F1030C4846BC458F
:109D6000D5D8425421884FF0010C491C89B221807A
:109D700000F801C02188491C89B2218009F801300E
:109D80002088401C20807068B8B1218890F900308C
:109D900001F1030C4846BC45B9D8425421880A2237
:109DA000491C89B2218042542188491C89B22180F2
:109DB00009F801302088401C2080308950B1CDE95D
:109DC00000474B460622022106F1080001F070FE12
:109DD000051E9DD1308A50B1CDE900474B46072280
:109DE000032106F1100001F063FE051E90D1308BB7
:109DF00050B1CDE900474B461522142106F1180059
:109E000001F056FE051E83D1306A30B13B46224632
:109E1000494600F021FC051EDBD1706A30B13B469B
:109E20002246494600F08AFE051ED2D196F82C0043
:109E300038B13B4622464946304601F06DFC051ECE
:109E4000C7D1307838B13B4622464946304600F00B
:109E5000A7FE051EBDD128465AE77CB505460888F1
:109E60000C460930904201D90C207CBD68466DDF5C
:109E70000028FAD121880820685420881B21401C22
:109E800080B2208029542088401C80B22080284441
:109E9000DDF801100160BDF8051081802088801D6B
:109EA00080B220809DF80010490800D0012129547B
:109EB0002088401C208000207CBD000038B501882F
:109EC000224C3B2939D00CDC102914D0112918D090
:109ED000212922D0262929D1007A012826D133DF51
:109EE00015E050292DD0522921D056291ED1808825
:109EF000132176DF0BE08188A180154800F064FF14
:109F000005E04FF6FF70A080FFF7D2FE33DF002898
:109F10000CD0BDE83840FFF7F1BD002100918088EA
:109F200069468FDF002801D0FFF7E8FD38BD032325
:109F300000221146A088B1DFE9E78088132176DF8F
:109F4000E5E7BDE8384001F007BB0000181C002021
:109F5000E41C0020007800F0010070470649095C0D
:109F60004FF0A040D0F81005C84010F0010000D01C
:109F7000012080F0010070479CBB01002DE9FC41ED
:109F80000646C0074FF000050ED0104F00240122F6
:109F9000385D009500231146019500F0D1FF641C47
:109FA000042CF4D300F046F8B0070DD5074E00247A
:109FB000361D0022305D032300951146019500F007
:109FC000BFFF641C042CF4D3BDE8FC8198BB0100E6
:109FD00007490B5C4FF0A041D1F8042501209840BF
:109FE00020EA0203C1F808351040C1F80C0570479B
:109FF00098BB01000249085C012100F0D6BF0000B7
:10A0000098BB01000249085C002100F0CEBF0000AF
:10A0100098BB01000649095C4FF0A040D0F8040548
:10A02000C84010F0010000D0012080F0010070470E
:10A0300098BB010010B500242046FFF7DBFF641C2D
:10A04000042CF9D310BD10B500242046FFF7DAFF29
:10A05000641C042CF9D310BD10B50246064B4FF01A
:10A06000FF3000215C5C944201D1084610BD491CC0
:10A070000429F7D310BD00009CBB01002DE9F04777
:10A080000D468146FFF7E8FF0446042836D2DFF884
:10A0900074801B481C4EA8F10C0725B3012D0ED06F
:10A0A000022D2BD104EB440030444578002D25D0FF
:10A0B000B968002922D02846BDE8F047084704EBDC
:10A0C0004401755C0E44717849B10E4A4FF4004169
:10A0D000093A8068FFF75AFD08B987F80390B1780C
:10A0E00008F80410E2E78068FFF794FD04EB4401F0
:10A0F000314418F804008D78A842D7D0BDE8F08725
:10A10000A0BB0100441C0020941D002070B500235A
:10A11000042810D20D4D00EB4004012A02D1012980
:10A120000CD00022094E00EB4000304461B10129FF
:10A1300006D0022906D00723184670BD0E30C2B2E1
:10A140002A55F9E74270F7E78270F5E7941D002081
:10A1500070B506461E480024C0E90161B00720D54D
:10A160000025012211462846FFF7D0FF6D1C04464A
:10A17000042D02D2002CF4D013E094B940F26662B0
:10A1800004211448FFF766FC04000AD1FFF750FCD5
:10A19000040006D10F48104A0021001FFFF7BAFC47
:10A1A0000446F00712D00120FFF7E8FE74B9094811
:10A1B0000A4A00210C38FFF7ADFC040006D105481F
:10A1C000074A01210838FFF7A5FC0446204670BD68
:10A1D000381C0020ACBB01009DA3010075A8010044
:10A1E000299A01002DE9F05F6A4C05460026607847
:10A1F000B34618B184F801B000F024FB664F4FF469
:10A200007A694FF4C87A4FF00108182D62D2DFE85E
:10A2100005F0AC0C0C31404D62676B746B74BE7D05
:10A220007D7D7D7DACAFB2B5BEBE0020FFF7F2FEF6
:10A2300000284FF0000008D0FFF7DCFE022D02D10D
:10A240004FF4E16008E0484606E0FFF7DBFE022D30
:10A2500001D1C82000E05046410CC0034FF4FA720F
:10A26000801841F10001257052000023FFF756F8D5
:10A2700001462AE00020FFF7CDFE00284FF0000045
:10A2800004D0FFF7B7FE4FF44870E5E7FFF7BAFEDA
:10A29000DFE70020FFF7BEFE00284FF0000002D0ED
:10A2A000FFF7A8FECFE7FFF7ADFED4E70020FFF7EA
:10A2B000B1FE00284FF0000002D0FFF79BFE01E046
:10A2C000FFF7A0FE257041F69A1100223868FFF7CB
:10A2D0005DFC064646E00020FFF77AFE257008E0A8
:10A2E000002051E025703DE084F801800120FFF757
:10A2F0006FFE002240F6CD41E8E784F8018001209E
:10A30000FFF766FE00224FF48041DFE77868FFF731
:10A3100081FC0646D5F1110000D02EB10220FFF7D6
:10A3200069FE84F802B01DE0012816D980B2C82168
:10A330004843C117C90341EA5041C0034FF4FA72C0
:10A34000801841F1000152000023FEF7E7FF0146AB
:10A3500000227868FFF71AFC06460220FFF752FE3B
:10A3600084F802803046BDE8F09F00F06BFAB9E750
:10A3700000F068FAB4E700F065FA04E000F062FA71
:10A380000020FFF73FFE0120FFF73CFEAAE7FFF7A2
:10A390005AFEA7E7381C0020A0BB0100007802216C
:10A3A000FFF76CBE05494FF0FF32082841F8202026
:10A3B00002D3084480F8482070470000D41D0020D4
:10A3C000F0B54FF0FF3512B10023082601E0082355
:10A3D0000C260C4C05E000BF54F823707F1C04D001
:10A3E0005B1CB342F8D32846F0BD26185DB286F850
:10A3F000305044F82310002AF5D1E11881F84800C4
:10A40000F1E70000D41D00200249084490F9300013
:10A4100070470000D41D002030B58FB000240546E1
:10A4200007949DF81E001C2120F00600801C8DF86A
:10A430001E009DF81C0020F00F00401C20F0F000D2
:10A4400010308DF81C009DF81D0020F00F00401CFE
:10A4500020F0F00010308DF81D006846FEF7B7FFC1
:10A460009DF80000039440F012008DF8000007A84A
:10A47000CDE904408DF83A5041F22450ADF838004F
:10A480000D949DF83400019420F00F00401C20F042
:10A49000F00010308DF834009DF83500069420F05F
:10A4A000FF008DF835009DF83600142120F00600DD
:10A4B000801C20F019008DF8360008A8FEF787FFF1
:10A4C0000EA808900DA809901420ADF82800ADF84A
:10A4D0002C000848084B0C90A3F10800ADF82A4066
:10A4E00008AA6946C088AADF002801D0FFF706FB4A
:10A4F0000FB030BD081D0020201C002000B585B025
:10A5000017491420ADF810008888A0F57F42FF3A63
:10A5100023D00978002920D00021114B01220833D3
:10A5200000910191ADF810201B88ADF8041004A92A
:10A5300002910C49ADF8003003918DF80220694674
:10A54000AEDF002809D0082807D0132805D043F231
:10A550000141884201D0FFF7D1FA05B000BD0000EB
:10A56000181C0020081D002070B5084C050009D0FB
:10A5700010342168002907D00868206049682846FF
:10A580008847F6E70834F4E770BD0000C01D0020DE
:10A59000054A012120B1012805D19170FFF7E4BFE0
:10A5A00051700020FAE77047C01D00202DE9F05FD0
:10A5B00026484168F1B3DFF898B00E688146DBF8B1
:10A5C000004087688078E11B21F07F45ED1CB0B921
:10A5D000DFF880804FF48030C8F84403C8F80403E3
:10A5E0001120FEF7D3FF1120FEF7DBFF4FF0010A29
:10A5F000C8F800A02F2000F0A1FE89F802A0B54203
:10A6000000D23546124BE8193C3320F07F401860E9
:10A61000DBF800105A46091B21F07F41001B20F097
:10A620007F40C91C81420FD9106818602F2000F0AC
:10A6300085FE00E004E0BDE8F05F1120FEF7BCBF3E
:10A64000BDE8F05F00F0D2BFBDE8F09F701C0020B5
:10A6500004150140001001402DE9F041178806461D
:10A66000B81D14460D46984202D90C20BDE8F08171
:10A670003188072206290AD34FF4486C4FF6FF733E
:10A68000614501D9994202D17088062801D210464D
:10A69000ECE7604501D99842F9D1994203D098423C
:10A6A00001D08142F3D80520E85520881221401CB2
:10A6B00080B2208029542088401C80B2208041191B
:10A6C000308801F0C5F92188084480B22080411902
:10A6D000708801F0BDF92188084420800020C5E77A
:10A6E000FFF70CBF2DE9F0470025DFF890803DE033
:10A6F0006068002100EBC506012032789146FEF724
:10A700003EFED4E9062300EA020701EA030C57EAF9
:10A710000C0729D082438B434846C4E9062300F046
:10A72000CFFE32788246914601200021FEF727FEB7
:10A73000D4E9042300EA020401EA03074A4650462A
:10A740000021FEF71CFE44404F403C430CD1707882
:10A75000012801D0012000E00020726880EA0A0090
:10A7600012B1C1B2484690476D1CEDB298F8000096
:10A7700044468542BCD3BDE8F0870000501C002051
:10A780000E4910B50A784C780023A24212D0521C10
:10A79000D2B20A70022A00D10B70084A0B780C3230
:10A7A00052F8232002608868104420F07F408860BF
:10A7B000012010BD0360002010BD0000701C0020AF
:10A7C0002DE9F0418046024601200021FEF7D7FD29
:10A7D0001A4F05460E467868FFF71CFA00280CD180
:10A7E000174CD4E9062110462A4001EA06031A4311
:10A7F00005D0A843B143C4E90601BDE8F081404655
:10A8000000F05EFE30B1D4E9040128433143C4E9CD
:10A81000040105E0D4E90410A943B043C4E90410DD
:10A82000D4E9060128433143C4E90601A1687868E8
:10A83000BDE8F0410022FFF7A9B90000E0BB01002C
:10A84000501C00200A4810B5807860B1002401E057
:10A85000022C06D02046FFF7CDFB641C042CF7D356
:10A8600010BD0324F6E7BDE81040FFF7E3BB00008E
:10A87000381C002003480179C90702D00078FFF78F
:10A88000B1BC7047381C0020172101804180002195
:10A8900001714171704700002DE9F047394E0027E2
:10A8A00080463D46DFF8E090D6F804A057E003D09C
:10A8B0000446D0F81C8035E099F8002002EB4201F4
:10A8C000521CD2B289F8002009EBC10199F802307C
:10A8D000091D9A4201D189F8005048680A78044657
:10A8E000012A12D0022A02D0032A3BD108E001F04B
:10A8F00021F800B10127257434E00574C06900E037
:10A9000070680028F9D170602CE0207C50BB88680A
:10A910006060C868A0600869E0604869A061F0787C
:10A9200000B165606268B168184B501A20F07F4032
:10A93000984202D2A168084406E0881AA16820F073
:10A940007F40814202D9081A206000E025606560DE
:10A950000120A56020742046E56100F0CDFFB8F12C
:10A960000000A4D199F8001099F801008142A3D108
:10A9700017B97168514502D00120BDE8F087002069
:10A98000FBE70000701C0020501E0020FFFF7F002E
:10A990000EB5FFF7D1F808B1FFF7B0F85C4A012116
:10A9A0005C48FFF7B7F808B1FFF7A8F859485A4ACA
:10A9B0000021001DFFF7AEF808B1FFF79FF8002156
:10A9C0000320FFF7C5FB08B1FFF798F800F01EFB66
:10A9D00008B1FFF793F80020FFF7C0FA4F4E7070F0
:10A9E00018B90120FFF7BAFAB07000F0CDFB08B13A
:10A9F000FFF784F8002569460120009500F04EFB22
:10AA000008B1FFF77BF8684600F086FB08B1FFF756
:10AA100075F87078B178084301D100F015FB9DF806
:10AA200008003FA120F00F00401C20F0F000103083
:10AA30008DF80800112202A87CDF08B1FFF75EF84C
:10AA400000951020ADF800000195ADF80200ADF8BA
:10AA500004504FF4C870ADF8060068467ADF08B1BC
:10AA6000FFF74CF80021334800F017F908B1FFF761
:10AA700045F8314800902F486946103000F0AFF992
:10AA800008B1FFF73BF82B4C707801271C340028E5
:10AA900040F6B8384FF01801204622D0FEF797FC58
:10AAA0002770A4F80C80656025752020A06067756C
:10AAB00041F22350ADF8000016480DF102010830B4
:10AAC00062DF08B1FFF71AF8144A6946921D0120A7
:10AAD000A8DF08B1FFF712F89DF80200FFF79CFC11
:10AAE0000AE0FEF774FC04202070A4F80C80656076
:10AAF0002575A020A0606775FEF760FF0121F07842
:10AB000073DF08B1FEF7FAFF00F094FAFCE70000EB
:10AB1000E1A6010080BB01003DAC0100181C002033
:10AB20004E6F726469635F506F7765725F4D676DDA
:10AB300074000000D41C002085B0010070B51446DC
:10AB400082880E4605462088111D0144921C9942B8
:10AB500001D8FE2A01D90C2070BD521C3254208825
:10AB6000FF21401C80B2208031542088401C80B2DC
:10AB700020808119288800F06BFF2188084480B26A
:10AB80002080AA8842B1A96841B13044FEF706FC92
:10AB90002088A98808442080002070BD072070BD4F
:10ABA000F8B50F46017814460546012901D16878A9
:10ABB00030B12088821C9A422DD8012902D006E0AB
:10ABC0000720F8BD69780144891C994223D8181AD6
:10ABD000801E86B2ADF800602188B81C0844694622
:10ABE0007DDF0028EDD12878022805D1BDF80010BE
:10ABF000B14201D809210AE00821012805D168786D
:10AC0000B04202D8ADF8000001E0ADF80060BDF838
:10AC10000000FE2801D90C20F8BD2288401CB85441
:10AC20002088401C80B2208039542088401C20801D
:10AC3000BDF80010084420800020F8BD094810B578
:10AC40000068FEF7E7FF08B1FEF758FF064813213A
:10AC5000808876DF002803D0BDE81040FEF74EBFA5
:10AC600010BD000080BB0100181C002008B56A461A
:10AC7000FEF7D0FA08BDC20800F007030120895C86
:10AC800098400840704710B5C20800F00703885C80
:10AC900001249C402043885410BD10B560B1C160B0
:10ACA000172120F8021B20F8021B1B2100F8021BB1
:10ACB000FFF7EAFD002010BD0E2010BD2DE9FC4776
:10ACC00086880C46002E4AD10188012700251029CC
:10ACD00008D0112920D0DFF8EC903A2920D055294E
:10ACE00065D13EE0C07B04F10608012802D120882E
:10ACF000A8F80000B8F80010B8F80200814256D950
:10AD00003046A5DF10B1112803D050E088F8057057
:10AD10004DE088F804704DE0A01DFFF7B5FD46E05A
:10AD20002246408934F8061F814200D808466080D8
:10AD3000172800D217206080D06870B1607960B1A8
:10AD4000D9E90010CDE90010ADF802606088ADF8D7
:10AD50000400D36869461046984765712571BDE8BF
:10AD6000FC87C08804F10608172800D21720B8F81D
:10AD70000010814200D80846A8F8020088F8045064
:10AD80002846B8F80010B5DF98F8050078B9E068F3
:10AD900068B1D9E90210CDE90010ADF80260B8F849
:10ADA0000200ADF80400E268204669469047A07AA8
:10ADB0000028D4D02846E188A5DF0028CFD1A5728D
:10ADC000E772CCE7CCBB010020B10278DE2A03D0C9
:10ADD000082070470E20704741800020704760B106
:10ADE00059B10278DE2A0AD009684160DE2101707B
:10ADF0004FF6FF714180002070470E2070470820F9
:10AE000070477FB5054600294DD0002D4BD00878FE
:10AE10000C46DE2847D1A8886188884202D12046A6
:10AE200000F01BFE2888012825D002283BD01128DD
:10AE30003AD0512837D135F8040F6188884232D191
:10AE4000A978A81C02292ED1017A042903D0062949
:10AE500001D0052927D10021009102228DF8002080
:10AE600001914FF4C07202910391ADF80420007A71
:10AE700005280FD010E0297A2046012913D1A9888E
:10AE8000428891420FD10121017204B0BDE87040A7
:10AE900000F0E3BDADF8041028886946B0DF002853
:10AEA00001D0616888477FBDA88861888842FAD14F
:10AEB0004FF6FF7060807FBD00F180400068002881
:10AEC00000D00120704708B500F1804000210160EA
:10AED0000068009008BD000070B50B4C207808B1E8
:10AEE00085250FE00020A06060602061E0600748D9
:10AEF00000F006FA054600F0A1F908B900F0EAF9F9
:10AF000001202070284670BDC01D002091A50100C1
:10AF100038B500258DF800506846FEF78BFE074CCB
:10AF2000E068401EE060E06810B900F0F9F9A57033
:10AF30009DF80000FEF7A2FE38BD0000C01D0020F5
:10AF400070B541EA4201DDE904564FF0A04441EA00
:10AF5000830141EA052104EB800041EA0641C0F883
:10AF6000001770BD70B541EA4201DDE904564FF0AB
:10AF7000A04441EA830141EA052104EB800041EA53
:10AF80000641C0F8001770BD4FF0A04202EB8000F0
:10AF9000D0F8002722F44032C0F80027D0F800276C
:10AFA00042EA0141C0F80017704701224FF0A04368
:10AFB000824011B1C3F808257047C3F80C257047CB
:10AFC00018B5084B6C4601441B68009306E000BFAF
:10AFD00054F82030D3F81035401C08C28142F7D80D
:10AFE00018BD0000DCBB0100034908B5084400217E
:10AFF00001600068009008BD0060004002494058B0
:10B00000012800D00020704700600040064910B5BC
:10B0100000204870091D0860BFF35F8F0349044892
:10B0200000F030F9002010BD841C002008BC010095
:10B03000681F002010B500F001F908B141DF10BD14
:10B0400020BF40BF20BF10BD70B504460C48012191
:10B05000FFF70CFEBFF35F8F0025002809D1012008
:10B06000074E042C08D0311F4A781AB1BFF35F8F06
:10B07000356070BD0C70487000F092FBF6E7000080
:10B08000881C0020FEF73ABD20B103490968016021
:10B09000002070470E2070478CBC0100FEB50246B0
:10B0A0000C460846FFF7F0FF002834D10025009534
:10B0B0000195012606208DF80020ADF804000295C8
:10B0C0008DF8026069462020226869DF00950195AD
:10B0D00002958DF8016069464020226869DF00957D
:10B0E000019502958DF8006069460120226869DFAC
:10B0F0004FF4B0600090019502956946A120226846
:10B1000069DF0095019502958DF800506946A020F1
:10B11000226869DF0020FEBD60DF002802D1024AFC
:10B1200001211170704700008F1C002030B51448B9
:10B1300091B00078002820D05FF03405ADF8405081
:10B1400010A903A861DF30B1052816D011B0BDE801
:10B150003040FEF7D3BC03AC0A49684600F092F8D1
:10B1600007E000BFD0E9002120469047684600F084
:10B17000A0F802980028E1D0F4E711B030BD00003B
:10B180008F1C002090BC01007CB5204C207808B1B9
:10B1900008207CBD0120A070002000F08FFA11284B
:10B1A00019D0002000F0A2FA19480026006801908A
:10B1B0008DF800606846FEF73DFD164901A810DFD6
:10B1C00005000AD0002020709DF80000FEF756FD13
:10B1D0002DB128467CBD00207CBD0120F3E7A67080
:10B1E00066700721162000F01FFA08B1FEF786FCF2
:10B1F0000721152000F018FA08B1FEF77FFC00F0D7
:10B2000013FB012000F072FAE5E700008C1C00201F
:10B2100024BC0100CD9A01000EB50749684600F034
:10B2200031F805E0D0E900108847684600F041F8A1
:10B2300002980028F6D10EBD40BC010001480078FC
:10B24000704700008C1C00201FB568464BDF30B1F2
:10B25000052814D004B0BDE81040FEF74FBC0849E3
:10B2600001A800F00FF806E0D0E90021009890470F
:10B2700001A800F01EF803980028E6D0F4E71FBDEF
:10B28000ACBC0100016009684160AFF3008010B5FB
:10B29000D0E900215368994201D1002104E0D1E9AD
:10B2A0000034A34202D01946816010BD08314160CC
:10B2B000F0E7816800290BD0026892680A44826036
:10B2C00041684B689A4203D108314160FFF7DFBF04
:10B2D0007047000008480068012110F0010F08D1F4
:10B2E0004FF0E020E02280F80024C0F88012C0F87F
:10B2F000001102480160704700E100E018050040BD
:10B300000649024600200B790BB1852070470A6080
:10B3100001220A7100224A7170470000481C002077
:10B3200004490120086004480168C1F30041002974
:10B33000FAD170470C00004018040040002802D0E9
:10B340000149800108477047E9BB01002DE9F04140
:10B350008846054600F032F9234E002828461AD0C8
:10B36000FFF752F8304490F848008009032802D0D3
:10B3700001280ED007E04FF0A040D0F81005E840BB
:10B3800010F0010F05D003212846BDE8F041FFF77A
:10B39000FBBD0221F8E700F01DF9002822D0284665
:10B3A000FFF732F804464FF4807000EB84000F4F33
:10B3B00081B207EB8400D0F8102542F00102C0F8FA
:10B3C00010250846FFF710FEB8F1000F0AD02846F6
:10B3D000FFF71AF856F82000002803D00120A040FB
:10B3E000C7F80403BDE8F081D41D002000600040D0
:10B3F0002DE9FC41DFF8BC80044608EB040000277F
:10B4000090F930001346C0170E46401C01D00827A3
:10B410004CE0B0781946C0F340022046FEF7D0FF5A
:10B420000546401C41D0B078410719D4C0070AD066
:10B430004FF0A04000EB8401D1F8000720F002009B
:10B44000C1F8000707E000217378204600910A4602
:10B450000191FFF787FD174920465431FFF713FC90
:10B46000B078800718D51448317800EB8500D0F803
:10B470001025124B1A40C0F810254FF4F8524FF423
:10B48000403302EA042203EA01410A43D0F81015CE
:10B490000A43C0F8102509E008EB0500327810F8DF
:10B4A000481F41EA8211017000E004273846BDE8D8
:10B4B000FC810000D41D002000600040FFE0FCFF84
:10B4C0004FF0A041D1F81015C14011F0010000D09B
:10B4D0000120704770B5184D95F8580008B1082044
:10B4E00070BD0020411E2A18401CC0B282F83010E6
:10B4F0002028F8D300242046FEF754FF641CE4B251
:10B500000C2CF8D300240D49E0206C6581F8000470
:10B5100001264020891FC1F88002C1F800014FF4C4
:10B52000BE70FFF761FD0649F007C1F8040385F816
:10B530005860204670BD0000D41D002006E000E0E9
:10B5400000600040034890F85800002800D0012017
:10B5500070470000D41D002010B5164A30F8061FB1
:10B560009288914224D14189022921D10C30FEF7E1
:10B57000F1FC104908390870B0B10F4C002240F2BC
:10B580008F212068FEF702FB08B1FEF7B7FA002210
:10B590004FF420316068FEF7F9FA08B1FEF7AEFA11
:10B5A000BDE81040FEF7AABFBDE81040FEF780BB23
:10B5B00010BD0000201C002080BB0100044908448D
:10B5C00090F93000082801DB012070470020704707
:10B5D000D41D00200449084490F93000082801D205
:10B5E0000120704700207047D41D002070B501264F
:10B5F00070044FF0E0210025C1F88001084C401094
:10B60000C4F84803C4F8080366602F20FFF796FECD
:10B61000A660044C2F20A560FFF790FEA57070BDBA
:10B6200000100140701C002070B50D460446FEF766
:10B63000A7F970B12846FEF7B5F968B16807000EA2
:10B64000002C0CDA04F00F0101F1E02181F8140D57
:10B6500009E042F2010070BD42F2020070BD04F147
:10B66000E02484F80004002070BD000038B50021FB
:10B67000012548B101280CD0032809D1FFF72AFE83
:10B68000BDE83840FFF744BC4FF0E020C0F88051DF
:10B6900038BD8DF800106846FEF7CCFA064C2078CD
:10B6A00008B9FFF719FCE068401CE060A5709DF840
:10B6B0000000FEF7E3FA38BDC01D00203EB5044689
:10B6C00009496846FFF7DEFD08E000BFD0E9002128
:10B6D0002046904730B16846FFF7EBFD02980028FE
:10B6E000F4D13EBD11203EBD28BC01003EB504464C
:10B6F00008496846FFF7C6FD07E000BFD0E9002112
:10B70000204690476846FFF7D4FD02980028F5D1FF
:10B710003EBD000034BC01002DE9F0410746806ABF
:10B7200014468846C8B3002531E000BFB96A05EB6E
:10B73000450001EB8006B088801CFE2802D90C2051
:10B74000BDE8F0812288401C08F8020020881622FB
:10B75000401C80B2208008F800202088401C80B265
:10B76000208000EB0801308800F072F9218808443D
:10B7700080B22080B28842B1B16871B14044FDF717
:10B780000DFE2088B188084420806D1CEDB297F82A
:10B790002C00A842CAD80020D2E7FFE70720CFE755
:10B7A00070B5164D164C07E00168207888470028D0
:10B7B00022D01248FFF77DFDA8680028F4D1207838
:10B7C00003280CD002280AD0FFF738FD00B133DF80
:10B7D0000C4901200860BFF34F8F20BFFDE7BFF386
:10B7E0004F8F09480168094A01F4E0611143016083
:10B7F000BFF34F8F00BFFDE770BD0000681F002042
:10B80000841C0020000500400CED00E00400FA0557
:10B81000002805D10349012048700020FEF7A4BE8E
:10B8200070470000C01D002010B51620FEF7A8F8D4
:10B8300080B10F4890F800044009FEF7B3F860B1FA
:10B840000C4882684FF480016AB1016841F48001BC
:10B85000016010BD42F2010001E042F20200BDE8C9
:10B860001040FEF74BB94FF0E020C0F8001110BDBA
:10B8700016E000E05C1F00202DE9F84F1D4C00256C
:10B880006846D4E901A6FEF77BFF002738B3002302
:10B89000009A61681CE0D1F800C00846944503D9BD
:10B8A000ACEB02020A6015E0A2EB0C0263440760F5
:10B8B000D0F80CC0C1698146BCF1000F08D006EB7E
:10B8C000030828F07F48C0E9018CC9F81C500546E0
:10B8D0000029E0D128466160FEF7DEFF03E028463C
:10B8E000FEF7DAFF10B15046FEF760FEE770BDE8E4
:10B8F000F88F0000701C00200D4B10B5596831B155
:10B9000002680C68A24204D8A21A0A60C161586099
:10B9100010BD0B4603E00B46C969121B21B10C6830
:10B920009442F8D3A41A0C600260C161D86110BDC2
:10B93000701C00202DE9F041144E77683D462C46DE
:10B9400003E0844204D02546E469002CF9D11BE0D1
:10B95000D4B1A5420BD1F869706040B90C490120FF
:10B9600088600021B160F0702F20FFF7E7FC2168AC
:10B97000E069E86110B102681144016070688742B3
:10B9800002D00120BDE8F0810020FBE7701C002000
:10B99000001001407CB5064600240D468DF800409D
:10B9A0006846FEF747F901A800F06AF870B1057023
:10B9B000094946609DF8040048709DF80000FEF7B4
:10B9C0005DF91420FDF7F8FD20467CBD04249DF8A8
:10B9D0000000FEF753F9F7E7501E00202DE9F04173
:10B9E000194D6C68002C2CD0184800270068A968F5
:10B9F000B846401A20F07F462068B0420CD8214655
:10BA0000361A0744E469087C20B181F810808869FF
:10BA100049698847002CEFD129786878814206D19E
:10BA2000401CC0B26870022801D185F80180064828
:10BA300069780C3040F82170BDE8F0411420FDF722
:10BA4000BBBDBDE8F0810000701C00200415014062
:10BA50000870000A48700220704730B40446007A2B
:10BA600000280AD06088002166DF28B1112802D0A2
:10BA7000616830BC08470120207230BC704700006C
:10BA80000A494A788B78521CD2B2934200D10022E4
:10BA90000B78934201D1002070470270487800EB88
:10BAA000400001EBC000001D70470000501E002048
:10BAB0002DE9FC411646DDE90854CDE900541F4646
:10BAC0008046022200F00CF8002807D1CDE900548E
:10BAD0003B4610223146404600F002F8BDE8FC81AA
:10BAE0002DE9FC5F0026DDE90C4B994692468E4617
:10BAF00080462788354630E0D8F80400002200EB65
:10BB0000850069460068019001A864DF002830D1F3
:10BB10009DF8000050451FD10EB1002100E0022128
:10BB2000228808441118594522D846B9521C90B2AF
:10BB3000208009F800E02088401C20800126218810
:10BB400001A801EB0902694664DF002811D12088B1
:10BB50009DF80010084420806D1CB8F80000A84231
:10BB6000CADC56B12088C01B401E80B2FF2802D913
:10BB70000C20BDE8FC9F09F807000020F9E7000051
:10BB8000941C0020B41C002023D1BCEA5F7823154C
:10BB9000DEEF121200000000111213140D0E0F1030
:10BBA000541D0020741D0020A01D00200D00030066
:10BBB0007DA001000E0003007DA001000F00030026
:10BBC0007DA00100100003007DA00100770A0000A5
:10BBD00000000000770A0000000000000000005094
:10BBE00003000000301E00200738FDD87047000019
:10BBF0000000000000000000000000000000000045
:10BC00000000000000000000F0BB010008BC0100C3
:10BC10000400000000000000000000000000000020
:10BC2000000000000100000714BC010024BC01005A
:10BC3000080000004CBC01005CBC010008000000D2
:10BC40005CBC01006CBC01000800000008BD0100E4
:10BC500010BD01000000000000000000F8BC010061
:10BC600008BD01000000000000000000000000000E
:10BC700000000000D8BC0100E0BC0100E0BC0100F5
:10BC8000E8BC0100E8BC0100F0BC0100181C002069
:10BC90006CBC01008CBC010008000000F0BC01007D
:10BCA000F8BC010000000000000000009CBC010086
:10BCB000ACBC01000800000010BD0100181C0020F1
:10BCC0007C000000609901008CBD0100941C0020E4
:10BCD000E40A000070990100BDAC0100D41C0020F2
:10BCE00003AE0100E41C0020BD9E01000000000026
:10BCF00011B80100000000002DB10100000000009B
:10BD000049B20100000000006DB601000000000013
:10BD1000000000FFFFFF0000000000000000000026
:10BD2000341D00201F000000000000000000000083
:10BD30000000000000000000000000000000000003
:10BD400000000000000000000000000000000000F3
:10BD500000000000000000000000000000000000E3
:10BD600000000000000000000000000000000000D3
:10BD700000000000000000000000000000000000C3
:0CBD800000000000000000000090D00354
:040000050001920163
:00000001FF
