:020000040000FA
:10000000402C0020F902000001030000030300005F
:1000100005030000070300000903000000000000C2
:100020000000000000000000000000000B030000C2
:100030000D030000000000000F030000110300008A
:10004000C90600001303000069090000450700000D
:100050001303000013030000B104000013030000A9
:100060001303000013030000130300001303000038
:100070001303000013030000130300001303000028
:100080001303000021070000130300001303000006
:10009000890700001303000013030000130300008E
:1000A00013030000130300001303000013030000F8
:1000B0001303000013030000000000000000000014
:1000C00013030000130300001303000013030000D8
:1000D00013030000130300001303000013030000C8
:1000E00013030000130300001303000000000000CE
:1000F00000000000130300000000000013030000D4
:1001000000000000000000000000000000000000EF
:1001100000000000000000000000000000000000DF
:1001200000000000000000000000000000000000CF
:1001300000000000000000000000000000000000BF
:1001400000000000000000000000000000000000AF
:10015000000000000000000000000000000000009F
:10016000000000000000000000000000000000008F
:10017000000000000000000000000000000000007F
:10018000000000000000000000000000000000006F
:10019000000000000000000000000000000000005F
:1001A000000000000000000000000000000000004F
:1001B000000000000000000000000000000000003F
:1001C000000000000000000000000000000000002F
:1001D000000000000000000000000000000000001F
:1001E000000000000000000000000000000000000F
:1001F00000000000000000000000000000000000FF
:10020000DFF80CD000F016F9004800472D1A000066
:10021000402C002030B4044654E8000F0D4644E85A
:100220000053002BF8D1156030BC704730B4044641
:1002300054E8000F40EA010544E80053002BF7D1D1
:10024000156030BC704730B4044654E8000F00EA33
:10025000010544E80053002BF7D1156030BC70470E
:1002600030B4044654E8000F80EA010544E8005326
:10027000002BF7D1156030BC704730B4044654E809
:10028000000F00EB010544E80053002BF7D1156087
:1002900030BC704730B4044654E8000FA0EB0105B1
:1002A00044E80053002BF7D1156030BC704770B4A0
:1002B00004464FF0000054E8006F0D68AE4207BFDF
:1002C00044E80023012044E800630E60002B1CBFBB
:1002D0000020F0E770BC704730B4044654E8000FCB
:1002E00088422CBF451A054644E80053002BF5D13F
:1002F000156030BC7047000006488047064800473C
:10030000FEE7FEE7FEE7FEE7FEE7FEE7FEE7FEE7C5
:10031000FEE7FEE78D070000010200002DE9F05F17
:100320000546002092469B46884606468146402464
:100330001BE0284641464746224600F06BF85346EC
:100340005A46C01A914110D311461846224600F071
:1003500016F82D1A67EB01084F46224601200021AE
:1003600000F00DF817EB00094E41201EA4F1010426
:10037000DFDC484631462A464346BDE8F09F202A46
:1003800004DB203A00FA02F1002070479140C2F1EC
:10039000200320FA03F31943904070470048704748
:1003A0007854000040EA01039B0703D009E008C924
:1003B000121F08C0042AFAD203E011F8013B00F82A
:1003C000013B521EF9D27047D2B201E000F8012B76
:1003D000491EFBD270470022F6E710B513460A46C5
:1003E00004461946FFF7F0FF204610BD421C10F8E6
:1003F000011B0029FBD1801A704730B5044600204C
:10040000034600E05B1C934203D2E05CCD5C401BE2
:10041000F8D030BD202A04DB203A21FA02F0002176
:10042000704721FA02F3D040C2F120029140084304
:1004300019467047064C074D06E0E06840F001039E
:1004400094E8070098471034AC42F6D3FFF7DCFE7F
:10045000585500007855000070B58C1810F8015BF5
:1004600015F0070301D110F8013B2A1106D110F84D
:10047000012B03E010F8016B01F8016B5B1EF9D151
:100480002B0705D40023521E0DD401F8013BFAE7D7
:1004900010F8013BCB1A921C03E013F8015B01F842
:1004A000015B521EF9D5A142D8D3002070BD0000D7
:1004B0002DE9F04F00268DB0DFF8A081B1460496FB
:1004C0004FF48075012437460596284602F0D0F98E
:1004D00038B1D8F80403204203D0284602F0BEF910
:1004E00026432D1D64007F1CADB2082FEDD34FF4C1
:1004F000BE74204602F0BCF948B1204602F0AEF9C5
:1005000046F0004604AA0221002002F091F9544C62
:1005100016F0FF0F15D00127002537420DD008EB4C
:100520008501D1F81005D1F81015C0F3052054F855
:100530002520C1F3014102B190477F006D1C082DB9
:10054000EBD3002E7EDA0020CDF82890411E0DF16D
:10055000100B07AACDF82C9042F82010401C9146B1
:100560000228F9D300252E46A11911F8607F91F9D0
:10057000000027F0C008401C40D007A9404601F009
:100580009DFB40B34FEA971A404600F06FFE54F8C7
:1005900020701FB1BAF1030F03D006E0BAF1030FC8
:1005A0002CD10AA9404601F091FB02A8CDF80880A1
:1005B00002F0C0F8029900EB8100D0F8000704A90E
:1005C000C0F301400290404601F078FB00280298F9
:1005D00002D0022802D011E003280FD1BAF1030F94
:1005E00008D10298022833D00221404602F041F897
:1005F0006D1CEDB217B151464046B847761C042E2B
:10060000B2D3002D21D001AA0221002002F010F95E
:1006100000205A460DF1040152F8206051F82030B4
:10062000B34217D000200AAE4FEA090351F82070F8
:1006300042F8207056F8207043F82070401C0228C1
:10064000F4D300E001E0002D8CD10DB0BDE8F08FB7
:100650000321CAE7401C0228DED3F6E70060004011
:10066000F804002000F01F020121914040098000A1
:1006700000F1E020C0F88012704700F01F02012155
:1006800091404009800000F1E020C0F8001170475F
:1006900000F01F02012191404009800000F1E0209C
:1006A000C0F8001270474907090E002806DA00F06A
:1006B0000F0000F1E02080F8141D704700F1E020E9
:1006C00080F800147047000070B54FF48076304613
:1006D00001F006FB114CB50560B1304601F007FB97
:1006E0000120C5F80803607920B9012060712168F4
:1006F000002088474FF48276304601F0F1FA002856
:100700000AD0304601F0F3FA0220C5F80803216848
:10071000BDE870400120084770BD0000D4000020F3
:1007200007480021C0F84011C0F84411C0F8481132
:10073000C0F84C11C0F80011C0F8041103F044BE19
:100740000010014038B50E480E4C0025C0F8085185
:10075000D0F808110091214603F07AFE00280ED14E
:10076000A07FFF2801D002F032F865772572D4E926
:10077000002101B004F10800BDE83040104738BD49
:10078000003000406405002003F070BD30B54FF02C
:10079000805000228300D0F83011C3F80C21C3F838
:1007A0001021624B1A60624B1B68624C2360604BE5
:1007B0001B1D1B68241D23605D4B08331B68241D13
:1007C00023605B4B0C331B68241D2360584B103394
:1007D0001B68241D2360564B14331B68241D2360A3
:1007E000534B18331B68534C20342360504B1C333D
:1007F0001B68241D23604E4B20331B68241D23607F
:100800004B4B24331B68241D2360494B28331B6842
:10081000241D2360464B2C331B68241D2360444B4E
:1008200030331B68434C40342360414B34331B68E6
:10083000241D23603E4B38331B68241D23603C4B32
:100840003C331B68241D2360394B40331B68241D37
:1008500023600124082902D1D0F8343113B10829CA
:1008600004D006E0354B3449196005E0D0F8343146
:1008700013B1082904D006E0314BFB21196005E0D3
:10088000D0F8343113B1082908D00EE090F858326E
:100890002C48016863F30301016002E0D0F83431B1
:1008A0001BB929494FF40070086028480168C9073E
:1008B00002D06FF0010101602548016841F4700128
:1008C0000160BFF34F8FBFF36F8F4FF01021D1F84E
:1008D0000002002803DBD1F80402002822DA1D4BB5
:1008E0001C601D480468002CFCD01224C1F8004292
:1008F0000568002DFCD0C1F8044201680029FCD035
:100900001A6001680029FCD0BFF34F8F10487C3873
:100910000168124A01F4E06111430160BFF34F8F97
:1009200000BFFDE70F490E48086030BD38050040A4
:100930000404001020C50040488103008C5600408C
:1009400018F50040E40E00404096024000040040CC
:1009500088ED00E004E5014000E401400400FA05F0
:100960000090D0039C01002001480068004700006F
:10097000DC00002002E008C8121F08C1002AFAD1DA
:1009800070477047002001E001C1121F002AFBD10F
:100990007047022000F0DAB970B50024064D06E079
:1009A0006868012110F8340002F078FC641C287893
:1009B0008442F5D3002070BDE8000020F8B515464C
:1009C0000C460646052A01D20720F8BD02F05EFD5E
:1009D00018B902F021FD0028F7D1124900224E601B
:1009E0000C708D60C1E90422C1E906220E4D0DE0B4
:1009F00006EBC4002968009181788DF80110007819
:100A00000A4A694602F096FC0028DED1641EE4B270
:100A1000EED2BDE8F84004480021054A001D00F070
:100A200053B80000E8000020645300006114000087
:100A30006D13000072B602F0A5F900BF01F0F8FFD7
:100A40000028FBD1104C0121208801EB00400FA1B0
:100A500002F0FAF810480068C00700D000BE2088F5
:100A6000022101EB00400DA102F0EEF8BFF34F8F21
:100A70000948E43801680D4A01F4E061114301605E
:100A8000BFF34F8F00BFFDE7CC01002046617461CA
:100A90006C206572726F7200F0ED00E05379737430
:100AA000656D207265736574000000000400FA052E
:100AB0000EB500210091CDE901106A4644F2010013
:100AC000FFF7B8FF0EBD0000074B9B7823B12AB19A
:100AD00020B10068037C1BB10820704707207047D5
:100AE00041744261002070470006002070B503F099
:100AF0001BF9104800240B21047044700E4D8170C6
:100B000014206C602C706C70FFF7ACFD0721142072
:100B1000FFF7C9FD1420FFF7B0FD08480460072166
:100B20001120FFF7C0FD0548001F0068A8600020E5
:100B300070BD0000000600200801002008150140DB
:100B40002DE9F843DFF8709099F802305BB350B3A9
:100B5000052902D20720BDE8F88343691BB3437C13
:100B6000012B22D000270446002588461646284639
:100B700000F036F8684603F081FEC0B10121017033
:100B80000E4944600968C0E90218C0E904769DF87E
:100B9000000089F80100002000F024F81420FFF77D
:100BA00077FD2846D7E70820D5E70F46DBE7042581
:100BB000002000F017F8F4E70006002004150140BB
:100BC0000649897839B130B1416921B100210174F8
:100BD000022103F0D9BB0820704700000006002066
:100BE00000F002B800F008B872B602480168491C6B
:100BF000016070471C01002003490868401E08601E
:100C000000D162B6704700001C01002070B5054697
:100C100008680C46411C04D001F0E3FD206801F097
:100C200014FD6068411C02D0002101F0F2FC29682B
:100C3000A069C1F82405607D227D29681043C1F8B0
:100C40006C05D4E900122868C0F81425C0F80C150A
:100C5000207D012814D1A068411C02D0002101F0A0
:100C6000D8FCE068411C04D001F0BBFDE06801F055
:100C7000ECFCD4E902122868C0F80825C0F8101569
:100C800070BD70B5054608680C46411C04D001F0E3
:100C9000B2FD206801F0E3FC6068411C02D0002135
:100CA00001F0C0FC2968A069C1F82405607D217DA0
:100CB0002A680843C2F86C05D4E900122868C0F815
:100CC0000C15C0F81425207D012814D1A068411C02
:100CD00002D0002101F0A6FCE068411C04D001F024
:100CE0008AFDE06801F0BBFCD4E902122868C0F874
:100CF0000825C0F8101570BD2DE9FC410646C00757
:100D00004FF000050ED0104F00240122385D0095F1
:100D100000231146019501F0EDFB641C042CF4D373
:100D200000F04EF8B0070DD5074E0024361D002206
:100D3000305D032300951146019501F0DBFB641C37
:100D4000042CF4D3BDE8FC81284B0000094908B508
:100D5000085C0090684601F0DFFCD0F80425009B99
:100D60000121994021EA0203C0F808351140C0F87A
:100D70000C1508BD284B00000249085C012101F058
:100D800044BD0000284B00000249085C002101F02E
:100D90003CBD0000284B0000084908B5085C0090E5
:100DA000684601F0B9FCD0F804050099C84010F07D
:100DB000010000D0012080F0010008BD284B000098
:100DC00010B500242046FFF7D7FF641C042CF9D38C
:100DD00010BD10B500242046FFF7D6FF641C042C7C
:100DE000F9D310BD10B50246064B4FF0FF3000217D
:100DF0005C5C944201D1084610BD491C0429F7D31C
:100E000010BD00002C4B00002DE9F0470D46814637
:100E1000FFF7E8FF0446042836D2DFF874801B4849
:100E20001C4EA8F10C0725B3012D0ED0022D2BD19D
:100E300004EB440030444578002D25D0B9680029E2
:100E400022D02846BDE8F047084704EB4401755C12
:100E50000E44717849B10E4A4FF40041093A806856
:100E6000FFF76EFE08B987F80390B17808F8041010
:100E7000E2E78068FFF7A4FE04EB4401314418F870
:100E800004008D78A842D7D0BDE8F087304B000031
:100E9000BC000020980400200E2805D0112805D1A0
:100EA0000021034801F0CCB90121FAE770470000A6
:100EB0008049000070B50023042810D20D4D00EBCE
:100EC0004004012A02D101290CD00022094E00EB76
:100ED0004000304461B1012906D0022906D0072321
:100EE000184670BD0E30C2B22A55F9E74270F7E7D6
:100EF0008270F5E79804002070B506461E4800246D
:100F0000C0E90161B00720D500250122114628461D
:100F1000FFF7D0FF6D1C0446042D02D2002CF4D044
:100F200013E094B940F2666204211448FFF746FDCD
:100F300004000AD1FFF730FD040006D10F48104A23
:100F40000021001FFFF7C0FD0446F00712D001206A
:100F5000FFF7D2FE74B909480A4A00210C38FFF79E
:100F6000B3FD040006D10548074A01210838FFF700
:100F7000ABFD0446204670BDB00000203C4B000095
:100F800001120000CD170000930900002DE9F05F69
:100F90006A4C054600266078B34618B184F801B063
:100FA00000F0FCFB664F4FF47A694FF4C87A4FF0BB
:100FB0000108182D62D2DFE805F0AC0C0C31404D71
:100FC00062676B746B74BE7D7D7D7D7DACAFB2B5A9
:100FD000BEBE0020FFF7E0FE00284FF0000008D062
:100FE000FFF7CAFE022D02D14FF4E16008E0484647
:100FF00006E0FFF7C9FE022D01D1C82000E05046EF
:10100000410CC0034FF4FA72801841F100012570C1
:1010100052000023FFF782F901462AE00020FFF783
:10102000BBFE00284FF0000004D0FFF7A5FE4FF4F0
:101030004870E5E7FFF7A8FEDFE70020FFF7ACFE0A
:1010400000284FF0000002D0FFF796FECFE7FFF731
:101050009BFED4E70020FFF79FFE00284FF0000022
:1010600002D0FFF789FE01E0FFF78EFE257041F602
:101070009A1100223868FFF763FD064646E000201B
:10108000FFF764FE257008E0002051E025703DE088
:1010900084F801800120FFF759FE002240F6CD417F
:1010A000E8E784F801800120FFF750FE00224FF4AA
:1010B0008041DFE77868FFF783FD0646D5F1110030
:1010C00000D02EB10220FFF757FE84F802B01DE0D9
:1010D000012816D980B2C8214843C117C90341EA83
:1010E0005041C0034FF4FA72801841F100015200E0
:1010F0000023FFF713F9014600227868FFF720FD6F
:1011000006460220FFF740FE84F802803046BDE824
:10111000F09F00F043FBB9E700F040FBB4E700F0BC
:101120003DFB04E000F03AFB0020FFF72DFE01201C
:10113000FFF72AFEAAE7FFF74CFEA7E7B000002062
:10114000304B00002DE9F0470546861C90460F46BF
:101150004FF001090020FFF743FD1B4C2068386069
:10116000D4E90001401AA16804F21C47081A0EE0F5
:101170000121384600F03AFD00F00AFC01463846ED
:1011800000F034FDD4E90001401AA168081A401C9F
:101190008642EDD8B8F1000F03D0052065F3891021
:1011A00002E0062065F39F50A2682168114004EB1D
:1011B0008101C8602068304420600020FFF712FDE4
:1011C0004846BDE8F08700001808002030B4826867
:1011D0000468531C8360A154D0E901128A4202D3EF
:1011E00030BC00F030BE30BC70470000034803C87C
:1011F000814201D10120704700207047180800206B
:1012000000780221FFF700BE05494FF0FF320828A1
:1012100041F8202002D3084480F85820704700008D
:10122000F8040020F0B54FF0FF3512B10023082676
:1012300001E008230C260C4C05E000BF54F8237095
:101240007F1C04D05B1CB342F8D32846F0BD26189F
:101250005DB286F8305044F82310002AF5D1E11829
:1012600081F85800F1E70000F80400200249084422
:1012700090F9300070470000F804002070B5084C69
:10128000050009D010342168002907D008682060C3
:10129000496828468847F6E70834F4E770BD00003F
:1012A000C4040020054A012120B1012805D1917014
:1012B000FFF7E4BF51700020FAE77047C404002034
:1012C0002DE9F05F26484168F1B3DFF898B00E6869
:1012D0008146DBF8004087688078E11B21F07F457C
:1012E000ED1CB0B9DFF880804FF48030C8F84403BB
:1012F000C8F804031120FFF7B5F91120FFF7BDF975
:101300004FF0010AC8F800A02F2001F0BFFF89F8B4
:1013100002A0B54200D23546124BE8193C3320F00A
:101320007F401860DBF800105A46091B21F07F410E
:10133000001B20F07F40C91C81420FD91068186043
:101340002F2001F0A3FF00E004E0BDE8F05F1120D2
:10135000FFF79EB9BDE8F05F02F0E6BCBDE8F09F84
:101360000801002004150140001001402DE9F0475C
:101370000025DFF890803DE06068002100EBC506A5
:10138000012032789146FEF7FAFFD4E9062300EAFD
:10139000020701EA030C57EA0C0729D082438B436A
:1013A0004846C4E9062302F02FF832788246914677
:1013B00001200021FEF7E3FFD4E9042300EA020440
:1013C00001EA03074A4650460021FEF7D8FF444091
:1013D0004F403C430CD17078012801D0012000E03F
:1013E0000020726880EA0A0012B1C1B248469047F4
:1013F0006D1CEDB298F8000044468542BCD3BDE8B0
:10140000F0870000E800002010B50021024800F03D
:10141000F8FB80F3100010BD340C00207047000072
:101420000E4910B50A784C780023A24212D0521C03
:10143000D2B20A70022A00D10B70084A0B780C3223
:1014400052F8232002608868104420F07F408860B2
:10145000012010BD0360002010BD00000801002025
:101460002DE9F0418046024601200021FEF787FF6A
:101470001A4F05460E467868FFF7A2FB00280CD1EC
:10148000174CD4E9062110462A4001EA06031A4304
:1014900005D0A843B143C4E90601BDE8F081404648
:1014A00001F0B2FF30B1D4E9040128433143C4E96B
:1014B000040105E0D4E90410A943B043C4E90410D1
:1014C000D4E9060128433143C4E90601A1687868DC
:1014D000BDE8F0410022FFF733BB00006453000079
:1014E000E8000020F0B593B01546064631B1012959
:1014F00007D0022907D0072013B0F0BD6FF02701F5
:1015000002E0002100E02821404C01AF0DF1100C59
:101510000DCC87E80D0001F14002ADF80420ADF8D4
:10152000082089CC8CE88900501FADF81000C01C41
:10153000ADF81400B4E888100DF11C0E8EE8881088
:10154000ADF81C00001DADF82000B4E888100DF1C6
:10155000280E8EE88810ADF82800C01CADF82C00CD
:1015600054E91A03CDE90D03ADF8342054E918020B
:10157000CDE90F0201F13C00ADF83C0054E9160240
:10158000CDE911024331ADF844102A4601A9304695
:1015900000F059FE08B1FFF78BFA2A4604A930463D
:1015A00000F051FE08B1FFF783FA2A4607A930463A
:1015B00000F049FE08B1FFF77BFA2A460AA9304637
:1015C00000F041FE08B1FFF773FA00232A460DA987
:1015D000304600F031FD08B1FFF76AFA01242B46CE
:1015E00022460FA93046009400F000FF08B1FFF733
:1015F0005FFA2B46012211A93046009400F0F6FE56
:1016000008B1FFF755FA002076E70000A049000076
:101610002DE9FC5F0E008346DDE90C47C6F10000B2
:1016200098469246814600D40846012503E000BF53
:1016300090FBFAF06D1C5045FADAA84500D94546F2
:1016400024B1002E01DB780700D5641EB80702D54F
:10165000B8F1000F0AD0F80708D13CB1A54205D275
:1016600020215846641EFFF7B1FDF6E7002E02DA8E
:101670004E462D2102E0780703D52B215846FFF76F
:10168000A5FD07F0030002280BD1B8F1000F08D127
:101690003CB1A54205D230215846641EFFF796FDA5
:1016A000F6E7CDE90047434652463146584603F037
:1016B0008BF8BDE8FC9F000070B50D46044600683D
:1016C0004FF4887101F0A5FD4FF49071206801F08E
:1016D000A0FD4FF49271206801F09BFD4FF4A271C0
:1016E000206801F096FD20681249C0F804132068B4
:1016F0006907000B40B2090E002806DA00F00F005F
:1017000000F1E02080F8141D03E000F1E02080F8F3
:10171000001420680121000B40B200F01F0291402C
:101720004009800000F1E020C0F88012C0F80011EC
:1017300070BD0000100302000246002012689307EB
:1017400002D0530702D47047500714D502F00300AB
:10175000012802D002280CD105E0C2F383100B68E7
:10176000801C184404E00223086803EB92521044E2
:10177000086001207047086800EB9253C2F389109B
:10178000401CEEE70268134602E08A4204D0126869
:10179000002AFAD10B600160704700000A4810B5BA
:1017A000807860B1002401E0022C06D02046FFF7CB
:1017B000E3FA641C042CF7D310BD0324F6E7BDE85C
:1017C0001040FFF7FDBA0000B00000200348017987
:1017D000C90702D00078FFF7D9BB7047B0000020DE
:1017E0002DE9FF4F83B09946DDF840800F4616463D
:1017F0004FF0FF30494501D2012300E00346019339
:10180000424500DA012000904FF0000BB9EB0700D1
:1018100000D5404205B2B8EB060000D5404204B204
:10182000119B039802F0CCF9A54204DA65406C40A4
:1018300065404FF0010B601B400000B20290600059
:101840000FFA80FAAAEB050004B21EE0002C09DBB7
:101850000198384487B20098304486B202982044F8
:1018600004B20CE004EB0A0004B2BBF1000F03D099
:101870000098304486B202E00198384487B232467C
:101880003946119B039802F09BF94645DED14F453E
:10189000DCD107B0BDE8F08F2DE9F047394E0027C5
:1018A00080463D46DFF8E090D6F804A057E003D02C
:1018B0000446D0F81C8035E099F8002002EB420184
:1018C000521CD2B289F8002009EBC10199F802300C
:1018D000091D9A4201D189F8005048680A780446E7
:1018E000012A12D0022A02D0032A3BD108E002F0DA
:1018F0001BFD00B10127257434E00574C06900E0C8
:1019000070680028F9D170602CE0207C50BB88689A
:101910006060C868A0600869E0604869A061F0780C
:1019200000B165606268B168184B501A20F07F40C2
:10193000984202D2A168084406E0881AA16820F003
:101940007F40814202D9081A206000E0256065606E
:101950000120A56020742046E56102F0C7FCB8F1C3
:101960000000A4D199F8001099F801008142A3D198
:1019700017B97168514502D00120BDE8F0870020F9
:10198000FBE700000801002000060020FFFF7F00A9
:101990002DE9FF410026234800F025F92148001FCA
:1019A000074600F020F9204C60680090A56800E030
:1019B00000986946284004EB80000C30FFF7BCFE1D
:1019C0000028F5D101AA009901EA050304EB83037D
:1019D000491CDB6842F82030401C00910228F2D3F9
:1019E000019800F0030001280BD0022810D10198C3
:1019F000032101EB90500099BDF80A6001EB9000C3
:101A000005E00198BDF80A60C0F383100844009017
:101A1000384600F0E5F808B10098606004B0304640
:101A2000BDE8F081300C0020180800200EB54FF4FE
:101A300000442146002001F061F908B1FFF738F8B1
:101A400000F0E8FF00F06CF908B1FFF731F8002072
:101A500000F080F9FFF74AF808B1FFF729F8224AA9
:101A600001212248FFF730F808B1FFF721F821469D
:101A70001E4C00222068FFF763F808B1FFF718F842
:101A800001F05AFA08B1FFF713F819490220FFF7DD
:101A900033FA08B1FFF70CF81448203000F0C6FB09
:101AA00008B1FFF705F813480321008801EB004057
:101AB00011A101F0C9F86068029000211948CDE930
:101AC00000010A4818A3012202A9203000F036FCC8
:101AD00008B1FEF7EDFF01F043FA00BF00F0A8FFE8
:101AE0000028FBD1F7E70000D94100006049000061
:101AF000990E0000CC010020535049207472616E91
:101B000073616374696F6E206D616E6167657220C9
:101B10006578616D706C6520737461727465642E94
:101B2000200A0D005853000020204E4F52444943D4
:101B300053454D49000000002DE9F047C788044691
:101B4000181D16468946B0FBF7F1B0FBF7F207FB0C
:101B500012009A193A44D21CB2FBF7F2DDF820A029
:101B600001E02468491E0029FBD13D1A8846B54290
:101B700016D818E0BAF1000F05D0211809EB0800BB
:101B80002A46091D04E0204409EB08012A46001DED
:101B9000FEF708FC00202468761BA844B74201D950
:101BA000354600E03D46002EE4D1BDE8F087000058
:101BB00030B5024659B101F0CDF80021074C09E0DB
:101BC00004EB810315685B88AB4202D111600020F1
:101BD00030BD491C8142F3D3052030BDA001002057
:101BE000002100F009B8012100F010B808B56A46DC
:101BF000FEF743FB009808BD08B56A46FEF723FBD5
:101C000008BD08B56A46FEF705FB08BD08B56A467B
:101C1000FEF70CFB009808BD08B56A46FEF73AFBD4
:101C2000009808BD70B5044600252846FEF7D8FF89
:101C300021686268086890420ED9401E08600178E9
:101C4000A38AE26801FB0325227A2168101AC0B238
:101C50000A79824200D208710020FEF7C3FF2846AD
:101C600070BD70B505460C460020FEF7B9FFE86868
:101C7000A98A201AB0FBF1F12A681068431C13608E
:101C80000170BDE870400020FEF7ACBF10B530B168
:101C9000017A42680368891AC9B21A6006E00E2008
:101CA00010BD03681A68541C1C601170491EC9B22B
:101CB000F7D2006800210171084610BDC20800F08B
:101CC00007030120895C98400840704710B5C2089E
:101CD00000F00703885C01249C402043885410BD19
:101CE00000F180400068002800D00120704708B54E
:101CF00000F18040002101600068009008BD0000F4
:101D00002DE9F041040007D0044E4FF47A47751CCA
:101D10003846A847641EFAD1BDE8F081D0490000DA
:101D200070B50A4C207808B185250CE00020A06031
:101D300060602061E060064801F088FA054601F025
:101D40006FFA01202070284670BD0000C4040020F6
:101D5000A512000070B5104D0446A87838B114B132
:101D60006168012088470020FEF73AFF0CE0002060
:101D7000FEF736FF24B1084821461030FFF702FD78
:101D8000E86808B901F072FAE868401CE860BDE84C
:101D900070400020FEF726BFC404002030B41C466B
:101DA0000378064D45F82320103545F8234002B14D
:101DB000034A30BC001D01F09DBB0000D804002088
:101DC000453E0000F0B505460478154889B0164632
:101DD00040F82420124A08690832A2F10C0742F8A0
:101DE0002400487F385520226846FEF7DBFA049429
:101DF0002878385C48B10EB10A4A00E000226946F2
:101E0000281D01F0E1FD09B0F0BD0EB1064A00E069
:101E10000022694605F10C0001F0A8FCF3E7000080
:101E2000C4000020A5460000F14400000FB408B52E
:101E30000399002904D004AA00926A4600F00FF822
:101E400001B05DF814FB10B582680446002A05D085
:101E5000D4E90403216898470020A06010BD2DE953
:101E6000FC4791460C00804676D014F8011B39B12E
:101E700025290ED04046FFF7A9F920780028F4D193
:101E800098F80C00002867D04046BDE8FC47FFF7F3
:101E9000DABF0020012221782B291BD02D2902D066
:101EA000302908D102E040F0010001E040F00200DA
:101EB000641C002AEFD100252A290ED02178A1F137
:101EC00030020A2A11D205EB850201EB4205641C9F
:101ED000303DF1E740F00400EAE7D9F800100B1DAF
:101EE000C9F800300968641C0D44217800232E29AC
:101EF0000BD114F8011FA1F130020A2A05D203EB1D
:101F0000830201EB4203303BF3E76C290DD06829D3
:101F10000BD0692921D00BDC252918D0582931D0C4
:101F200063290ED0642915D117E014F8011FECE7DE
:101F3000702969D0732932D075291BD0782909D12D
:101F400020E0D9F80000011DC9F8001001784046D2
:101F5000FFF73CF9641C90E76CE0D9F800100A1D0B
:101F6000C9F800200968CDE900500A224046FFF771
:101F70004FFBEFE7D9F800100A1DC9F800200968E7
:101F80000A2206E0D9F800100A1DC9F800200968E5
:101F90001022CDE90050404602F016FCDAE7D9F8ED
:101FA000001000270A1DC9F800200E68C00705D1DF
:101FB00012E04046761C7F1CFFF708F931780029B3
:101FC000F7D104E0202140466D1EFFF7FFF8BD4227
:101FD000C0D9002DF6D1BDE74EB13046FEF706FA66
:101FE000074604E0202140466D1EFFF7EFF8BD4292
:101FF00006D9002DF6D103E04046761CFFF7E6F83F
:1020000031780029F8D1A5E7D9F80000011DC9F8F9
:102010000010056830214046FFF7D8F87821404687
:10202000FFF7D4F808200021CDE900010346102273
:102030002946B0E7BDE8FC872DE9FF5F0C46B1F902
:102040000450C169904683469A462288A08800269B
:102050008B88121A3746934206DB62884988101A29
:102060004FF00109814277DA072004B0BDE8F09F04
:10207000BAF1000F72D02188881B01D44A1B33D5D6
:10208000701CCDF80090CDE90180084483B26088CF
:102090000021401B82B2584601F028FECDE900988D
:1020A0002188681C0390084483B260880021801B4B
:1020B00082B2584601F01AFECDE9009821880398B3
:1020C000084483B260880021304482B2584601F04F
:1020D0000DFECDE9009821880298084483B26088FB
:1020E0000021284482B233E009EB4601CDF800908C
:1020F000CDE901818BB26188491B8AB281B2584611
:1021000001F0F4FD09EB4500CDE9009883B203909E
:102110006088801B82B22088401B81B2584601F043
:10212000E5FDCDE90098039883B26088304482B21F
:102130002088401B81B2584601F0D8FDCDE90098B7
:1021400060880299284482B220888BB2801B81B2B9
:10215000584601F0CBFD51E061E0FFE7608843465F
:10216000284482B22088304481B2584601F028FDCC
:1021700060884346284482B22088801B81B258463A
:1021800001F01EFD60884346304482B22088284416
:1021900081B2584601F014FD60884346304482B253
:1021A0002088401B81B2584601F00AFD60884346F2
:1021B000401B82B22088801B81B2584601F000FD8E
:1021C00060884346401B82B22088304481B2584622
:1021D00001F0F6FC60884346801B82B22088401BD9
:1021E00081B2584601F0ECFC60884346801B82B205
:1021F0002088284481B2584601F0E2FC002F07DC19
:10220000761C36B207EB4600401C07B2002F06DDF5
:102210006D1E2DB2684207EB4000401E07B2B5426A
:10222000BFF626AF002020E70069004710B504463E
:1022300000688047002802D1E2690121117010BDB9
:102240008269084610472DE9FC47C3690C46814660
:10225000988809884FF000081546C446884203D282
:102260005A88A688B24206D36288904206D258881D
:10227000E388984202D20720BDE8FC87A388E6885D
:10228000CF1AA2EB060000D57F42002800DA4042B8
:10229000874202DDB4F808C001E0B4F80880994232
:1022A00001D0B24210D1581AB31A00D55B42634430
:1022B0009BB2CDE90035002800DA4042404483B2A9
:1022C000484601F013FD36E0B8F1000F15D00026A6
:1022D0000FE0B4F90600CDE90005A088628830441B
:1022E00083B22088304481B24846FFF779FA761CE1
:1022F000B6B22089B042ECD81DE0BCF1000F14D07A
:1023000000260EE0E088304400B2CDE90005608888
:10231000A388304482B221884846FFF761FA761CD0
:10232000B6B22089B042EDD805E030B2CDE9000563
:102330004846FFF755FA00209EE700002DE9FE4FC2
:10234000814608880C9DADF80800D9F81C00884625
:102350004C88418828781F46081A9346A04202DA22
:102360000720BDE8FE8F00264FF00A0A2BE00A2A5C
:102370002ED0CDE9004B02AB2946484602F096FA32
:10238000B95D6878081AC0B220292CD0696811F8A4
:10239000200000BFD9F81C108A88121ABDF8080066
:1023A00082420FDA0D9888B1B8F80000ADF8080045
:1023B00028784988B0FBFAF22244024494B2081A01
:1023C000A04203DB761CBA5D002AD0D10020C8E70A
:1023D000B8F80000ADF808002878B0FBFAF1214405
:1023E000084484B2CCE728784008D3E72DE9FE4FB3
:1023F0009A468B8815468146581B87B2C8880C467A
:10240000411BDDF830C08EB2012B13D0012811D052
:10241000B3EB450F0ED3B0EB450F0BD3D9F81C200F
:102420002188B2F80480884507D25288B4F8028027
:10243000424502D20720BDE8FE8FBCF1000F06D056
:10244000CDE9000A6288484601F050FC50E0ADF842
:1024500000106088ADF802002088A1885246084428
:10246000ADF804006088ADF80600ADF80850694684
:102470004846FFF7E8FE2088ADF800006088524625
:102480003044ADF802002088A1880844ADF804006B
:10249000608869463044ADF806004846FFF7D3FE31
:1024A0002088ADF80000608852462844ADF802004C
:1024B0002088ADF80400608869463044ADF8060015
:1024C0004846FFF7C0FE208852463844ADF8000069
:1024D000608869462844ADF8020020883844ADF889
:1024E000040060883044ADF806004846FFF7ABFEB4
:1024F0000020A0E72DE9FF411C46DDE90A781546DA
:102500000E46684600F008F946EA450141EA8401B2
:1025100041EA072242EA0841009A00EB8200C0F833
:102520000017BDE8FF812DE9FF411C46DDE90A786F
:1025300015460E46684600F0FDF846EA450141EAB8
:10254000840141EA072242EA0841009A00EB820036
:10255000C0F80017BDE8FF812DE9FF411C46DDE909
:102560000A7815460E46684600F0F2F846EA45013C
:1025700041EA840141EA072242EA0841009A00EB5D
:102580008200C0F80017BDE8FF812DE9FF411C461D
:10259000DDE90A7815460E46684600F0E7F846EA97
:1025A000450141EA840141EA072242EA0841009AD2
:1025B00000EB8200C0F80017BDE8FF812DE9FF4164
:1025C0001C46DDE90A7815460E46684600F0DCF840
:1025D00046EA450141EA840141EA072242EA08410C
:1025E000009A00EB8200C0F80017BDE8FF811CB51F
:1025F000002100910B4601220191FFF7C6FF1CBD8F
:102600001CB5002100910B4601220191FFF7D6FF76
:102610001CBD1CB500220B46009211460192FFF72B
:10262000B4FF1CBD1CB500220B460092114601925E
:10263000FFF7C4FF1CBD1CB5002100910B46012211
:1026400001911146FFF788FF1CBD1CB500210091C8
:102650000B46012201911146FFF797FF1CBD1CB5E7
:10266000002100910B46012201911146FFF7A6FFC0
:102670001CBD13B50C46684600F05CF8009900EBF1
:102680008101D1F8002722F44032C1F800270099D7
:1026900000EB8100D0F8001741EA0441C0F80017B0
:1026A0001CBD01B5684600F029F8009A012191404F
:1026B000C0F80C1508BD01B5684600F049F8009A4D
:1026C00001219140C0F80C1508BD03B581B041B19E
:1026D00001A800F013F8019A01219140C0F81815E3
:1026E0000EBD01980090684600F008F8009A00219D
:1026F00000EB8200C0F800170EBD00000168202921
:1027000002D24FF0A040704701F01F010160014864
:1027100070470000000300500168202902D24FF0EA
:10272000A040704701F01F010160014870470000A0
:10273000000300500168202902D24FF0A0407047EA
:1027400001F01F01016001487047000000030050C4
:102750000168202902D24FF0A040704701F01F010C
:102760000160014870470000000300500168202903
:1027700002D24FF0A040704701F01F0101600148F4
:1027800070470000000300500168202902D24FF07A
:10279000A040704701F01F01016001487047000030
:1027A0000003005001B56846FFF7C4FFD0F81005DC
:1027B0000099C84000F0010008BD01B56846FFF768
:1027C0009DFF009A01219140C0F8081508BD01B590
:1027D0006846FFF7BDFF009A01219140C0F8081537
:1027E00008BD01B56846FFF7C1FF009A012191407D
:1027F000C0F8081508BD01B56846FFF7C5FF009A87
:1028000001219140C0F8081508BD38B50124009099
:10281000684631B1FFF780FF00998C40C0F8084549
:1028200038BDFFF779FF00998C40C0F80C4538BDE2
:102830001CB5094C0144D4E90034CDE900346C46A0
:1028400006E000BF54F82030D3F81035401C08C211
:102850008142F7D81CBD00005C4B0000034908B55D
:102860000844002101600068009008BD006000403D
:1028700002494058012800D0002070470060004005
:1028800030B5124B01460020D3F81044224609E02F
:10289000157A854205D1401C0A28F7DB4FF0FF303E
:1028A00030BD5268002AF3D1421CF9D00872D3F827
:1028B00010242AB152684A60D3F81024516030BD08
:1028C0000022C3F810144A6030BD00001808002030
:1028D000F0B595B01C4615460F4608461A9E00F006
:1028E00009FB182109A8FDF776FD0E96CDE90954DC
:1028F0000023082203A9384600F011FB0598069032
:10290000BDF81000ADF81C00BDF81200ADF81E00B7
:1029100000208DF821000398082600F0030001280C
:1029200002D0022818D032E003983346850AC0F35B
:10293000C2008DF8200003980FA9C0F38314A200F1
:10294000384600F0ECFA09A8009006AB22460FA921
:10295000284600F02BFA1AE00398840DC0F3C20059
:102960008DF82000082C01D2254600E008253346CA
:102970002A460FA9384600F0D2FA2E44641B09AB50
:1029800006AA29460FA800F063F9002CEAD13846C0
:1029900000F0B6FA15B0F0BD7047012001F0C6BDD9
:1029A000084810B50178084A515C19B1001D01F0C2
:1029B00097F802E00C3000F0A5FFBDE810400020C1
:1029C00001F0B4BD2C010020C000002008B5034A6E
:1029D00000924023024AFFF77BFF08BDC53D00007F
:1029E000180700200A4A012902EBC00007D002297B
:1029F00007D0032907D0042907D000207047022000
:102A00007047042070470079704740797047000094
:102A10007855000010B5FFF7C0FF04210348FFF709
:102A20002FFF02490120487210BD00004001002024
:102A30002DE9F0478CB0FEF7D9FB18B100200CB09F
:102A4000BDE8F087784C0020C4F81804BFF34F8F1E
:102A500060680290A5684FF00008284004EB8000F1
:102A600008E021680298814201D86160E6E72840C9
:102A700004EB80000C3002A9FEF75EFE0028F0D1C6
:102A800003AB029901EA050204EB8202491CD268F9
:102A900043F82020401C02910228F2D3039800F052
:102AA0000300022802D001284ED0A5E0039850224E
:102AB000810D8946B2EB905F00D850210E4666F337
:102AC0009F5003900831594800F0CBF9070078D0A7
:102AD00000F010FA4346082203A9384600F025FA10
:102AE000029908F1080A2940681A8000001D8642F0
:102AF00023D94D4D0C3530B1C2B204EB8101301AEF
:102B000090460C3104E02946F2B200259046284652
:102B1000C6B25346384600F008FA0AEB08032DB156
:102B2000324629464FEA070000F0FFF9029909F101
:102B3000030001EB900002903AE004EB8101534660
:102B4000324638460C31EFE70398C0F3831106296B
:102B500000D3062161F389100390C0F38310801C19
:102B60008100324800F07DF9070045D000F0C2F93D
:102B70004346082203A9384600F0D7F908F10808AF
:102B800000260FE00298434600EA0501401C04EBD2
:102B900081010290042238460C3100F0C6F908F198
:102BA0000408761C0398C0F38310B042EAD847B1FA
:102BB000D4F81054D4F8180468B1384600F0A0F9DD
:102BC0002CE019E0687A012804D12A6828463946A1
:102BD000126890476D68002DF4D1384600F090F9E6
:102BE0000020FDF7FDFFD4F8180408B902986060D2
:102BF0000020FDF7F7FF11E0D4F8104404E021684D
:102C00002046896888476468002CF8D1084802216A
:102C1000008801EB004007A100F016F8FEF7E6FA85
:102C200080F001000BE7000018080020D8550000D4
:102C3000CC0100204261636B656E647320666C7525
:102C4000736865640000000000231A4601F07EBA34
:102C50002DE9F0470E4680461C46924608293ED88C
:102C600094F80C90002020731946104600F0DAFF0B
:102C70000025B54206D218F805201AA12046FFF714
:102C8000D5F803E019A12046FFF7D0F86D1C082DF8
:102C9000EFD317A12046FFF7C9F80025B54210D29F
:102CA00018F80570FDF77AFB0068C05D10F03E0F64
:102CB00001D03A4600E02E220EA12046FFF7B6F8DA
:102CC00003E00DA12046FFF7B1F86D1C082DE5D3F8
:102CD00001222146504600F087FF84F80C90BDE8A1
:102CE000F0870000202530327800000020202000EE
:102CF0007C0000002563000020000000104810B593
:102D0000FF218160002101604160C0F81814C0F803
:102D1000141480F820140B4800F0F0F800280DD1AE
:102D200009480A490A4B401AC108002003E000BFC5
:102D300023F82000401C8842FAD3002010BD000078
:102D400018080020D8550000D8550000785500001C
:102D5000A001002002480349401AC0087047000043
:102D6000D85500007855000013B56846FEF720FFDF
:102D700008B100201CBD0248009950F831001CBD6C
:102D80007855000070B508480125D0F8104480F847
:102D9000205405E0657221682046496888476468C8
:102DA000002CF7D170BD0000180800202DE9FF4766
:102DB00081460C9D00200C462F7B287398461646B2
:102DC0002946184600F02EFF072E42D2DFE806F013
:102DD00004090F161F2A360049462846FFF726F831
:102DE00037E0494628462268FFF720F831E0D4E969
:102DF000002349462846FFF719F82AE0A06800900A
:102E0000D4E9002349462846FFF710F821E0D4E929
:102E10000201CDE90001D4E9002349462846FFF725
:102E200005F816E004F1080007C88DE80700D4E9AA
:102E3000002349462846FEF7F9FF0AE004F108009E
:102E40000FC88DE80F00D4E9002349462846FEF755
:102E5000EDFF00222946404600F0C6FE2F73BDE874
:102E6000FF872DE9F041858A80462D1F4819C01C37
:102E7000B0FBF5F0C6B24046FEF7D4FE041E19D0F2
:102E80000020207101206071E58000272546761E14
:102E9000C4F800800BE04046FEF7C4FE60B16179E3
:102EA000491C6171286005467F1CC0F80080B7424C
:102EB000F1D32046BDE8F081204600F002F8002062
:102EC000F8E72DE9F041457901466B1E002201E04B
:102ED0000968521C9A42FBD30F680146002605E0A0
:102EE00038460C68FEF7BDFE2146761CAE42F7D38D
:102EF000BDE8F0810121001DFEF778BEFEF7C6BED9
:102F000010B504460121001DFEF786FE10F0FF0FEC
:102F100004D12046BDE81040FFF7D3BF10BD38B53F
:102F200001240094FEF708FE38BD38B50024009453
:102F3000FEF702FE38BD0000064910B500204870BB
:102F4000091D0860BFF35F8F0349044800F0DBF8F8
:102F5000002010BD20010020A05300000C0700201D
:102F600010B50020FDF73CFEF1EE100A20F09F00A6
:102F7000E1EE100ABFF35F8F05494020C1F88002DF
:102F80000020FDF72FFE20BF40BF20BF10BD000076
:102F900004E000E02DE9F0410446002790460E468B
:102FA0003846FDF71DFE204600F038F830B1052701
:102FB0000020FDF717FE3846BDE8F081206805685F
:102FC000B8F1000F05D10168204600F03FF82168F4
:102FD0000860E268012A0CD0022A0ED0042A11D01F
:102FE0006068082A13D005FB02013046FDF7DAF9C4
:102FF000DEE76068405D3070DAE7606830F8150041
:103000003080D5E7606850F825003060D0E700EBED
:10301000C500D0E90010C6E90010C9E701680868DA
:103020004968884201D1012070470020704701683B
:103030000A6849688068884201D9491C00E000217B
:10304000914201D10120704700207047806888427A
:1030500001D9481C7047002070472DE9F041044613
:103060004FF000080E464046FDF7BAFD2046FFF738
:10307000DEFF070009D0207C38B14FF004080020A3
:10308000FDF7B0FD4046BDE8F08120684568416825
:103090002046FFF7DBFF2168486037B120680168F0
:1030A0002046FFF7D3FF21680860E268012A14D0A8
:1030B000022A16D0042A19D0082A1CD0606831468A
:1030C00005FB0200FDF76EF9204600F003FE2168C3
:1030D0008A688242D3D28860D1E7616830784855E7
:1030E000F2E76168308821F81500EDE76168306823
:1030F00041F82500E8E7D6E90001626802EBC50265
:10310000C2E90001E0E7016009684160AFF30080B7
:1031100010B5D0E900215368994201D1002104E0A3
:10312000D1E90034A34202D01946816010BD0831B4
:103130004160F0E770B5044603460D46074A083083
:10314000FEF72CFE010007D12068002204C03CCD10
:103150003CC0A0F110020260084670BD053E0000B0
:103160002DE9F0418046134888B01D460E9C00684A
:1031700016460F4600900F491822091D01A8FDF7B9
:1031800011F96846CDE903068DF8145001A94046AF
:10319000069700F011F8002808D101E004B1A0471B
:1031A0009DF800000028F9D19DF8010008B0BDE8A5
:1031B000F0810000AC53000073B50546406801A9DA
:1031C000FFF74BFF040003D10021284600F05CFF0D
:1031D00020467CBD10B504460C3000F053FA21683F
:1031E0000020086010BD4058002800D00120704722
:1031F00008B5002242504058009008BDD0F80403A2
:10320000084000D0012070474058002800D001201D
:10321000704708B5002242504058009008BD000099
:1032200008480068012110F0010F08D14FF0E0209C
:10323000E02280F80024C0F88012C0F80011024893
:103240000160704700E100E01805004006490246B1
:1032500000200B790BB1852070470A6001220A71AA
:1032600000224A7170470000D400002010B54FF4CE
:103270008270FEF73CFD02204107C1F804030249B9
:103280000120086010BD000008000040002802D0A6
:103290000149800108477047715300002DE9F04152
:1032A0000E46804600F074FC204D0028404616D0A3
:1032B000FDF7DCFF284490F858008009032802D06D
:1032C00001280AD003E04046FFF76CFA28B1032139
:1032D0004046BDE8F041FFF7CCB90221F8E700F025
:1032E00063FC002820D04046FDF7C0FF0446104F85
:1032F0004FF4807007EB840100EB8400D1F81025B7
:1033000080B242F00102C1F81025FFF7A7FA002EA3
:103310000AD04046FDF7AAFF55F82000002803D048
:103320000120A040C7F80403BDE8F081F8040020A4
:10333000006000402DE9FC41DFF8C080044608EB46
:103340000400002790F930001346C0170E46401CB9
:1033500001D008274FE0B0781946C0F3400220465C
:10336000FDF760FF0546401C44D0B07841071CD4EF
:10337000C0070DD068460094FFF7DCF9009900EB18
:103380008100D0F8001721F00201C0F8001707E013
:1033900000217378204600910A460191FFF7C3F897
:1033A000164920466431FEF791FCB078800718D5A5
:1033B0001348317800EB8500D0F81025114B1A40E6
:1033C000C0F810254FF47C524FF4403302EA042237
:1033D00003EA01410A43D0F810150A43C0F810254A
:1033E00009E008EB0500327810F8581F41EA821115
:1033F000017000E004273846BDE8FC81F804002095
:1034000000600040FFC0FCFF10B5FFF7CBF90028BB
:1034100000D0012010BD000070B5194D95F86A006C
:1034200008B1082070BD0020411E2A18401CC0B2FF
:1034300082F830103028F8D300242046FDF7E4FE4F
:10344000641CE4B20C2CF8D30D490024E0204C6637
:10345000A1F868400B4981F8000401264020891F2B
:10346000C1F88002C1F800014FF4BE70FFF7F6F911
:103470000549F007C1F8040385F86A60204670BD6D
:10348000F804002006E000E000600040034890F8E7
:103490006A00002800D0012070470000F8040020D6
:1034A0000121B1EB507F01D101207047002070470E
:1034B00070B50D4600F002FC04000FD00020FDF7AF
:1034C0008FFB207920B10020FDF78CFB112070BD0F
:1034D0000120256020710020FDF784FB002070BDD5
:1034E00010B500F0EBFB002802D000210160017153
:1034F00010BD00002DE9FC47064600790C46154634
:1035000000EB4001DFF874A101EBC0020AEB820777
:103510009846397F11B10820BDE8FC87584951F819
:1035200020103068FFF7C4FF08B11120F4E7C7E9A5
:103530000058207B0128207802D8FFF7BCF801E072
:10354000FFF745F94FF00009CDF80090CDF8049051
:1035500020784B464A460121FEF7FEFF60784FF087
:10356000FF35FF2806D08046FFF7A5F84046FFF755
:1035700062F800E0A846A078FF2809D0002205469E
:103580000123CDF800901146CDF80490FEF7E4FF3A
:103590003079A17800EB400202EBC0020AEB820016
:1035A000C177E078FF2804D0FFF711F9E078FFF742
:1035B00042F83179E07801EB410202EBC1010AEBFC
:1035C0008101887730682378C0F80835C0F80C8509
:1035D000C0F81055A168C0F82415237B617B01B1A8
:1035E0000121012B04D0022B05D0032B08D105E0CB
:1035F00041F0020104E041F0040101E041F0060164
:10360000C0F854153379617903EB430505EBC30327
:103610000AEB830282F82010396811B10421C0F846
:1036200004130121C0F80015386808B33068227906
:10363000000B40B200284FEA421206DA00F00F00F9
:1036400000F1E02080F8142D03E000F1E02080F884
:1036500000243068000B40B200F01F0301FA03F2AF
:103660004009800000F1E020C0F88022C0F800216D
:10367000484687F81D9039774EE700006405002022
:10368000644B00002DE9FC410646007900EB400147
:1036900001EBC000154901EB8005286860B1306876
:1036A000000B41B201F01F0201209040490989003E
:1036B00001F1E021C1F880013768286810B10420C9
:1036C000C7F80803E87F0024FF2806D000230094F1
:1036D000012219460194FEF73FFFC7F80045306804
:1036E000FFF7FEFE2C77BDE8FC810000640500209A
:1036F0002DE9F04705460079884600EB400101EBD3
:10370000C0001549914601EB80040026607F10B18E
:103710001120BDE8F087206808B10120607798E8A3
:103720000E00D8F80C000027C4E90530C4E90312E4
:1037300084F82870A07FFF2801D0FEF7BCFFB9F104
:10374000000F02D06777062604E04246214628682B
:1037500000F098FB3046DCE7640500200149024890
:1037600000F00CBF90050020002000402DE9F04142
:103770000546007916460F4600EB40012D4A01EB45
:10378000C00102EB810494F82A1011B10820BDE8B1
:10379000F081294951F820102868FFF789FE08B107
:1037A0001120F4E739462846FDF730FA666038699B
:1037B000206030004FF001062FD03F7F4FF48E7114
:1037C0002868FFF715FD4FF4A2712868FFF710FD78
:1037D00028681A49C0F8041328684FEA4711000BFB
:1037E00040B2002806DA00F00F0000F1E02080F877
:1037F000141D03E000F1E02080F800142868000B9D
:1038000040B200F01F0206FA02F14009800000F108
:10381000E020C0F88012C0F8001128680421C0F828
:1038200000150020A061E06184F8290044F8140F1D
:10383000A675ACE790050020684B000080000200F0
:103840002DE9F047054600790B4600EB400101EBFE
:10385000C000234901EB8004284600F043F810B172
:103860001120BDE8F0874FF00008C4F82080A36065
:10387000626184F828804FF48E7647463146286886
:10388000FFF7B6FC28684FF00109C0F80890214600
:10389000286800F00FFE606800BBD5F800A00EE0BD
:1038A00094F8280008B10F2716E031465046FFF77C
:1038B0009AFC0028F4D02146504600F0FBFD216A16
:1038C00060698142F1D331462868FFF78CFC0028FB
:1038D000F9D02868C0F80C90C4F814803846C0E7C6
:1038E00090050020007900EB400101EBC000044985
:1038F00001EB80004069002800D0012070470000E3
:10390000900500202DE9F047044600794FF00009AA
:1039100000EB400101EBC000254901EB8007206866
:10392000C0F80095786880B120682249C0F8081373
:1039300020680121000B40B200F01F0291404009B5
:10394000800000F1E020C0F880112068D0F80C253C
:10395000D0F81485D0F80865D0F810554FF0FF3135
:10396000C0F81415C0F80C152068C0F80815C0F888
:103970001015501C02D01046FEF739FEB8F1FF3F7B
:1039800002D04046FEF733FE681C02D02846FEF700
:103990002EFE701C02D03046FEF729FE2068FFF78D
:1039A0009FFD87F82A90C7F80490BDE8F0870000D3
:1039B00090050020840202000149024800F08ABEFE
:1039C000BC050020002000402DE9F04105461646C8
:1039D00000790F46154A00EBC00102EB810494F810
:1039E000201011B10820BDE8F081114951F82010D4
:1039F0002868FFF75DFD08B11120F4E73946284635
:103A0000FDF73FF96660386920601EB1397F2846AE
:103A1000FDF752FE28680821C0F800150020A061BB
:103A2000E0610121606184F82010DCE7BC05002022
:103A30006C4B00002DE9F04704460E460079204902
:103A400000EBC00001EB800517463046FFF728FD6C
:103A500030B1204600F036F820B11120BDE8F087E3
:103A60001020FBE76F61AE604FF49076002731467F
:103A70002068FFF7CEFB4FF4AC7841462068FFF793
:103A8000C8FB2068AA686969C0F84425C0F84815D1
:103A9000206801218160686878B9B146494620688C
:103AA000FFF7B2FB064641462068FFF7ADFB064331
:103AB000F4D000B10F27002068613846CEE700003F
:103AC000BC0500200079054900EBC00001EB800037
:103AD0004069002800D0012070470000BC0500208C
:103AE0002DE9F04704460079274900EBC00001EBBF
:103AF000800720684FF00009C0F80095786880B111
:103B000020682249C0F8081320680121000B40B248
:103B100000F01F0291404009800000F1E020C0F851
:103B200080112068D0F80C25D0F81485D0F80865ED
:103B3000D0F810554FF0FF31C0F80C15C0F814152F
:103B40002068C0F80815C0F81015501C02D01046A7
:103B5000FEF756FDB8F1FF3F02D04046FEF750FD9C
:103B6000681C02D02846FEF74BFD701C02D0304680
:103B7000FEF746FD2068FFF7B3FC87F82090C7F8F2
:103B80000490BDE8F0870000BC050020100302008F
:103B90000449084490F93000082801DB01207047EF
:103BA00000207047F80400200449084490F93000D0
:103BB000082801D20120704700207047F804002037
:103BC000F0B40D46C16914468A884988954208D2E6
:103BD0008C4206D2866821462846B446F0BC1A4676
:103BE0006047F0BC7047000010B50C46017A05290B
:103BF00008D0407A38B1084808A102682046FEF78C
:103C000015F900E01AB106A12046FEF70FF920468B
:103C1000BDE81040FEF717B97801002025730000B9
:103C20000D0A000038B5C3880D46044633B114A010
:103C3000009015A216A12846FEF7F8F8217A05296A
:103C40001CD0607A48B1A088FEF7CCFE164951F826
:103C5000202016A12846FEF7E9F8A0880021FFF7EA
:103C600083F803461049207A143951F8202001B016
:103C70002846BDE830400EA1FEF7D8B838BD000098
:103C80001B5B306D000000001B5B313B33316D006E
:103C900025734C6F67732064726F707065642028A1
:103CA00025642925730D0A00780100202573000082
:103CB0003C25733E2025733A2000000003498842CA
:103CC00001D10348704700207047000000200040E9
:103CD000DC00002001680A684968914201D3881A13
:103CE00070478068801A0844401C7047F8B5154634
:103CF0000246C0691C460E46DDE9063781884088C9
:103D00008E420FD285420DD2891BA14200DA8CB2BD
:103D1000401B984200DA83B20097D76822462946B2
:103D20003046B847F8BD000070B5012670044FF06A
:103D3000E0210025C1F88001084C4010C4F8480378
:103D4000C4F8080366602F20FFF7A0FAA660044CB1
:103D50002F20A560FFF79AFAA57070BD00100140F2
:103D60000801002070B5054688690C4600284FF40C
:103D7000847128460AD0FFF73BFAD5F81805626A25
:103D8000E1688854606A401C606270BDFFF730FAD9
:103D9000D5F8180570BD1FB501238DF80030CDE9A9
:103DA0000121D0E90012684690471FBD1FB50123CD
:103DB0008DF800308DF808100192D0E900126846A5
:103DC00090471FBD70B50D4C0020D2B22070201D51
:103DD0000B4D0378EB5C1BB1001DFFF72BFE02E0DF
:103DE0000C30FFF72DFD08B1FCF762FE607800286B
:103DF00002D021780029FAD070BD000028010020EF
:103E0000C000002010B50C4601462068097849B171
:103E10000321204600F012FB2046BDE8104001219E
:103E200000F032B9027E0021521C0368D2B21B7C22
:103E30009342EED90276204600F072F90100E8D1F3
:103E400010BD000000B585B00A4601788DF800105D
:103E500041680191017A8DF80810C1680391007CD6
:103E60008DF81000044850F82210103850F8222025
:103E70006846904705B000BDE80400204870002067
:103E800008707047F8B50026044604204E620D46BF
:103E9000C4F80803C4F80861D4F808010090506819
:103EA00010B11068007801E095F82000C4F81C05F6
:103EB0005068012802D91068407804E0D0680128D1
:103EC00003D995F82000C4F81C05286818B104200F
:103ED000C4F80403F8BDD4F808010028FBD0C4F8E6
:103EE0000861D4F8080100902946204600F0B0FA95
:103EF0000028F0D1A87FFF28ECD0BDE8F840FEF7FD
:103F000066BC0000084900EB400001EBC001064818
:103F100010B5F838FFF750F9002803D0BDE810407D
:103F2000FCF7C6BD10BD0000D84A000070B50024E3
:103F30000E4D02E001D3072010E00C4804EB4406CC
:103F400005EBC6011838FFF737F930B9074860307C
:103F500000EBC6017838FFF72FF908B1FCF7A8FD90
:103F6000641CE4B2042CE5D370BD0000F8490000E5
:103F700010B51C4C86B004F168000FC88DE80F0026
:103F80006946A4F17000FFF7D5F8002828D14FF456
:103F900000711548FCF71FFA01212820FEF795FB58
:103FA00001212E20FEF791FB2E20FEF77AFB0F2039
:103FB000FDF7A6FE2E20FEF700FC0220FDF7A0FE76
:103FC00078340DF1040C94E80F008CE80F00002009
:103FD00001460090012301AAA4F1E800FFF7C0F810
:103FE00006B010BD504A00005802002070B5C1F361
:103FF000C703C3EBC314C1F3C7050444C5EBC5161F
:1040000030442844084D2344074C405D074D01F0DF
:1040100007011C44695C01238B400AB1184300E08E
:104020009843207070BD000058020020D64900005F
:104030002DE9F0438618DDF81C908046802E15D2BD
:10404000CF18202F12D2CDB20EE000BF08F0FF042F
:1040500006E04A4629462046FFF7C8FF641CE4B242
:10406000A642F6D86D1CEDB2AF42EFD8BDE8F083A2
:104070002820FEF716BB2820FEF79FBB0148FFF75C
:10408000A9B80000E04900002DE9F0410E460546C0
:10409000002700202C68FCF7A3FD3EB928680068C3
:1040A00020B1BDE8F0410020FCF79CBD0022214674
:1040B0006868FEF76FFF08B12760F2E70020FCF7A1
:1040C00091FD2068406928B3206846691022314676
:1040D0006069FCF792F960B105F1080805F10C0080
:1040E000FFF7D0FA2B460D4A31464046FDF756FE03
:1040F0006661277628680068016809B1806888478A
:10410000284600F00DF8010006D0284600F096F988
:104110000126BEE7261DD9E7BDE8F081053E000077
:104120001FB550F80C2B117E1268D26802EB0111FA
:104130000C790B688A68097BCDE90034CDE902214E
:1041400000226946FFF7D4FA04B010BD2DE9F84FFC
:10415000204D9246894606469846012269461846F1
:10416000AF68FCF7EFFF58B3009800210446801CAD
:1041700009E000BF00EA07035AF8212005EB83039A
:10418000401C491CDA604145F4D34FEA164AFDF75A
:104190003BF94AEA0041601C384005EB80003C4096
:1041A00005EB8402C160D06866F3C50068F389102E
:1041B00069F39F2020F00300401C20F00400D06031
:1041C00095F8200402E000BFFEF732FC0028FBD186
:1041D000BDE8F88F1808002010B5224C207830B3C5
:1041E00001284FF00002204811462CD0FDF77AF943
:1041F00008B1FCF75DFC002201211B48FDF772F9B4
:1042000008B1FCF755FC012202211748FDF76AF9B5
:1042100008B1FCF74DFC1448FEF706F82078401C66
:10422000C0B22070022801D90020207010BD0122E8
:1042300000210D48FDF756F908B1FCF739FC0022C2
:1042400007E00022E0E7FDF74DF908B1FCF730FC8C
:10425000012201210448FDF745F90028F1D0FCF7BF
:1042600027FCEEE708000020804900002DE9F84F08
:104270001D4C00256846D4E901A6FDF7D1F80027BA
:1042800038B30023009A61681CE0D1F800C00846EA
:10429000944503D9ACEB02020A6015E0A2EB0C02D4
:1042A00063440760D0F80CC0C1698146BCF1000FBF
:1042B00008D006EB030828F07F48C0E9018CC9F854
:1042C0001C5005460029E0D128466160FDF7E4FA5C
:1042D00003E02846FDF7E0FA10B15046FCF7F0FF86
:1042E000E770BDE8F88F0000080100200D4B10B505
:1042F000596831B102680C68A24204D8A21A0A6057
:10430000C161586010BD0B4603E00B46C969121B22
:1043100021B10C689442F8D3A41A0C600260C16108
:10432000D86110BD080100202DE9F041144E7768D6
:104330003D462C4603E0844204D02546E469002C27
:10434000F9D11BE0D4B1A5420BD1F869706040B936
:104350000C49012088600021B160F0702F20FEF729
:1043600095FF2168E069E86110B1026811440160BD
:104370007068874202D00120BDE8F0810020FBE791
:104380000801002000100140F8B5064600240D4643
:104390002046FCF725FC684600F070FA68B105700D
:1043A000084946609DF8000048700020FCF71AFCA0
:1043B0001420FCF76DF92046F8BD04240020FCF71A
:1043C00011FCF8E7000600202DE9F041194D6C685A
:1043D000002C2CD0184800270068A968B846401A5D
:1043E00020F07F462068B0420CD82146361A074498
:1043F000E469087C20B181F81080886949698847A0
:10440000002CEFD129786878814206D1401CC0B2D7
:104410006870022801D185F80180064869780C305F
:1044200040F82170BDE8F0411420FCF731B9BDE837
:10443000F0810000080100200415014000680B46CF
:1044400000684268002A02D0816818461047704709
:1044500038B5D0F818258DF800208B694A6A9A4241
:1044600003D29DF800304C69A3544B6A5B1C4B622D
:1044700091F828405A1C3CB10C69944200D90A6159
:104480008C69944200D98A610D69954202D9C96844
:10449000895C04E08C69944204D991F82010C0F83A
:1044A0001C1503E0AB4201D3A34201D2012038BD69
:1044B000002038BD70B50C4605464FF48E71FEF7EE
:1044C00097FE216AA068415C206A401C2062C5F802
:1044D0001C1570BD1FB500228DF800200291816867
:1044E00001914261D0E90012684690471FBD00006B
:1044F0001FB50A4601788DF8001041680191017AD4
:104500008DF80810C0680390044850F8221008384D
:1045100050F82220684690471FBD0000CC000020C4
:1045200001490120087070472801002010B588B0AB
:10453000044620220E496846FBF734FF062000900F
:10454000C01F0190029003904FF0EB7006900CB1E9
:10455000084A00E0002269460748FDF733FC08B12D
:10456000FCF7A6FA0448001F447008B010BD000014
:10457000D4530000214500002C0100202DE9FF4705
:104580000C4605464FF40071FEF738FE01274FF444
:104590000178002618B34FF4927949462846FEF771
:1045A00022FEE0B149462846FEF722FEC5F8088300
:1045B00094F8290000B96F6002208DF80000D5F84A
:1045C0008004C5F880040390A0690290E06801901F
:1045D000A661E661D4E900126846904728E004210C
:1045E0002846FEF70BFE18B34FF484712846FEF7F9
:1045F000FAFDE8B121462846FFF7B4FB616AA069DD
:10460000884215D1E06938B1E268616AA061206929
:10461000E6616662E06008E094F8290000B96F6026
:10462000C5F80883A661E268616A2046FFF7B3FB1C
:104630004FF48E7841462846FEF7D5FD78B1206AC2
:104640006169884202D294F8280020B34146284686
:10465000FEF7CEFD616911B12046FFF73BFF4FF435
:10466000A27841462846FEF7BEFD002818D04146F4
:104670002846FEF7BDFD94F8290000B12F60A0691F
:1046800000280DD0A661E268616A04B02046BDE84A
:10469000F047FFF780BB21462846FFF70BFFDEE718
:1046A000BDE8FF871FB50A4601788DF80010416804
:1046B0000191017A8DF80810C0680390044850F801
:1046C0002210083850F82220684690471FBD00008D
:1046D000CC0000202DE9FF410C464FF492770546AF
:1046E0003946FEF791FD0026C0B139462846FEF74F
:1046F00090FD02208DF80000D5F88004C5F88004F4
:104700000390D5F83C058DF80800E0680190A6619B
:10471000E661D4E900126846904723E04FF48877B9
:1047200039462846FEF770FDE0B139462846FEF7C7
:1047300070FDD5F83C15A069884213D1E06960B1DD
:10474000E268D5F8000220F02000C5F80002E06918
:10475000A0612069E661E06001E0A661E2682046B0
:10476000FFF724FB4FF4A27739462846FEF74CFDAD
:1047700060B139462846FEF74CFDA06930B1A6610C
:10478000D5F83C152046E268FFF710FB4FF4907710
:1047900039462846FEF738FD002813D0394628460A
:1047A000FEF737FD606900280CD0D5F84C058DF870
:1047B00000608DF80800A06801906661D4E90012DD
:1047C00068469047BDE8FF812DE9F05F8346DDE94B
:1047D0000A4A994690460D460846012703E000BF65
:1047E000B0FBF8F07F1C4045FAD2B94500D94F46DE
:1047F0005FEACA7012D18CB15FEA8A7002D5B9F152
:10480000000F01D0202607E0302605E0314658464B
:10481000641EFCF7DBFC0CB1A742F7D35FF0010686
:10482000B9F1010F02D9A9F1010903E0B5FBF6F0D6
:10483000404502D306FB08F6F2E7DFF83C9000BFE4
:10484000B5FBF6F000FB165519F800105846FCF7BA
:10485000BDFCB6FBF8F6002EF2D15FEACA7009D0B3
:10486000002C07D0A74205D220215846641EFCF731
:10487000ADFCF5E7BDE8F09F765300000A494A78A1
:104880008B78521CD2B2934200D100220B78934213
:1048900001D1002070470270487800EB400001EB26
:1048A000C000001D70470000000600202DE9FF4FEA
:1048B000487883B0101AC0B20C46009049689846F8
:1048C00011F82000C01D4FEAD009202A01D000278E
:1048D00034E0B8F80000217800EB51003AE00026FF
:1048E00028E000250098022101EB800B109807FBBF
:1048F000096A384401906168C5F1070231F80B007C
:10490000A1680144012011F80A10904001420BD027
:10491000B8F8000005EBC601084481B20198119B6C
:1049200082B20398FFF74CF96D1CEDB2082DE2D36B
:10493000761CB6B24E45D4D37F1CBFB22078B842A5
:10494000CDD86168009811F82000E1780144B8F8EA
:1049500000000844A8F8000007B0BDE8F08F000090
:10496000D001002005000100000015000800000033
:104970000000130002000200000013000200020009
:10498000713F00007D400000ED3F0000314000001D
:104990002D3F00001D140000053F00000000002016
:1049A00000001400000016000100000000001700C5
:1049B00000001900010000000000190000001900AB
:1049C00001000000000019000000170001000000B5
:1049D0000338FDD8704707060504030201000000F4
:1049E0003C020020F05500000000000000300040B4
:1049F0000000000000000000714000000000000006
:104A0000000000002C000020010000000000000059
:104A10007140000000000000000000003C00002089
:104A200001000000000000007140000000000000D4
:104A3000000000004C000020010000000000000009
:104A40007140000000000000000000005C00002039
:104A5000010000000000000077400000000000009E
:104A6000000000006C0000200100000000000000B9
:104A70007740000000000000000000007C000020E3
:104A8000010000000000000077400000000000006E
:104A9000000000008C000020010000000000000069
:104AA0007740000000000000000000009C00002093
:104AB00001000000000000002F2DFF2C07FF000068
:104AC00000000080000000001D0000200C0000001D
:104AD0000000000000000000714000000000000025
:104AE00000000000084B0000010000000000000072
:104AF000714000000000000000000000184B0000A2
:104B00000100000000000000AC00002001000000D7
:104B10000000000000000000AD00002001000000C7
:104B200000000000000000000D0E0F100B0C181903
:104B30005804002078040020A40400200B00030087
:104B4000090E00000C000300090E0000180003000D
:104B5000090E000019000300090E000000000050BB
:104B600000030050450700005D370000B939000020
:104B70000000C08080808080800000C000000000B5
:104B80000000A0A0A0A000000000000000000000A5
:104B90000000222222FF242424FF444400000000BD
:104BA00010384480C060380C0484C47810000000C1
:104BB0000000E3A2A4E808102629498600000000AE
:104BC00000003848404020508986463900000000E7
:104BD00000008080808000000000000000000000D5
:104BE00020204040808080808080808080404020E5
:104BF00080C0402020202020202020202020408015
:104C00000000C0E0C0000000000000000000000044
:104C100000000008080808FF080808080000000055
:104C20000000000000000000000000808080800084
:104C30000000000000000000F8000000000000007C
:104C40000000000000000000000000C000000000A4
:104C500000000302040408081010202040408000D7
:104C600000003844C682828282C6443800000000B8
:104C700000003070B0303030303030300000000094
:104C8000000078C8840408103060C0FC00000000F8
:104C9000000070C8080830080484C87800000000CC
:104CA00000000C0C1414244444FE04040000000012
:104CB00000007C8080F88C0404048C7800000000E4
:104CC00000000810207844868286C4780000000026
:104CD0000000FE06040C0810102020400000000018
:104CE000000070C888C8708884848878000000003C
:104CF000000078C4868284C4781030600000000010
:104D00000000000000C00000000000C00000000023
:104D10000000000000C00000000000C04040800013
:104D2000000000020C3060C06018060200000000A5
:104D3000000000000000FF0000FF00000000000075
:104D400000000080601806020C30C08000000000E7
:104D50000000708888081830202000200000000023
:104D60000000000078489CA4A49C403C0000000087
:104D7000000000000C000C001400120032002300A0
:104D800021007F004080C080000000000000000083
:104D90000000F88C848CF884828286FC000000007D
:104DA00000003E62C080808080C0623E0000000043
:104DB0000000F88482828383828284F800000000ED
:104DC0000000F8808080F880808080F8000000007B
:104DD0000000F8808080F8808080808000000000E3
:104DE00000001E6140808F818141611E0000000033
:104DF000000083838383FF83838383830000000019
:104E000000008080808080808080808000000000A2
:104E10000000202020202020202020C000000000B2
:104E20000000868890A0C0A09088848200000000C6
:104E30000000808080808080808080F800000000FA
:104E400000000000C0C0C0C0A140B34092408C40F0
:104E50008C4088408040804000000000000000003E
:104E6000000081C1A1B191898D878381000000007C
:104E7000000000003E006300C18080808080808050
:104E80008080C18063003E00000000000000000040
:104E90000000F8848484F880808080800000000016
:104EA000000000003E006300C18080808080808020
:104EB0008480C38063003EC000000000000000004A
:104EC0000000F8848484FC908888848600000000B8
:104ED000000078C480C0700C048684780000000054
:104EE0000000FE1010101010101010100000000034
:104EF00000008282828282828282463C0000000020
:104F000000000000C08041804100610022002200BA
:104F1000160014001C000C0000000000000000003F
:104F2000000000008404C60C4208621823102310FD
:104F300013B014A01CE008400000000000000000B6
:104F40000000C362241C1818142662C1000000006F
:104F50000000C162261418080808080800000000B4
:104F60000000FE040C0810302040C0FE00000000CD
:104F7000E08080808080808080808080808080E071
:104F800000008040402020101008080404020300A4
:104F9000E02020202020202020202020202020E091
:104FA000000008000C00140016002200220041003E
:104FB000C1800000000000000000000000000000B0
:104FC000000000000000000000000000FE000000E3
:104FD0000000C060000000000000000000000000B1
:104FE0000000000000708808F88898E800000000C1
:104FF0000000808080B8CC848484CCB8000000009D
:105000000000000000709080808090700000000020
:105010000000040404748C8484848C7400000000F8
:105020000000000000708888FC808870000000008C
:105030000000704040E04040404040400000000020
:105040000000000000748C8484848C7404887000D8
:105050000000808080B8C8848484848400000000BC
:105060000000C00000808080808080800000000000
:105070000000600000606060606060606040C000D0
:10508000000080808098B0E0E0B0988808000000C0
:105090000000808080808080808080600000000030
:1050A00000000000000000000000FB80CCC0884031
:1050B00088408840884088400000000000000000D0
:1050C0000000000000B8C8848484848400000000CC
:1050D0000000000000708884848488700000000054
:1050E0000000000000B8CC848484CCB880808000AC
:1050F0000000000000748C8484848C740404040018
:105100000000000000B0C0808080808000000000AF
:105110000000000000384840380CCC780000000047
:105120000000404040F04040404040380000000057
:1051300000000000008484848484CC74000000009B
:105140000000000000C4444868283010000000003F
:1051500000000000000000000000D88049804900E5
:105160004D00350036003200000000000000000055
:105170000000000000C64C3810384CC6000000008B
:1051800000000000008484848484CC74048870004F
:105190000000000000F818302040C0F800000000B7
:1051A00060404040404080808080404040404060BF
:1051B00000008080808080808080808080800000EF
:1051C000804040404040404060404040404040803F
:1051D0000000000000000062528C0000000000008F
:1051E000020000000300100008002000060030004C
:1051F000080040000800500001006000030070003B
:1052000003008000030090000800A0000100B0002F
:105210000500C0000200D0000800E0000700F00018
:105220000400000106001001060020010700300103
:1052300006004001070050010700600106007001F0
:1052400007008001020090010200A0010700B001E8
:105250000800C0010700D0010500E0010600F001D0
:105260000900000207002002070030020800400287
:10527000050050020500600208007002080080026C
:10528000010090020300A0020700B0020500C00266
:105290000A00D0020800F002090000030600200303
:1052A0000A00300307005003070060030700700383
:1052B00007008003090090030E00B0030800D0032C
:1052C0000800E0030700F0030300000408001004D6
:1052D00003002004090030040700500403006004A8
:1052E0000500700406008004040090040600A00479
:1052F0000600B0040400C0040600D0040600E00468
:105300000200F0040300000505001005030020055D
:105310000A0030050600500506006005060070050D
:1053200006008005040090050600A0050500B005F4
:105330000600C0050600D0050900E00507000006CC
:105340000600100605002006030030060100400696
:1053500003005006070060060F217E02E0510000A6
:10536000704B000003000000E0050020000000007A
:105370000338FDD870473031323334353637383959
:105380004142434445460000000000000000000088
:10539000000000000000000000000000000000000D
:1053A00088530000A053000004000000010000002A
:1053B000000000007D3E0000000000000000000032
:1053C0000000000000000000CD290000A12900001D
:1053D00099290000FFFFFFFFFFFFFFFFFFFFFFFF17
:1053E000FFFFFFFF00000000000000000000D601EA
:1053F00007010000004040404040404040404141E3
:105400004141414040404040404040404040404099
:105410004040404040050202020202020202020233
:105420000202020202202020202020202020200230
:1054300002020202020290909090909010101010C0
:10544000101010101010101010101010101010105C
:1054500002020202020288888888888808080808F0
:1054600008080808080808080808080808080808BC
:105470000202020240000000F55300007761726EE4
:10548000696E670064656275670000001B5B313BF5
:1054900033306D001B5B306D000000001B5B313B47
:1054A00033316D001B5B313B33326D001B5B313B95
:1054B00033336D001B5B313B33346D001B5B313B81
:1054C00033356D001B5B313B33366D001B5B313B6D
:1054D00033376D00696E666F000000006572726F91
:1054E0007200000071756575652E6D5F6E72665F86
:1054F0007370695F6D6E67725F71756575650000C9
:10550000636C6F636B000000434C4F434B00000023
:105510004750494F544500005052530053504900E2
:1055200055415254000000005541525445000000BE
:10553000676678007077725F6D676D7400000000B9
:1055400062616C6C6F632E6C6F675F6D656D706F01
:105550006F6C0000617070000856000000000020B1
:10556000D00100005804000084560000D001002043
:10557000702A000084090000E454000000000003C9
:105580000055000000000000085500000000000069
:105590001055000000000000185500000000000039
:1055A0001C55000000000000205500000000000015
:1055B00028550000000000003055000000000303E3
:1055C00034550000000000004055000000000003BA
:1055D0005455000000000303540100204C0100203A
:1055E0005401002058070020C801002018000000C6
:1055F00030020020F00100200F0000000400000035
:1056000001000000A0010020211220428013B340BD
:105610002C10E0B2052AB1052AB005300DE2AEA289
:10562000A0C0222F40AF8117A61A092DB205DA0EAD
:1056300010DA1310DA18101358023A206C71DAD805
:1056400010DB580320D9100383A6A71220AA400814
:105650000326C85323DC541A7C041AD4041A840485
:105660001A94041A8C041A9C041AA4041AAC041A7E
:10567000B4041ABC041AC4041ACC0411043090D027
:045680000300000023
:0400000500000201F4
:00000001FF
