:1000000000000420E1020000090300000B030000CF
:100010000D0300000F0300001103000000000000AA
:1000200000000000000000000000000013030000BA
:100030001503000000000000170300001903000072
:10004000712C000071FA0200FD3200001B03000059
:100050001B0300001B030000DD2F00001B0300003A
:100060001B0300001B0300001B0300001B03000018
:100070001B030000FD3300001B0300001B030000F6
:100080001B0300001B0300001B0300001B030000F8
:100090001B0300001B0300001B0300001B030000E8
:1000A0001B0300001B030000DD3500001B030000E4
:1000B0001B0300001B030000000000000000000004
:1000C0001B0300001B0300001B0300001B030000B8
:1000D000110B03001B0300001B0300001B030000A7
:1000E0001B0300001B0300001B03000000000000B6
:1000F000000000001B030000000000001B030000C4
:1001000000000000000000000000000000000000EF
:1001100000000000000000000000000000000000DF
:1001200000000000000000000000000000000000CF
:1001300000000000000000000000000000000000BF
:1001400000000000000000000000000000000000AF
:10015000000000000000000000000000000000009F
:10016000000000000000000000000000000000008F
:10017000000000000000000000000000000000007F
:10018000000000000000000000000000000000006F
:10019000000000000000000000000000000000005F
:1001A000000000000000000000000000000000004F
:1001B000000000000000000000000000000000003F
:1001C000000000000000000000000000000000002F
:1001D000000000000000000000000000000000001F
:1001E000000000000000000000000000000000000F
:1001F00000000000000000000000000000000000FF
:1002000010B5054C237833B9044B13B10448AFF350
:1002100000800123237010BDF003002000000000C7
:10022000183D03000C4B43B10C480D4910B5AFF31A
:1002300000800C48036823B910BD0A48036833B92D
:100240007047094B002BF7D0BDE810401847064B0C
:10025000002BF5D0184700BF00000000183D030038
:10026000F40300203003002000000000154B002B99
:1002700008BF134B9D46A3F5803A00218B460F46DD
:100280001348144A121A30F06DFF0F4B002B00D0A8
:1002900098470E4B002B00D0984700200021040007
:1002A0000D000D48002802D00C48AFF3008030F05C
:1002B000E1FE2000290004F043FA30F0B5FE00BF53
:1002C0000000080000000420000000000000000002
:1002D000F003002018910020000000000000000042
:1002E0000649074A074B9B1A03DD043BC858D05008
:1002F000FBDC04F0BFFAFFF7B9FF0000C43D0300C8
:1003000000000020F0030020FEE7FEE7FEE7FEE726
:10031000FEE7FEE7FEE7FEE7FEE7FEE7F0B595B095
:10032000002415460F4608461E4602F0CDF8384612
:1003300023460822089505A91A9D09960D950A9449
:100340008DF82C400C9402F013F99DF814300798A6
:1003500006998DF8114003F00302012A02900391DF
:1003600028D0022A04D0384602F0B2F815B0F0BD09
:10037000BDF81650C3F3C2038DF81030C5F38915CC
:100380000826082D2C4628BF0824334622460EA9ED
:10039000384602F0EDF82D1B214608AB02AA0EA844
:1003A000264400F0A7FE002DEBD1384602F090F86D
:1003B00015B0F0BDBDF81460059DC6F38316C3F3F8
:1003C000C204B2000EA9384608238DF81040C5F3C8
:1003D000952502F0CDF808AB0093324628460EA9C9
:1003E00002AB00F0E1FDBEE7014B01221A7070473D
:1003F00050040020704700BF00B583B0044B009349
:10040000044A4023FFF78AFF03B05DF804FB00BFF6
:10041000190400001004002038B50E480E4D037872
:100420000E4CEB5C00252570D2B253B90C3003F0B2
:10043000B9FB58B90A4B1B7813B12378002BFCD0B9
:1004400038BD043003F03EFE0028F3D001F0F2F98D
:10045000F0E700BF00000020D87800205004002002
:100460000C04002030B51348134A0378D35C89B0DC
:10047000E3B90C3003F018FB104D0FCD6C460FC4E0
:1004800095E80F00062584E80F004FF08053002206
:10049000694608480095069302F0B4FA08B101F0E5
:1004A000C9F9074B00221A7009B030BD043003F0BF
:1004B00089FDE1E700000020D878002064250300D2
:1004C0000C04002030B50D4D0FCD89B06C460FC423
:1004D00095E80F00062584E80F004FF08053084A86
:1004E000084800956946069302F08CFA08B101F0BD
:1004F000A1F9054B01221A7009B030BD6425030033
:10050000E9030000000000200C04002010B5054C99
:10051000FFF7D8FF2046042100F0DEFC01236372C0
:1005200010BD00BF14000020F0B53248324D85B038
:1005300001F0D8F9314801F0D5F96A68AF6802EAEC
:100540000701CB1C05EB8303541C187810F0030F34
:1005500000F003060ED010F0040016D0012E37D0A4
:10056000022E02F10200ECD15A8800EB921202EA4C
:100570000701E6E74007F1D459881A8804EB911483
:1005800004EB921202EA0701DBE705EB8101531C41
:10059000C96801913B4005EB830301F00301DB686F
:1005A0000293012902F102041CD0022918D1BDF8DE
:1005B0000630BDF80A60C3F38913033304EB9304D8
:1005C0000E4801F09DF900B16C60304605B0F0BDF9
:1005D0001B880232C3F383131A4402EA0701B0E70F
:1005E0000646EDE7BDF80430BDF80A60C3F3831397
:1005F0001C44E5E7144A0020FC090020104A0020B2
:100600002DE9F04F214B224844F2200144F2180614
:1006100044F21404002283B040F6FF759A511A6028
:100620005A609D601A515A5401F004FF019040BB7A
:10063000184E194FF61BF60823D0DFF860900546D8
:1006400082460024A34607EBC5085D454FF014021F
:1006500008D057F83B10D8F8000031F0CBF800284C
:10066000C8BF01340BF1010B5E45EED1A9F8005073
:100670000135AE42C9F804A0A9F8024009F10C09FD
:10068000DFD1019803B0BDE8F08F00BFFC09002066
:100690008C3D03008C3D03001C3D0300340300200F
:1006A00021B9124A02EBC0000068704730B410490B
:1006B0000E4D491BC9080ED00E4B5A88824218BFF6
:1006C000002205D10FE0DC89844203F10C0305D040
:1006D00001329142F7D1002030BC704705EBC200D7
:1006E000006830BC70472846FAE700BF1C3D030095
:1006F0008C3D030034030020094B013903EBC0009B
:1007000003290BD8DFE801F0020806040220704735
:100710004079704700797047042070470020704787
:100720001C3D03002DE9F04FA14C94E80C009A42C7
:1007300085B068D044F218030022E250BFF34F8F17
:100740006368A56827680EE011F0040623D001F065
:100750000301012951D0022903D15288023303EB4E
:1007600092139F4212D903EA0500C21C04EB8202D5
:1007700011788E07E8D14807E9D4518812880133EF
:1007800003EB911303EB92139F42ECD800206760B8
:1007900005B0BDE8F08F04EB80005A1C2A40C76802
:1007A000019704EB8202FFB2D268029207F00302C3
:1007B000022A03F102092AD0012A00F0948044F2AF
:1007C0001003E55835B12B6828469B6898476D683B
:1007D000002DF8D1774B5A68012A06D91888764936
:1007E000000440F0020000F0EFF860682368C01ACF
:1007F00018BF012005B0BDE8F08F12880233C2F3A4
:1008000083121344ADE7002005B0BDE8F08FBDF8BA
:1008100006306A48C3F3891BBBF5207FDA46A8BFC0
:100820004FF4207A6AF38F130AF10801ADF806300D
:1008300001F002FEC7F3C20780460028BFD001F0D6
:1008400043FE3346082201A9404601F063FE25EA33
:10085000090301339B009A4540F29D80002B40F034
:1008600084805FFA8AF208235549404601F052FE1F
:100870000BF1030609EB960644F21803E358002B2C
:100880006FD144F21003E558F5B1DFF838916B7A77
:10089000BBB1BDF808302A7A03EB430309EB8303AD
:1008A00002EB42029B68052F23FA02F308BF0327DD
:1008B00003F007039F424146284602D82B681B6875
:1008C00098476D68002DE2D1404601F001FE0020FE
:1008D00000F0C0FF44F21803E35803B9666000203B
:1008E00000F0C0FF81E7BDF804703448C7F38313FC
:1008F000062B28BF0623991C63F389178900ADF8DE
:10090000047001F099FDC7F3C207804600283FF448
:1009100056AF01F0D9FD3346082201A9404601F047
:10092000F9FDBDF8043013F4707F3FD0B3464FF0AB
:10093000080A05EA09010331534604EB8101042248
:10094000404601F0E7FDBDF804300BF1010BC3F3A5
:10095000831309F101065B450AF1040AB146E8D8A0
:100960008AE7404601F0B4FD3FE705EA0901AAEB3A
:100970000306DDB2033104EB81012A464046F6B29C
:10098000082301F0C7FD324605F108030C49404633
:1009900001F0C0FD6CE705EA0901033104EB8101B8
:1009A00052460823404601F0B5FD61E74E4663E735
:1009B000FC09002088030020902503008C3D0300E3
:1009C000080A0020340300202DE9F843DFF8DC900A
:1009D000074600208846D9F8085000F03BFFD9F8B8
:1009E0000820D9F80430D9F80060134401339B1B68
:1009F000012B56D82C4C0121204600F049FFFFF76F
:100A000093FD0146204600F043FF99E80A00D9F81B
:100A10000820134401335B1A012BECD901240A404E
:100A2000033244F004036FF3891349F82230023192
:100A30000020C9F8001000F015FF00211A4800F04E
:100A40001BFF80F3100033192B4009EB83030004D4
:100A50003540033540EA1740D86019F8253067F370
:100A6000C50309F8253039F825306FF3891329F8C3
:100A7000253059F8252068F39F22134664F30103BB
:100A80006FF3820349F8252044F2200209F825304B
:100A900019F802301BB1FFF745FE0028FBD1BDE875
:100AA000F8833146BAE700BF184A0020FC0900204D
:100AB0002DE9F04FDFF82CB183B08246002002F11F
:100AC000030891460191DBF8085000F0C3FEDBF803
:100AD0000810DBF80420DBF800700A444FEA98089D
:100AE0000132D21B08F10206964275D93B4C012116
:100AF000204600F0CDFEFFF717FD0146204600F02E
:100B0000C7FE9BE80500DBF808100A440132121A00
:100B10009642ECD8014003310622064468F39F5206
:100B200000204BF82120CBF8006000F09BFEDBF8A2
:100B30000840B81C28400134241AA4000330A14501
:100B40000BEB80003AD801994A4630F0E6FA0021D2
:100B5000224800F091FE80F310007A1C2A400BEB33
:100B6000820200043D40033540EA1A40D0601BF881
:100B700025206AF3C5020BF825203BF825206FF3EA
:100B80008F122BF825200BEB85020220518869F388
:100B90008F1151801BF8252060F301026FF3820250
:100BA0000BF8252044F220021BF802301BB1FFF79E
:100BB000B9FD0028FBD103B0BDE8F08F019E2246AD
:100BC000314630F0AAFA334623441946A9EB040211
:100BD000034830F0A2FABAE738469BE7184A0020EB
:100BE000080A0020FC0900202DE9F047354C80461A
:100BF000002092468946A56800F02CFEA268636832
:100C0000276813440133DB1B022B59D82E4E0121D8
:100C1000304600F03DFEFFF787FC0146304600F00D
:100C200037FE94E80A00A268134401335B1A022BD2
:100C3000EDD901260A40033246F0040366F3891316
:100C400044F8223003310020216000F00BFEBB1C71
:100C50002B4004EB830300211B48C3F80CA000F0D9
:100C60000BFE80F31000BB192B4004EB8303000440
:100C70003D40033540EA1840D86014F8253068F349
:100C8000C50304F8253034F8253066F3891324F8B9
:100C9000253054F8252069F39F22134666F301039B
:100CA0006FF3820344F8252044F2200204F8253033
:100CB000A35C1BB1FFF736FD0028FBD1BDE8F08730
:100CC0003946B6E7FC090020184A00202DE9F04F0C
:100CD0003C4C83B080460020934601938946A66829
:100CE00000F0B8FDA2686368276813440133DB1B7A
:100CF000032B64D8344D0121284600F0C9FDFFF7CD
:100D000013FC0146284600F0C3FD94E80A00A268DF
:100D1000134401335B1A032BEDD901250A4003323A
:100D20004FF0020A45F0040304316AF389130020EE
:100D300044F82230216000F095FD07EB0A0EFA1C02
:100D40000EEA060E324004EB820204EB8E0E019B8B
:100D50001D48CEF80CB00021D36000F08DFD80F36B
:100D600010007A19324004EB820200043E40033640
:100D700040EA1840D06014F8262068F3C50204F851
:100D8000262034F826206AF3891224F8262054F805
:100D9000262069F39F22134665F301036FF3820354
:100DA00044F8262044F2200204F82630A35C1BB14C
:100DB000FFF7B8FC0028FBD103B0BDE8F08F39463F
:100DC000ABE700BFFC090020184A00202DE9F04FD6
:100DD0003F4C83B08046002089460193A668934625
:100DE00000F038FDA168636827680B440133DB1B02
:100DF000042B6BD8374D0121284600F049FDFFF741
:100E000093FB0146284600F043FD94E80C00A168DE
:100E10000B4401339B1A042BEDD9012511404FF0EF
:100E2000030A033145F0040305326AF389130020F5
:100E300044F82130226000F015FDB81C07EB0A0EC3
:100E400030400EEA060E3A1D324004EB800004EBFF
:100E50008E0E04EB8202019BC0F80CB00021CEF88C
:100E60000C301C480C9BD36000F006FD80F3100092
:100E70007A19324004EB820200043E40564440EAB4
:100E80001840D06014F8262068F3C50204F8262024
:100E900034F826206AF3891224F8262054F82620F4
:100EA00069F39F22134665F301036FF3820344F84D
:100EB000262044F2200204F82630A35C1BB1FFF781
:100EC00031FC0028FBD103B0BDE8F08F3A46A4E71F
:100ED000FC090020184A00202DE9F04144F21003DB
:100EE0002D4DEC580746002054B1237A834248D058
:100EF000234602E01A7A824243D05B68002BF9D184
:100F000044F210033872EA58002A41D052687A60DD
:100F1000EB585F60214E224B9B1BDB0836D0214DE6
:100F200006EBC30E4FF0070CF47997F80880AA6817
:100F30008C4208EB480828BF0C460CFA08F304F072
:100F4000070422EA030304FA08F42343C3F3C202AA
:100F5000C3F38214A24238BF224603F00704A24220
:100F600038BF2246C3F34224A24206F1080638BF26
:100F70002246B645AB606A6005F10C05D4D1BDE8E8
:100F8000F08101300A28AFD14FF0FF30BDE8F08189
:100F9000EF507A60BEE700BFFC0900201C3D030053
:100FA0008C3D0300340300202DE9F04784B01D463A
:100FB0000C9C002394F80C802373EB8881460E462A
:100FC0001746002B3BD1297A05290FD06B7A002BCD
:100FD0003DD1404BA88853F821A00021FFF760FBCA
:100FE000524603463C49204600F00AFD062F0FD822
:100FF000DFE807F0484D535A04633900F168B068E0
:1010000096E80C00019100904946204600F0F8FC5B
:101010002B7A052B05D06B7A5BB93049204600F05E
:10102000EFFC204600F0E0FC84F80C8004B0BDE842
:10103000F0872B4A2B49204600F0E2FCEDE7284AD6
:1010400000922949294A204600F0DAFCBBE7A8882B
:10105000FFF752FB264B234953F82020204600F08F
:10106000CFFC297AB5E77069316996E80C000390E6
:10107000B068F76802918DE881004946204600F08B
:10108000BFFCC5E74946204600F0BAFCC0E732681D
:101090004946204600F0B4FCBAE7494696E80C0001
:1010A000204600F0ADFCB3E7B16896E80C0020469E
:1010B0000091494600F0A4FCAAE7B068F7683169DE
:1010C00096E80C0002918DE881004946204600F028
:1010D00097FC9DE730260300202603002C26030002
:1010E000142603001C260300FC250300F42503003E
:1010F000BC250300082900D970472DE9F04F1D4693
:10110000904600232A7B2B7385B0B8F806300392F3
:1011100007460E46002B6BD198F80810052911D010
:1011200098F80930002B6BD13C4BB8F8040053F809
:1011300021400021FFF7B4FA2246034638492846E9
:1011400000F05EFCDFF8F8B0DFF8F8900024A6426B
:10115000494628463ED93A5D013400F051FC082C3E
:10116000F5D13049DFF8E090DFF8E0B0284600F034
:1011700047FC002411E017F804A02FF09FFF504413
:101180005946437813F0970F14BF52462E22284633
:10119000013400F035FC082C08D0A6424946284608
:1011A000E9D8013400F02CFC082CF6D198F808306E
:1011B000052B02D098F80930A3B91B49284600F046
:1011C0001FFC284600F010FC9DF80C302B7305B076
:1011D000BDE8F08F01345946284600F011FC082C78
:1011E000B5D1BEE7114A1249284600F009FCE4E7F0
:1011F0000E4A00920F49104A284600F001FC8BE786
:10120000B8F80400FFF778FA0C4B094953F820208E
:10121000284600F0F5FB98F8081085E73026030013
:1012200020260300EC2503002C26030014260300CF
:101230001C260300FC250300F4250300BC25030045
:10124000E8250300E025030028260300F02503001D
:10125000074B1B5C1F2B86BF03F01F0305494FF094
:10126000A041012202FA03F3C1F80C35704700BF18
:10127000A026030000030050074B1B5C1F2B86BFFA
:1012800003F01F0305494FF0A041012202FA03F3C6
:10129000C1F80835704700BFA026030000030050C6
:1012A0004FF0A04310B44FF480404FF400544FF47B
:1012B00000414FF48032C3F80845C3F80805C3F86D
:1012C0000815C3F808255DF8044B70470B2809D0B2
:1012D0000C2809D0182809D019280CBF03204FF07A
:1012E000FF30704700207047012070470220704790
:1012F000014B185C704700BF9C260300C20770B406
:101300000ED483070AD54FF0A0430C22C3F82C2734
:10131000C3F83027C3F86027C3F8642770BC704750
:101320004FF0A04303224FF400564FF480454FF492
:1013300000444FF48031C3F83427C3F83827C3F88A
:101340003C27C3F84027C3F80865C3F80855C3F81D
:101350000845C3F80815D4E708B500F047FA00F0CF
:1013600043F8002001F0DEFABDE8084001F08EBB32
:1013700008B500F091F8FCE762B6704772B67047A6
:1013800010B582B002AC002304F8053D019320465D
:1013900001F0ECFA9DF80330032BF8D904210DEB92
:1013A000010001F0EDFA10B9019802B010BD002063
:1013B00002B010BD08B511F0E1FDC0EB00108002D5
:1013C00008BD00BF38B50D46144601F0ABFB2946F9
:1013D0002046BDE8384001F075BB00BFEFF3058043
:1013E000003018BF0120704708B50DF01BFA48B94E
:1013F000054B1B7813B9054B1B781BB1BDE80840A2
:101400000DF016BA08BD00BF2401002028010020FD
:101410002DE9F04706460D460DF004FAF8B1F5B196
:10142000DFF86CA0194FDAF80000DFF868804FF0A1
:101430000009C0F10804AC4228BF2C4631463844AC
:1014400022462FF06AFEDAF8000020440828A5EBB7
:1014500004052644CAF8000003D0002DE9D1BDE8F8
:10146000F087D8F80430022B05D8CAF80090002085
:10147000002DDED1F3E7B8F8003004491B04024622
:1014800043F00300FFF714FBEFE700BF204A002002
:10149000284A0020D003002010B50C4C22682AB145
:1014A0000B4B5968022906D800232360FFF73AF94D
:1014B0000028FBD110BD18880649000440F0030045
:1014C00092B2FFF7F5FA00232360EFE7284A0020E5
:1014D000D0030020204A00200378022B00D9704757
:1014E0000DF0B4B910B44FF010234FF080515B6988
:1014F0000A6949690D4C581C0CBF4A431A464FF003
:1015000080514FF010235B69086922614A69591CB8
:1015100008BF02FB00F3A3F54043E3600022044947
:1015200002485DF8044B00F08DBD00BFDC030020D5
:10153000C42803004FF48040704700BF022070476A
:10154000012830D82DE9F0415C18B4F5804F84B003
:101550002FD28AB353B31E460C46074601210C23F3
:101560000846904602948DE888004CF6C902DF23B5
:10157000039611F073FC4FF010224FF08053556921
:1015800019695B696A1CA4F5404408BF03FB01F5B7
:1015900004EB87312944324640462FF0BEFD00203F
:1015A00004B0BDE8F0816FF0380070476FF00C00B8
:1015B000F6E76FF01600F3E76FF00B00F0E700BFFF
:1015C00001283FD8F0B55C18B4F5804F87B03FD202
:1015D000002A40D09C0838D00C46074601211E4600
:1015E0000C23084602948DE88800154640F26513E6
:1015F0004CF6C902039611F031FC4FF010224FF067
:101600008053526919695B69501CA4F5404408BFB6
:1016100003FB01F204EB873414440DF01FF900289A
:10162000FBD105900DF00AF90598009033462A4643
:1016300021460A4800F038FD0DF010F90028FBD1D2
:1016400007B0F0BD6FF0380070476FF00C00F7E79F
:101650006FF01600F4E76FF00B00F1E7DC030020F9
:10166000012834D82DE9F0414FF010224FF080537B
:1016700055691A695B69DFF85C80691C08BF03FB68
:1016800002F505EB8035A5F5404582B0064605F527
:1016900080470DF0E3F80028FBD101900DF0CEF863
:1016A0000198012203462946404600F0B7FD0DF09F
:1016B000D5F804460028FAD105F58055BD42E8D199
:1016C00030460DF0D1F8204602B0BDE8F0816FF051
:1016D00038007047DC030020704700BF30B5154A62
:1016E00087B0126804924FF0102304255C694FF014
:1016F0008053611C1A695B6908BF03FB02F4A4F5FF
:101700008044012108238DE838000846BE234CF6AA
:10171000C90211F0A3FB21462A4605A82FF0FDFCC3
:101720002A4605A804A92FF0E9FCB0FA80F0400988
:1017300007B030BDAC26030070B54FF010234FF05A
:1017400080555B692C696D695E1C18BF1C46A2F54B
:101750007F5308BF6C433C3B84B01C44A1B198B19B
:101760000D460823012106468DE838000846BE23B1
:101770004CF6C90211F072FB2A462146304604B0ED
:10178000BDE870402FF0C9BC04B070BD0048704780
:10179000B02603000249002280E80600704700BF1F
:1017A00004000307B0F5A27F00D070470DF05EB8CB
:1017B00008B5FFF7EBFFBDE8084001F0C1BE00BF70
:1017C00008B5FFF7E3FF01F0C9FE00B108BDFFF760
:1017D000DDFFBDE8084001F0A5BE00BF08B5FFF77A
:1017E000D5FFBDE8084001F0B9BE00BF10B584B018
:1017F00002A8FFF7CFFFFFF7C9FF02A90C4A01F0CB
:1018000015FEFFF7C3FF0368D3F81045FFF7BEFFCF
:10181000E4B201214FF47032E2400091022301F062
:10182000ADFEFFF7B3FF01F07DFE04B010BD00BFB9
:10183000A517000000B585B000230390194601AA42
:1018400044F20100019302932AF078FE05B05DF89E
:1018500004FB00BF72B6024A13680133136070477D
:101860002C4A0020034A1368013B136003B962B697
:10187000704700BF2C4A002000B550E8002F0B46EF
:1018800040E8003E9EF0000FF7D110465DF804FBE3
:1018900000B550E8003F03EB010240E8002E9EF047
:1018A000000FF6D110465DF804FB00BF00B550E80C
:1018B000003FA3EB010240E8002E9EF0000FF6D19E
:1018C00010465DF804FB00BF00B5012350E800EFAF
:1018D0004EEA030240E8002191F0000FF6D1704675
:1018E0005DF804FB00B5012350E8002F42EA030E27
:1018F00040E800E191F0000FF6D170465DF804FB7E
:1019000000B5002350E800EF0EEA030240E8002192
:1019100091F0000FF6D170465DF804FB00B500238E
:1019200050E8002F02EA030E40E800E191F0000FBA
:10193000F6D170465DF804FBB8B130B441688268F6
:101940000468521AD2B2531E2160DBB242B1016860
:101950000A685C1E551C0D601370E3B2FF2BF6D1B4
:1019600003680020187130BC70470E20704700BF1C
:1019700070B504460020FFF76DFF236861681A68A0
:101980008A4215D9511E19602168A3680D6808792B
:10199000A68A12F8012CE4685B1BDBB2984206FBB6
:1019A000024400D20B710020FFF75CFF204670BD9F
:1019B00000240020FFF756FF204670BD38B50546CD
:1019C00000200C46FFF746FF2A681368591C116077
:1019D000E968AA8A641AB4FBF2F41C700020BDE81E
:1019E0003840FFF73FBF00BF826802B9704710B5AB
:1019F000044643690168006998470023A36010BD4D
:101A00000EB400B582B0039929B102AA04AB42F822
:101A1000043D00F095F802B05DF804EB03B07047A8
:101A20002DE9F84F1746B942884606461D46DDF8AF
:101A300028B00B9A7DD30B464FF00109B3FBF7F3A7
:101A40009F4209F10109F9D9A94538BFA94612F009
:101A5000010A02D1BBF1000F49D1B268012402E0B2
:101A6000013D07FB04F4012DFAD8B8FBF4F18F42D5
:101A7000F7D9324D05E0B4FBF7F4A4B1B8FBF4F1AB
:101A8000B268685C531CB36033689854B26873687A
:101A90009A4204FB1188EED33046FFF7A5FFB4FB52
:101AA000F7F4002CEAD1BAF1000F16D0BBF1000F09
:101AB00033D0CB4588BF20243ED9B3683268591C47
:101AC000B160D454B26873689A420BF1FF3B06D2FE
:101AD000BBF1000F09D0D945EFD1BDE8F88F3046F2
:101AE000FFF782FFBBF1000FF5D1BDE8F88F930738
:101AF0001AD42024CB45B0D9B2683368511CB160E8
:101B00009C54B26873689A420BF1FF3B07D2BBF159
:101B1000000FA3D0CB45F0D1A0E7BDE8F88F304649
:101B2000FFF762FFB268F2E7002D0CBF30242024DB
:101B3000E0E74FF0010987E7BDE8F88FB82603001A
:101B4000002900F06F822DE9F04F064685B09346DC
:101B50000C460B780DE0B2683168501CB0608B54B5
:101B6000B26873689A4280F0D3802378002B00F02B
:101B7000BA800134002B00F0B680252BEBD14FF05A
:101B80000008234614F8012B2D2A00F0BB80302AD0
:101B900000F0BB802B2A00F0AD802A2A00F0BC8028
:101BA000A2F13005E9B2092998BF013302D9A9E1B0
:101BB000A1F130051C4613F8012BA2F1300005EB12
:101BC0008501092802EB4101F2D92E2A00F0B080EC
:101BD000002701E014F8012F02F0FB03682BF9D075
:101BE000253A532A7AD8DFE812F07A017900790091
:101BF000790079007900790079007900790079001D
:101C0000790079007900790079007900790079000C
:101C100079007900790079007900790079007900FC
:101C200079007900790079007900790079007900EC
:101C300079007900790079007900790079007900DC
:101C400079007900790079007900790079007900CC
:101C50006A017900790079007900790079007900CA
:101C60007900790079005501FC007900790079004C
:101C70007900FC0079007900790079007900790019
:101C8000540079007900CA007900BA00790079001F
:101C90006A01DBF80020131DCBF80030B36815682B
:101CA00031685A1CB2604FF03002CA54B36872688F
:101CB000934280F0A0813268581C7821B060D154E2
:101CC000B26873689A4280F09281002208230192E0
:101CD0002946009310223046FFF7A2FE01342378F4
:101CE000002B7FF446AF337B002B40F0058105B01D
:101CF000BDE8F08F234614F8012B2D2A48F0040884
:101D00007FF445AF48F001083BE748F0020838E7A8
:101D10003046FFF769FE28E7DBF80020111DCBF8FD
:101D2000001015685A782E2A03F101047FF450AF91
:101D30006278A2F13003092B04F101044FF000078F
:101D40003FF64AAF07EB870702EB470714F8012F6E
:101D5000A2F13003092BA7F13007F3D93CE7DBF8F8
:101D600000301A1DCBF800201968CDF804803B46DE
:101D700000950A223046FFF753FE0134AFE7DBF847
:101D800000301A1DCBF8002018F0010FD3F8009096
:101D900040F0BB80B9F1000F00F0478148462FF0BA
:101DA00021FD0746BD4240F2F180002D00F0EE809B
:101DB0004FF0200805E0BD4200F0E880002D00F063
:101DC000E580B3683268591CB16002F80380B268DC
:101DD00073689A4205F1FF35EDD33046FFF704FEF4
:101DE000E9E7DBF800301A1DCBF80020D3F80090AB
:101DF00089EAE973A3EBE973092B4FF0010A09DDC6
:101E00008F4A82FB0312DB17C3EBA203092B0AF1F3
:101E1000010AF5DCBA4538BFBA462DB3B9F1000F57
:101E200002DB18F0040F00D0013D18F0020F40F063
:101E3000F58018F0010F17D1002D00F0FE80AA45A3
:101E400038BF202110D2B2683368501CB06099545A
:101E5000B26873689A4205F1FF3580F0E880002D82
:101E600000F0EB80AA45EED1B9F1000FC0F2C880B6
:101E700018F0040F7BD108F00303022B00F09A80C6
:101E80008DE820013B4649460A223046FFF7C8FD4F
:101E9000013424E7DBF80020131DCBF80030B368D1
:101EA00031681278581CB060CA54B26873689A429C
:101EB000FFF414AF3046FFF797FD01340FE7DBF86E
:101EC00000301A1DCBF800201968CDF804803B467D
:101ED000009510223046FFF7A3FD0134FFE6B368FA
:101EE0003268591CB1604FF02501D154B268736853
:101EF0009A42DFD20134F2E6304605B0BDE8F04F39
:101F0000FFF772BD1C4600255FE64F46A7EB0908A8
:101F100017F8013B8BB1B2683168501CB0608B542C
:101F2000B26873689A42F1D33046FFF75DFDA7EBC4
:101F3000090817F8013B002BEDD145457FF6CEAEE1
:101F4000202705E045453FF4C9AE002D3FF4C6AE5D
:101F5000B3683268591CB160D754B26873689A424A
:101F600005F1FF35EED33046FFF73EFDEAE7B268F4
:101F70003368501C2B21B0609954B26873689A4240
:101F8000FFF479AF3046FFF72FFD74E709F1FF3911
:101F900019F8013F002B3FF4A1AEB2683168501C24
:101FA000B0608B54B26873689A42F1D33046FFF741
:101FB0001BFDEDE7002F7FF463AF002D33D0AA4562
:101FC000BFF45EAFB2683368511CB1604FF03001AE
:101FD0009954B26873689A4205F1FF3503D215B37C
:101FE000AA45EFD14CE73046FFF7FEFCF7E7304655
:101FF000FFF7FAFC69E63046FFF7F6FCB3685AE6ED
:10200000B2683368501C2D21B0609954B26873686F
:102010009A42C9F10009FFF42EAFB3E7002F3FF455
:1020200023AF06E7704700252AE74F46BAE6304659
:102030000391FFF7D9FC039911E7002514E700BFCE
:102040006766666610B582B0D8B131B101600B68C1
:10205000114602B0BDE8104018470E4B5A6812B93D
:102060000E2002B010BD18880B4A0C4B0C490E24F0
:10207000000440F001000094FEF7A8FE0E2002B01C
:1020800010BD044B5A68002AEAD01888054A034B51
:10209000ECE700BFAC030020B0270300C826030014
:1020A000842703007C2703002DE9F04383B0DDF88B
:1020B000288000282CD01646002A31D0D0F800E025
:1020C000BEF1000F3DD01C463BB9494B5A68002A6F
:1020D0003DD1092003B0BDE8F0834768D7F80490EC
:1020E000B3FBF9F709FB173757B911F0030F3DD0D0
:1020F0003F4B5A68002A77D1102003B0BDE8F08327
:102100003B4B5A68002AE4D018883A4A3A4B21E0FF
:10211000374B5A68002A4ED10E2003B0BDE8F08339
:10212000334B5A68002AF7D01888344A324B344966
:102130000E24000440F001000094FEF747FE204604
:10214000C8E72B4B5A68002A39D10820C2E7188803
:102150002C4A294B2A490924000440F0010000942C
:10216000FEF734FE204603B0BDE8F083B60711D178
:10217000C668B14230D301F1FF3C05696444AC420A
:102180002AD8CDF82880DEF80C40A44603B0BDE87C
:10219000F0436047164B5A68002AADD018881A4A97
:1021A000154B17491024000440F001000094FEF77D
:1021B0000DFE20468EE71888144A0F4BB7E71888A3
:1021C000134A0D4B0E490824000440F0010000940E
:1021D000FEF7FCFD20467DE7054B5A68002A8BD0B0
:1021E00018880C4A044BDCE718880B4A024BD8E7E6
:1021F000AC03002018280300DC260300102803008D
:1022000084270300C02703005C2803007C27030009
:10221000042803008028030044280300F0B583B09D
:10222000002831D0D0F800E0BEF1000F32D032B932
:10223000354B5A68002A32D1092003B0F0BD4768F7
:10224000D7F800C00CF1FF370F420FD1C768B94271
:1022500012D34E1E04690CFB0265A5420CD8DEF8B1
:102260001040A44603B0BDE8F0406047264B5A68D2
:102270001ABB102003B0F0BD234B5A68002AF8D0D7
:102280001888224A224B1BE01F4B5A6812BB0E20B3
:1022900003B0F0BD1C4B5A684ABB0820CDE7188834
:1022A0001C4A1B4B1C490924000440F00100009407
:1022B000FEF78CFD204603B0F0BD1888174A144B7A
:1022C00015491024000440F001000094FEF77EFD43
:1022D0002046B2E71888124A0D4B0F490E2400041D
:1022E00040F001000094FEF771FD2046A5E7188834
:1022F0000C4A074B08490824000440F001000094F0
:10230000FEF764FD204698E7AC0300202C2703006D
:10231000F0260300C02703008427030004270300DE
:102320007C27030004280300014B43600020704712
:10233000B82803000846704700207047024B186811
:10234000003018BF01207047304A002008B502480D
:10235000FFF7E4FA002008BD304A002008B5104617
:102360001A462EF0DAFE002008BD00BF2DE9F0432A
:10237000804687B017480F4616469946FFF7A4FADD
:1023800018B1112007B0BDE8F0834EB104463D46B8
:102390002846013400F0CEFBA64205F58055F7D162
:1023A0000C48FFF7BBFAD8F808307BB100240222B2
:1023B000684602970496CDF814908DF80020019499
:1023C00003949847204607B0BDE8F083184607B04D
:1023D000BDE8F083304A00202DE9F041804686B008
:1023E00013480F4616461D46FFF76EFA18B1112026
:1023F00006B0BDE8F081AA0831460446384600F030
:10240000B1FB0B48FFF78AFAD8F8083073B1012204
:102410000C990194684602970396049505918DF8EE
:1024200000209847204606B0BDE8F0811846DFE757
:10243000304A0020FFF780BA2DE9F041B0F814804F
:10244000CF1CA8F1040847440646B7FBF8F7FFF78E
:102450008FFA80B3FFB200250123013F0446A0F8A4
:10246000068006600571437128D0804609E06379D3
:10247000AF4203F101036371C8F8000006608046B3
:102480001CD03046FFF774FA01350028EFD1667989
:10249000721E16D02346013082421B68FBD81F688B
:1024A0004EB1214600250C6801353846FFF786FA03
:1024B000AE422146F7D10020BDE8F0812046BDE8BC
:1024C000F0812768EDE700BF04300121FFF7E0B994
:1024D000F8B5012104460430FFF7E8F9C0B200B1B5
:1024E000F8BD6679721E12D02346013082421B6805
:1024F000FBD81F68002EF3D0214600240D6801345C
:102500003846FFF75BFAA6422946F7D1F8BD27689F
:10251000F2E700BF2DE9F843C68804330F46B3FB4A
:10252000F6F5904606FB1533044615B1013D2468C7
:10253000FCD1F51A454528BF4546B8F1000F15D026
:102540004FF000090433E018A8EB05082A4607EB12
:1025500009012EF0E2FD4645A944246835464FF0B6
:10256000000328BF4546B8F1000FEBD1BDE8F88362
:102570002DE9F843C68804330F46B3FBF6F59046C1
:1025800006FB1531044615B1013D2468FCD1751ACE
:10259000454528BF4546B8F1000F15D04FF000095A
:1025A00004312144A8EB05082A4607EB09002EF068
:1025B000B4FD4645A944246835464FF0000128BFC4
:1025C0004546B8F1000FEBD1BDE8F8830368826897
:1025D00018685B68934234BF01330023C01AB0FA15
:1025E00080F04009704700BFF8B5044600200E4651
:1025F000FFF730F92368A56819685A68AA4234BF02
:1026000001320022914212D058685A6895420BD884
:1026100000225A60E268531E072B4ED8DFE803F011
:1026200035394D274D4D4D1001325A60F2E7227C6D
:10263000002A33D004240020FFF714F92046F8BD07
:102640006368D6E9006703EBC000C0E90067226851
:1026500013685068834213D8C31A9168994238BFEF
:10266000936000240020FFF7FDF82046F8BD636862
:10267000326843F820202268136850688342EBD9FF
:10268000A16801310144CB1AE7E7636832781A5434
:10269000DDE76368328823F81020D8E75868596866
:1026A0008D4211D9013159602268A16813688B42AB
:1026B00034BF013300231360ACE76368314600FB8D
:1026C00002302EF02AFDC2E75A60EDE72DE9F04115
:1026D000144612B92046BDE8F081054600200E469A
:1026E000FFF7B8F82A68136851688B4209D8CB1AEB
:1026F0009C420CD905240020FFF7B4F82046BDE821
:10270000F081A86801300144CB1A9C42F2D8D2F87B
:10271000008057686968EA68B84584BFAF680137C8
:10272000A7EB0807BC4202FB08110ED802FB04F21B
:1027300030462EF0F2FCA9682B6804EB08028A42AE
:1027400088BF00221A600024D5E707FB02F8424642
:1027500030462EF0E2FCEA686968E71B06EB0800E9
:1027600002FB07F22EF0D9FC2B6800241F60C2E7A1
:1027700010B504460020FFF76DF822681368526810
:10278000934208D9A46801341444E41A0020FFF7E6
:1027900069F8204610BDD41A0020FFF763F82046E0
:1027A00010BD00BF10B568B101280AD10C4C2369D7
:1027B000A07033B10CCB0120226198472369002B14
:1027C000F8D110BD064CA36801226270002BF8D02E
:1027D0000CCB0020A2609847A368002BF8D110BD55
:1027E000344A002010B50B4C237882B013B18520F9
:1027F00002B010BD08486360A3602361E36000F08D
:10280000D7F9019000F0E2F901980123237002B09A
:1028100010BD00BF344A0020A527000038B5154D73
:10282000AB78044673B110B143680120984700208B
:10283000FFF710F8EB680133EB600020BDE838408B
:10284000FFF710B803F0FF00FFF704F864B12A693E
:1028500042B1944208D0134601E09C4204D01B6868
:10286000002BFAD122602C61EB68002BE2D100F042
:10287000C1F9DFE7344A002038B5154D6B780446BE
:1028800073B110B14368002098470020FEF7E2FFC3
:102890006B6801336B600020BDE83840FEF7E2BF93
:1028A00003F0FF00FEF7D6FF64B1AA6842B194427C
:1028B00008D0134601E09C4204D01B68002BFAD1DB
:1028C0002260AC606B68002BE2D100F0ABF9DFE76F
:1028D000344A002038B5084C0020FEF7BBFF63687F
:1028E000013B6360656815B900F0AEF965700020C2
:1028F000BDE83840FEF7B6BF344A002000B583B0CB
:1029000002A901F8010D0648FFF76EFE0448FFF723
:102910005DFE08B100F066FD03B05DF804FB00BF8A
:10292000A43D030010B50E4C227882B012B1852070
:1029300002B010BD0B4A0C490346002808BF1346DD
:1029400020461B8820F8013F00F008FD0028EFD149
:10295000019000F035FD01980123237002B010BDF5
:10296000984A0020EC280300FD28000010B504461A
:102970000248FFF7FDFE207010BD00BFA43D03001C
:1029800010B50A4601460448FFF7A0FE044600F0D1
:1029900017FD204610BD00BFA43D030070B50A4AD4
:1029A0000A4B06784568047AC06853F8213052F81B
:1029B000211084B003908DF8006001958DF80840D7
:1029C0006846984704B070BD9C4A0020A44A002085
:1029D00070B50A4A0A4B067845688468C06853F89F
:1029E000213052F8211084B003908DF800600195D9
:1029F0008DF808406846984704B070BD9C4A002096
:102A0000A44A00202DE9F043DFF8748006784B7F5C
:102A100008F806300D46074694460FCD89B06C463F
:102A20000FC495E80F003D78DFF85890DFF858E0C4
:102A300018F8055049F826C084E80F004EF8260023
:102A4000049665B1BCF1000F0B4A694607F104001A
:102A500008BF002201F0A4F909B0BDE8F083BCF181
:102A6000000F064A694607F10C0008BF002200F07B
:102A700027FF09B0BDE8F0839D290000D12900009F
:102A8000D8780020A44A00209C4A002030B4084B8B
:102A90000848094C09490A4A036003F1100503F18B
:102AA000200008602560C2F80435012030BC704762
:102AB000B44A0020E44A0020B04A0020AC4A00207A
:102AC00000E0004010B5144B1B688B42044603D055
:102AD000184610222EF021FB104B00220121C3F8D2
:102AE00000214FF080701A46196001E0013811D0C2
:102AF000D2F80031002BF9D00021094BC2F80011A7
:102B00001968A14205D0204610222EF006FB0120B4
:102B100010BD012010BD00BFB04A002000E0004001
:102B2000AC4A0020024B0146102218682EF0F5BA7C
:102B3000E44A00200A4A0223C2F80435BFF36F8F2B
:102B4000BFF34F8FC2F80805D2F80034002BFBD03A
:102B50000023C2F80435BFF36F8FBFF34F8F704768
:102B600000E00140114B10B40124C3F80445BFF349
:102B70006F8FBFF34F8F6AB100EB820404391A469E
:102B800051F8043F40F8043BD2F80034002BFBD04E
:102B9000A042F5D1054B0022C3F80425BFF36F8F87
:102BA000BFF34F8F5DF8044B704700BF00E001405A
:102BB000054A13790BB185207047012110605371CC
:102BC00018461171704700BFE84A0020084B1A6888
:102BD000D20706D40122E02183F80013C3F8802134
:102BE0001A604FF080430122C3F81825704700BFD8
:102BF00000E100E010B4094B094A0021196083B0DC
:102C00001B680193019C4FF0804102200123C1F811
:102C10000403136003B05DF8044B704704010040E7
:102C200008000040074B00221A6082B01B68019325
:102C300001994FF080430122C3F804231A6002B0C7
:102C4000704700BF00010040074B01221A604FF09F
:102C50008042D2F80C3403F00113B3F1011FF8D015
:102C6000024B00225A71704704000040E84A0020DD
:102C700010B5144B1A6882B062B10021124A196073
:102C80001B68507900934FF080410123009CC1F8EC
:102C9000083390B10D4B1A686AB100221A601B68A4
:102CA00001934FF080420221074B0198C2F80813AC
:102CB0001B680120984702B010BD11685371884706
:102CC000E8E700BF00010040E84A0020040100409E
:102CD00070B51F4C94F85B5082B015B1082002B05B
:102CE00070BD4FF0FF332946062204F155006362A0
:102CF000A362E36223636363A363E36323646364A4
:102D0000A364E364236523606360A360E3602361DD
:102D10006361A361E361236284F854302EF022FAE8
:102D20000C4B0D4A0D4E15604021E02083F8060340
:102D3000C3F8801119601368019301994FF00043A3
:102D40000122284684F85B20C6F8043302B070BD27
:102D5000F04A002000E100E07C610040006000409B
:102D6000F0B5554B1C1894F92450002D01DB0820B8
:102D7000F0BD8D78C5F34006EEB11D68013500F059
:102D800095805C68013400F08F809C68013400F00D
:102D90008980DC68013400F083801C6901347DD0B7
:102DA0005C69013478D09C69013473D0DC690134EA
:102DB00066D00420F0BD1D6A0135FAD1082684F8DA
:102DC000246035461A6234461C4484F84C008A78E4
:102DD00054071CD4D60744D51F2887BF374A00F0B4
:102DE0001F0404464FF0A04202EB8402D2F80047D1
:102DF00024F00204C2F80047314EC40800F0070E68
:102E0000375D012202FA0EF23A4332558A7812F007
:102E100002020AD1083D2B44087893F8541041EA85
:102E2000801183F854101046F0BDAD0005F18045C7
:102E300005F5C0450A78D5F8101521F44F3121F475
:102E40004071C5F8101503021204D5F8101502F4EC
:102E5000403203F47C5313430B43C5F81035002074
:102E6000F0BD1F284C7887BF144E00F01F020246A9
:102E70004FF0A04602F5E072A40046F82240BBE7FE
:102E800007241F1865B243F8242087F82450002E29
:102E90009DD199E70624F4E70524F2E70424F0E73E
:102EA0000324EEE70224ECE70124EAE700251A6098
:102EB00084F824508BE700BFF04A00200003005044
:102EC000454B0020F0B43A4D2E1882B096F92430CC
:102ED000072B20DD2B4493F84C309B09032B45D066
:102EE000012B14BF4FF440314FF400311F284DD94E
:102EF00000F01F002F4B03EB8000D0F8002722F4D6
:102F00004032C0F80027D0F800370B43C0F8003734
:102F100002B0F0BC7047DAB2072AF9D8980000F185
:102F2000804000F5C04003F140029200D0F8104507
:102F300092B202F18042002744F0010402F5C0423F
:102F4000C0F810450197019817600029E0D096F964
:102F5000242055F82220002ADAD00122164902FA4C
:102F600003F3C1F8043302B0F0BC70471F2810D936
:102F7000104BD3F8103500F01F00C340DB0748BFEB
:102F80004FF44031B6D44FF40031B3E74FF0A043D3
:102F9000B1E74FF0A0421346D2F81025C24012F01C
:102FA000010F14BF4FF440314FF40031A3E700BFCD
:102FB000F04A002000030050006000401F288ABF34
:102FC000054B4FF0A04300F01F00D3F8103523FA53
:102FD00000F000F001007047000300502DE9F043BD
:102FE00089B00023B94A039302931168012900F0C4
:102FF0000B811E46B64B1A68012A00F0F780B54BCC
:103000001A68012A00F0E480B34B1A68012A00F024
:10301000D180B24B1A68012A00F0BE80B04B1A680A
:10302000012A00F0AB80AF4B1A68012A00F09880AB
:10303000AD4B1A68012A00F08580AC4B1A68012A52
:103040006FD016F0FF0F1AD0A94F01250024A3005E
:1030500003F180432E4203F5C0434FEA45050BD0F0
:10306000D3F8100557F82420D3F81015C0F3052025
:10307000C1F3014102B190470134082CE7D1002E81
:1030800002DB09B0BDE8F083994D95F954304FF05B
:10309000FF320DF1100800219342C8F8041004918A
:1030A00006920792EDD0DBB223F0C00008AA4FEAE7
:1030B000D00E02EB0E04012603F0070214F8081CE0
:1030C00006FA02F21142DCD08A4E4FF0A04705EB1F
:1030D000000C99099CF924C055F82C90B9F1000F07
:1030E00000F0AB80032900F0AB801F2800F2A18024
:1030F00086464FF0A04303EB8E0314F818ECD3F888
:1031000000471EEA020FC4F3014440F08980032CFB
:10311000B7D1032900F09B80B9F1000FB1D0C847A7
:10312000AFE700221A601B6801934FF0A042019B99
:10313000D2F810256F4B0292D3F81035039346F066
:1031400000467EE76C4AD2F8042311067FF575AF7E
:1031500000221A601B680093009B46F080066CE713
:10316000654AD2F8042350067FF562AF00221A6048
:103170001B680093009B46F0400659E75E4AD2F870
:10318000042394067FF54FAF00221A601B6800935A
:10319000009B46F0200646E7574AD2F80423D5069E
:1031A0007FF53CAF00221A601B680093009B46F03D
:1031B000100633E7504AD2F8042317077FF529AFEA
:1031C00000221A601B680093009B46F0080620E767
:1031D000494AD2F8042352077FF516AF00221A603D
:1031E0001B680093009B46F004060DE7424AD2F8A4
:1031F000042391077FF503AF00221A601B68009338
:10320000009B46F00206FAE63B49D1F8046316F04B
:1032100001063FF4EFAE136013680093009BE9E6EC
:10322000022C7FF42EAF03297FF476AF4FF44031A8
:103230000FE003F01F0E33465DE703297FF421AF53
:1032400018F80EC04CEA020C08F80EC04DE74FF417
:103250000031D3F8002722F44032C3F80027D3F816
:1032600000270A43C3F80027B9F1000F01D003215A
:10327000C847D7F81025029BD6F81015934203D102
:10328000039B8B423FF4FDAE95F95430049C0598A6
:1032900002925A1C0391069407903FF4F2AEDBB2FF
:1032A00023F0C00008AA4FEAD00E02EB0E044FF044
:1032B000010C03F0070214F8081C0CFA02F2114288
:1032C0007FF405AF09B0BDE8F08300BF00610040A6
:1032D00004610040086100400C6100401061004042
:1032E00014610040186100401C6100407C61004096
:1032F000F04A00200003005000600040014B1B68B2
:10330000184700BF4C4B002038B50C4B984201D0F9
:10331000002038BD00200D46FEF79CFA084B1C79B2
:1033200024B10020FEF79EFA112038BD012220466C
:103330001D601A71FEF796FA204638BD0020004045
:103340004C4B0020034B984203D1034B00221A60E0
:103350001A717047002000404C4B0020144B1A7823
:103360000AB18520704730B40278124CD207216030
:1033700006D51149D1F8042542F00102C1F804250F
:103380000D4C0E49D4F8002222F00102C4F80022AC
:10339000427852014FF400540125D2B281F80D2336
:1033A000C1F880410C601D70002030BC704700BF28
:1033B000584B0020544B002000D0004000E100E0BA
:1033C000064A074B0021116082B0126801920199F0
:1033D0000122C3F804231A6002B0704700D10040F4
:1033E00000D000400349044A0123C1F808331360A8
:1033F000704700BF00D0004004D0004000B5084B2B
:103400000849094A0020186083B01B680193019B9A
:10341000D1F808051368C0B2984703B05DF804FB03
:1034200000D1004000D00040544B0020F0B5057999
:103430003A4E6F007C19A40006EB040E83B09EF890
:10344000083013B1082003B0F0BD32514A68CEF8FD
:10345000042042799E466AB19A0002F5A07204687F
:1034600044F802E00133A45842790194DBB29A4255
:10347000019CF1D80468CB78240B62B2002A45DBAA
:1034800002F1604202F561425B01DBB282F8003377
:103490000268120B42F3C40323F0604323F00303DA
:1034A00003F1604303F56143012402F01F0204FAB3
:1034B00002F2C3F880211A60D0F800E04B78DEF801
:1034C000042503F0030322F003021343CEF804356E
:1034D000D0F800E08B78DEF8082503F0030322F033
:1034E00003021343CEF8083500680B78D0F8102596
:1034F0003D4422F00F0203F00F0306EB8506134351
:10350000C0F810350020347203B0F0BD044A04F056
:103510000F045B012244DBB21376B9E75C4B002059
:10352000FCEC00E00368054A01211960037903EB14
:10353000430302EB830302221A7270475C4B0020A4
:103540000368054A01211961037903EB430302EB88
:1035500083031972704700BF5C4B00200379064A51
:1035600003EB430302EB8303187AA0F10200B0FAE5
:1035700080F04009704700BF5C4B0020F0B4076842
:1035800040F20115D7F800428D4024EA0504C7F83F
:103590000042056882B0D5F800429DF818602343C8
:1035A0004FF48034C5F800328C4056B90368C3F834
:1035B0000843036801F5A87143F8212002B0F0BC6C
:1035C00070478B0003F5A07305680026EE50ED5898
:1035D00003680195019DC3F80443EAE700B53F4B3A
:1035E0001A6883B022B13E4AD2F80423D00338D4FB
:1035F0003C4B1A6822B13A4AD2F8042391033CD4D6
:10360000394B1A6822B1364AD2F80423520340D407
:10361000364B1A6822B1324AD2F80423100344D43C
:10362000334B1A6822B12E4AD2F80423D10248D46F
:10363000304B1A6822B12A4AD2F80423920202D4EB
:1036400003B05DF804FB00221A602B4A1B6801934B
:1036500051681368019A4FF4AA70984703B05DF857
:1036600004FB00221A60244A1B6801935168136806
:10367000019A4FF4A0709847BAE700221A601E4AD8
:103680001B68019351681368019A4FF4A270984720
:10369000B6E700221A60184A1B6801935168136844
:1036A000019A4FF4A4709847B2E700221A60124AB8
:1036B0001B68019351681368019A4FF4A6709847EC
:1036C000AEE700221A600C4A1B6801935168136828
:1036D000019A4FF4A8709847AAE700BF40A10140A3
:1036E00000A0014044A1014048A101404CA101407B
:1036F00050A1014054A101405C4B002030B56E4AFE
:10370000D2F8043399058BB05BD5D2F82431002B65
:1037100057D00023C2F82431D2F8243103934FF458
:103720000171664B0398C2F8081393F8291009B980
:1037300001215160604902228DF81820D1F88024BF
:10374000C1F880249869D9680992002208900791ED
:103750009A6193E81200DA6106A8A047564AD2F8A7
:103760001C31C3B1554B186A5969884265D293F828
:10377000280000F0FF0400285FD1C2F81C41D2F8F5
:103780001C11029102999C68186A196A205C013127
:103790001962C2F81C05484AD2F844317BB10021B5
:1037A000464BC2F84411D2F8440193F82910009016
:1037B000009809B1012111609A69002A52D10BB019
:1037C00030BD3D4AD2F804335B07C7D5D2F8083183
:1037D000002BC3D0394B9969002952D00021C2F87F
:1037E0000811D2F8081104910499D868596AD2F8DE
:1037F000182542545A6A996901325A625A6A8A42B1
:10380000ACD1DA69002A45D193F8292012B92A4AA5
:1038100001215160284A4FF40171C2F80813596A16
:10382000DA6808910024012007928DF8180093E8C7
:1038300006009C6106A8904790E71F4A0020C2F846
:103840001C01D2F81C210192019A0029A3D09A6888
:103850008DF8180008915861079206A893E80600B1
:10386000904798E70022586AD9689A610122089027
:1038700007918DF8182006A893E8060090470BB032
:1038800030BDC2F80811D2F8080105900598D2F8A9
:103890001825B3E7DD685C6A18699A610121002286
:1038A000D860DA615A628DF818100795089493E889
:1038B000060006A8904751E700200040684B002012
:1038C0002DE9F041734E05792C2303FB056382B08B
:1038D00093F82A301BB1082002B0BDE8F0810F46F2
:1038E00004466D4900689046FFF70EFD18B111209F
:1038F00002B0BDE8F0813B68591C19D01F2B4FF076
:1039000001028ABF65494FF0A04103F01F0302FA8C
:1039100003F3C1F808353B681F2B86BF03F01F0374
:103920005E4A4FF0A04203F5E073032142F82310F2
:103930007B685A1C0BD01F2B86BF03F01F03574A0E
:103940004FF0A04203F5E073002142F823102368F2
:10395000BA69C3F82425397D7B7D22680B43C2F800
:103960006C3597E806002368C3F81425C3F80C15D6
:103970003B7D012B51D02C2303FB05F3F218C2F839
:1039800004803A69F250B8F1000F35D023683A7FCD
:10399000434F0021C3F81C11D3F81C310093236856
:1039A000DDF800E0C3F84411D3F844112368019115
:1039B0000199C3F804732168090B4BB2002B60DB3B
:1039C00003F1604303F561435201D2B283F800234F
:1039D0002268120B42F3C40323F0604323F0030375
:1039E00003F1604303F5614302F01F02012101FA74
:1039F00002F2C3F880211A602C23246803FB0563BC
:103A0000002204250121C4F8005583F82A109A6188
:103A1000DA6183F829205A615EE7BB68591C0BD034
:103A20001F2B86BF03F01F031C494FF0A04103F575
:103A3000E073002241F82320FB685A1C1AD01F2B88
:103A40008ABF16494FF0A04103F01F03012202FA7A
:103A500003F3C1F80835FB681F2B88BF03F01F0371
:103A600003F5E0738CBF0D494FF0A041032241F8EC
:103A70002320FB682268B968C2F80835C2F810151F
:103A800079E7084B01F00F0152010B44D2B21A76CC
:103A90009EE700BF684B0020FD3600000003005089
:103AA00080000200FCEC00E0F8B53A4D04790268B1
:103AB0002C2303FB045300215B68C2F8001583B17B
:103AC0000368354AC3F808230368344E1B0B5AB207
:103AD0005209203203F01F03012101FA03F346F8D3
:103AE000223003684FF0FF3ED3F80C75D3F814650D
:103AF000D3F80825D3F81015C3F814E5C3F80CE57E
:103B000003687745C3F808E5C3F810E50CD01F2F0C
:103B100086BF07F01F07224B4FF0A04307F5E07761
:103B20004FF0020E43F827E0771C0BD01F2E86BF04
:103B300006F01F061A4B4FF0A04306F5E076022769
:103B400043F826704E1C0BD01F2986BF01F01F01C1
:103B5000134B4FF0A04301F5E071022643F82160BA
:103B6000531C0BD01F2A86BF02F01F020C4B4FF0D4
:103B7000A04302F5E072022143F822100068FFF72B
:103B8000E1FB2C2303FB0454002384F82A306360F8
:103B9000F8BD00BF684B00208402020000E100E095
:103BA00000030050F0B5304E05792C2303FB05636C
:103BB00085B05C6914B1112005B0F0BD1C6299603C
:103BC00083F828405A610268C2F81C41D2F81C11DF
:103BD000026802910121029F91600268D3F808E017
:103BE000C2F81C41D2F81C1101910199D3F820C0F0
:103BF000196A5F681EF80CC001311962C2F81CC551
:103C000017B1204605B0F0BD1A6A5C69016894429C
:103C100003D819E093F82820F2B9D1F81C21002A22
:103C2000F8D0C1F81C71D1F81C210392039AD3F883
:103C300020C01A6A1EF80CC001321A62C1F81CC5F5
:103C40001A6AA242E9D30168D1F81C31002BFBD0DB
:103C50000123CB60002000E00F202C2303FB056331
:103C600000225A61A8E700BF684B002070B54A4B9C
:103C7000D3F8242188B0002A55D1D3F81011F1B916
:103C8000454BD3F8442152B10020444AC3F84401C3
:103C9000D3F8444191690194019C002960D13E4BC5
:103CA000D3F820214AB100213C4AC3F82011D3F8AF
:103CB000204150690094009C30BB08B070BDC3F82F
:103CC0001021D3F810113548039103998169D3F875
:103CD0003C458C42D4D1C569002D50D0D3F8001298
:103CE000C668856121F02001C3F800120369C26132
:103CF00001220168C3608DF81840436805968DF86D
:103D0000102004A89847BBE7D3F84C0593688DF8BA
:103D100018008DF810105161059304A892E80A006C
:103D2000984708B070BD0021C3F82411D3F82421AE
:103D3000029202228DF81020029AD3F88004174ACA
:103D4000C3F880040790D3F83C05D3688DF81800B9
:103D50009161D16105931168536804A898478FE772
:103D6000D3F83C458DF81840D36890610124059341
:103D7000116853688DF8104004A898478FE7C3680E
:103D800001688561012205938DF8184043688DF81C
:103D9000102004A8984773E700200040944B0020AF
:103DA0002DE9F0430479824EE7003B1906EB8303CB
:103DB00085B093F820301BB1082005B0BDE8F08332
:103DC000894605467B4900689046FFF79DFA18B181
:103DD000112005B0BDE8F083D9F80030591C1AD085
:103DE0001F2B4FF001028ABF73494FF0A04103F02F
:103DF0001F0302FA03F3C1F80835D9F800301F2B6E
:103E000086BF03F01F036C4A4FF0A04203F5E07336
:103E1000032142F82310D9F804305A1C0BD01F2B71
:103E200086BF03F01F03644A4FF0A04203F5E0731E
:103E3000002142F823102B68D9F81820C3F8242554
:103E400099F8141099F815202B680A43C3F86C25CB
:103E50002A68D9F80030D9F80410C2F80C35C2F835
:103E6000141599F81430012B61D03A199200B31847
:103E7000C3F80480D9F81030B350B8F1000F47D020
:103E8000296899F81C20DFF838E10023C1F81031C7
:103E9000D1F8101100912968DDF800C0C1F8203177
:103EA000D1F8201101912968DDF804C0C1F824314E
:103EB000D1F8241102912968DDF808C0C1F8443115
:103EC000D1F844112B6803910399C3F804E32968DE
:103ED000090B4BB2002B63DB03F1604303F5614335
:103EE0005201D2B283F800232A68120B42F3C403B2
:103EF00023F0604323F0030303F1604303F56143C0
:103F000002F01F02012101FA02F2C3F880211A60B7
:103F10003C442A6806EB840400230125082184F828
:103F20002050C2F80015A361E361636145E7D9F849
:103F30000830591C0BD01F2B86BF03F01F031E49EE
:103F40004FF0A04103F5E073002241F82320D9F897
:103F50000C305A1C1CD01F2B8ABF17494FF0A041B0
:103F600003F01F03012202FA03F3C1F80835D9F860
:103F70000C301F2B88BF03F01F0303F5E0738CBFC9
:103F80000D494FF0A041032241F82320D9F80C300D
:103F90002A68D9F80810C2F80835C2F8101564E785
:103FA000064B01F00F0152010B44D2B21A769BE787
:103FB000944B00206D3C000000030050FCEC00E03E
:103FC00010030200F8B506793A4C0268F500AB1907
:103FD00004EB830300215B68C2F8001583B103681A
:103FE000354AC3F808230368344F1B0B5AB25209F1
:103FF000203203F01F03012101FA03F347F82230B6
:1040000003684FF0FF3CD3F80CE5D3F81475D3F8F0
:104010000825D3F81015C3F80CC5C3F814C50368F8
:10402000E645C3F808C5C3F810C50DD0BEF11F0F93
:1040300086BF0EF01F0E224B4FF0A0430EF5E07E20
:104040004FF0020C43F82EC07B1C0CD01F2F86BFF4
:1040500007F01F071A4B4FF0A04307F5E0774FF02A
:10406000020E43F827E04F1C0BD01F2986BF01F03A
:104070001F01134B4FF0A04301F5E071022743F8F5
:104080002170531C0BD01F2A86BF02F01F020C4B5D
:104090004FF0A04302F5E072022143F822103544AC
:1040A00004EB85040068FFF74DF9002384F8203005
:1040B0006360F8BD944B00201003020000E100E0B3
:1040C0000003005001F06043B3F1005F01D0102005
:1040D0007047F0B50579214EEF007C1906EB84049A
:1040E00083B0636913B1112003B0F0BDA1606261B8
:1040F000D0F800E0CEF82031DEF820C1D0F800E0A2
:10410000CDF804C0DDF804C0CEF85831DEF858C14F
:10411000D0F800E0CDF800C0DDF800C0CEF84415BE
:10412000CEF8482502680121916062680AB11846FC
:10413000DAE7036800E079B9D3F82021D3F8581101
:10414000002AF8D0002914BF0F2000207B1906EBAD
:10415000830300225A61C7E70F20F7E7944B002042
:104160002DE9F04140F20D124FF6FF71804609F043
:10417000EDFB0C2109F064FF0346042101220171CB
:104180006FF002044FF0FF310227094E094D5A71BA
:1041900000225970D9701C709C709F719E60DA71FA
:1041A00040466A800449BDE8F0411AF08DB900BF6D
:1041B00006000800BC4B0020BD41000070B5EA229B
:1041C0004FF6FF71064609F0C1FB014604464FF069
:1041D000FF300AF0B9F805461321204609F0DEFF4A
:1041E0006B780BB92B790BB9C6B970BD18494B88E0
:1041F000002BF9D1174CB0F8012060686B794A8028
:1042000002280B7015D80022FF2113480EF020FC65
:10421000B8B90320FDF71CF8002EE6D0304640F276
:1042200003124FF6FF7109F091FBBDE8704009F0F1
:10423000E5BD20880949000440F00300FCF746FD75
:10424000E1E7C0F59C402030FDF7F4FAE1E700BF5C
:10425000BC4B002088030020B9440000382903002B
:1042600038B50C46FDF732F8022C00D038BD0D4CA5
:104270006388002BFAD02379002BF7D10123054660
:1042800023710EF07BFEE9B2A060032206480EF017
:104290007BF90028EAD0C0F59C402030BDE83840CA
:1042A000FDF7C8BABC4B0020AD420000F8B52B4F5B
:1042B00005460EF063FEBA68294B841AB5FA85F6F6
:1042C0009C424FEA561621D8412C94BF0024012469
:1042D00044B12846FDF70CF8FEF770FE18B3002332
:1042E0003B71F8BD2846FDF703F8FEF767FE98B16D
:1042F0003346214601221B4809F0C0FC0028EED0BD
:10430000C0F59C402030FDF795FAE8E7121A412AE3
:1043100094BF00240124DBE72946032212480EF053
:1043200033F970B9F8BD0146334601220F4809F050
:10433000A5FC68B9294613220B480EF025F9002880
:10434000F0D0C0F59C402030BDE8F840FDF772BACF
:10435000C0F59C402030FDF76DFAEBE7BC4B002028
:10436000FEFFFF7FF5430000AD42000071430000F7
:10437000F0B58B220C4687B04FF6FF7109F0E6FAD4
:10438000194B5A68B4FA84F5022A06464FEA5515C5
:1043900007D918881549000440F003002246FCF7AD
:1043A00023FC0024224600940223112130460FF002
:1043B0009FFE01460F22057002234A704FF0080E3F
:1043C0000B4ACC704FF4827701208B700494CDF8A7
:1043D0000CE00297019012F8020B00900431304675
:1043E0000FF076FC07B0F0BD880300208829030099
:1043F000BC4B002070B56B220C4686B04FF6FF71A7
:1044000009F0A4FA154A5368261C18BF0126022B8E
:10441000054607D910881249000440F003002246DF
:10442000FCF7E2FB00243346224600941121284683
:104430000FF05EFE06260B4A04944FF482710123AE
:1044400002910396019312F8023B00930146022366
:1044500028460FF03DFC06B070BD00BF8803002069
:1044600070290300BC4B002038B558B9114809F039
:1044700067FB00B938BDC0F59C402030BDE838402E
:10448000FDF7D8B9B0224FF6FF71044609F05EFA85
:104490000B2109F083FE00210B2205462CF062FE61
:1044A00004F0F0F803882B8120460021BDE8384055
:1044B0001AF00ABF6944000010B590B1164B5A6853
:1044C000022A04461FD82146822214480EF05CF8C6
:1044D00098B940F24512002111480EF055F828B95C
:1044E00010BD0F4809F02CFB0028F9D0C0F59C4006
:1044F0002030BDE81040FDF79DB9C0F59C4020304C
:10450000FDF798F9E5E718880649000440F0030034
:10451000FCF75AFAD7E700BF88030020614100008A
:10452000B94400005429030038B5044617F002FAD4
:1045300070B9022000F054FE04B938BD2046DF22D5
:104540004FF6FF7109F002FABDE8384009F056BC99
:104550005CB9124809F0F4FA0028EED0C0F59C408E
:104560002030BDE83840FDF765B9B0224FF6FF7145
:10457000204609F0EBF90B2109F010FE00210B2277
:1045800005462CF0EFFD04F07DF803882B812046D2
:104590000021BDE838401AF097BE00BF6944000012
:1045A00030B583B002A9002341F8043D044617F05A
:1045B000EBFA4FF4DC7205464FF6FF71204609F026
:1045C000C5F9E91EB0F90420102948D8DFE801F048
:1045D00039471717474747474747474747474747D9
:1045E0000900002A5CD144B140F2F3124FF6FF718A
:1045F000204609F0ABF909F001FC03B030BD454B92
:10460000002A3AD15A68022A65D80220FCF720FE17
:10461000414B5B88002BE6D1214682223F480DF0BA
:10462000B3FF002870D140F2451200213C480DF044
:10463000ABFF0028E1D0C0F59C402030FDF7FAF830
:10464000DBE7002A38D0334B59680029CBD01888D3
:104650003449000440F00100FCF7C6FAC3E72D4BD3
:1046600059680229BFD918882F490004134640F021
:1046700003002A46FCF72AFBB5E75968002932D126
:104680000220FCF7F9FD4122002128480DF07CFFB3
:104690000028A8D0C0F59C402030FDF7CBF8A2E759
:1046A0001C4B5A68012A9ED918882149000440F001
:1046B0000200FCF789F996E70220FCF7DDFD154BB7
:1046C000019D5A68022A16D82B79002B8BD1022023
:1046D00000F086FD87E718881649000440F00300C3
:1046E000FCF772F991E718881349000440F00100C3
:1046F000FCF77AFAC4E718882A791049000440F0D8
:104700000300FCF771FADFE7C0F59C402030FDF7AD
:1047100091F888E788030020BC4B0020614100002D
:10472000B9440000042A0300542A0300294500006C
:10473000282A0300A4290300C0290300E429030058
:1047400030B54FF0805385B01A6E596E4248002440
:1047500015462B4644EA010204A961E90223082216
:104760002CF0DBFC20464FF40041FBF749FF00280A
:104770005FD1FBF7CBFE022300210120ADF804102E
:104780008DF806308DF80430FCF7B8FDFCF788FD95
:10479000FEF79EFA00285BD1032300208DF8053038
:1047A000FCF7A6FD2D4A01A9FEF7DAFA00284CD144
:1047B0000020FCF79DFD0121FEF784FB0120FCF7A2
:1047C00097FD01A9254AFEF7CBFA00283AD101202E
:1047D000FCF78EFD0121FEF775FB214B2149224A92
:1047E00000241C700C70148009F008FF1A480EF0A9
:1047F00051FC4FF480300EF05FFC20460EF052FC6E
:1048000006200DF049FBC3200DF04CFB01200EF0FB
:1048100035FC21460C2215482CF0A4FC144800F06D
:104820006DFA0EF059FC38B90EF058FCFBF77AFF20
:10483000FAE7FCF7FFFF9CE7C0F59C402030FCF74F
:10484000F9FFF1E7FCF7F6FFC1E7FCF7F3FFAFE78D
:10485000FCF7F0FFA0E700BFC84B0020614200005A
:10486000280100202401002026010020BC4B00204C
:10487000A000002010B44FF080414FF08052002083
:10488000C1F80C015E4BC1F81001C1F83805D2F82F
:104890000414C3F82015D2F80814C3F82415D2F86C
:1048A0000C14C3F82815D2F81014C3F82C15D2F83C
:1048B0001414C3F83015D2F81814C3F83415D2F80C
:1048C0001C14C3F84015D2F82014C3F84415D2F8CC
:1048D0002414C3F84815D2F82814C3F84C15D2F89C
:1048E0002C14C3F85015D2F83014C3F85415D2F86C
:1048F0003414C3F86015D2F83814C3F86415D2F82C
:104900003C04C3F86805D2F840043E49C3F86C057E
:104910000968D2F84424C3F87025082924D04FF040
:104920008043D3F80024D20744BF6FF00102C3F8DC
:104930000024354AD2F8883043F47003C2F8883036
:10494000BFF34F8FBFF36F8F4FF01023D3F80022C8
:10495000002A23DBD3F80432002B1FDB2B4B2C4A1D
:104960001A605DF8044B70472A4B1B68002BD6D1A8
:1049700029482A4A2A4C04602A492B4BFB20C2F8BA
:1049800018050A681B68294822F00F0203F00F037C
:1049900013434FF400720B600260C0E7244B012206
:1049A000C3F80425D3F80024002AFBD04FF01023CD
:1049B00012221F49C3F80022D1F80034002BFBD08B
:1049C0004FF0102212211A4BC2F80412D3F800241F
:1049D000002AFBD000221649C3F80425D1F8003480
:1049E000002BFBD0BFF34F8F0749124BCA6802F46C
:1049F000E0621343CB60BFF34F8F00BFFDE700BF02
:104A000000C000403001001000ED00E00001002077
:104A10000090D003340100108C56004000F000409C
:104A200048810300E40E0040580200104096024006
:104A300000E001400400FA05F8B5AF4CB4F8722666
:104A400094F8711194F8860602F0E00242F4804274
:104A5000002914BF0C21002142F0020261F07F0105
:104A6000A4F87226092200234FF0120E6C274FF48F
:104A70002856102500F0F00084F8741684F8882673
:104A80006FF03E0108224FF0340C63F3071084F8F6
:104A900076E684F877764FF0020EA4F87A6603275C
:104AA00084F87F5604266FF07F0584F88016052A67
:104AB0004FF0010184F875C684F88606A4F87836AC
:104AC000A4F87C3684F88136C4F8823684F8C0367F
:104AD00084F8893684F88DE684F88F7684F89166B8
:104AE00084F8925684F87E1684F88B1684F887260C
:104AF00084F88A5684F88C5684F88E5684F890563A
:104B000040F2B28094F8873605216FF07F02062BC1
:104B100084F8931684F8942640F2B28094F887368D
:104B200006216FF07F02072B84F8951684F89626ED
:104B300040F2A08094F888361F216FF07F0284F83D
:104B4000971684F89826002B00F0B88094F88736E2
:104B5000043304EB4303002283F8812683F8822682
:104B600094F88836012B40F2A38094F887360533F9
:104B700004EB43030121002283F8811683F8822687
:104B800094F88836022B40F2B18094F887360633C9
:104B900004EB43030221002283F8811683F8822666
:104BA00094F88836032B40F29B8094F887360733BD
:104BB00004EB43030321002283F8811683F8822645
:104BC00094F88836042B40F2858094F887360833B1
:104BD00004EB43030421002283F8811683F8822624
:104BE00094F88836052B6FD994F88736093304EB8F
:104BF00043030521002283F8811683F8822694F866
:104C00008836062B4ED994F887360A3304EB4303D3
:104C10000621002283F8811683F8822694F88836CC
:104C2000072B39D994F887360B3304EB4303132150
:104C3000002283F8811683F8822694F88836082BA0
:104C400024D994F887360C3304EB43031F25002046
:104C500070216FF03C0283F8815683F8820684F855
:104C60007F1684F88026F8BD95214FF4496009F03D
:104C70007BFB47E795214FF4496009F075FB59E745
:104C800095214FF4496009F06FFB47E7A3214FF4EA
:104C9000496009F069FBD4E7A3214FF4496009F0AA
:104CA00063FBBFE7A3214FF4496009F05DFBAAE76E
:104CB000A3214FF4496009F057FB56E7A3214FF4B5
:104CC000496009F051FB41E7A3214FF4496009F025
:104CD0004BFB89E7A3214FF4496009F045FB74E7DA
:104CE000A3214FF4496009F03FFB5EE7A3214FF495
:104CF000496009F039FB48E7DC7800202DE9F043F2
:104D000083B00EF0C1FA0FF017FA8368DFF808815C
:104D10001B7801930424009440F213134FF449626A
:104D200001214FF0FF300EF099F8A14600270FF057
:104D300003FA83681B78FCB2A34251D90FF0FCF947
:104D4000826898F8C036D2F8012052F82420052B4A
:104D50004FEA8405D2F8152051D808EB83010133BE
:104D6000C1F8A82688F8C0360FF0E6F9D0F8B030C0
:104D700063B10FF0E1F9D0F8B0600FF0DDF98368AE
:104D8000D3F8013053F824301878B04700240FF0DE
:104D9000D3F98368D3F801305B591A7CE3B29A42A5
:104DA000C3EB03161AD90FF0C7F98368D3F80130A3
:104DB0005B59D3F8113033440134D3F80B30002B56
:104DC000E5D00FF0B9F98368D3F801305B59D3F817
:104DD00011301E44D6F80B309847D8E70137A6E7C4
:104DE0000EF074FA10B103B0BDE8F0834FF4937184
:104DF0004FF4496003B0BDE8F04309F0B5BA019340
:104E0000CDF8009040F205134FF4496201214FF0B4
:104E1000FF300EF023F8A7E7DC78002030B540F231
:104E2000FF1283B04FF4D571054608F08FFD0521C0
:104E300009F0B4F90A4C0346D4F8C8221A6094F871
:104E4000D0221A7100232946009394F8C1560548D0
:104E500084F8C4561A460DF0FDFA03B030BD00BF09
:104E6000DC780020855A0000F0B5734C94F8D152DC
:104E700083B00646BDB994F8BA72402F32D094F888
:104E8000D9E20095012767F3430E01462B462A46D7
:104E90006A48C4F8C85284F8D9E284F8BB720DF0AD
:104EA000D9FA03B0F0BD402D65D0102D43D094F851
:104EB000BA322B40D90756D413F002031DD11F2D4F
:104EC00040F28280202384F8D1320028E9D04FF4C8
:104ED0008C724FF4D57108F039FD03B0BDE8F04095
:104EE00008F08CBF009501462B462A4684F8D17203
:104EF00053480DF0AFFA03B0F0BD1BF01FFC0546A0
:104F000000286BD194F8BB72032F3CD00A2F6FD0CE
:104F100094F8BC32DB073AD594F8D13213F0020F83
:104F20004FF00003314600931A4614BF45484448E9
:104F30000DF090FAB5E794F8BB222023012A84F8FB
:104F4000D13237D0524212B294F8DB1200233046ED
:104F500016F0F6FD0023314600931A463A480DF04C
:104F600079FA03B0F0BD0023014600931A46374892
:104F70000DF070FA95E70023014600931A46344875
:104F80000DF068FA8DE794F8BC32DA0749D494F84A
:104F9000DF3213F0020324D000233146032510260C
:104FA00000931A4684F8D16284F8BB5224480DF06D
:104FB00051FA76E794F8DF32002262F3000384F8B6
:104FC000DF3284F8BB22BFE76D00009301461A462A
:104FD00084F8D1521A480DF03DFA62E73046F522C6
:104FE00077E7009331461A461A480DF033FA58E72E
:104FF0001023C5224FF4D571304684F8D13208F021
:10500000A5FC394609F0CAF80822294604462CF0C6
:10501000A9F830462572657203B0BDE8F04004F08F
:10502000C7BF01460A23304684F8743103B0BDE897
:10503000F04004F09DB900BFDC780020E953000087
:10504000694E0000555100005DB00100315A00006A
:105050001959000059500000F0B53B4C94F8D92282
:1050600002F00E03022B85B001461BD094F83922C2
:10507000D2071FD4F3B9D4F8C432DBB194F8D952B3
:10508000C4F8C8320322002362F3430500931A4692
:1050900001262E4884F8D95284F8BB620DF0DAF963
:1050A00005B0F0BDD4F8C032DBB194F8393213F05A
:1050B00001031BD094F8D96294F8D15224480122FC
:1050C000002362F343069540032700931A4684F8B1
:1050D000D96284F8D15284F8BB720DF0BBF905B0E7
:1050E000F0BD94F83932DB07C5D5E3E763F343023B
:1050F0000123039084F8D92284F8BB3217F050FCC6
:10510000039918B194F82937012B0AD0D4F8C0328A
:10511000C4F8C832002300931A460C480DF09AF9DF
:10512000DDE7D4F8C822002AF0D194F8D90294F827
:10513000722163F3430003FA02F2C4F8C82284F830
:10514000D902002AE6D1E1E7DC7800201D4E0000FC
:10515000694E000070B54FF41C724FF4D5710646CD
:1051600008F0F4FB042109F019F804220446002198
:105170002BF0F8FF6FF003054FF0FF31B42201234D
:1051800061702570A270E37030460249BDE870403E
:105190001AF0E0B89951000010B540F2822282B0B6
:1051A0004FF4D571044608F0D1FBB0F904300A4A37
:1051B00013B1092382F8BB3292F8D1325B0082F836
:1051C000D13234B10023214600931A4603480DF032
:1051D00041F902B010BD00BFDC780020694E00002C
:1051E000174A92F8D13213F0DF0301D00020704744
:1051F00000B592F8BC1282F8D13211F0010383B0ED
:1052000082F8BA0211D0022806D00E4808F098FCA5
:10521000012003B05DF804FB01210A2382F8D102CA
:1052200082F8BB1282F8DB32EFE700931A46194688
:1052300005480DF00FF9012003B05DF804FB00BF35
:10524000DC780020694E000049B801000B4B93F850
:10525000392251070AD593F82D2C920706D493F8DA
:10526000892A22F0010283F8892A704793F8892A53
:1052700042F0010283F8892A704700BFDC780020E1
:1052800070B5534C94F839325D0786B00AD594F85E
:105290002D3C980706D494F8893A23F0010384F84A
:1052A000893A05E094F8893A43F0010384F8893A91
:1052B00094F8DF3247486FF38203022184F8DF322B
:1052C0001BF08CFF00286DD094F8DF3243F004030C
:1052D00084F8DF3294F8D8303F494048032B08BFA8
:1052E00002234FF0080208BF84F8D8302BF006FFE5
:1052F00058B194F800345A0707D594F87432142B37
:1053000034D994F8DF325B0730D494F8DF326FF38E
:10531000410384F8DF32002594F8D9322E492F4812
:1053200094F8D86043F08003082284F8D9322BF037
:10533000E5FE94F8DF2294F800340196003018BF9F
:105340000120C2F38002C3F380031421039005926D
:1053500004930091029540F289134FF4D572012114
:105360004FF0FF300DF07AFD06B070BD08221C49E9
:1053700018482BF0C3FE94F8D91294F8DF2294F861
:10538000893AB0FA80F0400960F3000142F002026D
:1053900023F0010384F8D91284F8DF2284F8893AD3
:1053A0000125B9E70F49082201F1E0002BF0A6FE24
:1053B000002889D094F8D932D90785D40822084921
:1053C00004482BF09BFE00283FF47EAF82E700BF2D
:1053D000DC780020247B00208C300300AC79002096
:1053E00084300300447A002030B5514C83B0054628
:1053F000FFF746FF94F8DF329A071DD408224D4983
:1054000004F1D0002BF07AFE002854D194F8003437
:105410005B0750D494F8DF32580737D494F8BA3287
:10542000042B0CBF0B220522012384F8DB2284F815
:10543000D13215BB03B030BD94F8BC3213F0010F6C
:1054400094F8BA3201D0042B57D0012B0DD0284646
:1054500040F2BB124FF4D57108F078FA0123D4F86A
:105460003C22354916F036FC00250622012384F83B
:10547000DB2284F8D132002DDCD0002329460093B2
:105480001A462E480CF0E6FF03B030BD082204F5A2
:10549000B47104F512702BF031FE0028BED094F8E0
:1054A000D932D907BAD40822254904F512702BF055
:1054B00025FE0028B2D008221E491F482BF01EFEF0
:1054C00020B394F87432142B03D994F8DF325B07BD
:1054D0001CD54FF4F3724FF4D571284608F036FA14
:1054E0000023D4F83C22144916F0F4FB06220123D1
:1054F00084F8DB2284F8D1329CE70B22102384F855
:10550000DB2284F8D132002D94D0B6E70024009439
:105510004FF4F7734FF4D57201214FF0FF300DF0C7
:105520009DFC2146284603B0BDE8304003F020BF73
:10553000DC7800208C300300AC790020694E00003C
:105540008430030070B5114CAD2240F609010546C8
:1055500008F0FCF994F8723184F8DC3A284602230A
:10556000C32240F6090184F8D83008F0EFF994F826
:10557000003494F87221012504F1D00105FA02F2F9
:10558000C3F38003BDE8704016F0A4BBDC780020B4
:1055900070B50B4C82B04FF6FF730646A4F8643129
:1055A0000CF0ECFC074B0093451C04F5B37230463D
:1055B00002235021A4F8665104F08CFF02B070BDA4
:1055C000DC78002009170200F0B57C4C94F8D93241
:1055D000C3F3420383B00546052B00F29C80DFE84D
:1055E00003F003279A085B6B94F9D932002BC0F2C1
:1055F000BA8094F8F41A002940F0A38094F8D132CC
:1056000094F8DD6A5B000920082284F8D13284F81E
:10561000DB0284F8BB22002E74D0694B009328462D
:105620000123684A84F8726104F054FF03B0F0BDAE
:1056300094F83C315B0740F0B78094F8D922624877
:10564000002363F343021946012684F8D922052773
:105650004FF4927284F8DE3284F8BB6284F8DD7213
:105660002BF080FD94F8DA32C4F8E06A022213F0DD
:10567000010FC4F8F02A554B08BFD4F83C22544817
:1056800008BF1340C4F8C8320023294600931A46C5
:105690000CF0E0FE03B0F0BD94F8D9624D4805224D
:1056A000002362F34306009329461A4684F8D96220
:1056B0000CF0D0FE03B0F0BD09234FF4C47240F6E5
:1056C000090184F8DB3208F041F9B0F90460002EDA
:1056D00035D094F8D1325B00DBB2042694F8D9724D
:1056E00084F8D1320122002362F343070093294654
:1056F0001A4684F8BB6284F8D97231480CF0AAFECD
:1057000003B0F0BD00962946334632462C480CF0D3
:10571000A1FE03B0F0BD002400944FF4CE7340F618
:10572000090201214FF0FF300DF098FB009429464B
:105730002346224622480CF08DFE03B0F0BD102314
:10574000CCE794F8D97224480423002663F3430776
:10575000009629463346324684F8D97284F8F56AB1
:105760000CF078FE96E794F8DA3294F8D97218487B
:1057700013F0010F08BFD4F83C22184B08BF1340A8
:10578000C4F8C8320323002663F3430729460125E2
:1057900000963346324684F8D97284F8DE6284F883
:1057A000DD520CF057FE75E70D481BF04FF900284D
:1057B0003FF443AF0A481BF001F83EE7DC780020D5
:1057C000694E00004E7A0020BC8300200088100241
:1057D0001158000095190200991F02000070EF0592
:1057E000B879002008B540F2CD1240F6090108F062
:1057F000ADF805491DF07CF9102200210348BDE8F1
:1058000008400CF0C1BE00BFC9580000115800008C
:10581000002842D0F0B5274F97F8DD3283B02BBB7C
:1058200097F8DE320133DCB287F8DE421F2C14D841
:105830000125D7F8C86205FA04F333421ED1631C70
:10584000DBB201E0324217D1DCB2202C05FA03F2C0
:1058500003F10103F6D187F8DE42002301460093ED
:105860001A4615480CF0F6FD03B0F0BD013B97F861
:10587000DE4287F8DD32D9E787F8DE4297F87231E9
:10588000A3420DD00D4B00930D4A87F872410123BE
:10589000002104F01FFE03B0F0BD0A4808F050B923
:1058A0000023014600931A4604480CF0D3FD03B0D0
:1058B000F0BD00BFDC780020694E0000E557000015
:1058C0004E7A00201158000030B54FF4EA7283B0D0
:1058D00040F60901044608F039F8037923B903B00A
:1058E000BDE8304008F08ABA0022FF210748084D81
:1058F0000DF0AEF800232146009303241A46054814
:1059000085F8BB420CF0A6FD03B030BD1158000075
:10591000DC780020694E000070B53C4C94F8D13220
:10592000402B82B006463BD0FFF790FC94F8BC3287
:105930004022012584F8D122DA0784F8BB5246D4EC
:1059400094F83C315B0713D194F8893A304A314DD1
:10595000314813F0010F4FF0000318BF15460093B4
:105960001A461946C4F8BA510CF074FD02B070BD65
:1059700094F8D830032BE7D10822284928482BF087
:10598000CCFB94F8392294F8D93284F8D85042F0FC
:10599000020243F0010384F8392284F8D932D3E7B4
:1059A00094F8BB32012B1BD0032BBDD1012304F58E
:1059B00012700822194984F8BB322BF0AEFB002389
:1059C000314600931A4617480CF044FDCEE70023F9
:1059D000314600931A4614480CF03CFD02B070BDED
:1059E000D4F8F03A052B4FF000030CBF0E210D2127
:1059F0001A4684F8DB1216F0A3F800233146009310
:105A00001A460A480CF026FDB0E700BFDC780020FB
:105A1000915500004555000049B80100843003004D
:105A2000247B002089420200694E00005DB0010025
:105A300070B5124C94F8893A43F0100213F0010348
:105A400082B0054684F8892A07D1014600931A4698
:105A50000B480CF0FFFC02B070BD0CF08FFA084B45
:105A60000093461C04F5B372284602235021A4F883
:105A7000666104F02FFD02B070BD00BFDC7800202D
:105A8000C9550000F0B540F6BC0185B0D6220446E9
:105A900007F05CFF052108F081FB00284CD0056869
:105AA000002D37D0274E96F8745195B14FF485727A
:105AB00040F6BC01204607F049FF4FF6FC72002378
:105AC0008280214600931A461F480CF0C3FC05B0A3
:105AD000F0BD0146052202A82BF01FFB4FF4817296
