:020000040000FA
:10000000F02F0020490300005103000031020000DE
:1000100055030000570300005903000000000000D2
:100020000000000000000000000000005B03000072
:100030005D030000000000005F030000610300009A
:100040002B0F0000630300003D110000630300005C
:100050006303000063030000310B00006303000032
:1000600063030000630300006303000063030000F8
:1000700063030000630300006303000063030000E8
:1000800063030000390F00006303000063030000F6
:100090005D0F0000630300006303000063030000C2
:1000A00063030000630300006303000063030000B8
:1000B0006303000063030000000000000000000074
:1000C0006303000063030000630300006303000098
:1000D0006303000063030000630300009511000048
:1000E00063030000630300006303000000000000DE
:1000F0000000000063030000000000006303000034
:1001000000000000000000000000000000000000EF
:1001100000000000000000000000000000000000DF
:1001200000000000000000000000000000000000CF
:1001300000000000000000000000000000000000BF
:1001400000000000000000000000000000000000AF
:10015000000000000000000000000000000000009F
:10016000000000000000000000000000000000008F
:10017000000000000000000000000000000000007F
:10018000000000000000000000000000000000006F
:10019000000000000000000000000000000000005F
:1001A000000000000000000000000000000000004F
:1001B000000000000000000000000000000000003F
:1001C000000000000000000000000000000000002F
:1001D000000000000000000000000000000000001F
:1001E000000000000000000000000000000000000F
:1001F00000000000000000000000000000000000FF
:10020000DFF80CD000F0C0FA00480047714B000046
:10021000F02F002000B583B002900091019244F2CB
:10022000010071466A4601F001F903B000BD00000B
:10023000094B1EF0040F1CBFEFF309801847EFF3C2
:1002400008800649064A884201D8904202D88D4665
:100250004FF0000018470000E50C0000F02F0020D0
:10026000F00F002030B4044654E8000F0D4644E877
:100270000053002BF8D1156030BC704730B40446F1
:1002800054E8000F40EA010544E80053002BF7D181
:10029000156030BC704730B4044654E8000F00EAE3
:1002A000010544E80053002BF7D1156030BC7047BE
:1002B00030B4044654E8000F80EA010544E80053D6
:1002C000002BF7D1156030BC704730B4044654E8B9
:1002D000000F00EB010544E80053002BF7D1156037
:1002E00030BC704730B4044654E8000FA0EB010561
:1002F00044E80053002BF7D1156030BC704770B450
:1003000004464FF0000054E8006F0D68AE4207BF8E
:1003100044E80023012044E800630E60002B1CBF6A
:100320000020F0E770BC704730B4044654E8000F7A
:1003300088422CBF451A054644E80053002BF5D1EE
:10034000156030BC704700000648804706480047EB
:10035000FEE7FEE7FEE7FEE7FEE7FEE7FEE7FEE775
:10036000FEE7FEE7610F0000010200002DE9F05FEB
:100370000546002092469B46884606468146402414
:100380001BE0284641464746224600F0ABF953465B
:100390005A46C01A914110D311461846224600F021
:1003A00016F82D1A67EB01084F462246012000215E
:1003B00000F00DF817EB00094E41201EA4F10104D6
:1003C000DFDC484631462A464346BDE8F09F202AF6
:1003D00004DB203A00FA02F1002070479140C2F19C
:1003E000200320FA03F319439040704700487047F8
:1003F000CCBD000010B50446FFF7F8FF0068005DB3
:1004000000F0010010BD2DE9FE43994615468846CF
:10041000074601AC022942D3002D40D000200290B3
:10042000A8F101004FF0FF36009022E000FB0572BA
:1004300001FB057011464A469047002805DC54F838
:100440002600304444F8260013E060682A4600FB8A
:10045000057154F8040C00FB057007E00B7890F868
:1004600000C001F801CB00F8013B521E002AF5D173
:10047000764254F8040C61688842D7DC4B462A4621
:100480003846FFF7C0FF54F8040C4B46A8EB0001B8
:10049000401C00FB05702A46491EFFF7B4FFBDE86B
:1004A000FE8310B5431A934209D28318881803E0DB
:1004B00010F8011D03F8011D521EF9D210BD40EACB
:1004C00001039B0703D009E008C9121F08C0042AD2
:1004D000FAD203E011F8013B00F8013B521EF9D2B9
:1004E00010BDD2B201E000F8012B491EFBD27047CB
:1004F0000022F6E710B513460A4604461946FFF7F0
:10050000F0FF204610BD421C10F8011B0029FBD152
:10051000801A704710B5002200E0521C835C8C5C8E
:10052000A34201D1002BF8D1D8B2E1B2401A10BDDC
:10053000034611F8012B00F8012B002AF9D11846C7
:10054000704730B505460020034600E05B1C93422F
:1005500005D2EC5CC85C201A01D1002CF6D130BD6C
:100560000FB400B58DB010A909900B9000914FF019
:10057000FF300A9000200C9005480690054807902F
:100580006A4609A80F9900F0D1F80DB05DF814FB88
:1005900049070000670700002DE9FF5F1D464FF087
:1005A000FF3BD5E9014691465F464FF00008A96937
:1005B0007F1C01988847296A824688470028F6D11F
:1005C000BAF1FF3F0CD024F4C064002E19DD6006A0
:1005D00014D5BAF12B0F09D0BAF12D0F0ED103E0CB
:1005E000584604B0BDE8F09F44F48064A9697F1CBC
:1005F00001988847761E8246002E02DDBAF1300F40
:1006000003D0B9F1000F26D032E0A969761E44F478
:1006100000747F1C019888478246002E05DDBAF1E0
:10062000780F06D0BAF1580F03D0B9F1000F10D0EF
:100630001EE0B9F1000F02D0B9F1100F18D1A9696D
:10064000761E24F400747F1C01988847824610208F
:1006500002E0082000E00A20814609E008FB0908C2
:10066000A969761E44F400747F1C0198884782466D
:10067000002E05DD4946504600F044F80028EDDA2A
:10068000E96901988847A00502D46FF00100A8E746
:10069000E00725D1600613D5600502D5C8F100003A
:1006A00000E0404629680A1D2A600968220501D534
:1006B000087015E0220701D5088011E008600FE0FE
:1006C0002868011D29600068210502D580F8008096
:1006D00006E0210702D5A0F8008001E0C0F8008004
:1006E00038467EE7202A04DB203A21FA02F0002176
:1006F000704721FA02F3D040C2F120029140084332
:10070000194670473A2800D2303820F02002412A9A
:1007100001D3A2F13700884201D34FF0FF30704778
:10072000026811441378016018467047D16004498B
:1007300051610449116200211161114600F036B87F
:1007400021070000F5030000426842B1016811F87A
:10075000013B23B1521EC0E9001218467047012127
:10076000C160881E704742685AB1C368016843B9C6
:1007700083688B4205D0491E521CC0E9001200203C
:1007800070474FF0FF307047064C074D06E0E068B9
:1007900040F0010394E8070098471034AC42F6D3C8
:1007A000FFF732FD20CF000040CF00002DE9F34FCE
:1007B0008BB04FF0000801F10C000C464FF0010B1C
:1007C00046460DF1080A019062690121019890479F
:1007D000051E2DD0252D2CD0216A8847C0B1626915
:1007E000012101989047216A88470028F7D1411ECE
:1007F00062690198904700E0761CA1690B988847D0
:10080000216A88470028F7D1E1690B988847DBE720
:10081000A1690B9888470746A84201D1761CD3E707
:10082000E1690B9888477F1C02D1B8F1000F6FD0A7
:1008300046E1002762693D463946019890472A28DB
:1008400004D162690121019890470125DFF8849263
:100850006269012101989047A0F130010A290AD26A
:100860004F45E5DC07EB870100EB4107303FDFD464
:1008700045F01005ECE7E90601D46FF000476C285D
:100880000AD04C2814D0682815D06A280DD07428B6
:100890001CD07A281AD01DE0626901210198904786
:1008A0006C2802D045F0040514E045F002050DE087
:1008B00045F020050AE06269012101989047682807
:1008C00002D045F0080505E045F4006562690121A4
:1008D00001989047C4E9015765283DD019DC582894
:1008E0007AD00CDC452837D004DC252826D04128D6
:1008F00031D131E046282FD047282CD12CE05B287D
:1009000077D0612828D063287CD0642823D15AE08E
:10091000D0E06F2848D008DC66281DD067281BD09F
:10092000692821D06E2816D127E0702845D0732879
:1009300068D0752847D078280DD14DE0A1690B9873
:100940008847054625283FF469AFE1690B98884739
:100950006D1C3FF46AAFB3E023466A466FF00100B6
:100960000B99AFF300809EE045F040006060A8075F
:1009700023464FF0000236D43EE0E8077FF447AF4D
:100980002068011D21600068290501D506701BE75C
:10099000290701D5068017E7A90703D5F117C0E994
:1009A000006111E706600FE745F040006060A807AE
:1009B00023464FF0080216D41EE040F60E0125EA49
:1009C0000100606016E045F040006060A807234623
:1009D0004FF00A0207D40FE045F040006060A8071E
:1009E00008D5234610226FF001000B99AFF3008069
:1009F00059E007E0234610226FF001000B99FFF742
:100A0000CBFD50E04FF000094F464B46632802D023
:100A10005B2806D040E0E80601D40120A060012751
:100A20003AE062690121019890475E2805D14FF0B4
:100A300001096269494601989047216939B9002145
:100A40000A46534643F82120491C0829FADBB0B373
:100A5000216969B9C11700EBD16253110AEB830117
:100A600022F01F02821A01200B68904003430B60A2
:100A700062690121019890475D28E8D1B9F1000F22
:100A800009D00020514651F82020D24341F82020BF
:100A9000401C0828F7DB02AB224600976FF00100EC
:100AA0000B99AFF3008000280CDA401C08D1BBF191
:100AB000000F05D04FF0FF300DB0BDE8F08FFFE71D
:100AC0004046F9E7E90701D108F1010806444FF073
:100AD000000B79E6CCCCCC0C70B58C1810F8015B0F
:100AE00015F0070301D110F8013B2A1106D110F8C7
:100AF000012B03E010F8016B01F8016B5B1EF9D1CB
:100B00002B0705D40023521E0DD401F8013BFAE750
:100B100010F8013BCB1A921C03E013F8015B01F8BB
:100B2000015B521EF9D5A142D8D3002070BD000050
:100B30002DE9F04F00268DB0DFF8A081B146049674
:100B40004FF48075012437460596284607F030F8A3
:100B500038B1D8F80403204203D0284607F01EF825
:100B600026432D1D64007F1CADB2082FEDD34FF43A
:100B7000BE74204607F01CF848B1204607F00EF876
:100B800046F0004604AA0221002006F0D1FF544C92
:100B900016F0FF0F15D00127002537420DD008EBC6
:100BA0008501D1F81005D1F81015C0F3052054F8CF
:100BB0002520C1F3014102B190477F006D1C082D33
:100BC000EBD3002E7EDA0020CDF82890411E0DF1E7
:100BD000100B07AACDF82C9042F82010401C91462B
:100BE0000228F9D300252E46A11911F8607F91F94A
:100BF000000027F0C008401C40D007A9404604F080
:100C000027FC40B34FEA971A404601F09DF954F88B
:100C100020701FB1BAF1030F03D006E0BAF1030F41
:100C20002CD10AA9404604F01BFC02A8CDF808808C
:100C300006F0BCFE029900EB8100D0F8000704A981
:100C4000C0F301400290404604F002FC00280298E4
:100C500002D0022802D011E003280FD1BAF1030F0D
:100C600008D10298022833D00221404606F056FEF1
:100C70006D1CEDB217B151464046B847761C042EA4
:100C8000B2D3002D21D001AA0221002006F050FF8E
:100C900000205A460DF1040152F8206051F820302E
:100CA000B34217D000200AAE4FEA090351F8207072
:100CB00042F8207056F8207043F82070401C02283B
:100CC000F4D300E001E0002D8CD10DB0BDE8F08F31
:100CD0000321CAE7401C0228DED3F6E7006000408B
:100CE000040900201CB5814607F064FA07F006F8F5
:100CF0000028FBD137484E460768374C012560680D
:100D0000002821D0208835A105EB0040B26907F00A
:100D100023F96068002817D0D6E90201CDE9000167
:100D20002088D6E9002305EB004032A107F02CF91A
:100D3000606848B1F0690090D6E9042320883BA19F
:100D400005EB004007F017F92248001D00688007F6
:100D500007D5606828B120883E4905EB004007F0C0
:100D6000F7F8DFF8F480002605FA06F038420AD0DA
:100D700058F826203AB1606828B1208837A105EBE1
:100D8000004007F0E9F8761C1A2EEDD338060AD594
:100D9000606840B10F480C300268208832A105EB32
:100DA000004007F0D9F838040AD5606840B1094816
:100DB00010300268208834A105EB004007F0CCF821
:100DC0000448C8300068C00700D000BE484600F0A4
:100DD00069F8000028ED00E0640200204841524418
:100DE000204641554C5420617420307825303858C5
:100DF00000000000202052303A2020307825303882
:100E000058202052313A2020307825303858202080
:100E100052323A2020307825303858202052333A48
:100E20002020307825303858000000002020523132
:100E3000323A2030782530385820204C523A202041
:100E400030782530385820205053523A20307825B9
:100E50003038580030BF0000F00000204361757347
:100E6000653A2025732E00004D656D4D616E6167FA
:100E700065204661756C7420416464726573733AD1
:100E80002030782530385800427573204661756CE3
:100E90007420416464726573733A20307825303869
:100EA00058000000BFF34F8F05480168054A01F460
:100EB000E06111430160BFF34F8F00BFFDE7000009
:100EC0000CED00E00400FA0500F01F020121914042
:100ED0004009800000F1E020C0F88012704700F067
:100EE0001F02012191404009800000F1E020C0F87C
:100EF0000011704700F01F0201219140400980005D
:100F000000F1E020C0F8001270474907090E0028E0
:100F100006DA00F00F0000F1E02080F8141D7047A1
:100F200000F1E02080F80014704710B508F0BEFA18
:100F3000BDE8104008F060B807480021C0F8401133
:100F4000C0F84411C0F84811C0F84C11C0F80011A5
:100F5000C0F8041109F0CCBB0010014009F01ABB25
:100F600030B54FF0805000228300D0F83011C3F824
:100F70000C21C3F81021624B1A60624B1B68624C53
:100F80002360604B1B1D1B68241D23605D4B0833D1
:100F90001B68241D23605B4B0C331B68241D2360DE
:100FA000584B10331B68241D2360564B14331B68A9
:100FB000241D2360534B18331B68534C203423608B
:100FC000504B1C331B68241D23604E4B20331B6881
:100FD000241D23604B4B24331B68241D2360494B85
:100FE00028331B68241D2360464B2C331B68241DAB
:100FF0002360444B30331B68434C40342360414BE7
:1010000034331B68241D23603E4B38331B68241D7A
:1010100023603C4B3C331B68241D2360394B403319
:101020001B68241D23600124082902D1D0F8343123
:1010300013B1082904D006E0354B3449196005E0A6
:10104000D0F8343113B1082904D006E0314BFB212C
:10105000196005E0D0F8343113B1082908D00EE04A
:1010600090F858322C48016863F30301016002E0F4
:10107000D0F834311BB929494FF400700860284872
:101080000168C90702D06FF00101016025480168BD
:1010900041F470010160BFF34F8FBFF36F8F4FF0CA
:1010A0001021D1F80002002803DBD1F80402002847
:1010B00022DA1D4B1C601D480468002CFCD0122451
:1010C000C1F800420568002DFCD0C1F80442016857
:1010D0000029FCD01A6001680029FCD0BFF34F8FB3
:1010E00010487C380168124A01F4E0611143016044
:1010F000BFF34F8F00BFFDE70F490E48086030BDBA
:10110000380500400404001020C500404881030059
:101110008C56004018F50040E40E00404096024016
:101120000004004088ED00E004E5014000E40140D7
:101130000400FA050090D003D401002010B5054C3E
:10114000206818B904A12B2000F0A2FB2068BDE89C
:1011500010400047AC0000202E2E5C2E2E5C2E2E60
:101160005C2E2E5C2E2E5C2E2E5C6D6F64756C6575
:10117000735C6E7266785C647269766572735C73B8
:1011800072635C7072735C6E7266785F7072732EDD
:10119000630000002DE9F05F5448D0F804530024A8
:1011A0002E464FF0010913E096FAA6F0B0FA80F748
:1011B000B80000F58070804607F058FE28B1404620
:1011C00007F05CFE09FA07F0044309FA07F08643CA
:1011D000002EE9D105F00EFE002869D0444AD078EF
:1011E000F0BBA00264D5434940F2A978C1F8008061
:1011F000081D036813F0FF0C02D0036803EA0C0C0F
:1012000040F2AA7AC1F800A0036813F0FF0301D0EE
:101210000668334040F2AB7BC1F800B0066816F0B8
:10122000FF0601D007683E4040F2AC770F600768C8
:1012300017EA0C0709D0D2F810C04CEA070CC2F824
:1012400010C0C1F800800760076840F2AD770F60FA
:1012500007681F4009D0136943EA0743136100E0A0
:1012600026E0C1F800A00760036840F2AE730B608F
:10127000036833400BD0DE0701D044F40004DE06DF
:1012800001D544F00104C1F800B0036000681069A2
:1012900030F0011102D005F080710C4310F0011FF5
:1012A00006D0690504D520F0011044F48064106173
:1012B000C4F3C05624F400044F46DFF83C8009E034
:1012C00094FAA4F0B0FA80F558F82500804707FAA0
:1012D00005F08443002CF3D109F0C6FC002E03D0A6
:1012E000BDE8F05F02F00ABCBDE8F09F007002406C
:1012F0007C0000200078024088B80000C11700EB95
:10130000D161074B4A1153F8222021F01F01411AE5
:1013100001208840024201D0012070470020704720
:1013200000E100E002E008C8121F08C1002AFAD15B
:1013300070477047002001E001C1121F002AFBD155
:101340007047022000F0E2BA70B50A4D686818B91B
:1013500009A1942000F09CFA002406E068680121AD
:1013600010F8340007F0B8FE641C28788442F5D3E6
:10137000002070BDB80000202E2E5C2E2E5C2E2E7C
:101380005C2E2E5C2E2E5C2E2E5C636F6D706F6E4D
:10139000656E74735C6C69627261726965735C62BC
:1013A0007574746F6E5C6170705F627574746F6E6B
:1013B0002E630000F8B515460C460646052A01D2F4
:1013C0000720F8BD07F0F6FF18B907F0B9FF0028AD
:1013D000F7D1124900224E600C708D60C1E90422E1
:1013E000C1E906220E4D0DE006EBC400296800910C
:1013F00081788DF8011000780A4A694607F0E8FE06
:101400000028DED1641EE4B2EED2BDE8F840044804
:101410000021054A001D00F0CBB80000B8000020F4
:1014200034B90000B13D0000193700002DE9FE433A
:1014300015460F46804672B606F0BCFE06F05EFC0E
:101440000028FBD16FF48041224C18EB01004FF0D3
:10145000010622D00128606814D030B120883A46B5
:1014600006EB00401CA106F077FD21480068C0078C
:1014700000D000BE2A4603B039464046BDE8F043DE
:1014800000F064B80028F0D020882B8806EB0040DC
:1014900018A16A6806F067FDE7E760680028E4D0F5
:1014A000A86807F035FB0346D5E90001CDE9001037
:1014B0000297208816A106EB0040AA6806F06EFD90
:1014C00060680028D1D020881BA106EB004006F000
:1014D0003FFDCAE794020020554E4B4E4F574E2019
:1014E0004641554C542061742030782530385800DE
:1014F000F0ED00E0415353455254494F4E204641D0
:10150000494C45442061742025733A25750000003C
:101510004552524F52202575205B25735D20617422
:101520002025733A25750D0A50432061743A203006
:101530007825303878000000456E64206F6620659D
:1015400072726F72207265706F72740008B5012339
:101550008DF800309DF80030144B186059609A6087
:101560006FF48041401807D001280FD1DA60D868A5
:1015700000889861D86807E01A6118698068586126
:1015800018690068986118694068D86118685868D7
:101590009868D868186958699869D86972B600BFA0
:1015A0009DF800000028FBD162B608BDE0090020CC
:1015B000074B9B7823B12AB120B10068037C1BB193
:1015C000082070470720704741744261002070472F
:1015D000000A002070B508F02FFE104800240B21EF
:1015E000047044700E4D817014206C602C706C700F
:1015F000FFF76AFC07211420FFF787FC1420FFF790
:101600006EFC0848046007211120FFF77EFC0548A6
:10161000001F0068A860002070BD0000000A0020C4
:10162000D8000020081501402DE9F843DFF870903C
:1016300099F802305BB350B3052902D20720BDE808
:10164000F88343691BB3437C012B22D00027044657
:10165000002588461646284600F036F8684609F008
:1016600093FFC0B1012101700E4944600968C0E9CF
:101670000218C0E904769DF8000089F801000020F6
:1016800000F050F81420FFF735FC2846D7E7082073
:10169000D5E70F46DBE70425002000F043F8F4E728
:1016A000000A0020041501400649897839B130B19B
:1016B000416921B100210174022108F0F9BF08201D
:1016C00070470000000A002010B508F053FD012803
:1016D00003D004A11D2000F0DBF8BDE8104000F0AD
:1016E0004FB800002E2E5C2E2E5C2E2E5C2E2E5C13
:1016F0002E2E5C2E2E5C636F6D706F6E656E747334
:101700005C6C69627261726965735C7574696C5C4A
:101710006170705F7574696C5F706C6174666F7214
:101720006D2E630010B508F025FD012803D004A13B
:101730002B2000F0ADF8BDE8104000F029B8000003
:101740002E2E5C2E2E5C2E2E5C2E2E5C2E2E5C2ED3
:101750002E5C636F6D706F6E656E74735C6C696226
:101760007261726965735C7574696C5C6170705FDD
:101770007574696C5F706C6174666F726D2E630056
:1017800072B602480168491C01607047EC000020F5
:1017900003490868401E086000D162B67047000027
:1017A000EC00002070B5054608680C46411C04D0CA
:1017B00006F097F9206806F09DF86068411C02D099
:1017C000002106F085F82968A069C1F82405607D2C
:1017D000227D29681043C1F86C05D4E900122868FD
:1017E000C0F81425C0F80C15207D012814D1A0687C
:1017F000411C02D0002106F06BF8E068411C04D0C7
:1018000006F06FF9E06806F075F8D4E9021228686E
:10181000C0F80825C0F8101570BD70B505460868F9
:101820000C46411C04D006F066F9206806F06CF8FE
:101830006068411C02D0002106F053F82968A069B5
:10184000C1F82405607D217D2A680843C2F86C0533
:10185000D4E900122868C0F80C15C0F81425207DC2
:10186000012814D1A068411C02D0002106F039F8EB
:10187000E068411C04D006F03EF9E06806F044F848
:10188000D4E902122868C0F80825C0F8101570BD08
:101890001CB56A46ADF800000191002144F2020037
:1018A000FFF7C4FD1CBD102802D31038C0B270472A
:1018B00040F08000704700002DE9FC410646C0075B
:1018C0004FF000050ED0104F00240122385D009526
:1018D00000231146019505F085FF641C042CF4D308
:1018E00000F0D2F8B0070DD5074E0024361D0022B7
:1018F000305D032300951146019505F073FF641CCC
:10190000042CF4D3BDE8FC81BCB7000038B5044614
:10191000042803D30BA13920FFF7BAFF1548005D57
:101920000090684606F012F8D0F80425009B0121CB
:10193000994021EA0203C0F808351140C0F80C159F
:1019400038BD00002E2E5C2E2E5C2E2E5C2E2E5CC2
:101950002E2E5C2E2E5C636F6D706F6E656E7473D1
:101960005C626F617264735C626F617264732E6338
:1019700000000000BCB7000010B50446042803D3E3
:1019800005A12120FFF784FF0F480121005DBDE87C
:10199000104006F0BAB800002E2E5C2E2E5C2E2EC3
:1019A0005C2E2E5C2E2E5C2E2E5C636F6D706F6E27
:1019B000656E74735C626F617264735C626F617296
:1019C00064732E6300000000BCB7000010B504462D
:1019D000042803D305A11B20FFF75AFF0F4800215D
:1019E000005DBDE8104006F090B800002E2E5C2E81
:1019F0002E5C2E2E5C2E2E5C2E2E5C2E2E5C636FAB
:101A00006D706F6E656E74735C626F617264735C2F
:101A1000626F617264732E6300000000BCB7000047
:101A200038B50446042803D30AA11420FFF730FF79
:101A30001448005D0090684605F088FFD0F8040562
:101A40000099C84010F0010000D0012080F0010092
:101A500038BD00002E2E5C2E2E5C2E2E5C2E2E5CB1
:101A60002E2E5C2E2E5C636F6D706F6E656E7473C0
:101A70005C626F617264735C626F617264732E6327
:101A800000000000BCB7000010B500242046FFF79E
:101A900073FF641C042CF9D310BD10B5002420463C
:101AA000FFF794FF641C042CF9D310BD10B5024657
:101AB000064B4FF0FF3000215C5C944201D1084698
:101AC00010BD491C0429F7D310BD0000C0B70000A9
:101AD0002DE9F0470D468146FFF7E8FF044604284C
:101AE00036D2DFF874801B481C4EA8F10C0725B3D2
:101AF000012D0ED0022D2BD104EB4400304445784B
:101B0000002D25D0B968002922D02846BDE8F0472D
:101B1000084704EB4401755C0E44717849B10E4AE4
:101B20004FF40041093A8068FFF77EFD08B987F855
:101B30000390B17808F80410E2E78068FFF7B4FD7D
:101B400004EB4401314418F804008D78A842D7D042
:101B5000BDE8F087C4B700005C0000208C060020C0
:101B600001490860002070476000002070B5002324
:101B7000042810D20D4D00EB4004012A02D10129A6
:101B80000CD00022094E00EB4000304461B1012925
:101B900006D0022906D00723184670BD0E30C2B207
:101BA0002A55F9E74270F7E78270F5E78C060020C6
:101BB000012207490C2806D00E2806D0162801D18C
:101BC000002008707047CA7170470A7070470000A3
:101BD0003000002070B506461E480024C0E90161AF
:101BE000B00720D50025012211462846FFF7BEFF89
:101BF0006D1C0446042D02D2002CF4D013E094B9DD
:101C000040F2666204211448FFF7D4FB04000AD1B5
:101C1000FFF79AFB040006D10F48104A0021001F6D
:101C2000FFF7C6FC0446F00712D00120FFF744FE80
:101C300074B909480A4A00210C38FFF7B9FC0400BE
:101C400006D10548074A01210838FFF7B1FC0446D0
:101C5000204670BD50000020D0B70000DD1E0000FF
:101C6000D1440000431300002DE9F05F6A4C0546A3
:101C700000266078B34618B184F801B002F010FC79
:101C8000664F4FF47A694FF4C87A4FF00108182D67
:101C900062D2DFE805F0AC0C0C31404D62676B742A
:101CA0006B74BE7D7D7D7D7DACAFB2B5BEBE0020C8
:101CB000FFF7B6FE00284FF0000008D0FFF75CFEEB
:101CC000022D02D14FF4E16008E0484606E0FFF73C
:101CD0007DFE022D01D1C82000E05046410CC0031A
:101CE0004FF4FA72801841F1000125705200002370
:101CF000FEF73CFB01462AE00020FFF791FE00289A
:101D00004FF0000004D0FFF737FE4FF44870E5E7CE
:101D1000FFF75CFEDFE70020FFF782FE00284FF0B0
:101D2000000002D0FFF728FECFE7FFF74FFED4E711
:101D30000020FFF775FE00284FF0000002D0FFF7EB
:101D40001BFE01E0FFF742FE257041F69A110022CA
:101D50003868FFF769FC064646E00020FFF7D6FD2D
:101D6000257008E0002051E025703DE084F80180F6
:101D70000120FFF7CBFD002240F6CD41E8E784F8D3
:101D800001800120FFF7C2FD00224FF48041DFE710
:101D90007868FFF789FC0646D5F1110000D02EB116
:101DA0000220FFF7E9FD84F802B01DE0012816D9F2
:101DB00080B2C8214843C117C90341EA5041C0035A
:101DC0004FF4FA72801841F1000152000023FEF72F
:101DD000CDFA014600227868FFF726FC064602206D
:101DE000FFF7F4FD84F802803046BDE8F09F02F072
:101DF00057FBB9E702F054FBB4E702F051FB04E0F3
:101E000002F04EFB0020FFF7E1FD0120FFF7DEFDB1
:101E1000AAE7FFF742FEA7E750000020C4B7000082
:101E20002DE9F0470546861C90460F464FF0010904
:101E30000020FFF749FC1B4C20683860D4E9000102
:101E4000401AA16804F21C47081A0EE00121384626
:101E500003F044F902F09AFD0146384603F03EF9DA
:101E6000D4E90001401AA168081A401C8642EDD846
:101E7000B8F1000F03D0052065F3891002E00620B9
:101E800065F39F50A2682168114004EB8101C8608E
:101E90002068304420600020FFF744FC4846BDE83D
:101EA000F0870000CC0B002030B482680468531C1B
:101EB0008360A154D0E901128A4202D330BC05F0FC
:101EC0003BBB30BC70470000034803C8814201D1CE
:101ED0000120704700207047CC0B002000780221C1
:101EE000FFF7F6BD05494FF0FF32082841F82020E2
:101EF00002D3084480F858207047000004090020ED
:101F0000F0B54FF0FF3512B10023082601E0082399
:101F10000C260C4C05E000BF54F823707F1C04D045
:101F20005B1CB342F8D32846F0BD26185DB286F894
:101F3000305044F82310002AF5D1E11881F85800F8
:101F4000F1E70000040900200249084490F930003C
:101F5000704700000409002070B5816804468A7C3F
:101F6000002A4DD0C87C00284AD0121A0844D5B2A5
:101F700000F114016A1C1330FEF793FAA068C17CCB
:101F8000491EC174A068817C491E81748DB30822EA
:101F90001C49206905F090FA204603F06BF881781F
:101FA000C078814211D1A06817A2C17C43180821D2
:101FB0002046143303F022FE204600F03DF9294666
:101FC0002046BDE8704001F085BA204600F0A0F937
:101FD000204600F031F9A0680BA2C17C431808210B
:101FE0002046143303F00AFE2046BDE8704000F09E
:101FF00059B92069BDE87040044A03A105F05CBAF4
:1020000070BD0000342200002573000004BB0000F6
:1020100070B504468068827CC17C521A12F0FF05BC
:1020200048D0084400F115012A461430FEF739FA69
:10203000A068817C491E8174204603F01BF88178DA
:10204000C07881420CD1A0681BA2C17C4318082132
:102050002046143303F0D2FD4FF47076C4B913E078
:10206000204600F055F9204600F0E6F8A06812A2DC
:10207000C17C431808212046143303F0BFFD2046DD
:10208000BDE8704000F00EB90CA13046FFF700FC2F
:10209000206918B909A13046FFF7FAFB154A06A1D5
:1020A000206905F009FA6D1EE9B22046BDE87040CE
:1020B00001F010BA70BD0000257300002E2E5C2EBA
:1020C0002E5C2E2E5C2E2E5C2E2E5C2E2E5C636FD4
:1020D0006D706F6E656E74735C6C6962726172694B
:1020E00065735C636C695C6E72665F636C692E63BA
:1020F0000000000008BB00002DE9F04104468068A4
:102100000F46D0F83C11C27C11F00106817CA1EB96
:102110000203DDB20AD07F2901D3002D7ED0A06852
:10212000C17C08440021077566B113E07F297CD289
:10213000002DF4D0831803F114012A46481CFEF741
:10214000B0F9ECE7A068827C521CD2B28274A0681D
:10215000143281544DB3204602F08CFF8178C07850
:1021600081420ED1A06832A2C17C431808212046CA
:10217000143303F043FDA81BC1B2204601F0AAF9B5
:1021800021E0204600F0C4F8A06829A2C17C4318D1
:1021900008212046143303F031FD204600F082F878
:1021A0000121204601F0A0FA0DE03EB1A068827C3A
:1021B000521CD2B28274A068143281543A461DA1D6
:1021C000206905F079F9A168C87C401CC8742046D4
:1021D00001F06DF90028204603D0BDE8F04101F080
:1021E00085B901F0D2FD00281FD0204602F042FF41
:1021F0000546C078A978401A401EC1B2204601F0B9
:10220000F7F8204601F072F9E878A978401AC1B2CF
:10221000204601F075FA2878401E00E005E0C1B2C2
:102220002046BDE8F04101F05FBABDE8F081000052
:10223000257300002563000070B504004FF4B275EB
:1022400003D108A12846FFF723FB206918B905A18F
:102250002846FFF71DFB2069BDE870400F4A10A11A
:1022600005F02AB92E2E5C2E2E5C2E2E5C2E2E5CB6
:102270002E2E5C2E2E5C636F6D706F6E656E7473A8
:102280005C6C69627261726965735C636C695C6ED7
:1022900072665F636C692E6300000000FCBA000088
:1022A0002573000070B504004FF4B87503D108A180
:1022B0002846FFF7EDFA206918B905A12846FFF76F
:1022C000E7FA2069BDE870400F4A10A105F0F4B8A4
:1022D0002E2E5C2E2E5C2E2E5C2E2E5C2E2E5C2E38
:1022E0002E5C636F6D706F6E656E74735C6C69628B
:1022F0007261726965735C636C695C6E72665F6360
:102300006C692E6300000000F3BA00002573000022
:1023100070B504004FF4B57503D108A12846FFF746
:10232000B7FA206918B905A12846FFF7B1FA206964
:10233000BDE870400F4A10A105F0BEB82E2E5C2EED
:102340002E5C2E2E5C2E2E5C2E2E5C2E2E5C636F51
:102350006D706F6E656E74735C6C696272617269C8
:1023600065735C636C695C6E72665F636C692E6337
:1023700000000000F0BA0000257300002DE9F04FC6
:102380004FF000099DB005464E464C46CDF81490DE
:1023900000F01EFF284601F067FE284601F034F8E1
:1023A000284601F084F810B9284601F09FF8AA6881
:1023B0000C2308A901A8143202F0D8FC03460198A6
:1023C00040B15BB154A20221284603F017FC1DB0B6
:1023D000BDE8F08F284601F089F8F8E755485449E0
:1023E0000027A1EB00080DF1200A834613E008D373
:1023F00051A0009055A202212846089B03F0FEFB45
:10240000E5E70BEBC704606801685AF82900FEF79E
:1024100081F818B17F1CB7EBD80FE8D9207820B12C
:102420004CA140F68200FFF733FA4FF0000BCDF8D5
:1024300068B06068C7680FB1A9684860606809F152
:1024400001044FF0000880680DF1580906900198CA
:10245000844237D25AF824004CA1FEF75BF850B3FF
:102460005AF824004AA1FEF755F820B3424608F175
:1024700001081AAB2146CDF80090069800F03AFE0C
:10248000B8F1000F1ED01A98E0B101685AF8240084
:10249000FEF740F80028DAD11A98C16829B1A8F1EE
:1024A0000101DDF818B02646059180684FF000085C
:1024B000641C0690CBE7A868D0F83C1141F00201FB
:1024C000C0F83C11BBF1000F12D0CDF800901AAB50
:1024D00031465846059A00F00DFEA9681A980AEB95
:1024E000860248600199C368891B284698470AE01C
:1024F00027B108AA28460199B84704E026A202217C
:10250000284603F07BFBA868D0F83C1121F00201BB
:10251000C0F83C115BE700006E6F74207465726D4B
:10252000696E617465643A2025630D0A000000003D
:1025300080CF000040CF00003A20636F6D6D616E68
:1025400064206E6F7420666F756E6400257325734A
:102550000D0A00002E2E5C2E2E5C2E2E5C2E2E5C84
:102560002E2E5C2E2E5C636F6D706F6E656E7473B5
:102570005C6C69627261726965735C636C695C6EE4
:1025800072665F636C692E63000000002D680000B6
:102590002D2D68656C700000506C6561736520734B
:1025A000706563696679206120737562636F6D6D14
:1025B000616E642E0D0A00008068D0F83C01C0F303
:1025C000C00070472DE9F0410446C0688EB00D464A
:1025D0000026C068324601A905F0D0FE18B10020DF
:1025E0000EB0BDE8F0816DB1019805F0A1FEA168C3
:1025F000D1F82C01401CC1F82C0100F00700012883
:1026000079D10126204602F035FD05468078012863
:1026100004D9401EC1B2204601F072F82878012882
:1026200004D9401EC1B2204600F054FF2046FFF7F7
:1026300003FE2EB131A20221204603F0DFFA5AE058
:102640004FF000080023082202A9019805F07FFE40
:1026500004980590BDF80C00ADF81800BDF80E0008
:10266000ADF81A008DF81D800298082700F00300CD
:10267000012802D0022818D032E002983B46860A90
:10268000C0F3C2008DF81C00029808A9C0F383159E
:10269000AA00019805F05BFE2069009005AB2A4670
:1026A00008A9304605F09AFD1AE00298850DC0F39E
:1026B000C2008DF81C00082D01D22E4600E008262D
:1026C0003B46324608A9019805F041FE3744AD1B50
:1026D00005AA314608A8236905F06EFC002DEAD151
:1026E000019805F025FEE068002201A9C06805F008
:1026F00045FE0028A6D0012072E700004C6F7374DD
:10270000206C6F6773202D20696E6372656173653D
:10271000206C6F67206261636B656E642071756504
:1027200075652073697A652E0D0A00002DE9F04168
:102730001E4617460D46040000D01DB909A1EA2027
:10274000FFF7A6F8606818B906A1EB20FFF7A0F81C
:10275000606833463A4601680C692946A446BDE8DC
:10276000F04160472E2E5C2E2E5C2E2E5C2E2E5CB1
:102770002E2E5C2E2E5C636F6D706F6E656E7473A3
:102780005C6C69627261726965735C636C695C6ED2
:1027900072665F636C692E63000000007CB50026E2
:1027A0000446019601AB012269462046FFF7BEFFB1
:1027B000019800281CD09DF800007F28F2D805F071
:1027C000DCFDA068417821B1012961D0022963D1E3
:1027D00067E0217E9DF80050A9420DD1807C002841
:1027E000204606D0FFF7CAFD0221204600F0C8F8B7
:1027F0007CBD00F07BFEF7E7092D1CD004DC002D2A
:10280000D0D0082D04D11FE01B2D12D07F2D24D055
:10281000FDF7ECFD0068405D10F03E0FC2D0204691
:10282000FFF7CAFE9DF8001000B32046FFF764FCD6
:10283000B8E7012133E02046FFF7BEFE0028B1D003
:10284000204600F0B7F8ADE72046FFF7B5FE0028B8
:10285000A8D02046FFF780FBA4E72046FFF7ACFE98
:1028600000289FD02046FFF7D3FB9BE7A268907C0F
:102870007F2897D2D07C1318401CD0741975A0689B
:10288000C17C08440675A068817C491C817489E775
:102890009DF800105B2901D0002100E00221417069
:1028A00080E7002141702046FFF786FE00289FD078
:1028B0009DF8000041380C28BAD2DFE800F0070983
:1028C0000E2D064C0650060606546BE7012100E06B
:1028D0000021204601F0AEFA64E7204602F0CAFB70
:1028E000054600786978884203D1A978EA78914250
:1028F0009ED0697988424FF00101204606D100F050
:1029000077FD6979204600F0E5FD01E000F0ECFE7E
:10291000A068C17C491C15E0204602F0ABFB0546CF
:102920000078A979491C884202D1A97801298AD066
:1029300001284FF00101204606D000F0CBFDA06831
:10294000C17C491EC1742DE700F0DAFE697920468A
:1029500000F0CAFEF3E7204600F056FD22E72046CD
:1029600000F07BFD1EE7A068D0F83C2101219143D7
:10297000D0F83C2161F30002C0F83C2112E70000CE
:102980008268022911700BD182680021117582685A
:10299000D1748268917403A20321036803F02EB9F5
:1029A0007047000025730000002801D0FDF7ABBD83
:1029B000704700002DE9F04FA7B04FF00008054622
:1029C000CDF82480CDF8188080684746817CC1F11D
:1029D0007F01C9B25FEA010B7BD0C27C00F1140118
:1029E0009430FDF75EFDA8680024C17C084480F89F
:1029F0009440FDF7FBFC21900168A8680C23C27C81
:102A00000244D27C895CC0F83841AA6801F001090F
:102A100012A920A8943202F0A9F91298FFF7C4FF76
:102A2000C6B2A2461F940C94209818B14844401E88
:102A3000B8426AD8B9F1000F01D0002605E012A80B
:102A400050F82700FFF7B0FFC6B200240DA82246B9
:102A50000090641C1FAB3946504600F04BFB1F989A
:102A600000286BD0016812A8324650F82700FDF705
:102A700068FD00280C9802D00028E7D05EE0D8B1AD
:102A80001F980068FFF790FF0699C0B2884200D9EE
:102A90000690BBF1000F2BD022A800900CAB424651
:102AA0003946504600F026FB1F98006882190C98A2
:102AB00000688319002015E0601E09901F980068C7
:102AC000FFF772FFC0B20690801B584510DAC0B203
:102AD0000DE07FE013F800C0614506D1401C10F006
:102AE000FF0010D0115C0029F4D1834500D9834642
:102AF0001F98B4F101080C90A8D263A204212846C3
:102B000003F07CF81AE0FF20EFE700240DA822462E
:102B10000090641C1FAB3946504600F0EBFAECB352
:102B20001F98002856D0016812A850F82700FDF71A
:102B3000F1FC0028EAD11F98D0F808A0BAF1000FE4
:102B400009D01F9838B120997F1CFFB201EB090012
:102B50008742FFF469AF0C9800283BD009984146A2
:102B600040455FD19AF8000038B10DA80A460090A0
:102B70000CAB3946504600F0BDFA0C980068FFF7E0
:102B800013FFB04206D00C985A46006881192846B7
:102B900000F0C2FB2198A968026800E01DE0C87C33
:102BA0000B181B7DD25CD2071DD0897C884211D2C4
:102BB000284602F05FFAA9688478C87C401CC87473
:102BC000284602F057FA8078A04227D101212846F2
:102BD00000F08AFD27B0BDE8F08F2BA20421284623
:102BE00003F00CF8F6E7D1F83C01C00711D0D1F89A
:102BF0003C0120F00100C1F83C0120212846FFF7EC
:102C00007BFAA868D0F83C1141F00101C0F83C11F2
:102C1000E0E720212846FFF76FFADBE7284600F0BF
:102C200065FCD7E700212846069A07F059F90DF10F
:102C30003409099C0EE01FAB224639465046CDF8B8
:102C4000009000F057FA1F98069A0168284607F08E
:102C500047F9641C4445EED917A2032128462B6886
:102C600002F0CCFFAB6816A208212846143302F00C
:102C7000C5FF284600F002FD0C985A4600688119ED
:102C8000284600F049FBA5E75461622066756E6333
:102C900074696F6E3A20636F6D6D616E647320634B
:102CA0006F756E746572206F766572666C6F77658E
:102CB000642E0D0A000000000D0A257300000000BC
:102CC0002573000070B505460C0004D107A14FF430
:102CD0001260FEF7DDFD002D06D0A068D0F83C1193
:102CE00041F02001C0F83C1170BD00002E2E5C2E7A
:102CF0002E5C2E2E5C2E2E5C2E2E5C2E2E5C636F98
:102D00006D706F6E656E74735C6C6962726172690E
:102D100065735C636C695C6E72665F636C692E637D
:102D20000000000070B5044640680D4690F8280089
:102D300030B1A0680068FEF7B7FC08B108280CD1D4
:102D4000012685B1606903F071FC616800220831D9
:102D5000606903F027FC08B1062070BD606880F848
:102D60002960002070BD606890F8280048B9074AC3
:102D70000021A068FEF71CFC6168002881F828602B
:102D8000F0D12046BDE8704007F0B4BA79A5000044
:102D900070B5044640680D460260606800224360DA
:102DA000606880F82820606880F829206068202208
:102DB0000830FDF776FB2C61074A2946606903F06D
:102DC000F1FB050005D1E06805F060FE206905F023
:102DD0005DFE284670BD0000A1A700002DE9F0416E
:102DE0001C0016460F46054603D106A1D220FEF769
:102DF0004FFD266022463946E868BDE8F04105F0FF
:102E00005BBD00002E2E5C2E2E5C2E2E5C2E2E5CCA
:102E10002E2E5C2E2E5C636F6D706F6E656E7473FC
:102E20005C6C69627261726965735C636C695C7524
:102E30006172745C6E72665F636C695F75617274F7
:102E40002E63000010B50446406903F0EFFBA06854
:102E50000068BDE81040FEF727BC00002DE9FC41EA
:102E60001D0016460F46044603D11AA1E620FEF7C0
:102E70000FFD2E602A463946206905F069FD0500E0
:102E800025D16069234A0178515C19B1001D06F013
:102E9000C1FF02E00C3006F0B3FDC0B9FF20009086
:102EA00001236A4601A9206905F0ACFD78B90098B4
:102EB0000199C2B2606903F0A9FB0546606890F809
:102EC000290020B11DB92069009905F087FD284629
:102ED000BDE8FC812E2E5C2E2E5C2E2E5C2E2E5CF0
:102EE0002E2E5C2E2E5C636F6D706F6E656E74732C
:102EF0005C6C69627261726965735C636C695C7554
:102F00006172745C6E72665F636C695F7561727426
:102F10002E630000680000202DE9F8431F46144688
:102F20008846050002D0B8F1000F03D11EA1BB20D6
:102F3000FEF7AEFC6868006818B91BA1BC20FEF75C
:102F4000A7FC002628E000BF686808EB06016B4676
:102F50000268D2F80CC02246E04718B112A1C62080
:102F6000FEF796FC0098844203D20FA1C720FEF71B
:102F70008FFC00980644241A70B9A86801780329C8
:102F80000AD000BFD0F83C118906FBD5D0F83C111F
:102F900021F02001C0F83C11002CD5D1002F01D028
:102FA00000983860BDE8F8832E2E5C2E2E5C2E2E05
:102FB0005C2E2E5C2E2E5C2E2E5C636F6D706F6E01
:102FC000656E74735C6C69627261726965735C636F
:102FD0006C695C6E72665F636C692E630000000052
:102FE00070B5084C050009D010342168002907D0BD
:102FF00008682060496828468847F6E70834F4E7FF
:1030000070BD0000B8060020054A012120B101284A
:1030100005D19170FFF7E4BF51700020FAE77047C7
:10302000B806002038B5094C1546206818B908A123
:103030000920FEF72DFC6A4613A16868FDF790FA97
:10304000009821680E30C0B2884738BD600000206B
:103050002E2E5C2E2E5C2E2E5C2E2E5C2E2E5C2EAA
:103060002E5C636F6D706F6E656E74735C6C6962FD
:103070007261726965735C6273705C6273705F63C6
:103080006C692E63000000002575000038B5094CFE
:103090001546206818B908A11320FEF7F9FB6A4607
:1030A00013A16868FDF75CFA00982168C0B28847F0
:1030B00038BD0000600000202E2E5C2E2E5C2E2ECF
:1030C0005C2E2E5C2E2E5C2E2E5C636F6D706F6EF0
:1030D000656E74735C6C69627261726965735C625F
:1030E00073705C6273705F636C692E630000000034
:1030F000257500002DE9F05F1C000A9F15468846E3
:10310000064603D121A1FF20FEF7C2FB27B91FA16C
:103110004FF48070FEF7BCFB4FF00009B8F1000FD0
:103120000BD026B3307840B37268394628469047B2
:103130003868E0B12760BDE8F09F22492248A1EB42
:103140000008B5EBD80F15D2DFF880A00026834623
:103150000AE000BF0BEBC607786801685AF8250043
:10316000FDF7D8F920B1761CB6EBD80FF2D301E009
:10317000786808E0C4F80090DDE7706800EB05109F
:1031800001680029F6D02060D5E700002E2E5C2EC5
:103190002E5C2E2E5C2E2E5C2E2E5C2E2E5C636FF3
:1031A0006D706F6E656E74735C6C6962726172696A
:1031B00065735C636C695C6E72665F636C692E63D9
:1031C0000000000080CF000040CF0000D8010020A8
:1031D0002DE9F041856806460024287D002812D09C
:1031E000A046FDF703F90746D0F8000004F11401EA
:1031F00004F10104695CE4B2415CC90705D0002C0C
:10320000F4D185F81480BDE8F081641E14F0FF0449
:103210000FD0A87C021B04F11400291805F114003A
:10322000521CFDF73EF9B168887C001B8874B168B8
:10323000C874B2683D68937CD018133004460021EE
:1032400002E0491CC9B2401E0778EF5DFF07F8D1C4
:103250008442D8D05B1A143302F80380B268907CA1
:10326000401A9074B168C874CDE700002DE9F05F92
:1032700026484168F1B3DFF898B00E688146DBF864
:10328000004087688078E11B21F07F45ED1CB0B9D4
:10329000DFF880804FF48030C8F84403C8F8040396
:1032A0001120FDF711FE1120FDF719FE4FF0010A64
:1032B000C8F800A02F2005F007FF89F802A0B5424A
:1032C00000D23546124BE8193C3320F07F4018609D
:1032D000DBF800105A46091B21F07F41001B20F04B
:1032E0007F40C91C81420FD9106818602F2005F05B
:1032F000EBFE00E004E0BDE8F05F1120FDF7FABD51
:10330000BDE8F05F06F098BFBDE8F09FD800002050
:1033100004150140001001402DE9F04115460F0051
:10332000044604D123A140F28650FEF7B1FAA0680A
:10333000817CC27C8B1A2944DEB27F2937D8002DCC
:1033400035D0104400F1140105F114021044721C30
:10335000FDF7A7F8A0682A46C17C08443946143016
:10336000FDF79FF8A0681430FFF71EFBA1681FA2AD
:103370008874A068C17C431808212046143302F0E9
:103380003DFCA068C17C2944C174204600F08FF840
:1033900018B9204600F0F9FC10B1204600F0A6F85C
:1033A000002E04D02046BDE8F04100F067B9BDE82A
:1033B000F08100002E2E5C2E2E5C2E2E5C2E2E5CBC
:1033C0002E2E5C2E2E5C636F6D706F6E656E747347
:1033D0005C6C69627261726965735C636C695C6E76
:1033E00072665F636C692E63000000002573000045
:1033F000002904D00A46006901A104F05DB87047B5
:103400001B5B25644200000070B5054601F032FEEA
:10341000044600786178884203D1A078E178884238
:103420001AD0E178A078814204D9081AC1B228469E
:10343000FFF7DEFF20786178884205D9401AC1B2D3
:10344000284600F047F804E0081AC1B2284600F008
:103450004BF9A868817CC17470BD70B5054601F058
:1034600009FE044601788079401C814202D1A0788F
:1034700001281BD0A078012804D9401EC1B22846DB
:1034800000F03EF92078A179884206D9401A401E02
:10349000C1B2284600F01EF805E0081A401CC1B26F
:1034A000284600F021F9A9680020C87470BD10B545
:1034B00004460068FFF778FA0146A068C27C407BAA
:1034C0001144B1FBF0F200FB121008B1002010BD56
:1034D000012010BD002904D00A46006901A103F0B3
:1034E000EBBF70471B5B25644400000070B504000F
:1034F0004FF4BB7503D108A12846FEF7C9F920692E
:1035000018B905A12846FEF7C3F92069BDE8704047
:103510000F4A10A103F0D0BF2E2E5C2E2E5C2E2E53
:103520005C2E2E5C2E2E5C2E2E5C636F6D706F6E8B
:10353000656E74735C6C69627261726965735C63F9
:103540006C695C6E72665F636C692E6300000000DC
:10355000F6BA0000257300002DE9FC47002604465A
:103560008DF8046080683546B146B04680219430BD
:10357000FCF7BEFF4049206903F09EFF206903F07D
:10358000DBFF00276B46012201A92046FFF7CEF89A
:103590000098D8B19DF804001B2806D0A16891F8C6
:1035A00094101B29EED152281FD0A26808F1940173
:1035B000505408F1010000F0FF08B8F1090F0AD9D2
:1035C000A168042081F89490BDE8FC872A494FF651
:1035D000C0100D31884700980028D3D17F1CBFB29E
:1035E000B7F57A7FCED30D20EEE7A16808F19400FD
:1035F0004A4601F80090A16891F895005B2803D035
:1036000081F894200B20DFE702206FF02F0309E000
:1036100005EB850503EB4505401C3D44C0B2ADB24A
:10362000802808D200F19407CF5D3B2FF0D1401CD9
:10363000C0B2802809D30C20C6E700BF06EB86067F
:1036400003EB46063E44B6B2F1E700F19407CF5DC6
:10365000002FF3D1FA20FA2E01D9087200E00E7281
:10366000FA2D02D9A168887201E0A0688572A0686D
:1036700080F894200020A7E714BB000070B5054631
:1036800001F0F8FC04468078E178884201D10126F7
:1036900000E000262846FFF70AFF18B9284600F088
:1036A00074FB10B12846FFF721FF1EB16078217826
:1036B000401A12E0E078A178401AC1B2284600F022
:1036C0001FF820786178884206D9401AC1B228468E
:1036D000BDE8704000F008B8081AC1B22846BDE83D
:1036E0007040FFF7F7BE0000002904D00A460069C9
:1036F00001A103F0E1BE70471B5B2564430000009D
:10370000002904D00A46006901A103F0D5BE704724
:103710001B5B2564410000002DE9F0470025DFF820
:1037200090803DE06068002100EBC5060120327802
:103730009146FCF74CFED4E9062300EA020701EAB1
:10374000030C57EA0C0729D082438B434846C4E94F
:10375000062305F0C7FD32788246914601200021FC
:10376000FCF735FED4E9042300EA020401EA03076A
:103770004A4650460021FCF72AFE44404F403C4355
:103780000CD17078012801D0012000E0002072687F
:1037900080EA0A0012B1C1B2484690476D1CEDB2F2
:1037A00098F8000044468542BCD3BDE8F08700008D
:1037B000B800002010B50021024801F0A5FC80F3FC
:1037C000100010BDE80F00200E4910B50A784C78A3
:1037D0000023A24212D0521CD2B20A70022A00D197
:1037E0000B70084A0B780C3252F82320026088686C
:1037F000104420F07F408860012010BD036000204D
:1038000010BD0000D800002010B50446010600F0ED
:103810000F00092804D306A14FF42B70FEF738F8E7
:103820006FEA0460C10F204661F31F1010BD000055
:103830002E2E5C2E2E5C2E2E5C2E2E5C2E2E5C2EC2
:103840002E5C636F6D706F6E656E74735C6472690D
:10385000766572735F6E72665C757362645C6E72BD
:10386000665F6472765F757362642E6300000000A9
:1038700010B50D4C012802D060B1072010BD812089
:1038800003F054F8812003F043F9812003F072F82B
:10389000012003E0812003F019F80020607003F09C
:1038A00047FC002010BD00003000002070B5054628
:1038B000000605F00F0402D5092C09D301E0092CFC
:1038C00008D307A140F29920FDF7E2FF280601D5B1
:1038D000134801E01248903800EB041070BD00005E
:1038E0002E2E5C2E2E5C2E2E5C2E2E5C2E2E5C2E12
:1038F0002E5C636F6D706F6E656E74735C6472695D
:10390000766572735F6E72665C757362645C6E720C
:10391000665F6472765F757362642E6300000000F8
:103920005C07002010B50446010600F00F000928CE
:1039300004D303494FF41F70FDF7AAFF204610BDC2
:1039400028AC000010B507F049F98020FFF7AEFF62
:10395000817B0124032902D00068002809D180203E
:10396000FFF752FF8440E143BDE81040014801F0F9
:10397000BBBB10BD88000020812005F04FB982201C
:1039800005F04CB9832005F049B9842005F046B90B
:10399000852005F043B9862005F040B9872005F061
:1039A0003DB9882005F08CB938B507F017F900202B
:1039B000FFF77CFF817B0124032905D0006868B1F3
:1039C000BDE8384003F0B7BB0020FFF71DFF84407F
:1039D000E143BDE838400A4801F086BB0020FFF70C
:1039E00013FF8440E143064801F07EFB054804498B
:1039F000C0680C39009049686846884738BD0000A7
:103A00008800002040B80000012005F09BB902208A
:103A100005F098B9032005F095B9042005F092B996
:103A2000052005F08FB9062005F08CB9072005F0B8
:103A300089B9000038B5082407F0D0F82046FFF710
:103A400035FF817B032915D00068002812D120465C
:103A5000FFF7DAFE01218140C943074801F044FB2A
:103A600006480549406900900C398DF802404968C4
:103A70006846884738BD00008800002040B8000034
:103A800070B5154804680460BFF36F8FBFF34F8FA4
:103A9000BFF36F8FBFF34F8F03F0ACF938B10F480E
:103AA000016921F0011201F00111144301610126A5
:103AB0006CB194FAA4F0B0FA80F52846FDF7F3FE55
:103AC00006FA05F18C43294607F024FAF0E7BDE831
:103AD000704007F0C9B800006C7402407C00002000
:103AE00010B5054CA078FFF78FFE0146A078BDE821
:103AF000104007F00FBA00007C000020F8B51A480B
:103B000000681A4DC6B2A878FFF77EFE012404FAB9
:103B100000F12889EA68C04380B21043014202D014
:103B2000A87807F06FF906F08000A8700020FFF772
:103B30006BFE04FA00F68020FFF766FE04FA00F040
:103B400006430A48F1430C3001F0CEFA8020FFF71B
:103B50005BFE8440A86804430548AC60006A00909E
:103B6000696868468847F8BD807402407C00002080
:103B700040B8000038B5002000900B480068ADF850
:103B800002008820FFF740FE012505FA00F4082016
:103B9000FFF73AFE054985402C43886804438C6052
:103BA00049686846884738BD207502407C0000207F
:103BB00070470000F8B51C480568284605F06AF90A
:103BC000BFF36F8FBFF34F8F184E194CE80506D522
:103BD00001206070706A0090616868468847A80597
:103BE0004FF0000705D56770B06A009061686846BD
:103BF0008847680516D56078002813D005F054F979
:103C000020B10CA140F2C540FDF742FE6770194992
:103C100001200860582005F04FF9F06A00906168B3
:103C200068468847F8BD00000074024040B80000B4
:103C30007C0000202E2E5C2E2E5C2E2E5C2E2E5C08
:103C40002E2E5C2E2E5C636F6D706F6E656E7473BE
:103C50005C647269766572735F6E72665C757362BE
:103C6000645C6E72665F6472765F757362642E6305
:103C70000000000008750240054908B500204870A2
:103C8000887004484068009049686846884708BDC5
:103C90007C00002040B800002DE9F05F17460E00C0
:103CA000814670D013B1F9B2FFF71EFD0024FCF776
:103CB0009DFB8246006800E0641C315D415CC907E1
:103CC000FAD100253046FEF76FFED9F80810001B28
:103CD0004A7BD11B814228D306EB040805E000BFD4
:103CE00018F805100A290CD06D1C8542F8D331193B
:103CF000D9F8100003F0E0FB4846BDE8F05FFFF79D
:103D0000F5BBD9F8100003F017FC414600232A4602
:103D10004846FFF701F92C444846641CFFF7E6FBD0
:103D2000F9B24846FFF7E0FCE1E78B46DAF800100D
:103D300006EB040818F805000B5CDB0702D0AB4665
:103D40000A2804D0E819904201D26D1CF2E7D9F894
:103D5000100003F0F1FB414600235A464846FFF7A6
:103D6000DBF85C44DAF8000000E0641C315D415C83
:103D7000C907FAD14846FFF7B9FBF9B24846FFF741
:103D8000B3FC9EE7FFE7BDE8F09F10B5044600686E
:103D9000FEF70AFE0146A068827C407B1144B1FB1D
:103DA000F0F200FB121008B1002010BD012010BD80
:103DB0002DE9F0418046024601200021FCF707FB77
:103DC0001A4F05460E467868FDF76EFC00280CD1A8
:103DD000174CD4E9062110462A4001EA06031A438B
:103DE00005D0A843B143C4E90601BDE8F0814046CF
:103DF00005F078FA30B1D4E9040128433143C4E92D
:103E0000040105E0D4E90410A943B043C4E9041057
:103E1000D4E9060128433143C4E90601A168786862
:103E2000BDE8F0410022FDF7FFBB000034B90000FF
:103E3000B8000020FEB500260446009601960296C2
:103E40008068E9B3D0E94D128A4271D0D0F83001D0
:103E500000286DD02046FFF700FBA068D0F838514D
:103E6000002D68D0002309226946284604F06FFA25
:103E7000A1689DF808500098C1F83801A068002397
:103E80000922D0F83801694604F061FAA1689DF86A
:103E900008200923D1F838011431521C04F057FAD4
:103EA000A1689DF80800C874A1689DF8080088748E
:103EB0009DF80800A84202D22046FEF7BDF900E0B6
:103EC0000BE0A3682BA208212046143301F096FED4
:103ED0002046FFF7ECFA60BB42E0D0F8380100283A
:103EE00046D02046FFF7B9FAA06800230922D0F88F
:103EF0003801694604F02BFAA0680199C0F838111E
:103F0000A0680029857CB9D19430FEF74DFD0028CA
:103F1000A06805D000F194011430FCF709FB00E023
:103F20000675A0681430FEF73FFD8DF80800B7E76E
:103F30001EE01AE0FFE71430FEF736FD10F0FF0533
:103F4000A068D0F83011C0F83811A06805D000F191
:103F500014019430FCF7ECFA90E780F894608DE758
:103F60002046FFF712FF002802D02046FFF7BEFAD6
:103F7000FEBD000025730000FEB50D00044604D10F
:103F80001E4940F2DD40FDF783FCA1680026D1F810
:103F9000300138B300230922694604F0D8F90195AD
:103FA000A06800230922D0F83001694604F0D5F951
:103FB0000196A068D0F830110091807C8DF808003F
:103FC000A068C0F83051002309226946284604F051
:103FD000C4F9A168092328468A7C1431521C04F0D4
:103FE000BCF9FEBDC1F83051A068C0F8345100964C
:103FF0000196A068807C8DF80800E4E740A50000E9
:10400000FEB504468068D0F83461002E28D0002325
:1040100009226946304604F09AF9A1680198002502
:10402000C1F83401009501952B46092269463046B6
:10403000029504F092F9304604F05BF9A168D1F8DA
:10404000340170B100230922694604F080F900951B
:10405000A06800230922D0F83401694604F07DF9F4
:10406000FEBDC1F83051FEBDFEB504468068143077
:10407000FEF79AFC10F0FF05A0684FF00006C0F8AC
:10408000386133D0A068D0F83001E0B100230922B4
:10409000694604F05CF99DF80820AA4213D1A06893
:1040A000092300F19401D0F83001521C04F04FF9BB
:1040B000A06800F194011430FCF72CFA0028A068E5
:1040C00080F8946012D000260A352946606904F011
:1040D000E0F80100204604D003B0BDE8F040FFF74F
:1040E0004BBFFFF78DFF761C082EEED3FEBD000000
:1040F00010B512490220FDF76DFD20B1104A40F2C3
:104100002E41FCF787F80C2200210120FDF72EFD3F
:1041100020B10B4A40F23441FCF77CF80021162212
:104120000846FDF723FD002806D0BDE81040044AEC
:104130004FF48761FCF76EB810BD0000B11B0000A2
:104140001042000000B589B01848FDF709FD20B104
:10415000174A40F24141FCF75DF82022154901A8B9
:10416000FCF79FF9062001900820029000208DF8AE
:104170001800032000900F4801231A4601A9FC38BB
:1041800001F00AFF20B10A4A40F24741FCF742F829
:104190000848FC3802F05EF8002804D0044A40F2D7
:1041A0004941FCF737F809B000BD0000B11B000021
:1041B000104200009CB7000010B502F033F920B1A6
:1041C00013A24FF48361FCF725F8002002F0C4F934
:1041D00020B10FA240F21A41FCF71CF8002002F0B7
:1041E000CFF8002002F068F902F094F80028FBD024
:1041F00002F032F90028F7D0FDF7ECF9002806D0DC
:10420000BDE8104002A240F22441FCF703B810BD03
:104210002E2E5C2E2E5C2E2E5C6D61696E2E630040
:104220002DE9FC5F0E008346DDE90C47C6F1000076
:1042300098469246814600D40846012503E000BF17
:1042400090FBFAF06D1C5045FADAA84500D94546B6
:1042500024B1002E01DB780700D5641EB80702D513
:10426000B8F1000F0AD0F80708D13CB1A54205D239
:1042700020215846641EFDF717FEF6E7002E02DAED
:104280004E462D2102E0780703D52B215846FDF735
:104290000BFE07F0030002280BD1B8F1000F08D184
:1042A0003CB1A54205D230215846641EFDF7FCFD05
:1042B000F6E7CDE90047434652463146584606F0F8
:1042C00033FCBDE8FC9F000070B50E460546006853
:1042D0004FF48E7104F02BFC4FF4A271286804F0A7
:1042E00026FC28681549C0F804132868000B44B25E
:1042F000082E03D312A14520FDF7CAFA7007000E5D
:10430000002C06DA04F00F0101F1E02181F8140D10
:1043100003E004F1E02484F8000428680121000B84
:1043200040B200F01F0291404009800000F1E020FF
:10433000C0F88012C0F8001170BD000080000200BB
:104340002E2E5C2E2E5C2E2E5C2E2E5C2E2E5C2EA7
:104350002E5C696E746567726174696F6E5C6E72F3
:1043600066785C6E7266785F676C75652E680000B3
:1043700070B50E46044600684FF4887104F0E8FBFF
:104380004FF49071206804F0E3FB4FF492712068C1
:1043900004F0DEFB4FF4A271206804F0D9FB206822
:1043A0001549C0F804132068000B45B2082E03D34A
:1043B00012A14520FDF76CFA7007000E002D06DAF9
:1043C00005F00F0101F1E02181F8140D03E005F182
:1043D000E02585F8000420680121000B40B200F0C0
:1043E0001F0291404009800000F1E020C0F88012D7
:1043F000C0F8001170BD0000100302002E2E5C2ECC
:104400002E5C2E2E5C2E2E5C2E2E5C2E2E5C696E6B
:10441000746567726174696F6E5C6E7266785C6EEB
:104420007266785F676C75652E68000010B502468D
:1044300000201268930702D0530702D410BD500722
:1044400019D502F00300012807D002280BD00D492E
:104450004FF49170FDF71CFA0BE0C2F383100B6868
:10446000801C184404E00223086803EB92521044B5
:104470000860012010BD086800EB9253C2F3891058
:10448000401CEEE708CC00000268134602E08A42B6
:1044900004D01268002AFAD10B6001607047000056
:1044A0000A4810B5807860B1002401E0022C06D0E3
:1044B0002046FDF761FA641C042CF7D310BD0324D9
:1044C000F6E7BDE81040FDF7DFBA0000500000201D
:1044D00003480179C90702D00078FDF7C5BB7047D2
:1044E000500000202DE9F047394E002780463D4618
:1044F000DFF8E090D6F804A057E003D00446D0F8E7
:104500001C8035E099F8002002EB4201521CD2B227
:1045100089F8002009EBC10199F80230091D9A427F
:1045200001D189F8005048680A780446012A12D05F
:10453000022A02D0032A3BD108E006F089F800B134
:104540000127257434E00574C06900E07068002814
:10455000F9D170602CE0207C50BB88686060C8682E
:10456000A0600869E0604869A061F07800B165600A
:104570006268B168184B501A20F07F40984202D20E
:10458000A168084406E0881AA16820F07F408142B3
:1045900002D9081A206000E0256065600120A5604E
:1045A00020742046E56106F035F8B8F10000A4D18A
:1045B00099F8001099F801008142A3D117B97168E8
:1045C000514502D00120BDE8F0870020FBE7000044
:1045D000D8000020000A0020FFFF7F001CB5012941
:1045E00005D08168D1F83C11C1F3400131B102B06E
:1045F0000022BDE81040114601F05EBB536804A1E3
:10460000CDE90013136808A2022101F0F7FA1CBDDE
:1046100020756E6B6E6F776E20706172616D657460
:1046200065723A200000000025733A257325730D4A
:104630000A0000002DE9F74F82B0154602980F00DE
:104640004FF00006C068007A009058D0072248A1B9
:104650002868FBF776FF78B1082247A12868FBF7A6
:1046600070FF002830D02B6845A2029805B00221C7
:10467000BDE8F04F01F0C2BA012F02D0022F08D0DE
:1046800008E0029805B044A2BDE8F04F022101F015
:10469000B5BA0126DFF81881002400BF58F82410AD
:1046A0000A226868FBF74DFF10B1641C052CF5D396
:1046B000052C06D004F0FF090224002E54D000245B
:1046C00019E03CA26B68D0E7012F4FF00009F6D04B
:1046D000012449E04A462146009800F063FC48B9AD
:1046E0000021204603F058FD03463AA20221029819
:1046F00001F084FA641C03F0FDFCA042EAD805B086
:10470000BDE8F08F4FF0000A55F824B003F0F2FC3A
:104710008046002609E00021304603F03DFD2022BE
:104720005946FBF70EFF90B1761C4645F3D346453C
:1047300006D155F8243030A20221029801F05EFA29
:104740004A465146009800F02DFC10B10BE0B246ED
:10475000EDE70021504603F01FFD03461DA2022194
:10476000029801F04BFA641CBC42CBD3C7E70000AF
:10477000656E61626C65000064697361626C6500FE
:10478000556E6B6E6F776E206F7074696F6E3A2026
:1047900025730D0A0000000042616420706172619F
:1047A0006D6574657220636F756E742E0D0A00005E
:1047B0005C010020556E6B6E6F776E2073657665B9
:1047C00072697479206C6576656C3A2025730D0AE0
:1047D000000000004C6576656C20756E617661693D
:1047E0006C61626C6520666F72206D6F64756C65BC
:1047F0003A2025730D0A0000556E6B6E6F776E20A0
:104800006D6F64756C653A25730D0A00C0680121EF
:1048100041727047C06800214172704770B53E48D0
:1048200005683E4C03266068032805D320883CA118
:1048300006EB004003F08CFB45B96068032805D304
:1048400020883BA106EB004003F082FBE80708D07C
:104850006068032805D3208837A106EB004003F0E9
:1048600077FBA80708D56068032805D3208835A101
:1048700006EB004003F06CFB680708D5606803286E
:1048800005D3208831A106EB004003F061FB280727
:1048900008D56068032805D320882EA106EB0040C8
:1048A00003F056FBE80308D56068032805D3208889
:1048B0002BA106EB004003F04BFBA80308D5606872
:1048C000032805D3208828A106EB004003F040FB15
:1048D000680308D56068032805D3208825A106EB66
:1048E000004003F035FB280308D56068032805D392
:1048F000208822A106EB004003F02AFBE8020AD53B
:104900006068032807D320881EA106EB0040BDE89D
:10491000704003F01DBB70BD0004004094020020F5
:10492000526573657420726561736F6E733A00002F
:104930002D204E4F4E4500002D20524553455450DA
:10494000494E00002D20444F470000002D205352B7
:10495000455100002D204C4F434B555000000000A6
:104960002D204F46460000002D204C50434F4D5007
:10497000000000002D204449460000002D204E4636
:10498000430000002D205642555300002DE9FF4101
:104990000026264800F09CFB2448001F074600F034
:1049A00097FB234C60680090A56800E0009869467A
:1049B000284004EB80000C30FFF738FD0028F5D1CB
:1049C00001AA009901EA050304EB8303491CDB6893
:1049D00042F82030401C00910228F2D3019800F0E8
:1049E000030001281AD002280ED012494FF4AF70EC
:1049F000FCF74EFF384600F068FB08B10098606095
:104A000004B03046BDE8F0810198032101EB9050DD
:104A10000099BDF80A6001EB900005E00198BDF82F
:104A20000A60C0F3831008440090E3E7E40F00201D
:104A3000CC0B002008CC00002DE9FE4F814603F08E
:104A400059FB0746D9F80C0090F80880407A20B945
:104A50001FA20221484601F0D1F822A324A2082176
:104A6000484601F0CBF82AA20821484601F0C6F8D2
:104A7000002429E001231A462146404603F044FB66
:104A80008246002301222146404603F03DFB0546B5
:104A9000032801D2064600E003260121204603F048
:104AA0007BFB0346AE4201D229A200E027A229489F
:104AB00050F8261050F82A008DE8070026A2082199
:104AC000484601F09BF8641CBC42D3D3BDE8FE8F7E
:104AD0004C6F6773206172652068616C7465642136
:104AE0000D0A00006D6F64756C655F6E616D650029
:104AF000252D343073207C2063757272656E7420AE
:104B00007C206275696C742D696E200D0A000000AE
:104B10002D2D2D2D2D2D2D2D2D2D2D2D2D2D2D2DC5
:104B20002D2D2D2D2D2D2D2D2D2D2D2D2D2D2D2DB5
:104B30002D2D2D2D2D2D2D2D2D2D2D2D2D2D2D2DA5
:104B40002D2D2D2D2D2D2D2D2D2D0D0A000000008C
:104B50002A0000005C010020252D343073207C20C9
:104B6000252D3773207C20257325730D0A00000046
:104B70004FF40041002003F075FAFFF71DFBFFF72B
:104B8000B7FAFFF7DFFA514D03266868032823D3ED
:104B900028884FA106EB004003F0DAF96868032883
:104BA0001AD302F00BF908B14FA200E050A22888F6
:104BB00052A106EB004003F0CFF9686803280BD33D
:104BC00002F0FCF808B148A200E049A2288850A1F0
:104BD00006EB004003F0C0F9FFF720FE51490868DA
:104BE0000860514802F04CFA20B150A240F28F41C7
:104BF000FBF710FB4021002001F00CFF402180203A
:104C000001F008FF0120FCF757FE0220FCF7DEFE52
:104C10000320FCF7DBFE494801F0B2FC20B143A2BF
:104C200040F2A241FBF7F6FA454CE079C8B168685A
:104C3000032805D3288843A106EB004003F088F938
:104C400003F05CF80028FBD10220FCF795FE03205E
:104C5000FCF792FE404901200860BFF34F8F20BF50
:104C6000FDE7A078A17988420AD0A07930B102F09E
:104C700043FBA07020B1FCF707FF01E00020A0700B
:104C8000607898B1207888B1A07820B1E07868B1D8
:104C900002F0EAFB0AE06868032805D328882FA100
:104CA00006EB004003F054F900F0B8F92348001D6A
:104CB00001F06AFA03F022F80220FCF75DFE20BF43
:104CC00040BF20BF0220FCF781FEAEE79402002027
:104CD00055534442206578616D706C652073746132
:104CE000727465642E000000656E61626C6564001C
:104CF00064697361626C6564000000005553422072
:104D000065727261746120313034202573000000B7
:104D1000555342206572726174612031353420250B
:104D2000730000000004004055AF00002E2E5C2EE2
:104D30002E5C2E2E5C6D61696E2E63009CB60000A9
:104D400030000020476F696E6720746F207379739D
:104D500074656D204F464600000500402020205419
:104D60005820706F696E7465720000002DE9FF4F66
:104D70004FF0000881B014468B468146C246C0F809
:104D800000802578002D71D0FBF730FB0090006883
:104D9000405DC00702D004F801AB84E0D9F8000000
:104DA0008300401CC9F800004BF8034015E026784A
:104DB000002E78D0B8F1000F05D1222E10D0272E6A
:104DC0000ED05C2E1ED0B04514D12046FDF7ECFD70
:104DD0000246611C2046FBF764FB4FF00008E6E743
:104DE0002046FDF7E1FD0246611C2046FBF759FB1A
:104DF000B046DCE7B8F1000F50D05C2E6AD1607885
:104E0000404508D12046FDF7CFFD0246611C2046F3
:104E1000FBF747FB5EE030281CD100270225605DD0
:104E2000A0F13001072906D86D1C41EAC701EDB297
:104E3000CFB2052DF3D3022D0CD92046FDF7B4FDDA
:104E4000421B61192046491E921CFBF72AFB04F8FD
:104E5000017BACE778281ED100270225605DA0F118
:104E60003001092903D841EA07100DE021E0A0F143
:104E70006101052901D8573804E0A0F14101052955
:104E800007D8373840EA07106D1CEDB2C7B2042DC1
:104E9000E4D3022DD1D8B8F1000F1BD100980068DF
:104EA000805DC00716D0D9F8001004988142FFF445
:104EB00068AFD9F800000C2804D907A140F25B4084
:104EC000FCF7E6FCD9F8002040464BF822A005B0DC
:104ED000BDE8F08F641C6AE72E2E5C2E2E5C2E2E11
:104EE0005C2E2E5C2E2E5C2E2E5C636F6D706F6EB2
:104EF000656E74735C6C69627261726965735C6320
:104F00006C695C6E72665F636C692E630000000002
:104F10002DE9F05FC7888A46191D1646B1FBF7F2E6
:104F2000B1FBF7F507FB121999193944C91CB1FBFC
:104F3000F7F104464079C9B2DDF828B0884206D2BC
:104F400017499420FCF7A4FC01E024686D1E002D95
:104F5000FBD1A846A7EB0905B5421AD81CE000BF53
:104F6000BBF1000F06D004EB09010AEB08002A464A
:104F7000091D05E004EB09000AEB08012A46001DA3
:104F8000FBF78FFA2468761B4FF00009A844B7425C
:104F900001D9354600E03D46002EE1D1BDE8F09F45
:104FA0000CC7000070B5144600230D4606461A468D
:104FB00003F0AAF8844201D9002070BD2246294698
:104FC000304603F0C7F8012070BD000030B502463E
:104FD00069B103F08FF80021084C0BE001EB4103AD
:104FE00004EB830315685B88AB4202D1116000209B
:104FF00030BD491C8142F1D3052030BDF8010020AD
:1050000010B50C460021E16061600349A1600121F7
:1050100003F0C2F8206010BDC0BC00001348417806
:10502000002922D0417900291FD1017911F0030113
:1050300006D0012907D0022908D003290CD108E0A5
:105040004FF4206107E04FF4202104E04FF4764153
:1050500001E04FF47601C1600179491C0171012121
:1050600041710349812001F0E3BD70473000002009
:1050700090B7000070B58468006804F10805FDF77A
:1050800093FCC1B2A971E07C6A790844B0FBF2F3E9
:1050900002FB13035B1C2B70E07C0844B0FBF2F3B3
:1050A0005B1CAB70A07C0844B0FBF2F35B1CEB70A4
:1050B000A07C0844B0FBF2F102FB1101491C6970AD
:1050C000284670BD002100F00FB8002100F012B892
:1050D000012100F01EB8012100F011B808B56A46A0
:1050E000FBF7F3F8009808BD08B56A46FBF7D3F85C
:1050F000009808BD08B56A46FBF7CDF808BD08B5AD
:105100006A46FBF7BBF808BD08B56A46FBF7AAF884
:1051100008BD08B56A46FBF7B1F8009808BD08B5A8
:105120006A46FBF7DFF8009808BD000070B5040080
:1051300003D113A1FE20FCF7ABFB00252846FCF7AA
:10514000C3FA206862680168914214D9491E01605F
:105150000D781CB919A1C220FCF79AFB208BE168DD
:1051600005FB00152068217A0278891A0279C9B2F4
:105170008A4200D201710020FCF7D4FA284670BDA3
:105180002E2E5C2E2E5C2E2E5C2E2E5C2E2E5C2E59
:105190002E5C636F6D706F6E656E74735C6C6962AC
:1051A0007261726965735C62616C6C6F635C6E7274
:1051B000665F62616C6C6F632E6300002E2E5C2E46
:1051C0002E5C2E2E5C2E2E5C2E2E5C2E2E5C636FA3
:1051D0006D706F6E656E74735C6C6962726172691A
:1051E00065735C62616C6C6F635C6E72665F62615A
:1051F0006C6C6F632E63000070B50C46050004D123
:1052000010A140F22110FCF743FB24B90DA14FF48B
:105210009170FCF73DFB0020FCF756FA1DB91849C8
:10522000CF20FCF735FBE8682A68211A288BB1FBF0
:10523000F0F11068431C13600170BDE8704000205D
:10524000FCF770BA2E2E5C2E2E5C2E2E5C2E2E5C61
:105250002E2E5C2E2E5C636F6D706F6E656E747398
:105260005C6C69627261726965735C62616C6C6FBF
:10527000635C6E72665F62616C6C6F632E630000CC
:10528000BC51000010B5040002D0206830B901E024
:105290000E2010BD17A1D920FCF7FAFA606818B9E2
:1052A00014A1DA20FCF7F4FAA06818B911A1DB20E8
:1052B000FCF7EEFAE06818B90EA1DC20FCF7E8FA7A
:1052C000208B18B90BA1DD20FCF7E2FA207A616887
:1052D0002268401AC0B2116004E0226811684B1CB9
:1052E00013600870401EC0B2F7D221680020087118
:1052F00010BD00002E2E5C2E2E5C2E2E5C2E2E5C01
:105300002E2E5C2E2E5C636F6D706F6E656E7473E7
:105310005C6C69627261726965735C62616C6C6F0E
:10532000635C6E72665F62616C6C6F632E6300001B
:105330002DE9F04F8146806889B0D0F83C01C0F378
:10534000400038B109B04846BDE8F04F0022114690
:1053500000F0B2BC012907D909B04846BDE8F04FBA
:1053600024A2022100F04ABC27492848081A1C211F
:10537000B0FBF1F8002538E02448C5EBC50110EB7F
:1053800081044FF0000AB4F818B0D4E90101A1EB90
:10539000000604D11EA140F21F10FCF779FA206824
:1053A000077924B91AA140F22F10FCF771FA20688E
:1053B000217A0078081AC0B2642117FB01F1B1FB11
:1053C000F6F2642110FB01F1B1FBF6F16369CDE95E
:1053D0000210CDE90462CDE90676CDE900BA1B4A98
:1053E0000821484600F00AFC6D1C4545C4D309B0AD
:1053F000BDE8F08F42616420617267756D656E74FF
:1054000020636F756E74000028D00000F0CF00009C
:105410002E2E5C2E2E5C2E2E5C2E2E5C2E2E5C2EC6
:105420002E5C636F6D706F6E656E74735C6C696219
:105430007261726965735C62616C6C6F635C6E72E1
:10544000665F62616C6C6F632E680000C4C300000D
:10545000C20800F007030120895C984008407047AB
:1054600010B5C20800F00703885C01249C4020436B
:10547000885410BD70B515468268D2F83C41C4F31B
:10548000400424B11A46294600F016FC06E039B162
:10549000516804A20B68022100F0B0FB012070BD2E
:1054A000002070BD25733A2077726F6E672070619F
:1054B00072616D6574657220636F756E740D0A009C
:1054C00070B50D46040004D122A140F65640FCF709
:1054D000DFF9A06818B1606808B1206820B91DA183
:1054E00040F65740FCF7D4F9022D0CD1A068D0F853
:1054F0003C01C0F3400030B12046BDE870400022BE
:10550000114600F0D9BB40F65F451CB911A12846F1
:10551000FCF7BEF9206918B90EA12846FCF7B8F9C6
:105520001A4A1BA1206901F0C7FF4FF446651CB958
:1055300008A12846FCF7ACF9206918B905A128464E
:10554000FCF7A6F92069BDE87040104A10A10932A5
:1055500001F0B2BF2E2E5C2E2E5C2E2E5C2E2E5C09
:105560002E2E5C2E2E5C636F6D706F6E656E747385
:105570005C6C69627261726965735C636C695C6EB4
:1055800072665F636C692E630000000010BB000050
:105590002573000070B50D46040004D113A140F638
:1055A0006540FCF775F9A06818B1606808B120681B
:1055B00020B90EA140F66640FCF76AF9012D07D02C
:1055C000022D0CD1A068D0F83C01C0F3400030B1EE
:1055D0002046BDE870400022114600F06DBB204619
:1055E000BDE870400FA2022100F008BB2E2E5C2EF9
:1055F0002E5C2E2E5C2E2E5C2E2E5C2E2E5C636F6F
:105600006D706F6E656E74735C6C696272617269E5
:1056100065735C636C695C6E72665F636C692E6354
:1056200000000000506C65617365207370656369EC
:105630006679206120737562636F6D6D616E642E93
:105640000D0A00001CB5012905D002290BD014D980
:105650004FF0010112E002B04FF00002BDE810402F
:10566000114600F029BB536808A1CDE90013136867
:105670000CA2022100F0C2FA1CBD002102B00023DE
:10568000BDE810401A46FFF7F5BE000020756E6BAE
:105690006E6F776E20706172616D657465723A200D
:1056A0000000000025733A257325730D0A000000E1
:1056B00010B50446012901D0012100E0002100239A
:1056C0001A46FFF7D7FE002808D1A168C1F82C01BF
:1056D000E068C068BDE8104002F04ABF10BD00009D
:1056E0003EB50446012901D0012100E0002100233C
:1056F0001A46FFF7BFFE002818D1E068C06802F024
:105700000DFFC0B2642110FB01F2E168C96889682D
:10571000B2FBF1F2D2B20092CDE90101A06804A27D
:105720000821D0F82C31204600F068FA3EBD000078
:105730004C6F7374206C6F67733A2025750D0A4D9A
:105740006178206C6F672071756575652075746967
:105750006C697A6174696F6E3A2025752525205B26
:1057600025752F25755D0D0A000000007CB51546D6
:105770000E46040004D118A140F68640FCF788F8D4
:10578000A06818B1606808B1206820B912A140F67D
:105790008740FCF77DF8012E03D0022E09D00121AD
:1057A00008E002B02046BDE870400022114600F03B
:1057B00083BA002100231A462046FFF75BFE00282B
:1057C00009D1696812A0CDE9000117A20221204683
:1057D0002B6800F013FA7CBD2E2E5C2E2E5C2E2E34
:1057E0005C2E2E5C2E2E5C2E2E5C636F6D706F6EA9
:1057F000656E74735C6C69627261726965735C6317
:105800006C695C6E72665F636C692E6300000000F9
:1058100020756E6B6E6F776E20706172616D65744E
:1058200065723A200000000025733A257325730D38
:105830000A00000010B50446012901D0012100E052
:10584000002100231A46FFF715FE002806D1A068A4
:10585000D0F83C1121F00401C0F83C1110BD10B586
:105860000446012901D0012100E0002100231A464D
:10587000FFF700FE002806D1A068D0F83C1141F0E7
:105880000401C0F83C1110BD7CB514460D46064617
:10589000022901D9012100E0002100231A46FFF767
:1058A000E9FD002811D1022D05D03046FCF784FE19
:1058B00060B10BA30BE061680AA0CDE900010FA263
:1058C00002213046236800F099F97CBD0EA302B096
:1058D0003046BDE870400DA2082100F08FB90000ED
:1058E0006F6E000020756E6B6E6F776E2070617248
:1058F000616D657465723A200000000025733A25D9
:105900007325730D0A0000006F6666004563686FBB
:10591000207374617475733A2025730D0A000000BA
:1059200010B50446012901D0012100E00021002327
:105930001A46FFF79FFD002806D1A068D0F83C1159
:1059400021F00801C0F83C1110BD10B50446012932
:1059500001D0012100E0002100231A46FFF78AFD53
:10596000002806D1A068D0F83C1141F00801C0F829
:105970003C1110BD7FB50D46040004D122A140F6B4
:10598000CC40FBF785FFA06818B1606808B12068BB
:1059900020B91DA140F6CD40FBF77AFF012D01D0C3
:1059A000012100E0002100231A462046FFF762FD96
:1059B000002827D1A0680026D0F83451F5B101E0C5
:1059C000082E1BD20023092201A9284602F0BFFCA1
:1059D0009DF80C20A168092328469431521C02F03E
:1059E000B6FCA068334694300090029D761C14A249
:1059F0000821204600F002F9002DE1D1A168002025
:105A000081F894007FBD00002E2E5C2E2E5C2E2E81
:105A10005C2E2E5C2E2E5C2E2E5C636F6D706F6E76
:105A2000656E74735C6C69627261726965735C63E4
:105A30006C695C6E72665F636C692E6300000000C7
:105A40005B2533645D2025730D0A00007CB5154687
:105A50000E46040004D120A140F63250FBF718FF97
:105A6000A06818B1606808B1206820B91AA140F692
:105A70003350FBF70DFF012E03D0022E18D9012160
:105A800017E0A168204601F10C020D3104F01AFD67
:105A900000281FD0A16850201DA24873A1681820BB
:105AA000087302B02046BDE87040042100F0A6B89B
:105AB000002100231A462046FFF7DCFC002809D10C
:105AC000696822A0CDE9000126A2022120462B68A8
:105AD00000F094F87CBD00002E2E5C2E2E5C2E2E45
