:020000040000FA
:10000000402A0020F9020000010300000303000061
:1000100005030000070300000903000000000000C2
:100020000000000000000000000000000B030000C2
:100030000D030000000000000F030000110300008A
:10004000B1060000130300003D0900001303000087
:1000500013030000130300009904000013030000C1
:100060001303000013030000130300001303000038
:100070001303000013030000130300001303000028
:1000800013030000390700001303000013030000EE
:100090005D070000130300001303000013030000BA
:1000A00013030000130300001303000013030000F8
:1000B000090700001303000000000000000000001A
:1000C00013030000190700002907000013030000B4
:1000D00013030000130300001303000013030000C8
:1000E00013030000130300001303000000000000CE
:1000F00000000000130300000000000013030000D4
:1001000000000000000000000000000000000000EF
:1001100000000000000000000000000000000000DF
:1001200000000000000000000000000000000000CF
:1001300000000000000000000000000000000000BF
:1001400000000000000000000000000000000000AF
:10015000000000000000000000000000000000009F
:10016000000000000000000000000000000000008F
:10017000000000000000000000000000000000007F
:10018000000000000000000000000000000000006F
:10019000000000000000000000000000000000005F
:1001A000000000000000000000000000000000004F
:1001B000000000000000000000000000000000003F
:1001C000000000000000000000000000000000002F
:1001D000000000000000000000000000000000001F
:1001E000000000000000000000000000000000000F
:1001F00000000000000000000000000000000000FF
:10020000DFF80CD000F00AF900480047591D000043
:10021000402A002030B4044654E8000F0D4644E85C
:100220000053002BF8D1156030BC704730B4044641
:1002300054E8000F40EA010544E80053002BF7D1D1
:10024000156030BC704730B4044654E8000F00EA33
:10025000010544E80053002BF7D1156030BC70470E
:1002600030B4044654E8000F80EA010544E8005326
:10027000002BF7D1156030BC704730B4044654E809
:10028000000F00EB010544E80053002BF7D1156087
:1002900030BC704730B4044654E8000FA0EB0105B1
:1002A00044E80053002BF7D1156030BC704770B4A0
:1002B00004464FF0000054E8006F0D68AE4207BFDF
:1002C00044E80023012044E800630E60002B1CBFBB
:1002D0000020F0E770BC704730B4044654E8000FCB
:1002E00088422CBF451A054644E80053002BF5D13F
:1002F000156030BC7047000006488047064800473C
:10030000FEE7FEE7FEE7FEE7FEE7FEE7FEE7FEE7C5
:10031000FEE7FEE761070000010200002DE9F05F43
:100320000546002092469B46884606468146402464
:100330001BE0284641464746224600F05EF85346F9
:100340005A46C01A914110D311461846224600F071
:1003500016F82D1A67EB01084F46224601200021AE
:1003600000F00DF817EB00094E41201EA4F1010426
:10037000DFDC484631462A464346BDE8F09F202A46
:1003800004DB203A00FA02F1002070479140C2F1EC
:10039000200320FA03F31943904070470048704748
:1003A000C83F000040EA01039B0703D009E008C9E9
:1003B000121F08C0042AFAD203E011F8013B00F82A
:1003C000013B521EF9D27047D2B201E000F8012B76
:1003D000491EFBD270470022F6E710B513460A46C5
:1003E00004461946FFF7F0FF204610BD421C10F8E6
:1003F000011B0029FBD1801A7047202A04DB203A18
:1004000021FA02F00021704721FA02F3D040C2F134
:10041000200291400843194670470000064C074DE2
:1004200006E0E06840F0010394E8070098471034C4
:10043000AC42F6D3FFF7E8FE7C4000009C40000091
:1004400070B58C1810F8015B15F0070301D110F896
:10045000013B2A1106D110F8012B03E010F8016BC3
:1004600001F8016B5B1EF9D12B0705D40023521E46
:100470000DD401F8013BFAE710F8013BCB1A921CAE
:1004800003E013F8015B01F8015B521EF9D5A142AC
:10049000D8D3002070BD00002DE9F04F00268DB0AC
:1004A000DFF8A081B14604964FF4807501243746E9
:1004B0000596284602F03EF838B1D8F804032042E9
:1004C00003D0284602F02CF826432D1D64007F1C23
:1004D000ADB2082FEDD34FF4BE74204602F02AF8D7
:1004E00048B1204602F01CF846F0004604AA02215A
:1004F000002001F0FFFF544C16F0FF0F15D001272C
:10050000002537420DD008EB8501D1F81005D1F850
:100510001015C0F3052054F82520C1F3014102B1A4
:1005200090477F006D1C082DEBD3002E7EDA002053
:10053000CDF82890411E0DF1100B07AACDF82C9094
:1005400042F82010401C91460228F9D300252E467F
:10055000A11911F8607F91F9000027F0C008401C34
:1005600040D007A9404601F0FFFC40B34FEA971A7C
:10057000404600F095FE54F820701FB1BAF1030F09
:1005800003D006E0BAF1030F2CD10AA9404601F0CE
:10059000F3FC02A8CDF8088001F042FF029900EBBD
:1005A0008100D0F8000704A9C0F301400290404642
:1005B00001F0DAFC0028029802D0022802D011E0F3
:1005C00003280FD1BAF1030F08D10298022833D0C3
:1005D0000221404601F0FEFE6D1CEDB217B15146FE
:1005E0004046B847761C042EB2D3002D21D001AA74
:1005F0000221002001F07EFF00205A460DF1040187
:1006000052F8206051F82030B34217D000200AAED3
:100610004FEA090351F8207042F8207056F8207014
:1006200043F82070401C0228F4D300E001E0002DC4
:100630008CD10DB0BDE8F08F0321CAE7401C022821
:10064000DED3F6E700600040F802002000F01F0251
:10065000012191404009800000F1E020C0F88012A3
:10066000704700F01F02012191404009800000F115
:10067000E020C0F80011704700F01F0201219140F6
:100680004009800000F1E020C0F8001270474907DF
:10069000090E002806DA00F00F0000F1E02080F8D3
:1006A000141D704700F1E02080F80014704700002E
:1006B00070B54FF48076304601F068FC114CB505FA
:1006C00060B1304601F069FC0120C5F8080360798B
:1006D00020B9012060712168002088474FF482769C
:1006E000304601F053FC00280AD0304601F055FC9A
:1006F0000220C5F808032168BDE8704001200847C2
:1007000070BD0000940000200149024801F0DEB9EC
:100710006403002000C001400149024801F0D6B93D
:100720006C030020001002400149024801F0CEB9DC
:10073000740300200020024007480021C0F8401147
:10074000C0F84411C0F84811C0F84C11C0F80011AD
:10075000C0F8041103F0FAB80010014003F048B8E3
:1007600030B54FF0805000228300D0F83011C3F82C
:100770000C21C3F81021624B1A60624B1B68624C5B
:100780002360604B1B1D1B68241D23605D4B0833D9
:100790001B68241D23605B4B0C331B68241D2360E6
:1007A000584B10331B68241D2360564B14331B68B1
:1007B000241D2360534B18331B68534C2034236093
:1007C000504B1C331B68241D23604E4B20331B6889
:1007D000241D23604B4B24331B68241D2360494B8D
:1007E00028331B68241D2360464B2C331B68241DB3
:1007F0002360444B30331B68434C40342360414BEF
:1008000034331B68241D23603E4B38331B68241D82
:1008100023603C4B3C331B68241D2360394B403321
:100820001B68241D23600124082902D1D0F834312B
:1008300013B1082904D006E0354B3449196005E0AE
:10084000D0F8343113B1082904D006E0314BFB2134
:10085000196005E0D0F8343113B1082908D00EE052
:1008600090F858322C48016863F30301016002E0FC
:10087000D0F834311BB929494FF40070086028487A
:100880000168C90702D06FF00101016025480168C5
:1008900041F470010160BFF34F8FBFF36F8F4FF0D2
:1008A0001021D1F80002002803DBD1F8040200284F
:1008B00022DA1D4B1C601D480468002CFCD0122459
:1008C000C1F800420568002DFCD0C1F8044201685F
:1008D0000029FCD01A6001680029FCD0BFF34F8FBB
:1008E00010487C380168124A01F4E061114301604C
:1008F000BFF34F8F00BFFDE70F490E48086030BDC2
:10090000380500400404001020C500404881030061
:100910008C56004018F50040E40E0040409602401E
:100920000004004088ED00E004E5014000E40140DF
:100930000400FA050090D00354010020014800682B
:10094000004700009C00002002E008C8121F08C1F8
:10095000002AFAD170477047002001E001C1121F40
:10096000002AFBD17047022000F0DAB970B50024EC
:10097000064D06E06868012110F8340002F09EF987
:10098000641C28788442F5D3002070BDA8000020A4
:10099000F8B515460C460646052A01D20720F8BDD3
:1009A00002F084FA18B902F047FA0028F7D1124988
:1009B00000224E600C708D60C1E90422C1E906225C
:1009C0000E4D0DE006EBC4002968009181788DF88A
:1009D000011000780A4A694602F0BCF90028DED10D
:1009E000641EE4B2EED2BDE8F84004480021054A96
:1009F000001D00F053B80000A8000020EC3E0000ED
:100A0000D5180000E517000070B514460D460646DF
:100A100000F0C9F9224629463046BDE8704000F092
:100A20000BB80EB500210091CDE901106A4644F2E1
:100A30000100FFF7E9FF0EBD08B501238DF8003076
:100A40009DF80030144B186059609A606FF4804133
:100A5000401807D001280FD1DA60D8680088986163
:100A6000D86807E01A6118698068586118690068D9
:100A7000986118694068D861186858689868D8689B
:100A8000186958699869D86972B600BF9DF8000066
:100A90000028FBD162B608BDEC030020074B9B7811
:100AA00023B12AB120B10068037C1BB10820704734
:100AB0000720704741744261002070470C040020F9
:100AC00070B502F0BBFD104800240B210470447087
:100AD0000E4D817014206C602C706C70FFF7B6FDA9
:100AE00007211420FFF7D3FD1420FFF7BAFD0848B3
:100AF000046007211120FFF7CAFD0548001F0068A8
:100B0000A860002070BD00000C040020C800002078
:100B1000081501402DE9F843DFF8709099F802308C
:100B20005BB350B3052902D20720BDE8F8834369BF
:100B30001BB3437C012B22D00027044600258846A6
:100B40001646284600F036F8684603F01DF9C0B195
:100B5000012101700E4944600968C0E90218C0E92A
:100B600004769DF8000089F80100002000F024F8C8
:100B70001420FFF781FD2846D7E70820D5E70F4668
:100B8000DBE70425002000F017F8F4E70C04002050
:100B9000041501400649897839B130B1416921B164
:100BA00000210174022102F0B1BE0820704700004C
:100BB0000C04002000F002B800F008B872B6024839
:100BC0000168491C01607047DC0000200349086887
:100BD000401E086000D162B670470000DC000020B3
:100BE00070B5054608680C46411C04D001F05BFC5A
:100BF000206801F0DBFB6068411C02D0002101F09D
:100C0000C3FB2968A069C1F82405607D227D29689D
:100C10001043C1F86C05D4E900122868C0F8142507
:100C2000C0F80C15207D012814D1A068411C02D009
:100C3000002101F0A9FBE068411C04D001F033FC65
:100C4000E06801F0B3FBD4E902122868C0F8082577
:100C5000C0F8101570BD70B5054608680C46411CFB
:100C600004D001F02AFC206801F0AAFB6068411C56
:100C700002D0002101F091FB2968A069C1F8240588
:100C8000607D217D2A680843C2F86C05D4E9001212
:100C90002868C0F80C15C0F81425207D012814D14F
:100CA000A068411C02D0002101F077FBE068411CE4
:100CB00004D001F002FCE06801F082FBD4E90212EA
:100CC0002868C0F80825C0F8101570BD2DE9FC4152
:100CD0000646C0074FF000050ED0104F0024012239
:100CE000385D009500231146019501F0D7FA641C88
:100CF000042CF4D300F04EF8B0070DD5074E0024B5
:100D0000361D0022305D032300951146019501F048
:100D1000C5FA641C042CF4D3BDE8FC81A83E000095
:100D2000094908B5085C0090684601F06BFBD0F8F3
:100D30000425009B0121994021EA0203C0F80835EF
:100D40001140C0F80C1508BDA83E00000249085C1F
:100D5000012101F0BCBB0000A83E00000249085C74
:100D6000002101F0B4BB0000A83E0000084908B50E
:100D7000085C0090684601F045FBD0F80405009936
:100D8000C84010F0010000D0012080F0010008BD33
:100D9000A83E000010B500242046FFF7D7FF641CD2
:100DA000042CF9D310BD10B500242046FFF7D6FF60
:100DB000641C042CF9D310BD10B50246064B4FF04D
:100DC000FF3000215C5C944201D1084610BD491CF3
:100DD0000429F7D310BD0000AC3E00002DE9F04718
:100DE0000D468146FFF7E8FF0446042836D2DFF8B7
:100DF00074801B481C4EA8F10C0725B3012D0ED0A2
:100E0000022D2BD104EB440030444578002D25D031
:100E1000B968002922D02846BDE8F047084704EB0E
:100E20004401755C0E44717849B10E4A4FF400419B
:100E3000093A8068FFF76EFE08B987F80390B17829
:100E400008F80410E2E78068FFF7A4FE04EB440111
:100E5000314418F804008D78A842D7D0BDE8F08757
:100E6000B03E00007C000020B8020020FFF77EBDED
:100E700070B50023042810D20D4D00EB4004012A68
:100E800002D101290CD00022094E00EB4000304471
:100E900061B1012906D0022906D00723184670BD8A
:100EA0000E30C2B22A55F9E74270F7E78270F5E7D3
:100EB000B802002070B586B006461422194968466B
:100EC000FFF770FA184C00250E2E617806D00F2E11
:100ED00025D1042908D2491C617006E009B1491ED8
:100EE000FAE70420607000E065702078C00703D046
:100EF0000D48001D02F0E0F82078800703D50A486D
:100F00000C3002F0D9F82078400703D50648143099
:100F100002F0D2F8257061785DF82100804706B0B4
:100F200070BD0000943E00000000002070B5064631
:100F30001E480024C0E90161B00720D50025012228
:100F400011462846FFF794FF6D1C0446042D02D27B
:100F5000002CF4D013E094B940F2666204211448E6
:100F6000FFF716FD04000AD1FFF700FD040006D1CB
:100F70000F48104A0021001FFFF790FD0446F007BC
:100F800012D00120FFF7A2FE74B909480A4A0021D5
:100F90000C38FFF783FD040006D10548074A0121FC
:100FA0000838FFF77BFD0446204670BD7000002026
:100FB000BC3E000035120000B11B000067090000B4
:100FC0002DE9F05F6A4C054600266078B34618B1FB
:100FD00084F801B000F0D4FD664F4FF47A694FF405
:100FE000C87A4FF00108182D62D2DFE805F0AC0C8A
:100FF0000C31404D62676B746B74BE7D7D7D7D7D71
:10100000ACAFB2B5BEBE0020FFF7B0FE00284FF077
:10101000000008D0FFF79AFE022D02D14FF4E160E4
:1010200008E0484606E0FFF799FE022D01D1C820EE
:1010300000E05046410CC0034FF4FA72801841F1B1
:101040000001257052000023FFF768F901462AE0ED
:101050000020FFF78BFE00284FF0000004D0FFF7C0
:1010600075FE4FF44870E5E7FFF778FEDFE70020F4
:10107000FFF77CFE00284FF0000002D0FFF766FE6D
:10108000CFE7FFF76BFED4E70020FFF76FFE0028E5
:101090004FF0000002D0FFF759FE01E0FFF75EFEBF
:1010A000257041F69A1100223868FFF733FD064695
:1010B00046E00020FFF734FE257008E0002051E0F4
:1010C00025703DE084F801800120FFF729FE002211
:1010D00040F6CD41E8E784F801800120FFF720FECB
:1010E00000224FF48041DFE77868FFF753FD0646A2
:1010F000D5F1110000D02EB10220FFF727FE84F8B1
:1011000002B01DE0012816D980B2C8214843C1179A
:10111000C90341EA5041C0034FF4FA72801841F10B
:10112000000152000023FFF7F9F801460022786819
:10113000FFF7F0FC06460220FFF710FE84F802805D
:101140003046BDE8F09F00F01BFDB9E700F018FD48
:10115000B4E700F015FD04E000F012FD0020FFF7F9
:10116000FDFD0120FFF7FAFDAAE7FFF71CFEA7E748
:1011700070000020B03E00002DE9F0470546861CB7
:1011800090460F464FF001090020FFF713FD1B4C5E
:1011900020683860D4E90001401AA16804F21C47B5
:1011A000081A0EE00121384600F076FE00F086FDB8
:1011B0000146384600F070FED4E90001401AA168EB
:1011C000081A401C8642EDD8B8F1000F03D0052064
:1011D00065F3891002E0062065F39F50A26821683C
:1011E000114004EB8101C860206830442060002079
:1011F000FFF7E2FC4846BDE8F08700001806002033
:1012000030B482680468531C8360A154D0E9011291
:101210008A4202D330BC00F048BF30BC70470000A7
:10122000034803C8814201D1012070470020704764
:101230001806002000780221FFF7D0BD05494FF0C5
:10124000FF32082841F8202002D3084480F85820B3
:1012500070470000F8020020F0B54FF0FF3512B1E2
:101260000023082601E008230C260C4C05E000BFF3
:1012700054F823707F1C04D05B1CB342F8D328467B
:10128000F0BD26185DB286F8305044F82310002ACD
:10129000F5D1E11881F85800F1E70000F8020020CC
:1012A0000249084490F9300070470000F80200201D
:1012B00070B5084C050009D010342168002907D00A
:1012C00008682060496828468847F6E70834F4E74C
:1012D00070BD0000E4020020054A012120B1012870
:1012E00005D19170FFF7E4BF51700020FAE7704715
:1012F000E40200202DE9F05F26484168F1B3DFF8F1
:1013000098B00E688146DBF8004087688078E11B62
:1013100021F07F45ED1CB0B9DFF880804FF48030BC
:10132000C8F84403C8F804031120FFF78FF911200F
:10133000FFF797F94FF0010AC8F800A02F2001F03D
:10134000B5FC89F802A0B54200D23546124BE81927
:101350003C3320F07F401860DBF800105A46091B30
:1013600021F07F41001B20F07F40C91C81420FD932
:10137000106818602F2001F099FC00E004E0BDE83F
:10138000F05F1120FFF778B9BDE8F05F02F056B9C1
:10139000BDE8F09FC8000020041501400010014086
:1013A0002DE9F04186B000240F46804601256E46A7
:1013B000385DFF2823D0C10920F0800046F82400C2
:1013C000049004A807D001F039F8049905FA01F156
:1013D000C0F8081506E001F031F8049905FA01F1AA
:1013E000C0F80C1556F82400049004A801F026F863
:1013F000049A032100EB8200C0F8001703E04FF0CD
:10140000FF3046F82400641CE4B2042CD0D3D8F892
:1014100000106B46002000BF01EB800253F8204013
:10142000C2F86045401CC0B20428F5D306B0BDE840
:10143000F08100000EB515480321008801EB004043
:1014400013A101F063FA144A07CA8DE80700134A92
:101450006946134801F08CFD08B1FFF7E2FA104A23
:101460000223121F02F11C01107840F001001070DD
:101470000020088048808880C8809070064901223A
:101480001039074801F0E0FD0EBD00007801002092
:1014900044656D6F20310000C83D0000A5140000B8
:1014A0000400002070B5002822D112484FF000023D
:1014B00000F11C0483785D0813F0010F34F8151057
:1014C00004D0C8390904090C06D006E0C83189B235
:1014D00042F21076B14200D3012224F81510002AFE
:1014E00006D05B1CD9B28170082901D3002181701C
:1014F00070BD00000000002010B5204803218CB012
:10150000008801EB00401EA101F000FA1E4C09AB5F
:1015100004F11C0007C883E80700002209A91B4842
:1015200001F026FD08B1FFF77CFA1848184B001FA0
:101530004FF4C872017841F00101017000210846A2
:10154000114489B223F81010401CC0B21928F7D3F7
:1015500028340DF1040C0FCC8CE80F0094E80F0038
:101560000DF1140C8CE80F0002200090012305AA55
:1015700001A9064801F0CEFC0CB010BD7801002096
:1015800044656D6F20320000B83D0000040000206B
:101590007C01002010B51548032188B0008801EBBC
:1015A000004013A101F0B2F9134C04AB04F1480060
:1015B00007C883E80700002204A9104801F0D8FCFE
:1015C00008B1FFF72EFA0D485434001F017841F09E
:1015D0000101017094E80F008DE80F000123032240
:1015E0006946064801F030FD08B010BD78010020C2
:1015F00044656D6F20330000B83D000004000020FA
:10160000F0B5574803219BB0008801EB004055A17D
:1016100001F07CF9554E02AB06F16400FF2407C8C7
:1016200083E807008D208DF808008DF809408E2092
:101630008DF80A0007208DF80D0047F61220ADF84E
:10164000100001208DF812008DF80B40002202A935
:10165000474801F08DFC08B1FFF7E3F9444D05AFB1
:101660002D1F7036287840F00100287096E80F0092
:1016700087E80F0004208DF80D00002041F2883625
:10168000ADF810603B4A8DF81200014664231944FE
:1016900089B222F8101002EB400C771A401CC0B23D
:1016A000ACF864703228F2D38DF808408DF8094008
:1016B0008F208DF80A002E488DF80B40002202A9D9
:1016C000083001F055FC08B1FFF7ABF92878274E38
:1016D00040F00200803628700FCE09AF87E80F0077
:1016E00096E80F000DAF103E87E80F008DF8084018
:1016F0008DF809408DF80A4090208DF80B001C48A9
:10170000002202A9103001F033FC08B1FFF789F97B
:101710002878203640F0040028700FCE11AC84E801
:101720000F0096E80F0015AC84E80F000223012299
:1017300005A90F4801F088FC0D48022401230DAAD9
:1017400009A90830009401F0E5FB0948012315AA16
:1017500011A91030009401F0DDFB1BB0F0BD0000BA
:101760007801002044656D6F20340000B83D000012
:1017700004000020AE01002010B51548032188B0F8
:10178000008801EB004013A101F0C0F8134C04AB3A
:1017900004F1400007C883E80700002204A91048AC
:1017A00001F0E6FB08B1FFF73CF90D484C34001F8F
:1017B000017841F00101017094E80F008DE80F00FD
:1017C000022301226946064801F03EFC08B010BD24
:1017D0007801002044656D6F20350000383E000020
:1017E000040000202DE9F0470025DFF890803DE05F
:1017F0006068002100EBC506012032789146FEF7B3
:10180000BEFDD4E9062300EA020701EA030C57EA09
:101810000C0729D082438B434846C4E9062301F0D4
:1018200003FB32788246914601200021FEF7A7FD96
:10183000D4E9042300EA020401EA03074A465046B9
:101840000021FEF79CFD44404F403C430CD1707892
:10185000012801D0012000E00020726880EA0A001F
:1018600012B1C1B2484690476D1CEDB298F8000025
:1018700044468542BCD3BDE8F0870000A8000020A4
:1018800010B50021024800F012FB80F3100010BDDB
:10189000340A00200E4910B50A784C780023A24281
:1018A00012D0521CD2B20A70022A00D10B70084A20
:1018B0000B780C3252F8232002608868104420F024
:1018C0007F408860012010BD0360002010BD000033
:1018D000C80000202DE9F041804602460120002189
:1018E000FEF74DFD1A4F05460E467868FFF752F990
:1018F00000280CD1174CD4E9062110462A4001EAF1
:1019000006031A4305D0A843B143C4E90601BDE864
:10191000F081404601F088FA30B1D4E9040128434F
:101920003143C4E9040105E0D4E90410A943B043FC
:10193000C4E90410D4E9060128433143C4E906018F
:10194000A1687868BDE8F0410022FFF7E3B8000025
:10195000EC3E0000A80000202DE9FC5F0E0083464D
:10196000DDE90C47C6F1000098469246814600D456
:101970000846012503E000BF90FBFAF06D1C5045BE
:10198000FADAA84500D9454624B1002E01DB7807D4
:1019900000D5641EB80702D5B8F1000F0AD0F807C9
:1019A00008D13CB1A54205D220215846641EFFF75C
:1019B00027FCF6E7002E02DA4E462D2102E07807DA
:1019C00003D52B215846FFF71BFC07F00300022824
:1019D0000BD1B8F1000F08D13CB1A54205D230219E
:1019E0005846641EFFF70CFCF6E7CDE90047434676
:1019F00052463146584602F06DF9BDE8FC9F0000A2
:101A000070B50D46044600684FF4887101F011F975
:101A10004FF49071206801F00CF94FF49271206836
:101A200001F007F94FF4A271206801F002F9206873
:101A30001249C0F8041320686907000B40B2090E70
:101A4000002806DA00F00F0000F1E02080F8141DF5
:101A500003E000F1E02080F8001420680121000B71
:101A600040B200F01F0291404009800000F1E020E8
:101A7000C0F88012C0F8001170BD00001003020011
:101A8000024600201268930702D0530702D4704721
:101A9000500714D502F00300012802D002280CD10F
:101AA00005E0C2F383100B68801C184404E0022395
:101AB000086803EB925210440860012070470868E0
:101AC00000EB9253C2F38910401CEEE770B50C4650
:101AD0004FF488760546314601F07BF850B1314627
:101AE000284601F07BF86079400703D5216809B1E9
:101AF000012088474FF48A763146284601F069F87C
:101B000050B13146284601F069F86079000703D5E5
:101B1000216809B1022088474FF48E763146284665
:101B200001F057F850B13146284601F057F8607976
:101B3000C00603D4216809B1002088474FF482769B
:101B40003146284601F045F800280CD03146284699
:101B500001F044F8012020712168002903D0BDE87C
:101B600070400320084770BD0268134602E08A42B5
:101B700004D01268002AFAD10B600160704700009F
:101B80000A4810B5807860B1002401E0022C06D02C
:101B90002046FFF7DBF8641C042CF7D310BD0324A8
:101BA000F6E7BDE81040FFF7F5B800007000002030
:101BB00003480179C90702D00078FFF701BA7047DE
:101BC000700000202DE9F047394E002780463D4641
:101BD000DFF8E090D6F804A057E003D00446D0F830
:101BE0001C8035E099F8002002EB4201521CD2B271
:101BF00089F8002009EBC10199F80230091D9A42C9
:101C000001D189F8005048680A780446012A12D0A8
:101C1000022A02D0032A3BD108E001F047FE00B1BE
:101C20000127257434E00574C06900E0706800285D
:101C3000F9D170602CE0207C50BB88686060C86877
:101C4000A0600869E0604869A061F07800B1656053
:101C50006268B168184B501A20F07F40984202D257
:101C6000A168084406E0881AA16820F07F408142FC
:101C700002D9081A206000E0256065600120A56097
:101C800020742046E56101F0F3FDB8F10000A4D115
:101C900099F8001099F801008142A3D117B9716831
:101CA000514502D00120BDE8F0870020FBE700008D
:101CB000C80000200C040020FFFF7F002DE9FF4139
:101CC0000026234800F0E5F82148001F074600F0F1
:101CD000E0F8204C60680090A56800E00098694634
:101CE000284004EB80000C30FFF7CAFE0028F5D135
:101CF00001AA009901EA050304EB8303491CDB6890
:101D000042F82030401C00910228F2D3019800F0E4
:101D1000030001280BD0022810D10198032101EB08
:101D200090500099BDF80A6001EB900005E0019821
:101D3000BDF80A60C0F3831008440090384600F0F4
:101D4000A5F808B10098606004B03046BDE8F081A5
:101D5000300A0020180600204FF40041002000F057
:101D60002FFE08B1FEF75DFE00F0B6FC00F01EF994
:101D700008B1FEF756FE002000F032F9FEF7A0FE93
:101D800008B1FEF74EFE0F490220FFF7CFF808B169
:101D9000FEF747FEFFF76AF808B1FEF742FE0A4871
:101DA0000321008801EB004008A100F0AFFDFFF720
:101DB00041FB20BF40BF20BF00F09CFC0028FBD1AE
:101DC000F7E70000B50E00007801002050574D20C5
:101DD0006578616D706C6520737461727465642ED2
:101DE000000000002DE9F047C7880446181D16467C
:101DF0008946B0FBF7F1B0FBF7F207FB12009A1926
:101E00003A44D21CB2FBF7F2DDF820A001E02468CE
:101E1000491E0029FBD13D1A8846B54216D818E064
:101E2000BAF1000F05D0211809EB08002A46091D58
:101E300004E0204409EB08012A46001DFEF7B2FA2F
:101E400000202468761BA844B74201D9354600E03B
:101E50003D46002EE4D1BDE8F087000030B50246D3
:101E600059B100F0D9FD0021074C09E004EB8103D2
:101E700015685B88AB4202D11160002030BD491C5F
:101E80008142F3D3052030BD58010020002100F02D
:101E900009B8012100F010B808B56A46FEF7EDF95F
:101EA000009808BD08B56A46FEF7CDF908BD08B52B
:101EB0006A46FEF7AFF908BD08B56A46FEF7B6F9FF
:101EC000009808BD08B56A46FEF7E4F9009808BD19
:101ED00070B5044600252846FEF76CFE216862684E
:101EE000086890420ED9401E08600178A38AE26813
:101EF00001FB0325227A2168101AC0B20A798242B6
:101F000000D208710020FEF757FE284670BD70B55C
:101F100005460C460020FEF74DFEE868A98A201A07
:101F2000B0FBF1F12A681068431C13600170BDE832
:101F300070400020FEF740BE10B530B1017A426813
:101F40000368891AC9B21A6006E00E2010BD036842
:101F50001A68541C1C601170491EC9B2F7D200687F
:101F600000210171084610BDC20800F007030120DE
:101F7000895C98400840704710B5C20800F007031C
:101F8000885C01249C402043885410BD00F18040AF
:101F90000068002800D00120704708B500F180409B
:101FA000002101600068009008BD000070B50A4C77
:101FB000207808B185250CE00020A06060602061D9
:101FC000E060064800F052FE054600F039FE0120B0
:101FD0002070284670BD0000E4020020D9120000E5
:101FE00070B5104D0446A87838B114B1616801206D
:101FF00088470020FEF7DEFD0CE00020FEF7DAFD4A
:1020000024B1084821461030FFF7AEFDE86808B952
:1020100000F03CFEE868401CE860BDE8704000202D
:10202000FEF7CABDE4020020F0B505460478154865
:1020300089B0164640F82420124A08690832A2F1F5
:102040000C0742F82400487F385520226846FEF7E6
:10205000A9F904942878385C48B10EB10A4A00E026
:1020600000226946281D01F077F909B0F0BD0EB1D4
:10207000064A00E00022694605F10C0001F03EF836
:10208000F3E7000084000020B13B0000FD390000B0
:102090000FB408B50399002904D004AA00926A4637
:1020A00000F00FF801B05DF814FB10B5826804462B
:1020B000002A05D0D4E90403216898470020A060D5
:1020C00010BD2DE9FC4791460C00804676D014F8EF
:1020D000011B39B125290ED04046FFF791F8207831
:1020E0000028F4D198F80C00002867D04046BDE8DD
:1020F000FC47FFF7DABF0020012221782B291BD0F3
:102100002D2902D0302908D102E040F0010001E081
:1021100040F00200641C002AEFD100252A290ED0CD
:102120002178A1F130020A2A11D205EB850201EBD8
:102130004205641C303DF1E740F00400EAE7D9F8BD
:1021400000100B1DC9F800300968641C0D4421788B
:1021500000232E290BD114F8011FA1F130020A2A05
:1021600005D203EB830201EB4203303BF3E76C291A
:102170000DD068290BD0692921D00BDC252918D076
:10218000582931D063290ED0642915D117E014F8ED
:10219000011FECE7702969D0732932D075291BD053
:1021A000782909D120E0D9F80000011DC9F80010F4
:1021B00001784046FFF724F8641C90E76CE0D9F8FA
:1021C00000100A1DC9F800200968CDE900500A2254
:1021D0004046FFF7C1FBEFE7D9F800100A1DC9F828
:1021E000002009680A2206E0D9F800100A1DC9F883
:1021F000002009681022CDE90050404601F06AFD38
:10220000DAE7D9F8001000270A1DC9F800200E6887
:10221000C00705D112E04046761C7F1CFEF7F0FF98
:1022200031780029F7D104E0202140466D1EFEF7E9
:10223000E7FFBD42C0D9002DF6D1BDE74EB1304613
:10224000FEF7D4F8074604E0202140466D1EFEF755
:10225000D7FFBD4206D9002DF6D103E04046761CDB
:10226000FEF7CEFF31780029F8D1A5E7D9F80000B4
:10227000011DC9F80010056830214046FEF7C0FF77
:1022800078214046FEF7BCFF08200021CDE900017F
:10229000034610222946B0E7BDE8FC872DE9FF413F
:1022A0001C46DDE90A7815460E46684600F0AAF895
:1022B00046EA450141EA840141EA072242EA08412F
:1022C000009A00EB8200C0F80017BDE8FF812DE9FD
:1022D000FF411C46DDE90A7815460E46684600F0C7
:1022E0009FF846EA450141EA840141EA072242EAB1
:1022F0000841009A00EB8200C0F80017BDE8FF819A
:102300002DE9FF411C46DDE90A7815460E46684670
:1023100000F0A2F846EA450141EA840141EA0722B9
:1023200042EA0841009A00EB8200C0F80017BDE8BD
:10233000FF812DE9FF411C46DDE90A7815460E466E
:10234000684600F097F846EA450141EA840141EA0F
:10235000072242EA0841009A00EB8200C0F8001709
:10236000BDE8FF811CB5002100910B4601220191BF
:10237000FFF7C6FF1CBD1CB5002100910B460122D2
:102380000191FFF7D6FF1CBD1CB500220B46009241
:1023900011460192FFF7B4FF1CBD1CB500220B468D
:1023A000009211460192FFF7C4FF1CBD1CB500212D
:1023B00000910B46012201911146FFF7A1FF1CBDC0
:1023C0001CB5002100910B46012201911146FFF737
:1023D000B0FF1CBD13B50C46684600F021F800990B
:1023E00000EB8101D1F8002722F44032C1F8002728
:1023F000009900EB8100D0F8001741EA0441C0F8D1
:1024000000171CBD0168202902D24FF0A040704780
:1024100001F01F01016001487047000000030050F7
:102420000168202902D24FF0A040704701F01F013F
:102430000160014870470000000300500168202936
:1024400002D24FF0A040704701F01F010160014827
:1024500070470000000300500168202902D24FF0AD
:10246000A040704701F01F01016001487047000063
:10247000000300500168202902D24FF0A0407047AD
:1024800001F01F0101600148704700000003005087
:1024900001B56846FFF7C4FFD0F810050099C840A1
:1024A00000F0010008BD01B56846FFF7D5FF009AAE
:1024B00001219140C0F8081508BD01B56846FFF735
:1024C000D9FF009A01219140C0F8081508BD38B520
:1024D00001240090684631B1FFF794FF00998C40C9
:1024E000C0F8084538BDFFF78DFF00998C40C0F853
:1024F0000C4538BD1CB5094C0144D4E90034CDE984
:1025000000346C4606E000BF54F82030D3F8103594
:10251000401C08C28142F7D81CBD0000DC3E000010
:10252000034908B50844002101600068009008BD17
:102530000060004002494058012800D00020704748
:102540000060004030B5124B01460020D3F8104423
:10255000224609E0157A854205D1401C0A28F7DB9E
:102560004FF0FF3030BD5268002AF3D1421CF9D041
:102570000872D3F810242AB152684A60D3F81024A4
:10258000516030BD0022C3F810144A6030BD000015
:1025900018060020F0B595B01C4615460F460846B3
:1025A0001A9E00F0F5FA182109A8FDF714FF0E96FF
:1025B000CDE909540023082203A9384600F0FDFAAA
:1025C00005980690BDF81000ADF81C00BDF812008B
:1025D000ADF81E0000208DF821000398082600F0B9
:1025E0000300012802D0022818D032E003983346B5
:1025F000850AC0F3C2008DF8200003980FA9C0F32C
:102600008314A200384600F0D8FA09A8009006AB5F
:1026100022460FA9284600F017FA1AE00398840D05
:10262000C0F3C2008DF82000082C01D2254600E03E
:10263000082533462A460FA9384600F0BEFA2E4434
:10264000641B09AB06AA29460FA800F063F9002C09
:10265000EAD1384600F0A2FA15B0F0BD704701206B
:1026600001F0EAB9084810B50178084A515C19B17F
:10267000001D00F0FDFE02E00C3000F00BFEBDE896
:102680001040002001F0D8B9E400002080000020B4
:1026900008B5034A00924023024AFFF77BFF08BDBA
:1026A000D9360000180500200A4A012902EBC000B3
:1026B00007D0022907D0032907D0042907D000201A
:1026C00070470220704704207047007970474079B6
:1026D000704700009C40000010B5FFF7C0FF0421C8
:1026E0000348FFF72FFF02490120487210BD000088
:1026F000F80000202DE9F0478CB0FEF791FD18B1ED
:1027000000200CB0BDE8F087784C0020C4F8180415
:10271000BFF34F8F60680290A5684FF00008284013
:1027200004EB800008E021680298814201D86160D2
:10273000E6E7284004EB80000C3002A9FFF7A0F97F
:102740000028F0D103AB029901EA050204EB8202F2
:10275000491CD26843F82020401C02910228F2D381
:10276000039800F00300022802D001284ED0A5E013
:1027700003985022810D8946B2EB905F00D850211A
:102780000E4666F39F5003900831594800F0B7F9A0
:10279000070078D000F0FCF94346082203A9384628
:1027A00000F011FA029908F1080A2940681A80001D
:1027B000001D864223D94D4D0C3530B1C2B204EB19
:1027C0008101301A90460C3104E02946F2B200250E
:1027D00090462846C6B25346384600F0F4F90AEB54
:1027E00008032DB1324629464FEA070000F0EBF905
:1027F000029909F1030001EB900002903AE004EB2A
:1028000081015346324638460C31EFE70398C0F356
:102810008311062900D3062161F389100390C0F3C8
:102820008310801C8100324800F069F9070045D010
:1028300000F0AEF94346082203A9384600F0C3F978
:1028400008F1080800260FE00298434600EA050157
:10285000401C04EB81010290042238460C3100F048
:10286000B2F908F10408761C0398C0F38310B04253
:10287000EAD847B1D4F81054D4F8180468B13846EF
:1028800000F08CF92CE019E0687A012804D12A685C
:1028900028463946126890476D68002DF4D13846B5
:1028A00000F07CF90020FEF785F9D4F8180408B987
:1028B000029860600020FEF77FF911E0D4F8104420
:1028C00004E021682046896888476468002CF8D1B4
:1028D00008480221008801EB004007A100F016F82B
:1028E000FEF79EFC80F001000BE7000018060020B8
:1028F000E4400000780100204261636B656E647300
:1029000020666C75736865640000000000231A4639
:1029100000F028BF2DE9F0470E4680461C4692463F
:1029200008293ED894F80C900020207319461046D0
:1029300000F02CFE0025B54206D218F805201AA199
:102940002046FFF7A5FB03E019A12046FFF7A0FBF7
:102950006D1C082DEFD317A12046FFF799FB00252A
:10296000B54210D218F80570FDF718FD0068C05D7B
:1029700010F03E0F01D03A4600E02E220EA1204674
:10298000FFF786FB03E00DA12046FFF781FB6D1CDE
:10299000082DE5D301222146504600F0D9FD84F8E8
:1029A0000C90BDE8F0870000202530327800000050
:1029B000202020007C000000256300002000000093
:1029C000104810B5FF218160002101604160C0F80E
:1029D0001814C0F8141480F820140B4800F0DCF828
:1029E00000280DD109480A490A4B401AC1080020A5
:1029F00003E000BF23F82000401C8842FAD30020E7
:102A000010BD000018060020E4400000E440000073
:102A10009C4000005801002002480349401AC008A9
:102A200070470000E44000009C40000013B5684679
:102A3000FFF714FA08B100201CBD0248009950F8B5
:102A400031001CBD9C4000002DE9FF4781460C9DD4
:102A500000200C462F7B28739846164629461846B8
:102A600000F094FD072E42D2DFE806F004090F16AD
:102A70001F2A360049462846FFF70AFB37E0494639
:102A800028462268FFF704FB31E0D4E900234946D9
:102A90002846FFF7FDFA2AE0A0680090D4E9002359
:102AA00049462846FFF7F4FA21E0D4E90201CDE9CE
:102AB0000001D4E9002349462846FFF7E9FA16E069
:102AC00004F1080007C88DE80700D4E9002349464F
:102AD0002846FFF7DDFA0AE004F108000FC88DE888
:102AE0000F00D4E9002349462846FFF7D1FA002217
:102AF0002946404600F02CFD2F73BDE8FF872DE9E5
:102B0000F041858A80462D1F4819C01CB0FBF5F0A6
:102B1000C6B24046FFF7DCF9041E19D00020207130
:102B200001206071E58000272546761EC4F80080EC
:102B30000BE04046FFF7CCF960B16179491C617147
:102B4000286005467F1CC0F80080B742F1D32046BC
:102B5000BDE8F081204600F002F80020F8E72DE9FA
:102B6000F041457901466B1E002201E00968521CC4
:102B70009A42FBD30F680146002605E038460C68F0
:102B8000FFF7C5F92146761CAE42F7D3BDE8F081C8
:102B90000121001DFFF780B9FFF7CEB910B504463B
:102BA0000121001DFFF78EF910F0FF0F04D1204620
:102BB000BDE81040FFF7D3BF10BD38B50124009425
:102BC000FFF710F938BD38B500240094FFF70AF973
:102BD00038BD4058002800D00120704708B50022B9
:102BE00042504058009008BD00EB41101368C0F8F7
:102BF00020359188C0F824159168C0F82815D1684F
:102C0000C0F82C1570474058002800D001207047AC
:102C100008B5002242504058009008BDD0F8040387
:102C2000084000D0012070474058002800D0012003
:102C3000704708B5002242504058009008BD00007F
:102C400008480068012110F0010F08D14FF0E02082
:102C5000E02280F80024C0F88012C0F80011024879
:102C60000160704700E100E0180500400649024697
:102C700000200B790BB1852070470A6001220A7190
:102C800000224A71704700009400002010B54FF4F4
:102C90008270FFF782F902204107C1F8040302495C
:102CA0000120086010BD000008000040002802D08C
:102CB0000149800108477047013F00002DE9F041BC
:102CC0000E46804600F02CFC204D0028404616D0D1
:102CD000FEF7E6FA284490F858008009032802D04D
:102CE00001280AD003E04046FFF7D2FB28B10321B8
:102CF0004046BDE8F041FFF76DBB0221F8E700F068
:102D00001BFC002820D04046FEF7CAFA0446104FAC
:102D10004FF4807007EB840100EB8400D1F810259C
:102D200080B242F00102C1F81025FFF7F9FB002E36
:102D30000AD04046FEF7B4FA55F82000002803D028
:102D40000120A040C7F80403BDE8F081F80200208C
:102D5000006000402DE9FC41DFF8C080044608EB2C
:102D60000400002790F930001346C0170E46401C9F
:102D700001D008274FE0B0781946C0F34002204642
:102D8000FEF76AFA0546401C44D0B07841071CD4CF
:102D9000C0070DD068460094FFF742FB009900EB96
:102DA0008100D0F8001721F00201C0F8001707E0F9
:102DB00000217378204600910A460191FFF787FAB7
:102DC000164920466431FFF7D7F8B078800718D548
:102DD0001348317800EB8500D0F81025114B1A40CC
:102DE000C0F810254FF47C524FF4403302EA04221D
:102DF00003EA01410A43D0F810150A43C0F8102530
:102E000009E008EB0500327810F8581F41EA8211FA
:102E1000017000E004273846BDE8FC81F80200207C
:102E200000600040FFC0FCFF10B5FFF731FB002839
:102E300000D0012010BD000070B5194D95F86A0052
:102E400008B1082070BD0020411E2A18401CC0B2E5
:102E500082F830103028F8D300242046FEF7EEF92F
:102E6000641CE4B20C2CF8D30D490024E0204C661D
:102E7000A1F868400B4981F8000401264020891F11
:102E8000C1F88002C1F800014FF4BE70FFF748FBA3
:102E90000549F007C1F8040385F86A60204670BD53
:102EA000F802002006E000E000600040034890F8CF
:102EB0006A00002800D0012070470000F8020020BE
:102EC0000121B1EB507F01D10120704700207047F4
:102ED00070B50D4600F0A6FB04000FD00020FDF7F2
:102EE00069FE207920B10020FDF766FE112070BD3B
:102EF0000120256020710020FDF75EFE002070BDDE
:102F000010B500F08FFB002802D000210160017194
:102F100010BD00002DE9F041904604460079134AA7
:102F20001F4602EBC0060A46069D00212068FFF7F7
:102F30005BFE424601212068FFF756FE2068C0F87C
:102F40001475E80701D0102004E0A80701D504207B
:102F500000E000202168C1F80002EAB231462046B4
:102F6000BDE8F041082300F0D7BB00006403002057
:102F70002DE9F0410D4604460079324901EBC007C6
:102F8000387910B10820BDE8F081294620463A6022
:102F9000FEF706FA20680126C0F8006520686B7904
:102FA000AA792989C0F80C35C0F80425C0F808159D
:102FB000A87AE97A226840EA0120C2F81005206860
:102FC0000021C0F800122068C0F800134FF48E7181
:102FD0002068FFF703FE4FF488712068FFF7FEFDBD
:102FE0004FF48A712068FFF7F9FD4FF48271206871
:102FF000FFF7F4FD386808B320682979000B40B268
:1030000000284FEA411106DA00F00F0000F1E0203D
:1030100080F8141D03E000F1E02080F8001420681F
:10302000000B40B200F01F0206FA02F140098000D6
:1030300000F1E020C0F88012C0F800113E710020BD
:10304000A1E70000640300202DE9F0410F4604468B
:1030500000791849164601EBC0081D463A46002182
:103060002068FFF7C1FD3A4601212068FFF7BCFD4B
:10307000206806F0010101EB5602C0F81425E807AC
:1030800001D0102007E0A80704D509B1082002E00C
:10309000042000E000202268C2F8000209B10C23DD
:1030A00000E00823EAB241462046BDE8F04100F0C6
:1030B00033BB00006403002010B501790A4A0123E4
:1030C00002EBC1020168090B49B201F01F04A340E1
:1030D0004909890001F1E021C1F88031006800212F
:1030E000C0F80015117110BD6403002001490248A9
:1030F00000F0CABC7C030020002000402DE9F04114
:103100000546007916460F4600EB40012D4A01EBBB
:10311000C00102EB810494F82A1011B10820BDE827
:10312000F081294951F820102868FFF7D1FE08B135
:103130001120F4E739462846FDF752FD66603869EC
:10314000206030004FF001062FD03F7F4FF48E718A
:103150002868FFF75DFD4FF4A2712868FFF758FD5E
:1031600028681A49C0F8041328684FEA4711000B71
:1031700040B2002806DA00F00F0000F1E02080F8ED
:10318000141D03E000F1E02080F800142868000B13
:1031900040B200F01F0206FA02F14009800000F17F
:1031A000E020C0F88012C0F8001128680421C0F89F
:1031B00000150020A061E06184F8290044F8140F94
:1031C000A675ACE77C030020E43E0000800002000E
:1031D0002DE9F047054600790B4600EB400101EB75
:1031E000C000234901EB8004284600F043F810B1E9
:1031F0001120BDE8F0874FF00008C4F82080A360DC
:10320000626184F828804FF48E76474631462868FC
:10321000FFF7FEFC28684FF00109C0F8089021462E
:10322000286800F0CDFB606800BBD5F800A00EE078
:1032300094F8280008B10F2716E031465046FFF7F2
:10324000E2FC0028F4D02146504600F0B9FB216A88
:1032500060698142F1D331462868FFF7D4FC002829
:10326000F9D02868C0F80C90C4F814803846C0E73C
:103270007C030020007900EB400101EBC000044911
:1032800001EB80004069002800D001207047000059
:103290007C0300202DE9F047044600794FF0000937
:1032A00000EB400101EBC000254901EB80072068DD
:1032B000C0F80095786880B120682249C0F80813EA
:1032C00020680121000B40B200F01F02914040092C
:1032D000800000F1E020C0F880112068D0F80C25B3
:1032E000D0F81485D0F80865D0F810554FF0FF31AC
:1032F000C0F81415C0F80C152068C0F80815C0F8FF
:103300001015501C02D01046FFF72CF8B8F1FF3F03
:1033100002D04046FFF726F8681C02D02846FFF787
:1033200021F8701C02D03046FFF71CF82068FFF728
:10333000E7FD87F82A90C7F80490BDE8F087000001
:103340007C030020840202000149024800F048BCCE
:10335000A8030020002000402DE9F0410546164654
:1033600000790F46154A00EBC00102EB810494F886
:10337000201011B10820BDE8F081114951F820104A
:103380002868FFF7A5FD08B11120F4E73946284663
:10339000FDF761FC6660386920601EB1397F284600
:1033A000FEF72EFB28680821C0F800150020A06158
:1033B000E0610121606184F82010DCE7A8030020AF
:1033C000E83E00002DE9F04704460E46007920490A
:1033D00000EBC00001EB800517463046FFF770FD9B
:1033E00030B1204600F036F820B11120BDE8F0875A
:1033F0001020FBE76F61AE604FF4907600273146F6
:103400002068FFF716FC4FF4AC7841462068FFF7C0
:1034100010FC2068AA686969C0F84425C0F84815FE
:10342000206801218160686878B9B1464946206802
:10343000FFF7FAFB064641462068FFF7F5FB064317
:10344000F4D000B10F27002068613846CEE70000B5
:10345000A80300200079054900EBC00001EB8000C3
:103460004069002800D0012070470000A803002018
:103470002DE9F04704460079274900EBC00001EB35
:10348000800720684FF00009C0F80095786880B187
:1034900020682249C0F8081320680121000B40B2BF
:1034A00000F01F0291404009800000F1E020C0F8C8
:1034B00080112068D0F80C25D0F81485D0F8086564
:1034C000D0F810554FF0FF31C0F80C15C0F81415A6
:1034D0002068C0F80815C0F81015501C02D010461E
:1034E000FEF749FFB8F1FF3F02D04046FEF743FF29
:1034F000681C02D02846FEF73EFF701C02D0304602
:10350000FEF739FF2068FFF7FBFC87F82090C7F82B
:103510000490BDE8F0870000A8030020100302001B
:103520000449084490F93000082801DB0120704765
:1035300000207047F80200200449084490F9300048
:10354000082801D20120704700207047F8020020AF
:1035500010B50C46017A052908D0407A38B10848E0
:1035600008A102682046FEF793FD00E01AB106A10B
:103570002046FEF78DFD2046BDE81040FEF795BDC4
:1035800030010020257300000D0A000038B5C38803
:103590000D46044633B114A0009015A216A128468A
:1035A000FEF776FD217A05291CD0607A48B1A08803
:1035B000FFF77AF8164951F8202016A12846FEF7A1
:1035C00067FDA0880021FFF731FA03461049207AF1
:1035D000143951F8202001B02846BDE830400EA132
:1035E000FEF756BD38BD00001B5B306D00000000CB
:1035F0001B5B313B33316D0025734C6F6773206467
:10360000726F70706564202825642925730D0A0087
:1036100030010020257300003C25733E2025733ABD
:10362000200000000349884201D103487047002070
:1036300070470000002000409C00002070B501266B
:1036400070044FF0E0210025C1F88001084C4010C3
:10365000C4F84803C4F8080366602F20FFF726FB70
:10366000A660044C2F20A560FFF720FBA57070BD5D
:1036700000100140C800002070B5054688690C465E
:1036800000284FF4847128460AD0FFF7C1FAD5F814
:103690001805626AE1688854606A401C606270BD07
:1036A000FFF7B6FAD5F8180570BD1FB501238DF8E0
:1036B0000030CDE90121D0E90012684690471FBDD6
:1036C0001FB501238DF800308DF808100192D0E964
:1036D0000012684690471FBD70B50D4C0020D2B255
:1036E0002070201D0B4D0378EB5C1BB1001DFFF714
:1036F00069FE02E00C30FFF76BFD08B1FDF791F9B0
:103700006078002802D021780029FAD070BD00002E
:10371000E00000208000002070B5054602201E4613
:10372000144608714A71086870B18221600700D59B
:103730009221200701D541F02001E00601D521F0BA
:1037400080012868C0F800134FF482712868FFF7E1
:1037500045FA2006286801D5304470BD0121815109
:10376000002070BD2DE9F84F204D9246894606464F
:103770009846012269461846AF68FDF7FDFC58B32C
:10378000009800210446801C09E000BF00EA0703FE
:103790005AF8212005EB8303401C491CDA6041459F
:1037A000F4D34FEA164AFEF76BF84AEA0041601C70
:1037B000384005EB80003C4005EB8402C160D068D6
:1037C00066F3C50068F3891069F39F2020F00300B9
:1037D000401C20F00400D06095F8200402E000BFF7
:1037E000FEF788FF0028FBD1BDE8F88F18060020FF
:1037F0002DE9F84F1D4C00256846D4E901A6FEF7D7
:1038000049F8002738B30023009A61681CE0D1F81A
:1038100000C00846944503D9ACEB02020A6015E0EB
:10382000A2EB0C0263440760D0F80CC0C16981466A
:10383000BCF1000F08D006EB030828F07F48C0E970
:10384000018CC9F81C5005460029E0D1284661606A
:10385000FEF7B8F903E02846FEF7B4F910B1504678
:10386000FDF748FDE770BDE8F88F0000C8000020B4
:103870000D4B10B5596831B102680C68A24204D8EA
:10388000A21A0A60C161586010BD0B4603E00B46E6
:10389000C969121B21B10C689442F8D3A41A0C60B8
:1038A0000260C161D86110BDC80000202DE9F0415F
:1038B000144E77683D462C4603E0844204D02546EA
:1038C000E469002CF9D11BE0D4B1A5420BD1F86911
:1038D000706040B90C49012088600021B160F0702F
:1038E0002F20FFF7E3F92168E069E86110B1026871
:1038F000114401607068874202D00120BDE8F08168
:103900000020FBE7C800002000100140F8B5064683
:1039100000240D462046FDF74DF9684600F034FAC4
:1039200068B10570084946609DF8000048700020A5
:10393000FDF742F91420FCF79FFE2046F8BD042451
:103940000020FDF739F9F8E70C0400202DE9F041DB
:10395000194D6C68002C2CD0184800270068A96805
:10396000B846401A20F07F462068B0420CD8214665
:10397000361A0744E469087C20B181F81080886910
:1039800049698847002CEFD129786878814206D1AF
:10399000401CC0B26870022801D185F80180064839
:1039A00069780C3040F82170BDE8F0411420FCF734
:1039B00063BEBDE8F0810000C8000020041501408E
:1039C00070B50C4605464FF48E71FFF721F9216A58
:1039D000A068415C206A401C2062C5F81C1570BDBF
:1039E0001FB500228DF8002002918168019142618B
:1039F000D0E90012684690471FBD00001FB50A4677
:103A000001788DF8001041680191017A8DF8081055
:103A1000C0680390044850F82210083850F822205B
:103A2000684690471FBD00008C000020014901201E
:103A300008707047E000002010B588B004462022CE
:103A40000E496846FCF7AEFC06200090C01F0190AE
:103A5000029003904FF0EB7006900CB1084A00E022
:103A6000002269460748FEF7DFFA08B1FCF7D9FFE4
:103A70000448001F447008B010BD0000243F00003F
:103A80002D3A0000E40000202DE9FF470C460546D2
:103A90004FF40071FFF7C2F801274FF401780026B8
:103AA00018B34FF4927949462846FFF7ACF8E0B1D5
:103AB00049462846FFF7ACF8C5F8088394F8290072
:103AC00000B96F6002208DF80000D5F88004C5F8B9
:103AD00080040390A0690290E0680190A661E6610D
:103AE000D4E900126846904728E004212846FFF7F1
:103AF00095F818B34FF484712846FFF784F8E8B1BD
:103B000021462846FFF7B8FD616AA069884215D1B1
:103B1000E06938B1E268616AA0612069E6616662C5
:103B2000E06008E094F8290000B96F60C5F80883E8
:103B3000A661E268616A2046FFF7B7FD4FF48E7810
:103B400041462846FFF75FF878B1206A61698842EC
:103B500002D294F8280020B341462846FFF758F8CF
:103B6000616911B12046FFF73BFF4FF4A27841464F
:103B70002846FFF748F8002818D041462846FFF7A6
:103B800047F894F8290000B12F60A06900280DD0F3
:103B9000A661E268616A04B02046BDE8F047FFF71D
:103BA00084BD21462846FFF70BFFDEE7BDE8FF870F
:103BB0001FB50A4601788DF8001041680191017A1D
:103BC0008DF80810C0680390044850F82210083897
:103BD00050F82220684690471FBD00008C0000204E
:103BE0002DE9FF410C464FF4927705463946FFF721
:103BF0001BF80026C0B139462846FFF71AF8022004
:103C00008DF80000D5F88004C5F880040390D5F83D
:103C10003C058DF80800E0680190A661E661D4E9F2
:103C200000126846904723E04FF4887739462846CB
:103C3000FEF7FAFFE0B139462846FEF7FAFFD5F85D
:103C40003C15A069884213D1E06960B1E268D5F8FB
:103C5000000220F02000C5F80002E069A0612069A0
:103C6000E661E06001E0A661E2682046FFF728FD1A
:103C70004FF4A27739462846FEF7D6FF60B13946A1
:103C80002846FEF7D6FFA06930B1A661D5F83C15ED
:103C90002046E268FFF714FD4FF490773946284636
:103CA000FEF7C2FF002813D039462846FEF7C1FFB1
:103CB000606900280CD0D5F84C058DF800608DF8AF
:103CC0000800A06801906661D4E900126846904738
:103CD000BDE8FF812DE9F05F8346DDE90A4A994698
:103CE00090460D460846012703E000BFB0FBF8F000
:103CF0007F1C4045FAD2B94500D94F465FEACA70E9
:103D000012D18CB15FEA8A7002D5B9F1000F01D0EF
:103D1000202607E0302605E031465846641EFDF7B0
:103D20006FFA0CB1A742F7D35FF00106B9F1010FAA
:103D300002D9A9F1010903E0B5FBF6F0404502D331
:103D400006FB08F6F2E7DFF83C9000BFB5FBF6F0A3
:103D500000FB165519F800105846FDF751FAB6FB4E
:103D6000F8F6002EF2D15FEACA7009D0002C07D015
:103D7000A74205D220215846641EFDF741FAF5E717
:103D8000BDE8F09F063F00000A494A788B78521C34
:103D9000D2B2934200D100220B78934201D100208D
:103DA00070470270487800EB400001EBC000001D36
:103DB000704700000C0400201C00002004000000DC
:103DC00000000000000000008D8E908F07040000AE
:103DD000102702008D8E8F9007050000102700002D
:103DE0007C0100201900000001000000000000001C
:103DF0002400002006000000040000000000000075
:103E00008DFFFFFF07070000A861000030000020C1
:103E10000600000000000000040000000000000098
:103E200007000000000000003C0000200800000027
:103E30000100000000000000AE010020640000004E
:103E400000000000000000004C0000200200000004
:103E500095000000000000004C000020020000005F
:103E60003100000000000000AE01002064000000EE
:103E700002000000000000008D8F908E07070000F8
:103E8000093D02005000002010000000000000006A
:103E90000000000035140000F91400009515000022
:103EA00001160000791700000D0E0F100B0C1819E9
:103EB0007802002098020020C40200200B000300BA
:103EC000DD0D00000C000300DD0D000018000300F4
:103ED000DD0D000019000300DD0D000000000050A2
:103EE00000030050ED3000004933000003000000E3
:103EF000CC030020000000000000000000000000D3
:103F00000338FDD8704730313233343536373839DD
:103F100041424344454600009126000065260000CA
:103F20005D260000FFFFFFFFFFFFFFFFFFFFFFFF1A
:103F3000FFFFFFFF00000000000000000000D601AE
:103F400007010000004040404040404040404141A7
:103F5000414141404040404040404040404040405E
:103F600040404040400502020202020202020202F8
:103F700002020202022020202020202020202002F5
:103F80000202020202029090909090901010101085
:103F90001010101010101010101010101010101021
:103FA00002020202020288888888888808080808B5
:103FB0000808080808080808080808080808080881
:103FC0000202020240000000453F00007761726E6D
:103FD000696E670064656275670000001B5B313BBA
:103FE00033306D001B5B306D000000001B5B313B0C
:103FF00033316D001B5B313B33326D001B5B313B5A
:1040000033336D001B5B313B33346D001B5B313B45
:1040100033356D001B5B313B33366D001B5B313B31
:1040200033376D00696E666F000000006572726F55
:1040300072000000636C6F636B000000434C4F43E1
:104040004B0000004750494F544500005052530068
:1040500050574D00554152540000000055415254F4
:104060004500000062616C6C6F632E6C6F675F6D62
:10407000656D706F6F6C000061707000FC40000037
:10408000000000207C0100004004000054410000BA
:104090007C010020C42800005809000034400000C2
:1040A000000000003C400000000000004440000010
:1040B000000000004C4000000000000050400000E4
:1040C0000000000054400000000000005C400000C0
:1040D0000000000064400000000000037840000081
:1040E000000003030C010020040100200C0100204B
:1040F0005805002074010020180000005154C00130
:10410000404510024001E5200240025A8004890A1D
:10411000490E89162902891009200A0170122049C6
:10412000E459080326183F1A2C2E1ACC2C1A2408FE
:104130001AD4081AE4041ADC041AEC041AF4041A57
:10414000FC041A041C1A0C041A14042A1C5E04240D
:0441500090D0030008
:0400000500000201F4
:00000001FF
