:1000000000000420E1020000090300000B030000CF
:100010000D0300000F0300001103000000000000AA
:1000200000000000000000000000000013030000BA
:100030001503000000000000170300001903000072
:10004000A9270000E1AD0200B58F0200198D020062
:100050001B0300001B0300009D2B00001B0300007E
:100060001B0300001B0300001B0300001B03000018
:100070001B030000AD8A02001B0300001B030000ED
:100080001B030000BD1400001B0300001B03000045
:10009000811500001B0300001B0300001B03000070
:1000A0001B0300001B0300001B0300001B030000D8
:1000B0001B0300001B030000000000000000000004
:1000C0001B0300001B0300001B0300001B030000B8
:1000D0008D8102001B0300001B0300001B030000B6
:1000E0001B0300001B0300005DB2030000000000C2
:1000F000000000001B030000000000001B030000C4
:1001000000000000000000000000000000000000EF
:1001100000000000000000000000000000000000DF
:1001200000000000000000000000000000000000CF
:1001300000000000000000000000000000000000BF
:1001400000000000000000000000000000000000AF
:10015000000000000000000000000000000000009F
:10016000000000000000000000000000000000008F
:10017000000000000000000000000000000000007F
:10018000000000000000000000000000000000006F
:10019000000000000000000000000000000000005F
:1001A000000000000000000000000000000000004F
:1001B000000000000000000000000000000000003F
:1001C000000000000000000000000000000000002F
:1001D000000000000000000000000000000000001F
:1001E000000000000000000000000000000000000F
:1001F00000000000000000000000000000000000FF
:1002000010B5054C237833B9044B13B10448AFF350
:1002100000800123237010BD580200200000000060
:10022000006404000C4B43B10C480D4910B5AFF30A
:1002300000800C48036823B910BD0A48036833B92D
:100240007047094B002BF7D0BDE810401847064B0C
:10025000002BF5D0184700BF000000000064040028
:100260005C0200203C02002000000000154B002B27
:1002700008BF134B9D46A3F5803A00218B460F46DD
:100280001348144A121A3BF073FF0F4B002B00D097
:1002900098470E4B002B00D0984700200021040007
:1002A0000D000D48002802D00C48AFF300803BF051
:1002B000DBFE2000290003F09FFC3BF0AFFE00BFF7
:1002C0000000080000000420000000000000000002
:1002D0005802002064E5002000000000000000003B
:1002E0000649074A074B9B1A03DD043BC858D05008
:1002F000FBDC03F047FEFFF7B9FF00004C6404008D
:100300000000002058020020FEE7FEE7FEE7FEE7BF
:10031000FEE7FEE7FEE7FEE7FEE7FEE7074B1B5CB6
:100320001F2B8ABF064A4FF0A04203F01F03D2F8EA
:100330000405D840C04300F0010070473CDC0300D6
:1003400000030050074B1B5C1F2B86BF03F01F03ED
:1003500005494FF0A041012202FA03F3C1F80C3520
:10036000704700BF3CDC030000030050074B1B5CE0
:100370001F2B86BF03F01F0305494FF0A041012248
:1003800002FA03F3C1F80835704700BF3CDC0300F4
:10039000000300504FF0A04310B44FF480404FF4DE
:1003A00000544FF400414FF48032C3F80845C3F8BD
:1003B0000805C3F80815C3F808255DF8044B704715
:1003C0004FF0A04310B44FF480404FF400544FF46A
:1003D00000414FF48032C3F80C45C3F80C05C3F854
:1003E0000C15C3F80C255DF8044B70470A4B195CDB
:1003F0001F298ABF09484FF0A04001F01F01D0F823
:10040000043501228A4022EA03011340C0F808158E
:10041000C0F80C35704700BF3CDC030000030050FF
:100420000B2809D00C2809D0182809D019280CBF8E
:1004300003204FF0FF3070470020704701207047C5
:1004400002207047C20770B40ED483070AD54FF05C
:10045000A0430C22C3F82C27C3F83027C3F8602729
:10046000C3F8642770BC70474FF0A04303224FF4D9
:1004700000564FF480454FF400444FF48031C3F8E8
:100480003427C3F83827C3F83C27C3F84027C3F8FC
:100490000865C3F80855C3F80845C3F80815D4E73C
:1004A000704700BF00B583B0044B0093044A40235B
:1004B00000F036F803B05DF804FB00BFC50400008F
:1004C0007802002002B32DE9F843114B114E884603
:1004D000144643F0010903270025224608EB0501D5
:1004E000002003F0F5FB03461D444FF47A40E41A64
:1004F00023B9337833B1C847013F06D001233370A5
:10050000002CEAD1BDE8F88370473770BDE8F88366
:1005100040DC030074020020704700BF03F002BDFE
:10052000F0B595B0002415460F4608461E4601F06A
:1005300029FF384623460822089505A91A9D0996E1
:100540000D950A948DF82C400C9401F06FFF9DF8E6
:100550001430079806998DF8114003F00302012A20
:100560000290039128D0022A04D0384601F00EFFF1
:1005700015B0F0BDBDF81650C3F3C2038DF81030AE
:10058000C5F389150826082D2C4628BF08243346B4
:1005900022460EA9384601F049FF2D1B214608AB23
:1005A00002AA0EA8264400F079FC002DEBD13846B3
:1005B00001F0ECFE15B0F0BDBDF81460059DC6F36A
:1005C0008316C3F3C204B2000EA9384608238DF87F
:1005D0001040C5F3952501F029FF08AB0093324682
:1005E00028460EA902AB00F0B3FBBEE710B5054CE0
:1005F000FFF794FF2046042100F06AFB0123637299
:1006000010BD00BF00000020F0B5334D85B005F5EA
:10061000836001F0CBFA05F2144001F0C7FA6A6872
:10062000AF6802EA0701CB1C05EB8303541C187862
:1006300010F0030F00F003060ED010F0040016D0E7
:10064000012E37D0022E02F10200ECD15A8800EBC5
:10065000921202EA0701E6E74007F1D459881A88A6
:1006600004EB911404EB921202EA0701DBE705EBBD
:100670008101531CC96801913B4005EB830301F0E4
:100680000301DB680293012902F102041CD0022954
:1006900018D1BDF80630BDF80A60C3F389130333DF
:1006A00004EB93040D4801F08FFA00B16C60304602
:1006B00005B0F0BD1B880232C3F383131A4402EA6B
:1006C0000701B0E70646EDE7BDF80430BDF80A6063
:1006D000C3F383131C44E5E7880300209C07002034
:1006E00008B50E4B0E480022FF21C3F8182499606C
:1006F0001A605A60C3F8142483F8202401F0F8FD2E
:1007000058B9084A084BD21AD20806D007490346FE
:1007100021F8233001339A42FAD108BD8803002022
:100720002C6404002C6404000464040040020020D3
:1007300021B9124A02EBC0000068704730B410497A
:100740000E4D491BC9080ED00E4B5A88824218BF65
:10075000002205D10FE0DC88844203F1040305D0B8
:1007600001329142F7D1002030BC704705EBC20046
:10077000006830BC70472846FAE700BF04640400F4
:100780002C64040040020020094B013903EBC00037
:1007900003290BD8DFE801F00208060402207047A5
:1007A00040797047007970470420704700207047F7
:1007B000046404002DE9F0478E4C94E80C009A4242
:1007C00084B061D00023C4F81834BFF34F8F63683E
:1007D000A56827680EE011F0040623D001F003019C
:1007E00001294BD0022903D15288023303EB921323
:1007F0009F4212D903EA0500C21C04EB8202117861
:100800008E07E8D14807E9D451881288013303EBF9
:10081000911303EB92139F42ECD80020676004B061
:10082000BDE8F08704EB80005A1CC16801912A40A2
:1008300004EB820201F00301D2680292022903F163
:10084000020825D0012972D0D4F8105435B12B6894
:1008500028469B6898476D68002DF8D1664B67491C
:100860001888000440F0020000F0CEF860682368A9
:10087000C01A18BF012004B0BDE8F0871288023307
:10088000C2F383121344B3E7002004B0BDE8F0873D
:10089000BDF806305A48C3F38919B9F1500FCA465A
:1008A000A8BF4FF0500A6AF38F130AF10801ADF8A0
:1008B000063001F01FFD07460028C5D001F062FD9B
:1008C000334625EA08060136082201A93846B60053
:1008D00001F07EFDB2457FD9002E68D15246082333
:1008E0004849384601F074FD09F1030608EB960605
:1008F000D4F81834002B56D1D4F810544DB16B7A7B
:100900003946284613B12B681B6898476D68002D3F
:10091000F5D1384601F03AFD002001F00DF9D4F888
:10092000183403B96660002001F00EF99EE7BDF8A7
:1009300004303348C3F38312062A28BF0622911CD1
:1009400062F389138900ADF8043001F0D3FC074647
:1009500000283FF479AF01F015FD3346082201A9C4
:10096000384601F035FDBDF8043013F4707F3ED0F9
:10097000B2464FF0080905EA080103314B4604EB83
:1009800081010422384601F023FDBDF804300AF14C
:10099000010AC3F3831308F10106534509F1040961
:1009A000B046E8D8A4E7384601F0F0FC5EE705EA77
:1009B00008010331AAEB060504EB810132463846F3
:1009C000EDB2082301F004FD2A4606F108030D49A3
:1009D000384601F0FDFC87E705EA0801033104EB26
:1009E000810152460823384601F0F2FC7CE7464676
:1009F0007EE700BF880300204802002054DC03008B
:100A00002C640400940300202DE9F843DFF8D8900B
:100A1000074600208846D9F8085001F08DF8D9F82B
:100A20000820D9F80430D9F80060134401339B1B27
:100A3000012B55D809F21C440121204601F09AF8F7
:100A4000FFF7E2FD0146204601F094F899E80A001C
:100A5000D9F80820134401335B1A012BECD9012487
:100A60000A40033244F004036FF3891349F822303B
:100A700002310020C9F8001001F066F80021194881
:100A800001F06CF880F3100033192B4009EB83035D
:100A900000043540033540EA1740D86019F8253086
:100AA00067F3C50309F8253039F825306FF389134A
:100AB00029F8253059F8252068F39F22134664F35E
:100AC00001036FF3820349F8252009F8253099F8CE
:100AD00020341BB1FFF76EFE0028FBD1BDE8F88380
:100AE0003146BCE7A4070020880300202DE9F04729
:100AF000354C8046002092468946A56801F01CF8D6
:100B0000A2686368276813440133DB1B022B59D8A2
:100B100004F21C460121304601F02CF8FFF774FD69
:100B20000146304601F026F894E80A00A268134412
:100B300001335B1A022BEDD901260A40033246F03D
:100B4000040366F3891344F8223003310020216046
:100B500000F0FAFFBB1C2B4004EB830300211B4871
:100B6000C3F80CA000F0FAFF80F31000BB192B4073
:100B700004EB830300043D40033540EA1840D8608D
:100B800014F8253068F3C50304F8253034F825300F
:100B900066F3891324F8253054F8252069F39F2241
:100BA000134666F301036FF3820344F8252004F82B
:100BB000253094F820341BB1FFF7FCFD0028FBD151
:100BC000BDE8F0873946B7E788030020A407002076
:100BD0002DE9F04F3C4C83B08046002093460193B2
:100BE0008946A66800F0A8FFA268636827681344D6
:100BF0000133DB1B032B64D804F21C45012128467A
:100C000000F0B8FFFFF700FD0146284600F0B2FFF4
:100C100094E80A00A268134401335B1A032BEDD950
:100C200001250A4003324FF0020A45F00403043163
:100C30006AF38913002044F82230216000F084FF19
:100C400007EB0A0EFA1C0EEA060E324004EB820293
:100C500004EB8E0E019B1D48CEF80CB00021D36032
:100C600000F07CFF80F310007A19324004EB82021E
:100C700000043E40033640EA1840D06014F82620B5
:100C800068F3C50204F8262034F826206AF3891296
:100C900024F8262054F8262069F39F22134665F392
:100CA00001036FF3820344F8262004F8263094F8F9
:100CB00020341BB1FFF77EFD0028FBD103B0BDE857
:100CC000F08F3946ACE700BF88030020A40700205E
:100CD00030B4144DD5F81044002154B1237A8B421E
:100CE00013D0234602E01A7A8A420ED05B68002BAA
:100CF000F9D10172D5F810347BB15B684360D5F847
:100D000010345860084630BC704701310A29E4D1DC
:100D10004FF0FF31084630BC7047C5F810044360FF
:100D2000F0E700BF8803002038B5084BD3F8104423
:100D3000012583F820543CB12368657220465B6826
:100D400098476468002CF7D138BD00BF88030020A5
:100D50002DE9F04784B01D460C9C002394F80C80CC
:100D60002373EB8881460E461746002B3BD1297A28
:100D700005290FD06B7A002B3DD1404BA88853F842
:100D800021A00021FFF7D4FC524603463C492046EF
:100D900000F08CFF062F0FD8DFE807F0484D535ABC
:100DA00004633900F168B06896E80C000191009086
:100DB0004946204600F07AFF2B7A052B05D06B7A46
:100DC0005BB93049204600F071FF204600F062FF19
:100DD00084F80C8004B0BDE8F0872B4A2B492046EC
:100DE00000F064FFEDE7284A00922949294A20468D
:100DF00000F05CFFBBE7A888FFF7C6FC264B234941
:100E000053F82020204600F051FF297AB5E7706999
:100E1000316996E80C000390B068F76802918DE89C
:100E200081004946204600F041FFC5E7494620467B
:100E300000F03CFFC0E732684946204600F036FF2C
:100E4000BAE7494696E80C00204600F02FFFB3E7CA
:100E5000B16896E80C0020460091494600F026FF54
:100E6000AAE7B068F768316996E80C0002918DE84E
:100E700081004946204600F019FF9DE7ECDC0300A5
:100E8000E0DC0300883F0400D8DC030050DE0300F0
:100E9000C0DC0300B8DC030080DC0300082900D9B3
:100EA00070472DE9F04F1D46904600232A7B2B7397
:100EB00085B0B8F80630039207460E46002B6BD17A
:100EC00098F80810052911D098F80930002B6BD13B
:100ED0003C4BB8F8040053F821400021FFF728FCF0
:100EE000224603463849284600F0E0FEDFF8F8B015
:100EF000DFF8F8900024A642494628463ED93A5DDC
:100F0000013400F0D3FE082CF5D13049DFF8E09031
:100F1000DFF8E0B0284600F0C9FE002411E017F821
:100F200004A03BF0C9F850445946437813F0970F9A
:100F300014BF52462E222846013400F0B7FE082C7A
:100F400008D0A64249462846E9D8013400F0AEFE52
:100F5000082CF6D198F80830052B02D098F8093003
:100F6000A3B91B49284600F0A1FE284600F092FED6
:100F70009DF80C302B7305B0BDE8F08F0134594655
:100F8000284600F093FE082CB5D1BEE7114A12495D
:100F9000284600F08BFEE4E70E4A00920F49104A03
:100FA000284600F083FE8BE7B8F80400FFF7ECFB5F
:100FB0000C4B094953F82020284600F077FE98F89A
:100FC000081085E7ECDC0300E0DC0300B0DC030084
:100FD000883F0400D8DC030050DE0300C0DC0300BF
:100FE000B8DC030080DC0300ACDC0300A4DC0300FD
:100FF000E8DC0300B4DC0300434B1978002900F05F
:1010000081802DE9F04F8C4687B00024012503E054
:101010000134E4B2644560D23C4B27B21E6816F836
:1010200037E0AEF1200305FA03F9394BCEF1200188
:10103000D3E9002325FA01F149EA010905FA0EF87E
:1010400008EA020009EA0301014306EBC70BDFD0FF
:101050002F4922EA080223EA09037046C1E9002366
:1010600001F08CFD16F837E0AEF1200205FA02F22D
:1010700001920199CEF12003C6B225FA03F3AEF135
:101080002002194306FA02F30393224B0191D3E99C
:101090000023CDE9042305FA0EF30093CEF12001DD
:1010A000039B26FA01F10B43039306FA0EF3029316
:1010B000DDE90467DDE9002316401F4032463B4668
:1010C000DDE90267BB4208BFB24209D00E4B0134D2
:1010D00093F800C0E4B264459ED307B0BDE8F08F3A
:1010E000DBF80430002BF1D09BF80110A1F10101D5
:1010F000B1FA81F14909091AB1FA81F14909704639
:101100009847E3E7704700BFAC070020E8070020DE
:10111000E0070020D80700202DE9F84306462048C4
:1011200000F0D4FCD0B91F4F0123A6F1200103FA2F
:1011300001F5C6F12002D7E9000123FA02F21543B6
:1011400003FA06F404EA000205EA0103134307D098
:1011500020EA040421EA0505C7E90045BDE8F88353
:10116000304601F00BFD104ED6E9008998B148EAEF
:10117000040849EA0509D7E9002314431D43C6E9D9
:101180000089C7E90045094B054819680022BDE8F8
:10119000F84300F04BBC28EA040829EA0509EAE70D
:1011A000B4070020E0070020D8070020B007002087
:1011B000042A01D8072070472DE9F04182B00F467C
:1011C0000546164601F072FB002834D01C4C1D4A1F
:1011D0001D4B1E481E49256017707C1E00221E6094
:1011E0000023C0E90023C1E90023E4B2EFB1DFF836
:1011F0006C800027032601E0FF2C16D023B205EBFC
:10120000C30215F8330093788DF80670424601A9A1
:101210008DF804608DF8053001F052FB013CE4B21A
:101220000028E9D002B0BDE8F0810A4A0A4800214E
:1012300000F0EAFBF6E701F0E7FA0028C6D0F1E794
:10124000E8070020AC070020B0070020D8070020E6
:10125000E0070020F90F000058DD0300191100001D
:1012600070B5084D2B785BB1074E0024336801211F
:1012700013F8340001F006FC2B780134A342F5D8B2
:10128000002070BDAC070020E807002000B585B045
:1012900000230390194601AA44F20100019302932E
:1012A00000F004F805B05DF804FB00BF10B572B69D
:1012B000FFF73AFDFFF77EFA0028FBD1104C1149E9
:1012C0002088000440F00100FFF79EFB0E4B1B68D6
:1012D000DB0700D500BE20880C49000440F0020066
:1012E000FFF792FBBFF34F8F09490A4BCA6802F41C
:1012F000E0621343CB60BFF34F8F00BFFDE700BF39
:10130000480200205CDD0300F0ED00E068DD030032
:1013100000ED00E00400FA0512F0030301D00720FD
:101320007047F0B4094D0A4F2B700A4D3A604C1CBF
:101330002B70094F094D0A4E3880E400A4B22244B4
:10134000298032601846F0BC704700BFEC070020CF
:10135000F4070020FC070020F8070020FA0700200F
:10136000F00700202DE9F047294D2B888B4202D24F
:101370000920BDE8F0870646002017460C4600F01D
:10138000DBFB244B244A2548197813780088DBB20C
:10139000834238BF0133C9B234BFDBB20023994264
:1013A0001FD092F800801378DFF87890DBB2984273
:1013B00086BF0133DBB200235FFA88F80020137088
:1013C00000F0C2FBD9F800300FFA88F24FEAC20AE7
:1013D00043F83270534406B14CB900209880BDE800
:1013E000F087002000F0B0FB0420BDE8F0870C4B34
:1013F00028881B68314608FB003022463AF093FEED
:10140000D9F800309A440020AAF80440BDE8F087DB
:10141000F8070020FC070020EC070020FA07002056
:10142000F0070020F40700202DE9F047174C184D75
:1014300022782B789A4226D0DFF85C90DFF85C8027
:10144000144FDFF85CA02378D9F800203888D8F84A
:101450000060DBB20FFA83FC02EBCC0103FB0060FF
:10146000898852F83C3098472378BAF80020DBB2DC
:101470009A4203F101038CBFDBB200232370227870
:101480002B789A42DFD1BDE8F08700BFFC0700202F
:10149000EC070020F8070020F4070020F0070020E8
:1014A000FA070020082910B5044602D00020FFF7F3
:1014B000EDFE23686068BDE8104018472DE9F04153
:1014C000274A284B0025C2F84051C2F84451C2F8BF
:1014D0004851C2F84C51C2F80051C2F804511B687F
:1014E00082B023B32049D2F804450A68DFF88C8023
:1014F000A41A1A6824F07F44A2422F4609D8197C06
:10150000DE69A41A1544A9B91EB133461A68A2426D
:10151000F5D91649164A0B7812789A4219D015490E
:10152000154A41F823504FF48013C2F8003102B03D
:10153000BDE8F0819A691F7401925B69009342468D
:1015400008216846FFF70EFF0028DDD0FFF79EFE5A
:10155000DAE7531CDBB2022B08BF00230B70DEE777
:1015600000100140200900201C090020190900205A
:10157000180900201009002000E100E0A514000077
:101580002DE9F04FB74AB84913780978994285B0E8
:1015900033D00133DBB2022B08BF0023B3481370F2
:1015A000B34A0768DFF8E08252F82320D8F8001029
:1015B000BB18002423F07F43036025462046A6463F
:1015C000A9B10B68934200F27D81CC68C1F800E0BC
:1015D000D21A1844CB6934B13E1826F07F46CD614B
:1015E0008C604E600D46194601240029E9D1002C7B
:1015F00040F0A5814FF0010B05E0DFF88C8200255B
:10160000D8F80010AB469B4B9B4FDFF8809243F01D
:10161000010300930E464FF0000A002D2DD0D5F89F
:1016200004E0D5F808C02C46ED69904B93481B6840
:10163000AEEB030222F07F42824255D802EB0C034C
:101640002360002201206260A260E2612074002E0B
:101650006BD03068834261D9B64603E01068984287
:101660004CD29646DEF81C201B1A002AF6D12360C5
:10167000E261CEF81C40002DD1D197F801C097F857
:1016800000E0F44571D0734603EB43030EF1010013
:10169000BA7807EBC3035FFA80FE7245187987F8C2
:1016A00000E004BF4FF0000E87F800E002289A68BF
:1016B0004CD003283DD00128E3D1107C0028E0D194
:1016C000D3F80CE0C2F804E0D3F810C0C2F808C0A8
:1016D00014465A69E26099F800209B69A361002AC8
:1016E000A3D060608646A0E7A3EB0E0323F07F4300
:1016F00063450AD2ACEB03032360A2E7C01A106073
:101700002360E261CEF81C40B5E70023012223608C
:101710006360A360E36122743EB13068C8F80040A2
:10172000C31A3360E661264677E7C8F800402646CC
:1017300073E7002EA5D0002200E01E46F369327444
:10174000002BFAD1C8F800301E4696E74EB1B242DF
:10175000344603D1BDE09A4260D01C46E369002BB9
:10176000F9D100231374F4458DD1BAF1000F02D1E1
:101770008E4200F09D80002E00F0C5803B4B404A19
:101780001C68D2F80475DFF80881D6F800A098F834
:1017900000103B1B23F07F43DD1CA9B93949354BB1
:1017A0004FF48030C2F844030126C2F804034FF41A
:1017B0000030C1F8800143F00103086016604FF467
:1017C0003C60984788F80060AA452CBF04EB0A03E8
:1017D00063192B4923F07F43C1F84035D1F8042524
:1017E000D21BDB1B22F07F4223F07F4303329A425D
:1017F0000ED9204BD1F80425C1F8402543F0010350
:101800004FF43C6098471F4B4FF40032C3F800215F
:10181000002389F8003005B0BDE8F08FA24239D02E
:10182000D2F81CE01368C4F81CE0BEF1000F11D020
:101830003046DEF800402344CEF80030864209D01E
:10184000002397F800E097F801C0137406464FF0A4
:10185000010A88E7002397F800E097F801C01374A5
:1018600081E700BF18090020190900201C09002089
:101870001009002080DD030000080020FEFF7F002B
:101880000010014000E100E0200900200C090020C8
:101890000D0900201346F069C8F80000D8B1D3F84C
:1018A0001CE01B68C4F81CE0BEF1000FC1D1C5E705
:1018B000BBF1000F7FF45FAF002389F8003005B063
:1018C000BDE8F08F002C3DD19B1A0B604FF0010B4F
:1018D00099E63346DFE701931C4BDFF87CC00392A7
:1018E0004FF0010E0291C3F808E0009BCCF8000015
:1018F00089F800E04FF43C609847D8F80000019B5D
:101900000299039ACBE7114D114A124C4FF48033E0
:101910004FF400310127C2F880103C43C5F848332A
:101920004FF43C60C5F808336F60A0470A4BAF60C6
:101930004FF43C601E60A047084B1E7068E7C8F873
:10194000001057E6C8F80010BEE700BF00100140C5
:1019500000E100E080DD03001C0900200D090020EB
:101960002DE9F8431F4D204E204FDFF898804FF4AB
:1019700080334FF400324FF001090024C6F8802074
:1019800047EA0907C5F848334FF43C60C5F8083307
:10199000C5F80490B847C5F808904FF43C60C8F803
:1019A0000040B847124B13481349144A1C70144B9B
:1019B00004600C7014704FF48011E0220B209870BA
:1019C0001C705C70C6F8801186F814233160C5F86D
:1019D000084586F81123D5F80435C8F800302046AC
:1019E000BDE8F8830010014000E100E080DD030065
:1019F0000D090020200900201809002019090020E5
:101A0000000800201C090020074B9B780BB9082018
:101A100070473AB130B10368187C0028F7D1597487
:101A20005A61704707207047000800202DE9F041F7
:101A3000234CA37813B90820BDE8F0810028FAD020
:101A4000042902D80720BDE8F0814369002BF2D0B9
:101A5000437C0546012B4FF000000CBF88468046B2
:101A600017460E4600F068F86378A07821785A1C73
:101A7000D2B2904208BF002291421AD003EB430336
:101A800004EBC30301200F499D601871D1F80415C0
:101A9000D9601E61C3F814809F610020627000F05D
:101AA00053F8094B4FF48012C3F800210020BDE821
:101AB000F081002000F048F80420BDE8F08100BF6C
:101AC000000800200010014000E100E070B5184D52
:101AD000AB780BB9082070BD0028FBD04369002B00
:101AE000F8D0002404740646204600F025F86A78F1
:101AF000A8782978531CDBB2984208BF2346994244
:101B000011D002EB420205EBC20202212046966090
:101B100011716B7000F018F8064B4FF48012C3F887
:101B20000021204670BD204600F00EF8042070BD54
:101B30000008002000E100E072B6024A1368013399
:101B40001360704724090020034A1368013B1360A7
:101B500003B962B6704700BF2409002000B550E801
:101B6000002F0B4640E8003E9EF0000FF7D11046D4
:101B70005DF804FB00B550E8003F03EB010240E8CC
:101B8000002E9EF0000FF6D110465DF804FB00BF5A
:101B900000B550E8003FA3EB010240E8002E9EF0A4
:101BA000000FF6D110465DF804FB00BF00B501231D
:101BB00050E8002F42EA030E40E800E191F0000FE8
:101BC000F6D170465DF804FB00B5002350E800EF45
:101BD0000EEA030240E8002191F0000FF6D17046B2
:101BE0005DF804FBB8B130B4416882680468521AE9
:101BF000D2B2531E2160DBB242B101680A685C1E9A
:101C0000551C0D601370E3B2FF2BF6D10368002062
:101C1000187130BC70470E20704700BF70B5044685
:101C20000020FFF789FF236861681A688A4215D986
:101C3000511E19602168A3680D680879A68A12F8F8
:101C4000012CE4685B1BDBB2984206FB024400D225
:101C50000B710020FFF778FF204670BD00240020A4
:101C6000FFF772FF204670BD38B5054600200C46D0
:101C7000FFF762FF2A681368591C1160E968AA8A95
:101C8000641AB4FBF2F41C700020BDE83840FFF782
:101C90005BBF00BF826802B9704710B50446436954
:101CA0000168006998470023A36010BD0EB400B519
:101CB00082B0039929B102AA04AB42F8043D00F0B6
:101CC00095F802B05DF804EB03B070472DE9F84FCA
:101CD0001746B942884606461D46DDF828B00B9ADD
:101CE0007DD30B464FF00109B3FBF7F39F4209F197
:101CF0000109F9D9A94538BFA94612F0010A02D154
:101D0000BBF1000F49D1B268012402E0013D07FB9D
:101D100004F4012DFAD8B8FBF4F18F42F7D9324D13
:101D200005E0B4FBF7F4A4B1B8FBF4F1B268685C69
:101D3000531CB36033689854B26873689A4204FBCA
:101D40001188EED33046FFF7A5FFB4FBF7F4002C63
:101D5000EAD1BAF1000F16D0BBF1000F33D0CB455A
:101D600088BF20243ED9B3683268591CB160D4546E
:101D7000B26873689A420BF1FF3B06D2BBF1000FC9
:101D800009D0D945EFD1BDE8F88F3046FFF782FF83
:101D9000BBF1000FF5D1BDE8F88F93071AD42024CA
:101DA000CB45B0D9B2683368511CB1609C54B2685D
:101DB00073689A420BF1FF3B07D2BBF1000FA3D02F
:101DC000CB45F0D1A0E7BDE8F88F3046FFF762FFC2
:101DD000B268F2E7002D0CBF30242024E0E74FF07A
:101DE000010987E7BDE8F88F88DD0300002900F0CE
:101DF0006F822DE9F04F064685B093460C460B786E
:101E00000DE0B2683168501CB0608B54B2687368E2
:101E10009A4280F0D3802378002B00F0BA800134FE
:101E2000002B00F0B680252BEBD14FF000082346A5
:101E300014F8012B2D2A00F0BB80302A00F0BB8063
:101E40002B2A00F0AD802A2A00F0BC80A2F13005D8
:101E5000E9B2092998BF013302D9A9E1A1F13005FE
:101E60001C4613F8012BA2F1300005EB850109286F
:101E700002EB4101F2D92E2A00F0B080002701E0E8
:101E800014F8012F02F0FB03682BF9D0253A532AEE
:101E90007AD8DFE812F07A017900790079007900C8
:101EA000790079007900790079007900790079006A
:101EB000790079007900790079007900790079005A
:101EC000790079007900790079007900790079004A
:101ED000790079007900790079007900790079003A
:101EE000790079007900790079007900790079002A
:101EF0007900790079007900790079006A01790028
:101F00007900790079007900790079007900790009
:101F100079005501FC007900790079007900FC0016
:101F2000790079007900790079007900540079000E
:101F30007900CA007900BA00790079006A01DBF8FB
:101F40000020131DCBF80030B368156831685A1CA7
:101F5000B2604FF03002CA54B3687268934280F0A6
:101F6000A0813268581C7821B060D154B26873687F
:101F70009A4280F092810022082301922946009320
:101F800010223046FFF7A2FE01342378002B7FF4A5
:101F900046AF337B002B40F0058105B0BDE8F08FE4
:101FA000234614F8012B2D2A48F004087FF445AF8E
:101FB00048F001083BE748F0020838E73046FFF7F1
:101FC00069FE28E7DBF80020111DCBF8001015682A
:101FD0005A782E2A03F101047FF450AF6278A2F1FF
:101FE0003003092B04F101044FF000073FF64AAF1C
:101FF00007EB870702EB470714F8012FA2F1300324
:10200000092BA7F13007F3D93CE7DBF800301A1DA4
:10201000CBF800201968CDF804803B4600950A22D1
:102020003046FFF753FE0134AFE7DBF800301A1DEE
:10203000CBF8002018F0010FD3F8009040F0BB80DF
:10204000B9F1000F00F0478148463AF0F6FC074628
:10205000BD4240F2F180002D00F0EE804FF02008EC
:1020600005E0BD4200F0E880002D00F0E580B36897
:102070003268591CB16002F80380B26873689A42F2
:1020800005F1FF35EDD33046FFF704FEE9E7DBF855
:1020900000301A1DCBF80020D3F8009089EAE973CC
:1020A000A3EBE973092B4FF0010A09DD8F4A82FB8C
:1020B0000312DB17C3EBA203092B0AF1010AF5DCBB
:1020C000BA4538BFBA462DB3B9F1000F02DB18F09C
:1020D000040F00D0013D18F0020F40F0F58018F019
:1020E000010F17D1002D00F0FE80AA4538BF202136
:1020F00010D2B2683368501CB0609954B2687368EB
:102100009A4205F1FF3580F0E880002D00F0EB8069
:10211000AA45EED1B9F1000FC0F2C88018F0040F43
:102120007BD108F00303022B00F09A808DE8200198
:102130003B4649460A223046FFF7C8FD013424E7F2
:10214000DBF80020131DCBF80030B368316812783B
:10215000581CB060CA54B26873689A42FFF414AF56
:102160003046FFF797FD01340FE7DBF800301A1D0A
:10217000CBF800201968CDF804803B46009510226A
:102180003046FFF7A3FD0134FFE6B3683268591CFF
:10219000B1604FF02501D154B26873689A42DFD222
:1021A0000134F2E6304605B0BDE8F04FFFF772BDEE
:1021B0001C4600255FE64F46A7EB090817F8013BD0
:1021C0008BB1B2683168501CB0608B54B2687368D0
:1021D0009A42F1D33046FFF75DFDA7EB090817F8E7
:1021E000013B002BEDD145457FF6CEAE202705E023
:1021F00045453FF4C9AE002D3FF4C6AEB368326822
:10220000591CB160D754B26873689A4205F1FF3522
:10221000EED33046FFF73EFDEAE7B2683368501C64
:102220002B21B0609954B26873689A42FFF479AF79
:102230003046FFF72FFD74E709F1FF3919F8013F28
:10224000002B3FF4A1AEB2683168501CB0608B54D3
:10225000B26873689A42F1D33046FFF71BFDEDE791
:10226000002F7FF463AF002D33D0AA45BFF45EAFDB
:10227000B2683368511CB1604FF030019954B268B4
:1022800073689A4205F1FF3503D215B3AA45EFD121
:102290004CE73046FFF7FEFCF7E73046FFF7FAFC65
:1022A00069E63046FFF7F6FCB3685AE6B268336871
:1022B000501C2D21B0609954B26873689A42C9F1DC
:1022C0000009FFF42EAFB3E7002F3FF423AF06E77A
:1022D000704700252AE74F46BAE630460391FFF7DC
:1022E000D9FC039911E7002514E700BF676666660D
:1022F000FFF778BC2DE9F041B0F81480CF1CA8F1AD
:10230000040847440646B7FBF8F7FFF787FC80B39D
:10231000FFB200250123013F0446A0F806800660B5
:102320000571437128D0804609E06379AF4203F11B
:1023300001036371C8F80000066080461CD0304677
:10234000FFF76CFC01350028EFD16679721E16D0BC
:102350002346013082421B68FBD81F684EB12146DC
:1023600000250C6801353846FFF77EFCAE42214659
:10237000F7D10020BDE8F0812046BDE8F081276854
:10238000EDE700BF04300121FFF7F4BBF8B50121F0
:1023900004460430FFF7FCFBC0B200B1F8BD66791B
:1023A000721E12D02346013082421B68FBD81F6880
:1023B000002EF3D0214600240D6801343846FFF783
:1023C00053FCA6422946F7D1F8BD2768F2E700BFC3
:1023D0002DE9F843C68804330F46B3FBF6F5904663
:1023E00006FB1533044615B1013D2468FCD1F51AEE
:1023F000454528BF4546B8F1000F15D04FF00009FC
:102400000433E018A8EB05082A4607EB090139F068
:102410008AFE4645A944246835464FF0000328BF8C
:102420004546B8F1000FEBD1BDE8F8832DE9F8433C
:10243000C68804330F46B3FBF6F5904606FB15310C
:10244000044615B1013D2468FCD1751A454528BFE5
:102450004546B8F1000F15D04FF000090431214472
:10246000A8EB05082A4607EB090039F05CFE464553
:10247000A944246835464FF0000128BF4546B8F10D
:10248000000FEBD1BDE8F88310B568B101280AD17F
:102490000C4C2369A07033B10CCB0120226198470A
:1024A0002369002BF8D110BD064CA368012262708D
:1024B000002BF8D00CCB0020A2609847A368002B1B
:1024C000F8D110BD2809002010B50B4C237882B03C
:1024D00013B1852002B010BD08486360A36023617A
:1024E000E36000F0F5F8019000F000F90198012395
:1024F000237002B010BD00BF28090020892400000D
:1025000038B5154DAB78044673B110B1436801205E
:1025100098470020FFF710FBEB680133EB600020C9
:10252000BDE83840FFF710BB03F0FF00FFF704FBE6
:1025300064B12A6942B1944208D0134601E09C423A
:1025400004D01B68002BFAD122602C61EB68002BB1
:10255000E2D100F0DFF8DFE72809002038B5084CA9
:102560000020FFF7E9FAE368013BE360E56815B98D
:1025700000F0E8F8A5700020BDE83840FFF7E4BAA5
:10258000280900204FF08043D3F81804C0F300401E
:10259000704700BF38B5154D6B78044673B110B164
:1025A0004368002098470020FFF7C6FA6B680133A4
:1025B0006B600020BDE83840FFF7C6BA03F0FF00AB
:1025C000FFF7BAFA64B1AA6842B1944208D0134640
:1025D00001E09C4204D01B68002BFAD12260AC6061
:1025E0006B68002BE2D100F0B9F8DFE72809002082
:1025F00038B5084C0020FFF79FFA6368013B636021
:10260000656815B900F0BCF865700020BDE8384079
:10261000FFF79ABA280900204FF08043D3F80C0442
:1026200000F00110A0F10110B0FA80F040097047ED
:102630000A4A0223C2F80435BFF36F8FBFF34F8FEE
:10264000C2F80805D2F80034002BFBD00023C2F8F2
:102650000435BFF36F8FBFF34F8F704700E0014029
:102660009AB32DE9F047194CA0EB01080D468E18DE
:10267000C0004FF0FF0C4FF0010E002708EB0502E1
:1026800022F0030200F01809116815F8013BC4F8A4
:1026900004E50CFA09FA21EA0A01BFF36F8FBFF3D0
:1026A0004F8F03FA09F30B441360D4F80034002B66
:1026B000FBD0C4F80475BFF36F8FBFF34F8FAE42EA
:1026C00000F10800DAD1BDE8F087704700E0014072
:1026D000054A13790BB185207047012110605371B1
:1026E00018461171704700BF3C090020084B1A685A
:1026F000D20706D40122E02183F80013C3F8802119
:102700001A604FF080430122C3F81825704700BFBC
:1027100000E100E010B4094B094A0021196083B0C0
:102720001B680193019C4FF0804102200123C1F8F6
:102730000403136003B05DF8044B704704010040CC
:1027400008000040044B01221A604FF08042D2F88A
:102750001834DB03FBD470470C000040074B002209
:102760001A6082B01B68019301994FF080430122E7
:10277000C3F804231A6002B0704700BF0001004094
:10278000074B01221A604FF08042D2F80C3403F05C
:102790000113B3F1011FF8D0024B00225A717047A8
:1027A000040000403C09002010B5144B1A6882B0A8
:1027B00062B10021124A19601B68507900934FF0F2
:1027C00080410123009CC1F8083390B10D4B1A6879
:1027D0006AB100221A601B6801934FF08042022107
:1027E000074B0198C2F808131B680120984702B0F4
:1027F00010BD116853718847E8E700BF0001004031
:102800003C0900200401004070B5244C94F86A5043
:1028100082B015B1082002B070BD4FF0FF332946D9
:10282000FF26062204F1640023636363A363E3636A
:1028300023646364A364E36423656365A365E3655C
:1028400023606360A360E36023616361A361E3616C
:10285000236284F860306362A36284F86230E362CA
:1028600084F8633084F8616039F082FC0C4B0D4AC7
:102870000D4E15604021E02083F80603C3F8801157
:1028800019601368019301994FF000430122284613
:1028900084F86A20C6F8043302B070BD44090020F1
:1028A00000E100E07C61004000600040034B93F8D1
:1028B0006A00003018BF0120704700BF44090020A3
:1028C000F0B56D4C231893F93050002D01DB082032
:1028D000F0BD91F802E0CEF3400EBEF1000F50D0F3
:1028E0002568013500F0C2800125082654F82530FE
:1028F00001334CD06B1C54F82370013748D0AB1C0B
:10290000B3423CD254F82370013741D0EB1CB342A0
:1029100035D254F8237001373AD02B1DB3422ED252
:1029200054F82370013733D06B1DB34227D254F8CB
:10293000237001372CD0AB1DB34220D254F8237042
:10294000013725D0EB1DB34219D254F8237001375B
:102950001ED005F10803B34211D254F82370013799
:1029600016D005F10903B34209D254F82370013798
:102970000ED00A35B54202D2E36A013374D0042086
:10298000F0BD256A01353AD009250C26AEE72B4665
:1029900026185DB244F8232086F83050BEF1000FAF
:1029A00033D08B785A071CD4DE074ED51F2887BF3B
:1029B000324B00F01F0202464FF0A04303EB8203AC
:1029C000D3F8002722F00202C3F800272C4EC208D9
:1029D00000F0070EB75C012303FA0EF33B43B35438
:1029E0008B7813F0020314D1083D2C44097894F835
:1029F000602042EA811284F860201846F0BD082663
:102A000083F83060354622623346234483F8580009
:102A1000C7E7AD0005F1804505F5C0450A78D5F852
:102A2000101521F44F3121F44071C5F8101503023F
:102A30001204D5F8101502F4403203F47C5313430A
:102A40000B43C5F810350020F0BD1F284A7887BF1A
:102A50000A4E00F01F0303464FF0A04603F5E07353
:102A6000920046F82320B1E70B2391E7002522606E
:102A700083F8305095E700BF440900200003005060
:102A8000A8090020F0B43A4D2E1882B096F93030E3
:102A9000072B20DD2B4493F858309B09032B45D09E
:102AA000012B14BF4FF440314FF400311F284DD992
:102AB00000F01F002F4B03EB8000D0F8002722F41A
:102AC0004032C0F80027D0F800370B43C0F8003779
:102AD00002B0F0BC7047DAB2072AF9D8980000F1CA
:102AE000804000F5C04003F140029200D0F810454C
:102AF00092B202F18042002744F0010402F5C04284
:102B0000C0F810450197019817600029E0D096F9A8
:102B1000302055F82220002ADAD00122164902FA84
:102B200003F3C1F8043302B0F0BC70471F2810D97A
:102B3000104BD3F8103500F01F00C340DB0748BF2F
:102B40004FF44031B6D44FF40031B3E74FF0A04317
:102B5000B1E74FF0A0421346D2F81025C24012F060
:102B6000010F14BF4FF440314FF40031A3E700BF11
:102B70004409002000030050006000401F288ABF65
:102B8000054B4FF0A04300F01F00D3F8103523FA97
:102B900000F000F001007047000300502DE9F047FD
:102BA00088B00023CB4A039302931168012900F0F7
:102BB000A8821E46C84B1A68012A00F09482C74BAF
:102BC0001A68012A00F08182C54B1A68012A00F0B8
:102BD0006E82C44B1A68012A00F05B82C24B1A68ED
:102BE000012A00F04882C14B1A68012A00F03582A0
:102BF000BF4B1A68012A00F02282BE4B1A68012AD4
:102C000000F00C8216F0FF0F1AD0BB4F01250024F4
:102C1000A30003F180432E4203F5C0434FEA45056C
:102C20000BD0D3F8100557F82420D3F81015C0F3B3
:102C30000520C1F3014102B190470134082CE7D1CE
:102C4000002E02DB08B0BDE8F0870DF1100800226D
:102C50004FF0FF33A84CA94FC8F804200492069304
:102C60000793012694F960305A1C21D05FFA83FE45
:102C70002EF0C00008AB4FEAD00903EB090C0EF0B0
:102C800007031CF8082C06FA03F31A4040F03881B9
:102C900094F96110481C00F06A8215460DE0022A82
:102CA00006D1032900F06082002D00F03682A8478B
:102CB00094F961104A1C51D00025CBB223F0C0001A
:102CC00008AA4FEAD00C02EB0C0E03F007011EF825
:102CD000082C06FA01F912EA090F4CD194F9621096
:102CE000481C11D0CBB223F0C00008AA4FEAD00C88
:102CF00002EB0C0E03F007011EF8082C06FA01F98E
:102D000012EA090F40F0AD8094F963305A1C0FD0DD
:102D1000DBB223F0C00008AA4FEAD00C02EB0C0E85
:102D200003F007021EF8081C06FA02F211425AD1FB
:102D3000002D87D04FF0A0430299D3F81035D7F873
:102D40001025994203D1039991423FF47BAF049837
:102D50000599029303920690079183E794F9621014
:102D60004B1C01D00025BDE794F963305D1C3FF496
:102D700069AF0025CCE72218990992F9302054F860
:102D80002220002A00F02381032900F023811F283C
:102D900000F20C8184464FF0A04303EB8C031EF835
:102DA00018CCD3F800E71CEA090FCEF3014E40F02F
:102DB000F380BEF1030F91D103290FD14FF4003EF0
:102DC000D3F800C72CF4403CC3F800C7D3F800C7C1
:102DD00001354EEA0C0EEDB2C3F800E7002A3FF4CD
:102DE0007DAF90477AE704EB0009990999F9309093
:102DF00054F82990B9F1000F00F0FD80032900F08C
:102E0000FD801F288BBFBC464FF0A04C03F01F0372
:102E100003460CEB83031EF818CCD3F800E71CEA3A
:102E2000020FCEF3014E40F0A680BEF1030F7FF4F7
:102E30007FAF032940F0A6804FF40032D3F800E7BB
:102E40002EF4403EC3F800E7D3F800E7013542EA2C
:102E50000E02EDB2C3F80027B9F1000F40F09680E2
:102E600068E72218990992F9302054F82220002AA4
:102E700000F0B780032900F0B7801F2800F2A3807C
:102E800084464FF0A04303EB8C031EF818CCD3F814
:102E900000E71CEA090FCEF3014E40F08B80BEF133
:102EA000030F7FF431AF03290FD14FF4003ED3F865
:102EB00000C72CF4403CC3F800C7D3F800C7013565
:102EC0004EEA0C0EEDB2C3F800E7002A3FF41CAF47
:102ED000904719E70061004004610040086100402C
:102EE0000C61004010610040146100401861004016
:102EF0001C6100407C610040440900200003005038
:102F000022184FEA9E1192F9302054F82250002DD9
:102F10007BD003297CD01F283AD802464FF0A04E20
:102F20000EEB820E1CF8189CDEF8002719EA030944
:102F3000C2F301427FF4B3AE032A7FF4B9AE032992
:102F40007FF4B2AE4FF40032DEF8003723F44033A2
:102F5000CEF80037DEF800371343CEF80037002DE7
:102F600000F0ED800321A84794F961104B1C00F09C
:102F7000EB800125A1E6BEF1020F7FF4D9AE032953
:102F800000F0EF80B9F1000F3FF4D2AEC847CFE6B2
:102F90000EF01F02BE46C3E7BEF1020F7FF49EAEE5
:102FA00003297FF41BAF4FF4403E09E703F01F0CE9
:102FB0003B46F2E6BEF1020F7FF4A6AE032984D1B0
:102FC0004FF4403E73E703F01F0C3B465BE70329D9
:102FD0007FF484AE18F80CA04AEA090A08F80CA09D
:102FE000D5E603297FF490AE18F80CA04AEA090A46
:102FF00008F80CA041E703297FF49AAE18F80CA05A
:103000004AEA020A08F80CA0FBE6032940F0858092
:1030100018F809201A4308F809207CE700221A60F2
:103020001B6801934FF0A042019BD2F81025564B2C
:103030000292D3F81035039346F00046E2E5534A76
:10304000D2F8042311067FF5D8AD00221A601B6860
:103050000093009B46F08006CFE54C4AD2F804234B
:1030600050067FF5C5AD00221A601B680093009BD7
:1030700046F04006BCE5454AD2F8042394067FF5A5
:10308000B2AD00221A601B680093009B46F0200638
:10309000A9E53E4AD2F80423D5067FF59FAD00226C
:1030A0001A601B680093009B46F0100696E5374AAD
:1030B000D2F8042317077FF58CAD00221A601B6835
:1030C0000093009B46F0080683E5304AD2F80423BB
:1030D00052077FF579AD00221A601B680093009BB0
:1030E00046F0040670E5294AD2F8042391077FF5DB
:1030F00066AD00221A601B680093009B46F0020632
:103100005DE52249D1F8046316F001063FF452ADA3
:10311000136013680093009B4CE594F961104B1CFD
:103120007FF4CBAD94F96210481C7FF4DBAD94F9C9
:1031300063305A1C7FF4ECAD08B0BDE8F08794F919
:1031400061104D1C7FF415AF94F96210481C01D03A
:103150000125C7E594F96330591C3FF4EBAD012517
:10316000D6E54FF4403269E64FF44032ECE694F98C
:1031700062104B1C01D01546B4E594F963305D1C18
:103180003FF460AD1546C3E5000300500060004009
:103190000220FDF72BB900BF2DE9F0470D4606468A
:1031A000FDF73EF903281ED8012D04461FD00ED38B
:1031B000022D1AD11C4B00EB40041C44657895B1DC
:1031C0001A4B1B687BB12846BDE8F04718471848E2
:1031D000FEF77CFC144B174A04EB44010B44125DD0
:1031E0009D78AA42EBD0BDE8F087BDE8F0870E4F8E
:1031F0004FEA400808EB0003FA18FD5C53782BB93E
:10320000A04447440B4BBA781A55D8E7DFF828900A
:1032100007484A464FF40041FEF708FC0028EFD16A
:1032200089F80060ECE700BF140A0020280A00209B
:10323000D4090020300A0020B009002010B5007821
:10324000FDF7EEF803280BD8064B00EB40001844BE
:10325000407828B1044B1B6813B1BDE810401847F3
:1032600010BD00BF140A0020280A0020B34B1B68C1
:10327000DB0700D4704770B5B14EB24D33782C786F
:10328000FBB9172C1CD8DFE814F0F100140114016D
:1032900063007600830096005D0039002C00390041
:1032A0002C00A300A800A800A800A800A800CE0039
:1032B000DE000101460018001800FDF781F82C70AF
:1032C00070BDA14B1B7800203070002B00F00581F1
:1032D000FDF74CF80120FDF749F80320FDF746F80B
:1032E000CFE7012318463370FDF780F800224FF432
:1032F00080419648BDE87040FEF798BB0123184610
:103300003370FDF773F8002240F6CD418F48BDE8D9
:103310007040FEF78BBB8C4B1B78002B00F0FE80BF
:103320000020FDF723F80120FDF720F80320FDF72A
:103330001DF80020FDF706F80120FDF703F815231E
:103340002B7070BD0020FCF7FDFF07232B7070BDB4
:103350000020FCF7E3FF002800F0D3800020FDF7F9
:1033600005F846F2666103232B7000227748BDE81A
:103370007040FEF75BBB0020FCF7D0FF002800F098
:10338000C5800020FCF7F2FF4FF400310423EBE787
:103390000020FCF7C3FF002800F0BD800020FCF7F0
:1033A000E5FF05232B70002241F69A116748BDE81E
:1033B0007040FEF73BBB0020FDF718F806232B708A
:1033C000002240F6CD416148BDE87040FEF72EBBBB
:1033D000FCF7F6FF0C232B7070BD5D48FEF776FB03
:1033E000D4F1110405467BD0002879D1012C13D0EB
:1033F000C82303FB04F44FF4FA704FF40043002198
:10340000C3FB04014FF47A7200233AF083FA2A4690
:1034100001464F48FEF70AFB0220FCF793FF4A4B98
:1034200001221A7070BD484B1B78002B79D0002008
:10343000FCF79CFF0120FCF799FF0320FCF796FFA7
:1034400012232B7070BD404B1B78002B6FD00020D7
:10345000FCF78CFF0120FCF789FF0320FCF786FFB7
:103460000020FCF76FFF13232B7070BD364B1B78C9
:10347000002B59D00020FCF779FF0120FCF776FFE4
:103480000320FCF773FF00232B7070BD2E4B1B78BD
:10349000002B4FD00020FCF769FF0120FCF766FFEE
:1034A0000320FCF763FF0120FCF74CFF14232B7073
:1034B00070BD0020FCF732FFC8B10020FCF756FFBA
:1034C000022C4EF2666118BF4FF400312C700022BE
:1034D0001E48BDE87040FEF7A9BAFCF75BFFD0E6D6
:1034E0000220FCF743FF184B00221A7070BDFCF756
:1034F00029FF43F2333141F69A13022C08BF1946D3
:10350000E4E7FCF71FFF41F69A112CE7FCF71AFFDE
:1035100043F233313AE7FCF715FF42E7FCF73AFF95
:1035200007E7FCF737FF8BE7FCF734FFABE7FCF767
:1035300031FF95E7FCF72EFFB5E700BF200A00201A
:10354000240A00202C0A0020B1090020F4090020E0
:10355000B409002038B5C44B1C6814F0010401D133
:10356000204638BDC14C23780546E3B9172D00F23B
:103570007881DFE815F00B013101310169007D0030
:103580009100A5005B003500280035002800B3003D
:10359000BA00BA00BA00BA00BA00E300F6001C0193
:1035A000420063006300B24B1B7800202070002BA8
:1035B00000F02781FCF7DAFE0120FCF7D7FE03209C
:1035C000FCF7D4FED2E7012318462370FCF70EFF68
:1035D00000224FF48041A748BDE83840FEF726BAE4
:1035E000012318462370FCF701FF002240F6CD416D
:1035F000A048BDE83840FEF719BA9D4B1B78002B58
:1036000000F020810020FCF7B1FE0120FCF7AEFEA7
:103610000320FCF7ABFE0020FCF794FE0120FCF732
:1036200091FE954B15221A70002499E70020FCF7B3
:1036300089FE914B07221A70002491E7FCF7C0FE27
:103640008D4B00241D708BE70020FCF767FE0028DF
:1036500000F0E1800020FCF789FE46F26661864BAF
:10366000844803241C700022BDE83840FEF7DEB910
:103670000020FCF753FE002800F0DC800020FCF75F
:1036800075FE4FF400317C4B7A4804241C700022F4
:10369000BDE83840FEF7CAB90020FCF73FFE00281D
:1036A00000F0CD800020FCF761FE734B71480524CB
:1036B0001C70002241F69A11BDE83840FEF7B6B9F9
:1036C0000020FCF793FE6C4B6A4806241C70002215
:1036D00040F6CD41BDE83840FEF7A8B9FCF770FED2
:1036E000654B0C221A7000243AE76448FEF7EEF9A5
:1036F0000446D5F1110000F08780002C40F0848052
:10370000012814D0C82505FB00F54FF400434FF401
:10371000FA700021C3FB05014FF47A7200233AF0DE
:10372000F9F8224601465548FEF780F90446022082
:10373000FCF708FE4E4B01221A7011E74C4B1B7828
:10374000002B00F082800020FCF710FE0120FCF727
:103750000DFE0320FCF70AFE474B12221A700024CC
:10376000FEE6434B1B78002B75D00020FCF7FEFDD6
:103770000120FCF7FBFD0320FCF7F8FD0020FCF71F
:10378000E1FD3D4B13221A700024E9E6384B1B780B
:10379000002B5DD00020FCF7E9FD0120FCF7E6FDE1
:1037A0000320FCF7E3FD344B00241C70D8E6304BBB
:1037B0001B78002B52D00020FCF7D8FD0120FCF72D
:1037C000D5FD0320FCF7D2FD0120FCF7BBFD2A4B01
:1037D00014221A700024C3E60020FCF79FFDF8B104
:1037E0000020FCF7C3FD022D4EF2666118BF4FF4B6
:1037F0000031214B1F481D700022BDE83840FEF704
:1038000015B9FCF7C7FDB1E60220FCF7AFFD184B78
:1038100000221A70A4E6FCF795FD41F69A111EE706
:10382000FCF790FD43F2333141F69A13022D08BFA5
:103830001946DEE7FCF786FD43F2333123E7FCF758
:1038400081FD32E7FCF7A6FDE5E6FCF7A3FD83E783
:10385000FCF7A0FDA7E7FCF79DFD8FE7FCF79AFDBD
:10386000B2E700247CE600BF200A0020240A0020E2
:10387000B1090020F40900202C0A0020B40900201E
:10388000F8B5254B254A196081070446106014D508
:10389000234B24480E2111250F27102619705D7225
:1038A00040F266620421DF709E71FDF781FC0546DF
:1038B000C0B1E3072AD42846F8BD10F00105FAD0BC
:1038C0000120FCF7BFFD184A18480021FEF79CF8BC
:1038D00005460028EFD1164A16480121BDE8F840F8
:1038E000FEF792B8FDF7BCFC05460028E1D1014681
:1038F000114A1248FEF788F8E2070546DBD5012099
:10390000FCF7A0FD002DDED02846F8BD0120FCF715
:1039100099FD2846F8BD00BF280A0020200A002093
:10392000140A0020B0DD03006D320000D8DD030072
:1039300091310000D0DD03003D320000D4DD0300F2
:1039400008B51B78802B00D008BD0D4B0722012045
:103950001A70FCF7E3FC68B10020FCF707FD0120BA
:10396000FCF704FD002241F69A110648BDE8084024
:10397000FEF75CB8FCF7E6FC0120FCF7E3FCF1E79E
:10398000640A0020680A0020420700D4704708B586
:10399000084606F0B0F888B1831E022B0A4A06D901
:1039A000062313701846BDE80840FFF7D3BD072370
:1039B00013701846BDE80840FFF7CCBD024A1070EE
:1039C000BDE80840FFF7C6BD550A002008B51C4BEE
:1039D0001B78032B27D8DFE803F021120702012010
:1039E000BDE80840FCF7AEBC0120FCF7FFFC00225C
:1039F00040F6CD411348BDE80840FEF717B8012056
:103A0000FCF78CFC80B90120FCF79CFC41F69A1174
:103A100000220C48BDE80840FEF708B80120BDE8C8
:103A20000840FCF7A3BC08BD0120FCF79FFC46F250
:103A3000666100220348BDE80840FDF7F7BF00BFFC
:103A4000540A0020340A002008B52C4A1378013BA0
:103A5000DBB2137083B10120FCF760FCA0B9FCF766
:103A600071FC0120FCF76EFC002241F69A112448FB
:103A7000BDE80840FDF7DABF224B1B78032B0DD8B9
:103A8000DFE803F0121B2B090020FCF76FFC01207C
:103A9000FCF76CFCE8E70120FCF754FC1A4B1878A3
:103AA000BDE80840FFF756BD0120FCF75FFC164B50
:103AB0001878BDE80840FFF74DBD0120FCF72EFC4B
:103AC000A8B10120FCF752FC46F2666100220F48C3
:103AD000FDF7ACFF0028E1D008BD0120FCF786FC13
:103AE000002240F6CD410948FDF7A0FFF2E7012092
:103AF000FCF728FC41F69A11E8E700BF640A0020B1
:103B0000680A0020540A0020550A0020340A0020C8
:103B1000F8B5134E134B144F002421460C220546D2
:103B200030461C703C7038F023FB21460F4B104A86
:103B300010483360FDF768FF044628B901460E4A75
:103B40000E48FDF761FF04462A460D49284605F058
:103B5000A0FC2846024905F08AFC2046F8BD00BFBB
:103B6000580A0020540A0020550A0020413900005C
:103B7000CD390000DCDD0300493A0000E0DD030040
:103B80008939000010B504460C48FDF79FFF0C482A
:103B9000FDF79CFF0020FCF7E9FB0120FCF7E6FBAA
:103BA00022462046074905F077FC074A0023137098
:103BB0001846BDE81040FFF7CDBC00BF340A002016
:103BC000680A002089390000550A002070B5084BAA
:103BD00005461C88084605F08EFF240444F00304C3
:103BE00003462A4620460349BDE87040FCF7F0BF73
:103BF00048020020E4DD030070B54FF4004184B0BA
:103C00000020FCF76DFD08B1FDF740FBFCF7EEFC72
:103C10002D4A20210820FDF77FFB08B1FDF736FB78
:103C2000FDF79EFE08B1FDF731FB002301204FF0A8
:103C3000A041032204E015F4F03F18BF41F824200E
:103C40000133202B00FA03F503F5E074F3D14FF0B4
:103C5000A0434FF4F0310022C3F8081501201146AB
:103C6000C3F80C25FFF70CFE08B1FDF70FFB174E4C
:103C70000024012501A80194029403948DF80550B5
:103C800000F062FA00F012FB304600F051FB00F049
:103C900049FBFFF73DFF48B1FDF7F8FA06E000F0F9
:103CA0001BFBFDF7C1FBFCF785FD50B100F048FBA5
:103CB0000028F4D000F036FBFFF764FF00F002FBB1
:103CC000D8E700F015FBF1E7880A0020CD3B0000A3
:103CD0002DE9F84F4400DFF87CA126180AEBC60650
:103CE0008146D6F82C80B8F1010F8B46174661D07B
:103CF00038D3B8F1020F30D100F1010909EB4909BD
:103D0000756A4FEAC9094FF000081CE0326A641B6B
:103D1000BC420AEB09012346A2EB050428BF3B463F
:103D20009C42486828BF1C4628445946224638F021
:103D3000FAF9336A25449D4208BF00253F1BA04481
:103D4000A34475620BD0B36AAB4203F1FF34DDD8F4
:103D5000326A1344013B5C1BDAE74FF0000840462F
:103D6000BDE8F88FB36A756AAB429CBF326A9B1894
:103D7000013B5B1B9F42F2D804440AEBC40400F1F0
:103D80000109266A761B09EB4909B7420AEBC90A01
:103D900056D3DAF8040032462844BD1B38F0C3F984
:103DA000DAF804000BEB06012A4638F0BCF9B846F5
:103DB0006562D4E7B36A756AAB4226D903F1FF386E
:103DC000366AA8EB0508B84528BFB846761BB0454B
:103DD00023D309F1010707EB47070AEBC707A14403
:103DE00078683246594628440AEBC90AA8EB06050A
:103DF00038F099F978680BEB06012A4638F093F908
:103E0000CAF824504046BDE8F88F366A03EB06082E
:103E100008F1FF38A8EB0508D5E709F1010303EB2A
:103E200043030AEBC303A14458680AEBC90A2844B8
:103E300059464246454438F076F9CAF824508EE790
:103E4000DAF804003A4628443D4438F06CF9B846A4
:103E5000656284E7F8C300202DE9F0412B4C94F80B
:103E600000E00546884617461E46BEF1000F23D0E7
:103E70002369AB4246D90020FDF75EFE5DB92A46B4
:103E8000154404EBC504069BE3620020FDF75CFECD
:103E90000020BDE8F0816B1C03EB4303DB006A00EC
:103EA000511904EBC10144F80380234400205F60F2
:103EB0000E6288624862E3E70222154B15482261D0
:103EC00062614FF40071144AA361A3641023C4F823
:103ED00028E02365C4F824E0C4F82CE0C4F858E0D6
:103EE000C4F854E0C4F85CE0E0612162E2640B498C
:103EF000E01D38F085FD0A49204638F081FD202379
:103F0000A371B5E74FF0FF30BDE8F081F8C30020A2
:103F100014DE0300A80C0020980C002020DE030013
:103F200024DE0300F8B5114C114B124AE3614FF443
:103F300000750023104FA36210266362E362A3653D
:103F40006365E3650D492562A2610225A264E01D57
:103F5000E76426652561656138F052FD2046084911
:103F600038F04EFD2023A371F8BD00BFF8C3002038
:103F7000A80C002014DE0300980C002020DE0300B3
:103F800024DE030010B44FF080414FF08052002037
:103F9000C1F80C015E4BC1F81001C1F83805D2F828
:103FA0000414C3F82015D2F80814C3F82415D2F865
:103FB0000C14C3F82815D2F81014C3F82C15D2F835
:103FC0001414C3F83015D2F81814C3F83415D2F805
:103FD0001C14C3F84015D2F82014C3F84415D2F8C5
:103FE0002414C3F84815D2F82814C3F84C15D2F895
:103FF0002C14C3F85015D2F83014C3F85415D2F865
:104000003414C3F86015D2F83814C3F86415D2F824
:104010003C04C3F86805D2F840043E49C3F86C0577
:104020000968D2F84424C3F87025082924D04FF039
:104030008043D3F80024D20744BF6FF00102C3F8D5
:104040000024354AD2F8883043F47003C2F888302F
:10405000BFF34F8FBFF36F8F4FF01023D3F80022C1
:10406000002A23DBD3F80432002B1FDB2B4B2C4A16
:104070001A605DF8044B70472A4B1B68002BD6D1A1
:1040800029482A4A2A4C04602A492B4BFB20C2F8B3
:1040900018050A681B68294822F00F0203F00F0375
:1040A00013434FF400720B600260C0E7244B0122FF
:1040B000C3F80425D3F80024002AFBD04FF01023C6
:1040C00012221F49C3F80022D1F80034002BFBD084
:1040D0004FF0102212211A4BC2F80412D3F8002418
:1040E000002AFBD000221649C3F80425D1F8003479
:1040F000002BFBD0BFF34F8F0749124BCA6802F465
:10410000E0621343CB60BFF34F8F00BFFDE700BFFA
:1041100000C000403001001000ED00E00C00002065
:104120000090D003340100108C56004000F0004095
:1041300048810300E40E00405802001040960240FF
:1041400000E001400400FA05F0B5002183B0064606
:10415000084624F05BF94B4F4B4C05F092F93D8833
:10416000206005F01BFD2D0445F00305024647497C
:104170002846FCF7BBFC3D88206805F07BFC2D043D
:1041800045F00305024642492846FCF7AFFC20688B
:1041900005F019F910B9B378002B5ED10122002186
:1041A00001A837F0E5FF3378012B9DF804305ED08D
:1041B00043F00F038DF804309DF80410206805F0DB
:1041C00021FCB168002944D173780BB103B0F0BD74
:1041D0000121206805F067F9206805F0F4F810B9AE
:1041E000B378002BF2D00121206805F0EAFC388872
:1041F0002849000440F00300FCF706FC3D882068D5
:1042000005F0C6F92D0445F003050246224928466B
:10421000FCF76CFC3D88206805F0F5F92D0445F0AD
:10422000030502461D492846FCF760FC3B882068D0
:104230001C0405F0BFFB1A4B1A4A1B4910F0010F72
:1042400044F0030418BF1A462046FCF74FFC03B0A5
:10425000F0BD206805F078FBB6E70B21206805F07B
:104260009BF94AF6CD31206805F0D1F996E743F085
:1042700002036FF30003716820688DF8043005F0C5
:10428000E3F999E748020020A80E00202CDE030085
:1042900040DE030054DE030078DE030090DE0300FE
:1042A000ACDE0300B4DE0300C0DE030010B5044C36
:1042B000206800F08FF82068BDE8104028F0C0B9F1
:1042C000A80E002010B5034C206805F0E0F800238C
:1042D000236010BDA80E002010B5044C206805F026
:1042E00018FB2068BDE8104024F0C0B8A80E0020DC
:1042F00010B50A4C206805F018FB00B110BD20680D
:1043000024F054F9012803D0206824F04FF910B9A3
:10431000034B01221A6020BF10BD00BFA80E002071
:1043200010900040014B1868704700BFA80E002095
:10433000024B1A680146104605F0ABB8A80E0020E3
:1043400024F08EB80EB410B5A3B025AB044653F8D4
:10435000042B0193802102A838F0ECFC02A838F06D
:104360006CFB236882B21B68204602A9984723B0E1
:10437000BDE8104003B07047B0F80636B0F8082624
:10438000C3F580618A42CCBFA0F80A16A0F80A26BD
:10439000B0F80A1621B1184400F2062024F0E8BD56
:1043A0007047000010B50A4B0360044600F20C6031
:1043B00000F074FB0023A4F80432A4F80636A4F835
:1043C0000836A4F80A3624F037FD204610BD00BF99
:1043D000E0DE030010B5044C01462046FFF7E2FF83
:1043E000024B1C6010BD00BFB00E0020AC0E0020C0
:1043F00010B5B0F80432C2180446D2780A2A01BFB8
:1044000003F1FF339BB2A0F804321B1804BF002253
:104410001A71B0F80432C218211DD2780D2A01BFDA
:1044200003F1FF339BB2A0F804321B1804BF002233
:104430001A7100F20C60B4F80422234603F02CFC3D
:104440000020A4F8040210BD70B504468E180D4675
:10445000B542294649D20B780A2B05F1010507D050
:1044600001D8082B02E00D2B02D07F2B16D028E0BC
:1044700023681E491B68204602229847B4F804327C
:104480002BB1234400221A712046FFF7B1FF2368A5
:1044900017491B68204602229847D9E7B4F804322E
:1044A000002BD5D0236813491B6803222046984768
:1044B000B4F80432013B9BB2A4F804320022234436
:1044C00011E0B4F80432B3F5007FC1D223680122B1
:1044D0001B6820469847B4F804325A1CA4F80422FA
:1044E00015F8012C23441A71B2E770BDEBDE03000E
:1044F000D5DE0300E8DE03000A46034903460868E8
:104500001946FFF7A1BF00BFAC0E0020B0F80A3675
:104510000BB9FFF731BF704770B5B0F80846C4F566
:104520008064A4B2944228BF14460D466B1AA3427D
:104530000FDAB0F80826B0F8063615F8016B134408
:10454000C3F309030344013283F80662A0F8082686
:10455000ECE7FFF7DBFF204670BDB0F80A16B0F8B5
:1045600006260A44C2F30902A0F80626B0F8082677
:10457000521AA0F808260022A0F80A26FFF7FCBE6F
:10458000014B1868FFF7E9BFAC0E002038B50546AF
:104590000024A8680C4A0368A2585B680B490C34D5
:1045A0009847B4F5437FF4D100242B799C4209D27B
:1045B000A8682A68036852F834205B680349984762
:1045C0000134F2E738BD00BFF0DE0300B5F20300AE
:1045D000D0F8340104F065BFD0F8340104F05FBFB7
:1045E00070B585682B680446D0F834015E6805F024
:1045F0008EFA054902462846B047A0680349036879
:10460000BDE870405B68184782E80300FCE10300E6
:1046100070B584682368084611465D6828F012F872
:104620002B46024602492046BDE87040184700BFAD
:10463000B5F203008068024903685B68184700BF51
:10464000FCE1030070B5044659B980686949036804
:104650005B689847A06868490368BDE870405B687C
:1046600018471068654938F0C1F9002840F0C1804A
:10467000D4F8340105F05CF80546A0682A680368A0
:104680005F495B689847A0686A6803685D495B6832
:104690009847A068AA6803685B495B689847A06868
:1046A000EA68036859495B689847A0682A69036803
:1046B00057495B689847A0686A69036855495B6811
:1046C0009847A068AA69036853495B689847A0683F
:1046D000EA69036851495B689847A0682A6A0368D9
:1046E0004F495B689847A0686A6A03684D495B68F0
:1046F0009847A068AA6A03684B495B689847A06816
:10470000EA6A036849495B689847A0682A6B0368AE
:1047100047495B689847A068AA6B036845495B688E
:104720009847A068EA6B036843495B689847A068AC
:104730002A6C036841495B689847A0686A6C036803
:104740003F495B689847A068AA6C03683D495B686D
:104750009847A068EA6C03683B495B689847A06883
:104760002A6D036839495B689847A0686A6D0368D9
:1047700037495B689847A068AA6D036835495B684C
:104780009847A068EA6D036833495B689847A0685A
:104790002A6E036831495B689847A0686A6E0368AF
:1047A0002F495B689847A068AA6E03682D495B682B
:1047B0009847A068EA6E03682B495B689847A06831
:1047C0002A6F036829495B689847A0686A6F036885
:1047D00027495B689847A068AA6F036825495B680A
:1047E0009847A068EA6F036823495B68BDE870409A
:1047F000184770BD03E20300FCE1030009E2030077
:104800000DE203001BE203002FE2030045E2030078
:104810005EE2030070E203008BE203009CE203000F
:10482000B1E20300C4E20300DEE20300F0E20300B1
:1048300002E3030015E3030030E303003EE303005B
:1048400052E3030068E3030079E303008EE303000F
:10485000A1E30300BBE30300CDE30300E9E30300AE
:1048600006E403001DE4030034E4030055E4030000
:1048700073E4030086E4030099E4030010B50446E2
:1048800005F08CF90246A068044903685B68984704
:104890002046BDE81040FFF7CDBE00BFB5F20300D3
:1048A00030B504468BB06946D0F8340104F06BFF94
:1048B000A068BDF8002003682F495B689847A0688E
:1048C000BDF8022003682D495B689847A068BDF8D1
:1048D000042003682A495D68BDF80630A847A0682F
:1048E000BDF80820036827495D68BDF80A30A8476D
:1048F000A068BDF80C20036823495D68BDF80E3040
:10490000A847A068BDF81020036820495D68BDF87D
:104910001230A847A068BDF8142003681C495D68E0
:10492000BDF81630A847A068BDF8182003681949DB
:104930005D68BDF81A30A847A068BDF81C20036860
:1049400015495D68BDF81E30A847A068BDF8202055
:10495000036812495D68BDF82230A847A068104975
:104960000368BDF824205D68BDF82630A8472046BE
:10497000FFF760FE0BB030BDAEE40300BAE4030005
:10498000C5E40300D7E40300E9E40300F6E4030010
:1049900003E5030010E503003EE503001DE5030009
:1049A00032E50300F0B504468FB00025D4F8340199
:1049B000E9B209AA05F0E1F900284BD19DF836309B
:1049C000DB0745D5BDF82430BDF82870A068C3F3D7
:1049D000072242EA0322BDF826300668C3F3072106
:1049E00041EA0323C7F3072141EA0721BDF82A70F2
:1049F00089B20091C7F3072141EA0721BDF82C7065
:104A000089B20191C7F3072141EA0721BDF82E7051
:104A100089B20291C7F3072141EA0721BDF830703E
:104A200089B20391C7F3072141EA0721BDF832702B
:104A300089B20491C7F3072141EA072189B20591A0
:104A4000BDF8341006917668054992B29BB2B04722
:104A50000135ABE72046FFF7EDFD0FB0F0BD00BF1D
:104A60004CE5030010B50446D0F8340105F0E0F839
:104A7000A3681A68526810B11846054901E0054953
:104A8000184690472046BDE81040FFF7D3BD00BF51
:104A90006BE5030072E5030000BA704770B50025AE
:104AA00004462C220E4605600571856029460C30AF
:104AB00037F05EFB08232387012363874FF47A7363
:104AC000E3631C4B236404F14003A3642146656443
:104AD00084F8B85004F1F80004F0B8FA2146C4F89C
:104AE000346104F59C7003F057FF294604F14C0033
:104AF000602237F03DFB2246D4F834010E4904F021
:104B0000C8FC2246D4F834010C4905F04BF80C4B94
:104B1000C4F8AC3004F1AC01C4F8B040D4F83401AE
:104B200004F0A5FC04F1B90029463E2237F020FB31
:104B3000204670BD316F0000F17D0000617E0000F5
:104B40000D6E00002DE9F041074690460C4637F007
:104B500074FF3D1800F001060130B8EB500F03D38D
:104B600038462146002306E04FF0FF30BDE8F081D3
:104B70001B01DBB20126A8421AD210F8012BA2F1C8
:104B80004107052F01D8373A04E0A2F16107052F4C
:104B900003D8573A1343DBB204E0303AD2B2092AC1
:104BA000E2D81343002EE3D00B7000260131D9E781
:104BB000081BBDE8F081000070B50C4619B9BDE8CE
:104BC0007040FFF737BD85682B6808465E6806F0C1
:104BD000DBFA22460346B44628460249BDE8704047
:104BE000604700BFABF2030070B505460E4681B9C1
:104BF000D0F8340104F0FCFF0446A86803685B6841
:104C00001CB11249984731461AE01149984721468C
:104C100016E014680F49204637F0E8FE18B9D5F8B9
:104C20003401012107E00C49204637F0DFFE014640
:104C300028B9D5F8340104F0EFFF014600E0072160
:104C40002846BDE87040FFF7B7BF00BF6BE5030023
:104C500072E503007AE503001807040010B5044666
:104C600000F59C7004F0A4F801462046BDE8104011
:104C7000FFF7A2BF10B50446D0F83401A36803F0D3
:104C80005DFE01462046BDE81040FFF795BF0000DD
:104C900070B505460E4681B9D0F8340104F00BFC1E
:104CA0000446A86803685B681CB1124998473146FE
:104CB0001AE011499847214616E014680F4920462A
:104CC00037F094FE18B9D5F83401012107E00C49FA
:104CD000204637F08BFE014628B9D5F8340104F0A0
:104CE000E2FB014600E007212846BDE87040FFF7DF
:104CF00063BF00BF7FE5030084E503008425040053
:104D00008BE5030037B504466946D0F8340104F05A
:104D1000F6FE054608BBA06813490368009A5B6865
:104D20009847A068114903689DF804205B6898477C
:104D3000A0680F4903689DF805205B689847A06844
:104D40000C4903689DF806205B689847A0680A49EB
:104D500003689DF807205B68984720462946FFF7BF
:104D60002BFF03B030BD00BF90E50300A3E50300B7
:104D7000BAE50300B3E50300CDE503007FB50446C3
:104D8000B1B9D0F8340105F000F8461E00F10F0566
:104D9000A06816F8012F03680F495B689847AE4278
:104DA000F6D1A0680D4903685B68984700210EE0C2
:104DB000106869461022FFF7C5FE102806D1694623
:104DC000D4F8340104F0E6FF014600E00621204655
:104DD000FFF7F2FE04B070BD1A160400DAF2030009
:104DE00073B5002304468DF8043000292ED1D0F885
:104DF000340104F0DFFD8DF80400C00704D5A0687D
:104E00002C4903685B6898479DF80430990704D5DE
:104E1000A068294903685B6898479DF804305A07E1
:104E200004D5A068254903685B6898479DF804305D
:104E30001B0704D5A068224903685B689847A068EF
:104E4000204903685B68984700212DE011681E46E1
:104E50001D461846013911F8012FA2B16E2A0ED055
:104E600002D8642A09D006E0722A02D0732A08D038
:104E700001E00123EFE7062116E00125EBE7012021
:104E8000E9E70126E7E79DF8041063F3000166F304
:104E9000410165F3820160F3C301D4F834018DF858
:104EA000041004F0AFFD0146204602B0BDE870409A
:104EB000FFF782BE2BFD030011210400D83A040045
:104EC000A5FC0300DAF20300F0B500238BB0994291
:104ED0000446ADF8023040F38D80156848492846F5
:104EE00037F084FDB0FA80F676092EB92846454998
:104EF00037F07CFD78B17DE0A068434903685B68CA
:104F00009847A068414903685B68984703E04049B7
:104F1000BDF81020984701AFD4F834010DF102011B
:104F20003A4604F0DFFD0546A06803685B68002D83
:104F30005CD1002EEBD09DF82420364912F0100FE2
:104F400014BF432252229847A06833490368BDF832
:104F500010205B689847A06830490368039A5B6833
:104F60009847A0682E4903689DF91D205B68984703
:104F7000A0682C4903689DF91E205B689847A068CB
:104F80009DF82420036828495B6802F001029847D5
:104F9000A0689DF82420036823495B68C2F340029F
:104FA0009847A0689DF8242003681F495B68C2F3F6
:104FB00080029847A0689DF8242003681A495B681E
:104FC000C2F3C0029847A068184903685B68984715
:104FD000A0687A5D036816495B6801359847082D1B
:104FE000F6D1A068134903685B688EE712499847B9
:104FF000002100E007212046FFF7DEFD0BB0F0BDE9
:10500000E4E5030007ED0300EAE5030036E60300EC
:105010008CE6030082E603008AE6030094E60300C0
:105020009BE60300A2E60300A9E6030007EC0300E9
:105030001A160400F2E90300DAF2030010B5044680
:10504000D0F8340104F0B2F901462046BDE8104022
:10505000FFF7B2BDF0B587B001AF04463946D0F8CE
:10506000340104F059FD064600282FD1A0681A49E2
:1050700003685B6898473546A0687A5D03681749FE
:105080005B6801359847082DF6D1A068144903687C
:105090005B689847A06813490368BDF80C205B68FB
:1050A0009847A068104903689DF811205B689847ED
:1050B000A0680E4903689DF812205B689847A068B5
:1050C0000B4903689DF813205B68984720463146DA
:1050D000FFF772FD07B0F0BDAEE603001A1604003C
:1050E000DAF20300B9E60300C4E60300DAE60300DF
:1050F000F1E6030038B504460D4681B9D0F8340115
:1051000004F003FBA0B3D4F8340123F0C1FA78B360
:10511000A0681B4903685B689847294623E0156827
:105120001849284637F062FC48B9D4F834011649CA
:10513000224604F0E5FAD4F8340101210EE02846B5
:10514000124937F053FC054660B9D4F834012946BA
:105150002A4604F0D5FAD4F83401294604F0DAFAE4
:10516000014600E007212046BDE83840FFF724BD96
:10517000A068074903685B6898470021F3E700BF10
:105180000AE70300FBE603005970000002E7030092
:1051900071EC030070B505460E4679B9D0F83401BC
:1051A00004F068FD0446A86803685B681CB11249F6
:1051B000984731461BE0114998470BE016681049A3
:1051C000304637F013FC044630B9D5F834010121DC
:1051D00004F055FD21460AE030460A4937F006FC46
:1051E000044618B9D5F834012146F1E707212846CD
:1051F000BDE87040FFF7E0BC0AE7030071EC030074
:10520000FBE6030002E7030038B5044600292BD172
:10521000D0F8340104F06FFCA36804281DD8DFE83F
:1052200000F003080D1217001A6827495268184643
:1052300017E01A6825495268184612E01A6824498E
:10524000526818460DE01A6822495268184608E06C
:105250001A6821495268184603E01A681F495268C3
:105260001846904700212AE015681D49284637F066
:10527000BDFB20B9D4F8340104F029FC1CE0284619
:10528000184937F0B3FB20B9D4F8340104F024FCFA
:1052900012E02846144937F0A9FB20B9D4F83401AC
:1052A00004F02BFD08E02846104937F09FFB28B991
:1052B000D4F8340104F033FD014600E00721204614
:1052C000BDE83840FFF778BC14E703001FE7030090
:1052D0002AE7030032E703003BE7030044E703004B
:1052E00054E70300A5FF03005DE7030064E7030044
:1052F000002938B5044615DD15680D49284637F0F4
:1053000075FB18B9D4F83401012107E00949284692
:1053100037F06CFB014628B9D4F8340104F051FC95
:10532000014600E007212046BDE83840FFF744BCB5
:10533000D5ED03006BE7030010B50446F83003F029
:105340008FFE01462046BDE81040FFF735BC000047
:10535000F0B50F1E87B00546164628DD14681749BC
:10536000204637F043FBB0B9012F20D0144B0093F7
:10537000144B0193022F4FF00004134B03930CBF07
:105380000246B26802940495D5F8340171680F4B57
:1053900004F0D9F809E020460D4937F027FB044610
:1053A00028B9D5F8340104F0D6F8214600E00721E9
:1053B000284607B0BDE8F040FFF7FEBBD5ED03007F
:1053C0007BE7030084E70300C577000070E7030074
:1053D0006BE703007FB50446B1B9D0F8340104F09F
:1053E00029FB461E00F10F05A06816F8012F03687F
:1053F0000F495B689847AE42F6D1A0680D49036833
:105400005B68984700210EE0106869461022FFF79C
:1054100099FB102806D16946D4F8340104F00FFB3B
:10542000014600E006212046FFF7C6FB04B070BD30
:105430001A160400DAF2030070B505460C46D0F8DF
:10544000340151B904F016FB0346A8680749026805
:1054500056681022B047214603E0116804F00EFBA5
:1054600001462846BDE87040FFF7A6BBA2E703004F
:10547000F8B507460D4616460C46631BB34207DADD
:10548000B8680449036814F8012B5B689847F4E78F
:10549000F8BD00BF1A16040037B505460C4681B9A1
:1054A000D0F83401694604F0ACF828466946082271
:1054B000FFF7DEFFA868064903685B689847214646
:1054C00000E007212846FFF777FB03B030BD00BF9F
:1054D000DAF2030030B5C3B0FF238DF8073004467D
:1054E0000021D0F8340102AA0DF1070304F0DFF91E
:1054F000054650B9204602A99DF80720FFF7B8FFDE
:10550000A068054903685B68984720462946FFF76D
:1055100053FB43B030BD00BFDAF2030037B5054698
:105520000C4681B96946D0F8340104F019F82846D0
:1055300069460822FFF79CFFA868064903685B6874
:105540009847214600E007212846FFF735FB03B0C6
:1055500030BD00BFDAF2030037B505460C4679B915
:10556000D0F8340104F032F8082201462846FFF74B
:105570007FFFA8680C4903685B68984721460EE0E6
:10558000106869460822FFF7DDFA002801DA0621D3
:1055900005E06946D5F8340104F01CF801462846B8
:1055A000FFF70AFB03B030BDDAF2030037B505465A
:1055B0000C4679B9D0F8340104F0CBF90822014641
:1055C0002846FFF755FFA8680C4903685B689847B1
:1055D00021460EE0106869460822FFF7B3FA00285A
:1055E00001DA062105E06946D5F8340104F0B5F981
:1055F00001462846FFF7E0FA03B030BDDAF20300B7
:1056000013B500220C4601A937F0BEFA019B2060B9
:105610001B78002B14BF0620002002B010BD000034
:10562000F7B505460C4661B98668D0F83401336891
:105630005F6803F0ADFF0C4902463046B84721468B
:105640000CE001A91068FFF7DBFF014630B99DF8B7
:105650000410D5F8340103F09FFF01462846FFF7F8
:10566000ABFA03B0F0BD00BF77E803002DE9F041CD
:1056700000298AB0044640F31B81156890492846EA
:1056800037F0B4F9B0FA80F676092EB928468D497C
:1056900037F0ACF950B187E0A0688B4903685B68CC
:1056A0009847A068894903685B68984700270DF10F
:1056B0000808D4F83401F9B2424604F04EFB05461E
:1056C00040B117286ED0A068814903685B6898478D
:1056D0000025EEE0049B002B64D0A068BDF81A20E2
:1056E00003685B68002E5BD07A499847A0687A49C6
:1056F0000368BDF818205B689847A068774903687D
:10570000049A5B689847A06874490368059A5B68C7
:105710009847A068724903689DF81D205B68984708
:10572000A068704903689DF81C205B689847A068D2
:105730009DF8242003686C495B6802F001029847D9
:10574000A0689DF82420036867495B68C2F34002A3
:105750009847A0689DF82420036863495B68C2F3FA
:1057600080029847A0689DF8242003685E495B6822
:10577000C2F3C0029847A0685C4903685B68984719
:10578000A06818F80520036859495B6801359847F7
:10579000082DF5D1A068574903685B68984701E078
:1057A00055499847013782E7284601A9FFF728FFA6
:1057B000054600287DD102AFD4F83401BDF80410AD
:1057C0003A4604F0C2FA0546002872D1A0684B4957
:1057D0000368BDF81A205B689847A06848490368C9
:1057E000BDF818205B689847A068464903685B6865
:1057F00098472E46A068BA5D03683D495B6801364C
:105800009847082EF6D1A068314903685B6898472D
:10581000A0683D4903685B6898479DF82430D80725
:1058200004D5A068394903685B6898479DF824301F
:10583000990704D5A068364903685B6898479DF8C6
:1058400024305A0704D5A068324903685B6898473A
:105850009DF824301B0704D5A0682F4903685B68B6
:105860009847A0681A4903685B689847A0689DF844
:105870001C20036829495B689847A068049A03685C
:1058800027495B689847A068059A036825495B68C3
:105890009847A0689DF81D20036823495B689847D6
:1058A000A068224903689DF91E205B68984700E0C4
:1058B000072520462946FFF77FF90AB0BDE8F081A9
:1058C000E4E5030007ED0300A9E7030000E8030097
:1058D000DAF2030094E603008AE6030057E80300C7
:1058E0005FE8030066E80300A9E6030007EC030095
:1058F0001A160400F2E9030000F403006DE8030047
:105900007CE80300AEE6030089E803002BFD0300FA
:1059100011210400D83A0400A5FC030090E803001C
:105920009FE80300F1E60300C4E60300ADE80300CE
:10593000F7B505460C4661B98668D0F8340133687E
:105940005F6804F085F90C4902463046B8472146A5
:105950000CE001A91068FFF753FE014630B99DF82D
:105960000410D5F8340104F080F901462846FFF709
:1059700023F903B0F0BD00BF77E80300F7B5054693
:105980000C4659B98668D0F8340133685F6803F073
:10599000D7FF0B4902463046B8470AE0106801A914
:1059A000FFF72EFE044620B9D5F83401019903F023
:1059B000CBFF28462146FFF7FFF803B0F0BD00BF3C
:1059C00077E8030073B5044659B98568D0F8340107
:1059D0002B685E6804F072F9094902462846B04710
:1059E00009E0106801A9FFF70BFE20B9D4F83401D3
:1059F000019904F068F92046FEF71CFE02B070BD64
:105A000077E8030010B5002986B0044609DD05A932
:105A10001068FFF7F5FD0146E0B9059B01219940AB
:105A200000E0002100230E4A019200930294D4F872
:105A300034014FF6FF7204F000F9014650B9A06836
:105A4000084903685B689847A068074903685B6872
:105A5000984702E02046FFF7AFF806B010BD00BF40
:105A6000F5760000B8E8030011E903002DE9F047DE
:105A700090B005AF0E463523044615463846002142
:105A80002C22019336F074FB002E4EDD28682A4943
:105A900036F0ACFF002848D194F8B890B9F1000F67
:105AA00041D1012E41D0D5F804A0504636F0C5FFB3
:105AB0003D283AD804F1B9085146404636F0A0FFD7
:105AC000384649462C2236F053FB0123022E8DF82E
:105AD000383009A805D0A9680EF03CFD014628BB66
