:1000000000000420E1020000090300000B030000CF
:100010000D0300000F0300001103000000000000AA
:1000200000000000000000000000000013030000BA
:100030001503000000000000170300001903000072
:10004000493500001DB20300113E00001B030000F3
:100050001B0300001B030000813800001B0300008D
:100060001B0300001B030000D14100001B03000024
:100070001B030000113F00001B0300001B030000D6
:100080001B0300001B0300001B0300001B030000F8
:100090001B0300001B0300001B0300001B030000E8
:1000A0001B0300001B030000994200001B0300001B
:1000B0001B0300001B030000000000000000000004
:1000C0001B0300001B0300001B0300001B030000B8
:1000D000BDC203001B0300001B0300001B03000044
:1000E0001B0300001B0300001B03000000000000B6
:1000F000000000001B030000000000001B030000C4
:1001000000000000000000000000000000000000EF
:1001100000000000000000000000000000000000DF
:1001200000000000000000000000000000000000CF
:1001300000000000000000000000000000000000BF
:1001400000000000000000000000000000000000AF
:10015000000000000000000000000000000000009F
:10016000000000000000000000000000000000008F
:10017000000000000000000000000000000000007F
:10018000000000000000000000000000000000006F
:10019000000000000000000000000000000000005F
:1001A000000000000000000000000000000000004F
:1001B000000000000000000000000000000000003F
:1001C000000000000000000000000000000000002F
:1001D000000000000000000000000000000000001F
:1001E000000000000000000000000000000000000F
:1001F00000000000000000000000000000000000FF
:1002000010B5054C237833B9044B13B10448AFF350
:1002100000800123237010BD0005002000000000B5
:1002200028FC03000C4B43B10C480D4910B5AFF34B
:1002300000800C48036823B910BD0A48036833B92D
:100240007047094B002BF7D0BDE810401847064B0C
:10025000002BF5D0184700BF0000000028FC030069
:10026000040500203C04002000000000154B002B7A
:1002700008BF134B9D46A3F5803A00218B460F46DD
:100280001348144A121A3CF043FB0F4B002B00D0CA
:1002900098470E4B002B00D0984700200021040007
:1002A0000D000D48002802D00C48AFF300803CF050
:1002B000B7FA2000290004F0B7FF3CF08BFA00BF2A
:1002C0000000080000000420000000000000000002
:1002D0000005002064A900200000000000000000CC
:1002E0000649074A074B9B1A03DD043BC858D05008
:1002F000FBDC05F0ADF8FFF7B9FF0000D4FC03000C
:100300000000002000050020FEE7FEE7FEE7FEE714
:10031000FEE7FEE7FEE7FEE7FEE7FEE7F0B595B095
:10032000002415460F4608461E4602F0F9FC3846E2
:1003300023460822089505A91A9D09960D950A9449
:100340008DF82C400C9402F03FFD9DF81430079876
:1003500006998DF8114003F00302012A02900391DF
:1003600028D0022A04D0384602F0DEFC15B0F0BDD9
:10037000BDF81650C3F3C2038DF81030C5F38915CC
:100380000826082D2C4628BF0824334622460EA9ED
:10039000384602F019FD2D1B214608AB02AA0EA813
:1003A000264400F0A7FE002DEBD1384602F0BCFC3D
:1003B00015B0F0BDBDF81460059DC6F38316C3F3F8
:1003C000C204B2000EA9384608238DF81040C5F3C8
:1003D000952502F0F9FC08AB0093324628460EA999
:1003E00002AB00F0E1FDBEE7014B01221A7070473D
:1003F00060050020704700BF00B583B0044B009338
:10040000044A4023FFF78AFF03B05DF804FB00BFF6
:10041000190400002005002038B50E480E4D037861
:100420000E4CEB5C00252570D2B253B90C3004F0B1
:1004300017FA58B90A4B1B7813B12378002BFCD05C
:1004400038BD043004F09CFC0028F3D001F0CAF958
:10045000F0E700BF00000020CC8D002060050020E8
:100460001C05002030B51348134A0378D35C89B0CB
:10047000E3B90C3004F076F9104D0FCD6C460FC483
:1004800095E80F00062584E80F004FF08053002206
:10049000694608480095069302F020FF08B101F074
:1004A000A1F9074B00221A7009B030BD043004F0E6
:1004B000E7FBE1E700000020CC8D002004DD030015
:1004C0001C05002030B50D4D0FCD89B06C460FC412
:1004D00095E80F00062584E80F004FF08053084A86
:1004E000084800956946069302F0F8FE08B101F04D
:1004F00079F9054B01221A7009B030BD04DD030003
:10050000E9030000000000201C05002010B5054C88
:10051000FFF7D8FF2046042100F0DEFC01236372C0
:1005200010BD00BF14000020F0B53248324D85B038
:1005300001F004FE314801F001FE6A68AF6802EA8A
:100540000701CB1C05EB8303541C187810F0030F34
:1005500000F003060ED010F0040016D0012E37D0A4
:10056000022E02F10200ECD15A8800EB921202EA4C
:100570000701E6E74007F1D459881A8804EB911483
:1005800004EB921202EA0701DBE705EB8101531C41
:10059000C96801913B4005EB830301F00301DB686F
:1005A0000293012902F102041CD0022918D1BDF8DE
:1005B0000630BDF80A60C3F38913033304EB9304D8
:1005C0000E4801F0C9FD00B16C60304605B0F0BDC9
:1005D0001B880232C3F383131A4402EA0701B0E70F
:1005E0000646EDE7BDF80430BDF80A60C3F3831397
:1005F0001C44E5E7244B00200C0B0020204B00207E
:100600002DE9F04F214B224844F2200144F2180614
:1006100044F21404002283B040F6FF759A511A6028
:100620005A609D601A515A5402F030FB019040BB51
:10063000184E194FF61BF60823D0DFF860900546D8
:1006400082460024A34607EBC5085D454FF014021F
:1006500008D057F83B10D8F800003CF0A1FC002867
:10066000C8BF01340BF1010B5E45EED1A9F8005073
:100670000135AE42C9F804A0A9F8024009F10C09FD
:10068000DFD1019803B0BDE8F08F00BF0C0B002054
:100690009CFC03009CFC03002CFC03004004002095
:1006A00021B9124A02EBC0000068704730B410490B
:1006B0000E4D491BC9080ED00E4B5A88824218BFF6
:1006C000002205D10FE0DC89844203F10C0305D040
:1006D00001329142F7D1002030BC704705EBC200D7
:1006E000006830BC70472846FAE700BF2CFC0300C6
:1006F0009CFC030040040020094B013903EBC000BF
:1007000003290BD8DFE801F0020806040220704735
:100710004079704700797047042070470020704787
:100720002CFC03002DE9F04FA14C94E80C009A42F8
:1007300085B068D044F218030022E250BFF34F8F17
:100740006368A56827680EE011F0040623D001F065
:100750000301012951D0022903D15288023303EB4E
:1007600092139F4212D903EA0500C21C04EB8202D5
:1007700011788E07E8D14807E9D4518812880133EF
:1007800003EB911303EB92139F42ECD800206760B8
:1007900005B0BDE8F08F04EB80005A1C2A40C76802
:1007A000019704EB8202FFB2D268029207F00302C3
:1007B000022A03F102092AD0012A00F0948044F2AF
:1007C0001003E55835B12B6828469B6898476D683B
:1007D000002DF8D1774B5A68012A06D91888764936
:1007E000000440F0020000F0EFF860682368C01ACF
:1007F00018BF012005B0BDE8F08F12880233C2F3A4
:1008000083121344ADE7002005B0BDE8F08FBDF8BA
:1008100006306A48C3F3891BBBF5207FDA46A8BFC0
:100820004FF4207A6AF38F130AF10801ADF806300D
:1008300002F02EFAC7F3C20780460028BFD002F0AC
:100840006FFA3346082201A9404602F08FFA25EAE2
:10085000090301339B009A4540F29D80002B40F034
:1008600084805FFA8AF208235549404602F07EFAF6
:100870000BF1030609EB960644F21803E358002B2C
:100880006FD144F21003E558F5B1DFF838916B7A77
:10089000BBB1BDF808302A7A03EB430309EB8303AD
:1008A00002EB42029B68052F23FA02F308BF0327DD
:1008B00003F007039F424146284602D82B681B6875
:1008C00098476D68002DE2D1404602F02DFA0020D5
:1008D00001F0ECFB44F21803E35803B96660002012
:1008E00001F0ECFB81E7BDF804703448C7F38313D3
:1008F000062B28BF0623991C63F389178900ADF8DE
:10090000047002F0C5F9C7F3C207804600283FF41F
:1009100056AF02F005FA3346082201A9404602F01C
:1009200025FABDF8043013F4707F3FD0B3464FF082
:10093000080A05EA09010331534604EB8101042248
:10094000404602F013FABDF804300BF1010BC3F37B
:10095000831309F101065B450AF1040AB146E8D8A0
:100960008AE7404602F0E0F93FE705EA0901AAEB11
:100970000306DDB2033104EB81012A464046F6B29C
:10098000082302F0F3F9324605F108030C4940460A
:1009900002F0ECF96CE705EA0901033104EB81018F
:1009A00052460823404602F0E1F961E74E4663E70C
:1009B0000C0B00209404002030DD03009CFC03009D
:1009C000180B0020400400202DE9F843DFF8DC90EC
:1009D000074600208846D9F8085001F067FBD9F88F
:1009E0000820D9F80430D9F80060134401339B1B68
:1009F000012B56D82C4C0121204601F075FBFFF746
:100A000093FD0146204601F06FFB99E80A00D9F8F2
:100A10000820134401335B1A012BECD901240A404E
:100A2000033244F004036FF3891349F82230023192
:100A30000020C9F8001001F041FB00211A4801F024
:100A400047FB80F3100033192B4009EB83030004AC
:100A50003540033540EA1740D86019F8253067F370
:100A6000C50309F8253039F825306FF3891329F8C3
:100A7000253059F8252068F39F22134664F30103BB
:100A80006FF3820349F8252044F2200209F825304B
:100A900019F802301BB1FFF745FE0028FBD1BDE875
:100AA000F8833146BAE700BF284B00200C0B00202A
:100AB0002DE9F04FDFF82CB183B08246002002F11F
:100AC000030891460191DBF8085001F0EFFADBF8DA
:100AD0000810DBF80420DBF800700A444FEA98089D
:100AE0000132D21B08F10206964275D93B4C012116
:100AF000204601F0F9FAFFF717FD0146204601F004
:100B0000F3FA9BE80500DBF808100A440132121AD8
:100B10009642ECD8014003310622064468F39F5206
:100B200000204BF82120CBF8006001F0C7FADBF879
:100B30000840B81C28400134241AA4000330A14501
:100B40000BEB80003AD801994A463BF0BCFE0021ED
:100B5000224801F0BDFA80F310007A1C2A400BEB0A
:100B6000820200043D40033540EA1A40D0601BF881
:100B700025206AF3C5020BF825203BF825206FF3EA
:100B80008F122BF825200BEB85020220518869F388
:100B90008F1151801BF8252060F301026FF3820250
:100BA0000BF8252044F220021BF802301BB1FFF79E
:100BB000B9FD0028FBD103B0BDE8F08F019E2246AD
:100BC00031463BF080FE334623441946A9EB04022C
:100BD00003483BF078FEBAE738469BE7284B0020F5
:100BE000180B00200C0B00202DE9F047354C8046F7
:100BF000002092468946A56801F058FAA268636809
:100C0000276813440133DB1B022B59D82E4E0121D8
:100C1000304601F069FAFFF787FC0146304601F0E3
:100C200063FA94E80A00A268134401335B1A022BAA
:100C3000EDD901260A40033246F0040366F3891316
:100C400044F8223003310020216001F037FABB1C48
:100C50002B4004EB830300211B48C3F80CA001F0D8
:100C600037FA80F31000BB192B4004EB8303000418
:100C70003D40033540EA1840D86014F8253068F349
:100C8000C50304F8253034F8253066F3891324F8B9
:100C9000253054F8252069F39F22134666F301039B
:100CA0006FF3820344F8252044F2200204F8253033
:100CB000A35C1BB1FFF736FD0028FBD1BDE8F08730
:100CC0003946B6E70C0B0020284B00202DE9F04FE9
:100CD0003C4C83B080460020934601938946A66829
:100CE00001F0E4F9A2686368276813440133DB1B51
:100CF000032B64D8344D0121284601F0F5F9FFF7A4
:100D000013FC0146284601F0EFF994E80A00A268B6
:100D1000134401335B1A032BEDD901250A4003323A
:100D20004FF0020A45F0040304316AF389130020EE
:100D300044F82230216001F0C1F907EB0A0EFA1CD9
:100D40000EEA060E324004EB820204EB8E0E019B8B
:100D50001D48CEF80CB00021D36001F0B9F980F342
:100D600010007A19324004EB820200043E40033640
:100D700040EA1840D06014F8262068F3C50204F851
:100D8000262034F826206AF3891224F8262054F805
:100D9000262069F39F22134665F301036FF3820354
:100DA00044F8262044F2200204F82630A35C1BB14C
:100DB000FFF7B8FC0028FBD103B0BDE8F08F39463F
:100DC000ABE700BF0C0B0020284B00202DE9F04FB3
:100DD0003F4C83B08046002089460193A668934625
:100DE00001F064F9A168636827680B440133DB1BD9
:100DF000042B6BD8374D0121284601F075F9FFF718
:100E000093FB0146284601F06FF994E80C00A168B5
:100E10000B4401339B1A042BEDD9012511404FF0EF
:100E2000030A033145F0040305326AF389130020F5
:100E300044F82130226001F041F9B81C07EB0A0E9A
:100E400030400EEA060E3A1D324004EB800004EBFF
:100E50008E0E04EB8202019BC0F80CB00021CEF88C
:100E60000C301C480C9BD36001F032F980F3100069
:100E70007A19324004EB820200043E40564440EAB4
:100E80001840D06014F8262068F3C50204F8262024
:100E900034F826206AF3891224F8262054F82620F4
:100EA00069F39F22134665F301036FF3820344F84D
:100EB000262044F2200204F82630A35C1BB1FFF781
:100EC00031FC0028FBD103B0BDE8F08F3A46A4E71F
:100ED0000C0B0020284B00202DE9F04144F21003B8
:100EE0002D4DEC580746002054B1237A834248D058
:100EF000234602E01A7A824243D05B68002BF9D184
:100F000044F210033872EA58002A41D052687A60DD
:100F1000EB585F60214E224B9B1BDB0836D0214DE6
:100F200006EBC30E4FF0070CF47997F80880AA6817
:100F30008C4208EB480828BF0C460CFA08F304F072
:100F4000070422EA030304FA08F42343C3F3C202AA
:100F5000C3F38214A24238BF224603F00704A24220
:100F600038BF2246C3F34224A24206F1080638BF26
:100F70002246B645AB606A6005F10C05D4D1BDE8E8
:100F8000F08101300A28AFD14FF0FF30BDE8F08189
:100F9000EF507A60BEE700BF0C0B00202CFC030072
:100FA0009CFC0300400400202DE9F04784B01D465E
:100FB0000C9C002394F80C802373EB8881460E462A
:100FC0001746002B3BD1297A05290FD06B7A002BCD
:100FD0003DD1404BA88853F821A00021FFF760FBCA
:100FE000524603463C49204601F036F9062F0FD8F9
:100FF000DFE807F0484D535A04633900F168B068E0
:1010000096E80C00019100904946204601F024F931
:101010002B7A052B05D06B7A5BB93049204601F05D
:101020001BF9204601F00CF984F80C8004B0BDE8EF
:10103000F0872B4A2B49204601F00EF9EDE7284AAC
:1010400000922949294A204601F006F9BBE7A88801
:10105000FFF752FB264B234953F82020204601F08E
:10106000FBF8297AB5E77069316996E80C000390BE
:10107000B068F76802918DE881004946204601F08A
:10108000EBF8C5E74946204601F0E6F8C0E73268CC
:101090004946204601F0E0F8BAE7494696E80C00D8
:1010A000204601F0D9F8B3E7B16896E80C00204675
:1010B0000091494601F0D0F8AAE7B068F7683169B5
:1010C00096E80C0002918DE881004946204601F027
:1010D000C3F89DE7D0DD0300C0DD0300CCDD0300D5
:1010E000B4DD0300BCDD03009CDD030094DD0300E0
:1010F0005CDD0300082900D970472DE9F04F1D463B
:10110000904600232A7B2B7385B0B8F806300392F3
:1011100007460E46002B6BD198F80810052911D010
:1011200098F80930002B6BD13C4BB8F8040053F809
:1011300021400021FFF7B4FA2246034638492846E9
:1011400001F08AF8DFF8F8B0DFF8F8900024A64242
:10115000494628463ED93A5D013401F07DF8082C15
:10116000F5D13049DFF8E090DFF8E0B0284601F033
:1011700073F8002411E017F804A03BF075FB50440D
:101180005946437813F0970F14BF52462E22284633
:10119000013401F061F8082C08D0A64249462846DF
:1011A000E9D8013401F058F8082CF6D198F8083045
:1011B000052B02D098F80930A3B91B49284601F045
:1011C0004BF8284601F03CF89DF80C302B7305B025
:1011D000BDE8F08F01345946284601F03DF8082C4F
:1011E000B5D1BEE7114A1249284601F035F8E4E7C7
:1011F0000E4A00920F49104A284601F02DF88BE75D
:10120000B8F80400FFF778FA0C4B094953F820208E
:10121000284601F021F898F8081085E7D0DD030092
:10122000C0DD03008CDD0300CCDD0300B4DD030072
:10123000BCDD03009CDD030094DD03005CDD0300E6
:1012400088DD030080DD0300C8DD030090DD0300BE
:10125000074B1B5C1F2B86BF03F01F0305494FF094
:10126000A041012202FA03F3C1F80C35704700BF18
:101270003CDE030000030050074B1B5C1F2B86BFA6
:1012800003F01F0305494FF0A041012202FA03F3C6
:10129000C1F80835704700BF3CDE03000003005072
:1012A000014B185C704700BF3CDE0300C20770B4FE
:1012B0000ED483070AD54FF0A0430C22C3F82C2785
:1012C000C3F83027C3F86027C3F8642770BC7047A1
:1012D0004FF0A04303224FF400564FF480454FF4E3
:1012E00000444FF48031C3F83427C3F83827C3F8DB
:1012F0003C27C3F84027C3F80865C3F80855C3F86E
:101300000845C3F80815D4E708B500F047FA00F01F
:1013100043F8002001F072FFBDE8084002F022B857
:1013200008B500F091F8FCE762B6704772B67047F6
:1013300010B582B002AC002304F8053D01932046AD
:1013400001F080FF9DF80330032BF8D904210DEB49
:10135000010001F081FF10B9019802B010BD00201A
:1013600002B010BD08B516F06DFBC0EB0010800296
:1013700008BD00BF38B50D46144602F03FF82946B7
:101380002046BDE8384002F009B800BFEFF3058001
:10139000003018BF0120704708B511F055FB48B95F
:1013A000054B1B7813B9054B1B781BB1BDE80840F2
:1013B00011F050BB08BD00BF3002002034020020F5
:1013C0002DE9F04706460D4611F03EFBF8B1F5B1A8
:1013D000DFF86CA0194FDAF80000DFF868804FF0F2
:1013E0000009C0F10804AC4228BF2C4631463844FD
:1013F00022463BF068FADAF8000020440828A5EB02
:1014000004052644CAF8000003D0002DE9D1BDE848
:10141000F087D8F80430022B05D8CAF800900020D5
:10142000002DDED1F3E7B8F8003004491B04024672
:1014300043F00300FFF73CFBEFE700BF304B002019
:10144000384B0020DC04002010B50C4C22682AB177
:101450000B4B5968022906D800232360FFF762F975
:101460000028FBD110BD18880649000440F0030095
:1014700092B2FFF71DFB00232360EFE7384B0020FB
:10148000DC040020304B00200378022B00D9704789
:1014900011F0EEBA10B44FF010234FF080515B6999
:1014A0000A6949690D4C581C0CBF4A431A464FF053
:1014B00080514FF010235B69086922614A69591C09
:1014C00008BF02FB00F3A3F54043E3600022044998
:1014D00002485DF8044B01F0E1B900BFE8040020C8
:1014E00060E003004FF48040704700BF0220704767
:1014F000012830D82DE9F0415C18B4F5804F84B054
:101500002FD28AB353B31E460C46074601210C2343
:101510000846904602948DE888004CF6C902DF2305
:10152000039616F0FFF94FF010224FF080535569E3
:1015300019695B696A1CA4F5404408BF03FB01F507
:1015400004EB87312944324640463BF0BCF9002089
:1015500004B0BDE8F0816FF0380070476FF00C0008
:10156000F6E76FF01600F3E76FF00B00F0E700BF4F
:1015700001283FD8F0B55C18B4F5804F87B03FD252
:10158000002A40D09C0838D00C46074601211E4650
:101590000C23084602948DE88800154640F2651336
:1015A0004CF6C902039616F0BDF94FF010224FF029
:1015B0008053526919695B69501CA4F5404408BF07
:1015C00003FB01F204EB8734144411F059FA0028AC
:1015D000FBD1059011F044FA0598009033462A4655
:1015E00021460A4801F08CF911F04AFA0028FBD193
:1015F00007B0F0BD6FF0380070476FF00C00F7E7F0
:101600006FF01600F4E76FF00B00F1E7E80400203C
:10161000012834D82DE9F0414FF010224FF08053CB
:1016200055691A695B69DFF85C80691C08BF03FBB8
:1016300002F505EB8035A5F5404582B0064605F577
:10164000804711F01DFA0028FBD1019011F008FA33
:101650000198012203462946404601F00BFA11F099
:101660000FFA04460028FAD105F58055BD42E8D1AD
:10167000304611F00BFA204602B0BDE8F0816FF061
:1016800038007047E8040020704700BF30B5154AA5
:1016900087B0126804924FF0102304255C694FF064
:1016A0008053611C1A695B6908BF03FB02F4A4F54F
:1016B0008044012108238DE838000846BE234CF6FB
:1016C000C90216F02FF921462A4605A83BF0FBF87F
:1016D0002A4605A804A93BF0E7F8B0FA80F04009D3
:1016E00007B030BD48DE030070B54FF010234FF057
:1016F00080555B692C696D695E1C18BF1C46A2F59C
:101700007F5308BF6C433C3B84B01C44A1B198B1EB
:101710000D460823012106468DE838000846BE2301
:101720004CF6C90216F0FEF82A462146304604B0AF
:10173000BDE870403BF0C7B804B070BD00487047CA
:101740004CDE03000249002280E80600704700BF1B
:1017500004000307B0F5A27F00D0704711F098B9DC
:1017600008B5FFF7EBFFBDE8084002F0A1BC00BFE1
:1017700008B5FFF7E3FF02F0A9FC00B108BDFFF7D1
:10178000DDFFBDE8084002F085BC00BF08B5FFF7EB
:10179000D5FFBDE8084002F099BC00BF10B584B089
:1017A00002A8FFF7CFFFFFF7C9FF02A90C4A02F01A
:1017B000C7FBFFF7C3FF0368D3F81045FFF7BEFF71
:1017C000E4B201214FF47032E2400091022302F0B2
:1017D000AFFCFFF7B3FF02F05DFC04B010BD00BF2B
:1017E0005517000000B585B000230390194601AAE3
:1017F00044F201000193029333F07AFC05B05DF8E6
:1018000004FB00BFF8B51E4D15F811300C46A3B10E
:1018100015F81130013BDBB205F8113015F8113025
:1018200023B14B00EA1852783ABBF8BD154E56F872
:1018300021301B680846DB6998476300EA18527834
:10184000CAB101271D446B78013BDBB26B706B782A
:10185000002BEAD10B4E56F824301B682046DB697A
:101860009847002FE1D056F8243002215868BDE88F
:10187000F84002F0A5BC034EF5E70027E2E700BF01
:10188000C08D00203C4B00202DE9F04F036893F8F9
:101890002140022C83B003D0082003B0BDE8F08FB4
:1018A0004F0016467A1803EB82020D4652689642A4
:1018B0000446B1465ED04168DFF860810A7918F8C5
:1018C0000230DBB2FF2B12D0FE2B09D003F5A87338
:1018D0000968504851F8231050F82230994201D03D
:1018E0001120DAE7FF2308F8023063681A79FE2333
:1018F00008F80230D4F800A09AF8200002F05AFA52
:10190000002E3ED0DAF818309E424DD205EB450B42
:101910004FEA8B0B0AEB0B025268934202D00AB1DA
:1019200096424BD363681B79FF2208F803203246A6
:101930007E190AEB860600232946606802F0DAFB6E
:10194000307A02F009FA707A02F006FA2F440AEBB4
:10195000870ACAF804902368DB6983B162682E4B5A
:10196000127903EB420302215955606802F010FC22
:10197000002092E7DB6913B1426810799847002094
:101980008BE707EB050B0AEB8B0BB1469BF80900C5
:1019900002F010FA9BF8080002F0DEF963681B7988
:1019A000FF2208F80320D1E77E190AEB86061FFA0A
:1019B00083F9307A02F0FEF9707AEDE70023032113
:1019C000606802F097FB7B1962689AF82010126831
:1019D00000910AEB830302F5A6729B7A01925AF8F2
:1019E0000B00A3B101F026FF02469DE8030002F0C0
:1019F00065F99AF8200002F0AFF96268054B127998
:101A000008F802506268127943F822608FE701F00B
:101A100003FFE9E7584B0020C08D0020504B002009
:101A20002DE9F04FD0F800E09EF82130022B83B072
:101A300003D0082003B0BDE8F08FBEF818304E0088
:101A40000D4604467118634802FB03F30EEB810256
:101A5000A0FB03135B0952689FB2974265D0606890
:101A6000DFF87C81017918F80120D2B2FF2A13D067
:101A7000FE2A0AD002F5A8720068DFF860E150F88B
:101A800022005EF82120904201D01120D2E7FF22EF
:101A900008F8012062681179FE2208F80120D4F8C4
:101AA00000901FFA83FA99F8200002F083F9BAF146
:101AB000000F42D0D9F818B05F454ED205EB450A69
:101AC0004FEA8A0A09EB0A035A68934502D00AB121
:101AD000974253D363681B79FF2208F8032006EB73
:101AE000050809EB880800233A462946606802F099
:101AF00001FB98F8080002F02FF998F8090002F0AD
:101B00002BF92E4409EB8609C9F804702368DB69B8
:101B10008BB16268304B127903EB420302215955B5
:101B2000606802F035FB002084E7DEF81C3013B15A
:101B300062681079984700207CE7771909EB8707DE
:101B4000787A02F037F9387A02F006F963681B797F
:101B5000FF22574608F80320D3E7771909EB8707D8
:101B6000387A02F027F9787A02F0F6F863681B7980
:101B7000FF221FFA8BF708F80320C2E700236068F2
:101B8000032102F0B7FA7319626899F820B012685D
:101B900059F80A0009EB830302F5A6729B7A0192B9
:101BA000A3B101F047FE02460199584602F086F8BB
:101BB00099F8200002F0D0F86268084B127908F812
:101BC00002506268127943F8227088E701F024FE1F
:101BD000E9E700BF1F85EB51C08D0020584B002066
:101BE000504B00202DE9F04F8BB041B1066896F8BC
:101BF00021304BB1082738460BB0BDE8F08F0B27DA
:101C000038460BB0BDE8F08F0C469246054601F011
:101C1000D7FA18B1852801D00427ECE701F00CFDB4
:101C2000002800F06B81CB4BCB4A1B6803F0F0031C
:101C30004FF0FF084FF0FF37303B4FF0000918BF5F
:101C4000012386F8208086F8088086F8098086F8C7
:101C5000158086F80B9086F8179037603775F76017
:101C600006F12000137001F09BFF002840F0218155
:101C7000029607464FF009094FF4A07BCDF80CA05F
:101C8000264656F82740611C5FFA87FA00F09C80D0
:101C9000D5F8008098F82110002900F069814346AA
:101CA000082793F82000984601F0D4FF08F1180A9D
:101CB000FF244FF0FF39002698F80800FF2803D0D2
:101CC00001F0C8FF88F8084098F80900FF2803D001
:101CD00001F0C0FF88F80940D8F80000421C03D08A
:101CE00001F04EFDC8F8009088F80B6008F10C0870
:101CF000C245E1D1686802F09FF97CE748F82340CB
:101D0000079B002B00F076811F2C86BF04F01F0478
:101D100092484FF0A040012101FA04F4C0F80C45AC
:101D200009F1FF304044049201F03AFF049A002880
:101D300040F0468108EB0900049201F031FF049A5B
:101D4000002840F03D81D41908EB84040492207AE5
:101D500002F030F8607A02F02DF8079B049A0592A1
:101D6000069C002B00F05381206801F063FD049075
:101D7000206801F051FD0499059A044668683A44C8
:101D8000036808EB82080A4698F8080003EB0B0189
:101D900001F094FF6A6898F809001168224601F57D
:101DA000A47101F08BFF012288F80B206A686C4B4C
:101DB00014794FF0000E03EB440451467246284656
:101DC00004F807E0FFF760FD09F10C09B9F1210FF4
:101DD00007F101070BF1040B7FF453AF3446DDF834
:101DE0000CA02369029EB3F5805FC0F0F380B3F5C9
:101DF000005FC0F0ED80B3F5804FC0F0E780B3F531
:101E0000004FC0F0ED80B3F5803FC0F0ED80B3F53A
:101E1000003FC0F0E780B3F5802FC0F0E980B3F554
:101E2000002FC0F0E380B3F5801FC0F0CC80B3F585
:101E3000001F4FF00903C0F0C7804FF000080722D1
:101E400068688DF823208DF820308DF821808DF87A
:101E500022800379434A099308A902F071F80746E2
:101E6000002852D16B6824691B68D3F8103524010F
:101E7000DBB2DC40B46168684FF0010802F036F96B
:101E80006868CDF8008022460423022102F050F950
:101E90000221686802F094F9C6F81CA06B68324809
:101EA0001B79324A86F82180FF2140F82350D15413
:101EB000A1E62C6894F8200001F0CCFE04F118068D
:101EC000207AFF2803D001F0C5FE84F80880607AEC
:101ED000FF2803D001F0BEFE84F809802068431C6F
:101EE00002D001F04DFC276084F80B900C34B44212
:101EF000E6D1686802F0A0F804277CE601F054FB04
:101F000000283FF490AE032775E62C6894F8200073
:101F100001F0A0FE04F11809FF264FF0FF3A207AE5
:101F2000FF2802D001F096FE2672607AFF2802D0C8
:101F300001F090FE66722068431C03D001F020FC83
:101F4000C4F800A084F80B800C34A1453FF4D2AE55
:101F5000E5E700BFE80F00F06C4B002000030050E5
:101F6000C08D0020051800003C4B0020504B002085
:101F70007A00D3194FEA830EF019049308EB0E038D
:101F80000592027A9A7259602968069371444FF05B
:101F900003038DF8203091F80AE007920120BEFA81
:101FA0008EFE8DF822004FEA5E1E08A920468DF8AD
:101FB00021E001F04BFB049B059A00283FF49EAE04
:101FC0002B6804276DE60823DBB236E70223FBE724
:101FD0000123F9E7134B1B78002BF5D001232CE7E5
:101FE0000323F1E70523EFE70423EDE70723EBE7FE
:101FF0000623E9E71F2C86BF04F01F040A484FF0B0
:10200000A040012101FA04F4C0F8084588E62068E0
:1020100001F002FC0490206801F00CFC059A049980
:102020000446ABE66C4B002000030050F8B5436853
:1020300005681A791B4EEB7A0027044606F81270E1
:10204000B3B96268EB7D127906EB42060027777020
:10205000DBB96368144A1B79FF21D154606802F030
:1020600045F8606802F016F8022385F82130F8BDC3
:1020700003682868997AB1FA81F1490901F0E8FB0F
:10208000286801F0B7FB6F60DBE72368E868997D9B
:10209000B1FA81F1490901F0DBFBE86801F0AAFB24
:1020A0002F61D6E7C08D0020504B002072B6024A47
:1020B0001368013313607047704B0020034A1368A4
:1020C000013B136003B962B6704700BF704B00203C
:1020D00000B550E8002F0B4640E8003E9EF0000F90
:1020E000F7D110465DF804FB00B550E8003F03EB64
:1020F000010240E8002E9EF0000FF6D110465DF878
:1021000004FB00BF00B550E8003FA3EB010240E82C
:10211000002E9EF0000FF6D110465DF804FB00BFC4
:1021200000B5012350E800EF4EEA030240E8002129
:1021300091F0000FF6D170465DF804FB00B5012365
:1021400050E8002F42EA030E40E800E191F0000F52
:10215000F6D170465DF804FB00B5002350E800EFAF
:102160000EEA030240E8002191F0000FF6D170461C
:102170005DF804FB00B5002350E8002F02EA030ECF
:1021800040E800E191F0000FF6D170465DF804FBE5
:10219000B8B130B4416882680468521AD2B2531E92
:1021A0002160DBB242B101680A685C1E551C0D60FB
:1021B0001370E3B2FF2BF6D103680020187130BC16
:1021C00070470E20704700BF70B504460020FFF72F
:1021D0006DFF236861681A688A4215D9511E19601B
:1021E0002168A3680D680879A68A12F8012CE468B2
:1021F0005B1BDBB2984206FB024400D20B7100204D
:10220000FFF75CFF204670BD00240020FFF756FF5B
:10221000204670BD38B5054600200C46FFF746FF46
:102220002A681368591C1160E968AA8A641AB4FB09
:10223000F2F41C700020BDE83840FFF73FBF00BF3C
:10224000826802B9704710B50446436901680069A5
:1022500098470023A36010BD0EB400B582B0039967
:1022600029B102AA04AB42F8043D00F095F802B08F
:102270005DF804EB03B070472DE9F84F1746B942FB
:10228000884606461D46DDF828B00B9A7DD30B46DE
:102290004FF00109B3FBF7F39F4209F10109F9D9A6
:1022A000A94538BFA94612F0010A02D1BBF1000FBF
:1022B00049D1B268012402E0013D07FB04F4012D7D
:1022C000FAD8B8FBF4F18F42F7D9324D05E0B4FBF0
:1022D000F7F4A4B1B8FBF4F1B268685C531CB360C6
:1022E00033689854B26873689A4204FB1188EED33D
:1022F0003046FFF7A5FFB4FBF7F4002CEAD1BAF1A2
:10230000000F16D0BBF1000F33D0CB4588BF20247F
:102310003ED9B3683268591CB160D454B26873684E
:102320009A420BF1FF3B06D2BBF1000F09D0D94511
:10233000EFD1BDE8F88F3046FFF782FFBBF1000F09
:10234000F5D1BDE8F88F93071AD42024CB45B0D936
:10235000B2683368511CB1609C54B26873689A4289
:102360000BF1FF3B07D2BBF1000FA3D0CB45F0D15F
:10237000A0E7BDE8F88F3046FFF762FFB268F2E7EA
:10238000002D0CBF30242024E0E74FF0010987E73F
:10239000BDE8F88F54DE0300002900F06F822DE9BC
:1023A000F04F064685B093460C460B780DE0B268B8
:1023B0003168501CB0608B54B26873689A4280F0E8
:1023C000D3802378002B00F0BA800134002B00F07A
:1023D000B680252BEBD14FF00008234614F8012BD3
:1023E0002D2A00F0BB80302A00F0BB802B2A00F0A1
:1023F000AD802A2A00F0BC80A2F13005E9B209299B
:1024000098BF013302D9A9E1A1F130051C4613F8A8
:10241000012BA2F1300005EB8501092802EB4101F7
:10242000F2D92E2A00F0B080002701E014F8012F25
:1024300002F0FB03682BF9D0253A532A7AD8DFE85B
:1024400012F07A0179007900790079007900790039
:1024500079007900790079007900790079007900B4
:1024600079007900790079007900790079007900A4
:102470007900790079007900790079007900790094
:102480007900790079007900790079007900790084
:102490007900790079007900790079007900790074
:1024A00079007900790079006A0179007900790072
:1024B0007900790079007900790079007900550177
:1024C000FC007900790079007900FC00790079003E
:1024D0007900790079007900540079007900CA0008
:1024E0007900BA00790079006A01DBF80020131D39
:1024F000CBF80030B368156831685A1CB2604FF0F1
:102500003002CA54B3687268934280F0A081326886
:10251000581C7821B060D154B26873689A4280F038
:10252000928100220823019229460093102230460E
:10253000FFF7A2FE01342378002B7FF446AF337BF4
:10254000002B40F0058105B0BDE8F08F234614F85C
:10255000012B2D2A48F004087FF445AF48F001080C
:102560003BE748F0020838E73046FFF769FE28E706
:10257000DBF80020111DCBF8001015685A782E2AC0
:1025800003F101047FF450AF6278A2F13003092B0C
:1025900004F101044FF000073FF64AAF07EB87074D
:1025A00002EB470714F8012FA2F13003092BA7F122
:1025B0003007F3D93CE7DBF800301A1DCBF80020D8
:1025C0001968CDF804803B4600950A223046FFF793
:1025D00053FE0134AFE7DBF800301A1DCBF80020C2
:1025E00018F0010FD3F8009040F0BB80B9F1000F54
:1025F00000F0478148463AF0CBFC0746BD4240F226
:10260000F180002D00F0EE804FF0200805E0BD4283
:1026100000F0E880002D00F0E580B3683268591CB6
:10262000B16002F80380B26873689A4205F1FF3521
:10263000EDD33046FFF704FEE9E7DBF800301A1D62
:10264000CBF80020D3F8009089EAE973A3EBE97393
:10265000092B4FF0010A09DD8F4A82FB0312DB17B9
:10266000C3EBA203092B0AF1010AF5DCBA4538BF16
:10267000BA462DB3B9F1000F02DB18F0040F00D0F9
:10268000013D18F0020F40F0F58018F0010F17D14E
:10269000002D00F0FE80AA4538BF202110D2B2687C
:1026A0003368501CB0609954B26873689A4205F15F
:1026B000FF3580F0E880002D00F0EB80AA45EED1D8
:1026C000B9F1000FC0F2C88018F0040F7BD108F0F8
:1026D0000303022B00F09A808DE820013B46494617
:1026E0000A223046FFF7C8FD013424E7DBF800205A
:1026F000131DCBF80030B36831681278581CB060F5
:10270000CA54B26873689A42FFF414AF3046FFF7B8
:1027100097FD01340FE7DBF800301A1DCBF80020DD
:102720001968CDF804803B46009510223046FFF72B
:10273000A3FD0134FFE6B3683268591CB1604FF065
:102740002501D154B26873689A42DFD20134F2E6AF
:10275000304605B0BDE8F04FFFF772BD1C460025BE
:102760005FE64F46A7EB090817F8013B8BB1B2684B
:102770003168501CB0608B54B26873689A42F1D3D0
:102780003046FFF75DFDA7EB090817F8013B002B6A
:10279000EDD145457FF6CEAE202705E045453FF417
:1027A000C9AE002D3FF4C6AEB3683268591CB160A3
:1027B000D754B26873689A4205F1FF35EED33046BC
:1027C000FFF73EFDEAE7B2683368501C2B21B0608A
:1027D0009954B26873689A42FFF479AF3046FFF7B4
:1027E0002FFD74E709F1FF3919F8013F002B3FF481
:1027F000A1AEB2683168501CB0608B54B268736887
:102800009A42F1D33046FFF71BFDEDE7002F7FF42E
:1028100063AF002D33D0AA45BFF45EAFB268336812
:10282000511CB1604FF030019954B26873689A42FC
:1028300005F1FF3503D215B3AA45EFD14CE7304679
:10284000FFF7FEFCF7E73046FFF7FAFC69E6304693
:10285000FFF7F6FCB3685AE6B2683368501C2D21C6
:10286000B0609954B26873689A42C9F10009FFF4E4
:102870002EAFB3E7002F3FF423AF06E770470025E4
:102880002AE74F46BAE630460391FFF7D9FC039991
:1028900011E7002514E700BF6766666610B582B0D1
:1028A000D8B131B101600B68114602B0BDE81040EB
:1028B00018470E4B5A6812B90E2002B010BD188886
:1028C0000B4A0C4B0C490E24000440F0010000940C
:1028D000FEF77CFA0E2002B010BD044B5A68002AA5
:1028E000EAD01888054A034BECE700BFB804002083
:1028F0004CDF030064DE030020DF030018DF030069
:102900002DE9F04383B0DDF8288000282CD016464E
:10291000002A31D0D0F800E0BEF1000F3DD01C46B7
:102920003BB9494B5A68002A3DD1092003B0BDE8A4
:10293000F0834768D7F80490B3FBF9F709FB173722
:1029400057B911F0030F3DD03F4B5A68002A77D199
:10295000102003B0BDE8F0833B4B5A68002AE4D056
:1029600018883A4A3A4B21E0374B5A68002A4ED130
:102970000E2003B0BDE8F083334B5A68002AF7D02D
:102980001888344A324B34490E24000440F00100C8
:102990000094FEF71BFA2046C8E72B4B5A68002A22
:1029A00039D10820C2E718882C4A294B2A49092422
:1029B000000440F001000094FEF708FA204603B03E
:1029C000BDE8F083B60711D1C668B14230D301F13A
:1029D000FF3C05696444AC422AD8CDF82880DEF873
:1029E0000C40A44603B0BDE8F0436047164B5A685C
:1029F000002AADD018881A4A154B17491024000434
:102A000040F001000094FEF7E1F920468EE71888B7
:102A1000144A0F4BB7E71888134A0D4B0E49082488
:102A2000000440F001000094FEF7D0F920467DE755
:102A3000054B5A68002A8BD018880C4A044BDCE7F7
:102A400018880B4A024BD8E7B8040020B4DF030013
:102A500078DE0300ACDF030020DF03005CDF03004F
:102A6000F8DF030018DF0300A0DF03001CE0030011
:102A7000E0DF0300F0B583B0002831D0D0F800E0EB
:102A8000BEF1000F32D032B9354B5A68002A32D12C
:102A9000092003B0F0BD4768D7F800C00CF1FF373C
:102AA0000F420FD1C768B94212D34E1E04690CFB06
:102AB0000265A5420CD8DEF81040A44603B0BDE87C
:102AC000F0406047264B5A681ABB102003B0F0BD97
:102AD000234B5A68002AF8D01888224A224B1BE060
:102AE0001F4B5A6812BB0E2003B0F0BD1C4B5A6836
:102AF0004ABB0820CDE718881C4A1B4B1C490924F7
:102B0000000440F001000094FEF760F9204603B095
:102B1000F0BD1888174A144B15491024000440F0E2
:102B200001000094FEF752F92046B2E71888124AD5
:102B30000D4B0F490E24000440F001000094FEF7F5
:102B400045F92046A5E718880C4A074B0849082490
:102B5000000440F001000094FEF738F9204698E7A1
:102B6000B8040020C8DE03008CDE03005CDF030035
:102B700020DF0300A0DE030018DF0300A0DF030056
:102B8000014B43600020704754E003000846704743
:102B900000207047024B1868003018BF01207047B2
:102BA000744B002008B50248FFF7E4FA002008BD86
:102BB000744B002008B510461A4639F084FE0020F8
:102BC00008BD00BF2DE9F043804687B017480F4687
:102BD00016469946FFF7A4FA18B1112007B0BDE8D0
:102BE000F0834EB104463D462846013400F00EFC09
:102BF000A64205F58055F7D10C48FFF7BBFAD8F887
:102C000008307BB100240222684602970496CDF872
:102C100014908DF80020019403949847204607B043
:102C2000BDE8F083184607B0BDE8F083744B002080
:102C30002DE9F041804686B013480F4616461D46E2
:102C4000FFF76EFA18B1112006B0BDE8F081AA08AE
:102C500031460446384600F0F1FB0B48FFF78AFA8C
:102C6000D8F8083073B101220C9901946846029794
:102C70000396049505918DF800209847204606B0EC
:102C8000BDE8F0811846DFE7744B0020FFF780BAFB
:102C90002DE9F041B0F81480CF1CA8F10408474496
:102CA0000646B7FBF8F7FFF78FFA80B3FFB20025AF
:102CB0000123013F0446A0F80680066005714371B8
:102CC00028D0804609E06379AF4203F101036371C4
:102CD000C8F80000066080461CD03046FFF774FA42
:102CE00001350028EFD16679721E16D023460130D7
:102CF00082421B68FBD81F684EB1214600250C6834
:102D000001353846FFF786FAAE422146F7D100205A
:102D1000BDE8F0812046BDE8F0812768EDE700BFFF
:102D200004300121FFF7E0B9F8B501210446043071
:102D3000FFF7E8F9C0B200B1F8BD6679721E12D093
:102D40002346013082421B68FBD81F68002EF3D057
:102D5000214600240D6801343846FFF75BFAA6428D
:102D60002946F7D1F8BD2768F2E700BF2DE9F843FF
:102D7000C68804330F46B3FBF6F5904606FB1533C1
:102D8000044615B1013D2468FCD1F51A454528BF1C
:102D90004546B8F1000F15D04FF000090433E01894
:102DA000A8EB05082A4607EB090139F08CFD4645DA
:102DB000A944246835464FF0000328BF4546B8F1C2
:102DC000000FEBD1BDE8F8832DE9F843C688043342
:102DD0000F46B3FBF6F5904606FB1531044615B1D8
:102DE000013D2468FCD1751A454528BF4546B8F118
:102DF000000F15D04FF0000904312144A8EB05085D
:102E00002A4607EB090039F05EFD4645A9442468CF
:102E100035464FF0000128BF4546B8F1000FEBD111
:102E2000BDE8F8830368826818685B68934234BF22
:102E300001330023C01AB0FA80F04009704700BF88
:102E4000F8B5044600200E46FFF730F92368A56860
:102E500019685A68AA4234BF01320022914212D046
:102E600058685A6895420BD800225A60E268531E8F
:102E7000072B4ED8DFE803F035394D274D4D4D1067
:102E800001325A60F2E7227C002A33D00424002069
:102E9000FFF714F92046F8BD6368D6E9006703EB35
:102EA000C000C0E90067226813685068834213D8E5
:102EB000C31A9168994238BF936000240020FFF73D
:102EC000FDF82046F8BD6368326843F82020226888
:102ED000136850688342EBD9A16801310144CB1AD1
:102EE000E7E7636832781A54DDE76368328823F8CD
:102EF0001020D8E7586859688D4211D901315960BE
:102F00002268A16813688B4234BF01330023136029
:102F1000ACE76368314600FB023039F0D4FCC2E70D
:102F20005A60EDE72DE9F041144612B92046BDE89C
:102F3000F081054600200E46FFF7B8F82A681368AE
:102F400051688B4209D8CB1A9C420CD90524002029
:102F5000FFF7B4F82046BDE8F081A86801300144CD
:102F6000CB1A9C42F2D8D2F8008057686968EA68A8
:102F7000B84584BFAF680137A7EB0807BC4202FB26
:102F800008110ED802FB04F2304639F09CFCA96807
:102F90002B6804EB08028A4288BF00221A600024D2
:102FA000D5E707FB02F84246304639F08CFCEA6868
:102FB0006968E71B06EB080002FB07F239F083FCA7
:102FC0002B6800241F60C2E710B504460020FFF7FD
:102FD0006DF8226813685268934208D9A4680134D6
:102FE0001444E41A0020FFF769F8204610BDD41AF3
:102FF0000020FFF763F8204610BD00BF30B4184D25
:10300000A5F58C72AB1ADB1003EBD3735B1002EBEC
:10301000C30152F83330984228BF0C4605D311E063
:1030200052F8333098420CD221468B1ADB1003EB56
:10303000D3735B10914202EBC304F1D8094830BC52
:1030400070470D46984204D904F10802AA42D9D328
:10305000F4E76068034B002808BF1846EFE700BF9D
:10306000ACE1030080E0030010B568B101280AD18B
:103070000C4C2369A07033B10CCB0120226198471E
:103080002369002BF8D110BD064CA36801226270A1
:10309000002BF8D00CCB0020A2609847A368002B2F
:1030A000F8D110BD784B002010B50B4C237882B0BE
:1030B00013B1852002B010BD08486360A36023618E
:1030C000E36000F0E1F9019000F0ECF901980123D0
:1030D000237002B010BD00BF784B002069300000A3
:1030E00038B5154DAB78044673B110B14368012073
:1030F00098470020FEF7DAFFEB680133EB60002011
:10310000BDE83840FEF7DABF03F0FF00FEF7CEFF60
:1031100064B12A6942B1944208D0134601E09C424E
:1031200004D01B68002BFAD122602C61EB68002BC5
:10313000E2D100F0CBF9DFE7784B002038B5154D30
:103140006B78044673B110B14368002098470020A3
:10315000FEF7ACFF6B6801336B600020BDE83840C0
:10316000FEF7ACBF03F0FF00FEF7A0FF64B1AA6852
:1031700042B1944208D0134601E09C4204D01B683F
:10318000002BFAD12260AC606B68002BE2D100F01A
:10319000B5F9DFE7784B002038B5084C0020FEF782
:1031A00085FF6368013B6360656815B900F0B8F995
:1031B00065700020BDE83840FEF780BF784B0020E6
:1031C000034B187808B18520704701221A707047A8
:1031D0008C4B002000B583B002A901F8010D064810
:1031E000FFF72EFE0448FFF71DFE08B100F084FE35
:1031F00003B05DF804FB00BFB4FC030010B50E4C37
:10320000227882B012B1852002B010BD0B4A0C4961
:103210000346002808BF134620461B8820F8013FBC
:1032200000F026FE0028EFD1019000F053FE019837
:103230000123237002B010BDE04B002074E50300B1
:10324000D531000010B504460248FFF7BDFE2070DE
:1032500010BD00BFB4FC030010B50A460146044887
:10326000FFF760FE044600F035FE204610BD00BFAB
:10327000B4FC030070B50A4A0A4B06784568047A24
:10328000C06853F8213052F8211084B003908DF8B3
:10329000006001958DF808406846984704B070BDFD
:1032A000E44B0020EC4B002070B50A4A0A4B06782C
:1032B00045688468C06853F8213052F8211084B002
:1032C00003908DF8006001958DF808406846984796
:1032D00004B070BDE44B0020EC4B00202DE9F0431E
:1032E000DFF8748006784B7F08F806300D460746F5
:1032F00094460FCD89B06C460FC495E80F003D7819
:10330000DFF85890DFF858E018F8055049F826C063
:1033100084E80F004EF82600049665B1BCF1000F5A
:103320000B4A694607F1040008BF002201F096FB32
:1033300009B0BDE8F083BCF1000F064A694607F109
:103340000C0008BF002201F019F909B0BDE8F083B4
:1033500075320000A9320000CC8D0020EC4B00201B
:10336000E44B002030B4084B0848094C09490A4A8C
:10337000036003F1100503F1200008602560C2F826
:103380000435012030BC7047FC4B00202C4C002041
:10339000F84B0020F44B002000E0004010B5144B27
:1033A0001B688B42044603D01846102239F08BFA72
:1033B000104B00220121C3F800214FF080701A4603
:1033C000196001E0013811D0D2F80031002BF9D09A
:1033D0000021094BC2F800111968A14205D020460E
:1033E000102239F070FA012010BD012010BD00BF7D
:1033F000F84B002000E00040F44B0020024B014657
:103400001022186839F05FBA2C4C00200A4A0223B7
:10341000C2F80435BFF36F8FBFF34F8FC2F80805B2
:10342000D2F80034002BFBD00023C2F80435BFF3E0
:103430006F8FBFF34F8F704700E00140114B10B406
:103440000124C3F80445BFF36F8FBFF34F8F6AB1F8
:1034500000EB820404391A4651F8043F40F8043B5B
:10346000D2F80034002BFBD0A042F5D1054B00224E
:10347000C3F80425BFF36F8FBFF34F8F5DF8044B84
:10348000704700BF00E00140054A13790BB1852069
:10349000704701211060537118461171704700BFC9
:1034A000304C0020084B1A68D20706D40122E021D4
:1034B00083F80013C3F880211A604FF08043012283
:1034C000C3F81825704700BF00E100E010B4094BB5
:1034D000094A0021196083B01B680193019C4FF0D9
:1034E000804102200123C1F80403136003B05DF89A
:1034F000044B70470401004008000040074B0022C5
:103500001A6082B01B68019301994FF08043012239
:10351000C3F804231A6002B0704700BF00010040E6
:10352000074B01221A604FF08042D2F80C3403F0AE
:103530000113B3F1011FF8D0024B00225A717047FA
:1035400004000040304C002010B5144B1A6882B0C3
:1035500062B10021124A19601B68507900934FF044
:1035600080410123009CC1F8083390B10D4B1A68CB
:103570006AB100221A601B6801934FF08042022159
:10358000074B0198C2F808131B680120984702B046
:1035900010BD116853718847E8E700BF0001004083
:1035A000304C00200401004070B51F4C94F85B5073
:1035B00082B015B1082002B070BD4FF0FF3329462C
:1035C000062204F155006362A362E362236363632E
:1035D000A363E36323646364A364E36423652360F8
:1035E0006360A360E36023616361A361E3612362BD
:1035F00084F8543039F08CF90C4B0D4A0D4E15609F
:103600004021E02083F80603C3F880111960136895
:10361000019301994FF000430122284684F85B2072
:10362000C6F8043302B070BD384C002000E100E061
:103630007C61004000600040034B93F85B00003069
:1036400018BF0120704700BF384C002070B4494BB0
:103650001A1892F92440013402D0082070BC704737
:103660008C78DCB11A68013277D05A68013276D092
:103670009A68013275D0DA68013274D01A69013261
:1036800073D05A69013272D09A69013231D0DA6945
:10369000013208BF07252DD00420DFE7FE2382F882
:1036A00024304B78012B4BD01F2887BF00F01F011F
:1036B000314A01464FF0A04201238B40C2F80C353D
:1036C0001F288BBF00F01F0303462B4A4FF0A04278
:1036D00003F5E073032142F8231020FA01F3274A8F
:1036E00000F00704D15C0120A0400843D054002022
:1036F000B4E70625AA0002F1804202F5C0421E1876
:10370000002443F8254086F82450D2F810450B7861
:103710004D7824F4991424F4F8541B042D05C2F8B0
:10372000104505F4801503F4403304022B4304F4E0
:103730007C54D2F8105523432B43C2F81035B0E720
:103740001F2887BF00F01F010B4A01464FF0A0421F
:1037500001238B40C2F80835B2E70025CAE70125EE
:10376000C8E70225C6E70325C4E70425C2E7052507
:10377000C0E700BF384C0020000300508D4C0020F3
:1037800070B4184B1A1892F92420D1B2072909D81D
:1037900002F5A272144C4FF0FF36002543F8216069
:1037A00044F822500344FF2283F824200F49C20822
:1037B00000F007058C5C0123AB401C4210D01F2891
:1037C00088BF00F01F0000F5E0708CBF084C4FF080
:1037D000A044022544F82050885C20EA03038B545F
:1037E00070BC7047384C0020006000408D4C0020B9
:1037F00000030050074B184490F924309B0003F15C
:10380000804303F5C043D3F8102542F00302C3F808
:1038100010257047384C0020054B184490F92400BF
:103820000C308000C0B200F1804000F5C04070470D
:10383000384C0020054B184490F9240018308000C3
:10384000C0B200F1804000F5C0407047384C002005
:103850000A4B18440A1C90F924304FEA830303F101
:10386000804303F5C04318BF0122D3F8101521F49B
:10387000801141EA0251C3F810157047384C0020FE
:103880002DE9F04389B00023B94A039302931168EC
:10389000012900F00B811E46B64B1A68012A00F080
:1038A000F780B54B1A68012A00F0E480B34B1A6820
:1038B000012A00F0D180B24B1A68012A00F0BE80C4
:1038C000B04B1A68012A00F0AB80AF4B1A68012A8E
:1038D00000F09880AD4B1A68012A00F08580AC4B4F
:1038E0001A68012A6FD016F0FF0F1AD0A94F0125D0
:1038F0000024A30003F180432E4203F5C0434FEAA6
:1039000045050BD0D3F8100557F82420D3F810152F
:10391000C0F30520C1F3014102B190470134082CE6
:10392000E7D1002E02DB09B0BDE8F083994D95F98F
:1039300054304FF0FF320DF1100800219342C8F8C7
:103940000410049106920792EDD0DBB223F0C00080
:1039500008AA4FEAD00E02EB0E04012603F007027C
:1039600014F8081C06FA02F21142DCD08A4E4FF01D
:10397000A04705EB000C99099CF924C055F82C9040
:10398000B9F1000F00F0AB80032900F0AB801F28D5
:1039900000F2A18086464FF0A04303EB8E0314F89B
:1039A00018ECD3F800471EEA020FC4F3014440F0BC
:1039B0008980032CB7D1032900F09B80B9F1000F57
:1039C000B1D0C847AFE700221A601B6801934FF0DF
:1039D000A042019BD2F810256F4B0292D3F810350C
:1039E000039346F000467EE76C4AD2F804231106A2
:1039F0007FF575AF00221A601B680093009B46F0AC
:103A000080066CE7654AD2F8042350067FF562AF62
:103A100000221A601B680093009B46F0400659E79D
:103A20005E4AD2F8042394067FF54FAF00221A6055
:103A30001B680093009B46F0200646E7574AD2F8E1
:103A40000423D5067FF53CAF00221A601B68009363
:103A5000009B46F0100633E7504AD2F804231707BC
:103A60007FF529AF00221A601B680093009B46F087
:103A7000080620E7494AD2F8042352077FF516AF1B
:103A800000221A601B680093009B46F004060DE7B5
:103A9000424AD2F8042391077FF503AF00221A604F
:103AA0001B680093009B46F00206FAE63B49D1F8FA
:103AB000046316F001063FF4EFAE13601368009341
:103AC000009BE9E6022C7FF42EAF03297FF476AF4A
:103AD0004FF440310FE003F01F0E33465DE703293A
:103AE0007FF421AF18F80EC04CEA020C08F80EC0A3
:103AF0004DE74FF40031D3F8002722F44032C3F8E9
:103B00000027D3F800270A43C3F80027B9F1000FB4
:103B100001D00321C847D7F81025029BD6F810150D
:103B2000934203D1039B8B423FF4FDAE95F9543091
:103B3000049C059802925A1C0391069407903FF446
:103B4000F2AEDBB223F0C00008AA4FEAD00E02EBBF
:103B50000E044FF0010C03F0070214F8081C0CFAD5
:103B600002F211427FF405AF09B0BDE8F08300BF57
:103B70000061004004610040086100400C610040A9
:103B80001061004014610040186100401C61004059
:103B90007C610040384C0020000300500060004071
:103BA0002DE9F84F254DDFF8A8A0834600264FF0F9
:103BB000010803E0FEF782FAA5431FD0F7B2002008
:103BC00008FA07F4FEF772FA2C424FF0000006F1F3
:103BD0000106EFD0DAF8003014EA0309EAD1184DF3
:103BE0008BF800701C434846CAF80040FEF766FA9E
:103BF0006B68022B18D84846BDE8F88F104D4FF07F
:103C000004096B68022BF6D92D884846FFF7F6F9B0
:103C10002D0445F0030503460A4A0B492846FDF7E3
:103C200055F84846BDE8F88F2888084900043A4608
:103C300040F00300FCF7D8FFE3E700BFFFFF0F00F1
:103C400094040020A0E5030034E603001CE6030012
:103C5000944C002038B501248440C4F313039BB96D
:103C60000724114B5A68022A0CD91D882046FFF7F9
:103C7000C5F92D0445F0030503460C4A0C492846B6
:103C8000FDF724F8204638BD0A4B0020C3F808454C
:103C9000FEF70CFA084A1368002023EA04041460B3
:103CA0000446FEF70BFADCE794040020B8E50300B5
:103CB00034E6030000F00140944C002030B583B09E
:103CC00069B362B301238340C3F31304A4B91D4D48
:103CD00007246B68022B0CD92D882046FFF78EF93C
:103CE0002D0445F003050346174A18492846FCF7FA
:103CF000EDFF204603B030BD154C2468234212D09E
:103D0000104DC30003F180436C6803F5F833022CB7
:103D1000C3F81015C3F8142508D80024E9E70E24C9
:103D2000204603B030BD074D0824D2E72C8800920E
:103D300024040B460246074944F00300FDF746F809
:103D40000024C6E794040020D0E5030034E6030015
:103D5000944C002054E6030038B5012303FA00F028
:103D6000C0F313032BB10E4B1B68184201D108247A
:103D700003E00C4B0024C3F804050B4B5A68022ADD
:103D80000CD91D882046FFF739F92D0445F00305AD
:103D90000346064A06492846FCF798FF204638BDE8
:103DA000944C002000F0014094040020E8E503005A
:103DB00034E6030038B5012303FA00F0C0F313031F
:103DC0002BB10E4B1B68184201D1082403E00C4BA9
:103DD0000024C3F808050B4B5A68022A0CD91D8829
:103DE0002046FFF70BF92D0445F003050346064A6C
:103DF00006492846FCF76AFF204638BD944C00204F
:103E000000F001409404002000E6030034E60300C3
:103E1000014B1B68184700BF984C002038B50C4B6D
:103E2000984201D0002038BD00200D46FEF73EF933
:103E3000084B1C7924B10020FEF740F9112038BD51
:103E4000012220461D601A71FEF738F9204638BD60
:103E500000200040984C0020034B984203D1034BB4
:103E600000221A601A71704700200040984C002010
:103E7000144B1A780AB18520704730B40278124C7E
:103E8000D207216006D51149D1F8042542F001027C
:103E9000C1F804250D4C0E49D4F8002222F001028D
:103EA000C4F80022427852014FF400540125D2B2E6
:103EB00081F80D23C1F880410C601D70002030BCDA
:103EC000704700BFA44C0020A04C002000D0004050
:103ED00000E100E0064A074B0021116082B0126841
:103EE000019201990122C3F804231A6002B07047BD
:103EF00000D1004000D000400349044A0123C1F82A
:103F000008331360704700BF00D0004004D0004069
:103F100000B5084B0849094A0020186083B01B68A7
:103F20000193019BD1F808051368C0B2984703B00C
:103F30005DF804FB00D1004000D00040A04C002000
:103F4000F0B505793A4E6F007C19A40006EB040E1B
:103F500083B09EF8083013B1082003B0F0BD325191
:103F60004A68CEF8042042799E466AB19A0002F56A
:103F7000A072046844F802E00133A4584279019425
:103F8000DBB29A42019CF1D80468CB78240B62B270
:103F9000002A45DB02F1604202F561425B01DBB2BF
:103FA00082F800330268120B42F3C40323F060432B
:103FB00023F0030303F1604303F56143012402F09E
:103FC0001F0204FA02F2C3F880211A60D0F800E060
:103FD0004B78DEF8042503F0030322F003021343B9
:103FE000CEF80435D0F800E08B78DEF8082503F031
:103FF000030322F003021343CEF8083500680B7860
:10400000D0F810253D4422F00F0203F00F0306EB19
:1040100085061343C0F810350020347203B0F0BD9C
:10402000044A04F00F045B012244DBB21376B9E7C3
:10403000A84C0020FCEC00E0036814491B0B5AB2AA
:10404000520930B420320124114D03F01F0304FA49
:1040500003F345F8223003680022D3F80052C3F876
:10406000002203684FF0FF35C3F8085303681C6152
:10407000037903EB430301EB83031C72037903EB26
:10408000430301EB83010A7230BC7047A84C002047
:1040900000E100E00368054A01211960037903EBA0
:1040A000430302EB830302221A727047A84C0020DC
:1040B0000368054A01211961037903EB430302EB0D
:1040C00083031972704700BFA84C00200379064A89
:1040D00003EB430302EB8303187AA0F10200B0FA6A
:1040E00080F04009704700BFA84C002003680122FF
:1040F000DA60704770B44FF4803483B08C4053B9A9
:104100000368C3F80843036801F5A87143F8212048
:1041100003B070BC70478B0003F5A07305680026E0
:10412000EE50ED5803680195019DC3F80443EAE79A
:10413000F0B4076840F20115D7F800428D4024EA38
:104140000504C7F80042056882B0D5F800429DF822
:10415000186023434FF48034C5F800328C4056B9C0
:104160000368C3F80843036801F5A87143F82120E8
:1041700002B0F0BC70478B0003F5A0730568002601
:10418000EE50ED5803680195019DC3F80443EAE73A
:1041900010B401F150039B0004689BB20022E2506E
:1041A00083B0E45801944FF4803202FA01F10368BD
:1041B000019AC3F8041303B05DF8044B704700BFC5
:1041C00002684FF4803303FA01F1C2F80813704714
:1041D00000B52B4B1A6883B022B12A4AD2F80423C7
:1041E000D20328D4284B1A6822B1264AD2F80423D5
:1041F00090032CD4254B1A6822B1224AD2F804230A
:10420000510330D4224B1A6822B11E4AD2F804233B
:10421000120302D403B05DF804FB00221A601D4AA9
:104220001B68019351681368019A4FF4A670984770
:1042300003B05DF804FB00221A60164A1B68019364
:1042400051681368019A4FF4A0709847CAE700229A
:104250001A60104A1B68019351681368019A4FF461
:10426000A2709847C6E700221A600A4A1B680193A9
:1042700051681368019A4FF4A4709847C2E700BFD1
:1042800040A1004000A0004044A1004048A10040DF
:104290004CA10040A84C002000B53F4B1A6883B0E9
:1042A00022B13E4AD2F80423D00338D43C4B1A68DA
:1042B00022B13A4AD2F8042391033CD4394B1A680C
:1042C00022B1364AD2F80423520340D4364B1A683E
:1042D00022B1324AD2F80423100344D4334B1A6873
:1042E00022B12E4AD2F80423D10248D4304B1A68A6
:1042F00022B12A4AD2F80423920202D403B05DF814
:1043000004FB00221A602B4A1B6801931169D368D1
:10431000019A4FF4AA70984703B05DF804FB00229D
:104320001A60244A1B6801931169D368019A4FF4FB
:10433000A0709847BAE700221A601E4A1B680193D2
:104340001169D368019A4FF4A2709847B6E700222A
:104350001A60184A1B6801931169D368019A4FF4D7
:10436000A4709847B2E700221A60124A1B680193B2
:104370001169D368019A4FF4A6709847AEE70022FE
:104380001A600C4A1B6801931169D368019A4FF4B3
:10439000A8709847AAE700BF40A1014000A00140D3
:1043A00044A1014048A101404CA1014050A101405D
:1043B00054A10140A84C002030B56E4AD2F8043315
:1043C00099058BB05BD5D2F82431002B57D0002350
:1043D000C2F82431D2F8243103934FF40171664BB3
:1043E0000398C2F8081393F8291009B90121516004
:1043F000604902228DF81820D1F88024C1F8802469
:104400009869D96809920022089007919A6193E807
:104410001200DA6106A8A047564AD2F81C31C3B18F
:10442000554B186A5969884265D293F8280000F004
:10443000FF0400285FD1C2F81C41D2F81C11029180
:1044400002999C68186A196A205C01311962C2F8E5
:104450001C05484AD2F844317BB10021464BC2F8D2
:104460004411D2F8440193F829100090009809B142
:10447000012111609A69002A52D10BB030BD3D4A2A
:10448000D2F804335B07C7D5D2F80831002BC3D06C
:10449000394B9969002952D00021C2F80811D2F88D
:1044A000081104910499D868596AD2F81825425421
:1044B0005A6A996901325A625A6A8A42ACD1DA69F7
:1044C000002A45D193F8292012B92A4A01215160C6
:1044D000284A4FF40171C2F80813596ADA68089142
:1044E0000024012007928DF8180093E806009C61D3
:1044F00006A8904790E71F4A0020C2F81C01D2F896
:104500001C210192019A0029A3D09A688DF8180005
:1045100008915861079206A893E80600904798E72B
:104520000022586AD9689A610122089007918DF893
:10453000182006A893E8060090470BB030BDC2F8DB
:104540000811D2F8080105900598D2F81825B3E7AC
:10455000DD685C6A18699A6101210022D860DA611D
:104560005A628DF818100795089493E8060006A87B
:10457000904751E700200040C04C00202DE9F04159
:10458000734E05792C2303FB056382B093F82A3020
:104590001BB1082002B0BDE8F0810F4604466D490A
:1045A00000689046FFF73AFC18B1112002B0BDE850
:1045B000F0813B68591C19D01F2B4FF001028ABFB4
:1045C00065494FF0A04103F01F0302FA03F3C1F85D
:1045D00008353B681F2B86BF03F01F035E4A4FF070
:1045E000A04203F5E073032142F823107B685A1CB4
:1045F0000BD01F2B86BF03F01F03574A4FF0A0427A
:1046000003F5E073002142F823102368BA69C3F868
:104610002425397D7B7D22680B43C2F86C3597E8F1
:1046200006002368C3F81425C3F80C153B7D012B45
:1046300051D02C2303FB05F3F218C2F804803A6929
:10464000F250B8F1000F35D023683A7F434F002174
:10465000C3F81C11D3F81C3100932368DDF800E087
:10466000C3F84411D3F84411236801910199C3F8A8
:1046700004732168090B4BB2002B60DB03F160432C
:1046800003F561435201D2B283F800232268120B72
:1046900042F3C40323F0604323F0030303F16043B8
:1046A00003F5614302F01F02012101FA02F2C3F88F
:1046B00080211A602C23246803FB05630022042553
:1046C0000121C4F8005583F82A109A61DA6183F851
:1046D00029205A615EE7BB68591C0BD01F2B86BF8F
:1046E00003F01F031C494FF0A04103F5E0730022C3
:1046F00041F82320FB685A1C1AD01F2B8ABF164989
:104700004FF0A04103F01F03012202FA03F3C1F8A6
:104710000835FB681F2B88BF03F01F0303F5E07308
:104720008CBF0D494FF0A041032241F82320FB68C4
:104730002268B968C2F80835C2F8101579E7084B45
:1047400001F00F0152010B44D2B21A769EE700BF6E
:10475000C04C0020B943000000030050800002005C
:10476000FCEC00E0F8B53A4D047902682C2303FB19
:10477000045300215B68C2F8001583B10368354A11
:10478000C3F808230368344E1B0B5AB25209203277
:1047900003F01F03012101FA03F346F822300368F6
:1047A0004FF0FF3ED3F80C75D3F81465D3F8082505
:1047B000D3F81015C3F814E5C3F80CE50368774582
:1047C000C3F808E5C3F810E50CD01F2F86BF07F02B
:1047D0001F07224B4FF0A04307F5E0774FF0020E82
:1047E00043F827E0771C0BD01F2E86BF06F01F066C
:1047F0001A4B4FF0A04306F5E076022743F82670E7
:104800004E1C0BD01F2986BF01F01F01134B4FF028
:10481000A04301F5E071022643F82160531C0BD040
:104820001F2A86BF02F01F020C4B4FF0A04302F577
:10483000E072022143F822100068FFF70DFB2C23E1
:1048400003FB0454002384F82A306360F8BD00BFE2
:10485000C04C00208402020000E100E00003005090
:10486000F0B5304E05792C2303FB056385B05C69F8
:1048700014B1112005B0F0BD1C62996083F8284086
:104880005A610268C2F81C41D2F81C1102680291F8
:104890000121029F91600268D3F808E0C2F81C4130
:1048A000D2F81C1101910199D3F820C0196A5F68F0
:1048B0001EF80CC001311962C2F81CC517B12046A0
:1048C00005B0F0BD1A6A5C690168944203D819E02A
:1048D00093F82820F2B9D1F81C21002AF8D0C1F8A9
:1048E0001C71D1F81C210392039AD3F820C01A6AD4
:1048F0001EF80CC001321A62C1F81CC51A6AA24225
:10490000E9D30168D1F81C31002BFBD00123CB6027
:10491000002000E00F202C2303FB056300225A61D6
:10492000A8E700BFC04C002070B54A4BD3F8242143
:1049300088B0002A55D1D3F81011F1B9454BD3F8FE
:10494000442152B10020444AC3F84401D3F8444101
:1049500091690194019C002960D13E4BD3F820213C
:104960004AB100213C4AC3F82011D3F820415069D4
:104970000094009C30BB08B070BDC3F81021D3F880
:1049800010113548039103998169D3F83C458C4255
:10499000D4D1C569002D50D0D3F80012C668856106
:1049A00021F02001C3F800120369C26101220168ED
:1049B000C3608DF81840436805968DF8102004A850
:1049C0009847BBE7D3F84C0593688DF818008DF82D
:1049D00010105161059304A892E80A00984708B0A6
:1049E00070BD0021C3F82411D3F8242102920222C1
:1049F0008DF81020029AD3F88004174AC3F8800477
:104A00000790D3F83C05D3688DF818009161D16107
:104A100005931168536804A898478FE7D3F83C457D
:104A20008DF81840D368906101240593116853688C
:104A30008DF8104004A898478FE7C3680168856126
:104A4000012205938DF8184043688DF8102004A8C2
:104A5000984773E700200040EC4C00202DE9F0431C
:104A60000479824EE7003B1906EB830385B093F887
:104A700020301BB1082005B0BDE8F083894605460B
:104A80007B4900689046FFF7C9F918B1112005B0BD
:104A9000BDE8F083D9F80030591C1AD01F2B4FF015
:104AA00001028ABF73494FF0A04103F01F0302FACD
:104AB00003F3C1F80835D9F800301F2B86BF03F087
:104AC0001F036C4A4FF0A04203F5E073032142F844
:104AD0002310D9F804305A1C0BD01F2B86BF03F0CB
:104AE0001F03644A4FF0A04203F5E073002142F82F
:104AF00023102B68D9F81820C3F8242599F814102E
:104B000099F815202B680A43C3F86C252A68D9F850
:104B10000030D9F80410C2F80C35C2F8141599F811
:104B20001430012B61D03A199200B318C3F80480F5
:104B3000D9F81030B350B8F1000F47D0296899F870
:104B40001C20DFF838E10023C1F81031D1F8101132
:104B500000912968DDF800C0C1F82031D1F820119A
:104B600001912968DDF804C0C1F82431D1F824117D
:104B700002912968DDF808C0C1F84431D1F8441128
:104B80002B6803910399C3F804E32968090B4BB21E
:104B9000002B63DB03F1604303F561435201D2B2A2
:104BA00083F800232A68120B42F3C40323F0604306
:104BB00023F0030303F1604303F5614302F01F0296
:104BC000012101FA02F2C3F880211A603C442A68EC
:104BD00006EB840400230125082184F82050C2F844
:104BE0000015A361E361636145E7D9F80830591CFA
:104BF0000BD01F2B86BF03F01F031E494FF0A041AF
:104C000003F5E073002241F82320D9F80C305A1C38
:104C10001CD01F2B8ABF17494FF0A04103F01F0380
:104C2000012202FA03F3C1F80835D9F80C301F2B22
:104C300088BF03F01F0303F5E0738CBF0D494FF0ED
:104C4000A041032241F82320D9F80C302A68D9F872
:104C50000810C2F80835C2F8101564E7064B01F0D9
:104C60000F0152010B44D2B21A769BE7EC4C0020A4
:104C70002949000000030050FCEC00E01003020092
:104C8000F8B506793A4C0268F500AB1904EB8303DA
:104C900000215B68C2F8001583B10368354AC3F888
:104CA00008230368344F1B0B5AB25209203203F019
:104CB0001F03012101FA03F347F8223003684FF084
:104CC000FF3CD3F80CE5D3F81475D3F80825D3F8D6
:104CD0001015C3F80CC5C3F814C50368E645C3F83E
:104CE00008C5C3F810C50DD0BEF11F0F86BF0EF06A
:104CF0001F0E224B4FF0A0430EF5E07E4FF0020C4A
:104D000043F82EC07B1C0CD01F2F86BF07F01F0757
:104D10001A4B4FF0A04307F5E0774FF0020E43F82F
:104D200027E04F1C0BD01F2986BF01F01F01134B3A
:104D30004FF0A04301F5E071022743F82170531CA6
:104D40000BD01F2A86BF02F01F020C4B4FF0A0436E
:104D500002F5E072022143F82210354404EB850489
:104D60000068FFF779F8002384F820306360F8BD0D
:104D7000EC4C00201003020000E100E000030050B2
:104D800001F06043B3F1005F01D010207047F0B52F
:104D90000579214EEF007C1906EB840483B063692A
:104DA00013B1112003B0F0BDA1606261D0F800E042
:104DB000CEF82031DEF820C1D0F800E0CDF804C0F4
:104DC000DDF804C0CEF85831DEF858C1D0F800E064
:104DD000CDF800C0DDF800C0CEF84415CEF8482567
:104DE00002680121916062680AB11846DAE7036837
:104DF00000E079B9D3F82021D3F85811002AF8D06F
:104E0000002914BF0F2000207B1906EB830300222A
:104E10005A61C7E70F20F7E7EC4C00202DE9F84373
:104E200040F23D124FF6FF71814D0CF037FE182114
:104E30000DF05CFA6B68022B044647D823780022F9
:104E4000626093B3072B20D16B68022B67D8DFF821
:104E50000882267A88F8786006EB860606EB8606D6
:104E6000B611DFF8DC91B7B23A4600214846FCF7AC
:104E7000D7FD1128F8D0002E4DD0012388F87230CC
:104E80006B68022B07D8BDE8F8834FF0FF336360EF
:104E90006B68022BF7D9288862686649000440F0E5
:104EA0000300BDE8F843FBF79FBE227AA67A6B6841
:104EB000062A4DD0082A12D0022BE4D928885E4950
:104EC000000440F00300FBF78FFEE1E7288822781A
:104ED0005A49000440F00300FBF786FEAEE7022BC0
:104EE000A78949D8002ECED1DFF86C8188F8787078
:104EF0004FF0640909FB07F94FEA2929504F1FFABF
:104F000089F6324600213846FCF78AFD1128F8D090
:104F1000B9F1000FB1D1002388F87230B8E72888C2
:104F2000227A4849DFF83081000440F00300FBF7A3
:104F30005BFE6B68267A88F87860022B8CD928880B
:104F40004149000440F003003246FBF74DFE83E781
:104F5000022B277B2AD8002E95D1DFF8FC8088F819
:104F60007270002F60D1364E002211463046FCF799
:104F700057FD1128F8D08BE728883449000440F009
:104F800003003A46FBF730FE002E81D16B68DFF854
:104F9000C880022B88F87870AAD928882A4900048A
:104FA00040F003003A46FBF71FFEA1E72888284996
:104FB000000440F003003A46FBF716FE002E7FF493
:104FC00067AF6B68DFF89080022B88F87270C8D9E1
:104FD00028882049000440F003003A46FBF704FE0D
:104FE000002FC0D06B6898F87860022B07D928880A
:104FF0001549000440F003003246FBF7F5FD06EBCF
:10500000860606EB86064FEAA6190D4F1FFA89F6AB
:10501000324600213846FCF703FD1128F8D0B9F1DB
:10502000000F7FF42AAF76E798F87860E7E700BFD3
:105030009404002064E9030040E9030098E80300B9
:10504000B4E60300B0E80300CCE8030018E903006D
:10505000E0E8030000E90300104D002038B500210E
:1050600004461CF09BFB4FF4BE7205464FF6FF71E1
:1050700020460CF013FD691EB0F90420122968D8EF
:10508000DFE801F018676767333F6767676767673F
:10509000495C676767670A0052B1574B5A68012A33
:1050A00006D918885549000440F00200FBF78CFC33
:1050B00084B938BD504D6B68022B74D812F0B0FD26
:1050C0006B68002853D1022B7DD8022001F080F8B4
:1050D000002CEED020464FF4E1724FF6FF710CF039
:1050E000DDFCBDE838400CF031BF434B5968022964
:1050F000DED918884249000440F00300FBF774FD34
:10510000D6E73D4B002A38D15A68022A53D80220EC
:10511000FCF79EF8CCE7384D6B68022B3BD81CF0AF
:105120000BFA0028C4D06B68022BF0D928883549C7
:10513000000440F00300FBF747FCE8E72E4B5A68F9
:10514000022A20D80220FCF783F80A2001F05EFE34
:10515000AEE7294B59680229AAD918882A490004C0
:10516000134640F003002A46FBF7B0FDA0E7022BF0
:1051700039D8402001F02CF89AE7596859BB022031
:10518000FCF77AF8F5E718882049000440F003009E
:10519000FBF71AFCD6E728881D49000440F00300FD
:1051A000FBF722FDBBE728881A49000440F0030002
:1051B000FBF71AFD82E718881749000440F0030046
:1051C000FBF702FCA3E728881449000440F0030021
:1051D000FBF7FAFB79E718881149000440F0010059
:1051E000FBF702FDCBE728880E49000440F00300DE
:1051F000FBF7EAFBBDE700BF940400204CE8030086
:105200007CE7030000E8030078E8030028E80300D7
:10521000D8E7030008E7030098E7030044E703002A
:10522000B4E7030064E703002DE9F0434FF0805337
:105230008BB01A6E596E7648002415462B4644EA08
:1052400001020AA961E90823082237F03CFB204645
:105250004FF40041FBF7D4F9002840F0D680FBF76B
:1052600055F90320FCF71CF801234FF0FF3100240F
:1052700041F28832059005AF1846069109920893CD
:105280008DF81C408DF81D40FCF710F82246394679
:105290006048FCF7A7FC002840F0B4805D48044655
:1052A000FCF7C4FE632200212046FCF7B9FB11285D
:1052B000F8D0594B59495A4A5A4C00251D700D7067
:1052C00015800DF0AFFA524812F042FC564812F029
:1052D00051FC0A2012F05EFC284612F041FCC3206B
:1052E00011F08EF87C222946204637F011FB4F49F9
:1052F000052012F055FC4E4800F05AFC20464D4B5C
:1053000040F8053B06224C494FF0060937F0DBFA1E
:105310001C224A4984F8049004F1250037F0D3FA9E
:105320001C2308229046464984F8243004F14500A5
:1053300037F0C9FA04230F22424984F8448004F16B
:105340005600012684F8543037F0BDFA4FF0FF0EB6
:105350000F20019500972B464946324684F870503D
:10536000A4F86E50C4F86A50A4F866506567A4F8B3
:105370007A5084F8550084F878E00A2084F8726046
:1053800084F873608DF8146012F0FEFF01950097A9
:1053900094F878008DF814002B46324641460A20D6
:1053A00012F0F2FF284B94F878505A68022A1AD863
:1053B00005EB850505EB8505AD11164FAEB23246FE
:1053C00000213846FCF72CFB1128F8D0003518BF17
:1053D000012584F8725012F02DFC68B912F02CFCF3
:1053E000FBF7A0F9FAE718881849000440F0030019
:1053F0002A46FBF7F9FBDBE7C0F59C402030FCF7C1
:10540000F1F9EBE7FCF7EEF948E7FCF7EBF926E7F3
:105410008C4D0020B4E6030034020020300200204E
:1054200032020020104D0020008811021D4E0000A5
:10543000FC00002001010A0BC4E60300CCE60300D7
:10544000ECE60300F8E6030094040020CCE8030037
:1054500010B44FF080414FF080520020C1F80C0191
:105460005E4BC1F81001C1F83805D2F80414C3F836
:105470002015D2F80814C3F82415D2F80C14C3F878
:105480002815D2F81014C3F82C15D2F81414C3F848
:105490003015D2F81814C3F83415D2F81C14C3F818
:1054A0004015D2F82014C3F84415D2F82414C3F8D8
:1054B0004815D2F82814C3F84C15D2F82C14C3F8A8
:1054C0005015D2F83014C3F85415D2F83414C3F878
:1054D0006015D2F83814C3F86415D2F83C04C3F848
:1054E0006805D2F840043E49C3F86C050968D2F853
:1054F0004424C3F87025082924D04FF08043D3F802
:105500000024D20744BF6FF00102C3F80024354ADB
:10551000D2F8883043F47003C2F88830BFF34F8F5D
:10552000BFF36F8F4FF01023D3F80022002A23DB44
:10553000D3F80432002B1FDB2B4B2C4A1A605DF88A
:10554000044B70472A4B1B68002BD6D129482A4AA6
:105550002A4C04602A492B4BFB20C2F818050A6824
:105560001B68294822F00F0203F00F0313434FF486
:1055700000720B600260C0E7244B0122C3F80425CF
:10558000D3F80024002AFBD04FF0102312221F4929
:10559000C3F80022D1F80034002BFBD04FF01022CA
:1055A00012211A4BC2F80412D3F80024002AFBD0AF
:1055B00000221649C3F80425D1F80034002BFBD093
:1055C000BFF34F8F0749124BCA6802F4E0621343DE
:1055D000CB60BFF34F8F00BFFDE700BF00C00040AE
:1055E0003001001000ED00E0040200200090D00324
:1055F000340100108C56004000F000404881030048
:10560000E40E0040580200104096024000E00140C5
:105610000400FA05F8B5964C94F86628002302F0C9
:10562000F00263F30712092184F866280822012793
:1056300002260325042084F86818052A6FF07F01EC
:1056400084F86138C4F8623884F8A03884F869387E
:1056500084F86B7884F86D6884F86F5884F8710862
:1056600084F8721884F8672884F86A1884F86C182B
:1056700084F86E1884F8701840F2B28094F8673895
:1056800005216FF07F02062B84F8731884F87428C4
:1056900040F2B28094F8673806216FF07F02072B42
:1056A00084F8751884F8762840F2A08094F8683859
:1056B0001F216FF07F0284F8771884F87828002B78
:1056C00000F0B88094F86738043304EB43030022F9
:1056D00083F8612883F8622894F86838012B40F237
:1056E000A38094F86738053304EB430301210022BB
:1056F00083F8611883F8622894F86838022B40F226
:10570000B18094F86738063304EB4303022100228A
:1057100083F8611883F8622894F86838032B40F204
:105720009B8094F86738073304EB4303032100227E
:1057300083F8611883F8622894F86838042B40F2E3
:10574000858094F86738083304EB43030421002272
:1057500083F8611883F8622894F86838052B6FD9AC
:1057600094F86738093304EB43030521002283F8DA
:10577000611883F8622894F86838062B4ED994F89B
:1057800067380A3304EB43030621002283F86118CB
:1057900083F8622894F86838072B39D994F8673869
:1057A0000B3304EB43031321002283F8611883F8C1
:1057B000622894F86838082B24D994F867380C3399
:1057C00004EB43031F25002070216FF03C0283F897
:1057D000615883F8620884F85F1884F86028F8BD7F
:1057E00095214FF449600CF07DFE47E795214FF479
:1057F00049600CF077FE59E795214FF449600CF0B1
:1058000071FE47E7A3214FF449600CF06BFED4E72B
:10581000A3214FF449600CF065FEBFE7A3214FF4CC
:1058200049600CF05FFEAAE7A3214FF449600CF039
:1058300059FE56E7A3214FF449600CF053FE41E7AF
:10584000A3214FF449600CF04DFE89E7A3214FF4EA
:1058500049600CF047FE74E7A3214FF449600CF057
:1058600041FE5EE7A3214FF449600CF03BFE48E7A0
:10587000448F0020F0B41C4BB3F8522822F00702EA
:10588000041C42EA000218BF012402F0E7020128CA
:1058900094BF0221002141EAC411002842F4804251
:1058A00042F641204FF034074FF012064FF06C05DE
:1058B000A3F8522841F00C014FF0000218BF4FF43A
:1058C000285083F8541883F85E4883F8557883F895
:1058D000566883F85758A3F85A08A3F85828A3F82D
:1058E0005C28F0BC704700BF448F0020F8B5AF4C77
:1058F000B4F8522894F8CD1194F8660802F0E0024A
:1059000042F48042002914BF0C21002142F002021F
:1059100061F07F01A4F85228092200234FF0120EF3
:105920006C274FF42856102500F0F00084F8541826
:1059300084F868286FF03E0108224FF0340C63F3BE
:10594000071084F856E884F857784FF0020EA4F850
:105950005A68032784F85F5804266FF07F0584F89F
:105960006018052A4FF0010184F855C884F86608CC
:10597000A4F85838A4F85C3884F86138C4F8623860
:1059800084F8A03884F8693884F86DE884F86F7872
:1059900084F8716884F8725884F85E1884F86B187B
:1059A00084F8672884F86A5884F86C5884F86E582C
:1059B00084F8705840F2B28094F8673805216FF08F
:1059C0007F02062B84F8731884F8742840F2B280A2
:1059D00094F8673806216FF07F02072B84F875185A
:1059E00084F8762840F2A08094F868381F216FF080
:1059F0007F0284F8771884F87828002B00F0B880AC
:105A000094F86738043304EB4303002283F86128D9
:105A100083F8622894F86838012B40F2A38094F848
:105A20006738053304EB43030121002283F8611832
:105A300083F8622894F86838022B40F2B18094F819
:105A40006738063304EB43030221002283F8611810
:105A500083F8622894F86838032B40F29B8094F80E
:105A60006738073304EB43030321002283F86118EE
:105A700083F8622894F86838042B40F2858094F803
:105A80006738083304EB43030421002283F86118CC
:105A900083F8622894F86838052B6FD994F8673832
:105AA000093304EB43030521002283F8611883F8CE
:105AB000622894F86838062B4ED994F867380A3370
:105AC00004EB43030621002283F8611883F862285F
:105AD00094F86838072B39D994F867380B3304EBFE
