:020000040000FA
:1000000000040020990900002D0600007909000075
:1000100037060000410600004B060000000000000B
:10002000000000000000000000000000BD0900000A
:1000300055060000000000005F0600006906000091
:10004000730600007D060000870600009106000090
:100050009B060000A5060000AF060000B9060000E0
:10006000C3060000CD060000D7060000E106000030
:10007000EB060000F5060000FF060000090700007F
:10008000130700001D0700002707000031070000CC
:100090003B070000450700004F070000590700001C
:1000A000630700006D07000077070000810700006C
:1000B0008B070000950700009F070000A9070000BC
:1000C000B3070000BD070000C7070000D10700000C
:1000D000DB070000E5070000EF070000F90700005C
:1000E000030800000D0800001708000021080000A8
:1000F0002B080000350800003F08000049080000F8
:10010000530800001FB500F003F88DE80F001FBD75
:1001100000F038BC70B50B46010B184400F6FF70B8
:10012000040B4FF080500022090303692403406947
:1001300043431D1B104600F0E9F929462046BDE85F
:10014000704000F0E3B9F0B54FF6FF734FF4B475AB
:100150001A466E1E12E0A94201D3344600E00C4656
:10016000B1EB040130F8027B641E3B441A44F9D120
:100170009CB204EB134394B204EB12420029EAD17F
:1001800098B200EB134002EB124140EA0140F0BD8F
:10019000C34992B00446D1E90001CDE91001FF2224
:1001A0004021684600F094FB94E80F008DE80F00B2
:1001B000684610A902E004C841F8042D8842FAD12B
:1001C00010216846FFF7BFFF1090AA208DF8440069
:1001D00000F0FAF800F0DDF84FF01024A0691022CA
:1001E0006946803000F0DEF8A069082210A900F00E
:1001F000D9F800F0C2F870B504460068A94D072888
:1002000069D2DFE800F033041929561E2500D4E92D
:10021000026564682946304600F0FDF82A4621460A
:10022000304600F0BFF8AA002146304600F024FB1B
:10023000002800D0032070BD00F0D6FB4FF48050A2
:1002400007E0201D00F0C6F80028F4D100F0CCFB38
:1002500060682860002070BD241D94E807009200AB
:1002600000F00AFB0028F6D00E2070BD00F0BEF8AA
:100270000028FAD1D4E9010100EB81034FF080504E
:10028000026945696A43934209D84FF010225369C5
:1002900003EB81030169406941438B4201D9092085
:1002A00070BD5069401C01D10F2070BD2046FFF782
:1002B0006FFF00F09BF80028F7D1201D00F08AF8AE
:1002C0000028F2D160680028F0D100F07DF800F03D
:1002D00060F800F052F8072070BD10B50C461828E1
:1002E00002D00120086010BD2068FFF784FF206065
:1002F00010BD4FF01024A069401C05D0A569A66967
:1003000080353079AA2808D06069401C2DD06069FA
:100310000068401C29D060692CE010212846FFF7B6
:1003200012FF316881421CD1A16901F18002C03104
:1003300005E030B108CA51F8040D984201D10120FE
:1003400000E000208A42F4D158B1286810B1042896
:1003500003D0FEE7284600F070F85249686808604C
:1003600008E000F016F800F008F84FF4805001683B
:10037000491C01D000F012FBFEE7BFF34F8F4A4843
:1003800001684A4A01F4E06111430160BFF34F8FF5
:10039000FEE74FF010208169491C02D0806900F00F
:1003A0008CB870472DE9F04117460D4606460024EB
:1003B00006E03046296800F093F8641C2D1D361DB8
:1003C000BC42F6D3BDE8F0814FF0102080694FF4B5
:1003D00080519FE64FF080510A69496900684A439D
:1003E000824201D810207047002070474FF08050A3
:1003F0000169406941434FF01020826902F5805243
:10040000914201D2092070478069401C01D0002030
:1004100070470420704770B50C4605464FF480665F
:1004200008E0284600F049F8B44205D3A4F58064FA
:1004300005F58055002CF4D170BD4168044609B122
:10044000012600E000264FF010256869A26892009E
:1004500000F012FAF8B1A06881006869FFF75AFE4F
:10046000BEB16E694FF08050A56864680169426949
:100470005143A1420DD9016940694143A94208D9BC
:1004800029463046FFF7C7FF2A4621463046FFF788
:1004900089FFFFF772FFFFF797FFFFF77AFFF8E793
:1004A0000C0A0000000000200CED00E00400FA053A
:1004B000144801680029FCD07047134A02211160DA
:1004C00010490B68002BFCD00F4B1B1D18600868EF
:1004D0000028FCD00020106008680028FCD070477D
:1004E000094B10B501221A60064A1468002CFCD092
:1004F000016010680028FCD00020186010680028F7
:10050000FCD010BD00E4014004E5014070B50C468C
:10051000054600F073F810B900F07EF828B12146C6
:100520002846BDE8704000F007B821462846BDE8DF
:10053000704000F037B800007FB5002200920192B1
:10054000029203920A0B000B6946012302440AE05F
:10055000440900F01F0651F8245003FA06F635430B
:1005600041F82450401C8242F2D80D490868009A94
:1005700010430860081D0168019A1143016000F0F2
:100580003DF800280AD0064910310868029A104345
:100590000860091D0868039A104308607FBD0000C9
:1005A0000006004030B50F4C002200BF04EB0213E0
:1005B000D3F800582DB9D3F8045815B9D3F8085812
:1005C0001DB1521C082AF1D330BD082AFCD204EB1D
:1005D0000212C2F80008C3F804180220C3F8080881
:1005E00030BD000000E001404FF08050D0F83001F5
:1005F000082801D000207047012070474FF080503C
:10060000D0F83011062905D0D0F83001401C01D0B7
:1006100000207047012070474FF08050D0F8300123
:100620000A2801D0002070470120704708208F4918
:1006300009680958084710208C4909680958084773
:1006400014208A4909680958084718208749096809
:100650000958084730208549096809580847382053
:1006600082490968095808473C20804909680958A7
:10067000084740207D4909680958084744207B49BC
:1006800009680958084748207849096809580847FF
:100690004C20764909680958084750207349096871
:1006A00009580847542071490968095808475820D3
:1006B0006E490968095808475C206C49096809585F
:1006C0000847602069490968095808476420674954
:1006D00009680958084768206449096809580847A3
:1006E0006C20624909680958084770205F49096809
:1006F0000958084774205D49096809580847782057
:100700005A490968095808477C2058490968095816
:1007100008478020554909680958084784205349EB
:100720000968095808478820504909680958084746
:100730008C204E4909680958084790204B490968A0
:1007400009580847942049490968095808479820DA
:1007500046490968095808479C20444909680958CE
:100760000847A0204149096809580847A4203F4983
:10077000096809580847A8203C49096809580847EA
:10078000AC203A49096809580847B0203749096838
:1007900009580847B4203549096809580847B8205E
:1007A0003249096809580847BC2030490968095886
:1007B0000847C0202D49096809580847C4202B491B
:1007C000096809580847C82028490968095808478E
:1007D000CC202649096809580847D02023490968D0
:1007E00009580847D4202149096809580847D820E2
:1007F0001E49096809580847DC201C49096809583E
:100800000847E0201949096809580847E4201749B2
:10081000096809580847E820144909680958084731
:10082000EC201249096809580847F0200F49096867
:1008300009580847F4200D49096809580847F82065
:100840000A49096809580847FC20084909680958F5
:1008500008475FF480700549096809580847000097
:1008600003480449024A034B70470000000000207F
:10087000180A0000180A000040EA010310B59B079F
:100880000FD1042A0DD310C808C9121F9C42F8D0FA
:1008900020BA19BA884201D9012010BD4FF0FF30AB
:1008A00010BD1AB1D30703D0521C07E0002010BDC1
:1008B00010F8013B11F8014B1B1B07D110F8013B4D
:1008C00011F8014B1B1B01D1921EF1D1184610BD2E
:1008D00002F0FF0343EA032242EA024200F005B8B5
:1008E0007047704770474FF000020429C0F0128033
:1008F00010F0030C00F01B80CCF1040CBCF1020FD3
:1009000018BF00F8012BA8BF20F8022BA1EB0C01A7
:1009100000F00DB85FEAC17C24BF00F8012B00F89D
:10092000012B48BF00F8012B70474FF0000200B5C3
:10093000134694469646203922BFA0E80C50A0E802
:100940000C50B1F12001BFF4F7AF090728BFA0E8B0
:100950000C5048BF0CC05DF804EB890028BF40F87C
:10096000042B08BF704748BF20F8022B11F0804FBE
:1009700018BF00F8012B7047014B1B68DB68184754
:100980000000002009480A497047FFF7FBFFFFF706
:10099000B9FB00BD20BFFDE7064B1847064A1060B3
:1009A000016881F30888406800470000180A0000C9
:1009B000180A0000F3020000000000201EF0040FDF
:1009C0000CBFEFF30881EFF30981886902380078E2
:1009D000182803D100E00000074A1047074A1268B0
:1009E0002C3212681047000000B5054B1B68054A01
:1009F0009B58984700BD0000DB020000000000206B
:100A0000080A0000040000000010000000000000C0
:080A100000FFFFFF0090D0037E
:1010000010400020111400001914000031120000DB
:101010001D1400001F140000211400000000000037
:101020000000000000000000000000002314000089
:1010300025140000000000002714000029140000FF
:10104000191B00002B1400005D1E00002B14000073
:101050002B1400002B140000811700002B1400003B
:101060002B1400002B1400002B1400002B14000084
:101070002B1400002B1400002B1400002B14000074
:101080002B140000291B00002B1400002B1400005F
:101090002B1400002B1400002B1400002B14000054
:1010A0002B1400002B1400002B1400002B14000044
:1010B0002B1400002B1400000000000000000000B2
:1010C0002B1400002B1400002B1400002B14000024
:1010D0002B1400002B1400002B140000B51E000080
:1010E0002B1400002B1400002B1400000000000043
:1010F000000000002B140000000000002B14000072
:1011000000000000000000000000000000000000DF
:1011100000000000000000000000000000000000CF
:1011200000000000000000000000000000000000BF
:1011300000000000000000000000000000000000AF
:10114000000000000000000000000000000000009F
:10115000000000000000000000000000000000008F
:10116000000000000000000000000000000000007F
:10117000000000000000000000000000000000006F
:10118000000000000000000000000000000000005F
:10119000000000000000000000000000000000004F
:1011A000000000000000000000000000000000003F
:1011B000000000000000000000000000000000002F
:1011C000000000000000000000000000000000001F
:1011D000000000000000000000000000000000000F
:1011E00000000000000000000000000000000000FF
:1011F00000000000000000000000000000000000EF
:10120000DFF80CD000F070FA004800477D7D000048
:101210001040002000B583B002900091019244F28A
:10122000010071466A4601F045F803B000BD0000B8
:10123000094B1EF0040F1CBFEFF309801847EFF3B2
:1012400008800649064A884201D8904202D88D4655
:101250004FF0000018470000351900001040002032
:101260001020002030B450E8012F93B2C4892344E9
:101270008489A34228BF1B1B0489A34202BFBFF37A
:101280002F8F002007E0C3EA020340E80134002C5E
:10129000E9D14FF001000A6030BC704750E8012FDF
:1012A000C2EA024240E801210029F7D1704730B478
:1012B00050E8022F1FFAA2F3C488A34202BFBFF373
:1012C0002F8F00200DE0C48923448489A34228BFC6
:1012D0001B1BC2EA034340E80234002CE8D14FF064
:1012E00001000A6030BC704750E8022FC2EA224277
:1012F00040E802210029F7D17047034653E8022F46
:10130000D988B2EB324F4FF0000017BF92B241EADA
:10131000014142EA014104E05A68B2EB324F08BF92
:10132000012043E80212002AE8D1704730B4044695
:1013300054E8000F0D4644E80053002BF8D1156027
:1013400030BC704730B4044654E8000F40EA010551
:1013500044E80053002BF7D1156030BC704730B41F
:10136000044654E8000F00EA010544E80053002B4E
:10137000F7D1156030BC704730B4044654E8000F14
:1013800080EA010544E80053002BF7D1156030BC1A
:10139000704730B4044654E8000F00EB010544E800
:1013A0000053002BF7D1156030BC704730B40446B1
:1013B00054E8000FA0EB010544E80053002BF7D1DF
:1013C000156030BC704770B404464FF0000054E81C
:1013D000006F0D68AE4207BF44E80023012044E8D7
:1013E00000630E60002B1CBF0020F0E770BC70474C
:1013F00030B4044654E8000F88422CBF451A054615
:1014000044E80053002BF5D1156030BC7047000054
:101410000648804706480047FEE7FEE7FEE7FEE78E
:10142000FEE7FEE7FEE7FEE7FEE7FEE7811C0000C1
:101430000112000000487047A0F30000A0F1410134
:10144000192900D8203070472DE9FE4399461546EA
:101450008846074601AC022942D3002D40D0002027
:101460000290A8F101004FF0FF36009022E000FB4F
:10147000057201FB057011464A469047002805DCBD
:1014800054F82600304444F8260013E060682A46E9
:1014900000FB057154F8040C00FB057007E00B78A5
:1014A00090F800C001F801CB00F8013B521E002A61
:1014B000F5D1764254F8040C61688842D7DC4B467B
:1014C0002A463846FFF7C0FF54F8040C4B46A8EBF9
:1014D0000001401C00FB05702A46491EFFF7B4FFBF
:1014E000BDE8FE8310B5431A934209D283188818C9
:1014F00003E010F8011D03F8011D521EF9D210BDC2
:1015000040EA01039B0703D009E008C9121F08C085
:10151000042AFAD203E011F8013B00F8013B521E05
:10152000F9D210BDD2B201E000F8012B491EFBD266
:1015300070470022F6E710B513460A4604461946DE
:10154000FFF7F0FF204610BD30B505462A460B4692
:1015500012F8010B13F8014B08B1A042F8D01CB1EE
:10156000002802D06D1CF1E7284630BDCAB2401EEB
:1015700010F8011F8A4202D00029F9D100207047DB
:10158000421C10F8011B0029FBD1801A704710B5CE
:10159000002200E0521C835C8C5CA34201D1002B32
:1015A000F8D1D8B2E1B2401A10BD034611F8012BB0
:1015B00000F8012B002AF9D11846704730B50546CE
:1015C0000020034600E05B1C934205D2EC5CC85C43
:1015D000201A01D1002CF6D130BD2DE9F0479146FB
:1015E0000F4680460446002614F8015B2DB1FFF734
:1015F00021FF0068405DC007F6D12B2D02D02D2DB4
:1016000018D0641E4A463946204600F01EF827B11D
:101610003968A14201D1C7F8008071054FF002047A
:101620000BD54042002803DD00F0AEFD0460A007AA
:10163000BDE8F08746F48066E4E70028F8DA00F0B9
:10164000A3FD04606FF00040F2E72DE9F05F8246F1
:101650000078002715468B460AF10104B946302868
:1016600001D09DB113E014F8010B0127782803D0B5
:10167000582801D045B10AE00DB1102D07D100273F
:10168000102514F8010B02E0082500E00A250026C9
:10169000B0460EE005FB080005FB06F1012701EB53
:1016A00010461FFA80F8B6F5803F00D3B94614F80B
:1016B000010B294600F02AF80028EBDABBF1000FF5
:1016C00005D00FB1641E00E05446CBF80040B9F1DC
:1016D000000F06D000F058FD02210160C81EBDE8D1
:1016E000F09F48EA0640FAE7064C074D06E0E0683E
:1016F00040F0010394E8070098471034AC42F6D359
:10170000FFF782FDC4110100E41101003A2800D264
:10171000303820F02002412A01D3A2F1370088425C
:1017200001D34FF0FF30704770B58C1810F8015B93
:1017300015F0070301D110F8013B2A1106D110F86A
:10174000012B03E010F8016B01F8016B5B1EF9D16E
:101750002B0705D40023521E0DD401F8013BFAE7F4
:1017600010F8013BCB1A921C03E013F8015B01F85F
:10177000015B521EF9D5A142D8D3002070BD0000F4
:101780002DE9F04F00268DB0DFF8A081B146049618
:101790004FF48075012437460596284609F0F0FB82
:1017A00038B1D8F80403204203D0284609F0DEFB04
:1017B00026432D1D64007F1CADB2082FEDD34FF4DE
:1017C000BE74204609F0DCFB48B1204609F0CEFB90
:1017D00046F0004604AA0221002009F091FB544C77
:1017E00016F0FF0F15D00127002537420DD008EB6A
:1017F0008501D1F81005D1F81015C0F3052054F873
:101800002520C1F3014102B190477F006D1C082DD6
:10181000EBD3002E7EDA0020CDF82890411E0DF18A
:10182000100B07AACDF82C9042F82010401C9146CE
:101830000228F9D300252E46A11911F8607F91F9ED
:10184000000027F0C008401C40D007A9404606F021
:101850003FFF40B34FEA971A404602F057FC54F856
:1018600020701FB1BAF1030F03D006E0BAF1030FE5
:101870002CD10AA9404606F033FF02A8CDF8088013
:1018800009F00EFB029900EB8100D0F8000704A9D3
:10189000C0F301400290404606F01AFF002802986B
:1018A00002D0022802D011E003280FD1BAF1030FB1
:1018B00008D10298022833D00221404609F0D8FA14
:1018C0006D1CEDB217B151464046B847761C042E48
:1018D000B2D3002D21D001AA0221002009F010FB73
:1018E00000205A460DF1040152F8206051F82030D2
:1018F000B34217D000200AAE4FEA090351F8207016
:1019000042F8207056F8207043F82070401C0228DE
:10191000F4D300E001E0002D8CD10DB0BDE8F08FD4
:101920000321CAE7401C0228DED3F6E7006000402E
:10193000C81300201CB5814609F01EFF09F0B6FC53
:101940000028FBD137484E460768374C01256068B0
:10195000002821D0208835A105EB0040B26909F0AC
:10196000D3FD6068002817D0D6E90201CDE9000157
:101970002088D6E9002305EB004032A109F0DCFD08
:10198000606848B1F0690090D6E9042320883BA143
:1019900005EB004009F0C7FD2248001D00688007E4
:1019A00007D5606828B120883E4905EB004009F062
:1019B000A7FDDFF8F480002605FA06F038420AD0C9
:1019C00058F826203AB1606828B1208837A105EB85
:1019D000004009F099FD761C1A2EEDD338060AD581
:1019E000606840B10F480C300268208832A105EBD6
:1019F000004009F089FD38040AD5606840B1094803
:101A000010300268208834A105EB004009F07CFD0D
:101A10000448C8300068C00700D000BE484600F047
:101A200069F8000028ED00E08C0400204841524491
:101A3000204641554C542061742030782530385868
:101A400000000000202052303A2020307825303825
:101A500058202052313A2020307825303858202024
:101A600052323A2020307825303858202052333AEC
:101A700020203078253038580000000020205231D6
:101A8000323A2030782530385820204C523A2020E5
:101A900030782530385820205053523A203078255D
:101AA0003038580058FE0000E8010020436175738B
:101AB000653A2025732E00004D656D4D616E61679E
:101AC00065204661756C7420416464726573733A75
:101AD0002030782530385800427573204661756C87
:101AE0007420416464726573733A2030782530380D
:101AF00058000000BFF34F8F05480168054A01F404
:101B0000E06111430160BFF34F8F00BFFDE70000AC
:101B10000CED00E00400FA0510B50BF04BF9BDE840
:101B200010400BF075B8000002490248091F09680F
:101B300000680847E0010020044900EB400001EB89
:101B4000C000416D806D081A70470000881D00209C
:101B500000F064BA70B5064614460D46002001F048
:101B60001BFD22462946304600F006F804460020B8
:101B700001F040FD204670BD2DE9F0471B4D0746A2
:101B8000164628780C4608B900F048FA07EB4700DB
:101B900005EBC007A046D7E91595002448374D4509
:101BA00011D9B868441BB44200D334467868224641
:101BB00041194046FFF796FCB868361B2544A044FF
:101BC000A84200D10025A9EB0500B04200D206468C
:101BD0003EB17868324641194046FFF783FC3444F1
:101BE000354404B13D612046BDE8F087881D0020E2
:101BF00070B50B4B0646144618780D4608B900F030
:101C00000DFA002001F0C8FC22462946304600F0BB
:101C100009F80446002001F0EDFC204670BD0000EC
:101C2000881D002070B50E46144900EB400001EB02
:101C3000C0051446E86A183520B101280FD00228E3
:101C400005D113E0284600F01DFAA04201D200247D
:101C500011E022463146284600F061FA0BE02846A2
:101C600000F010FAA042F4D20446F2E731462846CA
:101C700000F028FA0446204670BD0000881D0020B0
:101C800030B54FF0805000228300D0F83011C3F8F7
:101C90000C21C3F81021624B1A60624B1B68624C26
:101CA0002360604B1B1D1B68241D23605D4B0833A4
:101CB0001B68241D23605B4B0C331B68241D2360B1
:101CC000584B10331B68241D2360564B14331B687C
:101CD000241D2360534B18331B68534C203423605E
:101CE000504B1C331B68241D23604E4B20331B6854
:101CF000241D23604B4B24331B68241D2360494B58
:101D000028331B68241D2360464B2C331B68241D7D
:101D10002360444B30331B68434C40342360414BB9
:101D200034331B68241D23603E4B38331B68241D4D
:101D300023603C4B3C331B68241D2360394B4033EC
:101D40001B68241D23600124082902D1D0F83431F6
:101D500013B1082904D006E0354B3449196005E079
:101D6000D0F8343113B1082904D006E0314BFB21FF
:101D7000196005E0D0F8343113B1082908D00EE01D
:101D800090F858322C48016863F30301016002E0C7
:101D9000D0F834311BB929494FF400700860284845
:101DA0000168C90702D06FF0010101602548016890
:101DB00041F470010160BFF34F8FBFF36F8F4FF09D
:101DC0001021D1F80002002803DBD1F8040200281A
:101DD00022DA1D4B1C601D480468002CFCD0122424
:101DE000C1F800420568002DFCD0C1F8044201682A
:101DF0000029FCD01A6001680029FCD0BFF34F8F86
:101E000010487C380168124A01F4E0611143016016
:101E1000BFF34F8F00BFFDE70F490E48086030BD8C
:101E2000380500400404001020C50040488103002C
:101E30008C56004018F50040E40E004040960240E9
:101E40000004004088ED00E004E5014000E40140AA
:101E50000400FA050090D0030803002010B5054CDB
:101E6000206818B904A12B2001F004FC2068BDE80B
:101E7000104000475C0100202E2E5C2E2E5C2E2E82
:101E80005C2E2E5C2E2E5C2E2E5C6D6F64756C6548
:101E9000735C6E7266785C647269766572735C738B
:101EA00072635C7072735C6E7266785F7072732EB0
:101EB000630000002DE9F05F5448D0F8045300247B
:101EC0002E464FF0010913E096FAA6F0B0FA80F71B
:101ED000B80000F5807080460AF09CFD28B14046AD
:101EE0000AF0A0FD09FA07F0044309FA07F0864357
:101EF000002EE9D108F0B8F8002869D0444AD0781B
:101F0000F0BBA00264D5434940F2A978C1F8008033
:101F1000081D036813F0FF0C02D0036803EA0C0CE1
:101F200040F2AA7AC1F800A0036813F0FF0301D0C1
:101F30000668334040F2AB7BC1F800B0066816F08B
:101F4000FF0601D007683E4040F2AC770F6007689B
:101F500017EA0C0709D0D2F810C04CEA070CC2F8F7
:101F600010C0C1F800800760076840F2AD770F60CD
:101F700007681F4009D0136943EA0743136100E073
:101F800026E0C1F800A00760036840F2AE730B6062
:101F9000036833400BD0DE0701D044F40004DE06B2
:101FA00001D544F00104C1F800B003600068106975
:101FB00030F0011102D005F080710C4310F0011FC8
:101FC00006D0690504D520F0011044F48064106146
:101FD000C4F3C05624F400044F46DFF83C8009E007
:101FE00094FAA4F0B0FA80F558F82500804707FA73
:101FF00005F08443002CF3D10CF014FA002E03D02A
:10200000BDE8F05F04F0D4BEBDE8F09F0070024070
:102010002C0100200078024028EB000010B5124C83
:1020200002202061606111A0A06104F17800E061EC
:102030004FF4007020620020A06260620BA1A164D6
:10204000E06204F51E71E1641021A065C4E914107A
:10205000E06509A1E01DFFF7A8FA08A12046FFF7F7
:10206000A4FA2020A07110BD881D00205465726D57
:10207000696E616C0000000052545400534547479C
:10208000455200000269C1688A4203D88068401A3C
:10209000104400E0501A401E70470000C11700EBCA
:1020A000D161074B4A1153F8222021F01F01411A38
:1020B00001208840024201D0012070470020704773
:1020C00000E100E02DE9F047C4681746894606465E
:1020D0004FF000083069A04201D9051B02E0B16849
:1020E000201A0D1AB0686D1E001BA84200D80546C4
:1020F000BD4200D33D4670682A4620444946FFF75A
:10210000F1F9B0687F1B2C44A844A944A04200D137
:102110000024F460002FDDD14046BDE8F0872DE9B2
:10212000F04104468846D4E90207C51BE1686068AF
:1021300016460844B54206D94146FFF7D3F9B81907
:10214000E060BDE8F0812A464146FFF7CBF9761BF7
:1021500008EB050132466068FFF7C4F9E660F0E776
:102160000FB4084B10B504A902AA039800F01FF899
:10217000044602A9002000F085F8204610BC5DF856
:1021800014FB000085220000004870470C0300206B
:1021900002E008C8121F08C1002AFAD17047704730
:1021A000002001E001C1121F002AFBD170472DE978
:1021B000F84F9946924688460546002706E02528AE
:1021C0000AD051464A4690476D1C7F1C287800284B
:1021D000F5D13846BDE8F88F002315F8011F1846E1
:1021E0002E2915D115F8011F04232A290DD06FF0CF
:1021F0002F022978A1F13004092C09D800EB8000C6
:1022000002EB400008446D1CF3E758F8040B6D1C0A
:102210002A78002ADDD0632A07D0732A0FD010460F
:1022200051464A4690477F1C2AE018F8042B8DF847
:10223000002000218DF801106E46012103E058F8BE
:10224000046B4FF0FF315A074FF0000401D409E04E
:10225000641C84420BDA8C42FADB325D002AF7D12F
:1022600005E0641C8C42FCDB305D0028F9D127447A
:1022700004E016F8010B51464A469047641EF8D216
:102280006D1CA3E70A68531C0B6010707047800731
:1022900001D00020704701207047C3688B4206D8E8
:1022A00011440069491E814201D801207047002075
:1022B000704700002DE9FE4315460F46804672B672
:1022C00009F05AFA08F0F2FF0028FBD16FF48041C0
:1022D000224C18EB01004FF0010622D00128606863
:1022E00014D030B120883A4606EB00401CA109F01A
:1022F0000BF921480068C00700D000BE2A4603B091
:1023000039464046BDE8F04300F064B80028F0D0FC
:1023100020882B8806EB004018A16A6809F0FBF8BA
:10232000E7E760680028E4D0A8680AF0E1F903460E
:10233000D5E90001CDE900100297208816A106EB2F
:102340000040AA6809F002F960680028D1D020880E
:102350001BA106EB004009F0D3F8CAE7F8040020FF
:10236000554E4B4E4F574E204641554C54206174AC
:102370002030782530385800F0ED00E041535345C7
:102380005254494F4E204641494C454420617420E7
:1023900025733A25750000004552524F522025758D
:1023A000205B25735D2061742025733A25750D0A25
:1023B00050432061743A203078253038780000008E
:1023C000456E64206F66206572726F722072657050
:1023D0006F72740008B501238DF800309DF800304D
:1023E000144B186059609A606FF48041401807D010
:1023F00001280FD1DA60D86800889861D86807E0B2
:102400001A611869806858611869006898611869CC
:102410004068D861186858689868D8681869586919
:102420009869D86972B600BF9DF800000028FBD1FA
:1024300062B608BD34140020014804F01EB9000043
:102440006C01002070B514460E46050004D10B49FE
:1024500040F2C51001F00EF93CB12868012EC460AD
:102460000AD000218160002070BD04494FF4E37060
:1024700001F000F9072070BD0121F3E798FB00008F
:1024800038B50E4808235822416800910C4900686D
:1024900005F019FF00280FD10A4A69460A4804F0DE
:1024A000F1F8040008D10121074804F0C2F90649F7
:1024B000012008390870204638BD0000CCEB000030
:1024C0005414002089D300006C01002070B516461A
:1024D0000D46040004D10C4940F2D51001F0CAF8B1
:1024E0000A48854201D9072070BD0948266104F0D9
:1024F000C4F828446060A06800B1A5602146BDE82A
:10250000704000200BF0A4BD98FB000017FCFF00FA
:102510006C01002010B5040004D106494FF4F57099
:1025200001F0A8F8002021462076BDE810400120E7
:102530000BF08EBD98FB000070B505460648446858
:1025400007E02946204601F05BFF204600F022FA12
:102550000446002CF5D170BD8C01002070B50A48EE
:1025600045680EE02E7A002405E02146284600F05A
:1025700015FE641CE4B2B442F7D3284600F00AFA10
:102580000546002DEED170BD8C0100202DE9F041F3
:102590000E4840F2AB67456814E02E7A00240BE049
:1025A00000222146284600F05DFE18B108A13846F9
:1025B00001F060F8641CE4B2B442F1D3284600F0A4
:1025C000E9F90546002DE8D1BDE8F0818C01002035
:1025D0002E2E5C2E2E5C2E2E5C2E2E5C2E2E5C2E35
:1025E0002E5C636F6D706F6E656E74735C6C696288
:1025F0007261726965735C757362645C6170705F4F
:10260000757362642E63000070B50646094806259E
:1026100044680AE03146204601F0F2FE05460628ED
:1026200005D1204600F0B6F90446002CF2D1284628
:1026300070BD00008C0100202DE9FC4115460F0003
:10264000064604D11E494FF47C7001F013F8304661
:1026500001F09AF80446007DC00715D0002000F074
:102660009BFFE06E98B1A84200D805462A4638463E
:10267000A16EFEF737FFE06E401BE066A06E656757
:102680002844A066002405E00820BDE8FC81A0697C
:1026900028B11124002000F0ADFF2046F5E7C4E981
:1026A0000675304603F0CFFF06498969CDE900146D
:1026B000694600F0A3FB0400ECD19224EAE7000095
:1026C00024FC00002CEC000010B501F05DF8406F18
:1026D00010BDFEB515460E46044601F055F8007DC6
:1026E00010F0010F0AD0204603F0A4FF002100964D
:1026F000CDE90151694600F0CDFBFEBD0820FEBDCD
:10270000F8B5040004D138A140F2EF4000F0B2FF68
:10271000606820B934A14FF49E6000F0ABFF6068A0
:10272000006820B930A140F2F14000F0A3FF20681A
:10273000006820B12CA140F2F24000F09BFF07F0AE
:102740001FFE10B907F026FE20B927A140F2F6407F
:1027500000F090FF00250FE0002705E0007800F072
:1027600061FB08B11120F8BD3946781CC7B230466C
:1027700000F0C0F80028F1D12946681CC5B22046F7
:1027800000F0E0F80600E7D100250DE0002703E0A7
:102790000078214600F04CFB3946781CC7B2304621
:1027A00000F0A8F80028F3D12946681CC5B22046DD
:1027B00000F0C8F80600E9D1194D40F21C5607E0B8
:1027C000A04203D108A1304600F054FF28680568F4
:1027D00028680028F4D113482C60694640690090AD
:1027E000204601F00DFEF8BD2E2E5C2E2E5C2E2E06
:1027F0005C2E2E5C2E2E5C2E2E5C636F6D706F6EC9
:10280000656E74735C6C69627261726965735C7524
:102810007362645C6170705F757362642E63000044
:1028200090010020E0EB00002DE9F04F87B04FF061
:1028300000081D46934689460446DDF840A04646FA
:10284000CDF80C8000E0761C606801230022476808
:10285000214603A8B8470028F5D140468DF80080EE
:102860000027B84601903BE0606801236A46D0F833
:1028700004C0214601A8E0476068012305AAD0F8FA
:1028800004C0214601A8E0479DF8141049451AD11B
:10289000D84514D19DF80000CAF8000005F8010BD6
:1028A0006A1C85F8009060689DF8003021464568F4
:1028B00001A89B1EA847002007B0BDE8F08F08F1D3
:1028C000010000F0FF0860689DF800300022D0F899
:1028D00004C0214601A89B1EE0479DF80000074464
:1028E000B742C1D30520E7E70148406870470000C0
:1028F0008C01002070B50D46040004D106494FF448
:102900008E7000F0B7FE6078A84201D8002070BD3C
:10291000A0782044284470BDE0FB000070B50D464F
:10292000040004D106494FF48E7000F0A3FE6078D5
:10293000A84201D8002070BDA0782044284470BD72
:10294000E0FB000070B50D46040003D10649E92004
:1029500000F090FE207AA84201D8002070BD05EB5F
:1029600045000934204470BDE0FB000070B50D4601
:10297000040003D10649E92000F07CFE207AA84239
:1029800001D8002070BD05EB45000934204470BD1E
:10299000E0FB000010B5040004D104494FF4F970C5
:1029A00000F068FE2068006810BD000004310000DF
:1029B00010B5040004D104A14FF4F97000F05AFEE0
:1029C0002068006810BD00002E2E5C2E2E5C2E2E7E
:1029D0005C2E2E5C2E2E5C2E2E5C636F6D706F6EE7
:1029E000656E74735C6C69627261726965735C7543
:1029F0007362645C6170705F757362642E6800005E
:102A000002484078002800D0012070478C01002047
:102A10002DE9F041484E0D460246097806243078EB
:102A200001270F2964D2DFE801F063080C0E632050
:102A30004863636363252D363F0003200BF0F8FBEA
:102A400056E0002454E03C48001D05F07EFC28B10F
:102A50003A480760BFF36F8FBFF34F8F307800287D
:102A6000EFD137A140F20B4009E0104600F0A4F886
:102A700004463DE00028E4D031A140F2164000F0C9
:102A8000F9FDDEE7012804D02DA140F21C4000F042
:102A9000F1FD002005E03948006810F0010F0AD070
:102AA00002200BF0C5FBCCE7022804D224A14FF48E
:102AB000866000F0DFFD0120F3E7E878032817D0F7
:102AC000A87830B1802804D01DA140F23E4000F02B
:102AD000D1FD1949E87808310A6832B100230B604A
:102AE00049689047040006D000E00E2407F0ACFCD3
:102AF0002046BDE8F0810BF093FB28B1A8780028B0
:102B0000F6D107F064FCF3E71D480078082810D1DF
:102B10001B48001D007800070BD1194808300078C9
:102B200010F0F00F05D116480C30007810F0F00FBF
:102B3000DED007F049FCDBE7AC0100205C7002400E
:102B40002E2E5C2E2E5C2E2E5C2E2E5C2E2E5C2EBF
:102B50002E5C636F6D706F6E656E74735C6C696212
:102B60007261726965735C757362645C6170705FD9
:102B7000757362645F636F72652E63003804004092
:102B8000E00F00F0024A0146D2E9000210470000BF
:102B9000F414002070B50C46054607F00FFCA8425F
:102BA00001D0102070BD0348D4E90012C0E9021220
:102BB000002070BDAC0100207FB5054605208DF8D2
:102BC000000006240DF1010007F016FC0BF028FBB5
:102BD0002949002008609DF8010010F01F0006D070
:102BE00001280FD0022826D0032833D106E06946F9
:102BF00028460AF077FD044606282AD16846FFF7E2
:102C000003FD25E09DF8050003A900F007FB050082
:102C100008D06A469DF80C1000F0BCFA044606285D
:102C200002D016E0102415E06A469DF80C102846E4
:102C30000AF0B2FE0CE09DF80500010705D06946D8
:102C400000F080F80446062803D168460AF0F4FD37
:102C5000044624B107F0F8FB04B0204670BD0BF029
:102C6000DFFA30B107F0AAFB0028F5D107F0AFFB7F
:102C7000F2E707F0A9FBEFE7B4010020FEB5C0883A
:102C800014460E46A04201D2054600E01546844295
:102C900007D2802007F00EF8B4FBF0F100FB1140E2
:102CA00068B100200096CDE90150002000F074FCCE
:102CB0006946802000F0EEF8040002D006E0012012
:102CC000F0E705498020FFF765FF0446002000F08B
:102CD00091FC2046FEBD00005CEC000008B14021E4
:102CE00001600148704700004815002010B507F04A
:102CF00059FB20B104A140F26F3000F0BBFCBDE8ED
:102D0000104006F0D9BD00002E2E5C2E2E5C2E2E1B
:102D10005C2E2E5C2E2E5C2E2E5C636F6D706F6EA3
:102D2000656E74735C6C69627261726965735C75FF
:102D30007362645C6170705F757362642E6300001F
:102D400006F0FCBD10B50C46010600F00F02092A82
:102D500008D200F009F8006820B12146BDE8104013
:102D600001F04EBB102010BD10B5010600F00F049D
:102D700008D5092C04D309A140F2611000F07AFCB7
:102D8000144808E0092C04D304A140F2671000F0B5
:102D900071FC1048483000EBC40010BD2E2E5C2E94
:102DA0002E5C2E2E5C2E2E5C2E2E5C2E2E5C636FE7
:102DB0006D706F6E656E74735C6C6962726172695E
:102DC00065735C757362645C6170705F7573626477
:102DD0002E630000AC14002010B5044600F00F0074
:102DE000082805D2204606F08DFE204606F0E6FFB4
:102DF0002046BDE8104006F0A9BE000070B50C46A4
:102E0000054606F0F3FE18B105480078022801D007
:102E1000082070BD21462846BDE8704006F0EEBE91
:102E20008C01002010B5FFF79FFF006810BD000067
:102E300070B50D460646FFF797FF0446056015B1CD
:102E40006868006808E00EB1802E04D103A140F24A
:102E50008B1000F00FFC0020606070BD2E2E5C2EE9
:102E60002E5C2E2E5C2E2E5C2E2E5C2E2E5C636F26
:102E70006D706F6E656E74735C6C6962726172699D
:102E800065735C757362645C6170705F75736264B6
:102E90002E63000070B50C46054606F0A7FE18B17B
:102EA00005480078022801D0082070BD2146284638
:102EB000BDE8704007F012B88C0100200149096894
:102EC000084700003C15002070B57D4C0546606841
:102ED00020B97CA140F2C33000F0CCFB03F0F6F93E
:102EE000072804D277A140F2CA3000F0C3FB28784B
:102EF000092872D007DC16D2DFE800F07085A98CB3
:102F000096B2B715DA00812814D006DC0A28F0D072
:102F10000F28EED0802806D13CE082281FD08328DD
:102F200043D084284AD0BDE8704066A140F2AB404F
:102F300000F0A0BB7148FFF725FE7048FFF7FCFAD0
:102F40000D200BF045FCA06810B96D48007A00B167
:102F5000012007F07DFAFFF701FB012073E0FFF786
:102F6000FDFA07F0CBFA00200AF0C8FE6348401CC7
:102F7000FFF7E2FA6148401CFFF704FE0E200BF059
:102F800027FC207800F0EEFA00283BD0BDE8704026
:102F900006F00EBB2078052803D0062803D00728AA
:102FA00030D102204FE008204DE02078032829D1BD
:102FB00007F0EEFA002825D0042044E0207803280A
:102FC00005D107F0E5FA10B104200AF097FE07F0EA
:102FD000AFFB002816D0062035E06AE000200BF099
:102FE000F7FBA46840F20E260AE02946204601F0CD
:102FF00007FA1CB943A1304600F03CFB2068446846
:10300000002CF2D170BDFFF7A9FA02200AF076FE7B
:10301000012003E005200AF071FE03200BF0D8FB2D
:103020002846FFF7AFFD46E003200BF0D1FB334805
:10303000801CFFF7A7FD3148801CFFF77DFA207840
:103040000628AED10720BDE870400AF057BE032025
:103050000AF054FE02200BF0BBFB2846FFF76CFA87
:103060002846BDE87040FFF78DBDA878FFF77CFECD
:103070000446006820B913A140F2874000F0FAFA34
:10308000606820B90FA14FF4916000F0F3FAD4E921
:103090000002294690470028B4D0A8780107B1D093
:1030A00000F00F010829ADD2BDE8704006F054BE13
:1030B00008200BF08DFB2846BDE87040FFF73CBAB6
:1030C0008C0100202E2E5C2E2E5C2E2E5C2E2E5C73
:1030D0002E2E5C2E2E5C636F6D706F6E656E74733A
:1030E0005C6C69627261726965735C757362645C61
:1030F0006170705F757362642E630000F1EB000015
:103100003C1500202E2E5C2E2E5C2E2E5C2E2E5C6E
:103110002E2E5C2E2E5C636F6D706F6E656E7473F9
:103120005C6C69627261726965735C757362645C20
:103130006170705F757362642E680000FFF7BEBE39
:1031400010B520B104A140F2272000F093FABDE8A9
:1031500010400F48FFF7B2BE2E2E5C2E2E5C2E2E96
:103160005C2E2E5C2E2E5C2E2E5C636F6D706F6E4F
:10317000656E74735C6C69627261726965735C75AB
:103180007362645C6170705F757362642E630000CB
:10319000E0EB0000114601F033B9000070B50446C1
:1031A00040680D46C2680AB120469047207AA8427E
:1031B00004D20CA140F2BF2000F05CFA2946204660
:1031C000FFF7C0FB05464678002408E02146284664
:1031D000FFF790FB007806F065FC641CE4B2B44293
:1031E000F4D370BD2E2E5C2E2E5C2E2E5C2E2E5C0B
:1031F0002E2E5C2E2E5C636F6D706F6E656E747319
:103200005C6C69627261726965735C757362645C3F
:103210006170705F757362642E6300002DE9F04188
:1032200080460F480E46456816E02F7A00240DE0D0
:1032300021462846FFF786FB0178414504D106B1B7
:1032400034702846BDE8F081641CE4B2BC42EFD380
:103250002846FFF79FFB0546002DE6D10020F1E749
:103260008C01002070B50446406815460E46836800
:103270001BB120469847062809D1207AB04204D2D3
:103280000E494FF4287000F0F5F90DB1072070BD1C
:1032900031462046FFF756FB05464678002408E0F5
:1032A00021462846FFF726FB0078FFF795FD641CB2
:1032B000E4B2B442F4D3002070BD0000E431000059
:1032C000034600205A681269002A01D018461047A8
:1032D000704700002DE9F843044606F017FA20B9BC
:1032E0002FA14FF4367000F0C5F93B4807F006F8FF
:1032F000002850D139490870486088604821384812
:10330000FEF717F9364848214830FEF712F93448DD
:10331000344D80304CB194E80E00103080E80E003F
:103320002F489030016821B105E005F12C010EC94C
:10333000F3E72D490160002006F03EFA30B1852800
:1033400004D017A240F20631FDF764FF274E002497
:103350000DE0002703E000783146FFF769FD3946AC
:10336000781CC7B24046FFF7C5FA0028F3D12146C2
:10337000641CE4B23046FFF7E5FA5FEA0008E8D1E2
:10338000686800906946304601F03AF8040004D0BD
:1033900007F0C0F92046BDE8F8830020FBE70000F5
:1033A0002E2E5C2E2E5C2E2E5C2E2E5C2E2E5C2E57
:1033B0002E5C636F6D706F6E656E74735C6C6962AA
:1033C0007261726965735C757362645C6170705F71
:1033D000757362642E6300003D3100008C01002093
:1033E000AC140020E0EB0000C92E00009CEC0000B3
:1033F00040B1012808D0022809D007A140F20E20D0
:1034000000F038B9124804E01148001D01E01048EE
:103410000830FFF753BD00002E2E5C2E2E5C2E2EA2
:103420005C2E2E5C2E2E5C2E2E5C636F6D706F6E8C
:10343000656E74735C6C69627261726965735C75E8
:103440007362645C6170705F757362642E63000008
:10345000FAEB000010B506F09DFF10B106F090FFEA
:1034600008B1082010BD054806F0BAF920B104A241
:103470004FF45871FDF7CEFE002010BD08EC00009F
:103480002E2E5C2E2E5C2E2E5C2E2E5C2E2E5C2E76
:103490002E5C636F6D706F6E656E74735C6C6962C9
:1034A0007261726965735C757362645C6170705F90
:1034B000757362642E63000010B506F061FF20B9D9
:1034C00009A140F2763000F0D5F815480168C1F343
:1034D000400121B1BDE810401248FFF7EFBC016880
:1034E00011F0010FF2D110BD2E2E5C2E2E5C2E2E6F
:1034F0005C2E2E5C2E2E5C2E2E5C636F6D706F6EBC
:10350000656E74735C6C69627261726965735C7517
:103510007362645C6170705F757362642E63000037
:1035200038040040E5EB0000034808B580680090CF
:103530006846FFF7C3FC08BDE0EB0000074918B17F
:10354000052803D30020704708687047044A105CC0
:103550000028FAD051F8200070470000C401002074
:1035600028ED0000092808D2DFE800F0070705076A
:103570000705050505000120704700207047092850
:1035800008D2DFE800F0070705070707070705006F
:10359000012070470020704710B509F0EDFD0128AB
:1035A00003D004A11D2000F065F8BDE8104000F034
:1035B0004FB800002E2E5C2E2E5C2E2E5C2E2E5C24
:1035C0002E2E5C2E2E5C636F6D706F6E656E747345
:1035D0005C6C69627261726965735C7574696C5C5C
:1035E0006170705F7574696C5F706C6174666F7226
:1035F0006D2E630010B509F0BFFD012803D004A1B2
:103600002B2000F037F8BDE8104000F029B800008A
:103610002E2E5C2E2E5C2E2E5C2E2E5C2E2E5C2EE4
:103620002E5C636F6D706F6E656E74735C6C696237
:103630007261726965735C7574696C5C6170705FEE
:103640007574696C5F706C6174666F726D2E630067
:1036500072B602480168491C01607047D801002019
:1036600003490868401E086000D162B67047000038
:10367000D80100201CB56A46ADF800000191002178
:1036800044F20200FEF716FE1CBD102802D31038CB
:10369000C0B2704740F08000704700002DE9F0474D
:1036A0000546C61C90460F464FF001090020FFF763
:1036B00073FF1B4C20683860D4E90001401AA168F0
:1036C00004F21C47081A0EE00121384604F046FEB9
:1036D00004F062FA0146384604F040FED4E90001E5
:1036E000401AA168081A401C8642EDD8B8F1000FB4
:1036F00003D0052065F3891002E0062065F39F5092
:10370000A2682168114004EB8101C8602068304440
:1037100020600020FFF76EFF4846BDE8F0870000FC
:103720006419002030B482680468531C8360A1547B
:10373000D0E901128A4202D330BC07F061B830BC34
:1037400070470000034803C8814201D1012070473F
:1037500000207047641900204360CA699A420DD363
:103760008A690260886918448861086F184408678C
:10377000C869C01AC86100D00120704701F1280251
:10378000026000208B67704710B5040003D1064922
:103790003920FFF76FFF206818B903493A20FFF777
:1037A00069FF2068083010BD24FC000070B50C468D
:1037B000060004D1224940F2B720FFF75BFF24B98D
:1037C0001F494FF42E70FFF755FF207800250F2872
:1037D00033D2DFE800F033083333320C11323208D1
:1037E000323333333300304600F0D3FB26E021463A
:1037F00030460AF06BF80FE0304602F054FC014608
:10380000A0780025814219D00106E1784FF003002D
:1038100004D531B901210CE005460FE021B10129A1
:103820000CD00329F8D109E0304600F0C3FB05466F
:10383000002130460AF0BEFF00E00625284670BD94
:1038400024FC00002DE9FF5F05460198DFF8F093A6
:103850001F46017A89F800101646019800F042FBD5
:10386000804625B9F74940F2E920FFF703FF2968B0
:103870004FF0000A40F21F325446A1F21F304FF0C1
:10388000020B914256D04CDC40F20132A1F20130E1
:10389000914272D029DC40F2F120A1F2F122814262
:1038A0006CD015DC40F2EE22A1F2EE2391426ED0F4
:1038B00009DC4FF43B73E1B3994270D0A1F500717C
:1038C000ED395ED17AE0012B74D0022B59D19BE007
:1038D000092A70D004DC012A6ED0022A51D1B7E047
:1038E0000A2A6AD00F2A4CD1DDE00E2871D00EDCF6
:1038F00007286ED006DC01286CD005286BD006287E
:103900003FD116E10C2867D00D283AD138E115389F
:10391000092836D2DFE800F0F535353535F4F3F215
:10392000F10013286FD010DCA0F10300102828D27A
:1039300001E02EE079E1DFE800F0F0EFEEEDEC24BD
:1039400024EBEAE9E82424E7E6E537280CD00CDC90
:10395000292878D004DC142876D0282811D125E233
:103960002D2872D032280CD150E244286ED006DCCB
:103970003E286CD03F2804D16FE29FE04CE04928FC
:10398000F4D00020C5F800A004B0BDE8F09F24E00A
:1039900005E008212971002F01D82B607FE20EB1CC
:1039A000297931700B2101242971012F06D840F2A9
:1039B000ED2073E21CE059E03AE062E00EB12979B3
:1039C000315598F81410641C2971BC4205D32A6043
:1039D00065E2BAE07FE0A1E0C7E00EB12979315598
:1039E000641C85F804B0BC4202D340F2EF2055E2DB
:1039F0000EB129793155641C85F804B0BC4203D35B
:103A00004FF43C704AE2A6E10EB129793155641CAD
:103A100085F804B0BC42CCD20EB12879305598F864
:103A20001900641C2871BC4202D340F2F22035E236
:103A30000EB128793055641C85F804A0BC4207D328
:103A400040F2F3202AE2BCE191E1CDE117E2F9E195
:103A50000EB12879305589F801A0641C35E209209F
:103A60002871BC4202D340F2FA2017E20EB1287945
:103A700030550420641C2871BC4202D340F2FB2064
:103A80000CE20EB12879305599F80110641C0198A8
:103A9000FEF76CFFC9F8040000782871BC4202D31D
:103AA0004FF44070FAE10EB128793055641C85F866
:103AB00004A0BC4202D340F20130EFE10EB12879FC
:103AC0003055D9F80400641CBC424078287102D3F8
:103AD00040F20230E2E10EB128793055D9F8040005
:103AE00098F81410641C0078814233D185F804B032
:103AF000BC4213D340F20630D0E18BE07FE073E0AC
:103B000067E054E01BE10FE103E1F7E0EBE0DFE009
:103B1000D3E0C7E0B9E0ADE0A1E095E00EB12879CF
:103B20003055641C85F804B0BC4202D340F2073023
:103B3000B4E10EB12879305598F81900641C287149
:103B4000BC4202D34FF44270A8E10EB1287930553F
:103B5000641C25E098F8161081421CD10A202871B7
:103B6000BC4202D340F20D3098E10EB128793055B5
:103B7000641C85F804A0BC4202D340F20E308DE1F3
:103B80000EB128793055641C85F804A0BC42DCD302
:103B900040F20F3082E12B4940F21330FFF76AFD0B
:103BA00085F804A0BC4202D340F2163076E10EB193
:103BB00028793055D9F8040098F81410641C00785E
:103BC00081426ED105202871BC4202D340F21B30E5
:103BD00064E10EB1287930552420641C2871BC4260
:103BE00002D34FF4477059E10EB128793055641C67
:103BF00085F804A0BC4202D340F21D304EE10EB164
:103C0000287930551020641C2871BC4202D340F240
:103C10001E3043E10EB1287930550120641C287113
:103C2000BC4202D340F21F3038E10EB12879305542
:103C30000520641C2871BC4206D340F222302DE1DD
:103C4000A001002024FC00000EB12879305524206A
:103C5000641C2871BC4202D340F223301EE10EB135
:103C6000287930550120641C2871BC4202D34FF4DE
:103C7000497013E10EB1287930550320641C287176
:103C8000BC4202D340F2253008E10EB1287930550C
:103C900098F81600641C2871BC4203D340F2263009
:103CA000FCE069E00EB1287930550420641C2871CD
:103CB000BC4202D340F22930F0E00EB128793055F1
:103CC0002420641C2871BC4202D340F22A30E5E073
:103CD0000EB128793055641C85F804B0BC4202D37B
:103CE00040F22B30DAE00EB128793055641C85F8AB
:103CF00004B0BC4202D34FF44B70CFE00EB1287930
:103D000030550520641C2871BC4202D340F22F308C
:103D1000C4E00EB1287930552420641C2871BC42BF
:103D200002D34FF44C70B9E00EB12879305506201B
:103D3000641C2871BC4202D340F23130AEE00EB1B7
:103D40002879305598F81400641C2871BC4202D3BD
:103D500040F23230A2E00EB12879305598F81600C2
:103D6000641C2871BC4202D340F2333096E00EB19D
:103D700028793055641C08E098F81610814204D068
:103D800057494FF44F70FFF775FCD9F804104846B7
:103D9000497889F80210514689F803A08CE0072081
:103DA0002871BC4202D340F2473077E00EB1287947
:103DB00030550520641C2871BC4202D34FF4527068
:103DC0006CE00EB12879305599F80310641CD9F8CD
:103DD0000400FEF7A3FDC9F8080000782871BC4272
:103DE00002D34FF4537059E00EB128793055D9F809
:103DF000040098F81410641C007881420BD1032051
:103E00002871BC4202D340F2513047E00EB128790C
:103E10003055641C0FE098F81610814206D185F8E1
:103E200004B0BC42F2D340F2563037E02C4940F2A5
:103E30005A30FFF71FFC40202871BC4202D340F2E9
:103E40005D302BE00EB128793055641C85F804A054
:103E5000BC4202D340F25E3020E00EB128793055EA
:103E6000D9F8040098F81410641C007881420BD132
:103E700010202871BC4202D340F263300EE00EB134
:103E800028793055641C11E098F81610814208D149
:103E900085F804A0BC42F2D34FF45A702860012088
:103EA00072E50F494FF45B70FFF7E4FB99F80310DC
:103EB0004846491C89F803108278C9B29142FFF440
:103EC0006EAF4178491C89F8011099F8011099F8F2
:103ED00000008142FFF4C3AD40F27330DEE7000022
:103EE00024FC000010B5040003D103492C20FFF787
:103EF000C1FB204610BD000024FC000070B5054643
:103F0000144808F0AFF830B9134800684068D0E9A9
:103F1000002100209047402210491148FEF78CFBF9
:103F200038B1922815D0BDE870400E4A4B21FDF7FC
:103F300071B92846FEF7C8FB044602460749054802
:103F400008F046F88442DBD006494220FFF792FB96
:103F5000D6E770BD1014010054020020B4160020F2
:103F6000A8EF00007406010010B508B1032010BDD1
:103F70000846FFF709FC0178202901D0062010BD72
:103F8000D0F80210C160C1880182017A81740020DA
:103F900010BD10B5FFF7A6FFFFF7F6FB00218182E9
:103FA00081610162C16601674167816700F1280193
:103FB000816610BD2DE9FC478146FFF793FFFFF7AF
:103FC000E3FB0446484602F03EFB07462F48002626
:103FD0008068CDE90004E069B0B1D4F87880454646
:103FE000404500D205462A4604F12801A069FDF7A4
:103FF00079FA206F2844C4E91C60A8EB0500E0664C
:1040000060192830A06627E0206F60672667E666A3
:10401000216A304621B1626AA161C4E907202CE01F
:10402000A06130E004F11802616A82E84300E26EA8
:104030001AB38A4215D3A36E0A461946FDF752FAFF
:10404000E16EE069091AE166A16E0144A16660674C
:10405000002148460AF0AEFB206A0028E2D1A661A2
:1040600011E0A16EFDF73EFAE06E2067E169091AE2
:10407000E161A1690818A06105D069463846FEF7DC
:10408000BDFEBDE8FC870020FBE700002CEC000033
:104090004360CA699A4204D38A6902600B67CB61A4
:1040A00003E001F1280202608B67002070470000E6
:1040B00070B5044681B1012905D002291CD1BDE8A3
:1040C0007040FFF71BBF0D4800684068D0E9002131
:1040D000BDE8704001201047FEF7F6FA054602469B
:1040E0000749084807F074FF854203D006496C2051
:1040F000FFF7C0FA2046E2E770BD0000540200203E
:10410000B41600201014010074060100024908448E
:1041100090F9300070470000C813002070B5816826
:1041200004464A8B002A4DD0888B00284AD0121AA8
:10413000084495B200F120016A1C1F30FDF7D2F946
:10414000A068818B491E8183A068418B491E4183F1
:104150008DB308221C49206906F012FB204604F0AA
:104160008AF88188C088814211D1A06817A2818B0A
:10417000431808212046203304F082FE204600F038
:10418000BDF929462046BDE8704002F029B9204615
:1041900000F020FA204600F0B1F9A0680BA2818B54
:1041A000431808212046203304F06AFE2046BDE86B
:1041B000704000F0D9B92069BDE87040044A03A1FD
:1041C00006F0DEBA70BD0000FC430000257300005D
:1041D00074EF000070B504468068428B818B521AE0
:1041E00015042D0C48D0084400F121012A46203046
:1041F000FDF778F9A068418B491E4183204604F001
:104200003AF88188C08881420CD1A0681BA2818BBA
:10421000431808212046203304F032FE4FF4707614
:10422000C4B913E0204600F0D5F9204600F066F945
:10423000A06812A2818B431808212046203304F085
:104240001FFE2046BDE8704000F08EB90CA130463C
:10425000FFF710FA206918B909A13046FFF70AFAEA
:10426000154A06A1206906F08BFA6D1EA9B22046F8
:10427000BDE8704002F0B4B870BD000025730000C6
:104280002E2E5C2E2E5C2E2E5C2E2E5C2E2E5C2E68
:104290002E5C636F6D706F6E656E74735C6C6962BB
:1042A0007261726965735C636C695C6E72665F6390
:1042B0006C692E630000000078EF00002DE9F041EA
:1042C000044680680F46D0F84813828B11F001062F
:1042D000418BA1EB02039DB24FF4BF730BD0994207
:1042E00001D9002D7ED0A068818B0844002180F880
:1042F000207066B113E099427CD8002DF3D083186A
:1043000003F120012A46481CFDF7ECF8EBE7A06812
:10431000428B521C92B24283A068203281544DB32A
:10432000204603F0A8FF8188C08881420ED1A06892
:1043300031A2818B431808212046203304F0A0FDD0
:10434000A81B81B2204602F04BF821E0204600F085
:1043500041F9A06828A2818B431808212046203308
:1043600004F08EFD204600F0FFF80121204602F007
:1043700049F90DE03EB1A068428B521C92B24283D3
:10438000A068203281543A461CA1206906F0F8F951
:10439000A168888B401C8883204602F00EF8002814
:1043A000204603D0BDE8F04102F026B803F076F8CD
:1043B00000281FD0204603F05EFF0546C088A9886C
:1043C000401A401E81B2204601F098FF204602F0BC
:1043D00013F8E888A988401A81B2204602F01EF935
:1043E000288800E006E0401E81B22046BDE8F0418A
:1043F00002F008B9BDE8F0812573000025630000D4
:1044000070B50D46040003D10BA1E120FFF732F98E
:10441000606818B908A1E220FFF72CF9606800680D
:1044200018B905A1E320FFF725F96068294602685D
:104430002046BDE8704010472E2E5C2E2E5C2E2E9E
:104440005C2E2E5C2E2E5C2E2E5C636F6D706F6E5C
:10445000656E74735C6C69627261726965735C75B8
:104460007362645C6170705F757362642E630000D8
:1044700009B10620704700207047000041680A60BB
:1044800041684B60014908600020704754020020D9
:1044900070B51C0015460E4603D10649A020FFF753
:1044A000E9F82A463146044807F0A4FE20600020BF
:1044B00070BD000074060100101401000020704758
:1044C00070B51C0015460E4603D10A49AD20FFF712
:1044D000D1F82A4631460848FEF7FBF838B10828DB
:1044E00005D0112802D100202060002070BD256079
:1044F000FBE7000074060100A8EF000070B504009F
:104500004FF4B27503D108A12846FFF7B3F820692C
:1045100018B905A12846FFF7ADF82069BDE870403D
:104520000F4A10A106F02CB92E2E5C2E2E5C2E2EDA
:104530005C2E2E5C2E2E5C2E2E5C636F6D706F6E6B
:10454000656E74735C6C69627261726965735C63D9
:104550006C695C6E72665F636C692E6300000000BC
:104560006CEF00002573000070B504004FF4B875BF
:1045700003D108A12846FFF77DF8206918B905A1E5
:104580002846FFF777F82069BDE870400F4A10A170
:1045900006F0F6B82E2E5C2E2E5C2E2E5C2E2E5C97
:1045A0002E2E5C2E2E5C636F6D706F6E656E747355
:1045B0005C6C69627261726965735C636C695C6E84
:1045C00072665F636C692E630000000063EF000099
:1045D0002573000070B504004FF4B57503D108A130
:1045E0002846FFF747F8206918B905A12846FFF7C4
:1045F00041F82069BDE870400F4A10A106F0C0B82C
:104600002E2E5C2E2E5C2E2E5C2E2E5C2E2E5C2EE4
:104610002E5C636F6D706F6E656E74735C6C696237
:104620007261726965735C636C695C6E72665F630C
:104630006C692E630000000060EF0000257300002D
:104640002DE9F04F4FF000099FB005464E464C460D
:10465000CDF8509001F0DAFC284603F04FF8A86836
:10466000CA464FF4C07100F5D070FCF762FFA8682D
:1046700000F12001428B00F5D070FCF733FFA868F1
:1046800000F5D07009F054FAA86800F5D07000F079
:1046900037FCA968401CC883284601F03BFE284629
:1046A00001F08BFE10B9284601F0A6FEAA680C2383
:1046B00004A912A8203203F035FC0346129840B139
:1046C0005BB170A20221284604F0DAFB1FB0BDE8FE
:1046D000F08F284601F090FEF8E7704970480027F7
:1046E000A1EB00080DF1100B13E008D36DA00090B2
:1046F00071A202212846049B04F0C2FBE6E700EB0E
:10470000C704606801685BF82900FCF740FF20B12E
:104710007F1C6348B7EBD80FE7D9207820B168A198
:1047200040F68200FEF7A6FF4FF00008CDF870803B
:104730006068C7680FB1A9684860606809F1010442
:104740004FF0000980680390129884425CD25BF8B5
:10475000240069A1FCF71BFFD0B15BF8240067A11E
:10476000FCF715FFA0B15BF824000AF07FF8B8B1A0
:104770000020139013A800905BF8243022462846AE
:10478000039901F0D1FC02283ED013998A4439E004
:10479000A868D0F8481341F00201C0F8481333E08C
:1047A00018A84A46009009F101091CAB214603985C
:1047B00001F09EF9B9F1000F26D01C9820B30168D2
:1047C0005BF82400FCF7E3FE0028BDD11C98C1680B
:1047D000A1B1BAF1000F0BD0284601F09BFD28468D
:1047E00001F0EBFD10B9284601F006FE45A23CE0C1
:1047F000A9F10101DDF80C802646149180684FF084
:1048000000090390641C9FE7BAF1000F10D0A8685C
:1048100000F5D071C28B2030FCF764FEA9680C2330
:10482000C88B4883AA6804A912A8203203F07AFB37
:10483000B8F1000F12D018A800901CAB31464046CA
:10484000149A01F055F9A9681C980BEB8602486090
:104850001299C368891B284698470AE027B104AA21
:1048600028461299B84704E032A20221284604F0F3
:1048700007FBA868D0F8481321F00201C0F84813DC
:1048800024E700006E6F74207465726D696E617448
:1048900065643A2025630D0A0000000074120100CF
:1048A000E41101003A20636F6D6D616E64206E6FDC
:1048B0007420666F756E6400257325730D0A000001
:1048C0002E2E5C2E2E5C2E2E5C2E2E5C2E2E5C2E22
:1048D0002E5C636F6D706F6E656E74735C6C696275
:1048E0007261726965735C636C695C6E72665F634A
:1048F0006C692E63000000002D6800002D2D686596
:104900006C7000004572726F723A20726571756545
:1049100073746564206D756C7469706C6520667560
:104920006E6374696F6E20657865637574696F6E08
:10493000730D0A00506C656173652073706563695F
:104940006679206120737562636F6D6D616E642E90
:104950000D0A00008068D0F84803C0F3C00070471B
:104960002DE9F0410446C0688EB00D460026C068AF
:10497000324601A907F0BEFA18B100200EB0BDE81A
:10498000F0816DB1019806F0C6FFA168D1F8380337
:10499000401CC1F8380300F00700012879D1012636
:1049A000204603F068FC05468088012804D9401E93
:1049B00081B2204601F032FE2888012804D9401E29
:1049C00081B2204601F00CFD2046FFF797FD2EB185
:1049D00031A20221204604F053FA5AE04FF00108B8
:1049E00000230C2202A9019806F0A4FF0498059068
:1049F000BDF80C00ADF81800BDF80E00ADF81A00B7
:104A00008DF81D8002980C2700F00300012802D0C9
:104A1000022818D032E002983B46860AC0F3C20052
:104A20008DF81C00029808A9C0F38315AA0001980C
:104A300006F080FF2069009005AB2A4608A93046A1
:104A400006F0AEFE1AE00298850DC0F3C2008DF8A4
:104A50001C00082D01D22E4600E008263B463246B7
:104A600008A9019806F066FF3744AD1B05AA314638
:104A700008A8236906F078FD002DEAD1019806F018
:104A80004AFFE068002201A9C06807F033FA002855
:104A9000A6D0012072E700004C6F7374206C6F6722
:104AA00073202D20696E637265617365206C6F677A
:104AB000206261636B656E64207175657565207336
:104AC000697A652E0D0A00002DE9F0411E46174651
:104AD0000D46040000D01DB909A1EA20FEF7CAFD69
:104AE000606818B906A1EB20FEF7C4FD6068334684
:104AF0003A4601680C692946A446BDE8F041604782
:104B00002E2E5C2E2E5C2E2E5C2E2E5C2E2E5C2EDF
:104B10002E5C636F6D706F6E656E74735C6C696232
:104B20007261726965735C636C695C6E72665F6307
:104B30006C692E630000000070B5044640680E46A4
:104B40000025007A38B1A0680068FDF7E3FC08B1E1
:104B500008281AD10025BEB96068007A50B90B4AFE
:104B60000021A068FDF76EFC616805004FF00100B0
:104B7000087209D1A068224640F6CD410068FDF7D1
:104B8000A5FC0546FCF7E4FF284670BDA1DE000049
:104B900010B541680A6041684B60406800210172AD
:104BA000FCF7D6FF024901200870002010BD00006C
:104BB0005802002070B51C0015460E4603D106A110
:104BC0006620FEF757FD2A4631460020FCF7C2FF5B
:104BD0002060002070BD00002E2E5C2E2E5C2E2E3C
:104BE0005C2E2E5C2E2E5C2E2E5C636F6D706F6EB5
:104BF000656E74735C6C69627261726965735C6323
:104C00006C695C7274745C6E72665F636C695F720F
:104C100074742E630000000080680068FDF77ABCA1
:104C20002DE9F05F5FEA030815460E4603D11DA18A
:104C30007420FEF71FFD2B480068C0070FD0DFF877
:104C4000A8B000244FF0050AB14600BF09EB0401EB
:104C50002A460020FCF7CCFF060003D011E0C8F87C
:104C6000005018E09BF8000088B10A271F494FF454
:104C70007A4088477F1EF9D1AAF101005FEA000A55
:104C80000CD001218BF800103444AD1BDED1002C78
:104C9000E5D0C8F800400020BDE8F09F00218BF867
:104CA0000010F4E72E2E5C2E2E5C2E2E5C2E2E5C39
:104CB0002E2E5C2E2E5C636F6D706F6E656E74733E
:104CC0005C6C69627261726965735C636C695C7269
:104CD00074745C6E72665F636C695F7274742E6369
:104CE00000000000F0ED00E058020020F1EF0000AD
:104CF0007CB500260446019601AB01226946204698
:104D0000FFF7E2FE019800281CD09DF800007F28E4
:104D1000F2D807F0DDF8A068417821B1012964D00C
:104D2000022966D16AE0217E9DF80050A9420DD18A
:104D3000408B0028204606D0FFF782FC0221204647
:104D400000F0CAF87CBD01F057FBF7E7092D1CD035
:104D500004DC002DD0D0082D04D11FE01B2D12D073
:104D60007F2D24D0FCF766FB0068405D10F03E0FFD
:104D7000C2D02046FFF7EEFD9DF8001000B320469C
:104D8000FFF79CFAB8E7012136E02046FFF7E2FD85
:104D90000028B1D0204600F0B9F8ADE72046FFF773
:104DA000D9FD0028A8D02046FFF7B8F9A4E720468F
:104DB000FFF7D0FD00289FD02046FFF70BFA9BE7B6
:104DC000A268508BB0F5BF7F96D8908B1318401C0B
:104DD000908383F82010A068818B084480F82060BD
:104DE000A068418B491C418386E79DF800105B2930
:104DF00001D0002100E0022141707DE700214170D7
:104E00002046FFF7A7FD00289CD09DF80000413800
:104E10000C28B7D2DFE800F007090E2D064C06502B
:104E20000606065468E7012100E00021204602F052
:104E300049FB61E7204603F01EFA054600886988B1
:104E4000884203D1A988EA8891429BD06989884227
:104E50004FF00101204606D101F050FA6989204641
:104E600001F0BEFA01E001F0CDFBA068818B491C86
:104E700015E0204603F0FFF905460088297B491C10
:104E8000884202D1A988012987D001284FF0010169
:104E9000204606D001F0A4FAA068818B491E8183C8
:104EA0002AE701F0BBFB6989204601F0ABFBF3E781
:104EB000204601F02FFA1FE7204601F054FA1BE7C5
:104EC000A068D0F8482301219143D0F8482361F32A
:104ED0000002C0F848230FE78268022911700CD144
:104EE0008268002182F82010826891838268518351
:104EF00002A20321036803F0C3BF704725730000BB
:104F0000002801D0FCF73CBB704700002DE9F04FB2
:104F1000A5B04FF000080546CDF83480CDF83080BC
:104F200080684746418BA1F27F11494289B25FEA0E
:104F3000010B71D0828B00F1200100F5D070FCF7DD
:104F4000D1FAA8680024818B084480F8A041FCF7BE
:104F500071FA20900168A8680C23828B0244D27FEA
:104F6000895CC0F84443AA6801F001090EA91FA892
:104F700002F5D07202F0D6FF0E98FFF7C1FF86B29D
:104F8000A2460A9407941F9921B101EB0900401E23
:104F9000B8426BD8B9F1000F01D0002605E00EA889
:104FA00050F82700FFF7ACFF86B200241BA822466A
:104FB0000090641C0AAB3946504600F099FD0A98EF
:104FC00000287CD001680EA8324650F82700FCF774
:104FD000F5FA0028079802D00028E7D06FE0E0B18A
:104FE0000A980068FFF78CFF0C9980B2884200D9BC
:104FF0000C90BBF1000F2BD021A8009007AB4246CC
:105000003946504600F074FD0A98006883190798E5
:1050100000688119002015E042E0601E0D900A989A
:105020000068FFF76DFF80B20C90801B58450FDAC7
:1050300080B20CE011F800C0624506D1401C0004AB
:10504000000C10D01A5C002AF4D1834500D98346A5
:105050000A98B4F101080790A8D267A20421284653
:1050600003F00EFF2BE04FF6FF70EEE700241BA8C5
:1050700022460090641C0AAB3946504600F038FDC9
:105080004CB10A9800280BD00EA850F8270009F060
:10509000EDFBA0B907E058A20421284603F0F0FE7A
:1050A00025B0BDE8F08F0A9801680EA850F82700D7
:1050B000FCF76DFA0028DAD10A98D0F808A0BAF106
:1050C000000F09D00A9838B11F997F1CBFB201EBBD
:1050D00009008742FFF457AF07980028E0D00D98E9
:1050E0004146404556D19AF8000038B11BA80A46FF
:1050F000009007AB3946504600F0FAFC079800686C
:10510000FFF7FEFEB04206D007985A4600688119A4
:10511000284601F06FF820980368A868818B421830
:1051200092F820209A5CD20715D0408B8142B7D2EA
:10513000284603F0A0F8A9688488888B401C8883DF
:10514000284603F098F88088A0421FD10121284604
:1051500001F058FAA4E7D0F84813C90711D0D0F8E5
:10516000481321F00101C0F8481320212846FFF719
:10517000A5F8A868D0F8481341F00101C0F8481319
:105180008EE720212846FFF799F889E7284601F0A5
:1051900033F985E7002128460C9A07F037FF0DF117
:1051A0006C090D9C0EE00AAB224639465046CDF8FC
:1051B000009000F09DFC0A980C9A0168284607F0C0
:1051C00025FF641C4445EED917A2032128462B680D
:1051D00003F056FEAB6816A208212846203303F0E0
:1051E0004FFE284601F0D8F907985A460068811901
:1051F000284600F0FFFF53E75461622066756E6336
:1052000074696F6E3A20636F6D6D616E64732063B5
:105210006F756E746572206F766572666C6F7765F8
:10522000642E0D0A000000000D0A25730000000026
:105230002573000070B505460C0004D107A14FF49A
:105240001260FEF717FA002D06D0A068D0F84813B8
:1052500041F02001C0F8481370BD00002E2E5C2ED6
:105260002E5C2E2E5C2E2E5C2E2E5C2E2E5C636F02
:105270006D706F6E656E74735C6C69627261726979
:1052800065735C636C695C6E72665F636C692E63E8
:105290000000000000238B540A460068194603F002
:1052A000EFBD00002DE9F8431F461446884605006F
:1052B00002D0B8F1000F03D11EA1BB20FEF7DAF92E
:1052C0006868006818B91BA1BC20FEF7D3F9002656
:1052D00028E000BF686808EB06016B460268D2F858
:1052E0000CC02246E04718B112A1C620FEF7C2F951
:1052F0000098844203D20FA1C720FEF7BBF90098A3
:105300000644241A70B9A868017803290AD000BF9E
:10531000D0F848138906FBD5D0F8481321F02001B6
:10532000C0F84813002CD5D1002F01D00098386068
:10533000BDE8F8832E2E5C2E2E5C2E2E5C2E2E5C6D
:105340002E2E5C2E2E5C636F6D706F6E656E7473A7
:105350005C6C69627261726965735C636C695C6ED6
:1053600072665F636C692E630000000070B5084CC4
:10537000050009D010342168002907D00868206092
:10538000496828468847F6E70834F4E770BD00000E
:105390007C110020054A012120B1012805D191701E
:1053A000FFF7E4BF51700020FAE770477C1100203E
:1053B0003EB5044603F038FF38B103B02046BDE8DF
:1053C00030400022114603F0B9BD06490648CDE938
:1053D00000010346029105A20821204603F050FD7A
:1053E0003EBD00008C050100001000004170706C93
:1053F00069636174696F6E20616464726573733A86
:1054000025642028307825303858292C2073697A73
:10541000653A2025642028307825303858290D0A2F
:1054200000000000F8B514460E46050004D121A185
:105430004FF48770FEF71EF9A86818B1686808B1C4
:10544000286820B91BA140F20F10FEF713F9012EB6
:1054500003D0284603F0E2FE30B12846BDE8F8400C
:1054600001221B4903F06ABD022E08D0236801B057
:105470002846BDE8F04017A2022103F001BD1CA19F
:105480006068FCF784F868B11AA16068FCF77FF8DF
:1054900040B16068009019A202212846236803F0F9
:1054A000EFFCF8BD2846BDE8F8401BA2082103F038
:1054B000E7BC00002E2E5C2E2E5C2E2E5C64656DEB
:1054C0006F5F636C695F636D64732E63000000003F
:1054D00008EA000025733A206261642070617261FD
:1054E0006D6574657220636F756E740D0A0000003F
:1054F0002D7400002D2D74657374000025733A20FF
:10550000756E6B6E6F776E20706172616D6574651C
:10551000723A2025730D0A0044756D6D792074650B
:105520007374206F7074696F6E2E0D0A0000000096
:10553000012904D0136804A2022103F0A1BC094987
:10554000002048607047000025733A2062616420A3
:10555000706172616D6574657220636F756E740D34
:105560000A00000008000020012904D0136804A2EA
:10557000022103F085BC0949012008707047000032
:1055800025733A2062616420706172616D65746593
:105590007220636F756E740D0A0000000800002011
:1055A000012904D0136804A2022103F069BC09494F
:1055B000002008707047000025733A206261642063
:1055C000706172616D6574657220636F756E740DC4
:1055D0000A0000000800002070B514460D4606467B
:1055E000012902D003F01AFE30B13046BDE8704008
:1055F0000022114603F0A2BC2368022D01D904A2A7
:1056000000E00AA23046BDE87040022103F038BC39
:1056100025733A2062616420706172616D65746502
:105620007220636F756E740D0A00000025733A20B6
:10563000706C65617365207370656369667920734A
:105640007562636F6D6D616E640D0A002DE9F04740
:1056500014460D46814603F0E1FD30B14846BDE8F1
:10566000F0470022114603F069BC022D07D04846DE
:105670002368BDE8F04728A2022103F001BCDFF84F
:10568000B48098F80100142801D32BA206E06068CA
:10569000FBF776FF86B2212E02D32DA2022132E043
:1056A000002567680AE000BFFBF7C4FE0068795D6B
:1056B000405C10F0380F2BD06D1CEDB2B542F3D327
:1056C000284E002505EB451030446168FBF75FFF6D
:1056D00000281FD06D1CEDB2142DF3D398F80110E3
:1056E000454601EB4110491C88F8011030441EA1C9
:1056F0006268FCF735FD1D4B212269781948FBF7DC
:10570000A3FE1BA208214846BDE8F04703F0B8BB42
:105710001FA2C3E72EA2C1E725733A20626164206D
:10572000706172616D6574657220636F756E740D62
:105730000A00000008000020636F6D6D616E642038
:105740006C696D697420726561636865640D0A0037
:10575000746F6F206C6F6E6720636F6D6D616E6428
:105760000D0A0000040500202573000055DC000030
:10577000636F6D6D616E6420616464656420737530
:10578000636365737366756C6C790D0A00000000C5
:1057900062616420636F6D6D616E64206E616D6522
:1057A000202D20706C6561736520757365206F6EA8
:1057B0006C7920616C7068616E756D65726963618A
:1057C0006C20636861726163746572730D0A000016
:1057D0006475706C69636174656420636F6D6D617D
:1057E0006E640D0A000000002DE9F84314460D46D2
:1057F000804603F013FD30B14046BDE8F843002277
:10580000114603F09BBB022D03D014A20221236892
:105810001DE00025184F194E09E000BF05EB4510AB
:1058200038446168FBF7B3FE70B16D1CEDB270785F
:105830008542F3D36068009011A20221404623689C
:1058400003F01EFBBDE8F883636814A2082101B0D1
:105850004046BDE8F04303F013BB000025733A2037
:1058600062616420706172616D6574657220636F3E
:10587000756E740D0A000000040500200800002069
:1058800025733A20756B6E6F776E20706172616D53
:10589000657465723A2025730D0A000064796E61A3
:1058A0006D696320636F6D6D616E643A2025730DC1
:1058B0000A0000002DE9F04117460C4680460129F8
:1058C00002D003F0ABFC30B14046BDE8F04100220D
:1058D000114603F033BB022C02D01BA23B6811E03F
:1058E0000024204E204D08E004EB44103044796839
:1058F000FBF74DFE60B1641CE4B268788442F3D3D8
:105900007B681AA24046BDE8F041022103F0B8BA14
:10591000132C14D06878001B00EB401204EB4410E9
:10592000304400F12101FBF7DDFD687816A2401E2E
:1059300068704046BDE8F041082103F0A1BA00209C
:1059400086F87302F1E7000025733A206261642053
:10595000706172616D6574657220636F756E740D30
:105960000A0000000405002008000020646964208B
:105970006E6F742066696E6420636F6D6D616E6416
:105980003A2025730D0A0000636F6D6D616E64200F
:1059900072656D6F76656420737563636573736696
:1059A000756C6C790D0A0000F8B514460D46074673
:1059B00003F034FC30B13846BDE8F840002211460F
:1059C00003F0BCBA012D08D0236801B03846BDE809
:1059D000F04013A2022103F053BA184D687838B191
:1059E00017A20821384603F04BFA00241A4E13E0A0
:1059F0003846BDE8F84019A2042103F041BA00BFBF
:105A000004EB44103044009023461DA20821384680
:105A100003F036FA641CE4B268788442F0D3F8BD2F
:105A200025733A2062616420706172616D657465EE
:105A30007220636F756E740D0A000000080000206C
:105A400044796E616D696320636F6D6D616E642072
:105A50006C6973743A0D0A0004050020506C65618E
:105A600073652061646420736F6D6520636F6D6D75
:105A7000616E64732066697273742E0D0A000000F3
:105A80005B2533645D2025730D0A000010B50446C4
:105A900003F0CAFB30B120460022BDE81040114699
:105AA00003F04CBA1F21BDE8104002A20320FBF70F
:105AB000B1BB00002E2E5C2E2E5C2E2E5C2E2E5C9A
:105AC0002E2E5C2E2E5C636F6D706F6E656E747320
:105AD0005C6C69627261726965735C636C695C635A
:105AE0006C695F7574696C735F636D64732E6300BA
:105AF0002DE9F05F1C000A9F15468846064603D133
:105B000021A1FF20FDF7B6FD27B91FA14FF480703A
:105B1000FDF7B0FD4FF00009B8F1000F0BD026B330
:105B2000307840B372683946284690473868E0B10B
:105B30002760BDE8F09F22492248A1EB0008B5EBA1
:105B4000D80F15D2DFF880A0002683460AE000BFF8
:105B50000BEBC607786801685AF82500FBF717FDBC
:105B600020B1761CB6EBD80FF2D301E0786808E0DC
:105B7000C4F80090DDE7706800EB051001680029AB
:105B8000F6D02060D5E700002E2E5C2E2E5C2E2E47
:105B90005C2E2E5C2E2E5C2E2E5C636F6D706F6EF5
:105BA000656E74735C6C69627261726965735C6363
:105BB0006C695C6E72665F636C692E630000000046
:105BC00074120100E4110100100300202DE9F041DE
:105BD00015460F46044603F027FB30B12046BDE8CA
:105BE000F0410022114603F0A9B90126214C7F1E85
:105BF0000ED0012F14D06068022F22D0002837D099
:105C000020881DA106EB0040BDE8F04105F078BCFE
:105C1000606800282CD0208823A106EB0040F3E721
:105C20006068002824D00A2200216868FBF7D5FCB0
:105C30000246208821A106EB0040BDE8F04105F0B6
:105C400063BC002814D00A220021A868FBF7C5FC19
:105C500007460A2200216868FBF7BFFC024620883D
:105C60003B4606EB0040BDE8F0411AA105F053BCED
:105C7000BDE8F081F80400207465737420657272C9
:105C80006F72206D65737361676520776974682032
:105C90006D6F7265207468616E2033206172677564
:105CA0006D656E74730000007465737420657272A4
:105CB0006F72206D6573736167650000746573743E
:105CC000206572726F72206D6573736167653A202B
:105CD0002564000074657374206572726F72206DA4
:105CE0006573736167653A202564202564000000B0
:105CF0002DE9F04115460F46044603F095FA30B100
:105D00002046BDE8F0410022114603F017B90226F3
:105D1000214C7F1E0ED0012F14D06068022F22D09C
:105D2000022837D320881DA106EB0040BDE8F041D2
:105D300005F0E6BB606802282CD3208823A106EB7F
:105D40000040F3E76068022824D30A220021686833
:105D5000FBF743FC0246208822A106EB0040BDE889
:105D6000F04105F0D1BB022814D30A220021A86813
:105D7000FBF733FC07460A2200216868FBF72DFC7D
:105D8000024620883B4606EB0040BDE8F0411CA1DE
:105D900005F0C1BBBDE8F081F804002074657374A0
:105DA000207761726E696E67206D657373616765D8
:105DB0002077697468206D6F7265207468616E2049
:105DC0003320617267756D656E74730074657374EA
:105DD000207761726E696E67206D657373616765A8
:105DE0000000000074657374207761726E696E67DD
:105DF000206D6573736167653A20256400000000BB
:105E000074657374207761726E696E67206D657357
:105E1000736167653A2025642025640010B5044647
:105E200003F0FCF930B120460022BDE810401146D5
:105E300003F084B8054A0721204603F021F82046E4
:105E4000BDE8104002A2082103F01AB854F6000081
:105E50002020202020202020202020202020202042
:105E60004E6F726469632053656D69636F6E64750C
:105E700063746F72202020202020202020202020EA
:105E800020200D0A0D0A0000F8B515460E46040044
:105E900003D117A12520FDF7EDFBA06818B16068BC
:105EA00008B1206818B912A12620FDF7E3FB012EE6
:105EB00003D0204603F0B2F930B12046BDE8F840E7
:105EC0000022114603F03AB8022E08D02B6801B028
:105ED0002046BDE8F0400DA2022102F0D1BF686863
:105EE000009011A2022120462B6802F0C9FFF8BDE4
:105EF0002E2E5C2E2E5C2E2E5C64656D6F5F636CA7
:105F0000695F636D64732E630000000025733A209F
:105F100062616420706172616D6574657220636F87
:105F2000756E740D0A00000025733A20756E6B6E55
:105F30006F776E20706172616D657465723A2025AD
:105F4000730D0A002DE9F04116460D46074601245F
:105F500008E000BF56F8243007A20821384602F0B6
:105F60008FFF641CAC42F5D33846BDE8F04103A274
:105F7000082102F085BF0000257320000D0A0000F3
:105F8000F8B516460D460746012409E056F82400E8
:105F90000090234604A20821384602F071FF641CD9
:105FA000AC42F3D3F8BD0000617267765B25645D97
:105FB000203D2025730D0A0001A2022102F060BFDE
:105FC0004E696365206A6F6B65203B290D0A0000EE
:105FD00010B5044603F028F930B120460022BDE890
:105FE0001040114602F0AABFBFF34F8F0548016869
:105FF000054A01F4E06111430160BFF34F8F00BF18
:10600000FDE700000CED00E00400FA052DE9F04189
:1060100085680646002495F82000002811D0A04687
:10602000FBF708FA0746006804F1200104F10104B7
:10603000695CA4B2415CC90705D0002CF4D185F895
:106040002080BDE8F081641E2404240C0FD0688BEE
:10605000021B04F12000291805F12000521CFBF757
:1060600041FAB168488B001B4883B1688883B268E5
:106070003D68538BD0181F300446002102E0491CB4
:1060800089B2401E0778EF5DFF07F8D18442D8D06F
:106090005B1A203302F80380B268508B401A508399
:1060A000B1688883CDE710B50021FCF75FFC0021C3
:1060B000FCF734FC007810BD2DE9F0410746154689
