:020000040000FA
:10000000F032002011040000190400003102000049
:100010001D0400001F040000210400000000000077
:1000200000000000000000000000000023040000A9
:10003000250400000000000027040000290400003F
:10004000F30F00002B040000051200002B04000039
:100050002B0400002B040000F90B00002B0400000F
:100060002B0400002B0400002B0400002B040000D4
:100070002B0400002B0400002B0400002B040000C4
:100080002B040000011000002B0400002B040000D2
:10009000251000002B0400002B0400002B0400009E
:1000A0002B0400002B0400002B0400002B04000094
:1000B0002B0400002B0400000000000000000000E2
:1000C0002B0400002B0400002B0400002B04000074
:1000D0002B0400002B0400002B0400005D12000024
:1000E0002B0400002B0400002B0400000000000083
:1000F000000000002B040000000000002B040000A2
:1001000000000000000000000000000000000000EF
:1001100000000000000000000000000000000000DF
:1001200000000000000000000000000000000000CF
:1001300000000000000000000000000000000000BF
:1001400000000000000000000000000000000000AF
:10015000000000000000000000000000000000009F
:10016000000000000000000000000000000000008F
:10017000000000000000000000000000000000007F
:10018000000000000000000000000000000000006F
:10019000000000000000000000000000000000005F
:1001A000000000000000000000000000000000004F
:1001B000000000000000000000000000000000003F
:1001C000000000000000000000000000000000002F
:1001D000000000000000000000000000000000001F
:1001E000000000000000000000000000000000000F
:1001F00000000000000000000000000000000000FF
:10020000DFF80CD000F024FB00480047CD68000068
:10021000F032002000B583B002900091019244F2C8
:10022000010071466A4601F065F903B000BD0000A7
:10023000094B1EF0040F1CBFEFF309801847EFF3C2
:1002400008800649064A884201D8904202D88D4665
:100250004FF0000018470000AD0D0000F032002004
:10026000F012002030B450E8012F93B2C489234427
:100270008489A34228BF1B1B0489A34202BFBFF38A
:100280002F8F002007E0C3EA020340E80134002C6E
:10029000E9D14FF001000A6030BC704750E8012FEF
:1002A000C2EA024240E801210029F7D1704730B488
:1002B00050E8022F1FFAA2F3C488A34202BFBFF383
:1002C0002F8F00200DE0C48923448489A34228BFD6
:1002D0001B1BC2EA034340E80234002CE8D14FF074
:1002E00001000A6030BC704750E8022FC2EA224287
:1002F00040E802210029F7D17047034653E8022F56
:10030000D988B2EB324F4FF0000017BF92B241EAEA
:10031000014142EA014104E05A68B2EB324F08BFA2
:10032000012043E80212002AE8D1704730B40446A5
:1003300054E8000F0D4644E80053002BF8D1156037
:1003400030BC704730B4044654E8000F40EA010561
:1003500044E80053002BF7D1156030BC704730B42F
:10036000044654E8000F00EA010544E80053002B5E
:10037000F7D1156030BC704730B4044654E8000F24
:1003800080EA010544E80053002BF7D1156030BC2A
:10039000704730B4044654E8000F00EB010544E810
:1003A0000053002BF7D1156030BC704730B40446C1
:1003B00054E8000FA0EB010544E80053002BF7D1EF
:1003C000156030BC704770B404464FF0000054E82C
:1003D000006F0D68AE4207BF44E80023012044E8E7
:1003E00000630E60002B1CBF0020F0E770BC70475C
:1003F00030B4044654E8000F88422CBF451A054625
:1004000044E80053002BF5D1156030BC7047000064
:100410000648804706480047FEE7FEE7FEE7FEE79E
:10042000FEE7FEE7FEE7FEE7FEE7FEE72910000035
:10043000010200002DE9F05F0546002092469B4630
:1004400088460646814640241BE0284641464746EA
:10045000224600F0ABF953465A46C01A914110D3D8
:1004600011461846224600F016F82D1A67EB0108CF
:100470004F4622460120002100F00DF817EB00093D
:100480004E41201EA4F10104DFDC484631462A46D5
:100490004346BDE8F09F202A04DB203A00FA02F12F
:1004A000002070479140C2F1200320FA03F3194362
:1004B00090407047004870476CDE000010B504465D
:1004C000FFF7F8FF0068005D00F0010010BD2DE9A6
:1004D000FE43994615468846074601AC022942D399
:1004E000002D40D000200290A8F101004FF0FF360F
:1004F000009022E000FB057201FB057011464A46A0
:100500009047002805DC54F82600304444F82600C3
:1005100013E060682A4600FB057154F8040C00FBE8
:10052000057007E00B7890F800C001F801CB00F8E7
:10053000013B521E002AF5D1764254F8040C616842
:100540008842D7DC4B462A463846FFF7C0FF54F8AE
:10055000040C4B46A8EB0001401C00FB05702A462A
:10056000491EFFF7B4FFBDE8FE8310B5431A93425E
:1005700009D28318881803E010F8011D03F8011D43
:10058000521EF9D210BD40EA01039B0703D009E0D7
:1005900008C9121F08C0042AFAD203E011F8013B6F
:1005A00000F8013B521EF9D210BDD2B201E000F8B2
:1005B000012B491EFBD270470022F6E710B5134607
:1005C0000A4604461946FFF7F0FF204610BD421CBC
:1005D00010F8011B0029FBD1801A704710B50022CA
:1005E00000E0521C835C8C5CA34201D1002BF8D14B
:1005F000D8B2E1B2401A10BD034611F8012B00F841
:10060000012B002AF9D11846704730B50546002065
:10061000034600E05B1C934205D2EC5CC85C201AE8
:1006200001D1002CF6D130BD0FB400B58DB010A9AA
:1006300009900B9000914FF0FF300A9000200C9031
:1006400005480690054807906A4609A80F9900F0EA
:10065000D1F80DB05DF814FB110800002F08000060
:100660002DE9FF5F1D464FF0FF3BD5E9014691465E
:100670005F464FF00008A9697F1C01988847296AE6
:10068000824688470028F6D1BAF1FF3F0CD024F407
:10069000C064002E19DD600614D5BAF12B0F09D005
:1006A000BAF12D0F0ED103E0584604B0BDE8F09F1B
:1006B00044F48064A9697F1C01988847761E8246AD
:1006C000002E02DDBAF1300F03D0B9F1000F26D0B1
:1006D00032E0A969761E44F400747F1C01988847B3
:1006E0008246002E05DDBAF1780F06D0BAF1580F18
:1006F00003D0B9F1000F10D01EE0B9F1000F02D005
:10070000B9F1100F18D1A969761E24F400747F1C6A
:10071000019888478246102002E0082000E00A2065
:10072000814609E008FB0908A969761E44F40074B3
:100730007F1C019888478246002E05DD49465046B9
:1007400000F044F80028EDDAE96901988847A0052F
:1007500002D46FF00100A8E7E00725D1600613D5A9
:10076000600502D5C8F1000000E0404629680A1D76
:100770002A600968220501D5087015E0220701D515
:10078000088011E008600FE02868011D29600068FA
:10079000210502D580F8008006E0210702D5A0F8E7
:1007A000008001E0C0F8008038467EE7202A04DBA4
:1007B000203A21FA02F00021704721FA02F3D040DA
:1007C000C2F1200291400843194670473A2800D2EE
:1007D000303820F02002412A01D3A2F137008842AC
:1007E00001D34FF0FF307047026811441378016065
:1007F00018467047D16004495161044911620021D3
:100800001161114600F036B8E9070000BD04000090
:10081000426842B1016811F8013B23B1521EC0E9A0
:100820000012184670470121C160881E7047426857
:100830005AB1C368016843B983688B4205D0491E29
:10084000521CC0E90012002070474FF0FF30704783
:10085000064C074D06E0E06840F0010394E807000D
:1008600098471034AC42F6D3FFF7CEFC14F10000E9
:1008700034F100002DE9F34F8BB04FF0000801F187
:100880000C000C464FF0010B46460DF1080A019092
:100890006269012101989047051E2DD0252D2CD08D
:1008A000216A8847C0B16269012101989047216A95
:1008B00088470028F7D1411E62690198904700E0FF
:1008C000761CA1690B988847216A88470028F7D1D0
:1008D000E1690B988847DBE7A1690B9888470746D1
:1008E000A84201D1761CD3E7E1690B9888477F1CA9
:1008F00002D1B8F1000F6FD046E1002762693D4692
:100900003946019890472A2804D16269012101984B
:1009100090470125DFF88492626901210198904790
:10092000A0F130010A290AD24F45E5DC07EB870127
:1009300000EB4107303FDFD445F01005ECE7E90656
:1009400001D46FF000476C280AD04C2814D06828D6
:1009500015D06A280DD074281CD07A281AD01DE032
:1009600062690121019890476C2802D045F0040586
:1009700014E045F002050DE045F020050AE062694B
:10098000012101989047682802D045F0080505E04C
:1009900045F400656269012101989047C4E9015757
:1009A00065283DD019DC58287AD00CDC452837D092
:1009B00004DC252826D0412831D131E046282FD02B
:1009C00047282CD12CE05B2877D0612828D06328D9
:1009D0007CD0642823D15AE0D0E06F2848D008DCCE
:1009E00066281DD067281BD0692821D06E2816D113
:1009F00027E0702845D0732868D0752847D078281C
:100A00000DD14DE0A1690B988847054625283FF494
:100A100069AFE1690B9888476D1C3FF46AAFB3E09A
:100A200023466A466FF001000B99AFF300809EE009
:100A300045F040006060A80723464FF0000236D41E
:100A40003EE0E8077FF447AF2068011D21600068A1
:100A5000290501D506701BE7290701D5068017E790
:100A6000A90703D5F117C0E9006111E706600FE798
:100A700045F040006060A80723464FF0080216D4F6
:100A80001EE040F60E0125EA0100606016E045F028
:100A900040006060A80723464FF00A0207D40FE029
:100AA00045F040006060A80708D5234610226FF08B
:100AB00001000B99AFF3008059E007E023461022B4
:100AC0006FF001000B99FFF7CBFD50E04FF00009EC
:100AD0004F464B46632802D05B2806D040E0E8062C
:100AE00001D40120A06001273AE062690121019848
:100AF00090475E2805D14FF0010962694946019887
:100B00009047216939B900210A46534643F821200C
:100B1000491C0829FADBB0B3216969B9C11700EB98
:100B2000D16253110AEB830122F01F02821A0120C5
:100B30000B68904003430B60626901210198904764
:100B40005D28E8D1B9F1000F09D00020514651F8D5
:100B50002020D24341F82020401C0828F7DB02ABBC
:100B6000224600976FF001000B99AFF30080002838
:100B70000CDA401C08D1BBF1000F05D04FF0FF305C
:100B80000DB0BDE8F08FFFE74046F9E7E90701D176
:100B900008F1010806444FF0000B79E6CCCCCC0CF0
:100BA00070B58C1810F8015B15F0070301D110F82F
:100BB000013B2A1106D110F8012B03E010F8016B5C
:100BC00001F8016B5B1EF9D12B0705D40023521EDF
:100BD0000DD401F8013BFAE710F8013BCB1A921C47
:100BE00003E013F8015B01F8015B521EF9D5A14245
:100BF000D8D3002070BD00002DE9F04F00268DB045
:100C0000DFF8A081B14604964FF480750124374681
:100C10000596284608F0DEFE38B1D8F804032042D5
:100C200003D0284608F0CCFE26432D1D64007F1C0F
:100C3000ADB2082FEDD34FF4BE74204608F0CAFEC3
:100C400048B1204608F0BCFE46F0004604AA022146
:100C5000002008F07FFE544C16F0FF0F15D001273E
:100C6000002537420DD008EB8501D1F81005D1F8E9
:100C70001015C0F3052054F82520C1F3014102B13D
:100C800090477F006D1C082DEBD3002E7EDA0020EC
:100C9000CDF82890411E0DF1100B07AACDF82C902D
:100CA00042F82010401C91460228F9D300252E4618
:100CB000A11911F8607F91F9000027F0C008401CCD
:100CC00040D007A9404606F041FA40B34FEA971AD0
:100CD000404602F061FC54F820701FB1BAF1030FD6
:100CE00003D006E0BAF1030F2CD10AA9404606F062
:100CF00035FA02A8CDF8088008F06AFD029900EBE9
:100D00008100D0F8000704A9C0F3014002904046DA
:100D100006F01CFA0028029802D0022802D011E046
:100D200003280FD1BAF1030F08D10298022833D05B
:100D30000221404608F004FD6D1CEDB217B151468A
:100D40004046B847761C042EB2D3002D21D001AA0C
:100D50000221002008F0FEFD00205A460DF104019A
:100D600052F8206051F82030B34217D000200AAE6C
:100D70004FEA090351F8207042F8207056F82070AD
:100D800043F82070401C0228F4D300E001E0002D5D
:100D90008CD10DB0BDE8F08F0321CAE7401C0228BA
:100DA000DED3F6E700600040040A00201CB581464F
:100DB00009F012F908F0B4FE0028FBD137484E467E
:100DC0000768374C01256068002821D0208835A1AC
:100DD00005EB0040B26908F0D1FF6068002817D029
:100DE000D6E90201CDE900012088D6E9002305EB10
:100DF000004032A108F0DAFF606848B1F069009065
:100E0000D6E9042320883BA105EB004008F0C5FF8C
:100E10002248001D0068800707D5606828B1208837
:100E20003E4905EB004008F0A5FFDFF8F4800026FE
:100E300005FA06F038420AD058F826203AB1606820
:100E400028B1208837A105EB004008F097FF761CF9
:100E50001A2EEDD338060AD5606840B10F480C3021
:100E60000268208832A105EB004008F087FF3804B3
:100E70000AD5606840B1094810300268208834A162
:100E800005EB004008F07AFF0448C8300068C0074E
:100E900000D000BE484600F069F8000028ED00E0F0
:100EA0001403002048415244204641554C542061CF
:100EB000742030782530385800000000202052304F
:100EC0003A2020307825303858202052313A2020DE
:100ED000307825303858202052323A20203078257A
:100EE000303858202052333A202030782530385876
:100EF0000000000020205231323A2030782530386E
:100F00005820204C523A2020307825303858202064
:100F10005053523A2030782530385800B8E000005D
:100F20007001002043617573653A2025732E00001F
:100F30004D656D4D616E616765204661756C74200D
:100F4000416464726573733A2030782530385800F4
:100F5000427573204661756C7420416464726573D8
:100F6000733A20307825303858000000BFF34F8F97
:100F700005480168054A01F4E06111430160BFF3CF
:100F80004F8F00BFFDE700000CED00E00400FA0504
:100F900000F01F02012191404009800000F1E02093
:100FA000C0F88012704700F01F02012191404009F3
:100FB000800000F1E020C0F80011704700F01F022F
:100FC000012191404009800000F1E020C0F80012AA
:100FD00070474907090E002806DA00F00F0000F1FB
:100FE000E02080F8141D704700F1E02080F8001424
:100FF000704710B50AF0A4F9BDE8104009F046BFEB
:1010000007480021C0F84011C0F84411C0F8481149
:10101000C0F84C11C0F80011C0F804110BF020BD4D
:10102000001001400BF06EBC30B54FF08050002234
:101030008300D0F83011C3F80C21C3F81021624BA3
:101040001A60624B1B68624C2360604B1B1D1B685F
:10105000241D23605D4B08331B68241D23605B4BFC
:101060000C331B68241D2360584B10331B68241D50
:101070002360564B14331B68241D2360534B1833D5
:101080001B68534C20342360504B1C331B68241DB9
:1010900023604E4B20331B68241D23604B4B2433AD
:1010A0001B68241D2360494B28331B68241D2360C3
:1010B000464B2C331B68241D2360444B30331B6884
:1010C000434C40342360414B34331B68241D236060
:1010D0003E4B38331B68241D23603C4B3C331B685C
:1010E000241D2360394B40331B68241D23600124D9
:1010F000082902D1D0F8343113B1082904D006E010
:10110000354B3449196005E0D0F8343113B1082962
:1011100004D006E0314BFB21196005E0D0F83431F2
:1011200013B1082908D00EE090F858322C48016815
:1011300063F30301016002E0D0F834311BB929499F
:101140004FF40070086028480168C90702D06FF0AA
:10115000010101602548016841F470010160BFF39D
:101160004F8FBFF36F8F4FF01021D1F8000200288E
:1011700003DBD1F80402002822DA1D4B1C601D4855
:101180000468002CFCD01224C1F800420568002D30
:10119000FCD0C1F8044201680029FCD01A60016843
:1011A0000029FCD0BFF34F8F10487C380168124AE9
:1011B00001F4E06111430160BFF34F8F00BFFDE711
:1011C0000F490E48086030BD380500400404001087
:1011D00020C50040488103008C56004018F50040AF
:1011E000E40E0040409602400004004088ED00E01C
:1011F00004E5014000E401400400FA050090D0033A
:101200005402002010B5054C206818B904A12B2009
:1012100001F014FE2068BDE810400047B80000202F
:101220002E2E5C2E2E5C2E2E5C2E2E5C2E2E5C2EF8
:101230002E5C6D6F64756C65735C6E7266785C6451
:101240007269766572735C7372635C7072735C6EE4
:101250007266785F7072732E630000002DE9F05F94
:101260005448D0F8045300242E464FF0010913E0EF
:1012700096FAA6F0B0FA80F7B80000F580708046C4
:1012800009F006FD28B1404609F00AFD09FA07F009
:10129000044309FA07F08643002EE9D107F092FCD7
:1012A000002869D0444AD078F0BBA00264D54349F5
:1012B00040F2A978C1F80080081D036813F0FF0C04
:1012C00002D0036803EA0C0C40F2AA7AC1F800A02D
:1012D000036813F0FF0301D00668334040F2AB7B94
:1012E000C1F800B0066816F0FF0601D007683E405E
:1012F00040F2AC770F60076817EA0C0709D0D2F804
:1013000010C04CEA070CC2F810C0C1F8008007609A
:10131000076840F2AD770F6007681F4009D0136976
:1013200043EA0743136100E026E0C1F800A007602C
:10133000036840F2AE730B60036833400BD0DE07E6
:1013400001D044F40004DE0601D544F00104C1F8E4
:1013500000B003600068106930F0011102D005F0A0
:1013600080710C4310F0011F06D0690504D520F0F0
:10137000011044F480641061C4F3C05624F40004E6
:101380004F46DFF83C8009E094FAA4F0B0FA80F50B
:1013900058F82500804707FA05F08443002CF3D164
:1013A0000BF0D6FE002E03D0BDE8F05F03F000BFC7
:1013B000BDE8F09F007002408800002000780240E5
:1013C000D8D70000C11700EBD161074B4A1153F881
:1013D000222021F01F01411A01208840024201D041
:1013E000012070470020704700E100E002E008C8DB
:1013F000121F08C1002AFAD170477047002001E08F
:1014000001C1121F002AFBD17047022001F088BDE4
:1014100070B50A4D686818B909A1942001F00EFD55
:10142000002406E06868012110F8340009F09EFDF0
:10143000641C28788442F5D3002070BDC0000020D1
:101440002E2E5C2E2E5C2E2E5C2E2E5C2E2E5C2ED6
:101450002E5C636F6D706F6E656E74735C6C696229
:101460007261726965735C627574746F6E5C6170D1
:10147000705F627574746F6E2E630000F8B5154668
:101480000C460646052A01D20720F8BD09F0DCFE0D
:1014900018B909F09FFE0028F7D1124900224E60CA
:1014A0000C708D60C1E90422C1E906220E4D0DE0E9
:1014B00006EBC4002968009181788DF8011000784E
:1014C0000A4A694609F0CEFD0028DED1641EE4B266
:1014D000EED2BDE8F84004480021054A001D00F0A6
:1014E000CBB80000C000002084D800006554000084
:1014F000094E00002DE9FE4315460F46804672B6A0
:1015000008F06AFD08F00CFB0028FBD16FF4804165
:10151000224C18EB01004FF0010622D00128606830
:1015200014D030B120883A4606EB00401CA108F0E8
:1015300025FC21480068C00700D000BE2A4603B041
:1015400039464046BDE8F04300F064B80028F0D0CA
:1015500020882B8806EB004018A16A6808F015FC6B
:10156000E7E760680028E4D0A86809F0E3F90346DB
:10157000D5E90001CDE900100297208816A106EBFD
:101580000040AA6808F01CFC60680028D1D02088C0
:101590001BA106EB004008F0EDFBCAE74403002066
:1015A000554E4B4E4F574E204641554C542061747A
:1015B0002030782530385800F0ED00E04153534595
:1015C0005254494F4E204641494C454420617420B5
:1015D00025733A25750000004552524F522025755B
:1015E000205B25735D2061742025733A25750D0AF3
:1015F00050432061743A203078253038780000005C
:10160000456E64206F66206572726F72207265701D
:101610006F72740008B501238DF800309DF800301A
:10162000144B186059609A606FF48041401807D0DD
:1016300001280FD1DA60D86800889861D86807E07F
:101640001A6118698068586118690068986118699A
:101650004068D861186858689868D86818695869E7
:101660009869D86972B600BF9DF800000028FBD1C8
:1016700062B608BDE00A0020074B9B7823B12AB16F
:1016800020B10068037C1BB1082070470720704719
:101690004174426100207047000B002070B50AF0D1
:1016A00063FC104800240B21047044700E4D8170BF
:1016B00014206C602C706C70FFF76AFC07211420FA
:1016C000FFF787FC1420FFF76EFC08480460072131
:1016D0001120FFF77EFC0548001F0068A86000206D
:1016E00070BD0000000B0020E00000200815014044
:1016F0002DE9F843DFF8709099F802305BB350B3EE
:10170000052902D20720BDE8F88343691BB3437C57
:10171000012B22D00027044600258846164628467D
:1017200001F0A8FA68460BF00FFFC0B1012101706B
:101730000E4944600968C0E90218C0E904769DF8C2
:10174000000089F80100002001F0C2FA1420FFF720
:1017500035FC2846D7E70820D5E70F46DBE7042508
:10176000002001F0B5FAF4E7000B00200415014059
:101770000649897839B130B1416921B1002101743C
:1017800002210BF04DB9082070470000000B00202B
:1017900070B505460648046907E02946204602F070
:1017A00073F8204600F0BEF90446002CF5D170BD58
:1017B0000801002070B50A4805690EE02E7A002461
:1017C00005E02146284601F017F8641CE4B2B44253
:1017D000F7D3284600F0A6F90546002DEED170BDDE
:1017E000080100202DE9F0410E4840F2AB67056981
:1017F00014E02E7A00240BE000222146284601F056
:101800005FF818B108A1384601F018FB641CE4B277
:10181000B442F1D3284600F085F90546002DE8D101
:10182000BDE8F081080100202E2E5C2E2E5C2E2EAD
:101830005C2E2E5C2E2E5C2E2E5C636F6D706F6E98
:10184000656E74735C6C69627261726965735C75F4
:101850007362645C6170705F757362642E63000014
:1018600070B506460948062504690AE03146204657
:1018700002F00AF80546062805D1204600F052F984
:101880000446002CF2D1284670BD0000080100205B
:10189000F8B5040004D138A140F2EF4001F0CEFACF
:1018A000606820B934A14FF49E6001F0C7FA606807
:1018B000006820B930A140F2F14001F0BFFA206881
:1018C000006820B12CA140F2F24001F0B7FA07F015
:1018D00005FB10B907F00CFB20B927A140F2F64038
:1018E00001F0ACFA00250FE0002705E0007800F0D9
:1018F0006DFC08B11120F8BD3946781CC7B23046DE
:1019000000F0C0F80028F1D12946681CC5B2204675
:1019100000F0E0F80600E7D100250DE0002703E025
:101920000078214600F058FC3946781CC7B2304692
:1019300000F0A8F80028F3D12946681CC5B220465B
:1019400000F0C8F80600E9D1194D40F21C5607E036
:10195000A04203D108A1304601F070FA286805685A
:1019600028680028F4D113482C606946406900902B
:10197000204601F089FFF8BD2E2E5C2E2E5C2E2E07
:101980005C2E2E5C2E2E5C2E2E5C636F6D706F6E47
:10199000656E74735C6C69627261726965735C75A3
:1019A0007362645C6170705F757362642E630000C3
:1019B0001801002098D800002DE9F04F87B04FF0B3
:1019C00000081D46934689460446DDF840A0464679
:1019D000CDF80C8000E0761C606801230022476887
:1019E000214603A8B8470028F5D140468DF800806D
:1019F0000027B84601903BE0606801236A46D0F8B2
:101A000004C0214601A8E0476068012305AAD0F878
:101A100004C0214601A8E0479DF8141049451AD199
:101A2000D84514D19DF80000CAF8000005F8010B54
:101A30006A1C85F8009060689DF800302146456872
:101A400001A89B1EA847002007B0BDE8F08F08F151
:101A5000010000F0FF0860689DF800300022D0F817
:101A600004C0214601A89B1EE0479DF800000744E2
:101A7000B742C1D30520E7E701480069704700007D
:101A80000801002070B50D46040004D106494FF44A
:101A90008E7001F0D3F96078A84201D8002070BDA3
:101AA000A0782044284470BDB4DE000070B50D4617
:101AB000040004D106494FF48E7001F0BFF960783C
:101AC000A84201D8002070BDA0782044284470BDF1
:101AD000B4DE000070B50D46040003D10649E920CC
:101AE00001F0ACF9207AA84201D8002070BD05EBC6
:101AF00045000934204470BDB4DE000070B50D46C9
:101B0000040003D10649E92001F098F9207AA8429F
:101B100001D8002070BD05EB45000934204470BD9C
:101B2000B4DE000010B5040004D104494FF4F9708C
:101B300001F084F92068006810BD00002425000031
:101B400010B5040004D104A14FF4F97001F076F946
:101B50002068006810BD00002E2E5C2E2E5C2E2EFC
:101B60005C2E2E5C2E2E5C2E2E5C636F6D706F6E65
:101B7000656E74735C6C69627261726965735C75C1
:101B80007362645C6170705F757362642E680000DC
:101B900002484078002800D001207047080100204A
:101BA00010B520B909A140F2B45001F047F9154928
:101BB0004878401C10F0FF00487004D103A140F2A7
:101BC000B75001F03BF9002010BD00002E2E5C2E16
:101BD0002E5C2E2E5C2E2E5C2E2E5C2E2E5C636FC9
:101BE0006D706F6E656E74735C6C69627261726940
:101BF00065735C757362645C6170705F7573626459
:101C00002E6300000801002010B520B908A140F2A1
:101C1000BF5001F013F9144C607820B904A140F2D0
:101C2000C15001F00BF96078401E6070002010BDBB
:101C30002E2E5C2E2E5C2E2E5C2E2E5C2E2E5C2EDE
:101C40002E5C636F6D706F6E656E74735C6C696231
:101C50007261726965735C757362645C6170705FF8
:101C6000757362642E6300000801002070B50400E3
:101C700004D11CA140F2845001F0E0F8606820B962
:101C800018A140F2855001F0D9F86068006820B9C9
:101C900014A140F2865001F0D1F807F01FF910B9F5
:101CA00007F026F920B90FA14FF4B16001F0C6F892
:101CB0002068406820B10BA140F28B5001F0BEF8C3
:101CC000164D40F2925608E0A04203D105A13046DD
:101CD00001F0B4F8286805682D1D28680028F3D1A4
:101CE0002C6070BD2E2E5C2E2E5C2E2E5C2E2E5C5B
:101CF0002E2E5C2E2E5C636F6D706F6E656E74732E
:101D00005C6C69627261726965735C757362645C54
:101D10006170705F757362642E6300001C010020A7
:101D200010B5040004D111A140F29D5001F086F8D5
:101D300007F0D4F810B907F0DBF820B90BA140F296
:101D40009F5001F07BF817480BE0A14207D12168B2
:101D500049680160206800214160084610BD08689C
:101D6000001D01680029F0D1052010BD2E2E5C2E2B
:101D70002E5C2E2E5C2E2E5C2E2E5C2E2E5C636F27
:101D80006D706F6E656E74735C6C6962726172699E
:101D900065735C757362645C6170705F75736264B7
:101DA0002E6300001C0100202DE9F041484E0D4635
:101DB000024609780624307801270F2964D2DFE82B
:101DC00001F063080C0E63204863636363252D36BE
:101DD0003F0003200BF0C2F856E0002454E03C48DA
:101DE000001D04F0EBFF28B13A480760BFF36F8F86
:101DF000BFF34F8F30780028EFD137A140F20B406E
:101E000009E0104600F0ACF804463DE00028E4D0BC
:101E100031A140F2164001F011F8DEE7012804D0AC
:101E20002DA140F21C4001F009F8002005E03948DE
:101E3000006810F0010F0AD002200BF08FF8CCE7F9
:101E4000022804D224A14FF4866000F0F7FF01209D
:101E5000F3E7E878032817D0A87830B1802804D0B9
:101E60001DA140F23E4000F0E9FF1949E878083131
:101E70000A6832B100230B6049689047040006D01D
:101E800000E00E2407F08EF82046BDE8F0810BF04C
:101E90005DF828B1A8780028F6D107F046F8F3E7F6
:101EA0001D480078082810D11B48001D0078000745
:101EB0000BD119480830007810F0F00F05D1164802
:101EC0000C30007810F0F00FDED007F02BF8DBE7D5
:101ED000280100205C7002402E2E5C2E2E5C2E2EDF
:101EE0005C2E2E5C2E2E5C2E2E5C636F6D706F6EE2
:101EF000656E74735C6C69627261726965735C753E
:101F00007362645C6170705F757362645F636F724B
:101F1000652E630038040040E00F00F00249497864
:101F2000C14001F00100704728010020024A01462B
:101F3000D2E90002104700005C0D002070B50C468D
:101F4000054606F0E9FFA84201D0102070BD034805
:101F5000D4E90012C0E90212002070BD280100205F
:101F60007FB5054605208DF8000006240DF101001F
:101F700006F0F0FF0AF0EAFF2949002008609DF80A
:101F8000010010F01F0006D001280FD0022826D033
:101F9000032833D106E0694628460AF087F904464B
:101FA00006282AD16846FFF75BFC25E09DF805006E
:101FB00003A900F061FC050008D06A469DF80C10EA
:101FC00000F017FC0446062802D016E0102415E0A5
:101FD0006A469DF80C1028460AF0D0FA0CE09DF8ED
:101FE0000500010705D0694600F080F80446062880
:101FF00003D168460AF004FA044624B106F0D2FF81
:1020000004B0204670BD0AF0A1FF30B106F084FF95
:102010000028F5D106F089FFF2E706F083FFEFE72D
:1020200030010020FEB5C08814460E46A04201D201
:10203000054600E01546844207D2802006F0E8FB02
:10204000B4FBF0F100FB114068B100200096CDE92F
:102050000150002000F00EFE6946802000F0EEF8EE
:10206000040002D006E00120F0E705498020FFF7D8
:1020700065FF0446002000F02BFE2046FEBD000058
:10208000D8D8000008B14021016001487047000025
:10209000B00D002010B506F033FF20B104A140F2CE
:1020A0006F3000F0CBFEBDE8104006F0B5B900007F
:1020B0002E2E5C2E2E5C2E2E5C2E2E5C2E2E5C2E5A
:1020C0002E5C636F6D706F6E656E74735C6C6962AD
:1020D0007261726965735C757362645C6170705F74
:1020E000757362642E63000006F0D8B910B50C4613
:1020F000010600F00F02092A08D200F009F8006872
:1021000020B12146BDE8104001F0BEBB102010BD3B
:1021100010B5010600F00F0408D5092C04D309A15D
:1021200040F2611000F08AFE144808E0092C04D344
:1021300004A140F2671000F081FE1048483000EB27
:10214000C40010BD2E2E5C2E2E5C2E2E5C2E2E5C1E
:102150002E2E5C2E2E5C636F6D706F6E656E7473C9
:102160005C6C69627261726965735C757362645CF0
:102170006170705F757362642E630000140D00203F
:1021800010B5044600F00F00082805D2204606F0DE
:1021900067FA204606F0C0FB2046BDE8104006F076
:1021A00083BA000070B50C46054606F0CDFA18B1AA
:1021B00005480078022801D0082070BD2146284635
:1021C000BDE8704006F0C8BA0801002010B5FFF75E
:1021D0009FFF006810BD000070B50D460646FFF772
:1021E00097FF0446056015B16868006808E00EB105
:1021F000802E04D103A140F28B1000F01FFE0020BE
:10220000606070BD2E2E5C2E2E5C2E2E5C2E2E5C01
:102210002E2E5C2E2E5C636F6D706F6E656E747308
:102220005C6C69627261726965735C757362645C2F
:102230006170705F757362642E63000070B50C4648
:10224000054606F081FA18B105480078022801D049
:10225000082070BD21462846BDE8704006F0ECBB62
:1022600008010020F8B5054600781D4E10B31D4F3B
:102270006946F86904F073FD04001AD028682060EC
:10228000002000F0F7FC7088F168401A401CE080E4
:10229000002106F10C0004F0B0FDA080002000F049
:1022A00017FD6946F86904F07BFD014628460BF0EE
:1022B00035F9F8BD002000F0DDFCF06808B9688849
:1022C0007080074801210C3004F081FD002000F0EF
:1022D000FFFC012128460BF021F9F068F8BD000051
:1022E0000801002098D8000070B57D4C0546206993
:1022F00020B97CA140F2C33000F0A0FD02F0D8FB71
:10230000072804D277A140F2CA3000F097FD287860
:10231000092872D007DC16D2DFE800F07085A98C9E
:1023200096B2B715DA00812814D006DC0A28F0D05E
:102330000F28EED0802806D13CE082281FD08328C9
:1023400043D084284AD0BDE8704066A140F2AB403B
:1023500000F074BD7148FFF7E9FD7048FFF718FA07
:102360000D200BF0E9F8606910B96D48007A00B1F2
:10237000012006F01BFEFFF71DFA012073E0FFF7B6
:1023800019FA06F069FE00200AF028FA6348401C9A
:10239000FFF7FEF96148401CFFF7C8FD0E200BF067
:1023A000CBF8207800F018FC00283BD0BDE8704046
:1023B00005F02EBE2078052803D0062803D0072874
:1023C00030D102204FE008204DE02078032829D1A9
:1023D00006F08CFE002825D0042044E02078032855
:1023E00005D106F083FE10B104200AF0F7F906F0DB
:1023F0004DFF002816D0062035E06AE000200BF0E3
:102400009BF8646940F20E260AE02946204601F056
:102410003BFA1CB943A1304600F010FD2068446827
:10242000002CF2D170BDFFF7C5F902200AF0D6F9F1
:10243000012003E005200AF0D1F903200BF07CF81D
:102440002846FFF773FD46E003200BF075F833488C
:10245000801CFFF76BFD3148801CFFF799F920784D
:102460000628AED10720BDE870400AF0B7B90320B6
:102470000AF0B4F902200BF05FF82846FFF788F95C
:102480002846BDE87040FFF751BDA878FFF740FE31
:102490000446006820B913A140F2874000F0CEFC4A
:1024A000606820B90FA14FF4916000F0C7FCD4E937
:1024B0000002294690470028B4D0A8780107B1D07F
:1024C00000F00F010829ADD2BDE8704006F0F2B966
:1024D00008200BF031F82846BDE87040FFF758B9E6
:1024E000080100202E2E5C2E2E5C2E2E5C2E2E5CE3
:1024F0002E2E5C2E2E5C636F6D706F6E656E747326
:102500005C6C69627261726965735C757362645C4C
:102510006170705F757362642E630000A9D800005B
:10252000A40D00202E2E5C2E2E5C2E2E5C2E2E5CFA
:102530002E2E5C2E2E5C636F6D706F6E656E7473E5
:102540005C6C69627261726965735C757362645C0C
:102550006170705F757362642E680000FFF782BE61
:10256000F8B5214C00250095204EA0684FF4006777
:1025700028B9211DF06904F008FCA060C0B1818871
:1025800069B1C188B94200D3C580C188ADF80210D5
:10259000C188491CC1808188491E81801FE0FFF7E6
:1025A000A3FE1149F069091D04F0E4FBA56019E0E0
:1025B000E068002817D0002000F05CFB6088B8427B
:1025C00000D365806088ADF80200401C608006483A
:1025D00001210C3004F022FC002000F079FB684659
:1025E000FFF782FE0120F8BD0801002098D8000006
:1025F00010B520B104A140F2272000F01FFCBDE877
:1026000010400F48FFF72EBE2E2E5C2E2E5C2E2E75
:102610005C2E2E5C2E2E5C2E2E5C636F6D706F6EAA
:10262000656E74735C6C69627261726965735C7506
:102630007362645C6170705F757362642E63000026
:1026400098D800002DE9F041074618780024164676
:102650000D460F2832D2DFE800F008113E4031135A
:10266000183131313145546669005988104603F0FC
:1026700005FB002854D06869816828E0032156E0F2
:102680002946384609F006FF23E0987800060FD562
:10269000D87820B90322294638460AF047FF7068E7
:1026A0000028E8D00321304600F094F8002437E0F9
:1026B0006869C06810B1D87810B106E006242FE030
:1026C0000222294638460AF031FF6869C168384657
:1026D0008847044624E0022126E00221104600F04B
:1026E00079F8C8E73846FFF7C1FA040018D1384630
:1026F000FFF756FA040013D10021304600F074F8B9
:102700000EE03846FFF70CFB040009D13846FFF70E
:102710007BFA040004D100214FEA060000F05AF8C9
:102720002046BDE8F08101211046E7E7012110466F
:10273000F4E7C26952680A60C069006870472DE911
:10274000FC4117460D46064602F0DAFE0446F06AE2
:10275000CDE90057694607F059FE10B11120BDE8D8
:10276000FC81206800256FEA900040F30000401CC7
:1027700002D000F04BFA0CE020686FEAD00040F382
:102780000000401C90F0010F03D0304603F02EFAF9
:1027900005462846E3E7026A52680A60006A006854
:1027A0007047000010B5040004D103494FF4E970EC
:1027B00000F044FBE06810BDF8DE000010B5040036
:1027C00004D1034940F2AF1000F038FB206910BD7E
:1027D00098DF000001228A40D14304F0FEBA0122B2
:1027E0008A40D14304F0F9BA012202FA01F104F05F
:1027F00009BB114601F048B870B5044640680D4663
:10280000C2680AB120469047207AA84204D20CA19F
:1028100040F2BF2000F012FB29462046FFF75AF98C
:1028200005464678002408E021462846FFF72AF9A5
:10283000007805F0E5FE641CE4B2B442F4D370BD48
:102840002E2E5C2E2E5C2E2E5C2E2E5C2E2E5C2EC2
:102850002E5C636F6D706F6E656E74735C6C696215
:102860007261726965735C757362645C6170705FDC
:10287000757362642E6300002DE9F04180460F48B5
:102880000E46056916E02F7A00240DE02146284601
:10289000FFF720F90178414504D106B1347028468C
:1028A000BDE8F081641CE4B2BC42EFD32846FFF7D8
:1028B00039F90546002DE6D10020F1E70801002096
:1028C00070B50446406815460E4683681BB1204625
:1028D0009847062809D1207AB04204D20E494FF415
:1028E000287000F0ABFA0DB1072070BD31462046CC
:1028F000FFF7F0F805464678002408E02146284610
:10290000FFF7C0F80078FFF73BFC641CE4B2B44268
:10291000F4D3002070BD00004028000003460020D2
:102920005A681269002A01D0184610477047000003
:102930002DE9F843054605F019FC20B930A14FF404
:10294000367000F07BFA3D4C08234FF484723A490C
:10295000E06904F0F1F910B10320BDE8F8833848CC
:1029600006F07AFA0028F8D1364908700861486103
:1029700048213548FDF720FE334848214830FDF70F
:102980001BFE3148783095B195E80E00183080E88C
:102990000E00002005F070FC30B1852804D018A28C
:1029A00040F20631FDF736FC284D002611E004F117
:1029B00030010EC9EAE7002703E000782946FFF757
:1029C0000BFC3946781CC7B24046FFF75BF800287D
:1029D000F3D13146701CC6B22846FFF77BF85FEA98
:1029E0000008E8D1606800906946284600F04CFF76
:1029F000040003D006F03CFC2046AEE70020ACE724
:102A00002E2E5C2E2E5C2E2E5C2E2E5C2E2E5C2E00
:102A10002E5C636F6D706F6E656E74735C6C696253
:102A20007261726965735C757362645C6170705F1A
:102A3000757362642E6300000C0C002098D80000AF
:102A40005D25000008010020140D002018D90000A9
:102A500040B1012808D0022809D007A140F20E2079
:102A600000F0ECB9124804E01148001D01E01048E4
:102A70000830FFF7F7BB00002E2E5C2E2E5C2E2EAA
:102A80005C2E2E5C2E2E5C2E2E5C636F6D706F6E36
:102A9000656E74735C6C69627261726965735C7592
:102AA0007362645C6170705F757362642E630000B2
:102AB000B8D8000010B506F01BFA10B106F00EFAF7
:102AC00008B1082010BD054805F0EAFB20B104A2BA
:102AD0004FF45871FDF79EFB002010BDC4D80000D4
:102AE0002E2E5C2E2E5C2E2E5C2E2E5C2E2E5C2E20
:102AF0002E5C636F6D706F6E656E74735C6C696273
:102B00007261726965735C757362645C6170705F39
:102B1000757362642E63000010B506F0DFF920B90A
:102B200009A140F2763000F089F915480168C1F337
:102B3000400121B1BDE810401248FFF793BB016886
:102B400011F0010FF2D110BD2E2E5C2E2E5C2E2E18
:102B50005C2E2E5C2E2E5C2E2E5C636F6D706F6E65
:102B6000656E74735C6C69627261726965735C75C1
:102B70007362645C6170705F757362642E630000E1
:102B8000380400409DD80000034808B580680090D4
:102B90006846FFF767FB08BD98D80000074918B1E1
:102BA000052803D30020704708687047044A105C6A
:102BB0000028FAD051F8200070470000580100208A
:102BC000E4D90000034808B5C06800906846FFF7E4
:102BD00049FB08BD98D80000092808D2DFE800F0BA
:102BE00007070507070505050500012070470020B8
:102BF0007047092808D2DFE800F007070507070734
:102C000007070500012070470020704708B5FEF750
:102C1000BFFF20B908A140F2B13000F00FF9012048
:102C2000FFF77CF9002806D011480069009068463B
:102C3000FFF718FB012008BD2E2E5C2E2E5C2E2ED9
:102C40005C2E2E5C2E2E5C2E2E5C636F6D706F6E74
:102C5000656E74735C6C69627261726965735C75D0
:102C60007362645C6170705F757362642E630000F0
:102C700098D8000010B509F051F9012803D004A13B
:102C80001D2000F0DBF8BDE8104000F04FB8000058
:102C90002E2E5C2E2E5C2E2E5C2E2E5C2E2E5C2E6E
:102CA0002E5C636F6D706F6E656E74735C6C6962C1
:102CB0007261726965735C7574696C5C6170705F78
:102CC0007574696C5F706C6174666F726D2E6300F1
:102CD00010B509F023F9012803D004A12B2000F03E
:102CE000ADF8BDE8104000F029B800002E2E5C2E93
:102CF0002E5C2E2E5C2E2E5C2E2E5C2E2E5C636F98
:102D00006D706F6E656E74735C6C6962726172690E
:102D100065735C7574696C5C6170705F7574696C07
:102D20005F706C6174666F726D2E630072B60248DC
:102D30000168491C016070476C0100200349086864
:102D4000401E086000D162B6704700006C01002090
:102D500070B5054608680C46411C04D006F0D3FD4A
:102D6000206806F0D9FC6068411C02D0002106F002
:102D7000C1FC2968A069C1F82405607D227D29680D
:102D80001043C1F86C05D4E900122868C0F8142576
:102D9000C0F80C15207D012814D1A068411C02D078
:102DA000002106F0A7FCE068411C04D006F0ABFD52
:102DB000E06806F0B1FCD4E902122868C0F80825E2
:102DC000C0F8101570BD70B5054608680C46411C6A
:102DD00004D006F0A2FD206806F0A8FC6068411C43
:102DE00002D0002106F08FFC2968A069C1F82405F3
:102DF000607D217D2A680843C2F86C05D4E9001281
:102E00002868C0F80C15C0F81425207D012814D1BD
:102E1000A068411C02D0002106F075FCE068411C4E
:102E200004D006F07AFDE06806F080FCD4E90212D6
:102E30002868C0F80825C0F8101570BD1CB56A4692
:102E4000ADF800000191002144F20200FEF752FBB0
:102E50001CBD102802D31038C0B2704740F080006B
:102E60007047000038B50446042803D30AA1862021
:102E7000FFF7E4FF1448005D0090684606F078FC18
:102E8000D0F810050099C84010F0010000D00120D2
:102E900080F0010038BD00002E2E5C2E2E5C2E2E00
:102EA0005C2E2E5C2E2E5C2E2E5C636F6D706F6E12
:102EB000656E74735C626F617264735C626F617281
:102EC00064732E630000000014D700002DE9FC415C
:102ED0000646C0074FF000050ED0104F0024012217
:102EE000385D009500231146019506F08DFB641CAA
:102EF000042CF4D300F0D2F8B0070DD5074E00240F
:102F0000361D0022305D032300951146019506F021
:102F10007BFB641C042CF4D3BDE8FC8110D70000BB
:102F200038B50446042803D30BA13920FFF786FFE8
:102F30001548005D0090684606F01AFCD0F804259C
:102F4000009B0121994021EA0203C0F80835114095
:102F5000C0F80C1538BD00002E2E5C2E2E5C2E2ED7
:102F60005C2E2E5C2E2E5C2E2E5C636F6D706F6E51
:102F7000656E74735C626F617264735C626F6172C0
:102F800064732E630000000010D7000010B50446E3
:102F9000042803D305A12120FFF750FF0F4801218A
:102FA000005DBDE8104006F0C2BC00002E2E5C2E75
:102FB0002E5C2E2E5C2E2E5C2E2E5C2E2E5C636FD5
:102FC0006D706F6E656E74735C626F617264735C5A
:102FD000626F617264732E630000000010D70000FE
:102FE00010B50446042803D305A11B20FFF726FFD4
:102FF0000F480021005DBDE8104006F098BC0000BD
:103000002E2E5C2E2E5C2E2E5C2E2E5C2E2E5C2EFA
:103010002E5C636F6D706F6E656E74735C626F6152
:103020007264735C626F617264732E6300000000EF
:1030300010D7000038B50446042803D30AA1142091
:10304000FFF7FCFE1448005D0090684606F090FB18
:10305000D0F804050099C84010F0010000D001200C
:1030600080F0010038BD00002E2E5C2E2E5C2E2E2E
:103070005C2E2E5C2E2E5C2E2E5C636F6D706F6E40
:10308000656E74735C626F617264735C626F6172AF
:1030900064732E630000000010D7000010B50024F8
:1030A0002046FFF773FF641C042CF9D310BD10B544
:1030B00000242046FFF794FF641C042CF9D310BDB4
:1030C00010B50246064B4FF0FF3000215C5C944285
:1030D00001D1084610BD491C0429F7D310BD0000DA
:1030E00014D700002DE9F0470D468146FFF7E8FFB1
:1030F0000446042836D2DFF874801B481C4EA8F121
:103100000C0725B3012D0ED0022D2BD104EB44006A
:1031100030444578002D25D0B968002922D02846B2
:10312000BDE8F047084704EB4401755C0E44717834
:1031300049B10E4A4FF40041093A8068FEF7D8FAC7
:1031400008B987F80390B17808F80410E2E78068BE
:10315000FEF70EFB04EB4401314418F804008D78AF
:10316000A842D7D0BDE8F08718D70000680000203B
:103170008C070020042801D2FFF774BE002070479E
:1031800001490860002070476C00002010B5134C06
:103190000E384FF0FF310C281ED2DFE800F0060990
:1031A00017141D1D1D1D1D1D18150321002001E0F4
:1031B0000321012002F056FC20680022BDE81040E7
:1031C000A421FEF795BA0121032001E0012102208C
:1031D000BDE8104002F046BC10BD00004CD6000017
:1031E00070B50023042810D20D4D00EB4004012AD5
:1031F00002D101290CD00022094E00EB40003044DE
:1032000061B1012906D0022906D00723184670BDF6
:103210000E30C2B22A55F9E74270F7E78270F5E73F
:103220008C07002070B506461E480024C0E90161E5
:10323000B00720D50025012211462846FFF7D0FF10
:103240006D1C0446042D02D2002CF4D013E094B976
:1032500040F2666204211448FEF710F904000AD116
:10326000FEF7D6F8040006D10F48104A0021001FCF
:10327000FEF702FA0446F00712D00120FFF726FEFF
:1032800074B909480A4A00210C38FEF7F5F9040020
:1032900006D10548074A01210838FEF7EDF9044632
:1032A000204670BD5C00002024D700002D350000B2
:1032B0009D6300000B1400002DE9F05F6A4C054689
:1032C00000266078B34618B184F801B003F04EF8D8
:1032D000664F4FF47A694FF4C87A4FF00108182D01
:1032E00062D2DFE805F0AC0C0C31404D62676B74C4
:1032F0006B74BE7D7D7D7D7DACAFB2B5BEBE002062
:10330000FFF798FE00284FF0000008D0FFF73EFEC0
:10331000022D02D14FF4E16008E0484606E0FFF7D5
:103320005FFE022D01D1C82000E05046410CC003D1
:103330004FF4FA72801841F1000125705200002309
:10334000FDF778F801462AE00020FFF773FE002819
:103350004FF0000004D0FFF719FE4FF44870E5E786
:10336000FFF73EFEDFE70020FFF764FE00284FF086
:10337000000002D0FFF70AFECFE7FFF731FED4E7E7
:103380000020FFF757FE00284FF0000002D0FFF7A3
:10339000FDFD01E0FFF724FE257041F69A110022A1
:1033A0003868FEF7A5F9064646E00020FFF7B8FDAD
:1033B000257008E0002051E025703DE084F8018090
:1033C0000120FFF7ADFD002240F6CD41E8E784F88B
:1033D00001800120FFF7A4FD00224FF48041DFE7C8
:1033E0007868FEF7C5F90646D5F1110000D02EB178
:1033F0000220FFF7CBFD84F802B01DE0012816D9AA
:1034000080B2C8214843C117C90341EA5041C003F3
:103410004FF4FA72801841F1000152000023FDF7C9
:1034200009F8014600227868FEF762F90646022094
:10343000FFF7D6FD84F802803046BDE8F09F02F029
:1034400095FFB9E702F092FFB4E702F08FFF04E0C6
:1034500002F08CFF0020FFF7C3FD0120FFF7C0FD45
:10346000AAE7FFF724FEA7E75C00002018D70000BA
:103470002DE9F0470546861C90460F464FF001099E
:103480000020FFF7F7FB1B4C20683860D4E90001EF
:10349000401AA16804F21C47081A0EE001213846C0
:1034A00003F095FC03F020F90146384603F08FFC49
:1034B000D4E90001401AA168081A401C8642EDD8E0
:1034C000B8F1000F03D0052065F3891002E0062053
:1034D00065F39F50A2682168114004EB8101C86028
:1034E0002068304420600020FFF7F2FB4846BDE82A
:1034F000F0870000C80E002030B482680468531CB6
:103500008360A154D0E901128A4202D330BC05F095
:1035100025BF30BC70470000034803C8814201D179
:103520000120704700207047C80E0020007802215B
:10353000FFF7D8BD05494FF0FF32082841F8202099
:1035400002D3084480F8582070470000040A002085
:10355000F0B54FF0FF3512B10023082601E0082333
:103560000C260C4C05E000BF54F823707F1C04D0DF
:103570005B1CB342F8D32846F0BD26185DB286F82E
:10358000305044F82310002AF5D1E11881F8580092
:10359000F1E70000040A00200249084490F93000D5
:1035A00070470000040A002070B5816804468A7CD8
:1035B000002A4DD0C87C00284AD0121A0844D5B23F
:1035C00000F114016A1C1330FCF7CFFFA068C17C26
:1035D000491EC174A068817C491E81748DB3082284
:1035E0001C49206905F07AFE204603F07DFB8178B6
:1035F000C078814211D1A06817A2C17C431808216C
:103600002046143304F078F9204600F075F9294675
:103610002046BDE8704001F0D5BA204600F0D8F948
:10362000204600F069F9A0680BA2C17C431808216C
:103630002046143304F060F92046BDE8704000F0E5
:1036400091B92069BDE87040044A03A105F046BE67
:1036500070BD00008438000025730000A4DB00006A
:1036600070B504468068827CC17C521A12F0FF0556
:1036700048D0084400F115012A461430FCF775FFC4
:10368000A068817C491E8174204603F02DFB81785F
:10369000C07881420CD1A0681BA2C17C43180821CC
:1036A0002046143304F028F94FF47076C4B913E0BF
:1036B000204600F08DF9204600F01EF9A06812A205
:1036C000C17C431808212046143304F015F9204624
:1036D000BDE8704000F046B90CA13046FFF7AEFBE4
:1036E000206918B909A13046FFF7A8FB154A06A1C1
:1036F000206905F0F3FD6D1EE9B22046BDE870407B
:1037000001F060BA70BD0000257300002E2E5C2E03
:103710002E5C2E2E5C2E2E5C2E2E5C2E2E5C636F6D
:103720006D706F6E656E74735C6C696272617269E4
:1037300065735C636C695C6E72665F636C692E6353
:1037400000000000A8DB00002DE9F041044680687D
:103750000F46D0F83C11C27C11F00106817CA1EB30
:103760000203DDB20AD07F2901D3002D7ED0A068EC
:10377000C17C08440021077566B113E07F297CD223
:10378000002DF4D0831803F114012A46481CFCF7DD
:10379000ECFEECE7A068827C521CD2B28274A06876
:1037A000143281544DB3204603F09EFA8178C078DC
:1037B00081420ED1A06832A2C17C43180821204664
:1037C000143304F099F8A81BC1B2204601F0FAF9AD
:1037D00021E0204600F0FCF8A06829A2C17C431833
:1037E00008212046143304F087F8204600F0BAF888
:1037F0000121204601F0F0FA0DE03EB1A068827C84
:10380000521CD2B28274A068143281543A461DA16F
:10381000206905F063FDA168C87C401CC87420467F
:1038200001F0BDF90028204603D0BDE8F04101F0C9
:10383000D5B901F004FE00281FD0204603F054FA49
:103840000546C078A978401A401EC1B2204601F052
:1038500047F9204601F0C2F9E878A978401AC1B2C8
:10386000204601F0C5FA2878401E00E005E0C1B20C
:103870002046BDE8F04101F0AFBABDE8F08100009C
:10388000257300002563000070B50D46040003D1C8
:103890000BA1E120FFF7D2FA606818B908A1E22075
:1038A000FFF7CCFA6068006818B905A1E320FFF7BC
:1038B000C5FA6068294602682046BDE87040104796
:1038C0002E2E5C2E2E5C2E2E5C2E2E5C2E2E5C2E32
:1038D0002E5C636F6D706F6E656E74735C6C696285
:1038E0007261726965735C757362645C6170705F4C
:1038F000757362642E63000070B504004FF4B275F6
:1039000003D108A12846FFF799FA206918B905A143
:103910002846FFF793FA2069BDE870400F4A10A1CE
:1039200005F0DCBC2E2E5C2E2E5C2E2E5C2E2E5C2A
:103930002E2E5C2E2E5C636F6D706F6E656E7473D1
:103940005C6C69627261726965735C636C695C6E00
:1039500072665F636C692E63000000009CDB0000F0
:103960002573000070B504004FF4B87503D108A1A9
:103970002846FFF763FA206918B905A12846FFF722
:103980005DFA2069BDE870400F4A10A105F0A6BCA1
:103990002E2E5C2E2E5C2E2E5C2E2E5C2E2E5C2E61
:1039A0002E5C636F6D706F6E656E74735C6C6962B4
:1039B0007261726965735C636C695C6E72665F6389
:1039C0006C692E630000000093DB0000257300008B
:1039D00070B504004FF4B57503D108A12846FFF770
:1039E0002DFA206918B905A12846FFF727FA2069A2
:1039F000BDE870400F4A10A105F070BC2E2E5C2E61
:103A00002E5C2E2E5C2E2E5C2E2E5C2E2E5C636F7A
:103A10006D706F6E656E74735C6C696272617269F1
:103A200065735C636C695C6E72665F636C692E6360
:103A30000000000090DB0000257300002DE9F04F2E
:103A40004FF000099DB005464E464C46CDF8149007
:103A500000F01EFF284602F09BFA284601F04CF8C1
:103A6000284601F09CF810B9284601F0B7F8AA687A
:103A70000C2308A901A8143202F0BEFF03460198E6
:103A800040B15BB154A20221284603F035FF1DB0BE
:103A9000BDE8F08F284601F0A1F8F8E755485449F1
:103AA0000027A1EB00080DF1200A834613E008D39C
:103AB00051A0009055A202212846089B03F01CFF4C
:103AC000E5E70BEBC704606801685AF82900FCF7CA
:103AD00085FD18B17F1CB7EBD80FE8D9207820B14D
:103AE0004CA140F68200FFF7A9F94FF0000BCDF88A
:103AF00068B06068C7680FB1A9684860606809F17C
:103B000001044FF0000880680DF1580906900198F3
:103B1000844237D25AF824004CA1FCF75FFD50B321
:103B20005AF824004AA1FCF759FD20B3424608F197
:103B300001081AAB2146CDF80090069800F03AFE35
:103B4000B8F1000F1ED01A98E0B101685AF82400AD
:103B5000FCF744FD0028DAD11A98C16829B1A8F110
:103B60000101DDF818B02646059180684FF0000885
:103B7000641C0690CBE7A868D0F83C1141F0020124
:103B8000C0F83C11BBF1000F12D0CDF800901AAB79
:103B900031465846059A00F00DFEA9681A980AEBBE
:103BA000860248600199C368891B284698470AE045
:103BB00027B108AA28460199B84704E026A20221A5
:103BC000284603F099FEA868D0F83C1121F00201C4
:103BD000C0F83C115BE700006E6F74207465726D75
:103BE000696E617465643A2025630D0A0000000067
:103BF00074F1000034F100003A20636F6D6D616E66
:103C000064206E6F7420666F756E64002573257373
:103C10000D0A00002E2E5C2E2E5C2E2E5C2E2E5CAD
:103C20002E2E5C2E2E5C636F6D706F6E656E7473DE
:103C30005C6C69627261726965735C636C695C6E0D
:103C400072665F636C692E63000000002D680000DF
:103C50002D2D68656C700000506C65617365207374
:103C6000706563696679206120737562636F6D6D3D
:103C7000616E642E0D0A00008068D0F83C01C0F32C
:103C8000C00070472DE9F0410446C0688EB00D4673
:103C90000026C068324601A906F082FA18B1002059
:103CA0000EB0BDE8F0816DB1019806F053FAA1683D
:103CB000D1F82C01401CC1F82C0100F007000128AC
:103CC00079D10126204603F00FF8054680780128B7
:103CD00004D9401EC1B2204601F08AF82878012894
:103CE00004D9401EC1B2204600F06CFF2046FFF709
:103CF00003FE2EB131A20221204603F0FDFD5AE061
:103D00004FF000080023082202A9019806F031FABA
:103D100004980590BDF80C00ADF81800BDF80E0031
:103D2000ADF81A008DF81D800298082700F00300F6
:103D3000012802D0022818D032E002983B46860AB9
:103D4000C0F3C2008DF81C00029808A9C0F38315C7
:103D5000AA00019806F00DFA2069009005AB2A46EA
:103D600008A9304606F04CF91AE00298850DC0F318
:103D7000C2008DF81C00082D01D22E4600E0082656
:103D80003B46324608A9019806F0F3F93744AD1BCB
:103D900005AA314608A8236906F020F8002DEAD1CB
:103DA000019806F0D7F9E068002201A9C06806F082
:103DB000F7F90028A6D0012072E700004C6F737459
:103DC000206C6F6773202D20696E63726561736567
:103DD000206C6F67206261636B656E64207175652E
:103DE00075652073697A652E0D0A00002DE9F04192
:103DF0001E4617460D46040000D01DB909A1EA2051
:103E0000FFF71CF8606818B906A1EB20FFF716F859
:103E1000606833463A4601680C692946A446BDE805
:103E2000F04160472E2E5C2E2E5C2E2E5C2E2E5CDA
:103E30002E2E5C2E2E5C636F6D706F6E656E7473CC
:103E40005C6C69627261726965735C636C695C6EFB
:103E500072665F636C692E63000000007CB500260B
:103E60000446019601AB012269462046FFF7BEFFDA
:103E7000019800281CD09DF800007F28F2D806F099
:103E80008EF9A068417821B1012961D0022963D15E
:103E900067E0217E9DF80050A9420DD1807C00286A
:103EA000204606D0FFF7CAFD0221204600F0C8F8E0
:103EB0007CBD00F093FEF7E7092D1CD004DC002D3B
:103EC000D0D0082D04D11FE01B2D12D07F2D24D07F
:103ED000FCF7F0FA0068405D10F03E0FC2D02046BB
:103EE000FFF7CAFE9DF8001000B32046FFF72CFC38
:103EF000B8E7012133E02046FFF7BEFE0028B1D02D
:103F0000204600F0B7F8ADE72046FFF7B5FE0028E1
:103F1000A8D02046FFF748FBA4E72046FFF7ACFEF9
:103F200000289FD02046FFF79BFB9BE7A268907C70
:103F30007F2897D2D07C1318401CD0741975A068C4
:103F4000C17C08440675A068817C491C817489E79E
:103F50009DF800105B2901D0002100E00221417092
:103F600080E7002141702046FFF786FE00289FD0A1
:103F70009DF8000041380C28BAD2DFE800F00709AC
:103F80000E2D064C0650060606546BE7012100E094
:103F90000021204601F0E2FE64E7204602F0A4FE84
:103FA000054600786978884203D1A978EA78914279
:103FB0009ED0697988424FF00101204606D100F079
:103FC0008FFD6979204600F0FDFD01E000F004FF5F
:103FD000A068C17C491C15E0204602F085FE05461C
:103FE0000078A979491C884202D1A97801298AD090
:103FF00001284FF00101204606D000F0E3FDA06843
:10400000C17C491EC1742DE700F0F2FE697920469B
:1040100000F0E2FEF3E7204600F06EFD22E72046C6
:1040200000F093FD1EE7A068D0F83C2101219143E8
:10403000D0F83C2161F30002C0F83C2112E70000F7
:104040008268022911700BD1826800211175826883
:10405000D1748268917403A20321036803F04CBCFD
:104060007047000025730000002801D0FCF7AFBAAC
:10407000704700002DE9F04FA7B04FF0000805464B
:10408000CDF82480CDF8188080684746817CC1F146
:104090007F01C9B25FEA010B7BD0C27C00F1140141
:1040A0009430FCF762FAA8680024C17C084480F8C8
:1040B0009440FCF7FFF921900168A8680C23C27CAA
:1040C0000244D27C895CC0F83841AA6801F0010939
:1040D00012A920A8943202F08FFC1298FFF7C4FFB7
:1040E000C6B2A2461F940C94209818B14844401EB2
:1040F000B8426AD8B9F1000F01D0002605E012A835
:1041000050F82700FFF7B0FFC6B200240DA82246E2
:104110000090641C1FAB3946504600F04BFB1F98C3
:1041200000286BD0016812A8324650F82700FCF72F
:104130006CFA00280C9802D00028E7D05EE0D8B1D5
:104140001F980068FFF790FF0699C0B2884200D917
:104150000690BBF1000F2BD022A800900CAB42467A
:104160003946504600F026FB1F98006882190C98CB
:1041700000688319002015E0601E09901F980068F0
:10418000FFF772FFC0B20690801B584510DAC0B22C
:104190000DE07FE013F800C0614506D1401C10F02F
:1041A000FF0010D0115C0029F4D1834500D983466B
:1041B0001F98B4F101080C90A8D263A204212846EC
:1041C00003F09AFB1AE0FF20EFE700240DA8224637
:1041D0000090641C1FAB3946504600F0EBFAECB37C
:1041E0001F98002856D0016812A850F82700FCF745
:1041F000F5F90028EAD11F98D0F808A0BAF1000F0D
:1042000009D01F9838B120997F1CFFB201EB09003B
:104210008742FFF469AF0C9800283BD009984146CB
:1042200040455FD19AF8000038B10DA80A460090C9
:104230000CAB3946504600F0BDFA0C980068FFF709
:1042400013FFB04206D00C985A46006881192846E0
:1042500000F0C2FB2198A968026800E01DE0C87C5C
:104260000B181B7DD25CD2071DD0897C884211D2ED
:10427000284602F039FDA9688478C87C401CC874BF
:10428000284602F031FD8078A04227D1012128463E
:1042900000F0A2FD27B0BDE8F08F2BA20421284634
:1042A00003F02AFBF6E7D1F83C01C00711D0D1F8A2
:1042B0003C0120F00100C1F83C0120212846FFF715
:1042C00043FAA868D0F83C1141F00101C0F83C1154
:1042D000E0E720212846FFF737FADBE7284600F021
:1042E0007DFCD7E700212846069A07F043FD0DF133
:1042F0003409099C0EE01FAB224639465046CDF8E2
:10430000009000F057FA1F98069A0168284607F0B7
:1043100031FD641C4445EED917A2032128462B68C1
:1043200003F0EAFAAB6816A208212846143303F01A
:10433000E3FA284600F01AFD0C985A4600688119E5
:10434000284600F049FBA5E75461622066756E635C
:1043500074696F6E3A20636F6D6D616E6473206374
:104360006F756E746572206F766572666C6F7765B7
:10437000642E0D0A000000000D0A257300000000E5
:104380002573000070B505460C0004D107A14FF459
:104390001260FEF753FD002D06D0A068D0F83C1146
:1043A00041F02001C0F83C1170BD00002E2E5C2EA3
:1043B0002E5C2E2E5C2E2E5C2E2E5C2E2E5C636FC1
:1043C0006D706F6E656E74735C6C69627261726938
:1043D00065735C636C695C6E72665F636C692E63A7
:1043E0000000000070B5044640680D4690F82800B3
:1043F00030B1A0680068FDF7BBF908B108280CD1FE
:10440000012685B1606903F0A1FF616800220831CF
:10441000606903F057FF08B1062070BD606880F83E
:104420002960002070BD606890F8280048B9074AEC
:104430000021A068FDF720F96168002881F8286054
:10444000F0D12046BDE8704007F0ECBDE9C800009F
:1044500070B5044640680D46026060680022436003
:10446000606880F82820606880F829206068202231
:104470000830FCF77AF82C61074A2946606903F096
:1044800021FF050005D1E06806F012FA206906F068
:104490000FFA284670BD000011CB00002DE9F04155
:1044A0001C0016460F46054603D106A1D220FEF792
:1044B000C5FC266022463946E868BDE8F04106F0B2
:1044C0000DB900002E2E5C2E2E5C2E2E5C2E2E5C46
:1044D0002E2E5C2E2E5C636F6D706F6E656E747326
:1044E0005C6C69627261726965735C636C695C754E
:1044F0006172745C6E72665F636C695F7561727421
:104500002E63000010B50446406903F01FFFA06849
:104510000068BDE81040FDF72BB900002DE9FC4113
:104520001D0016460F46044603D11AA1E620FEF7E9
:1045300085FC2E602A463946206906F01BF90500E5
:1045400025D16069234A0178515C19B1001D07F03B
:10455000ABFB02E00C3007F09DF9C0B9FF200090E2
:1045600001236A4601A9206906F05EF978B900982E
:104570000199C2B2606903F0D9FE0546606890F8FF
:10458000290020B11DB92069009906F039F92846A3
:10459000BDE8FC812E2E5C2E2E5C2E2E5C2E2E5C19
:1045A0002E2E5C2E2E5C636F6D706F6E656E747355
:1045B0005C6C69627261726965735C636C695C757D
:1045C0006172745C6E72665F636C695F7561727450
:1045D0002E630000740000202DE9F8431F461446A6
:1045E0008846050002D0B8F1000F03D11EA1BB2000
:1045F000FEF724FC6868006818B91BA1BC20FEF710
:104600001DFC002628E000BF686808EB06016B4629
:104610000268D2F80CC02246E04718B112A1C620A9
:10462000FEF70CFC0098844203D20FA1C720FEF7CE
:1046300005FC00980644241A70B9A868017803297B
:104640000AD000BFD0F83C118906FBD5D0F83C1148
:1046500021F02001C0F83C11002CD5D1002F01D051
:1046600000983860BDE8F8832E2E5C2E2E5C2E2E2E
:104670005C2E2E5C2E2E5C2E2E5C636F6D706F6E2A
:10468000656E74735C6C69627261726965735C6398
:104690006C695C6E72665F636C692E63000000007B
:1046A00070B5084C050009D010342168002907D0E6
:1046B00008682060496828468847F6E70834F4E728
:1046C00070BD0000B8070020054A012120B1012873
:1046D00005D19170FFF7E4BF51700020FAE77047F1
:1046E000B807002038B5094C1546206818B908A14C
:1046F0000920FEF7A3FB6A4613A16868FBF794FF45
:10470000009821680E30C0B2884738BD6C00002088
:104710002E2E5C2E2E5C2E2E5C2E2E5C2E2E5C2ED3
:104720002E5C636F6D706F6E656E74735C6C696226
:104730007261726965735C6273705C6273705F63EF
:104740006C692E63000000002575000038B5094C27
:104750001546206818B908A11320FEF76FFB6A46BA
:1047600013A16868FBF760FF00982168C0B2884712
:1047700038BD00006C0000202E2E5C2E2E5C2E2EEC
:104780005C2E2E5C2E2E5C2E2E5C636F6D706F6E19
:10479000656E74735C6C69627261726965735C6288
:1047A00073705C6273705F636C692E63000000005D
:1047B000257500002DE9F05F1C000A9F154688460C
:1047C000064603D121A1FF20FEF738FB27B91FA120
:1047D0004FF48070FEF732FB4FF00009B8F1000F84
:1047E0000BD026B3307840B37268394628469047DC
:1047F0003868E0B12760BDE8F09F22492248A1EB6C
:104800000008B5EBD80F15D2DFF880A0002683464C
:104810000AE000BF0BEBC607786801685AF825006C
:10482000FBF7DCFE20B1761CB6EBD80FF2D301E02B
:10483000786808E0C4F80090DDE7706800EB0510C8
:1048400001680029F6D02060D5E700002E2E5C2EEE
:104850002E5C2E2E5C2E2E5C2E2E5C2E2E5C636F1C
:104860006D706F6E656E74735C6C69627261726993
:1048700065735C636C695C6E72665F636C692E6302
:104880000000000074F1000034F100005802002024
:104890002DE9F041856806460024287D002812D0C5
:1048A000A046FBF707FE0746D0F8000004F114010C
:1048B00004F10104695CE4B2415CC90705D0002C35
:1048C000F4D185F81480BDE8F081641E14F0FF0473
:1048D0000FD0A87C021B04F11400291805F1140064
:1048E000521CFBF742FEB168887C001B8874B168DB
:1048F000C874B2683D68937CD01813300446002118
:1049000002E0491CC9B2401E0778EF5DFF07F8D1ED
:104910008442D8D05B1A143302F80380B268907CCA
:10492000401A9074B168C874CDE700002DE9F05FBB
:1049300026484168F1B3DFF898B00E688146DBF88D
:10494000004087688078E11B21F07F45ED1CB0B9FD
:10495000DFF880804FF48030C8F84403C8F80403BF
:104960001120FCF715FB1120FCF71DFB4FF0010A8D
:10497000C8F800A02F2006F0F1FA89F802A0B5428D
:1049800000D23546124BE8193C3320F07F401860C6
:10499000DBF800105A46091B21F07F41001B20F074
:1049A0007F40C91C81420FD9106818602F2006F083
:1049B000D5FA00E004E0BDE8F05F1120FCF7FEBA94
:1049C000BDE8F05F07F0D0BABDE8F09FE00000203E
:1049D00004150140001001402DE9F04115460F007B
:1049E000044604D123A140F28650FEF727FAA068BE
:1049F000817CC27C8B1A2944DEB27F2937D8002DF6
:104A000035D0104400F1140105F114021044721C59
:104A1000FBF7ABFDA0682A46C17C08443946143038
:104A2000FBF7A3FDA0681430FFF71EFBA1681FA2CF
:104A30008874A068C17C431808212046143302F012
:104A40005BFFA068C17C2944C174204600F0A7F830
:104A500018B9204600F0F3FC10B1204600F0BEF873
:104A6000002E04D02046BDE8F04100F07FB9BDE83B
:104A7000F08100002E2E5C2E2E5C2E2E5C2E2E5CE5
:104A80002E2E5C2E2E5C636F6D706F6E656E747370
:104A90005C6C69627261726965735C636C695C6E9F
:104AA00072665F636C692E6300000000257300006E
:104AB000EFF30580C005C00D10D0103840B20028BB
:104AC00006DA00F00F0000F1E02090F8140D03E08A
:104AD00000F1E02090F80004400970470F20704773
:104AE000002904D00A46006901A104F0F7BB704711
:104AF0001B5B25644200000070B5054602F0F4F827
:104B0000044600786178884203D1A078E178884231
:104B10001AD0E178A078814204D9081AC1B2284697
:104B2000FFF7DEFF20786178884205D9401AC1B2CC
:104B3000284600F047F804E0081AC1B2284600F001
:104B40004BF9A868817CC17470BD70B5054602F050
:104B5000CBF8044601788079401C814202D1A078CC
:104B600001281BD0A078012804D9401EC1B22846D4
:104B700000F03EF92078A179884206D9401A401EFB
:104B8000C1B2284600F01EF805E0081A401CC1B268
:104B9000284600F021F9A9680020C87470BD10B53E
:104BA00004460068FFF760FA0146A068C27C407BBB
:104BB0001144B1FBF0F200FB121008B1002010BD4F
:104BC000012010BD002904D00A46006901A104F0AB
:104BD00085BB70471B5B25644400000070B5040072
:104BE0004FF4BB7503D108A12846FEF727F92069C9
:104BF00018B905A12846FEF721F92069BDE87040E3
:104C00000F4A10A104F06ABB2E2E5C2E2E5C2E2EB5
:104C10005C2E2E5C2E2E5C2E2E5C636F6D706F6E84
:104C2000656E74735C6C69627261726965735C63F2
:104C30006C695C6E72665F636C692E6300000000D5
:104C400096DB0000257300002DE9FC470026044692
:104C50008DF8046080683546B146B04680219430B6
:104C6000FBF7AAFC4049206904F038FB206904F0F6
:104C700075FB00276B46012201A92046FFF7B6F815
:104C80000098D8B19DF804001B2806D0A16891F8BF
:104C900094101B29EED152281FD0A26808F194016C
:104CA000505408F1010000F0FF08B8F1090F0AD9CB
:104CB000A168042081F89490BDE8FC872A494FF64A
:104CC000C0100D31884700980028D3D17F1CBFB297
:104CD000B7F57A7FCED30D20EEE7A16808F19400F6
:104CE0004A4601F80090A16891F895005B2803D02E
:104CF00081F894200B20DFE702206FF02F0309E0FA
:104D000005EB850503EB4505401C3D44C0B2ADB243
:104D1000802808D200F19407CF5D3B2FF0D1401CD2
:104D2000C0B2802809D30C20C6E700BF06EB860678
:104D300003EB46063E44B6B2F1E700F19407CF5DBF
:104D4000002FF3D1FA20FA2E01D9087200E00E727A
:104D5000FA2D02D9A168887201E0A0688572A06866
:104D600080F894200020A7E7B4DB000070B505466A
:104D700001F0BAFF04468078E178884201D101262B
:104D800000E000262846FFF70AFF18B9284600F081
:104D900056FB10B12846FFF721FF1EB1607821783D
:104DA000401A12E0E078A178401AC1B2284600F01B
:104DB0001FF820786178884206D9401AC1B2284687
:104DC000BDE8704000F008B8081AC1B22846BDE836
:104DD0007040FFF7F7BE0000002904D00A460069C2
:104DE00001A104F07BBA70471B5B256443000000FF
:104DF000002904D00A46006901A104F06FBA704787
:104E00001B5B2564410000002DE9F0470025DFF819
:104E100090803DE06068002100EBC50601203278FB
:104E20009146FBF738FBD4E9062300EA020701EAC2
:104E3000030C57EA0C0729D082438B434846C4E948
:104E4000062306F099F93278824691460120002126
:104E5000FBF721FBD4E9042300EA020401EA03077B
:104E60004A4650460021FBF716FB44404F403C4366
:104E70000CD17078012801D0012000E00020726878
:104E800080EA0A0012B1C1B2484690476D1CEDB2EB
:104E900098F8000044468542BCD3BDE8F087000086
:104EA000C000002010B50021024801F0A6FF80F3E9
:104EB000100010BDE41200200E4910B50A784C789D
:104EC0000023A24212D0521CD2B20A70022A00D190
:104ED0000B70084A0B780C3252F823200260886865
:104EE000104420F07F408860012010BD0360002046
:104EF00010BD0000E000002010B50446010600F0DF
:104F00000F00092804D306A14FF42B70FDF796FF7C
:104F10006FEA0460C10F204661F31F1010BD00004E
:104F20002E2E5C2E2E5C2E2E5C2E2E5C2E2E5C2EBB
:104F30002E5C636F6D706F6E656E74735C64726906
:104F4000766572735F6E72665C757362645C6E72B6
:104F5000665F6472765F757362642E6300000000A2
:104F600070B50546000605F00F0402D5092C09D3DB
:104F700001E0092C08D307A140F29920FDF75EFF5C
:104F8000280601D5134801E01248903800EB0410C0
:104F900070BD00002E2E5C2E2E5C2E2E5C2E2E5C04
:104FA0002E2E5C2E2E5C636F6D706F6E656E74734B
:104FB0005C647269766572735F6E72665C7573624B
:104FC000645C6E72665F6472765F757362642E6392
:104FD000000000005C08002010B50446010600F047
:104FE0000F00092804D303494FF41F70FDF726FF73
:104FF000204610BD10D1000010B508F063F88020E5
:10500000FFF7AEFF817B0124032902D0006800284E
:1050100009D18020FFF770FF8440E143BDE81040D4
:10502000014801F0DABE10BD94000020812005F097
:1050300007BD822005F004BD832005F001BD84205A
:1050400005F0FEBC852005F0FBBC862005F0F8BC11
:10505000872005F0F5BC882005F044BD38B508F080
:1050600031F80020FFF77CFF817B0124032905D064
:10507000006868B1BDE8384003F057BF0020FFF773
:105080003BFF8440E143BDE838400A4801F0A5BE3B
:105090000020FFF731FF8440E143064801F09DFE08
:1050A00005480449C0680C3900904968684688473B
:1050B00038BD00009400002090D70000012005F0CA
:1050C00053BD022005F050BD032005F04DBD042066
:1050D00005F04ABD052005F047BD062005F044BD9A
:1050E000072005F041BD000038B5082407F0EAFFAD
:1050F0002046FFF735FF817B032915D00068002883
:1051000012D12046FFF7F8FE01218140C94307482C
:1051100001F063FE06480549406900900C398DF89E
:10512000024049686846884738BD00009400002066
:1051300090D7000070B5154804680460BFF36F8F06
:10514000BFF34F8FBFF36F8FBFF34F8F03F03AFD65
:1051500038B10F48016921F0011201F00111144327
:10516000016101266CB194FAA4F0B0FA80F52846EA
:10517000FDF76FFE06FA05F18C43294608F03EF96B
:10518000F0E7BDE8704007F0E3BF00006C74024038
:105190008800002010B5054CA078FFF7ADFE014651
:1051A000A078BDE8104008F029B900008800002070
:1051B000F8B51A4800681A4DC6B2A878FFF79CFEE9
:1051C000012404FA00F12889EA68C04380B2104340
:1051D000014202D0A87808F089F806F08000A87093
:1051E0000020FFF789FE04FA00F68020FFF784FE16
:1051F00004FA00F006430A48F1430C3001F0EDFDDB
:105200008020FFF779FE8440A86804430548AC601D
:10521000006A0090696868468847F8BD807402405B
:105220008800002090D7000038B5002000900B487F
:105230000068ADF802008820FFF75EFE012505FA40
:1052400000F40820FFF758FE054985402C43886884
:1052500004438C6049686846884738BD2075024021
:105260008800002070470000F8B51C4805682846F3
:1052700005F022FDBFF36F8FBFF34F8F184E194C0F
:10528000E80506D501206070706A00906168684684
:105290008847A8054FF0000705D56770B06A0090F1
:1052A000616868468847680516D56078002813D07D
:1052B00005F00CFD20B10CA140F2C540FDF7BEFD8C
:1052C0006770194901200860582005F007FDF06A51
:1052D0000090616868468847F8BD0000007402408D
:1052E00090D70000880000202E2E5C2E2E5C2E2EE3
:1052F0005C2E2E5C2E2E5C2E2E5C636F6D706F6E9E
:10530000656E74735C647269766572735F6E7266E3
:105310005C757362645C6E72665F6472765F7573EF
:1053200062642E630000000008750240054908B55C
:1053300000204870887004484068009049686846BA
:10534000884708BD8800002090D700002DE9F05F55
:1053500017460E00814670D013B1F9B2FFF73CFD3D
:105360000024FBF7A7F88246006800E0641C315D6A
:10537000415CC907FAD100253046FEF775FED9F821
:105380000810001B4A7BD11B814228D306EB04087E
:1053900005E000BF18F805100A290CD06D1C8542E5
:1053A000F8D33119D9F8100003F098FF4846BDE84A
:1053B000F05FFFF713BCD9F8100003F0CFFF4146B0
:1053C00000232A464846FFF707F92C444846641C48
:1053D000FFF704FCF9B24846FFF7FEFCE1E78B4615
:1053E000DAF8001006EB040818F805000B5CDB0780
:1053F00002D0AB460A2804D0E819904201D26D1CB5
:10540000F2E7D9F8100003F0A9FF414600235A46FD
:105410004846FFF7E1F85C44DAF8000000E0641C5D
:10542000315D415CC907FAD14846FFF7D7FBF9B2B5
:105430004846FFF7D1FC9EE7FFE7BDE8F09F10B5B7
:1054400004460068FEF710FE0146A068827C407B9F
:105450001144B1FBF0F200FB121008B1002010BDA6
:10546000012010BD2DE9F0418046024601200021B7
:10547000FBF711F81A4F05460E467868FCF778F9E5
:1054800000280CD1174CD4E9062110462A4001EA25
:1054900006031A4305D0A843B143C4E90601BDE899
:1054A000F081404605F068FE30B1D4E9040128439C
:1054B0003143C4E9040105E0D4E90410A943B04331
:1054C000C4E90410D4E9060128433143C4E90601C4
:1054D000A1687868BDE8F0410022FCF709B9000036
:1054E00084D80000C00000207F2801DD7F207047A5
:1054F0006FF07F01884201DA0846704740B270477A
:1055000010B5040003D106491B20FDF797FC206865
:1055100018B903491C20FDF791FC2068083010BD24
:1055200040DF000070B5064600F082FA0446FFF73F
:10553000E7FF0546E06A04F0A1FE28B103212846F2
:10554000FDF74DF9002070BD3046BDE8704000F019
:105550004DBB3EB5044600F06BFA054620460021DF
:10556000FCF7CCFA0121FCF7A1FA047805F1100050
:10557000FDF724F900210091019102910168009149
:105580004068019069462046FCF758FE3EBD000089
:1055900070B50D46060004D10C4940F22710FDF706
:1055A0004DFC25B909494FF49470FDF747FC30468E
:1055B00000F03EFA00F11004FFF7A2FF02462B466E
:1055C00021463046BDE87040FDF73CB840DF0000A2
:1055D0002DE9F84F8B46DFF8C0830546097A1F4650
:1055E000164688F80010584600F022FA824625B97F
:1055F000EA4940F26910FDF721FC28684FF00009E4
:105600004C46B0F5C17F77D022DC40F27912A0F28F
:105610007911904271D012DC40F27511A0F275122E
:1056200088425ED006DCA8B3B0F5B87F3CD0101D30
:1056300071D144E0022A61D0032AF9D16CE0092932
:1056400069D2DFE801F06885919C6868A7B2BD0067
:1056500040F29B12A0F29B11904274D012DCB0F584
:10566000C87F71D007DC11F118006ED001286DD011
:105670000A28DDD1E2E0A0F58070913867D00928D2
:10568000D6D11CE1091F0529DAD2DFE801F0F9F8CB
:10569000F7F6F50088F8019070E109202871BC4206
:1056A00002D34FF4B87053E10EB12879305504207D
:1056B000641C2871BC4202D340F2711048E10EB163
:1056C0002879305598F801105846641CFCF716FAF2
:1056D000C8F8080000782871BC4202D340F2751067
:1056E00036E10EB128793055641C85F80490BC422F
:1056F00004D340F277102BE16DE018E00EB1287969
:105700003055D8F80800641CBC424078287103D397
:105710004FF4BC701CE13BE10EB1287930550320F9
:10572000641C2871BC4202D340F2791010E10EB122
:10573000287930559AF81800641C2871BC4207D3A8
:105740004FF4BD7004E1C5E089E04FE05BE098E014
:105750000EB1287930559AF81900641C2871BC42A2
:1057600002D340F27B10F3E00EB128793055641C6F
:1057700085F80490BC4202D34FF4BE70E8E00EB14D
:10578000287930550920641C2871BC4202D340F2AC
:105790007F10DDE00EB1287930552120641C28717E
:1057A000BC4202D34FF4C070D2E00EB1287930551C
:1057B0001120641C2871BC4202D340F28110C7E062
:1057C0000EB1287930550120641C2871BC4202D3E7
:1057D0004FF4C170BCE00EB128793055641C85F8D7
:1057E0000490BC4202D340F28310B1E00EB128799C
:1057F00030555846641C00F027F92871BC4202D38A
:105800004FF4C270A4E00EB1287930555846641C9C
:1058100000F01AF988F8020088F803903AE0584638
:10582000009100F005F900690099BC4250F8210090
:105830000079287102D340F28D1089E00EB12879E9
:10584000305598F803105846641C00F002F9A8F887
:1058500006002871BC4202D34FF4C87078E00EB144
:1058600028793055B8F80600641C000A2871BC423B
:1058700007D340F291106BE06EE05FE053E047E049
:105880003BE00EB12879305598F80310491C88F890
:105890000310641C98F8031098F8022040469142C7
:1058A000BDD3816849780171494688F803905DE06D
:1058B00007202871BC4202D34FF4CD7048E00EB1EE
:1058C000287930550520641C2871BC4202D340F26F
:1058D0009B103DE00EB12879305598F80110641CFA
:1058E000D8F80800FCF7E2F8C8F80C000078287136
:1058F000BC4202D340F29F102AE00EB12879305505
:105900000320641C2871BC4202D34FF4D0701FE006
:105910000EB1287930554020641C2871BC4202D356
:1059200040F2A11014E00EB128793055641C85F8BE
:105930000490BC4202D34FF4D17009E00EB1287933
:1059400030550120641C2871BC4205D340F2A310DD
:1059500028600120BDE8F88F0EB12879305598F8FD
:1059600003104046491C88F80310641C0279C9B230
:1059700091429DD34178491C88F8011098F8011094
:1059800098F800008142FFF488AE40F2A710DFE7EC
:105990000020C5F80090DDE74001002040DF000056
:1059A0002DE9F05F1D46DDF8289017468B46040070
:1059B00004D11D494FF4DA70FDF740FAAA461B4D99
:1059C0002068002638B1A0F58070BD381DD00020B9
:1059D0002660BDE8F09F4946584600F03AF86861F5
:1059E00030462E6118E05846884600F021F80069DC
:1059F000564550F82900806810F80800207104D33B
:105A000040F2BD1020600120E3E70FB12079B855C6
:105A10002869401C761C2861014668698142E2D3EE
:105A200040F2C110EEE7000040DF0000400100201E
:105A300010B5040003D103492B20FDF7FFF92046E0
:105A400010BD000040DF000010B5FFF7F1FF007D42
:105A500010BD10B50C46FFF7EBFF006950F82400AD
:105A6000006810BD70B505460C460020FDF702F930
:105A7000134A35B1012D08D0022D13D0032D17D1B3
:105A800007E010882044108012E0508820445080A5
:105A90000EE01079012C02D020F0020007E040F067
:105AA000020004E01079012C07D020F001001071F1
:105AB000BDE870400020FDF70BB940F00100F6E7AB
:105AC0003A00002070B51C4E3078002832D1B41D49
:105AD0002146B4F90000097920B9628812B96279C7
